{
	"data": {
		"bytecode": {
			"linkReferences": {},
			"object": "608060405234801562000010575f80fd5b50604051620033163803806200331683398101604081905262000033916200016a565b806001600160a01b0381166200006257604051631e4fbdf760e01b81525f600482015260240160405180910390fd5b6200006d81620000f1565b5060018055600380546001600160a01b0319166001600160a01b03841617905560405130906200009d9062000140565b6001600160a01b039091168152602001604051809103905ff080158015620000c7573d5f803e3d5ffd5b50600280546001600160a01b0319166001600160a01b039290921691909117905550620001a09050565b5f80546001600160a01b038381166001600160a01b0319831681178455604051919092169283917f8be0079c531659141344cd1fd0a4f28419497f9722a3daafe3b4186f6b6457e09190a35050565b61096580620029b183390190565b80516001600160a01b038116811462000165575f80fd5b919050565b5f80604083850312156200017c575f80fd5b62000187836200014e565b915062000197602084016200014e565b90509250929050565b61280380620001ae5f395ff3fe608060405234801561000f575f80fd5b506004361061011c575f3560e01c8063b0340123116100a9578063d75d43c91161006e578063d75d43c9146102b8578063d85c91ae146102cb578063deb50c35146102de578063f2fde38b146102f1578063f8a8be4014610304575f80fd5b8063b03401231461020c578063b7b614941461021f578063bad22aff14610227578063bc3f931f1461023c578063d23254b41461025c575f80fd5b80634a5c4dfe116100ef5780634a5c4dfe146101b557806365422a55146101be578063715018a6146101d15780638da5cb5b146101d95780638f64be30146101e9575f80fd5b80630121b93f1461012057806304432c8a1461013557806304f50270146101655780634385963214610192575b5f80fd5b61013361012e366004611e7a565b61030c565b005b600254610148906001600160a01b031681565b6040516001600160a01b0390911681526020015b60405180910390f35b610184610173366004611e7a565b60076020525f908152604090205481565b60405190815260200161015c565b6101a56101a0366004611ea7565b610338565b604051901515815260200161015c565b61018460055481565b6101336101cc366004611f84565b610365565b6101336103bb565b5f546001600160a01b0316610148565b6101fc6101f7366004611e7a565b6103ce565b60405161015c9493929190612128565b600354610148906001600160a01b031681565b610184610711565b61022f610783565b60405161015c9190612161565b61024f61024a366004611ea7565b610e87565b60405161015c919061220d565b61029961026a366004611ea7565b600660209081525f9283526040808420909152908252902080546001909101546001600160a01b039091169082565b604080516001600160a01b03909316835260208301919091520161015c565b6101846102c6366004612345565b610efc565b6101846102d936600461246e565b61121b565b61022f6102ec366004611e7a565b61133f565b6101336102ff36600461246e565b611744565b61022f61177e565b610314611834565b5f61031e3361121b565b905061032b82338361185e565b5061033560018055565b50565b5f8281526006602090815260408083206001600160a01b0385811685529252909120541615155b92915050565b61036d611834565b5f6103773361121b565b90505f5b82518110156103b0576103a88382815181106103995761039961248e565b6020026020010151338461185e565b60010161037b565b505061033560018055565b6103c3611ac4565b6103cc5f611af0565b565b60046020525f9081526040908190208054825160c08101909352600182018054919391829082906103fe906124a2565b80601f016020809104026020016040519081016040528092919081815260200182805461042a906124a2565b80156104755780601f1061044c57610100808354040283529160200191610475565b820191905f5260205f20905b81548152906001019060200180831161045857829003601f168201915b5050505050815260200160018201805461048e906124a2565b80601f01602080910402602001604051908101604052809291908181526020018280546104ba906124a2565b80156105055780601f106104dc57610100808354040283529160200191610505565b820191905f5260205f20905b8154815290600101906020018083116104e857829003601f168201915b5050509183525050600282015460209091019060ff16600581111561052c5761052c612068565b600581111561053d5761053d612068565b8152602001600382018054610551906124a2565b80601f016020809104026020016040519081016040528092919081815260200182805461057d906124a2565b80156105c85780601f1061059f576101008083540402835291602001916105c8565b820191905f5260205f20905b8154815290600101906020018083116105ab57829003601f168201915b505050505081526020016004820180546105e1906124a2565b80601f016020809104026020016040519081016040528092919081815260200182805461060d906124a2565b80156106585780601f1061062f57610100808354040283529160200191610658565b820191905f5260205f20905b81548152906001019060200180831161063b57829003601f168201915b50505050508152602001600582018054610671906124a2565b80601f016020809104026020016040519081016040528092919081815260200182805461069d906124a2565b80156106e85780601f106106bf576101008083540402835291602001916106e8565b820191905f5260205f20905b8154815290600101906020018083116106cb57829003601f168201915b505050919092525050506008909101546001600160a01b0381169060ff600160a01b9091041684565b6002546040805163183afaa960e11b815281515f9384936001600160a01b0390911692633075f55292600480830193928290030181865afa158015610758573d5f803e3d5ffd5b505050506040513d601f19601f8201168201806040525081019061077c91906124da565b5092915050565b61078b611e1a565b610793611834565b61079b611ac4565b60025460408051634430402d60e11b815281515f936001600160a01b031692638860805a9260048082019391829003018187875af19250505080156107fd575060408051601f3d908101601f191682019092526107fa918101906124da565b60015b610971576108096124fc565b806308c379a0036108ed575061081d612514565b8061082857506108ef565b6040516c4865617020697320656d70747960981b6020820152602d01604051602081830303815290604052805190602001208160405160200161086b919061259d565b60405160208183030381529060405280519060200120036108d35760405162461bcd60e51b815260206004820152601b60248201527f4e6f2070696563657320617661696c61626c6520746f2064726f70000000000060448201526064015b60405180910390fd5b8060405162461bcd60e51b81526004016108ca91906125b8565b505b3d808015610918576040519150601f19603f3d011682016040523d82523d5f602084013e61091d565b606091505b5060405162461bcd60e51b815260206004820152602260248201527f556e6b6e6f776e206572726f722065787472616374696e6720746f7020706965604482015261636560f01b60648201526084016108ca565b5090505f81815260046020526040808220600801805460ff60a01b1916600160a01b17905551339183917fa9bd530a1a995fe2b42bddf7938e2e1acaef954cc9b31ffd1d13b7c3337502c89190a35f5b5f82815260046020526040902060070154811015610aa1575f8281526004602052604090206008810154600790910180546001600160a01b039092169183908110610a0e57610a0e61248e565b5f91825260208083206002909202909101548583526004909152604090912060070180546001600160a01b039092169185917f1d1b857a6a6c5e310602c1448332e9b2799ba4c6ae3d1fb7527b62828dc7b91d9186908110610a7257610a7261248e565b905f5260205f20906002020160010154604051610a9191815260200190565b60405180910390a46001016109c1565b5060045f8281526020019081526020015f206040518060a00160405290815f8201548152602001600182016040518060c00160405290815f82018054610ae6906124a2565b80601f0160208091040260200160405190810160405280929190818152602001828054610b12906124a2565b8015610b5d5780601f10610b3457610100808354040283529160200191610b5d565b820191905f5260205f20905b815481529060010190602001808311610b4057829003601f168201915b50505050508152602001600182018054610b76906124a2565b80601f0160208091040260200160405190810160405280929190818152602001828054610ba2906124a2565b8015610bed5780601f10610bc457610100808354040283529160200191610bed565b820191905f5260205f20905b815481529060010190602001808311610bd057829003601f168201915b5050509183525050600282015460209091019060ff166005811115610c1457610c14612068565b6005811115610c2557610c25612068565b8152602001600382018054610c39906124a2565b80601f0160208091040260200160405190810160405280929190818152602001828054610c65906124a2565b8015610cb05780601f10610c8757610100808354040283529160200191610cb0565b820191905f5260205f20905b815481529060010190602001808311610c9357829003601f168201915b50505050508152602001600482018054610cc9906124a2565b80601f0160208091040260200160405190810160405280929190818152602001828054610cf5906124a2565b8015610d405780601f10610d1757610100808354040283529160200191610d40565b820191905f5260205f20905b815481529060010190602001808311610d2357829003601f168201915b50505050508152602001600582018054610d59906124a2565b80601f0160208091040260200160405190810160405280929190818152602001828054610d85906124a2565b8015610dd05780601f10610da757610100808354040283529160200191610dd0565b820191905f5260205f20905b815481529060010190602001808311610db357829003601f168201915b505050505081525050815260200160078201805480602002602001604051908101604052809291908181526020015f905b82821015610e48575f848152602090819020604080518082019091526002850290910180546001600160a01b03168252600190810154828401529083529092019101610e01565b50505090825250600891909101546001600160a01b038116602083015260ff600160a01b909104161515604090910152915050610e8460018055565b90565b604080518082019091525f8082526020820152600554831115610ebc5760405162461bcd60e51b81526004016108ca906125ca565b505f9182526006602090815260408084206001600160a01b0393841685528252928390208351808501909452805490921683526001909101549082015290565b5f80610f0783611b3f565b90508061271014610f5a5760405162461bcd60e51b815260206004820152601f60248201527f546f74616c20425053206d7573742073756d20757020746f2031302c3030300060448201526064016108ca565b610f6384611c4e565b600580545f9182610f7383612608565b90915550600254604051631d834a1b60e01b8152600481018390525f60248201529192506001600160a01b031690631d834a1b906044015f604051808303815f87803b158015610fc1575f80fd5b505af1158015610fd3573d5f803e3d5ffd5b5050505f8281526004602052604090208281558651909150869060018301908190610ffe908261266c565b5060208201516001820190611013908261266c565b50604082015160028201805460ff1916600183600581111561103757611037612068565b021790555060608201516003820190611050908261266c565b5060808201516004820190611065908261266c565b5060a0820151600582019061107a908261266c565b5050506008810180546001600160a01b031916331790555f5b855181101561110157816007018682815181106110b2576110b261248e565b6020908102919091018101518254600180820185555f94855293839020825160029092020180546001600160a01b0319166001600160a01b039092169190911781559101519082015501611093565b50336001600160a01b0316827fc6dda5d2a7a2baaaa424904e38bc3992b0dc78bfb2900bbdeca620424fa64570885f015189602001518a606001518b60a001518c608001518d60400151600581111561115c5761115c612068565b60405161116e9695949392919061272c565b60405180910390a35f5b855181101561121057336001600160a01b031686828151811061119d5761119d61248e565b60200260200101515f01516001600160a01b0316847f1cd5f4915fbea5fb35c9ebdfb2bfd7d12423db85aea22a9b5e92d6b0ec08fce18985815181106111e5576111e561248e565b60200260200101516020015160405161120091815260200190565b60405180910390a4600101611178565b505495945050505050565b6003545f906001600160a01b03166112755760405162461bcd60e51b815260206004820152601860248201527f566f74696e6720746f6b656e206d75737420626520736574000000000000000060448201526064016108ca565b6003546040516370a0823160e01b81526001600160a01b038481166004830152909116906370a0823190602401602060405180830381865afa9250505080156112db575060408051601f3d908101601f191682019092526112d8918101906127a3565b60015b61035f5760405162461bcd60e51b815260206004820152602a60248201527f4661696c656420746f206765742062616c616e63652c20766f74696e67206e6f6044820152697420706f737369626c6560b01b60648201526084016108ca565b919050565b611347611e1a565b6005548211156113695760405162461bcd60e51b81526004016108ca906125ca565b60045f8381526020019081526020015f206040518060a00160405290815f8201548152602001600182016040518060c00160405290815f820180546113ad906124a2565b80601f01602080910402602001604051908101604052809291908181526020018280546113d9906124a2565b80156114245780601f106113fb57610100808354040283529160200191611424565b820191905f5260205f20905b81548152906001019060200180831161140757829003601f168201915b5050505050815260200160018201805461143d906124a2565b80601f0160208091040260200160405190810160405280929190818152602001828054611469906124a2565b80156114b45780601f1061148b576101008083540402835291602001916114b4565b820191905f5260205f20905b81548152906001019060200180831161149757829003601f168201915b5050509183525050600282015460209091019060ff1660058111156114db576114db612068565b60058111156114ec576114ec612068565b8152602001600382018054611500906124a2565b80601f016020809104026020016040519081016040528092919081815260200182805461152c906124a2565b80156115775780601f1061154e57610100808354040283529160200191611577565b820191905f5260205f20905b81548152906001019060200180831161155a57829003601f168201915b50505050508152602001600482018054611590906124a2565b80601f01602080910402602001604051908101604052809291908181526020018280546115bc906124a2565b80156116075780601f106115de57610100808354040283529160200191611607565b820191905f5260205f20905b8154815290600101906020018083116115ea57829003601f168201915b50505050508152602001600582018054611620906124a2565b80601f016020809104026020016040519081016040528092919081815260200182805461164c906124a2565b80156116975780601f1061166e57610100808354040283529160200191611697565b820191905f5260205f20905b81548152906001019060200180831161167a57829003601f168201915b505050505081525050815260200160078201805480602002602001604051908101604052809291908181526020015f905b8282101561170f575f848152602090819020604080518082019091526002850290910180546001600160a01b031682526001908101548284015290835290920191016116c8565b50505090825250600891909101546001600160a01b0381166020830152600160a01b900460ff16151560409091015292915050565b61174c611ac4565b6001600160a01b03811661177557604051631e4fbdf760e01b81525f60048201526024016108ca565b61033581611af0565b611786611e1a565b6002546040805163183afaa960e11b815281515f936001600160a01b031692633075f55292600480820193918290030181865afa1580156117c9573d5f803e3d5ffd5b505050506040513d601f19601f820116820180604052508101906117ed91906124da565b50905060045f8281526020019081526020015f206040518060a00160405290815f8201548152602001600182016040518060c00160405290815f820180546113ad906124a2565b60026001540361185757604051633ee5aeb560e01b815260040160405180910390fd5b6002600155565b5f81116118ad5760405162461bcd60e51b815260206004820181905260248201527f576569676874206d7573742062652067726561746572207468616e207a65726f60448201526064016108ca565b5f8381526006602090815260408083203384529091529020546001600160a01b03161561190c5760405162461bcd60e51b815260206004820152600d60248201526c105b1c9958591e481d9bdd1959609a1b60448201526064016108ca565b5f83815260046020526040902060080154600160a01b900460ff16156119745760405162461bcd60e51b815260206004820152601e60248201527f50696563652068617320616c7265616479206265656e2064726f70706564000060448201526064016108ca565b6005548311156119965760405162461bcd60e51b81526004016108ca906125ca565b6040805180820182526001600160a01b0384811680835260208084018681525f89815260068352868120938152928252858320945185546001600160a01b03191694169390931784559151600190930192909255858252600790529081208054839290611a049084906127ba565b90915550505f8381526007602052604090819020546002549151632da8041360e11b8152600481018690526024810182905290916001600160a01b031690635b500826906044015f604051808303815f87803b158015611a62575f80fd5b505af1158015611a74573d5f803e3d5ffd5b505060408051858152602081018590526001600160a01b03871693508792507f0271f53eebbe20450d9578f28ec279231556c34545b30e2278d754ffd39cd63c910160405180910390a350505050565b5f546001600160a01b031633146103cc5760405163118cdaa760e01b81523360048201526024016108ca565b5f80546001600160a01b038381166001600160a01b0319831681178455604051919092169283917f8be0079c531659141344cd1fd0a4f28419497f9722a3daafe3b4186f6b6457e09190a35050565b5f606482511115611b925760405162461bcd60e51b815260206004820152601f60248201527f43726561746f72206172726179206d757374206e6f74206265203e203130300060448201526064016108ca565b5f805b835181101561077c575f6001600160a01b0316848281518110611bba57611bba61248e565b60200260200101515f01516001600160a01b031603611c1b5760405162461bcd60e51b815260206004820152601760248201527f496e76616c69642063726561746f72206164647265737300000000000000000060448201526064016108ca565b838181518110611c2d57611c2d61248e565b60200260200101516020015182611c4491906127ba565b9150600101611b95565b5f81604001516005811115611c6557611c65612068565b60ff16118015611c8e5750600581604001516005811115611c8857611c88612068565b60ff1611155b611ccf5760405162461bcd60e51b8152602060048201526012602482015271496e76616c6964206d65646961207479706560701b60448201526064016108ca565b600181604001516005811115611ce757611ce7612068565b03611d40575f816060015151116103355760405162461bcd60e51b815260206004820152601a60248201527f496d6167652055524c206d7573742062652070726f766964656400000000000060448201526064016108ca565b600281604001516005811115611d5857611d58612068565b03611db1575f8160a0015151116103355760405162461bcd60e51b815260206004820152601e60248201527f416e696d6174696f6e2055524c206d7573742062652070726f7669646564000060448201526064016108ca565b600481604001516005811115611dc957611dc9612068565b03610335575f816080015151116103355760405162461bcd60e51b815260206004820152601560248201527415195e1d081b5d5cdd081899481c1c9bdd9a591959605a1b60448201526064016108ca565b6040518060a001604052805f8152602001611e616040805160c081018252606080825260208201529081015f81526020016060815260200160608152602001606081525090565b81526060602082018190525f6040830181905291015290565b5f60208284031215611e8a575f80fd5b5035919050565b80356001600160a01b038116811461133a575f80fd5b5f8060408385031215611eb8575f80fd5b82359150611ec860208401611e91565b90509250929050565b634e487b7160e01b5f52604160045260245ffd5b6040810181811067ffffffffffffffff82111715611f0557611f05611ed1565b60405250565b601f8201601f1916810167ffffffffffffffff81118282101715611f3157611f31611ed1565b6040525050565b60405160c0810167ffffffffffffffff81118282101715611f5b57611f5b611ed1565b60405290565b5f67ffffffffffffffff821115611f7a57611f7a611ed1565b5060051b60200190565b5f6020808385031215611f95575f80fd5b823567ffffffffffffffff811115611fab575f80fd5b8301601f81018513611fbb575f80fd5b8035611fc681611f61565b604051611fd38282611f0b565b82815260059290921b8301840191848101915087831115611ff2575f80fd5b928401925b8284101561201057833582529284019290840190611ff7565b979650505050505050565b5f5b8381101561203557818101518382015260200161201d565b50505f910152565b5f815180845261205481602086016020860161201b565b601f01601f19169290920160200192915050565b634e487b7160e01b5f52602160045260245ffd5b5f815160c0845261209060c085018261203d565b9050602083015184820360208601526120a9828261203d565b9150506040830151600681106120cd57634e487b7160e01b5f52602160045260245ffd5b80604086015250606083015184820360608601526120eb828261203d565b91505060808301518482036080860152612105828261203d565b91505060a083015184820360a086015261211f828261203d565b95945050505050565b848152608060208201525f612140608083018661207c565b6001600160a01b039490941660408301525090151560609091015292915050565b5f602080835283518184015280840151604060a0604086015261218760c086018361207c565b6040870151868203601f19016060880152805180835290850193505f918501905b808310156121e2576121ce82865180516001600160a01b03168252602090810151910152565b9385019360019290920191908301906121a8565b5060608801516001600160a01b03811660808901529450608088015180151560a08901529450612010565b81516001600160a01b03168152602080830151908201526040810161035f565b5f82601f83011261223c575f80fd5b813567ffffffffffffffff81111561225657612256611ed1565b60405161226d601f8301601f191660200182611f0b565b818152846020838601011115612281575f80fd5b816020850160208301375f918101602001919091529392505050565b80356006811061133a575f80fd5b5f82601f8301126122ba575f80fd5b813560206122c782611f61565b604080516122d58382611f0b565b84815260069490941b86018301938381019250878511156122f4575f80fd5b8387015b858110156123395782818a03121561230e575f80fd5b825161231981611ee5565b61232282611e91565b8152818601358682015284529284019282016122f8565b50979650505050505050565b5f8060408385031215612356575f80fd5b823567ffffffffffffffff8082111561236d575f80fd5b9084019060c08287031215612380575f80fd5b612388611f38565b823582811115612396575f80fd5b6123a28882860161222d565b8252506020830135828111156123b6575f80fd5b6123c28882860161222d565b6020830152506123d46040840161229d565b60408201526060830135828111156123ea575f80fd5b6123f68882860161222d565b60608301525060808301358281111561240d575f80fd5b6124198882860161222d565b60808301525060a083013582811115612430575f80fd5b61243c8882860161222d565b60a08301525093506020850135915080821115612457575f80fd5b50612464858286016122ab565b9150509250929050565b5f6020828403121561247e575f80fd5b61248782611e91565b9392505050565b634e487b7160e01b5f52603260045260245ffd5b600181811c908216806124b657607f821691505b6020821081036124d457634e487b7160e01b5f52602260045260245ffd5b50919050565b5f80604083850312156124eb575f80fd5b505080516020909101519092909150565b5f60033d1115610e845760045f803e505f5160e01c90565b5f60443d10156125215790565b6040516003193d81016004833e81513d67ffffffffffffffff816024840111818411171561255157505050505090565b82850191508151818111156125695750505050505090565b843d87010160208285010111156125835750505050505090565b61259260208286010187611f0b565b509095945050505050565b5f82516125ae81846020870161201b565b9190910192915050565b602081525f612487602083018461203d565b60208082526010908201526f125b9d985b1a59081c1a5958d948125160821b604082015260600190565b634e487b7160e01b5f52601160045260245ffd5b5f60018201612619576126196125f4565b5060010190565b601f82111561266757805f5260205f20601f840160051c810160208510156126455750805b601f840160051c820191505b81811015612664575f8155600101612651565b50505b505050565b815167ffffffffffffffff81111561268657612686611ed1565b61269a8161269484546124a2565b84612620565b602080601f8311600181146126cd575f84156126b65750858301515b5f19600386901b1c1916600185901b178555612724565b5f85815260208120601f198616915b828110156126fb578886015182559484019460019091019084016126dc565b508582101561271857878501515f19600388901b60f8161c191681555b505060018460011b0185555b505050505050565b60c081525f61273e60c083018961203d565b8281036020840152612750818961203d565b90508281036040840152612764818861203d565b90508281036060840152612778818761203d565b9050828103608084015261278c818661203d565b91505060ff831660a0830152979650505050505050565b5f602082840312156127b3575f80fd5b5051919050565b8082018082111561035f5761035f6125f456fea26469706673582212209d3aeea226e87620612e1711da0e65f0b9aa3753e6992f74390dcc3bf7cf045564736f6c6343000816003360806040525f600355348015610013575f80fd5b50604051610965380380610965833981016040819052610032916100c3565b806001600160a01b03811661006057604051631e4fbdf760e01b81525f600482015260240160405180910390fd5b61006981610074565b5050600180556100f0565b5f80546001600160a01b038381166001600160a01b0319831681178455604051919092169283917f8be0079c531659141344cd1fd0a4f28419497f9722a3daafe3b4186f6b6457e09190a35050565b5f602082840312156100d3575f80fd5b81516001600160a01b03811681146100e9575f80fd5b9392505050565b610868806100fd5f395ff3fe608060405234801561000f575f80fd5b50600436106100b1575f3560e01c80638860805a1161006e5780638860805a146101535780638da5cb5b1461015b578063949d225d146101755780639f9a7f501461017e578063f1269e0114610191578063f2fde38b146101b0575f80fd5b80631c01f292146100b55780631d834a1b146100e75780633075f552146100fc5780635b50082614610119578063715018a61461012c578063843f979314610134575b5f80fd5b6100d46100c3366004610731565b60026020525f908152604090205481565b6040519081526020015b60405180910390f35b6100fa6100f5366004610748565b6101c3565b005b610104610297565b604080519283526020830191909152016100de565b6100fa610127366004610748565b610315565b6100fa6103dd565b6100d4610142366004610731565b60056020525f908152604090205481565b6101046103f0565b5f546040516001600160a01b0390911681526020016100de565b6100d460035481565b6100fa61018c366004610731565b6104df565b6100d461019f366004610731565b60046020525f908152604090205481565b6100fa6101be366004610768565b6105d8565b6101cb610612565b600380545f90815260026020908152604080832086905585835260048252808320859055925460059091529190208190555b8015801590610257575060045f60025f6102168561063e565b81526020019081526020015f205481526020019081526020015f205460045f60025f8581526020019081526020015f205481526020019081526020015f2054115b1561027e5761026e816102698361063e565b6106ab565b6102778161063e565b90506101fd565b60038054905f61028d836107a9565b9190505550505050565b5f805f600354116102df5760405162461bcd60e51b815260206004820152600d60248201526c4865617020697320656d70747960981b60448201526064015b60405180910390fd5b50507fac33ff75c19e70fe83507db0d683fd3465c996598dc972688b7ace676c89077b545f818152600460205260409020549091565b61031d610612565b5f828152600560209081526040808320546004909252909120805490839055808311156103c6575b811580159061039f575060045f60025f61035e8661063e565b81526020019081526020015f205481526020019081526020015f205460045f60025f8681526020019081526020015f205481526020019081526020015f2054115b156103c1576103b1826102698461063e565b6103ba8261063e565b9150610345565b6103d7565b808310156103d7576103d7826104df565b50505050565b6103e5610612565b6103ee5f6106e2565b565b5f806103fa610612565b5f6003541161043b5760405162461bcd60e51b815260206004820152600d60248201526c4865617020697320656d70747960981b60448201526064016102d6565b5f808052600260208190527fac33ff75c19e70fe83507db0d683fd3465c996598dc972688b7ace676c89077b5460038054919391829061047a906107c1565b918290555081526020808201929092526040015f9081205481805260029092527fac33ff75c19e70fe83507db0d683fd3465c996598dc972688b7ace676c89077b919091556104c8906104df565b5f8181526004602052604090205490925090509091565b6104e7610612565b5f6104f38260026107d6565b6104fe9060016107ed565b90505f61050c8360026107d6565b6105179060026107ed565b5f84815260026020818152604080842054845260048083528185205488865284845282862054865281845282862054878752858552838720548752919093529320546003549495509093909161056c91610800565b861015801561057d57506003548611155b1561058a57505050505050565b8183108061059757508083105b156105cf57808211156105bc576105ae86866106ab565b6105b7856104df565b6105cf565b6105c686856106ab565b6105cf846104df565b50505050505b50565b6105e0610612565b6001600160a01b03811661060957604051631e4fbdf760e01b81525f60048201526024016102d6565b6105d5816106e2565b5f546001600160a01b031633146103ee5760405163118cdaa760e01b81523360048201526024016102d6565b5f815f0361068e5760405162461bcd60e51b815260206004820152601b60248201527f506f736974696f6e2073686f756c64206e6f74206265207a65726f000000000060448201526064016102d6565b600261069b60018461081f565b6106a59190610800565b92915050565b5f81815260026020908152604080832080548685528285208054835581905584526005909252808320915483529091209190915555565b5f80546001600160a01b038381166001600160a01b0319831681178455604051919092169283917f8be0079c531659141344cd1fd0a4f28419497f9722a3daafe3b4186f6b6457e09190a35050565b5f60208284031215610741575f80fd5b5035919050565b5f8060408385031215610759575f80fd5b50508035926020909101359150565b5f60208284031215610778575f80fd5b81356001600160a01b038116811461078e575f80fd5b9392505050565b634e487b7160e01b5f52601160045260245ffd5b5f600182016107ba576107ba610795565b5060010190565b5f816107cf576107cf610795565b505f190190565b80820281158282048414176106a5576106a5610795565b808201808211156106a5576106a5610795565b5f8261081a57634e487b7160e01b5f52601260045260245ffd5b500490565b818103818111156106a5576106a561079556fea2646970667358221220f231acab81386ecd17bb14cdbd61b859da89e32d88745338550027b6c123525664736f6c63430008160033",
			"opcodes": "PUSH1 0x80 PUSH1 0x40 MSTORE CALLVALUE DUP1 ISZERO PUSH3 0x10 JUMPI PUSH0 DUP1 REVERT JUMPDEST POP PUSH1 0x40 MLOAD PUSH3 0x3316 CODESIZE SUB DUP1 PUSH3 0x3316 DUP4 CODECOPY DUP2 ADD PUSH1 0x40 DUP2 SWAP1 MSTORE PUSH3 0x33 SWAP2 PUSH3 0x16A JUMP JUMPDEST DUP1 PUSH1 0x1 PUSH1 0x1 PUSH1 0xA0 SHL SUB DUP2 AND PUSH3 0x62 JUMPI PUSH1 0x40 MLOAD PUSH4 0x1E4FBDF7 PUSH1 0xE0 SHL DUP2 MSTORE PUSH0 PUSH1 0x4 DUP3 ADD MSTORE PUSH1 0x24 ADD PUSH1 0x40 MLOAD DUP1 SWAP2 SUB SWAP1 REVERT JUMPDEST PUSH3 0x6D DUP2 PUSH3 0xF1 JUMP JUMPDEST POP PUSH1 0x1 DUP1 SSTORE PUSH1 0x3 DUP1 SLOAD PUSH1 0x1 PUSH1 0x1 PUSH1 0xA0 SHL SUB NOT AND PUSH1 0x1 PUSH1 0x1 PUSH1 0xA0 SHL SUB DUP5 AND OR SWAP1 SSTORE PUSH1 0x40 MLOAD ADDRESS SWAP1 PUSH3 0x9D SWAP1 PUSH3 0x140 JUMP JUMPDEST PUSH1 0x1 PUSH1 0x1 PUSH1 0xA0 SHL SUB SWAP1 SWAP2 AND DUP2 MSTORE PUSH1 0x20 ADD PUSH1 0x40 MLOAD DUP1 SWAP2 SUB SWAP1 PUSH0 CREATE DUP1 ISZERO DUP1 ISZERO PUSH3 0xC7 JUMPI RETURNDATASIZE PUSH0 DUP1 RETURNDATACOPY RETURNDATASIZE PUSH0 REVERT JUMPDEST POP PUSH1 0x2 DUP1 SLOAD PUSH1 0x1 PUSH1 0x1 PUSH1 0xA0 SHL SUB NOT AND PUSH1 0x1 PUSH1 0x1 PUSH1 0xA0 SHL SUB SWAP3 SWAP1 SWAP3 AND SWAP2 SWAP1 SWAP2 OR SWAP1 SSTORE POP PUSH3 0x1A0 SWAP1 POP JUMP JUMPDEST PUSH0 DUP1 SLOAD PUSH1 0x1 PUSH1 0x1 PUSH1 0xA0 SHL SUB DUP4 DUP2 AND PUSH1 0x1 PUSH1 0x1 PUSH1 0xA0 SHL SUB NOT DUP4 AND DUP2 OR DUP5 SSTORE PUSH1 0x40 MLOAD SWAP2 SWAP1 SWAP3 AND SWAP3 DUP4 SWAP2 PUSH32 0x8BE0079C531659141344CD1FD0A4F28419497F9722A3DAAFE3B4186F6B6457E0 SWAP2 SWAP1 LOG3 POP POP JUMP JUMPDEST PUSH2 0x965 DUP1 PUSH3 0x29B1 DUP4 CODECOPY ADD SWAP1 JUMP JUMPDEST DUP1 MLOAD PUSH1 0x1 PUSH1 0x1 PUSH1 0xA0 SHL SUB DUP2 AND DUP2 EQ PUSH3 0x165 JUMPI PUSH0 DUP1 REVERT JUMPDEST SWAP2 SWAP1 POP JUMP JUMPDEST PUSH0 DUP1 PUSH1 0x40 DUP4 DUP6 SUB SLT ISZERO PUSH3 0x17C JUMPI PUSH0 DUP1 REVERT JUMPDEST PUSH3 0x187 DUP4 PUSH3 0x14E JUMP JUMPDEST SWAP2 POP PUSH3 0x197 PUSH1 0x20 DUP5 ADD PUSH3 0x14E JUMP JUMPDEST SWAP1 POP SWAP3 POP SWAP3 SWAP1 POP JUMP JUMPDEST PUSH2 0x2803 DUP1 PUSH3 0x1AE PUSH0 CODECOPY PUSH0 RETURN INVALID PUSH1 0x80 PUSH1 0x40 MSTORE CALLVALUE DUP1 ISZERO PUSH2 0xF JUMPI PUSH0 DUP1 REVERT JUMPDEST POP PUSH1 0x4 CALLDATASIZE LT PUSH2 0x11C JUMPI PUSH0 CALLDATALOAD PUSH1 0xE0 SHR DUP1 PUSH4 0xB0340123 GT PUSH2 0xA9 JUMPI DUP1 PUSH4 0xD75D43C9 GT PUSH2 0x6E JUMPI DUP1 PUSH4 0xD75D43C9 EQ PUSH2 0x2B8 JUMPI DUP1 PUSH4 0xD85C91AE EQ PUSH2 0x2CB JUMPI DUP1 PUSH4 0xDEB50C35 EQ PUSH2 0x2DE JUMPI DUP1 PUSH4 0xF2FDE38B EQ PUSH2 0x2F1 JUMPI DUP1 PUSH4 0xF8A8BE40 EQ PUSH2 0x304 JUMPI PUSH0 DUP1 REVERT JUMPDEST DUP1 PUSH4 0xB0340123 EQ PUSH2 0x20C JUMPI DUP1 PUSH4 0xB7B61494 EQ PUSH2 0x21F JUMPI DUP1 PUSH4 0xBAD22AFF EQ PUSH2 0x227 JUMPI DUP1 PUSH4 0xBC3F931F EQ PUSH2 0x23C JUMPI DUP1 PUSH4 0xD23254B4 EQ PUSH2 0x25C JUMPI PUSH0 DUP1 REVERT JUMPDEST DUP1 PUSH4 0x4A5C4DFE GT PUSH2 0xEF JUMPI DUP1 PUSH4 0x4A5C4DFE EQ PUSH2 0x1B5 JUMPI DUP1 PUSH4 0x65422A55 EQ PUSH2 0x1BE JUMPI DUP1 PUSH4 0x715018A6 EQ PUSH2 0x1D1 JUMPI DUP1 PUSH4 0x8DA5CB5B EQ PUSH2 0x1D9 JUMPI DUP1 PUSH4 0x8F64BE30 EQ PUSH2 0x1E9 JUMPI PUSH0 DUP1 REVERT JUMPDEST DUP1 PUSH4 0x121B93F EQ PUSH2 0x120 JUMPI DUP1 PUSH4 0x4432C8A EQ PUSH2 0x135 JUMPI DUP1 PUSH4 0x4F50270 EQ PUSH2 0x165 JUMPI DUP1 PUSH4 0x43859632 EQ PUSH2 0x192 JUMPI JUMPDEST PUSH0 DUP1 REVERT JUMPDEST PUSH2 0x133 PUSH2 0x12E CALLDATASIZE PUSH1 0x4 PUSH2 0x1E7A JUMP JUMPDEST PUSH2 0x30C JUMP JUMPDEST STOP JUMPDEST PUSH1 0x2 SLOAD PUSH2 0x148 SWAP1 PUSH1 0x1 PUSH1 0x1 PUSH1 0xA0 SHL SUB AND DUP2 JUMP JUMPDEST PUSH1 0x40 MLOAD PUSH1 0x1 PUSH1 0x1 PUSH1 0xA0 SHL SUB SWAP1 SWAP2 AND DUP2 MSTORE PUSH1 0x20 ADD JUMPDEST PUSH1 0x40 MLOAD DUP1 SWAP2 SUB SWAP1 RETURN JUMPDEST PUSH2 0x184 PUSH2 0x173 CALLDATASIZE PUSH1 0x4 PUSH2 0x1E7A JUMP JUMPDEST PUSH1 0x7 PUSH1 0x20 MSTORE PUSH0 SWAP1 DUP2 MSTORE PUSH1 0x40 SWAP1 KECCAK256 SLOAD DUP2 JUMP JUMPDEST PUSH1 0x40 MLOAD SWAP1 DUP2 MSTORE PUSH1 0x20 ADD PUSH2 0x15C JUMP JUMPDEST PUSH2 0x1A5 PUSH2 0x1A0 CALLDATASIZE PUSH1 0x4 PUSH2 0x1EA7 JUMP JUMPDEST PUSH2 0x338 JUMP JUMPDEST PUSH1 0x40 MLOAD SWAP1 ISZERO ISZERO DUP2 MSTORE PUSH1 0x20 ADD PUSH2 0x15C JUMP JUMPDEST PUSH2 0x184 PUSH1 0x5 SLOAD DUP2 JUMP JUMPDEST PUSH2 0x133 PUSH2 0x1CC CALLDATASIZE PUSH1 0x4 PUSH2 0x1F84 JUMP JUMPDEST PUSH2 0x365 JUMP JUMPDEST PUSH2 0x133 PUSH2 0x3BB JUMP JUMPDEST PUSH0 SLOAD PUSH1 0x1 PUSH1 0x1 PUSH1 0xA0 SHL SUB AND PUSH2 0x148 JUMP JUMPDEST PUSH2 0x1FC PUSH2 0x1F7 CALLDATASIZE PUSH1 0x4 PUSH2 0x1E7A JUMP JUMPDEST PUSH2 0x3CE JUMP JUMPDEST PUSH1 0x40 MLOAD PUSH2 0x15C SWAP5 SWAP4 SWAP3 SWAP2 SWAP1 PUSH2 0x2128 JUMP JUMPDEST PUSH1 0x3 SLOAD PUSH2 0x148 SWAP1 PUSH1 0x1 PUSH1 0x1 PUSH1 0xA0 SHL SUB AND DUP2 JUMP JUMPDEST PUSH2 0x184 PUSH2 0x711 JUMP JUMPDEST PUSH2 0x22F PUSH2 0x783 JUMP JUMPDEST PUSH1 0x40 MLOAD PUSH2 0x15C SWAP2 SWAP1 PUSH2 0x2161 JUMP JUMPDEST PUSH2 0x24F PUSH2 0x24A CALLDATASIZE PUSH1 0x4 PUSH2 0x1EA7 JUMP JUMPDEST PUSH2 0xE87 JUMP JUMPDEST PUSH1 0x40 MLOAD PUSH2 0x15C SWAP2 SWAP1 PUSH2 0x220D JUMP JUMPDEST PUSH2 0x299 PUSH2 0x26A CALLDATASIZE PUSH1 0x4 PUSH2 0x1EA7 JUMP JUMPDEST PUSH1 0x6 PUSH1 0x20 SWAP1 DUP2 MSTORE PUSH0 SWAP3 DUP4 MSTORE PUSH1 0x40 DUP1 DUP5 KECCAK256 SWAP1 SWAP2 MSTORE SWAP1 DUP3 MSTORE SWAP1 KECCAK256 DUP1 SLOAD PUSH1 0x1 SWAP1 SWAP2 ADD SLOAD PUSH1 0x1 PUSH1 0x1 PUSH1 0xA0 SHL SUB SWAP1 SWAP2 AND SWAP1 DUP3 JUMP JUMPDEST PUSH1 0x40 DUP1 MLOAD PUSH1 0x1 PUSH1 0x1 PUSH1 0xA0 SHL SUB SWAP1 SWAP4 AND DUP4 MSTORE PUSH1 0x20 DUP4 ADD SWAP2 SWAP1 SWAP2 MSTORE ADD PUSH2 0x15C JUMP JUMPDEST PUSH2 0x184 PUSH2 0x2C6 CALLDATASIZE PUSH1 0x4 PUSH2 0x2345 JUMP JUMPDEST PUSH2 0xEFC JUMP JUMPDEST PUSH2 0x184 PUSH2 0x2D9 CALLDATASIZE PUSH1 0x4 PUSH2 0x246E JUMP JUMPDEST PUSH2 0x121B JUMP JUMPDEST PUSH2 0x22F PUSH2 0x2EC CALLDATASIZE PUSH1 0x4 PUSH2 0x1E7A JUMP JUMPDEST PUSH2 0x133F JUMP JUMPDEST PUSH2 0x133 PUSH2 0x2FF CALLDATASIZE PUSH1 0x4 PUSH2 0x246E JUMP JUMPDEST PUSH2 0x1744 JUMP JUMPDEST PUSH2 0x22F PUSH2 0x177E JUMP JUMPDEST PUSH2 0x314 PUSH2 0x1834 JUMP JUMPDEST PUSH0 PUSH2 0x31E CALLER PUSH2 0x121B JUMP JUMPDEST SWAP1 POP PUSH2 0x32B DUP3 CALLER DUP4 PUSH2 0x185E JUMP JUMPDEST POP PUSH2 0x335 PUSH1 0x1 DUP1 SSTORE JUMP JUMPDEST POP JUMP JUMPDEST PUSH0 DUP3 DUP2 MSTORE PUSH1 0x6 PUSH1 0x20 SWAP1 DUP2 MSTORE PUSH1 0x40 DUP1 DUP4 KECCAK256 PUSH1 0x1 PUSH1 0x1 PUSH1 0xA0 SHL SUB DUP6 DUP2 AND DUP6 MSTORE SWAP3 MSTORE SWAP1 SWAP2 KECCAK256 SLOAD AND ISZERO ISZERO JUMPDEST SWAP3 SWAP2 POP POP JUMP JUMPDEST PUSH2 0x36D PUSH2 0x1834 JUMP JUMPDEST PUSH0 PUSH2 0x377 CALLER PUSH2 0x121B JUMP JUMPDEST SWAP1 POP PUSH0 JUMPDEST DUP3 MLOAD DUP2 LT ISZERO PUSH2 0x3B0 JUMPI PUSH2 0x3A8 DUP4 DUP3 DUP2 MLOAD DUP2 LT PUSH2 0x399 JUMPI PUSH2 0x399 PUSH2 0x248E JUMP JUMPDEST PUSH1 0x20 MUL PUSH1 0x20 ADD ADD MLOAD CALLER DUP5 PUSH2 0x185E JUMP JUMPDEST PUSH1 0x1 ADD PUSH2 0x37B JUMP JUMPDEST POP POP PUSH2 0x335 PUSH1 0x1 DUP1 SSTORE JUMP JUMPDEST PUSH2 0x3C3 PUSH2 0x1AC4 JUMP JUMPDEST PUSH2 0x3CC PUSH0 PUSH2 0x1AF0 JUMP JUMPDEST JUMP JUMPDEST PUSH1 0x4 PUSH1 0x20 MSTORE PUSH0 SWAP1 DUP2 MSTORE PUSH1 0x40 SWAP1 DUP2 SWAP1 KECCAK256 DUP1 SLOAD DUP3 MLOAD PUSH1 0xC0 DUP2 ADD SWAP1 SWAP4 MSTORE PUSH1 0x1 DUP3 ADD DUP1 SLOAD SWAP2 SWAP4 SWAP2 DUP3 SWAP1 DUP3 SWAP1 PUSH2 0x3FE SWAP1 PUSH2 0x24A2 JUMP JUMPDEST DUP1 PUSH1 0x1F ADD PUSH1 0x20 DUP1 SWAP2 DIV MUL PUSH1 0x20 ADD PUSH1 0x40 MLOAD SWAP1 DUP2 ADD PUSH1 0x40 MSTORE DUP1 SWAP3 SWAP2 SWAP1 DUP2 DUP2 MSTORE PUSH1 0x20 ADD DUP3 DUP1 SLOAD PUSH2 0x42A SWAP1 PUSH2 0x24A2 JUMP JUMPDEST DUP1 ISZERO PUSH2 0x475 JUMPI DUP1 PUSH1 0x1F LT PUSH2 0x44C JUMPI PUSH2 0x100 DUP1 DUP4 SLOAD DIV MUL DUP4 MSTORE SWAP2 PUSH1 0x20 ADD SWAP2 PUSH2 0x475 JUMP JUMPDEST DUP3 ADD SWAP2 SWAP1 PUSH0 MSTORE PUSH1 0x20 PUSH0 KECCAK256 SWAP1 JUMPDEST DUP2 SLOAD DUP2 MSTORE SWAP1 PUSH1 0x1 ADD SWAP1 PUSH1 0x20 ADD DUP1 DUP4 GT PUSH2 0x458 JUMPI DUP3 SWAP1 SUB PUSH1 0x1F AND DUP3 ADD SWAP2 JUMPDEST POP POP POP POP POP DUP2 MSTORE PUSH1 0x20 ADD PUSH1 0x1 DUP3 ADD DUP1 SLOAD PUSH2 0x48E SWAP1 PUSH2 0x24A2 JUMP JUMPDEST DUP1 PUSH1 0x1F ADD PUSH1 0x20 DUP1 SWAP2 DIV MUL PUSH1 0x20 ADD PUSH1 0x40 MLOAD SWAP1 DUP2 ADD PUSH1 0x40 MSTORE DUP1 SWAP3 SWAP2 SWAP1 DUP2 DUP2 MSTORE PUSH1 0x20 ADD DUP3 DUP1 SLOAD PUSH2 0x4BA SWAP1 PUSH2 0x24A2 JUMP JUMPDEST DUP1 ISZERO PUSH2 0x505 JUMPI DUP1 PUSH1 0x1F LT PUSH2 0x4DC JUMPI PUSH2 0x100 DUP1 DUP4 SLOAD DIV MUL DUP4 MSTORE SWAP2 PUSH1 0x20 ADD SWAP2 PUSH2 0x505 JUMP JUMPDEST DUP3 ADD SWAP2 SWAP1 PUSH0 MSTORE PUSH1 0x20 PUSH0 KECCAK256 SWAP1 JUMPDEST DUP2 SLOAD DUP2 MSTORE SWAP1 PUSH1 0x1 ADD SWAP1 PUSH1 0x20 ADD DUP1 DUP4 GT PUSH2 0x4E8 JUMPI DUP3 SWAP1 SUB PUSH1 0x1F AND DUP3 ADD SWAP2 JUMPDEST POP POP POP SWAP2 DUP4 MSTORE POP POP PUSH1 0x2 DUP3 ADD SLOAD PUSH1 0x20 SWAP1 SWAP2 ADD SWAP1 PUSH1 0xFF AND PUSH1 0x5 DUP2 GT ISZERO PUSH2 0x52C JUMPI PUSH2 0x52C PUSH2 0x2068 JUMP JUMPDEST PUSH1 0x5 DUP2 GT ISZERO PUSH2 0x53D JUMPI PUSH2 0x53D PUSH2 0x2068 JUMP JUMPDEST DUP2 MSTORE PUSH1 0x20 ADD PUSH1 0x3 DUP3 ADD DUP1 SLOAD PUSH2 0x551 SWAP1 PUSH2 0x24A2 JUMP JUMPDEST DUP1 PUSH1 0x1F ADD PUSH1 0x20 DUP1 SWAP2 DIV MUL PUSH1 0x20 ADD PUSH1 0x40 MLOAD SWAP1 DUP2 ADD PUSH1 0x40 MSTORE DUP1 SWAP3 SWAP2 SWAP1 DUP2 DUP2 MSTORE PUSH1 0x20 ADD DUP3 DUP1 SLOAD PUSH2 0x57D SWAP1 PUSH2 0x24A2 JUMP JUMPDEST DUP1 ISZERO PUSH2 0x5C8 JUMPI DUP1 PUSH1 0x1F LT PUSH2 0x59F JUMPI PUSH2 0x100 DUP1 DUP4 SLOAD DIV MUL DUP4 MSTORE SWAP2 PUSH1 0x20 ADD SWAP2 PUSH2 0x5C8 JUMP JUMPDEST DUP3 ADD SWAP2 SWAP1 PUSH0 MSTORE PUSH1 0x20 PUSH0 KECCAK256 SWAP1 JUMPDEST DUP2 SLOAD DUP2 MSTORE SWAP1 PUSH1 0x1 ADD SWAP1 PUSH1 0x20 ADD DUP1 DUP4 GT PUSH2 0x5AB JUMPI DUP3 SWAP1 SUB PUSH1 0x1F AND DUP3 ADD SWAP2 JUMPDEST POP POP POP POP POP DUP2 MSTORE PUSH1 0x20 ADD PUSH1 0x4 DUP3 ADD DUP1 SLOAD PUSH2 0x5E1 SWAP1 PUSH2 0x24A2 JUMP JUMPDEST DUP1 PUSH1 0x1F ADD PUSH1 0x20 DUP1 SWAP2 DIV MUL PUSH1 0x20 ADD PUSH1 0x40 MLOAD SWAP1 DUP2 ADD PUSH1 0x40 MSTORE DUP1 SWAP3 SWAP2 SWAP1 DUP2 DUP2 MSTORE PUSH1 0x20 ADD DUP3 DUP1 SLOAD PUSH2 0x60D SWAP1 PUSH2 0x24A2 JUMP JUMPDEST DUP1 ISZERO PUSH2 0x658 JUMPI DUP1 PUSH1 0x1F LT PUSH2 0x62F JUMPI PUSH2 0x100 DUP1 DUP4 SLOAD DIV MUL DUP4 MSTORE SWAP2 PUSH1 0x20 ADD SWAP2 PUSH2 0x658 JUMP JUMPDEST DUP3 ADD SWAP2 SWAP1 PUSH0 MSTORE PUSH1 0x20 PUSH0 KECCAK256 SWAP1 JUMPDEST DUP2 SLOAD DUP2 MSTORE SWAP1 PUSH1 0x1 ADD SWAP1 PUSH1 0x20 ADD DUP1 DUP4 GT PUSH2 0x63B JUMPI DUP3 SWAP1 SUB PUSH1 0x1F AND DUP3 ADD SWAP2 JUMPDEST POP POP POP POP POP DUP2 MSTORE PUSH1 0x20 ADD PUSH1 0x5 DUP3 ADD DUP1 SLOAD PUSH2 0x671 SWAP1 PUSH2 0x24A2 JUMP JUMPDEST DUP1 PUSH1 0x1F ADD PUSH1 0x20 DUP1 SWAP2 DIV MUL PUSH1 0x20 ADD PUSH1 0x40 MLOAD SWAP1 DUP2 ADD PUSH1 0x40 MSTORE DUP1 SWAP3 SWAP2 SWAP1 DUP2 DUP2 MSTORE PUSH1 0x20 ADD DUP3 DUP1 SLOAD PUSH2 0x69D SWAP1 PUSH2 0x24A2 JUMP JUMPDEST DUP1 ISZERO PUSH2 0x6E8 JUMPI DUP1 PUSH1 0x1F LT PUSH2 0x6BF JUMPI PUSH2 0x100 DUP1 DUP4 SLOAD DIV MUL DUP4 MSTORE SWAP2 PUSH1 0x20 ADD SWAP2 PUSH2 0x6E8 JUMP JUMPDEST DUP3 ADD SWAP2 SWAP1 PUSH0 MSTORE PUSH1 0x20 PUSH0 KECCAK256 SWAP1 JUMPDEST DUP2 SLOAD DUP2 MSTORE SWAP1 PUSH1 0x1 ADD SWAP1 PUSH1 0x20 ADD DUP1 DUP4 GT PUSH2 0x6CB JUMPI DUP3 SWAP1 SUB PUSH1 0x1F AND DUP3 ADD SWAP2 JUMPDEST POP POP POP SWAP2 SWAP1 SWAP3 MSTORE POP POP POP PUSH1 0x8 SWAP1 SWAP2 ADD SLOAD PUSH1 0x1 PUSH1 0x1 PUSH1 0xA0 SHL SUB DUP2 AND SWAP1 PUSH1 0xFF PUSH1 0x1 PUSH1 0xA0 SHL SWAP1 SWAP2 DIV AND DUP5 JUMP JUMPDEST PUSH1 0x2 SLOAD PUSH1 0x40 DUP1 MLOAD PUSH4 0x183AFAA9 PUSH1 0xE1 SHL DUP2 MSTORE DUP2 MLOAD PUSH0 SWAP4 DUP5 SWAP4 PUSH1 0x1 PUSH1 0x1 PUSH1 0xA0 SHL SUB SWAP1 SWAP2 AND SWAP3 PUSH4 0x3075F552 SWAP3 PUSH1 0x4 DUP1 DUP4 ADD SWAP4 SWAP3 DUP3 SWAP1 SUB ADD DUP2 DUP7 GAS STATICCALL ISZERO DUP1 ISZERO PUSH2 0x758 JUMPI RETURNDATASIZE PUSH0 DUP1 RETURNDATACOPY RETURNDATASIZE PUSH0 REVERT JUMPDEST POP POP POP POP PUSH1 0x40 MLOAD RETURNDATASIZE PUSH1 0x1F NOT PUSH1 0x1F DUP3 ADD AND DUP3 ADD DUP1 PUSH1 0x40 MSTORE POP DUP2 ADD SWAP1 PUSH2 0x77C SWAP2 SWAP1 PUSH2 0x24DA JUMP JUMPDEST POP SWAP3 SWAP2 POP POP JUMP JUMPDEST PUSH2 0x78B PUSH2 0x1E1A JUMP JUMPDEST PUSH2 0x793 PUSH2 0x1834 JUMP JUMPDEST PUSH2 0x79B PUSH2 0x1AC4 JUMP JUMPDEST PUSH1 0x2 SLOAD PUSH1 0x40 DUP1 MLOAD PUSH4 0x4430402D PUSH1 0xE1 SHL DUP2 MSTORE DUP2 MLOAD PUSH0 SWAP4 PUSH1 0x1 PUSH1 0x1 PUSH1 0xA0 SHL SUB AND SWAP3 PUSH4 0x8860805A SWAP3 PUSH1 0x4 DUP1 DUP3 ADD SWAP4 SWAP2 DUP3 SWAP1 SUB ADD DUP2 DUP8 DUP8 GAS CALL SWAP3 POP POP POP DUP1 ISZERO PUSH2 0x7FD JUMPI POP PUSH1 0x40 DUP1 MLOAD PUSH1 0x1F RETURNDATASIZE SWAP1 DUP2 ADD PUSH1 0x1F NOT AND DUP3 ADD SWAP1 SWAP3 MSTORE PUSH2 0x7FA SWAP2 DUP2 ADD SWAP1 PUSH2 0x24DA JUMP JUMPDEST PUSH1 0x1 JUMPDEST PUSH2 0x971 JUMPI PUSH2 0x809 PUSH2 0x24FC JUMP JUMPDEST DUP1 PUSH4 0x8C379A0 SUB PUSH2 0x8ED JUMPI POP PUSH2 0x81D PUSH2 0x2514 JUMP JUMPDEST DUP1 PUSH2 0x828 JUMPI POP PUSH2 0x8EF JUMP JUMPDEST PUSH1 0x40 MLOAD PUSH13 0x4865617020697320656D707479 PUSH1 0x98 SHL PUSH1 0x20 DUP3 ADD MSTORE PUSH1 0x2D ADD PUSH1 0x40 MLOAD PUSH1 0x20 DUP2 DUP4 SUB SUB DUP2 MSTORE SWAP1 PUSH1 0x40 MSTORE DUP1 MLOAD SWAP1 PUSH1 0x20 ADD KECCAK256 DUP2 PUSH1 0x40 MLOAD PUSH1 0x20 ADD PUSH2 0x86B SWAP2 SWAP1 PUSH2 0x259D JUMP JUMPDEST PUSH1 0x40 MLOAD PUSH1 0x20 DUP2 DUP4 SUB SUB DUP2 MSTORE SWAP1 PUSH1 0x40 MSTORE DUP1 MLOAD SWAP1 PUSH1 0x20 ADD KECCAK256 SUB PUSH2 0x8D3 JUMPI PUSH1 0x40 MLOAD PUSH3 0x461BCD PUSH1 0xE5 SHL DUP2 MSTORE PUSH1 0x20 PUSH1 0x4 DUP3 ADD MSTORE PUSH1 0x1B PUSH1 0x24 DUP3 ADD MSTORE PUSH32 0x4E6F2070696563657320617661696C61626C6520746F2064726F700000000000 PUSH1 0x44 DUP3 ADD MSTORE PUSH1 0x64 ADD JUMPDEST PUSH1 0x40 MLOAD DUP1 SWAP2 SUB SWAP1 REVERT JUMPDEST DUP1 PUSH1 0x40 MLOAD PUSH3 0x461BCD PUSH1 0xE5 SHL DUP2 MSTORE PUSH1 0x4 ADD PUSH2 0x8CA SWAP2 SWAP1 PUSH2 0x25B8 JUMP JUMPDEST POP JUMPDEST RETURNDATASIZE DUP1 DUP1 ISZERO PUSH2 0x918 JUMPI PUSH1 0x40 MLOAD SWAP2 POP PUSH1 0x1F NOT PUSH1 0x3F RETURNDATASIZE ADD AND DUP3 ADD PUSH1 0x40 MSTORE RETURNDATASIZE DUP3 MSTORE RETURNDATASIZE PUSH0 PUSH1 0x20 DUP5 ADD RETURNDATACOPY PUSH2 0x91D JUMP JUMPDEST PUSH1 0x60 SWAP2 POP JUMPDEST POP PUSH1 0x40 MLOAD PUSH3 0x461BCD PUSH1 0xE5 SHL DUP2 MSTORE PUSH1 0x20 PUSH1 0x4 DUP3 ADD MSTORE PUSH1 0x22 PUSH1 0x24 DUP3 ADD MSTORE PUSH32 0x556E6B6E6F776E206572726F722065787472616374696E6720746F7020706965 PUSH1 0x44 DUP3 ADD MSTORE PUSH2 0x6365 PUSH1 0xF0 SHL PUSH1 0x64 DUP3 ADD MSTORE PUSH1 0x84 ADD PUSH2 0x8CA JUMP JUMPDEST POP SWAP1 POP PUSH0 DUP2 DUP2 MSTORE PUSH1 0x4 PUSH1 0x20 MSTORE PUSH1 0x40 DUP1 DUP3 KECCAK256 PUSH1 0x8 ADD DUP1 SLOAD PUSH1 0xFF PUSH1 0xA0 SHL NOT AND PUSH1 0x1 PUSH1 0xA0 SHL OR SWAP1 SSTORE MLOAD CALLER SWAP2 DUP4 SWAP2 PUSH32 0xA9BD530A1A995FE2B42BDDF7938E2E1ACAEF954CC9B31FFD1D13B7C3337502C8 SWAP2 SWAP1 LOG3 PUSH0 JUMPDEST PUSH0 DUP3 DUP2 MSTORE PUSH1 0x4 PUSH1 0x20 MSTORE PUSH1 0x40 SWAP1 KECCAK256 PUSH1 0x7 ADD SLOAD DUP2 LT ISZERO PUSH2 0xAA1 JUMPI PUSH0 DUP3 DUP2 MSTORE PUSH1 0x4 PUSH1 0x20 MSTORE PUSH1 0x40 SWAP1 KECCAK256 PUSH1 0x8 DUP2 ADD SLOAD PUSH1 0x7 SWAP1 SWAP2 ADD DUP1 SLOAD PUSH1 0x1 PUSH1 0x1 PUSH1 0xA0 SHL SUB SWAP1 SWAP3 AND SWAP2 DUP4 SWAP1 DUP2 LT PUSH2 0xA0E JUMPI PUSH2 0xA0E PUSH2 0x248E JUMP JUMPDEST PUSH0 SWAP2 DUP3 MSTORE PUSH1 0x20 DUP1 DUP4 KECCAK256 PUSH1 0x2 SWAP1 SWAP3 MUL SWAP1 SWAP2 ADD SLOAD DUP6 DUP4 MSTORE PUSH1 0x4 SWAP1 SWAP2 MSTORE PUSH1 0x40 SWAP1 SWAP2 KECCAK256 PUSH1 0x7 ADD DUP1 SLOAD PUSH1 0x1 PUSH1 0x1 PUSH1 0xA0 SHL SUB SWAP1 SWAP3 AND SWAP2 DUP6 SWAP2 PUSH32 0x1D1B857A6A6C5E310602C1448332E9B2799BA4C6AE3D1FB7527B62828DC7B91D SWAP2 DUP7 SWAP1 DUP2 LT PUSH2 0xA72 JUMPI PUSH2 0xA72 PUSH2 0x248E JUMP JUMPDEST SWAP1 PUSH0 MSTORE PUSH1 0x20 PUSH0 KECCAK256 SWAP1 PUSH1 0x2 MUL ADD PUSH1 0x1 ADD SLOAD PUSH1 0x40 MLOAD PUSH2 0xA91 SWAP2 DUP2 MSTORE PUSH1 0x20 ADD SWAP1 JUMP JUMPDEST PUSH1 0x40 MLOAD DUP1 SWAP2 SUB SWAP1 LOG4 PUSH1 0x1 ADD PUSH2 0x9C1 JUMP JUMPDEST POP PUSH1 0x4 PUSH0 DUP3 DUP2 MSTORE PUSH1 0x20 ADD SWAP1 DUP2 MSTORE PUSH1 0x20 ADD PUSH0 KECCAK256 PUSH1 0x40 MLOAD DUP1 PUSH1 0xA0 ADD PUSH1 0x40 MSTORE SWAP1 DUP2 PUSH0 DUP3 ADD SLOAD DUP2 MSTORE PUSH1 0x20 ADD PUSH1 0x1 DUP3 ADD PUSH1 0x40 MLOAD DUP1 PUSH1 0xC0 ADD PUSH1 0x40 MSTORE SWAP1 DUP2 PUSH0 DUP3 ADD DUP1 SLOAD PUSH2 0xAE6 SWAP1 PUSH2 0x24A2 JUMP JUMPDEST DUP1 PUSH1 0x1F ADD PUSH1 0x20 DUP1 SWAP2 DIV MUL PUSH1 0x20 ADD PUSH1 0x40 MLOAD SWAP1 DUP2 ADD PUSH1 0x40 MSTORE DUP1 SWAP3 SWAP2 SWAP1 DUP2 DUP2 MSTORE PUSH1 0x20 ADD DUP3 DUP1 SLOAD PUSH2 0xB12 SWAP1 PUSH2 0x24A2 JUMP JUMPDEST DUP1 ISZERO PUSH2 0xB5D JUMPI DUP1 PUSH1 0x1F LT PUSH2 0xB34 JUMPI PUSH2 0x100 DUP1 DUP4 SLOAD DIV MUL DUP4 MSTORE SWAP2 PUSH1 0x20 ADD SWAP2 PUSH2 0xB5D JUMP JUMPDEST DUP3 ADD SWAP2 SWAP1 PUSH0 MSTORE PUSH1 0x20 PUSH0 KECCAK256 SWAP1 JUMPDEST DUP2 SLOAD DUP2 MSTORE SWAP1 PUSH1 0x1 ADD SWAP1 PUSH1 0x20 ADD DUP1 DUP4 GT PUSH2 0xB40 JUMPI DUP3 SWAP1 SUB PUSH1 0x1F AND DUP3 ADD SWAP2 JUMPDEST POP POP POP POP POP DUP2 MSTORE PUSH1 0x20 ADD PUSH1 0x1 DUP3 ADD DUP1 SLOAD PUSH2 0xB76 SWAP1 PUSH2 0x24A2 JUMP JUMPDEST DUP1 PUSH1 0x1F ADD PUSH1 0x20 DUP1 SWAP2 DIV MUL PUSH1 0x20 ADD PUSH1 0x40 MLOAD SWAP1 DUP2 ADD PUSH1 0x40 MSTORE DUP1 SWAP3 SWAP2 SWAP1 DUP2 DUP2 MSTORE PUSH1 0x20 ADD DUP3 DUP1 SLOAD PUSH2 0xBA2 SWAP1 PUSH2 0x24A2 JUMP JUMPDEST DUP1 ISZERO PUSH2 0xBED JUMPI DUP1 PUSH1 0x1F LT PUSH2 0xBC4 JUMPI PUSH2 0x100 DUP1 DUP4 SLOAD DIV MUL DUP4 MSTORE SWAP2 PUSH1 0x20 ADD SWAP2 PUSH2 0xBED JUMP JUMPDEST DUP3 ADD SWAP2 SWAP1 PUSH0 MSTORE PUSH1 0x20 PUSH0 KECCAK256 SWAP1 JUMPDEST DUP2 SLOAD DUP2 MSTORE SWAP1 PUSH1 0x1 ADD SWAP1 PUSH1 0x20 ADD DUP1 DUP4 GT PUSH2 0xBD0 JUMPI DUP3 SWAP1 SUB PUSH1 0x1F AND DUP3 ADD SWAP2 JUMPDEST POP POP POP SWAP2 DUP4 MSTORE POP POP PUSH1 0x2 DUP3 ADD SLOAD PUSH1 0x20 SWAP1 SWAP2 ADD SWAP1 PUSH1 0xFF AND PUSH1 0x5 DUP2 GT ISZERO PUSH2 0xC14 JUMPI PUSH2 0xC14 PUSH2 0x2068 JUMP JUMPDEST PUSH1 0x5 DUP2 GT ISZERO PUSH2 0xC25 JUMPI PUSH2 0xC25 PUSH2 0x2068 JUMP JUMPDEST DUP2 MSTORE PUSH1 0x20 ADD PUSH1 0x3 DUP3 ADD DUP1 SLOAD PUSH2 0xC39 SWAP1 PUSH2 0x24A2 JUMP JUMPDEST DUP1 PUSH1 0x1F ADD PUSH1 0x20 DUP1 SWAP2 DIV MUL PUSH1 0x20 ADD PUSH1 0x40 MLOAD SWAP1 DUP2 ADD PUSH1 0x40 MSTORE DUP1 SWAP3 SWAP2 SWAP1 DUP2 DUP2 MSTORE PUSH1 0x20 ADD DUP3 DUP1 SLOAD PUSH2 0xC65 SWAP1 PUSH2 0x24A2 JUMP JUMPDEST DUP1 ISZERO PUSH2 0xCB0 JUMPI DUP1 PUSH1 0x1F LT PUSH2 0xC87 JUMPI PUSH2 0x100 DUP1 DUP4 SLOAD DIV MUL DUP4 MSTORE SWAP2 PUSH1 0x20 ADD SWAP2 PUSH2 0xCB0 JUMP JUMPDEST DUP3 ADD SWAP2 SWAP1 PUSH0 MSTORE PUSH1 0x20 PUSH0 KECCAK256 SWAP1 JUMPDEST DUP2 SLOAD DUP2 MSTORE SWAP1 PUSH1 0x1 ADD SWAP1 PUSH1 0x20 ADD DUP1 DUP4 GT PUSH2 0xC93 JUMPI DUP3 SWAP1 SUB PUSH1 0x1F AND DUP3 ADD SWAP2 JUMPDEST POP POP POP POP POP DUP2 MSTORE PUSH1 0x20 ADD PUSH1 0x4 DUP3 ADD DUP1 SLOAD PUSH2 0xCC9 SWAP1 PUSH2 0x24A2 JUMP JUMPDEST DUP1 PUSH1 0x1F ADD PUSH1 0x20 DUP1 SWAP2 DIV MUL PUSH1 0x20 ADD PUSH1 0x40 MLOAD SWAP1 DUP2 ADD PUSH1 0x40 MSTORE DUP1 SWAP3 SWAP2 SWAP1 DUP2 DUP2 MSTORE PUSH1 0x20 ADD DUP3 DUP1 SLOAD PUSH2 0xCF5 SWAP1 PUSH2 0x24A2 JUMP JUMPDEST DUP1 ISZERO PUSH2 0xD40 JUMPI DUP1 PUSH1 0x1F LT PUSH2 0xD17 JUMPI PUSH2 0x100 DUP1 DUP4 SLOAD DIV MUL DUP4 MSTORE SWAP2 PUSH1 0x20 ADD SWAP2 PUSH2 0xD40 JUMP JUMPDEST DUP3 ADD SWAP2 SWAP1 PUSH0 MSTORE PUSH1 0x20 PUSH0 KECCAK256 SWAP1 JUMPDEST DUP2 SLOAD DUP2 MSTORE SWAP1 PUSH1 0x1 ADD SWAP1 PUSH1 0x20 ADD DUP1 DUP4 GT PUSH2 0xD23 JUMPI DUP3 SWAP1 SUB PUSH1 0x1F AND DUP3 ADD SWAP2 JUMPDEST POP POP POP POP POP DUP2 MSTORE PUSH1 0x20 ADD PUSH1 0x5 DUP3 ADD DUP1 SLOAD PUSH2 0xD59 SWAP1 PUSH2 0x24A2 JUMP JUMPDEST DUP1 PUSH1 0x1F ADD PUSH1 0x20 DUP1 SWAP2 DIV MUL PUSH1 0x20 ADD PUSH1 0x40 MLOAD SWAP1 DUP2 ADD PUSH1 0x40 MSTORE DUP1 SWAP3 SWAP2 SWAP1 DUP2 DUP2 MSTORE PUSH1 0x20 ADD DUP3 DUP1 SLOAD PUSH2 0xD85 SWAP1 PUSH2 0x24A2 JUMP JUMPDEST DUP1 ISZERO PUSH2 0xDD0 JUMPI DUP1 PUSH1 0x1F LT PUSH2 0xDA7 JUMPI PUSH2 0x100 DUP1 DUP4 SLOAD DIV MUL DUP4 MSTORE SWAP2 PUSH1 0x20 ADD SWAP2 PUSH2 0xDD0 JUMP JUMPDEST DUP3 ADD SWAP2 SWAP1 PUSH0 MSTORE PUSH1 0x20 PUSH0 KECCAK256 SWAP1 JUMPDEST DUP2 SLOAD DUP2 MSTORE SWAP1 PUSH1 0x1 ADD SWAP1 PUSH1 0x20 ADD DUP1 DUP4 GT PUSH2 0xDB3 JUMPI DUP3 SWAP1 SUB PUSH1 0x1F AND DUP3 ADD SWAP2 JUMPDEST POP POP POP POP POP DUP2 MSTORE POP POP DUP2 MSTORE PUSH1 0x20 ADD PUSH1 0x7 DUP3 ADD DUP1 SLOAD DUP1 PUSH1 0x20 MUL PUSH1 0x20 ADD PUSH1 0x40 MLOAD SWAP1 DUP2 ADD PUSH1 0x40 MSTORE DUP1 SWAP3 SWAP2 SWAP1 DUP2 DUP2 MSTORE PUSH1 0x20 ADD PUSH0 SWAP1 JUMPDEST DUP3 DUP3 LT ISZERO PUSH2 0xE48 JUMPI PUSH0 DUP5 DUP2 MSTORE PUSH1 0x20 SWAP1 DUP2 SWAP1 KECCAK256 PUSH1 0x40 DUP1 MLOAD DUP1 DUP3 ADD SWAP1 SWAP2 MSTORE PUSH1 0x2 DUP6 MUL SWAP1 SWAP2 ADD DUP1 SLOAD PUSH1 0x1 PUSH1 0x1 PUSH1 0xA0 SHL SUB AND DUP3 MSTORE PUSH1 0x1 SWAP1 DUP2 ADD SLOAD DUP3 DUP5 ADD MSTORE SWAP1 DUP4 MSTORE SWAP1 SWAP3 ADD SWAP2 ADD PUSH2 0xE01 JUMP JUMPDEST POP POP POP SWAP1 DUP3 MSTORE POP PUSH1 0x8 SWAP2 SWAP1 SWAP2 ADD SLOAD PUSH1 0x1 PUSH1 0x1 PUSH1 0xA0 SHL SUB DUP2 AND PUSH1 0x20 DUP4 ADD MSTORE PUSH1 0xFF PUSH1 0x1 PUSH1 0xA0 SHL SWAP1 SWAP2 DIV AND ISZERO ISZERO PUSH1 0x40 SWAP1 SWAP2 ADD MSTORE SWAP2 POP POP PUSH2 0xE84 PUSH1 0x1 DUP1 SSTORE JUMP JUMPDEST SWAP1 JUMP JUMPDEST PUSH1 0x40 DUP1 MLOAD DUP1 DUP3 ADD SWAP1 SWAP2 MSTORE PUSH0 DUP1 DUP3 MSTORE PUSH1 0x20 DUP3 ADD MSTORE PUSH1 0x5 SLOAD DUP4 GT ISZERO PUSH2 0xEBC JUMPI PUSH1 0x40 MLOAD PUSH3 0x461BCD PUSH1 0xE5 SHL DUP2 MSTORE PUSH1 0x4 ADD PUSH2 0x8CA SWAP1 PUSH2 0x25CA JUMP JUMPDEST POP PUSH0 SWAP2 DUP3 MSTORE PUSH1 0x6 PUSH1 0x20 SWAP1 DUP2 MSTORE PUSH1 0x40 DUP1 DUP5 KECCAK256 PUSH1 0x1 PUSH1 0x1 PUSH1 0xA0 SHL SUB SWAP4 DUP5 AND DUP6 MSTORE DUP3 MSTORE SWAP3 DUP4 SWAP1 KECCAK256 DUP4 MLOAD DUP1 DUP6 ADD SWAP1 SWAP5 MSTORE DUP1 SLOAD SWAP1 SWAP3 AND DUP4 MSTORE PUSH1 0x1 SWAP1 SWAP2 ADD SLOAD SWAP1 DUP3 ADD MSTORE SWAP1 JUMP JUMPDEST PUSH0 DUP1 PUSH2 0xF07 DUP4 PUSH2 0x1B3F JUMP JUMPDEST SWAP1 POP DUP1 PUSH2 0x2710 EQ PUSH2 0xF5A JUMPI PUSH1 0x40 MLOAD PUSH3 0x461BCD PUSH1 0xE5 SHL DUP2 MSTORE PUSH1 0x20 PUSH1 0x4 DUP3 ADD MSTORE PUSH1 0x1F PUSH1 0x24 DUP3 ADD MSTORE PUSH32 0x546F74616C20425053206D7573742073756D20757020746F2031302C30303000 PUSH1 0x44 DUP3 ADD MSTORE PUSH1 0x64 ADD PUSH2 0x8CA JUMP JUMPDEST PUSH2 0xF63 DUP5 PUSH2 0x1C4E JUMP JUMPDEST PUSH1 0x5 DUP1 SLOAD PUSH0 SWAP2 DUP3 PUSH2 0xF73 DUP4 PUSH2 0x2608 JUMP JUMPDEST SWAP1 SWAP2 SSTORE POP PUSH1 0x2 SLOAD PUSH1 0x40 MLOAD PUSH4 0x1D834A1B PUSH1 0xE0 SHL DUP2 MSTORE PUSH1 0x4 DUP2 ADD DUP4 SWAP1 MSTORE PUSH0 PUSH1 0x24 DUP3 ADD MSTORE SWAP2 SWAP3 POP PUSH1 0x1 PUSH1 0x1 PUSH1 0xA0 SHL SUB AND SWAP1 PUSH4 0x1D834A1B SWAP1 PUSH1 0x44 ADD PUSH0 PUSH1 0x40 MLOAD DUP1 DUP4 SUB DUP2 PUSH0 DUP8 DUP1 EXTCODESIZE ISZERO DUP1 ISZERO PUSH2 0xFC1 JUMPI PUSH0 DUP1 REVERT JUMPDEST POP GAS CALL ISZERO DUP1 ISZERO PUSH2 0xFD3 JUMPI RETURNDATASIZE PUSH0 DUP1 RETURNDATACOPY RETURNDATASIZE PUSH0 REVERT JUMPDEST POP POP POP PUSH0 DUP3 DUP2 MSTORE PUSH1 0x4 PUSH1 0x20 MSTORE PUSH1 0x40 SWAP1 KECCAK256 DUP3 DUP2 SSTORE DUP7 MLOAD SWAP1 SWAP2 POP DUP7 SWAP1 PUSH1 0x1 DUP4 ADD SWAP1 DUP2 SWAP1 PUSH2 0xFFE SWAP1 DUP3 PUSH2 0x266C JUMP JUMPDEST POP PUSH1 0x20 DUP3 ADD MLOAD PUSH1 0x1 DUP3 ADD SWAP1 PUSH2 0x1013 SWAP1 DUP3 PUSH2 0x266C JUMP JUMPDEST POP PUSH1 0x40 DUP3 ADD MLOAD PUSH1 0x2 DUP3 ADD DUP1 SLOAD PUSH1 0xFF NOT AND PUSH1 0x1 DUP4 PUSH1 0x5 DUP2 GT ISZERO PUSH2 0x1037 JUMPI PUSH2 0x1037 PUSH2 0x2068 JUMP JUMPDEST MUL OR SWAP1 SSTORE POP PUSH1 0x60 DUP3 ADD MLOAD PUSH1 0x3 DUP3 ADD SWAP1 PUSH2 0x1050 SWAP1 DUP3 PUSH2 0x266C JUMP JUMPDEST POP PUSH1 0x80 DUP3 ADD MLOAD PUSH1 0x4 DUP3 ADD SWAP1 PUSH2 0x1065 SWAP1 DUP3 PUSH2 0x266C JUMP JUMPDEST POP PUSH1 0xA0 DUP3 ADD MLOAD PUSH1 0x5 DUP3 ADD SWAP1 PUSH2 0x107A SWAP1 DUP3 PUSH2 0x266C JUMP JUMPDEST POP POP POP PUSH1 0x8 DUP2 ADD DUP1 SLOAD PUSH1 0x1 PUSH1 0x1 PUSH1 0xA0 SHL SUB NOT AND CALLER OR SWAP1 SSTORE PUSH0 JUMPDEST DUP6 MLOAD DUP2 LT ISZERO PUSH2 0x1101 JUMPI DUP2 PUSH1 0x7 ADD DUP7 DUP3 DUP2 MLOAD DUP2 LT PUSH2 0x10B2 JUMPI PUSH2 0x10B2 PUSH2 0x248E JUMP JUMPDEST PUSH1 0x20 SWAP1 DUP2 MUL SWAP2 SWAP1 SWAP2 ADD DUP2 ADD MLOAD DUP3 SLOAD PUSH1 0x1 DUP1 DUP3 ADD DUP6 SSTORE PUSH0 SWAP5 DUP6 MSTORE SWAP4 DUP4 SWAP1 KECCAK256 DUP3 MLOAD PUSH1 0x2 SWAP1 SWAP3 MUL ADD DUP1 SLOAD PUSH1 0x1 PUSH1 0x1 PUSH1 0xA0 SHL SUB NOT AND PUSH1 0x1 PUSH1 0x1 PUSH1 0xA0 SHL SUB SWAP1 SWAP3 AND SWAP2 SWAP1 SWAP2 OR DUP2 SSTORE SWAP2 ADD MLOAD SWAP1 DUP3 ADD SSTORE ADD PUSH2 0x1093 JUMP JUMPDEST POP CALLER PUSH1 0x1 PUSH1 0x1 PUSH1 0xA0 SHL SUB AND DUP3 PUSH32 0xC6DDA5D2A7A2BAAAA424904E38BC3992B0DC78BFB2900BBDECA620424FA64570 DUP9 PUSH0 ADD MLOAD DUP10 PUSH1 0x20 ADD MLOAD DUP11 PUSH1 0x60 ADD MLOAD DUP12 PUSH1 0xA0 ADD MLOAD DUP13 PUSH1 0x80 ADD MLOAD DUP14 PUSH1 0x40 ADD MLOAD PUSH1 0x5 DUP2 GT ISZERO PUSH2 0x115C JUMPI PUSH2 0x115C PUSH2 0x2068 JUMP JUMPDEST PUSH1 0x40 MLOAD PUSH2 0x116E SWAP7 SWAP6 SWAP5 SWAP4 SWAP3 SWAP2 SWAP1 PUSH2 0x272C JUMP JUMPDEST PUSH1 0x40 MLOAD DUP1 SWAP2 SUB SWAP1 LOG3 PUSH0 JUMPDEST DUP6 MLOAD DUP2 LT ISZERO PUSH2 0x1210 JUMPI CALLER PUSH1 0x1 PUSH1 0x1 PUSH1 0xA0 SHL SUB AND DUP7 DUP3 DUP2 MLOAD DUP2 LT PUSH2 0x119D JUMPI PUSH2 0x119D PUSH2 0x248E JUMP JUMPDEST PUSH1 0x20 MUL PUSH1 0x20 ADD ADD MLOAD PUSH0 ADD MLOAD PUSH1 0x1 PUSH1 0x1 PUSH1 0xA0 SHL SUB AND DUP5 PUSH32 0x1CD5F4915FBEA5FB35C9EBDFB2BFD7D12423DB85AEA22A9B5E92D6B0EC08FCE1 DUP10 DUP6 DUP2 MLOAD DUP2 LT PUSH2 0x11E5 JUMPI PUSH2 0x11E5 PUSH2 0x248E JUMP JUMPDEST PUSH1 0x20 MUL PUSH1 0x20 ADD ADD MLOAD PUSH1 0x20 ADD MLOAD PUSH1 0x40 MLOAD PUSH2 0x1200 SWAP2 DUP2 MSTORE PUSH1 0x20 ADD SWAP1 JUMP JUMPDEST PUSH1 0x40 MLOAD DUP1 SWAP2 SUB SWAP1 LOG4 PUSH1 0x1 ADD PUSH2 0x1178 JUMP JUMPDEST POP SLOAD SWAP6 SWAP5 POP POP POP POP POP JUMP JUMPDEST PUSH1 0x3 SLOAD PUSH0 SWAP1 PUSH1 0x1 PUSH1 0x1 PUSH1 0xA0 SHL SUB AND PUSH2 0x1275 JUMPI PUSH1 0x40 MLOAD PUSH3 0x461BCD PUSH1 0xE5 SHL DUP2 MSTORE PUSH1 0x20 PUSH1 0x4 DUP3 ADD MSTORE PUSH1 0x18 PUSH1 0x24 DUP3 ADD MSTORE PUSH32 0x566F74696E6720746F6B656E206D757374206265207365740000000000000000 PUSH1 0x44 DUP3 ADD MSTORE PUSH1 0x64 ADD PUSH2 0x8CA JUMP JUMPDEST PUSH1 0x3 SLOAD PUSH1 0x40 MLOAD PUSH4 0x70A08231 PUSH1 0xE0 SHL DUP2 MSTORE PUSH1 0x1 PUSH1 0x1 PUSH1 0xA0 SHL SUB DUP5 DUP2 AND PUSH1 0x4 DUP4 ADD MSTORE SWAP1 SWAP2 AND SWAP1 PUSH4 0x70A08231 SWAP1 PUSH1 0x24 ADD PUSH1 0x20 PUSH1 0x40 MLOAD DUP1 DUP4 SUB DUP2 DUP7 GAS STATICCALL SWAP3 POP POP POP DUP1 ISZERO PUSH2 0x12DB JUMPI POP PUSH1 0x40 DUP1 MLOAD PUSH1 0x1F RETURNDATASIZE SWAP1 DUP2 ADD PUSH1 0x1F NOT AND DUP3 ADD SWAP1 SWAP3 MSTORE PUSH2 0x12D8 SWAP2 DUP2 ADD SWAP1 PUSH2 0x27A3 JUMP JUMPDEST PUSH1 0x1 JUMPDEST PUSH2 0x35F JUMPI PUSH1 0x40 MLOAD PUSH3 0x461BCD PUSH1 0xE5 SHL DUP2 MSTORE PUSH1 0x20 PUSH1 0x4 DUP3 ADD MSTORE PUSH1 0x2A PUSH1 0x24 DUP3 ADD MSTORE PUSH32 0x4661696C656420746F206765742062616C616E63652C20766F74696E67206E6F PUSH1 0x44 DUP3 ADD MSTORE PUSH10 0x7420706F737369626C65 PUSH1 0xB0 SHL PUSH1 0x64 DUP3 ADD MSTORE PUSH1 0x84 ADD PUSH2 0x8CA JUMP JUMPDEST SWAP2 SWAP1 POP JUMP JUMPDEST PUSH2 0x1347 PUSH2 0x1E1A JUMP JUMPDEST PUSH1 0x5 SLOAD DUP3 GT ISZERO PUSH2 0x1369 JUMPI PUSH1 0x40 MLOAD PUSH3 0x461BCD PUSH1 0xE5 SHL DUP2 MSTORE PUSH1 0x4 ADD PUSH2 0x8CA SWAP1 PUSH2 0x25CA JUMP JUMPDEST PUSH1 0x4 PUSH0 DUP4 DUP2 MSTORE PUSH1 0x20 ADD SWAP1 DUP2 MSTORE PUSH1 0x20 ADD PUSH0 KECCAK256 PUSH1 0x40 MLOAD DUP1 PUSH1 0xA0 ADD PUSH1 0x40 MSTORE SWAP1 DUP2 PUSH0 DUP3 ADD SLOAD DUP2 MSTORE PUSH1 0x20 ADD PUSH1 0x1 DUP3 ADD PUSH1 0x40 MLOAD DUP1 PUSH1 0xC0 ADD PUSH1 0x40 MSTORE SWAP1 DUP2 PUSH0 DUP3 ADD DUP1 SLOAD PUSH2 0x13AD SWAP1 PUSH2 0x24A2 JUMP JUMPDEST DUP1 PUSH1 0x1F ADD PUSH1 0x20 DUP1 SWAP2 DIV MUL PUSH1 0x20 ADD PUSH1 0x40 MLOAD SWAP1 DUP2 ADD PUSH1 0x40 MSTORE DUP1 SWAP3 SWAP2 SWAP1 DUP2 DUP2 MSTORE PUSH1 0x20 ADD DUP3 DUP1 SLOAD PUSH2 0x13D9 SWAP1 PUSH2 0x24A2 JUMP JUMPDEST DUP1 ISZERO PUSH2 0x1424 JUMPI DUP1 PUSH1 0x1F LT PUSH2 0x13FB JUMPI PUSH2 0x100 DUP1 DUP4 SLOAD DIV MUL DUP4 MSTORE SWAP2 PUSH1 0x20 ADD SWAP2 PUSH2 0x1424 JUMP JUMPDEST DUP3 ADD SWAP2 SWAP1 PUSH0 MSTORE PUSH1 0x20 PUSH0 KECCAK256 SWAP1 JUMPDEST DUP2 SLOAD DUP2 MSTORE SWAP1 PUSH1 0x1 ADD SWAP1 PUSH1 0x20 ADD DUP1 DUP4 GT PUSH2 0x1407 JUMPI DUP3 SWAP1 SUB PUSH1 0x1F AND DUP3 ADD SWAP2 JUMPDEST POP POP POP POP POP DUP2 MSTORE PUSH1 0x20 ADD PUSH1 0x1 DUP3 ADD DUP1 SLOAD PUSH2 0x143D SWAP1 PUSH2 0x24A2 JUMP JUMPDEST DUP1 PUSH1 0x1F ADD PUSH1 0x20 DUP1 SWAP2 DIV MUL PUSH1 0x20 ADD PUSH1 0x40 MLOAD SWAP1 DUP2 ADD PUSH1 0x40 MSTORE DUP1 SWAP3 SWAP2 SWAP1 DUP2 DUP2 MSTORE PUSH1 0x20 ADD DUP3 DUP1 SLOAD PUSH2 0x1469 SWAP1 PUSH2 0x24A2 JUMP JUMPDEST DUP1 ISZERO PUSH2 0x14B4 JUMPI DUP1 PUSH1 0x1F LT PUSH2 0x148B JUMPI PUSH2 0x100 DUP1 DUP4 SLOAD DIV MUL DUP4 MSTORE SWAP2 PUSH1 0x20 ADD SWAP2 PUSH2 0x14B4 JUMP JUMPDEST DUP3 ADD SWAP2 SWAP1 PUSH0 MSTORE PUSH1 0x20 PUSH0 KECCAK256 SWAP1 JUMPDEST DUP2 SLOAD DUP2 MSTORE SWAP1 PUSH1 0x1 ADD SWAP1 PUSH1 0x20 ADD DUP1 DUP4 GT PUSH2 0x1497 JUMPI DUP3 SWAP1 SUB PUSH1 0x1F AND DUP3 ADD SWAP2 JUMPDEST POP POP POP SWAP2 DUP4 MSTORE POP POP PUSH1 0x2 DUP3 ADD SLOAD PUSH1 0x20 SWAP1 SWAP2 ADD SWAP1 PUSH1 0xFF AND PUSH1 0x5 DUP2 GT ISZERO PUSH2 0x14DB JUMPI PUSH2 0x14DB PUSH2 0x2068 JUMP JUMPDEST PUSH1 0x5 DUP2 GT ISZERO PUSH2 0x14EC JUMPI PUSH2 0x14EC PUSH2 0x2068 JUMP JUMPDEST DUP2 MSTORE PUSH1 0x20 ADD PUSH1 0x3 DUP3 ADD DUP1 SLOAD PUSH2 0x1500 SWAP1 PUSH2 0x24A2 JUMP JUMPDEST DUP1 PUSH1 0x1F ADD PUSH1 0x20 DUP1 SWAP2 DIV MUL PUSH1 0x20 ADD PUSH1 0x40 MLOAD SWAP1 DUP2 ADD PUSH1 0x40 MSTORE DUP1 SWAP3 SWAP2 SWAP1 DUP2 DUP2 MSTORE PUSH1 0x20 ADD DUP3 DUP1 SLOAD PUSH2 0x152C SWAP1 PUSH2 0x24A2 JUMP JUMPDEST DUP1 ISZERO PUSH2 0x1577 JUMPI DUP1 PUSH1 0x1F LT PUSH2 0x154E JUMPI PUSH2 0x100 DUP1 DUP4 SLOAD DIV MUL DUP4 MSTORE SWAP2 PUSH1 0x20 ADD SWAP2 PUSH2 0x1577 JUMP JUMPDEST DUP3 ADD SWAP2 SWAP1 PUSH0 MSTORE PUSH1 0x20 PUSH0 KECCAK256 SWAP1 JUMPDEST DUP2 SLOAD DUP2 MSTORE SWAP1 PUSH1 0x1 ADD SWAP1 PUSH1 0x20 ADD DUP1 DUP4 GT PUSH2 0x155A JUMPI DUP3 SWAP1 SUB PUSH1 0x1F AND DUP3 ADD SWAP2 JUMPDEST POP POP POP POP POP DUP2 MSTORE PUSH1 0x20 ADD PUSH1 0x4 DUP3 ADD DUP1 SLOAD PUSH2 0x1590 SWAP1 PUSH2 0x24A2 JUMP JUMPDEST DUP1 PUSH1 0x1F ADD PUSH1 0x20 DUP1 SWAP2 DIV MUL PUSH1 0x20 ADD PUSH1 0x40 MLOAD SWAP1 DUP2 ADD PUSH1 0x40 MSTORE DUP1 SWAP3 SWAP2 SWAP1 DUP2 DUP2 MSTORE PUSH1 0x20 ADD DUP3 DUP1 SLOAD PUSH2 0x15BC SWAP1 PUSH2 0x24A2 JUMP JUMPDEST DUP1 ISZERO PUSH2 0x1607 JUMPI DUP1 PUSH1 0x1F LT PUSH2 0x15DE JUMPI PUSH2 0x100 DUP1 DUP4 SLOAD DIV MUL DUP4 MSTORE SWAP2 PUSH1 0x20 ADD SWAP2 PUSH2 0x1607 JUMP JUMPDEST DUP3 ADD SWAP2 SWAP1 PUSH0 MSTORE PUSH1 0x20 PUSH0 KECCAK256 SWAP1 JUMPDEST DUP2 SLOAD DUP2 MSTORE SWAP1 PUSH1 0x1 ADD SWAP1 PUSH1 0x20 ADD DUP1 DUP4 GT PUSH2 0x15EA JUMPI DUP3 SWAP1 SUB PUSH1 0x1F AND DUP3 ADD SWAP2 JUMPDEST POP POP POP POP POP DUP2 MSTORE PUSH1 0x20 ADD PUSH1 0x5 DUP3 ADD DUP1 SLOAD PUSH2 0x1620 SWAP1 PUSH2 0x24A2 JUMP JUMPDEST DUP1 PUSH1 0x1F ADD PUSH1 0x20 DUP1 SWAP2 DIV MUL PUSH1 0x20 ADD PUSH1 0x40 MLOAD SWAP1 DUP2 ADD PUSH1 0x40 MSTORE DUP1 SWAP3 SWAP2 SWAP1 DUP2 DUP2 MSTORE PUSH1 0x20 ADD DUP3 DUP1 SLOAD PUSH2 0x164C SWAP1 PUSH2 0x24A2 JUMP JUMPDEST DUP1 ISZERO PUSH2 0x1697 JUMPI DUP1 PUSH1 0x1F LT PUSH2 0x166E JUMPI PUSH2 0x100 DUP1 DUP4 SLOAD DIV MUL DUP4 MSTORE SWAP2 PUSH1 0x20 ADD SWAP2 PUSH2 0x1697 JUMP JUMPDEST DUP3 ADD SWAP2 SWAP1 PUSH0 MSTORE PUSH1 0x20 PUSH0 KECCAK256 SWAP1 JUMPDEST DUP2 SLOAD DUP2 MSTORE SWAP1 PUSH1 0x1 ADD SWAP1 PUSH1 0x20 ADD DUP1 DUP4 GT PUSH2 0x167A JUMPI DUP3 SWAP1 SUB PUSH1 0x1F AND DUP3 ADD SWAP2 JUMPDEST POP POP POP POP POP DUP2 MSTORE POP POP DUP2 MSTORE PUSH1 0x20 ADD PUSH1 0x7 DUP3 ADD DUP1 SLOAD DUP1 PUSH1 0x20 MUL PUSH1 0x20 ADD PUSH1 0x40 MLOAD SWAP1 DUP2 ADD PUSH1 0x40 MSTORE DUP1 SWAP3 SWAP2 SWAP1 DUP2 DUP2 MSTORE PUSH1 0x20 ADD PUSH0 SWAP1 JUMPDEST DUP3 DUP3 LT ISZERO PUSH2 0x170F JUMPI PUSH0 DUP5 DUP2 MSTORE PUSH1 0x20 SWAP1 DUP2 SWAP1 KECCAK256 PUSH1 0x40 DUP1 MLOAD DUP1 DUP3 ADD SWAP1 SWAP2 MSTORE PUSH1 0x2 DUP6 MUL SWAP1 SWAP2 ADD DUP1 SLOAD PUSH1 0x1 PUSH1 0x1 PUSH1 0xA0 SHL SUB AND DUP3 MSTORE PUSH1 0x1 SWAP1 DUP2 ADD SLOAD DUP3 DUP5 ADD MSTORE SWAP1 DUP4 MSTORE SWAP1 SWAP3 ADD SWAP2 ADD PUSH2 0x16C8 JUMP JUMPDEST POP POP POP SWAP1 DUP3 MSTORE POP PUSH1 0x8 SWAP2 SWAP1 SWAP2 ADD SLOAD PUSH1 0x1 PUSH1 0x1 PUSH1 0xA0 SHL SUB DUP2 AND PUSH1 0x20 DUP4 ADD MSTORE PUSH1 0x1 PUSH1 0xA0 SHL SWAP1 DIV PUSH1 0xFF AND ISZERO ISZERO PUSH1 0x40 SWAP1 SWAP2 ADD MSTORE SWAP3 SWAP2 POP POP JUMP JUMPDEST PUSH2 0x174C PUSH2 0x1AC4 JUMP JUMPDEST PUSH1 0x1 PUSH1 0x1 PUSH1 0xA0 SHL SUB DUP2 AND PUSH2 0x1775 JUMPI PUSH1 0x40 MLOAD PUSH4 0x1E4FBDF7 PUSH1 0xE0 SHL DUP2 MSTORE PUSH0 PUSH1 0x4 DUP3 ADD MSTORE PUSH1 0x24 ADD PUSH2 0x8CA JUMP JUMPDEST PUSH2 0x335 DUP2 PUSH2 0x1AF0 JUMP JUMPDEST PUSH2 0x1786 PUSH2 0x1E1A JUMP JUMPDEST PUSH1 0x2 SLOAD PUSH1 0x40 DUP1 MLOAD PUSH4 0x183AFAA9 PUSH1 0xE1 SHL DUP2 MSTORE DUP2 MLOAD PUSH0 SWAP4 PUSH1 0x1 PUSH1 0x1 PUSH1 0xA0 SHL SUB AND SWAP3 PUSH4 0x3075F552 SWAP3 PUSH1 0x4 DUP1 DUP3 ADD SWAP4 SWAP2 DUP3 SWAP1 SUB ADD DUP2 DUP7 GAS STATICCALL ISZERO DUP1 ISZERO PUSH2 0x17C9 JUMPI RETURNDATASIZE PUSH0 DUP1 RETURNDATACOPY RETURNDATASIZE PUSH0 REVERT JUMPDEST POP POP POP POP PUSH1 0x40 MLOAD RETURNDATASIZE PUSH1 0x1F NOT PUSH1 0x1F DUP3 ADD AND DUP3 ADD DUP1 PUSH1 0x40 MSTORE POP DUP2 ADD SWAP1 PUSH2 0x17ED SWAP2 SWAP1 PUSH2 0x24DA JUMP JUMPDEST POP SWAP1 POP PUSH1 0x4 PUSH0 DUP3 DUP2 MSTORE PUSH1 0x20 ADD SWAP1 DUP2 MSTORE PUSH1 0x20 ADD PUSH0 KECCAK256 PUSH1 0x40 MLOAD DUP1 PUSH1 0xA0 ADD PUSH1 0x40 MSTORE SWAP1 DUP2 PUSH0 DUP3 ADD SLOAD DUP2 MSTORE PUSH1 0x20 ADD PUSH1 0x1 DUP3 ADD PUSH1 0x40 MLOAD DUP1 PUSH1 0xC0 ADD PUSH1 0x40 MSTORE SWAP1 DUP2 PUSH0 DUP3 ADD DUP1 SLOAD PUSH2 0x13AD SWAP1 PUSH2 0x24A2 JUMP JUMPDEST PUSH1 0x2 PUSH1 0x1 SLOAD SUB PUSH2 0x1857 JUMPI PUSH1 0x40 MLOAD PUSH4 0x3EE5AEB5 PUSH1 0xE0 SHL DUP2 MSTORE PUSH1 0x4 ADD PUSH1 0x40 MLOAD DUP1 SWAP2 SUB SWAP1 REVERT JUMPDEST PUSH1 0x2 PUSH1 0x1 SSTORE JUMP JUMPDEST PUSH0 DUP2 GT PUSH2 0x18AD JUMPI PUSH1 0x40 MLOAD PUSH3 0x461BCD PUSH1 0xE5 SHL DUP2 MSTORE PUSH1 0x20 PUSH1 0x4 DUP3 ADD DUP2 SWAP1 MSTORE PUSH1 0x24 DUP3 ADD MSTORE PUSH32 0x576569676874206D7573742062652067726561746572207468616E207A65726F PUSH1 0x44 DUP3 ADD MSTORE PUSH1 0x64 ADD PUSH2 0x8CA JUMP JUMPDEST PUSH0 DUP4 DUP2 MSTORE PUSH1 0x6 PUSH1 0x20 SWAP1 DUP2 MSTORE PUSH1 0x40 DUP1 DUP4 KECCAK256 CALLER DUP5 MSTORE SWAP1 SWAP2 MSTORE SWAP1 KECCAK256 SLOAD PUSH1 0x1 PUSH1 0x1 PUSH1 0xA0 SHL SUB AND ISZERO PUSH2 0x190C JUMPI PUSH1 0x40 MLOAD PUSH3 0x461BCD PUSH1 0xE5 SHL DUP2 MSTORE PUSH1 0x20 PUSH1 0x4 DUP3 ADD MSTORE PUSH1 0xD PUSH1 0x24 DUP3 ADD MSTORE PUSH13 0x105B1C9958591E481D9BDD1959 PUSH1 0x9A SHL PUSH1 0x44 DUP3 ADD MSTORE PUSH1 0x64 ADD PUSH2 0x8CA JUMP JUMPDEST PUSH0 DUP4 DUP2 MSTORE PUSH1 0x4 PUSH1 0x20 MSTORE PUSH1 0x40 SWAP1 KECCAK256 PUSH1 0x8 ADD SLOAD PUSH1 0x1 PUSH1 0xA0 SHL SWAP1 DIV PUSH1 0xFF AND ISZERO PUSH2 0x1974 JUMPI PUSH1 0x40 MLOAD PUSH3 0x461BCD PUSH1 0xE5 SHL DUP2 MSTORE PUSH1 0x20 PUSH1 0x4 DUP3 ADD MSTORE PUSH1 0x1E PUSH1 0x24 DUP3 ADD MSTORE PUSH32 0x50696563652068617320616C7265616479206265656E2064726F707065640000 PUSH1 0x44 DUP3 ADD MSTORE PUSH1 0x64 ADD PUSH2 0x8CA JUMP JUMPDEST PUSH1 0x5 SLOAD DUP4 GT ISZERO PUSH2 0x1996 JUMPI PUSH1 0x40 MLOAD PUSH3 0x461BCD PUSH1 0xE5 SHL DUP2 MSTORE PUSH1 0x4 ADD PUSH2 0x8CA SWAP1 PUSH2 0x25CA JUMP JUMPDEST PUSH1 0x40 DUP1 MLOAD DUP1 DUP3 ADD DUP3 MSTORE PUSH1 0x1 PUSH1 0x1 PUSH1 0xA0 SHL SUB DUP5 DUP2 AND DUP1 DUP4 MSTORE PUSH1 0x20 DUP1 DUP5 ADD DUP7 DUP2 MSTORE PUSH0 DUP10 DUP2 MSTORE PUSH1 0x6 DUP4 MSTORE DUP7 DUP2 KECCAK256 SWAP4 DUP2 MSTORE SWAP3 DUP3 MSTORE DUP6 DUP4 KECCAK256 SWAP5 MLOAD DUP6 SLOAD PUSH1 0x1 PUSH1 0x1 PUSH1 0xA0 SHL SUB NOT AND SWAP5 AND SWAP4 SWAP1 SWAP4 OR DUP5 SSTORE SWAP2 MLOAD PUSH1 0x1 SWAP1 SWAP4 ADD SWAP3 SWAP1 SWAP3 SSTORE DUP6 DUP3 MSTORE PUSH1 0x7 SWAP1 MSTORE SWAP1 DUP2 KECCAK256 DUP1 SLOAD DUP4 SWAP3 SWAP1 PUSH2 0x1A04 SWAP1 DUP5 SWAP1 PUSH2 0x27BA JUMP JUMPDEST SWAP1 SWAP2 SSTORE POP POP PUSH0 DUP4 DUP2 MSTORE PUSH1 0x7 PUSH1 0x20 MSTORE PUSH1 0x40 SWAP1 DUP2 SWAP1 KECCAK256 SLOAD PUSH1 0x2 SLOAD SWAP2 MLOAD PUSH4 0x2DA80413 PUSH1 0xE1 SHL DUP2 MSTORE PUSH1 0x4 DUP2 ADD DUP7 SWAP1 MSTORE PUSH1 0x24 DUP2 ADD DUP3 SWAP1 MSTORE SWAP1 SWAP2 PUSH1 0x1 PUSH1 0x1 PUSH1 0xA0 SHL SUB AND SWAP1 PUSH4 0x5B500826 SWAP1 PUSH1 0x44 ADD PUSH0 PUSH1 0x40 MLOAD DUP1 DUP4 SUB DUP2 PUSH0 DUP8 DUP1 EXTCODESIZE ISZERO DUP1 ISZERO PUSH2 0x1A62 JUMPI PUSH0 DUP1 REVERT JUMPDEST POP GAS CALL ISZERO DUP1 ISZERO PUSH2 0x1A74 JUMPI RETURNDATASIZE PUSH0 DUP1 RETURNDATACOPY RETURNDATASIZE PUSH0 REVERT JUMPDEST POP POP PUSH1 0x40 DUP1 MLOAD DUP6 DUP2 MSTORE PUSH1 0x20 DUP2 ADD DUP6 SWAP1 MSTORE PUSH1 0x1 PUSH1 0x1 PUSH1 0xA0 SHL SUB DUP8 AND SWAP4 POP DUP8 SWAP3 POP PUSH32 0x271F53EEBBE20450D9578F28EC279231556C34545B30E2278D754FFD39CD63C SWAP2 ADD PUSH1 0x40 MLOAD DUP1 SWAP2 SUB SWAP1 LOG3 POP POP POP POP JUMP JUMPDEST PUSH0 SLOAD PUSH1 0x1 PUSH1 0x1 PUSH1 0xA0 SHL SUB AND CALLER EQ PUSH2 0x3CC JUMPI PUSH1 0x40 MLOAD PUSH4 0x118CDAA7 PUSH1 0xE0 SHL DUP2 MSTORE CALLER PUSH1 0x4 DUP3 ADD MSTORE PUSH1 0x24 ADD PUSH2 0x8CA JUMP JUMPDEST PUSH0 DUP1 SLOAD PUSH1 0x1 PUSH1 0x1 PUSH1 0xA0 SHL SUB DUP4 DUP2 AND PUSH1 0x1 PUSH1 0x1 PUSH1 0xA0 SHL SUB NOT DUP4 AND DUP2 OR DUP5 SSTORE PUSH1 0x40 MLOAD SWAP2 SWAP1 SWAP3 AND SWAP3 DUP4 SWAP2 PUSH32 0x8BE0079C531659141344CD1FD0A4F28419497F9722A3DAAFE3B4186F6B6457E0 SWAP2 SWAP1 LOG3 POP POP JUMP JUMPDEST PUSH0 PUSH1 0x64 DUP3 MLOAD GT ISZERO PUSH2 0x1B92 JUMPI PUSH1 0x40 MLOAD PUSH3 0x461BCD PUSH1 0xE5 SHL DUP2 MSTORE PUSH1 0x20 PUSH1 0x4 DUP3 ADD MSTORE PUSH1 0x1F PUSH1 0x24 DUP3 ADD MSTORE PUSH32 0x43726561746F72206172726179206D757374206E6F74206265203E2031303000 PUSH1 0x44 DUP3 ADD MSTORE PUSH1 0x64 ADD PUSH2 0x8CA JUMP JUMPDEST PUSH0 DUP1 JUMPDEST DUP4 MLOAD DUP2 LT ISZERO PUSH2 0x77C JUMPI PUSH0 PUSH1 0x1 PUSH1 0x1 PUSH1 0xA0 SHL SUB AND DUP5 DUP3 DUP2 MLOAD DUP2 LT PUSH2 0x1BBA JUMPI PUSH2 0x1BBA PUSH2 0x248E JUMP JUMPDEST PUSH1 0x20 MUL PUSH1 0x20 ADD ADD MLOAD PUSH0 ADD MLOAD PUSH1 0x1 PUSH1 0x1 PUSH1 0xA0 SHL SUB AND SUB PUSH2 0x1C1B JUMPI PUSH1 0x40 MLOAD PUSH3 0x461BCD PUSH1 0xE5 SHL DUP2 MSTORE PUSH1 0x20 PUSH1 0x4 DUP3 ADD MSTORE PUSH1 0x17 PUSH1 0x24 DUP3 ADD MSTORE PUSH32 0x496E76616C69642063726561746F722061646472657373000000000000000000 PUSH1 0x44 DUP3 ADD MSTORE PUSH1 0x64 ADD PUSH2 0x8CA JUMP JUMPDEST DUP4 DUP2 DUP2 MLOAD DUP2 LT PUSH2 0x1C2D JUMPI PUSH2 0x1C2D PUSH2 0x248E JUMP JUMPDEST PUSH1 0x20 MUL PUSH1 0x20 ADD ADD MLOAD PUSH1 0x20 ADD MLOAD DUP3 PUSH2 0x1C44 SWAP2 SWAP1 PUSH2 0x27BA JUMP JUMPDEST SWAP2 POP PUSH1 0x1 ADD PUSH2 0x1B95 JUMP JUMPDEST PUSH0 DUP2 PUSH1 0x40 ADD MLOAD PUSH1 0x5 DUP2 GT ISZERO PUSH2 0x1C65 JUMPI PUSH2 0x1C65 PUSH2 0x2068 JUMP JUMPDEST PUSH1 0xFF AND GT DUP1 ISZERO PUSH2 0x1C8E JUMPI POP PUSH1 0x5 DUP2 PUSH1 0x40 ADD MLOAD PUSH1 0x5 DUP2 GT ISZERO PUSH2 0x1C88 JUMPI PUSH2 0x1C88 PUSH2 0x2068 JUMP JUMPDEST PUSH1 0xFF AND GT ISZERO JUMPDEST PUSH2 0x1CCF JUMPI PUSH1 0x40 MLOAD PUSH3 0x461BCD PUSH1 0xE5 SHL DUP2 MSTORE PUSH1 0x20 PUSH1 0x4 DUP3 ADD MSTORE PUSH1 0x12 PUSH1 0x24 DUP3 ADD MSTORE PUSH18 0x496E76616C6964206D656469612074797065 PUSH1 0x70 SHL PUSH1 0x44 DUP3 ADD MSTORE PUSH1 0x64 ADD PUSH2 0x8CA JUMP JUMPDEST PUSH1 0x1 DUP2 PUSH1 0x40 ADD MLOAD PUSH1 0x5 DUP2 GT ISZERO PUSH2 0x1CE7 JUMPI PUSH2 0x1CE7 PUSH2 0x2068 JUMP JUMPDEST SUB PUSH2 0x1D40 JUMPI PUSH0 DUP2 PUSH1 0x60 ADD MLOAD MLOAD GT PUSH2 0x335 JUMPI PUSH1 0x40 MLOAD PUSH3 0x461BCD PUSH1 0xE5 SHL DUP2 MSTORE PUSH1 0x20 PUSH1 0x4 DUP3 ADD MSTORE PUSH1 0x1A PUSH1 0x24 DUP3 ADD MSTORE PUSH32 0x496D6167652055524C206D7573742062652070726F7669646564000000000000 PUSH1 0x44 DUP3 ADD MSTORE PUSH1 0x64 ADD PUSH2 0x8CA JUMP JUMPDEST PUSH1 0x2 DUP2 PUSH1 0x40 ADD MLOAD PUSH1 0x5 DUP2 GT ISZERO PUSH2 0x1D58 JUMPI PUSH2 0x1D58 PUSH2 0x2068 JUMP JUMPDEST SUB PUSH2 0x1DB1 JUMPI PUSH0 DUP2 PUSH1 0xA0 ADD MLOAD MLOAD GT PUSH2 0x335 JUMPI PUSH1 0x40 MLOAD PUSH3 0x461BCD PUSH1 0xE5 SHL DUP2 MSTORE PUSH1 0x20 PUSH1 0x4 DUP3 ADD MSTORE PUSH1 0x1E PUSH1 0x24 DUP3 ADD MSTORE PUSH32 0x416E696D6174696F6E2055524C206D7573742062652070726F76696465640000 PUSH1 0x44 DUP3 ADD MSTORE PUSH1 0x64 ADD PUSH2 0x8CA JUMP JUMPDEST PUSH1 0x4 DUP2 PUSH1 0x40 ADD MLOAD PUSH1 0x5 DUP2 GT ISZERO PUSH2 0x1DC9 JUMPI PUSH2 0x1DC9 PUSH2 0x2068 JUMP JUMPDEST SUB PUSH2 0x335 JUMPI PUSH0 DUP2 PUSH1 0x80 ADD MLOAD MLOAD GT PUSH2 0x335 JUMPI PUSH1 0x40 MLOAD PUSH3 0x461BCD PUSH1 0xE5 SHL DUP2 MSTORE PUSH1 0x20 PUSH1 0x4 DUP3 ADD MSTORE PUSH1 0x15 PUSH1 0x24 DUP3 ADD MSTORE PUSH21 0x15195E1D081B5D5CDD081899481C1C9BDD9A591959 PUSH1 0x5A SHL PUSH1 0x44 DUP3 ADD MSTORE PUSH1 0x64 ADD PUSH2 0x8CA JUMP JUMPDEST PUSH1 0x40 MLOAD DUP1 PUSH1 0xA0 ADD PUSH1 0x40 MSTORE DUP1 PUSH0 DUP2 MSTORE PUSH1 0x20 ADD PUSH2 0x1E61 PUSH1 0x40 DUP1 MLOAD PUSH1 0xC0 DUP2 ADD DUP3 MSTORE PUSH1 0x60 DUP1 DUP3 MSTORE PUSH1 0x20 DUP3 ADD MSTORE SWAP1 DUP2 ADD PUSH0 DUP2 MSTORE PUSH1 0x20 ADD PUSH1 0x60 DUP2 MSTORE PUSH1 0x20 ADD PUSH1 0x60 DUP2 MSTORE PUSH1 0x20 ADD PUSH1 0x60 DUP2 MSTORE POP SWAP1 JUMP JUMPDEST DUP2 MSTORE PUSH1 0x60 PUSH1 0x20 DUP3 ADD DUP2 SWAP1 MSTORE PUSH0 PUSH1 0x40 DUP4 ADD DUP2 SWAP1 MSTORE SWAP2 ADD MSTORE SWAP1 JUMP JUMPDEST PUSH0 PUSH1 0x20 DUP3 DUP5 SUB SLT ISZERO PUSH2 0x1E8A JUMPI PUSH0 DUP1 REVERT JUMPDEST POP CALLDATALOAD SWAP2 SWAP1 POP JUMP JUMPDEST DUP1 CALLDATALOAD PUSH1 0x1 PUSH1 0x1 PUSH1 0xA0 SHL SUB DUP2 AND DUP2 EQ PUSH2 0x133A JUMPI PUSH0 DUP1 REVERT JUMPDEST PUSH0 DUP1 PUSH1 0x40 DUP4 DUP6 SUB SLT ISZERO PUSH2 0x1EB8 JUMPI PUSH0 DUP1 REVERT JUMPDEST DUP3 CALLDATALOAD SWAP2 POP PUSH2 0x1EC8 PUSH1 0x20 DUP5 ADD PUSH2 0x1E91 JUMP JUMPDEST SWAP1 POP SWAP3 POP SWAP3 SWAP1 POP JUMP JUMPDEST PUSH4 0x4E487B71 PUSH1 0xE0 SHL PUSH0 MSTORE PUSH1 0x41 PUSH1 0x4 MSTORE PUSH1 0x24 PUSH0 REVERT JUMPDEST PUSH1 0x40 DUP2 ADD DUP2 DUP2 LT PUSH8 0xFFFFFFFFFFFFFFFF DUP3 GT OR ISZERO PUSH2 0x1F05 JUMPI PUSH2 0x1F05 PUSH2 0x1ED1 JUMP JUMPDEST PUSH1 0x40 MSTORE POP JUMP JUMPDEST PUSH1 0x1F DUP3 ADD PUSH1 0x1F NOT AND DUP2 ADD PUSH8 0xFFFFFFFFFFFFFFFF DUP2 GT DUP3 DUP3 LT OR ISZERO PUSH2 0x1F31 JUMPI PUSH2 0x1F31 PUSH2 0x1ED1 JUMP JUMPDEST PUSH1 0x40 MSTORE POP POP JUMP JUMPDEST PUSH1 0x40 MLOAD PUSH1 0xC0 DUP2 ADD PUSH8 0xFFFFFFFFFFFFFFFF DUP2 GT DUP3 DUP3 LT OR ISZERO PUSH2 0x1F5B JUMPI PUSH2 0x1F5B PUSH2 0x1ED1 JUMP JUMPDEST PUSH1 0x40 MSTORE SWAP1 JUMP JUMPDEST PUSH0 PUSH8 0xFFFFFFFFFFFFFFFF DUP3 GT ISZERO PUSH2 0x1F7A JUMPI PUSH2 0x1F7A PUSH2 0x1ED1 JUMP JUMPDEST POP PUSH1 0x5 SHL PUSH1 0x20 ADD SWAP1 JUMP JUMPDEST PUSH0 PUSH1 0x20 DUP1 DUP4 DUP6 SUB SLT ISZERO PUSH2 0x1F95 JUMPI PUSH0 DUP1 REVERT JUMPDEST DUP3 CALLDATALOAD PUSH8 0xFFFFFFFFFFFFFFFF DUP2 GT ISZERO PUSH2 0x1FAB JUMPI PUSH0 DUP1 REVERT JUMPDEST DUP4 ADD PUSH1 0x1F DUP2 ADD DUP6 SGT PUSH2 0x1FBB JUMPI PUSH0 DUP1 REVERT JUMPDEST DUP1 CALLDATALOAD PUSH2 0x1FC6 DUP2 PUSH2 0x1F61 JUMP JUMPDEST PUSH1 0x40 MLOAD PUSH2 0x1FD3 DUP3 DUP3 PUSH2 0x1F0B JUMP JUMPDEST DUP3 DUP2 MSTORE PUSH1 0x5 SWAP3 SWAP1 SWAP3 SHL DUP4 ADD DUP5 ADD SWAP2 DUP5 DUP2 ADD SWAP2 POP DUP8 DUP4 GT ISZERO PUSH2 0x1FF2 JUMPI PUSH0 DUP1 REVERT JUMPDEST SWAP3 DUP5 ADD SWAP3 JUMPDEST DUP3 DUP5 LT ISZERO PUSH2 0x2010 JUMPI DUP4 CALLDATALOAD DUP3 MSTORE SWAP3 DUP5 ADD SWAP3 SWAP1 DUP5 ADD SWAP1 PUSH2 0x1FF7 JUMP JUMPDEST SWAP8 SWAP7 POP POP POP POP POP POP POP JUMP JUMPDEST PUSH0 JUMPDEST DUP4 DUP2 LT ISZERO PUSH2 0x2035 JUMPI DUP2 DUP2 ADD MLOAD DUP4 DUP3 ADD MSTORE PUSH1 0x20 ADD PUSH2 0x201D JUMP JUMPDEST POP POP PUSH0 SWAP2 ADD MSTORE JUMP JUMPDEST PUSH0 DUP2 MLOAD DUP1 DUP5 MSTORE PUSH2 0x2054 DUP2 PUSH1 0x20 DUP7 ADD PUSH1 0x20 DUP7 ADD PUSH2 0x201B JUMP JUMPDEST PUSH1 0x1F ADD PUSH1 0x1F NOT AND SWAP3 SWAP1 SWAP3 ADD PUSH1 0x20 ADD SWAP3 SWAP2 POP POP JUMP JUMPDEST PUSH4 0x4E487B71 PUSH1 0xE0 SHL PUSH0 MSTORE PUSH1 0x21 PUSH1 0x4 MSTORE PUSH1 0x24 PUSH0 REVERT JUMPDEST PUSH0 DUP2 MLOAD PUSH1 0xC0 DUP5 MSTORE PUSH2 0x2090 PUSH1 0xC0 DUP6 ADD DUP3 PUSH2 0x203D JUMP JUMPDEST SWAP1 POP PUSH1 0x20 DUP4 ADD MLOAD DUP5 DUP3 SUB PUSH1 0x20 DUP7 ADD MSTORE PUSH2 0x20A9 DUP3 DUP3 PUSH2 0x203D JUMP JUMPDEST SWAP2 POP POP PUSH1 0x40 DUP4 ADD MLOAD PUSH1 0x6 DUP2 LT PUSH2 0x20CD JUMPI PUSH4 0x4E487B71 PUSH1 0xE0 SHL PUSH0 MSTORE PUSH1 0x21 PUSH1 0x4 MSTORE PUSH1 0x24 PUSH0 REVERT JUMPDEST DUP1 PUSH1 0x40 DUP7 ADD MSTORE POP PUSH1 0x60 DUP4 ADD MLOAD DUP5 DUP3 SUB PUSH1 0x60 DUP7 ADD MSTORE PUSH2 0x20EB DUP3 DUP3 PUSH2 0x203D JUMP JUMPDEST SWAP2 POP POP PUSH1 0x80 DUP4 ADD MLOAD DUP5 DUP3 SUB PUSH1 0x80 DUP7 ADD MSTORE PUSH2 0x2105 DUP3 DUP3 PUSH2 0x203D JUMP JUMPDEST SWAP2 POP POP PUSH1 0xA0 DUP4 ADD MLOAD DUP5 DUP3 SUB PUSH1 0xA0 DUP7 ADD MSTORE PUSH2 0x211F DUP3 DUP3 PUSH2 0x203D JUMP JUMPDEST SWAP6 SWAP5 POP POP POP POP POP JUMP JUMPDEST DUP5 DUP2 MSTORE PUSH1 0x80 PUSH1 0x20 DUP3 ADD MSTORE PUSH0 PUSH2 0x2140 PUSH1 0x80 DUP4 ADD DUP7 PUSH2 0x207C JUMP JUMPDEST PUSH1 0x1 PUSH1 0x1 PUSH1 0xA0 SHL SUB SWAP5 SWAP1 SWAP5 AND PUSH1 0x40 DUP4 ADD MSTORE POP SWAP1 ISZERO ISZERO PUSH1 0x60 SWAP1 SWAP2 ADD MSTORE SWAP3 SWAP2 POP POP JUMP JUMPDEST PUSH0 PUSH1 0x20 DUP1 DUP4 MSTORE DUP4 MLOAD DUP2 DUP5 ADD MSTORE DUP1 DUP5 ADD MLOAD PUSH1 0x40 PUSH1 0xA0 PUSH1 0x40 DUP7 ADD MSTORE PUSH2 0x2187 PUSH1 0xC0 DUP7 ADD DUP4 PUSH2 0x207C JUMP JUMPDEST PUSH1 0x40 DUP8 ADD MLOAD DUP7 DUP3 SUB PUSH1 0x1F NOT ADD PUSH1 0x60 DUP9 ADD MSTORE DUP1 MLOAD DUP1 DUP4 MSTORE SWAP1 DUP6 ADD SWAP4 POP PUSH0 SWAP2 DUP6 ADD SWAP1 JUMPDEST DUP1 DUP4 LT ISZERO PUSH2 0x21E2 JUMPI PUSH2 0x21CE DUP3 DUP7 MLOAD DUP1 MLOAD PUSH1 0x1 PUSH1 0x1 PUSH1 0xA0 SHL SUB AND DUP3 MSTORE PUSH1 0x20 SWAP1 DUP2 ADD MLOAD SWAP2 ADD MSTORE JUMP JUMPDEST SWAP4 DUP6 ADD SWAP4 PUSH1 0x1 SWAP3 SWAP1 SWAP3 ADD SWAP2 SWAP1 DUP4 ADD SWAP1 PUSH2 0x21A8 JUMP JUMPDEST POP PUSH1 0x60 DUP9 ADD MLOAD PUSH1 0x1 PUSH1 0x1 PUSH1 0xA0 SHL SUB DUP2 AND PUSH1 0x80 DUP10 ADD MSTORE SWAP5 POP PUSH1 0x80 DUP9 ADD MLOAD DUP1 ISZERO ISZERO PUSH1 0xA0 DUP10 ADD MSTORE SWAP5 POP PUSH2 0x2010 JUMP JUMPDEST DUP2 MLOAD PUSH1 0x1 PUSH1 0x1 PUSH1 0xA0 SHL SUB AND DUP2 MSTORE PUSH1 0x20 DUP1 DUP4 ADD MLOAD SWAP1 DUP3 ADD MSTORE PUSH1 0x40 DUP2 ADD PUSH2 0x35F JUMP JUMPDEST PUSH0 DUP3 PUSH1 0x1F DUP4 ADD SLT PUSH2 0x223C JUMPI PUSH0 DUP1 REVERT JUMPDEST DUP2 CALLDATALOAD PUSH8 0xFFFFFFFFFFFFFFFF DUP2 GT ISZERO PUSH2 0x2256 JUMPI PUSH2 0x2256 PUSH2 0x1ED1 JUMP JUMPDEST PUSH1 0x40 MLOAD PUSH2 0x226D PUSH1 0x1F DUP4 ADD PUSH1 0x1F NOT AND PUSH1 0x20 ADD DUP3 PUSH2 0x1F0B JUMP JUMPDEST DUP2 DUP2 MSTORE DUP5 PUSH1 0x20 DUP4 DUP7 ADD ADD GT ISZERO PUSH2 0x2281 JUMPI PUSH0 DUP1 REVERT JUMPDEST DUP2 PUSH1 0x20 DUP6 ADD PUSH1 0x20 DUP4 ADD CALLDATACOPY PUSH0 SWAP2 DUP2 ADD PUSH1 0x20 ADD SWAP2 SWAP1 SWAP2 MSTORE SWAP4 SWAP3 POP POP POP JUMP JUMPDEST DUP1 CALLDATALOAD PUSH1 0x6 DUP2 LT PUSH2 0x133A JUMPI PUSH0 DUP1 REVERT JUMPDEST PUSH0 DUP3 PUSH1 0x1F DUP4 ADD SLT PUSH2 0x22BA JUMPI PUSH0 DUP1 REVERT JUMPDEST DUP2 CALLDATALOAD PUSH1 0x20 PUSH2 0x22C7 DUP3 PUSH2 0x1F61 JUMP JUMPDEST PUSH1 0x40 DUP1 MLOAD PUSH2 0x22D5 DUP4 DUP3 PUSH2 0x1F0B JUMP JUMPDEST DUP5 DUP2 MSTORE PUSH1 0x6 SWAP5 SWAP1 SWAP5 SHL DUP7 ADD DUP4 ADD SWAP4 DUP4 DUP2 ADD SWAP3 POP DUP8 DUP6 GT ISZERO PUSH2 0x22F4 JUMPI PUSH0 DUP1 REVERT JUMPDEST DUP4 DUP8 ADD JUMPDEST DUP6 DUP2 LT ISZERO PUSH2 0x2339 JUMPI DUP3 DUP2 DUP11 SUB SLT ISZERO PUSH2 0x230E JUMPI PUSH0 DUP1 REVERT JUMPDEST DUP3 MLOAD PUSH2 0x2319 DUP2 PUSH2 0x1EE5 JUMP JUMPDEST PUSH2 0x2322 DUP3 PUSH2 0x1E91 JUMP JUMPDEST DUP2 MSTORE DUP2 DUP7 ADD CALLDATALOAD DUP7 DUP3 ADD MSTORE DUP5 MSTORE SWAP3 DUP5 ADD SWAP3 DUP3 ADD PUSH2 0x22F8 JUMP JUMPDEST POP SWAP8 SWAP7 POP POP POP POP POP POP POP JUMP JUMPDEST PUSH0 DUP1 PUSH1 0x40 DUP4 DUP6 SUB SLT ISZERO PUSH2 0x2356 JUMPI PUSH0 DUP1 REVERT JUMPDEST DUP3 CALLDATALOAD PUSH8 0xFFFFFFFFFFFFFFFF DUP1 DUP3 GT ISZERO PUSH2 0x236D JUMPI PUSH0 DUP1 REVERT JUMPDEST SWAP1 DUP5 ADD SWAP1 PUSH1 0xC0 DUP3 DUP8 SUB SLT ISZERO PUSH2 0x2380 JUMPI PUSH0 DUP1 REVERT JUMPDEST PUSH2 0x2388 PUSH2 0x1F38 JUMP JUMPDEST DUP3 CALLDATALOAD DUP3 DUP2 GT ISZERO PUSH2 0x2396 JUMPI PUSH0 DUP1 REVERT JUMPDEST PUSH2 0x23A2 DUP9 DUP3 DUP7 ADD PUSH2 0x222D JUMP JUMPDEST DUP3 MSTORE POP PUSH1 0x20 DUP4 ADD CALLDATALOAD DUP3 DUP2 GT ISZERO PUSH2 0x23B6 JUMPI PUSH0 DUP1 REVERT JUMPDEST PUSH2 0x23C2 DUP9 DUP3 DUP7 ADD PUSH2 0x222D JUMP JUMPDEST PUSH1 0x20 DUP4 ADD MSTORE POP PUSH2 0x23D4 PUSH1 0x40 DUP5 ADD PUSH2 0x229D JUMP JUMPDEST PUSH1 0x40 DUP3 ADD MSTORE PUSH1 0x60 DUP4 ADD CALLDATALOAD DUP3 DUP2 GT ISZERO PUSH2 0x23EA JUMPI PUSH0 DUP1 REVERT JUMPDEST PUSH2 0x23F6 DUP9 DUP3 DUP7 ADD PUSH2 0x222D JUMP JUMPDEST PUSH1 0x60 DUP4 ADD MSTORE POP PUSH1 0x80 DUP4 ADD CALLDATALOAD DUP3 DUP2 GT ISZERO PUSH2 0x240D JUMPI PUSH0 DUP1 REVERT JUMPDEST PUSH2 0x2419 DUP9 DUP3 DUP7 ADD PUSH2 0x222D JUMP JUMPDEST PUSH1 0x80 DUP4 ADD MSTORE POP PUSH1 0xA0 DUP4 ADD CALLDATALOAD DUP3 DUP2 GT ISZERO PUSH2 0x2430 JUMPI PUSH0 DUP1 REVERT JUMPDEST PUSH2 0x243C DUP9 DUP3 DUP7 ADD PUSH2 0x222D JUMP JUMPDEST PUSH1 0xA0 DUP4 ADD MSTORE POP SWAP4 POP PUSH1 0x20 DUP6 ADD CALLDATALOAD SWAP2 POP DUP1 DUP3 GT ISZERO PUSH2 0x2457 JUMPI PUSH0 DUP1 REVERT JUMPDEST POP PUSH2 0x2464 DUP6 DUP3 DUP7 ADD PUSH2 0x22AB JUMP JUMPDEST SWAP2 POP POP SWAP3 POP SWAP3 SWAP1 POP JUMP JUMPDEST PUSH0 PUSH1 0x20 DUP3 DUP5 SUB SLT ISZERO PUSH2 0x247E JUMPI PUSH0 DUP1 REVERT JUMPDEST PUSH2 0x2487 DUP3 PUSH2 0x1E91 JUMP JUMPDEST SWAP4 SWAP3 POP POP POP JUMP JUMPDEST PUSH4 0x4E487B71 PUSH1 0xE0 SHL PUSH0 MSTORE PUSH1 0x32 PUSH1 0x4 MSTORE PUSH1 0x24 PUSH0 REVERT JUMPDEST PUSH1 0x1 DUP2 DUP2 SHR SWAP1 DUP3 AND DUP1 PUSH2 0x24B6 JUMPI PUSH1 0x7F DUP3 AND SWAP2 POP JUMPDEST PUSH1 0x20 DUP3 LT DUP2 SUB PUSH2 0x24D4 JUMPI PUSH4 0x4E487B71 PUSH1 0xE0 SHL PUSH0 MSTORE PUSH1 0x22 PUSH1 0x4 MSTORE PUSH1 0x24 PUSH0 REVERT JUMPDEST POP SWAP2 SWAP1 POP JUMP JUMPDEST PUSH0 DUP1 PUSH1 0x40 DUP4 DUP6 SUB SLT ISZERO PUSH2 0x24EB JUMPI PUSH0 DUP1 REVERT JUMPDEST POP POP DUP1 MLOAD PUSH1 0x20 SWAP1 SWAP2 ADD MLOAD SWAP1 SWAP3 SWAP1 SWAP2 POP JUMP JUMPDEST PUSH0 PUSH1 0x3 RETURNDATASIZE GT ISZERO PUSH2 0xE84 JUMPI PUSH1 0x4 PUSH0 DUP1 RETURNDATACOPY POP PUSH0 MLOAD PUSH1 0xE0 SHR SWAP1 JUMP JUMPDEST PUSH0 PUSH1 0x44 RETURNDATASIZE LT ISZERO PUSH2 0x2521 JUMPI SWAP1 JUMP JUMPDEST PUSH1 0x40 MLOAD PUSH1 0x3 NOT RETURNDATASIZE DUP2 ADD PUSH1 0x4 DUP4 RETURNDATACOPY DUP2 MLOAD RETURNDATASIZE PUSH8 0xFFFFFFFFFFFFFFFF DUP2 PUSH1 0x24 DUP5 ADD GT DUP2 DUP5 GT OR ISZERO PUSH2 0x2551 JUMPI POP POP POP POP POP SWAP1 JUMP JUMPDEST DUP3 DUP6 ADD SWAP2 POP DUP2 MLOAD DUP2 DUP2 GT ISZERO PUSH2 0x2569 JUMPI POP POP POP POP POP POP SWAP1 JUMP JUMPDEST DUP5 RETURNDATASIZE DUP8 ADD ADD PUSH1 0x20 DUP3 DUP6 ADD ADD GT ISZERO PUSH2 0x2583 JUMPI POP POP POP POP POP POP SWAP1 JUMP JUMPDEST PUSH2 0x2592 PUSH1 0x20 DUP3 DUP7 ADD ADD DUP8 PUSH2 0x1F0B JUMP JUMPDEST POP SWAP1 SWAP6 SWAP5 POP POP POP POP POP JUMP JUMPDEST PUSH0 DUP3 MLOAD PUSH2 0x25AE DUP2 DUP5 PUSH1 0x20 DUP8 ADD PUSH2 0x201B JUMP JUMPDEST SWAP2 SWAP1 SWAP2 ADD SWAP3 SWAP2 POP POP JUMP JUMPDEST PUSH1 0x20 DUP2 MSTORE PUSH0 PUSH2 0x2487 PUSH1 0x20 DUP4 ADD DUP5 PUSH2 0x203D JUMP JUMPDEST PUSH1 0x20 DUP1 DUP3 MSTORE PUSH1 0x10 SWAP1 DUP3 ADD MSTORE PUSH16 0x125B9D985B1A59081C1A5958D9481251 PUSH1 0x82 SHL PUSH1 0x40 DUP3 ADD MSTORE PUSH1 0x60 ADD SWAP1 JUMP JUMPDEST PUSH4 0x4E487B71 PUSH1 0xE0 SHL PUSH0 MSTORE PUSH1 0x11 PUSH1 0x4 MSTORE PUSH1 0x24 PUSH0 REVERT JUMPDEST PUSH0 PUSH1 0x1 DUP3 ADD PUSH2 0x2619 JUMPI PUSH2 0x2619 PUSH2 0x25F4 JUMP JUMPDEST POP PUSH1 0x1 ADD SWAP1 JUMP JUMPDEST PUSH1 0x1F DUP3 GT ISZERO PUSH2 0x2667 JUMPI DUP1 PUSH0 MSTORE PUSH1 0x20 PUSH0 KECCAK256 PUSH1 0x1F DUP5 ADD PUSH1 0x5 SHR DUP2 ADD PUSH1 0x20 DUP6 LT ISZERO PUSH2 0x2645 JUMPI POP DUP1 JUMPDEST PUSH1 0x1F DUP5 ADD PUSH1 0x5 SHR DUP3 ADD SWAP2 POP JUMPDEST DUP2 DUP2 LT ISZERO PUSH2 0x2664 JUMPI PUSH0 DUP2 SSTORE PUSH1 0x1 ADD PUSH2 0x2651 JUMP JUMPDEST POP POP JUMPDEST POP POP POP JUMP JUMPDEST DUP2 MLOAD PUSH8 0xFFFFFFFFFFFFFFFF DUP2 GT ISZERO PUSH2 0x2686 JUMPI PUSH2 0x2686 PUSH2 0x1ED1 JUMP JUMPDEST PUSH2 0x269A DUP2 PUSH2 0x2694 DUP5 SLOAD PUSH2 0x24A2 JUMP JUMPDEST DUP5 PUSH2 0x2620 JUMP JUMPDEST PUSH1 0x20 DUP1 PUSH1 0x1F DUP4 GT PUSH1 0x1 DUP2 EQ PUSH2 0x26CD JUMPI PUSH0 DUP5 ISZERO PUSH2 0x26B6 JUMPI POP DUP6 DUP4 ADD MLOAD JUMPDEST PUSH0 NOT PUSH1 0x3 DUP7 SWAP1 SHL SHR NOT AND PUSH1 0x1 DUP6 SWAP1 SHL OR DUP6 SSTORE PUSH2 0x2724 JUMP JUMPDEST PUSH0 DUP6 DUP2 MSTORE PUSH1 0x20 DUP2 KECCAK256 PUSH1 0x1F NOT DUP7 AND SWAP2 JUMPDEST DUP3 DUP2 LT ISZERO PUSH2 0x26FB JUMPI DUP9 DUP7 ADD MLOAD DUP3 SSTORE SWAP5 DUP5 ADD SWAP5 PUSH1 0x1 SWAP1 SWAP2 ADD SWAP1 DUP5 ADD PUSH2 0x26DC JUMP JUMPDEST POP DUP6 DUP3 LT ISZERO PUSH2 0x2718 JUMPI DUP8 DUP6 ADD MLOAD PUSH0 NOT PUSH1 0x3 DUP9 SWAP1 SHL PUSH1 0xF8 AND SHR NOT AND DUP2 SSTORE JUMPDEST POP POP PUSH1 0x1 DUP5 PUSH1 0x1 SHL ADD DUP6 SSTORE JUMPDEST POP POP POP POP POP POP JUMP JUMPDEST PUSH1 0xC0 DUP2 MSTORE PUSH0 PUSH2 0x273E PUSH1 0xC0 DUP4 ADD DUP10 PUSH2 0x203D JUMP JUMPDEST DUP3 DUP2 SUB PUSH1 0x20 DUP5 ADD MSTORE PUSH2 0x2750 DUP2 DUP10 PUSH2 0x203D JUMP JUMPDEST SWAP1 POP DUP3 DUP2 SUB PUSH1 0x40 DUP5 ADD MSTORE PUSH2 0x2764 DUP2 DUP9 PUSH2 0x203D JUMP JUMPDEST SWAP1 POP DUP3 DUP2 SUB PUSH1 0x60 DUP5 ADD MSTORE PUSH2 0x2778 DUP2 DUP8 PUSH2 0x203D JUMP JUMPDEST SWAP1 POP DUP3 DUP2 SUB PUSH1 0x80 DUP5 ADD MSTORE PUSH2 0x278C DUP2 DUP7 PUSH2 0x203D JUMP JUMPDEST SWAP2 POP POP PUSH1 0xFF DUP4 AND PUSH1 0xA0 DUP4 ADD MSTORE SWAP8 SWAP7 POP POP POP POP POP POP POP JUMP JUMPDEST PUSH0 PUSH1 0x20 DUP3 DUP5 SUB SLT ISZERO PUSH2 0x27B3 JUMPI PUSH0 DUP1 REVERT JUMPDEST POP MLOAD SWAP2 SWAP1 POP JUMP JUMPDEST DUP1 DUP3 ADD DUP1 DUP3 GT ISZERO PUSH2 0x35F JUMPI PUSH2 0x35F PUSH2 0x25F4 JUMP INVALID LOG2 PUSH5 0x6970667358 0x22 SLT KECCAK256 SWAP14 GASPRICE 0xEE LOG2 0x26 0xE8 PUSH23 0x20612E1711DA0E65F0B9AA3753E6992F74390DCC3BF7CF DIV SSTORE PUSH5 0x736F6C6343 STOP ADDMOD AND STOP CALLER PUSH1 0x80 PUSH1 0x40 MSTORE PUSH0 PUSH1 0x3 SSTORE CALLVALUE DUP1 ISZERO PUSH2 0x13 JUMPI PUSH0 DUP1 REVERT JUMPDEST POP PUSH1 0x40 MLOAD PUSH2 0x965 CODESIZE SUB DUP1 PUSH2 0x965 DUP4 CODECOPY DUP2 ADD PUSH1 0x40 DUP2 SWAP1 MSTORE PUSH2 0x32 SWAP2 PUSH2 0xC3 JUMP JUMPDEST DUP1 PUSH1 0x1 PUSH1 0x1 PUSH1 0xA0 SHL SUB DUP2 AND PUSH2 0x60 JUMPI PUSH1 0x40 MLOAD PUSH4 0x1E4FBDF7 PUSH1 0xE0 SHL DUP2 MSTORE PUSH0 PUSH1 0x4 DUP3 ADD MSTORE PUSH1 0x24 ADD PUSH1 0x40 MLOAD DUP1 SWAP2 SUB SWAP1 REVERT JUMPDEST PUSH2 0x69 DUP2 PUSH2 0x74 JUMP JUMPDEST POP POP PUSH1 0x1 DUP1 SSTORE PUSH2 0xF0 JUMP JUMPDEST PUSH0 DUP1 SLOAD PUSH1 0x1 PUSH1 0x1 PUSH1 0xA0 SHL SUB DUP4 DUP2 AND PUSH1 0x1 PUSH1 0x1 PUSH1 0xA0 SHL SUB NOT DUP4 AND DUP2 OR DUP5 SSTORE PUSH1 0x40 MLOAD SWAP2 SWAP1 SWAP3 AND SWAP3 DUP4 SWAP2 PUSH32 0x8BE0079C531659141344CD1FD0A4F28419497F9722A3DAAFE3B4186F6B6457E0 SWAP2 SWAP1 LOG3 POP POP JUMP JUMPDEST PUSH0 PUSH1 0x20 DUP3 DUP5 SUB SLT ISZERO PUSH2 0xD3 JUMPI PUSH0 DUP1 REVERT JUMPDEST DUP2 MLOAD PUSH1 0x1 PUSH1 0x1 PUSH1 0xA0 SHL SUB DUP2 AND DUP2 EQ PUSH2 0xE9 JUMPI PUSH0 DUP1 REVERT JUMPDEST SWAP4 SWAP3 POP POP POP JUMP JUMPDEST PUSH2 0x868 DUP1 PUSH2 0xFD PUSH0 CODECOPY PUSH0 RETURN INVALID PUSH1 0x80 PUSH1 0x40 MSTORE CALLVALUE DUP1 ISZERO PUSH2 0xF JUMPI PUSH0 DUP1 REVERT JUMPDEST POP PUSH1 0x4 CALLDATASIZE LT PUSH2 0xB1 JUMPI PUSH0 CALLDATALOAD PUSH1 0xE0 SHR DUP1 PUSH4 0x8860805A GT PUSH2 0x6E JUMPI DUP1 PUSH4 0x8860805A EQ PUSH2 0x153 JUMPI DUP1 PUSH4 0x8DA5CB5B EQ PUSH2 0x15B JUMPI DUP1 PUSH4 0x949D225D EQ PUSH2 0x175 JUMPI DUP1 PUSH4 0x9F9A7F50 EQ PUSH2 0x17E JUMPI DUP1 PUSH4 0xF1269E01 EQ PUSH2 0x191 JUMPI DUP1 PUSH4 0xF2FDE38B EQ PUSH2 0x1B0 JUMPI PUSH0 DUP1 REVERT JUMPDEST DUP1 PUSH4 0x1C01F292 EQ PUSH2 0xB5 JUMPI DUP1 PUSH4 0x1D834A1B EQ PUSH2 0xE7 JUMPI DUP1 PUSH4 0x3075F552 EQ PUSH2 0xFC JUMPI DUP1 PUSH4 0x5B500826 EQ PUSH2 0x119 JUMPI DUP1 PUSH4 0x715018A6 EQ PUSH2 0x12C JUMPI DUP1 PUSH4 0x843F9793 EQ PUSH2 0x134 JUMPI JUMPDEST PUSH0 DUP1 REVERT JUMPDEST PUSH2 0xD4 PUSH2 0xC3 CALLDATASIZE PUSH1 0x4 PUSH2 0x731 JUMP JUMPDEST PUSH1 0x2 PUSH1 0x20 MSTORE PUSH0 SWAP1 DUP2 MSTORE PUSH1 0x40 SWAP1 KECCAK256 SLOAD DUP2 JUMP JUMPDEST PUSH1 0x40 MLOAD SWAP1 DUP2 MSTORE PUSH1 0x20 ADD JUMPDEST PUSH1 0x40 MLOAD DUP1 SWAP2 SUB SWAP1 RETURN JUMPDEST PUSH2 0xFA PUSH2 0xF5 CALLDATASIZE PUSH1 0x4 PUSH2 0x748 JUMP JUMPDEST PUSH2 0x1C3 JUMP JUMPDEST STOP JUMPDEST PUSH2 0x104 PUSH2 0x297 JUMP JUMPDEST PUSH1 0x40 DUP1 MLOAD SWAP3 DUP4 MSTORE PUSH1 0x20 DUP4 ADD SWAP2 SWAP1 SWAP2 MSTORE ADD PUSH2 0xDE JUMP JUMPDEST PUSH2 0xFA PUSH2 0x127 CALLDATASIZE PUSH1 0x4 PUSH2 0x748 JUMP JUMPDEST PUSH2 0x315 JUMP JUMPDEST PUSH2 0xFA PUSH2 0x3DD JUMP JUMPDEST PUSH2 0xD4 PUSH2 0x142 CALLDATASIZE PUSH1 0x4 PUSH2 0x731 JUMP JUMPDEST PUSH1 0x5 PUSH1 0x20 MSTORE PUSH0 SWAP1 DUP2 MSTORE PUSH1 0x40 SWAP1 KECCAK256 SLOAD DUP2 JUMP JUMPDEST PUSH2 0x104 PUSH2 0x3F0 JUMP JUMPDEST PUSH0 SLOAD PUSH1 0x40 MLOAD PUSH1 0x1 PUSH1 0x1 PUSH1 0xA0 SHL SUB SWAP1 SWAP2 AND DUP2 MSTORE PUSH1 0x20 ADD PUSH2 0xDE JUMP JUMPDEST PUSH2 0xD4 PUSH1 0x3 SLOAD DUP2 JUMP JUMPDEST PUSH2 0xFA PUSH2 0x18C CALLDATASIZE PUSH1 0x4 PUSH2 0x731 JUMP JUMPDEST PUSH2 0x4DF JUMP JUMPDEST PUSH2 0xD4 PUSH2 0x19F CALLDATASIZE PUSH1 0x4 PUSH2 0x731 JUMP JUMPDEST PUSH1 0x4 PUSH1 0x20 MSTORE PUSH0 SWAP1 DUP2 MSTORE PUSH1 0x40 SWAP1 KECCAK256 SLOAD DUP2 JUMP JUMPDEST PUSH2 0xFA PUSH2 0x1BE CALLDATASIZE PUSH1 0x4 PUSH2 0x768 JUMP JUMPDEST PUSH2 0x5D8 JUMP JUMPDEST PUSH2 0x1CB PUSH2 0x612 JUMP JUMPDEST PUSH1 0x3 DUP1 SLOAD PUSH0 SWAP1 DUP2 MSTORE PUSH1 0x2 PUSH1 0x20 SWAP1 DUP2 MSTORE PUSH1 0x40 DUP1 DUP4 KECCAK256 DUP7 SWAP1 SSTORE DUP6 DUP4 MSTORE PUSH1 0x4 DUP3 MSTORE DUP1 DUP4 KECCAK256 DUP6 SWAP1 SSTORE SWAP3 SLOAD PUSH1 0x5 SWAP1 SWAP2 MSTORE SWAP2 SWAP1 KECCAK256 DUP2 SWAP1 SSTORE JUMPDEST DUP1 ISZERO DUP1 ISZERO SWAP1 PUSH2 0x257 JUMPI POP PUSH1 0x4 PUSH0 PUSH1 0x2 PUSH0 PUSH2 0x216 DUP6 PUSH2 0x63E JUMP JUMPDEST DUP2 MSTORE PUSH1 0x20 ADD SWAP1 DUP2 MSTORE PUSH1 0x20 ADD PUSH0 KECCAK256 SLOAD DUP2 MSTORE PUSH1 0x20 ADD SWAP1 DUP2 MSTORE PUSH1 0x20 ADD PUSH0 KECCAK256 SLOAD PUSH1 0x4 PUSH0 PUSH1 0x2 PUSH0 DUP6 DUP2 MSTORE PUSH1 0x20 ADD SWAP1 DUP2 MSTORE PUSH1 0x20 ADD PUSH0 KECCAK256 SLOAD DUP2 MSTORE PUSH1 0x20 ADD SWAP1 DUP2 MSTORE PUSH1 0x20 ADD PUSH0 KECCAK256 SLOAD GT JUMPDEST ISZERO PUSH2 0x27E JUMPI PUSH2 0x26E DUP2 PUSH2 0x269 DUP4 PUSH2 0x63E JUMP JUMPDEST PUSH2 0x6AB JUMP JUMPDEST PUSH2 0x277 DUP2 PUSH2 0x63E JUMP JUMPDEST SWAP1 POP PUSH2 0x1FD JUMP JUMPDEST PUSH1 0x3 DUP1 SLOAD SWAP1 PUSH0 PUSH2 0x28D DUP4 PUSH2 0x7A9 JUMP JUMPDEST SWAP2 SWAP1 POP SSTORE POP POP POP POP JUMP JUMPDEST PUSH0 DUP1 PUSH0 PUSH1 0x3 SLOAD GT PUSH2 0x2DF JUMPI PUSH1 0x40 MLOAD PUSH3 0x461BCD PUSH1 0xE5 SHL DUP2 MSTORE PUSH1 0x20 PUSH1 0x4 DUP3 ADD MSTORE PUSH1 0xD PUSH1 0x24 DUP3 ADD MSTORE PUSH13 0x4865617020697320656D707479 PUSH1 0x98 SHL PUSH1 0x44 DUP3 ADD MSTORE PUSH1 0x64 ADD JUMPDEST PUSH1 0x40 MLOAD DUP1 SWAP2 SUB SWAP1 REVERT JUMPDEST POP POP PUSH32 0xAC33FF75C19E70FE83507DB0D683FD3465C996598DC972688B7ACE676C89077B SLOAD PUSH0 DUP2 DUP2 MSTORE PUSH1 0x4 PUSH1 0x20 MSTORE PUSH1 0x40 SWAP1 KECCAK256 SLOAD SWAP1 SWAP2 JUMP JUMPDEST PUSH2 0x31D PUSH2 0x612 JUMP JUMPDEST PUSH0 DUP3 DUP2 MSTORE PUSH1 0x5 PUSH1 0x20 SWAP1 DUP2 MSTORE PUSH1 0x40 DUP1 DUP4 KECCAK256 SLOAD PUSH1 0x4 SWAP1 SWAP3 MSTORE SWAP1 SWAP2 KECCAK256 DUP1 SLOAD SWAP1 DUP4 SWAP1 SSTORE DUP1 DUP4 GT ISZERO PUSH2 0x3C6 JUMPI JUMPDEST DUP2 ISZERO DUP1 ISZERO SWAP1 PUSH2 0x39F JUMPI POP PUSH1 0x4 PUSH0 PUSH1 0x2 PUSH0 PUSH2 0x35E DUP7 PUSH2 0x63E JUMP JUMPDEST DUP2 MSTORE PUSH1 0x20 ADD SWAP1 DUP2 MSTORE PUSH1 0x20 ADD PUSH0 KECCAK256 SLOAD DUP2 MSTORE PUSH1 0x20 ADD SWAP1 DUP2 MSTORE PUSH1 0x20 ADD PUSH0 KECCAK256 SLOAD PUSH1 0x4 PUSH0 PUSH1 0x2 PUSH0 DUP7 DUP2 MSTORE PUSH1 0x20 ADD SWAP1 DUP2 MSTORE PUSH1 0x20 ADD PUSH0 KECCAK256 SLOAD DUP2 MSTORE PUSH1 0x20 ADD SWAP1 DUP2 MSTORE PUSH1 0x20 ADD PUSH0 KECCAK256 SLOAD GT JUMPDEST ISZERO PUSH2 0x3C1 JUMPI PUSH2 0x3B1 DUP3 PUSH2 0x269 DUP5 PUSH2 0x63E JUMP JUMPDEST PUSH2 0x3BA DUP3 PUSH2 0x63E JUMP JUMPDEST SWAP2 POP PUSH2 0x345 JUMP JUMPDEST PUSH2 0x3D7 JUMP JUMPDEST DUP1 DUP4 LT ISZERO PUSH2 0x3D7 JUMPI PUSH2 0x3D7 DUP3 PUSH2 0x4DF JUMP JUMPDEST POP POP POP POP JUMP JUMPDEST PUSH2 0x3E5 PUSH2 0x612 JUMP JUMPDEST PUSH2 0x3EE PUSH0 PUSH2 0x6E2 JUMP JUMPDEST JUMP JUMPDEST PUSH0 DUP1 PUSH2 0x3FA PUSH2 0x612 JUMP JUMPDEST PUSH0 PUSH1 0x3 SLOAD GT PUSH2 0x43B JUMPI PUSH1 0x40 MLOAD PUSH3 0x461BCD PUSH1 0xE5 SHL DUP2 MSTORE PUSH1 0x20 PUSH1 0x4 DUP3 ADD MSTORE PUSH1 0xD PUSH1 0x24 DUP3 ADD MSTORE PUSH13 0x4865617020697320656D707479 PUSH1 0x98 SHL PUSH1 0x44 DUP3 ADD MSTORE PUSH1 0x64 ADD PUSH2 0x2D6 JUMP JUMPDEST PUSH0 DUP1 DUP1 MSTORE PUSH1 0x2 PUSH1 0x20 DUP2 SWAP1 MSTORE PUSH32 0xAC33FF75C19E70FE83507DB0D683FD3465C996598DC972688B7ACE676C89077B SLOAD PUSH1 0x3 DUP1 SLOAD SWAP2 SWAP4 SWAP2 DUP3 SWAP1 PUSH2 0x47A SWAP1 PUSH2 0x7C1 JUMP JUMPDEST SWAP2 DUP3 SWAP1 SSTORE POP DUP2 MSTORE PUSH1 0x20 DUP1 DUP3 ADD SWAP3 SWAP1 SWAP3 MSTORE PUSH1 0x40 ADD PUSH0 SWAP1 DUP2 KECCAK256 SLOAD DUP2 DUP1 MSTORE PUSH1 0x2 SWAP1 SWAP3 MSTORE PUSH32 0xAC33FF75C19E70FE83507DB0D683FD3465C996598DC972688B7ACE676C89077B SWAP2 SWAP1 SWAP2 SSTORE PUSH2 0x4C8 SWAP1 PUSH2 0x4DF JUMP JUMPDEST PUSH0 DUP2 DUP2 MSTORE PUSH1 0x4 PUSH1 0x20 MSTORE PUSH1 0x40 SWAP1 KECCAK256 SLOAD SWAP1 SWAP3 POP SWAP1 POP SWAP1 SWAP2 JUMP JUMPDEST PUSH2 0x4E7 PUSH2 0x612 JUMP JUMPDEST PUSH0 PUSH2 0x4F3 DUP3 PUSH1 0x2 PUSH2 0x7D6 JUMP JUMPDEST PUSH2 0x4FE SWAP1 PUSH1 0x1 PUSH2 0x7ED JUMP JUMPDEST SWAP1 POP PUSH0 PUSH2 0x50C DUP4 PUSH1 0x2 PUSH2 0x7D6 JUMP JUMPDEST PUSH2 0x517 SWAP1 PUSH1 0x2 PUSH2 0x7ED JUMP JUMPDEST PUSH0 DUP5 DUP2 MSTORE PUSH1 0x2 PUSH1 0x20 DUP2 DUP2 MSTORE PUSH1 0x40 DUP1 DUP5 KECCAK256 SLOAD DUP5 MSTORE PUSH1 0x4 DUP1 DUP4 MSTORE DUP2 DUP6 KECCAK256 SLOAD DUP9 DUP7 MSTORE DUP5 DUP5 MSTORE DUP3 DUP7 KECCAK256 SLOAD DUP7 MSTORE DUP2 DUP5 MSTORE DUP3 DUP7 KECCAK256 SLOAD DUP8 DUP8 MSTORE DUP6 DUP6 MSTORE DUP4 DUP8 KECCAK256 SLOAD DUP8 MSTORE SWAP2 SWAP1 SWAP4 MSTORE SWAP4 KECCAK256 SLOAD PUSH1 0x3 SLOAD SWAP5 SWAP6 POP SWAP1 SWAP4 SWAP1 SWAP2 PUSH2 0x56C SWAP2 PUSH2 0x800 JUMP JUMPDEST DUP7 LT ISZERO DUP1 ISZERO PUSH2 0x57D JUMPI POP PUSH1 0x3 SLOAD DUP7 GT ISZERO JUMPDEST ISZERO PUSH2 0x58A JUMPI POP POP POP POP POP POP JUMP JUMPDEST DUP2 DUP4 LT DUP1 PUSH2 0x597 JUMPI POP DUP1 DUP4 LT JUMPDEST ISZERO PUSH2 0x5CF JUMPI DUP1 DUP3 GT ISZERO PUSH2 0x5BC JUMPI PUSH2 0x5AE DUP7 DUP7 PUSH2 0x6AB JUMP JUMPDEST PUSH2 0x5B7 DUP6 PUSH2 0x4DF JUMP JUMPDEST PUSH2 0x5CF JUMP JUMPDEST PUSH2 0x5C6 DUP7 DUP6 PUSH2 0x6AB JUMP JUMPDEST PUSH2 0x5CF DUP5 PUSH2 0x4DF JUMP JUMPDEST POP POP POP POP POP JUMPDEST POP JUMP JUMPDEST PUSH2 0x5E0 PUSH2 0x612 JUMP JUMPDEST PUSH1 0x1 PUSH1 0x1 PUSH1 0xA0 SHL SUB DUP2 AND PUSH2 0x609 JUMPI PUSH1 0x40 MLOAD PUSH4 0x1E4FBDF7 PUSH1 0xE0 SHL DUP2 MSTORE PUSH0 PUSH1 0x4 DUP3 ADD MSTORE PUSH1 0x24 ADD PUSH2 0x2D6 JUMP JUMPDEST PUSH2 0x5D5 DUP2 PUSH2 0x6E2 JUMP JUMPDEST PUSH0 SLOAD PUSH1 0x1 PUSH1 0x1 PUSH1 0xA0 SHL SUB AND CALLER EQ PUSH2 0x3EE JUMPI PUSH1 0x40 MLOAD PUSH4 0x118CDAA7 PUSH1 0xE0 SHL DUP2 MSTORE CALLER PUSH1 0x4 DUP3 ADD MSTORE PUSH1 0x24 ADD PUSH2 0x2D6 JUMP JUMPDEST PUSH0 DUP2 PUSH0 SUB PUSH2 0x68E JUMPI PUSH1 0x40 MLOAD PUSH3 0x461BCD PUSH1 0xE5 SHL DUP2 MSTORE PUSH1 0x20 PUSH1 0x4 DUP3 ADD MSTORE PUSH1 0x1B PUSH1 0x24 DUP3 ADD MSTORE PUSH32 0x506F736974696F6E2073686F756C64206E6F74206265207A65726F0000000000 PUSH1 0x44 DUP3 ADD MSTORE PUSH1 0x64 ADD PUSH2 0x2D6 JUMP JUMPDEST PUSH1 0x2 PUSH2 0x69B PUSH1 0x1 DUP5 PUSH2 0x81F JUMP JUMPDEST PUSH2 0x6A5 SWAP2 SWAP1 PUSH2 0x800 JUMP JUMPDEST SWAP3 SWAP2 POP POP JUMP JUMPDEST PUSH0 DUP2 DUP2 MSTORE PUSH1 0x2 PUSH1 0x20 SWAP1 DUP2 MSTORE PUSH1 0x40 DUP1 DUP4 KECCAK256 DUP1 SLOAD DUP7 DUP6 MSTORE DUP3 DUP6 KECCAK256 DUP1 SLOAD DUP4 SSTORE DUP2 SWAP1 SSTORE DUP5 MSTORE PUSH1 0x5 SWAP1 SWAP3 MSTORE DUP1 DUP4 KECCAK256 SWAP2 SLOAD DUP4 MSTORE SWAP1 SWAP2 KECCAK256 SWAP2 SWAP1 SWAP2 SSTORE SSTORE JUMP JUMPDEST PUSH0 DUP1 SLOAD PUSH1 0x1 PUSH1 0x1 PUSH1 0xA0 SHL SUB DUP4 DUP2 AND PUSH1 0x1 PUSH1 0x1 PUSH1 0xA0 SHL SUB NOT DUP4 AND DUP2 OR DUP5 SSTORE PUSH1 0x40 MLOAD SWAP2 SWAP1 SWAP3 AND SWAP3 DUP4 SWAP2 PUSH32 0x8BE0079C531659141344CD1FD0A4F28419497F9722A3DAAFE3B4186F6B6457E0 SWAP2 SWAP1 LOG3 POP POP JUMP JUMPDEST PUSH0 PUSH1 0x20 DUP3 DUP5 SUB SLT ISZERO PUSH2 0x741 JUMPI PUSH0 DUP1 REVERT JUMPDEST POP CALLDATALOAD SWAP2 SWAP1 POP JUMP JUMPDEST PUSH0 DUP1 PUSH1 0x40 DUP4 DUP6 SUB SLT ISZERO PUSH2 0x759 JUMPI PUSH0 DUP1 REVERT JUMPDEST POP POP DUP1 CALLDATALOAD SWAP3 PUSH1 0x20 SWAP1 SWAP2 ADD CALLDATALOAD SWAP2 POP JUMP JUMPDEST PUSH0 PUSH1 0x20 DUP3 DUP5 SUB SLT ISZERO PUSH2 0x778 JUMPI PUSH0 DUP1 REVERT JUMPDEST DUP2 CALLDATALOAD PUSH1 0x1 PUSH1 0x1 PUSH1 0xA0 SHL SUB DUP2 AND DUP2 EQ PUSH2 0x78E JUMPI PUSH0 DUP1 REVERT JUMPDEST SWAP4 SWAP3 POP POP POP JUMP JUMPDEST PUSH4 0x4E487B71 PUSH1 0xE0 SHL PUSH0 MSTORE PUSH1 0x11 PUSH1 0x4 MSTORE PUSH1 0x24 PUSH0 REVERT JUMPDEST PUSH0 PUSH1 0x1 DUP3 ADD PUSH2 0x7BA JUMPI PUSH2 0x7BA PUSH2 0x795 JUMP JUMPDEST POP PUSH1 0x1 ADD SWAP1 JUMP JUMPDEST PUSH0 DUP2 PUSH2 0x7CF JUMPI PUSH2 0x7CF PUSH2 0x795 JUMP JUMPDEST POP PUSH0 NOT ADD SWAP1 JUMP JUMPDEST DUP1 DUP3 MUL DUP2 ISZERO DUP3 DUP3 DIV DUP5 EQ OR PUSH2 0x6A5 JUMPI PUSH2 0x6A5 PUSH2 0x795 JUMP JUMPDEST DUP1 DUP3 ADD DUP1 DUP3 GT ISZERO PUSH2 0x6A5 JUMPI PUSH2 0x6A5 PUSH2 0x795 JUMP JUMPDEST PUSH0 DUP3 PUSH2 0x81A JUMPI PUSH4 0x4E487B71 PUSH1 0xE0 SHL PUSH0 MSTORE PUSH1 0x12 PUSH1 0x4 MSTORE PUSH1 0x24 PUSH0 REVERT JUMPDEST POP DIV SWAP1 JUMP JUMPDEST DUP2 DUP2 SUB DUP2 DUP2 GT ISZERO PUSH2 0x6A5 JUMPI PUSH2 0x6A5 PUSH2 0x795 JUMP INVALID LOG2 PUSH5 0x6970667358 0x22 SLT KECCAK256 CALLCODE BALANCE 0xAC 0xAB DUP2 CODESIZE PUSH15 0xCD17BB14CDBD61B859DA89E32D8874 MSTORE8 CODESIZE SSTORE STOP 0x27 0xB6 0xC1 0x23 MSTORE JUMP PUSH5 0x736F6C6343 STOP ADDMOD AND STOP CALLER "
		},
		"gasEstimates": {
			"creation": {
				"codeDepositCost": "2048600",
				"executionCost": "infinite",
				"totalCost": "infinite"
			},
			"external": {
				"batchVote(uint256[])": "infinite",
				"createPiece((string,string,uint8,string,string,string),(address,uint256)[])": "infinite",
				"dropTopVotedPiece()": "infinite",
				"getPieceById(uint256)": "infinite",
				"getTopVotedPiece()": "infinite",
				"getVote(uint256,address)": "7189",
				"getVoterWeight(address)": "infinite",
				"hasVoted(uint256,address)": "2760",
				"maxHeap()": "2371",
				"owner()": "2407",
				"pieceCount()": "2317",
				"pieces(uint256)": "infinite",
				"renounceOwnership()": "infinite",
				"topVotedPieceId()": "infinite",
				"totalVoteWeights(uint256)": "2503",
				"transferOwnership(address)": "28417",
				"vote(uint256)": "infinite",
				"votes(uint256,address)": "4912",
				"votingToken()": "2348"
			},
			"internal": {
				"_vote(uint256,address,uint256)": "infinite",
				"getTotalBpsFromCreators(struct ICultureIndex.CreatorBps memory[] memory)": "infinite",
				"validateMediaType(struct ICultureIndex.ArtPieceMetadata memory)": "infinite"
			}
		},
		"methodIdentifiers": {
			"batchVote(uint256[])": "65422a55",
			"createPiece((string,string,uint8,string,string,string),(address,uint256)[])": "d75d43c9",
			"dropTopVotedPiece()": "bad22aff",
			"getPieceById(uint256)": "deb50c35",
			"getTopVotedPiece()": "f8a8be40",
			"getVote(uint256,address)": "bc3f931f",
			"getVoterWeight(address)": "d85c91ae",
			"hasVoted(uint256,address)": "43859632",
			"maxHeap()": "04432c8a",
			"owner()": "8da5cb5b",
			"pieceCount()": "4a5c4dfe",
			"pieces(uint256)": "8f64be30",
			"renounceOwnership()": "715018a6",
			"topVotedPieceId()": "b7b61494",
			"totalVoteWeights(uint256)": "04f50270",
			"transferOwnership(address)": "f2fde38b",
			"vote(uint256)": "0121b93f",
			"votes(uint256,address)": "d23254b4",
			"votingToken()": "b0340123"
		}
	},
	"abi": [
		{
			"inputs": [
				{
					"internalType": "address",
					"name": "_votingToken",
					"type": "address"
				},
				{
					"internalType": "address",
					"name": "_initialOwner",
					"type": "address"
				}
			],
			"stateMutability": "nonpayable",
			"type": "constructor"
		},
		{
			"inputs": [
				{
					"internalType": "address",
					"name": "owner",
					"type": "address"
				}
			],
			"name": "OwnableInvalidOwner",
			"type": "error"
		},
		{
			"inputs": [
				{
					"internalType": "address",
					"name": "account",
					"type": "address"
				}
			],
			"name": "OwnableUnauthorizedAccount",
			"type": "error"
		},
		{
			"inputs": [],
			"name": "ReentrancyGuardReentrantCall",
			"type": "error"
		},
		{
			"anonymous": false,
			"inputs": [
				{
					"indexed": true,
					"internalType": "address",
					"name": "previousOwner",
					"type": "address"
				},
				{
					"indexed": true,
					"internalType": "address",
					"name": "newOwner",
					"type": "address"
				}
			],
			"name": "OwnershipTransferred",
			"type": "event"
		},
		{
			"anonymous": false,
			"inputs": [
				{
					"indexed": true,
					"internalType": "uint256",
					"name": "pieceId",
					"type": "uint256"
				},
				{
					"indexed": true,
					"internalType": "address",
					"name": "dropper",
					"type": "address"
				},
				{
					"indexed": false,
					"internalType": "string",
					"name": "name",
					"type": "string"
				},
				{
					"indexed": false,
					"internalType": "string",
					"name": "description",
					"type": "string"
				},
				{
					"indexed": false,
					"internalType": "string",
					"name": "image",
					"type": "string"
				},
				{
					"indexed": false,
					"internalType": "string",
					"name": "animationUrl",
					"type": "string"
				},
				{
					"indexed": false,
					"internalType": "string",
					"name": "text",
					"type": "string"
				},
				{
					"indexed": false,
					"internalType": "uint8",
					"name": "mediaType",
					"type": "uint8"
				}
			],
			"name": "PieceCreated",
			"type": "event"
		},
		{
			"anonymous": false,
			"inputs": [
				{
					"indexed": true,
					"internalType": "uint256",
					"name": "pieceId",
					"type": "uint256"
				},
				{
					"indexed": true,
					"internalType": "address",
					"name": "creatorAddress",
					"type": "address"
				},
				{
					"indexed": true,
					"internalType": "address",
					"name": "dropper",
					"type": "address"
				},
				{
					"indexed": false,
					"internalType": "uint256",
					"name": "bps",
					"type": "uint256"
				}
			],
			"name": "PieceCreatorAdded",
			"type": "event"
		},
		{
			"anonymous": false,
			"inputs": [
				{
					"indexed": true,
					"internalType": "uint256",
					"name": "pieceId",
					"type": "uint256"
				},
				{
					"indexed": true,
					"internalType": "address",
					"name": "remover",
					"type": "address"
				}
			],
			"name": "PieceDropped",
			"type": "event"
		},
		{
			"anonymous": false,
			"inputs": [
				{
					"indexed": true,
					"internalType": "uint256",
					"name": "pieceId",
					"type": "uint256"
				},
				{
					"indexed": true,
					"internalType": "address",
					"name": "creatorAddress",
					"type": "address"
				},
				{
					"indexed": true,
					"internalType": "address",
					"name": "dropper",
					"type": "address"
				},
				{
					"indexed": false,
					"internalType": "uint256",
					"name": "bps",
					"type": "uint256"
				}
			],
			"name": "PieceDroppedCreator",
			"type": "event"
		},
		{
			"anonymous": false,
			"inputs": [
				{
					"indexed": true,
					"internalType": "uint256",
					"name": "pieceId",
					"type": "uint256"
				},
				{
					"indexed": true,
					"internalType": "address",
					"name": "voter",
					"type": "address"
				},
				{
					"indexed": false,
					"internalType": "uint256",
					"name": "weight",
					"type": "uint256"
				},
				{
					"indexed": false,
					"internalType": "uint256",
					"name": "totalWeight",
					"type": "uint256"
				}
			],
			"name": "VoteCast",
			"type": "event"
		},
		{
			"inputs": [
				{
					"internalType": "uint256[]",
					"name": "pieceIds",
					"type": "uint256[]"
				}
			],
			"name": "batchVote",
			"outputs": [],
			"stateMutability": "nonpayable",
			"type": "function"
		},
		{
			"inputs": [
				{
					"components": [
						{
							"internalType": "string",
							"name": "name",
							"type": "string"
						},
						{
							"internalType": "string",
							"name": "description",
							"type": "string"
						},
						{
							"internalType": "enum ICultureIndex.MediaType",
							"name": "mediaType",
							"type": "uint8"
						},
						{
							"internalType": "string",
							"name": "image",
							"type": "string"
						},
						{
							"internalType": "string",
							"name": "text",
							"type": "string"
						},
						{
							"internalType": "string",
							"name": "animationUrl",
							"type": "string"
						}
					],
					"internalType": "struct ICultureIndex.ArtPieceMetadata",
					"name": "metadata",
					"type": "tuple"
				},
				{
					"components": [
						{
							"internalType": "address",
							"name": "creator",
							"type": "address"
						},
						{
							"internalType": "uint256",
							"name": "bps",
							"type": "uint256"
						}
					],
					"internalType": "struct ICultureIndex.CreatorBps[]",
					"name": "creatorArray",
					"type": "tuple[]"
				}
			],
			"name": "createPiece",
			"outputs": [
				{
					"internalType": "uint256",
					"name": "",
					"type": "uint256"
				}
			],
			"stateMutability": "nonpayable",
			"type": "function"
		},
		{
			"inputs": [],
			"name": "dropTopVotedPiece",
			"outputs": [
				{
					"components": [
						{
							"internalType": "uint256",
							"name": "pieceId",
							"type": "uint256"
						},
						{
							"components": [
								{
									"internalType": "string",
									"name": "name",
									"type": "string"
								},
								{
									"internalType": "string",
									"name": "description",
									"type": "string"
								},
								{
									"internalType": "enum ICultureIndex.MediaType",
									"name": "mediaType",
									"type": "uint8"
								},
								{
									"internalType": "string",
									"name": "image",
									"type": "string"
								},
								{
									"internalType": "string",
									"name": "text",
									"type": "string"
								},
								{
									"internalType": "string",
									"name": "animationUrl",
									"type": "string"
								}
							],
							"internalType": "struct ICultureIndex.ArtPieceMetadata",
							"name": "metadata",
							"type": "tuple"
						},
						{
							"components": [
								{
									"internalType": "address",
									"name": "creator",
									"type": "address"
								},
								{
									"internalType": "uint256",
									"name": "bps",
									"type": "uint256"
								}
							],
							"internalType": "struct ICultureIndex.CreatorBps[]",
							"name": "creators",
							"type": "tuple[]"
						},
						{
							"internalType": "address",
							"name": "dropper",
							"type": "address"
						},
						{
							"internalType": "bool",
							"name": "isDropped",
							"type": "bool"
						}
					],
					"internalType": "struct ICultureIndex.ArtPiece",
					"name": "",
					"type": "tuple"
				}
			],
			"stateMutability": "nonpayable",
			"type": "function"
		},
		{
			"inputs": [
				{
					"internalType": "uint256",
					"name": "pieceId",
					"type": "uint256"
				}
			],
			"name": "getPieceById",
			"outputs": [
				{
					"components": [
						{
							"internalType": "uint256",
							"name": "pieceId",
							"type": "uint256"
						},
						{
							"components": [
								{
									"internalType": "string",
									"name": "name",
									"type": "string"
								},
								{
									"internalType": "string",
									"name": "description",
									"type": "string"
								},
								{
									"internalType": "enum ICultureIndex.MediaType",
									"name": "mediaType",
									"type": "uint8"
								},
								{
									"internalType": "string",
									"name": "image",
									"type": "string"
								},
								{
									"internalType": "string",
									"name": "text",
									"type": "string"
								},
								{
									"internalType": "string",
									"name": "animationUrl",
									"type": "string"
								}
							],
							"internalType": "struct ICultureIndex.ArtPieceMetadata",
							"name": "metadata",
							"type": "tuple"
						},
						{
							"components": [
								{
									"internalType": "address",
									"name": "creator",
									"type": "address"
								},
								{
									"internalType": "uint256",
									"name": "bps",
									"type": "uint256"
								}
							],
							"internalType": "struct ICultureIndex.CreatorBps[]",
							"name": "creators",
							"type": "tuple[]"
						},
						{
							"internalType": "address",
							"name": "dropper",
							"type": "address"
						},
						{
							"internalType": "bool",
							"name": "isDropped",
							"type": "bool"
						}
					],
					"internalType": "struct ICultureIndex.ArtPiece",
					"name": "",
					"type": "tuple"
				}
			],
			"stateMutability": "view",
			"type": "function"
		},
		{
			"inputs": [],
			"name": "getTopVotedPiece",
			"outputs": [
				{
					"components": [
						{
							"internalType": "uint256",
							"name": "pieceId",
							"type": "uint256"
						},
						{
							"components": [
								{
									"internalType": "string",
									"name": "name",
									"type": "string"
								},
								{
									"internalType": "string",
									"name": "description",
									"type": "string"
								},
								{
									"internalType": "enum ICultureIndex.MediaType",
									"name": "mediaType",
									"type": "uint8"
								},
								{
									"internalType": "string",
									"name": "image",
									"type": "string"
								},
								{
									"internalType": "string",
									"name": "text",
									"type": "string"
								},
								{
									"internalType": "string",
									"name": "animationUrl",
									"type": "string"
								}
							],
							"internalType": "struct ICultureIndex.ArtPieceMetadata",
							"name": "metadata",
							"type": "tuple"
						},
						{
							"components": [
								{
									"internalType": "address",
									"name": "creator",
									"type": "address"
								},
								{
									"internalType": "uint256",
									"name": "bps",
									"type": "uint256"
								}
							],
							"internalType": "struct ICultureIndex.CreatorBps[]",
							"name": "creators",
							"type": "tuple[]"
						},
						{
							"internalType": "address",
							"name": "dropper",
							"type": "address"
						},
						{
							"internalType": "bool",
							"name": "isDropped",
							"type": "bool"
						}
					],
					"internalType": "struct ICultureIndex.ArtPiece",
					"name": "",
					"type": "tuple"
				}
			],
			"stateMutability": "view",
			"type": "function"
		},
		{
			"inputs": [
				{
					"internalType": "uint256",
					"name": "pieceId",
					"type": "uint256"
				},
				{
					"internalType": "address",
					"name": "voter",
					"type": "address"
				}
			],
			"name": "getVote",
			"outputs": [
				{
					"components": [
						{
							"internalType": "address",
							"name": "voterAddress",
							"type": "address"
						},
						{
							"internalType": "uint256",
							"name": "weight",
							"type": "uint256"
						}
					],
					"internalType": "struct ICultureIndex.Vote",
					"name": "",
					"type": "tuple"
				}
			],
			"stateMutability": "view",
			"type": "function"
		},
		{
			"inputs": [
				{
					"internalType": "address",
					"name": "voter",
					"type": "address"
				}
			],
			"name": "getVoterWeight",
			"outputs": [
				{
					"internalType": "uint256",
					"name": "",
					"type": "uint256"
				}
			],
			"stateMutability": "view",
			"type": "function"
		},
		{
			"inputs": [
				{
					"internalType": "uint256",
					"name": "pieceId",
					"type": "uint256"
				},
				{
					"internalType": "address",
					"name": "voter",
					"type": "address"
				}
			],
			"name": "hasVoted",
			"outputs": [
				{
					"internalType": "bool",
					"name": "",
					"type": "bool"
				}
			],
			"stateMutability": "view",
			"type": "function"
		},
		{
			"inputs": [],
			"name": "maxHeap",
			"outputs": [
				{
					"internalType": "contract MaxHeap",
					"name": "",
					"type": "address"
				}
			],
			"stateMutability": "view",
			"type": "function"
		},
		{
			"inputs": [],
			"name": "owner",
			"outputs": [
				{
					"internalType": "address",
					"name": "",
					"type": "address"
				}
			],
			"stateMutability": "view",
			"type": "function"
		},
		{
			"inputs": [],
			"name": "pieceCount",
			"outputs": [
				{
					"internalType": "uint256",
					"name": "",
					"type": "uint256"
				}
			],
			"stateMutability": "view",
			"type": "function"
		},
		{
			"inputs": [
				{
					"internalType": "uint256",
					"name": "",
					"type": "uint256"
				}
			],
			"name": "pieces",
			"outputs": [
				{
					"internalType": "uint256",
					"name": "pieceId",
					"type": "uint256"
				},
				{
					"components": [
						{
							"internalType": "string",
							"name": "name",
							"type": "string"
						},
						{
							"internalType": "string",
							"name": "description",
							"type": "string"
						},
						{
							"internalType": "enum ICultureIndex.MediaType",
							"name": "mediaType",
							"type": "uint8"
						},
						{
							"internalType": "string",
							"name": "image",
							"type": "string"
						},
						{
							"internalType": "string",
							"name": "text",
							"type": "string"
						},
						{
							"internalType": "string",
							"name": "animationUrl",
							"type": "string"
						}
					],
					"internalType": "struct ICultureIndex.ArtPieceMetadata",
					"name": "metadata",
					"type": "tuple"
				},
				{
					"internalType": "address",
					"name": "dropper",
					"type": "address"
				},
				{
					"internalType": "bool",
					"name": "isDropped",
					"type": "bool"
				}
			],
			"stateMutability": "view",
			"type": "function"
		},
		{
			"inputs": [],
			"name": "renounceOwnership",
			"outputs": [],
			"stateMutability": "nonpayable",
			"type": "function"
		},
		{
			"inputs": [],
			"name": "topVotedPieceId",
			"outputs": [
				{
					"internalType": "uint256",
					"name": "",
					"type": "uint256"
				}
			],
			"stateMutability": "view",
			"type": "function"
		},
		{
			"inputs": [
				{
					"internalType": "uint256",
					"name": "",
					"type": "uint256"
				}
			],
			"name": "totalVoteWeights",
			"outputs": [
				{
					"internalType": "uint256",
					"name": "",
					"type": "uint256"
				}
			],
			"stateMutability": "view",
			"type": "function"
		},
		{
			"inputs": [
				{
					"internalType": "address",
					"name": "newOwner",
					"type": "address"
				}
			],
			"name": "transferOwnership",
			"outputs": [],
			"stateMutability": "nonpayable",
			"type": "function"
		},
		{
			"inputs": [
				{
					"internalType": "uint256",
					"name": "pieceId",
					"type": "uint256"
				}
			],
			"name": "vote",
			"outputs": [],
			"stateMutability": "nonpayable",
			"type": "function"
		},
		{
			"inputs": [
				{
					"internalType": "uint256",
					"name": "",
					"type": "uint256"
				},
				{
					"internalType": "address",
					"name": "",
					"type": "address"
				}
			],
			"name": "votes",
			"outputs": [
				{
					"internalType": "address",
					"name": "voterAddress",
					"type": "address"
				},
				{
					"internalType": "uint256",
					"name": "weight",
					"type": "uint256"
				}
			],
			"stateMutability": "view",
			"type": "function"
		},
		{
			"inputs": [],
			"name": "votingToken",
			"outputs": [
				{
					"internalType": "contract IERC20",
					"name": "",
					"type": "address"
				}
			],
			"stateMutability": "view",
			"type": "function"
		}
	]
}