{
	"data": {
		"bytecode": {
			"linkReferences": {},
			"object": "6101006040524260e052348015610014575f80fd5b5060405161107d38038061107d83398101604081905261003391610330565b6080839052828282828261005761005282670de0b6b3a764000061037f565b6100f3565b60a08190525f136100af5760405162461bcd60e51b815260206004820152601b60248201527f4e4f4e5f4e454741544956455f44454341595f434f4e5354414e54000000000060448201526064015b60405180910390fd5b505060c052505060015f81905580546001600160a01b039586166001600160a01b0319918216179091556002805496909516951694909417909255506103b1915050565b5f80821361012f5760405162461bcd60e51b815260206004820152600960248201526815539111519253915160ba1b60448201526064016100a6565b5060606001600160801b03821160071b82811c6001600160401b031060061b1782811c63ffffffff1060051b1782811c61ffff1060041b1782811c60ff10600390811b90911783811c600f1060021b1783811c909110600190811b90911783811c90911017609f81810383019390931b90921c6c465772b2bbbb5f824b15207a3081018102821d6d0388eaa27412d5aca026815d636e018102821d6d0df99ac502031bf953eff472fdcc018102821d6d13cdffb29d51d99322bdff5f2211018102821d6d0a0f742023def783a307a986912e018102821d6d01920d8043ca89b5239253284e42018102821d6c0b7a86d7375468fac667a0a527016c29508e458543d8aa4df2abee7882018202831d6d0139601a2efabe717e604cbb4894018202831d6d02247f7a7b6594320649aa03aba1018202831d6c8c3f38e95a6b1ff2ab1c3b343619018202831d6d02384773bdf1ac5676facced60901901820290921d6cb9a025d814b29c212b8b1a07cd19010260016c0504a838426634cdd8738f543560611b03190105711340daa0d5f769dba1915cef59f0815a550602605f19919091017d0267a36c0c95b3975ab3ee5b203a7614a3f75373f047d803ae7b6687f2b302017d57115e47018c7177eebf7cd370a3356a1b7863008a5ae8028c72b88642840160ae1d90565b6001600160a01b038116811461032d575f80fd5b50565b5f805f805f60a08688031215610344575f80fd5b855161034f81610319565b602087015190955061036081610319565b6040870151606088015160809098015196999198509695945092505050565b8181035f8312801583831316838312821617156103aa57634e487b7160e01b5f52601160045260245ffd5b5092915050565b60805160a05160c05160e051610c8b6103f25f395f818161013e015261044201525f61030101525f6106c401525f81816101ce015261069d0152610c8b5ff3fe6080604052600436106100a5575f3560e01c8063ae9cdbe311610062578063ae9cdbe31461017f578063c457fb371461019e578063dc38679c146101bd578063dec86df1146101f0578063f466d4ab14610203578063fc0c546a14610222575f80fd5b806318160ddd146100a9578063244ec3c8146100d05780636d9d33b7146100ef57806370a082311461010e57806378e979251461012d5780637ba7614f14610160575b5f80fd5b3480156100b4575f80fd5b506100bd610259565b6040519081526020015b60405180910390f35b3480156100db575f80fd5b506100bd6100ea36600461098d565b6102c9565b3480156100fa575f80fd5b506100bd6101093660046109ad565b6102fe565b348015610119575f80fd5b506100bd6101283660046109df565b610331565b348015610138575f80fd5b506100bd7f000000000000000000000000000000000000000000000000000000000000000081565b34801561016b575f80fd5b506100bd61017a3660046109ad565b61039d565b34801561018a575f80fd5b506100bd61019936600461098d565b610414565b3480156101a9575f80fd5b506100bd6101b83660046109ad565b610435565b3480156101c8575f80fd5b506100bd7f000000000000000000000000000000000000000000000000000000000000000081565b6100bd6101fe366004610acc565b610489565b34801561020e575f80fd5b506100bd61021d36600461098d565b610696565b34801561022d575f80fd5b50600254610241906001600160a01b031681565b6040516001600160a01b0390911681526020016100c7565b600254604080516318160ddd60e01b815290515f926001600160a01b0316916318160ddd9160048083019260209291908290030181865afa1580156102a0573d5f803e3d5ffd5b505050506040513d601f19601f820116820180604052508101906102c49190610b8e565b905090565b5f806102d58484610414565b90505f6102e56101b88386610bb9565b90505f6102f28287610bcc565b93505050505b92915050565b5f7f0000000000000000000000000000000000000000000000000000000000000000670de0b6b3a76400008302056102f8565b6002546040516370a0823160e01b81526001600160a01b0383811660048301525f9216906370a0823190602401602060405180830381865afa158015610379573d5f803e3d5ffd5b505050506040513d601f19601f820116820180604052508101906102f89190610b8e565b5f818166038d7ea4c680005b821561040c57808310156103e2576103ce83836103c4610259565b6100ea9190610bb9565b6103d89083610bb9565b91505f92506103a9565b6103ef81836103c4610259565b6103f99083610bb9565b91506104058184610beb565b92506103a9565b509392505050565b5f8061041f83610435565b90505f61042c8286610bcc565b95945050505050565b5f8061048261047c6104677f000000000000000000000000000000000000000000000000000000000000000042610beb565b62015180670de0b6b3a7640000919091020490565b84610696565b9392505050565b5f610492610729565b82518451146104e85760405162461bcd60e51b815260206004820152601860248201527f506172616c6c656c20617272617973207265717569726564000000000000000060448201526064015b60405180910390fd5b5f6104f23461039d565b600154604080515f80825260208201928390529394506001600160a01b039092169134916105209190610bfe565b5f6040518083038185875af1925050503d805f811461055a576040519150601f19603f3d011682016040523d82523d5f602084013e61055f565b606091505b50509050806105a35760405162461bcd60e51b815260206004820152601060248201526f2a3930b739b332b9103330b4b632b21760811b60448201526064016104df565b5f805b8751811015610637575f6127108883815181106105c5576105c5610c2a565b6020026020010151866105d89190610c3e565b6105e29190610bcc565b90506106078983815181106105f9576105f9610c2a565b602002602001015182610751565b87828151811061061957610619610c2a565b60200260200101518361062c9190610bb9565b9250506001016105a6565b5080612710146106895760405162461bcd60e51b815260206004820152601960248201527f627073206d7573742061646420757020746f2031305f3030300000000000000060448201526064016104df565b505060015f559050610482565b5f806107147f000000000000000000000000000000000000000000000000000000000000000061070f61070a7f00000000000000000000000000000000000000000000000000000000000000006106f9670de0b6b3a764000060018a01026102fe565b8903670de0b6b3a764000091020590565b6107b6565b61095c565b905060018082101561040c5791506102f89050565b60025f540361074b57604051633ee5aeb560e01b815260040160405180910390fd5b60025f55565b6002546040516340c10f1960e01b81526001600160a01b03848116600483015260248201849052909116906340c10f19906044015f604051808303815f87803b15801561079c575f80fd5b505af11580156107ae573d5f803e3d5ffd5b505050505050565b5f680248ce36a70cb26b3e1982136107cf57505f919050565b680755bf798b4a1bf1e582126108165760405162461bcd60e51b815260206004820152600c60248201526b4558505f4f564552464c4f5760a01b60448201526064016104df565b6503782dace9d9604e83901b0591505f60606bb17217f7d1cf79abc9e3b39884821b056001605f1b01901d6bb17217f7d1cf79abc9e3b39881029093036c240c330e9fb2d9cbaf0fd5aafb1981018102606090811d6d0277594991cfc85f6e2461837cd9018202811d6d1a521255e34f6a5061b25ef1c9c319018202811d6db1bbb201f443cf962f1a1d3db4a5018202811d6e02c72388d9f74f51a9331fed693f1419018202811d6e05180bb14799ab47a8a8cb2a527d57016d02d16720577bd19bf614176fe9ea6c10fe68e7fd37d0007b713f765084018402831d9081019084016d01d3967ed30fc4f89c02bab5708119010290911d6e0587f503bb6ea29d25fcb740196450019091026d360d7aeea093263ecc6e0ecb291760621b010574029d9dc38563c32e5c2f6dc192ee70ef65f9978af30260c3939093039290921c92915050565b81810282158382058314175f198410600160ff1b8413171661097c575f80fd5b670de0b6b3a7640000900592915050565b5f806040838503121561099e575f80fd5b50508035926020909101359150565b5f602082840312156109bd575f80fd5b5035919050565b80356001600160a01b03811681146109da575f80fd5b919050565b5f602082840312156109ef575f80fd5b610482826109c4565b634e487b7160e01b5f52604160045260245ffd5b604051601f8201601f1916810167ffffffffffffffff81118282101715610a3557610a356109f8565b604052919050565b5f67ffffffffffffffff821115610a5657610a566109f8565b5060051b60200190565b5f82601f830112610a6f575f80fd5b81356020610a84610a7f83610a3d565b610a0c565b8083825260208201915060208460051b870101935086841115610aa5575f80fd5b602086015b84811015610ac15780358352918301918301610aaa565b509695505050505050565b5f805f60608486031215610ade575f80fd5b833567ffffffffffffffff80821115610af5575f80fd5b818601915086601f830112610b08575f80fd5b81356020610b18610a7f83610a3d565b82815260059290921b8401810191818101908a841115610b36575f80fd5b948201945b83861015610b5b57610b4c866109c4565b82529482019490820190610b3b565b97505087013592505080821115610b70575f80fd5b50610b7d86828701610a60565b925050604084013590509250925092565b5f60208284031215610b9e575f80fd5b5051919050565b634e487b7160e01b5f52601160045260245ffd5b808201808211156102f8576102f8610ba5565b5f82610be657634e487b7160e01b5f52601260045260245ffd5b500490565b818103818111156102f8576102f8610ba5565b5f82515f5b81811015610c1d5760208186018101518583015201610c03565b505f920191825250919050565b634e487b7160e01b5f52603260045260245ffd5b80820281158282048414176102f8576102f8610ba556fea2646970667358221220e6e2f61604cd4d160ab899967c69c423acfe0c1139a27b238eb96d7f1a8c000864736f6c63430008160033",
			"opcodes": "PUSH2 0x100 PUSH1 0x40 MSTORE TIMESTAMP PUSH1 0xE0 MSTORE CALLVALUE DUP1 ISZERO PUSH2 0x14 JUMPI PUSH0 DUP1 REVERT JUMPDEST POP PUSH1 0x40 MLOAD PUSH2 0x107D CODESIZE SUB DUP1 PUSH2 0x107D DUP4 CODECOPY DUP2 ADD PUSH1 0x40 DUP2 SWAP1 MSTORE PUSH2 0x33 SWAP2 PUSH2 0x330 JUMP JUMPDEST PUSH1 0x80 DUP4 SWAP1 MSTORE DUP3 DUP3 DUP3 DUP3 DUP3 PUSH2 0x57 PUSH2 0x52 DUP3 PUSH8 0xDE0B6B3A7640000 PUSH2 0x37F JUMP JUMPDEST PUSH2 0xF3 JUMP JUMPDEST PUSH1 0xA0 DUP2 SWAP1 MSTORE PUSH0 SGT PUSH2 0xAF JUMPI PUSH1 0x40 MLOAD PUSH3 0x461BCD PUSH1 0xE5 SHL DUP2 MSTORE PUSH1 0x20 PUSH1 0x4 DUP3 ADD MSTORE PUSH1 0x1B PUSH1 0x24 DUP3 ADD MSTORE PUSH32 0x4E4F4E5F4E454741544956455F44454341595F434F4E5354414E540000000000 PUSH1 0x44 DUP3 ADD MSTORE PUSH1 0x64 ADD JUMPDEST PUSH1 0x40 MLOAD DUP1 SWAP2 SUB SWAP1 REVERT JUMPDEST POP POP PUSH1 0xC0 MSTORE POP POP PUSH1 0x1 PUSH0 DUP2 SWAP1 SSTORE DUP1 SLOAD PUSH1 0x1 PUSH1 0x1 PUSH1 0xA0 SHL SUB SWAP6 DUP7 AND PUSH1 0x1 PUSH1 0x1 PUSH1 0xA0 SHL SUB NOT SWAP2 DUP3 AND OR SWAP1 SWAP2 SSTORE PUSH1 0x2 DUP1 SLOAD SWAP7 SWAP1 SWAP6 AND SWAP6 AND SWAP5 SWAP1 SWAP5 OR SWAP1 SWAP3 SSTORE POP PUSH2 0x3B1 SWAP2 POP POP JUMP JUMPDEST PUSH0 DUP1 DUP3 SGT PUSH2 0x12F JUMPI PUSH1 0x40 MLOAD PUSH3 0x461BCD PUSH1 0xE5 SHL DUP2 MSTORE PUSH1 0x20 PUSH1 0x4 DUP3 ADD MSTORE PUSH1 0x9 PUSH1 0x24 DUP3 ADD MSTORE PUSH9 0x155391115192539151 PUSH1 0xBA SHL PUSH1 0x44 DUP3 ADD MSTORE PUSH1 0x64 ADD PUSH2 0xA6 JUMP JUMPDEST POP PUSH1 0x60 PUSH1 0x1 PUSH1 0x1 PUSH1 0x80 SHL SUB DUP3 GT PUSH1 0x7 SHL DUP3 DUP2 SHR PUSH1 0x1 PUSH1 0x1 PUSH1 0x40 SHL SUB LT PUSH1 0x6 SHL OR DUP3 DUP2 SHR PUSH4 0xFFFFFFFF LT PUSH1 0x5 SHL OR DUP3 DUP2 SHR PUSH2 0xFFFF LT PUSH1 0x4 SHL OR DUP3 DUP2 SHR PUSH1 0xFF LT PUSH1 0x3 SWAP1 DUP2 SHL SWAP1 SWAP2 OR DUP4 DUP2 SHR PUSH1 0xF LT PUSH1 0x2 SHL OR DUP4 DUP2 SHR SWAP1 SWAP2 LT PUSH1 0x1 SWAP1 DUP2 SHL SWAP1 SWAP2 OR DUP4 DUP2 SHR SWAP1 SWAP2 LT OR PUSH1 0x9F DUP2 DUP2 SUB DUP4 ADD SWAP4 SWAP1 SWAP4 SHL SWAP1 SWAP3 SHR PUSH13 0x465772B2BBBB5F824B15207A30 DUP2 ADD DUP2 MUL DUP3 SAR PUSH14 0x388EAA27412D5ACA026815D636E ADD DUP2 MUL DUP3 SAR PUSH14 0xDF99AC502031BF953EFF472FDCC ADD DUP2 MUL DUP3 SAR PUSH14 0x13CDFFB29D51D99322BDFF5F2211 ADD DUP2 MUL DUP3 SAR PUSH14 0xA0F742023DEF783A307A986912E ADD DUP2 MUL DUP3 SAR PUSH14 0x1920D8043CA89B5239253284E42 ADD DUP2 MUL DUP3 SAR PUSH13 0xB7A86D7375468FAC667A0A527 ADD PUSH13 0x29508E458543D8AA4DF2ABEE78 DUP3 ADD DUP3 MUL DUP4 SAR PUSH14 0x139601A2EFABE717E604CBB4894 ADD DUP3 MUL DUP4 SAR PUSH14 0x2247F7A7B6594320649AA03ABA1 ADD DUP3 MUL DUP4 SAR PUSH13 0x8C3F38E95A6B1FF2AB1C3B3436 NOT ADD DUP3 MUL DUP4 SAR PUSH14 0x2384773BDF1AC5676FACCED6090 NOT ADD DUP3 MUL SWAP1 SWAP3 SAR PUSH13 0xB9A025D814B29C212B8B1A07CD NOT ADD MUL PUSH1 0x1 PUSH13 0x504A838426634CDD8738F5435 PUSH1 0x61 SHL SUB NOT ADD SDIV PUSH18 0x1340DAA0D5F769DBA1915CEF59F0815A5506 MUL PUSH1 0x5F NOT SWAP2 SWAP1 SWAP2 ADD PUSH30 0x267A36C0C95B3975AB3EE5B203A7614A3F75373F047D803AE7B6687F2B3 MUL ADD PUSH30 0x57115E47018C7177EEBF7CD370A3356A1B7863008A5AE8028C72B8864284 ADD PUSH1 0xAE SAR SWAP1 JUMP JUMPDEST PUSH1 0x1 PUSH1 0x1 PUSH1 0xA0 SHL SUB DUP2 AND DUP2 EQ PUSH2 0x32D JUMPI PUSH0 DUP1 REVERT JUMPDEST POP JUMP JUMPDEST PUSH0 DUP1 PUSH0 DUP1 PUSH0 PUSH1 0xA0 DUP7 DUP9 SUB SLT ISZERO PUSH2 0x344 JUMPI PUSH0 DUP1 REVERT JUMPDEST DUP6 MLOAD PUSH2 0x34F DUP2 PUSH2 0x319 JUMP JUMPDEST PUSH1 0x20 DUP8 ADD MLOAD SWAP1 SWAP6 POP PUSH2 0x360 DUP2 PUSH2 0x319 JUMP JUMPDEST PUSH1 0x40 DUP8 ADD MLOAD PUSH1 0x60 DUP9 ADD MLOAD PUSH1 0x80 SWAP1 SWAP9 ADD MLOAD SWAP7 SWAP10 SWAP2 SWAP9 POP SWAP7 SWAP6 SWAP5 POP SWAP3 POP POP POP JUMP JUMPDEST DUP2 DUP2 SUB PUSH0 DUP4 SLT DUP1 ISZERO DUP4 DUP4 SGT AND DUP4 DUP4 SLT DUP3 AND OR ISZERO PUSH2 0x3AA JUMPI PUSH4 0x4E487B71 PUSH1 0xE0 SHL PUSH0 MSTORE PUSH1 0x11 PUSH1 0x4 MSTORE PUSH1 0x24 PUSH0 REVERT JUMPDEST POP SWAP3 SWAP2 POP POP JUMP JUMPDEST PUSH1 0x80 MLOAD PUSH1 0xA0 MLOAD PUSH1 0xC0 MLOAD PUSH1 0xE0 MLOAD PUSH2 0xC8B PUSH2 0x3F2 PUSH0 CODECOPY PUSH0 DUP2 DUP2 PUSH2 0x13E ADD MSTORE PUSH2 0x442 ADD MSTORE PUSH0 PUSH2 0x301 ADD MSTORE PUSH0 PUSH2 0x6C4 ADD MSTORE PUSH0 DUP2 DUP2 PUSH2 0x1CE ADD MSTORE PUSH2 0x69D ADD MSTORE PUSH2 0xC8B PUSH0 RETURN INVALID PUSH1 0x80 PUSH1 0x40 MSTORE PUSH1 0x4 CALLDATASIZE LT PUSH2 0xA5 JUMPI PUSH0 CALLDATALOAD PUSH1 0xE0 SHR DUP1 PUSH4 0xAE9CDBE3 GT PUSH2 0x62 JUMPI DUP1 PUSH4 0xAE9CDBE3 EQ PUSH2 0x17F JUMPI DUP1 PUSH4 0xC457FB37 EQ PUSH2 0x19E JUMPI DUP1 PUSH4 0xDC38679C EQ PUSH2 0x1BD JUMPI DUP1 PUSH4 0xDEC86DF1 EQ PUSH2 0x1F0 JUMPI DUP1 PUSH4 0xF466D4AB EQ PUSH2 0x203 JUMPI DUP1 PUSH4 0xFC0C546A EQ PUSH2 0x222 JUMPI PUSH0 DUP1 REVERT JUMPDEST DUP1 PUSH4 0x18160DDD EQ PUSH2 0xA9 JUMPI DUP1 PUSH4 0x244EC3C8 EQ PUSH2 0xD0 JUMPI DUP1 PUSH4 0x6D9D33B7 EQ PUSH2 0xEF JUMPI DUP1 PUSH4 0x70A08231 EQ PUSH2 0x10E JUMPI DUP1 PUSH4 0x78E97925 EQ PUSH2 0x12D JUMPI DUP1 PUSH4 0x7BA7614F EQ PUSH2 0x160 JUMPI JUMPDEST PUSH0 DUP1 REVERT JUMPDEST CALLVALUE DUP1 ISZERO PUSH2 0xB4 JUMPI PUSH0 DUP1 REVERT JUMPDEST POP PUSH2 0xBD PUSH2 0x259 JUMP JUMPDEST PUSH1 0x40 MLOAD SWAP1 DUP2 MSTORE PUSH1 0x20 ADD JUMPDEST PUSH1 0x40 MLOAD DUP1 SWAP2 SUB SWAP1 RETURN JUMPDEST CALLVALUE DUP1 ISZERO PUSH2 0xDB JUMPI PUSH0 DUP1 REVERT JUMPDEST POP PUSH2 0xBD PUSH2 0xEA CALLDATASIZE PUSH1 0x4 PUSH2 0x98D JUMP JUMPDEST PUSH2 0x2C9 JUMP JUMPDEST CALLVALUE DUP1 ISZERO PUSH2 0xFA JUMPI PUSH0 DUP1 REVERT JUMPDEST POP PUSH2 0xBD PUSH2 0x109 CALLDATASIZE PUSH1 0x4 PUSH2 0x9AD JUMP JUMPDEST PUSH2 0x2FE JUMP JUMPDEST CALLVALUE DUP1 ISZERO PUSH2 0x119 JUMPI PUSH0 DUP1 REVERT JUMPDEST POP PUSH2 0xBD PUSH2 0x128 CALLDATASIZE PUSH1 0x4 PUSH2 0x9DF JUMP JUMPDEST PUSH2 0x331 JUMP JUMPDEST CALLVALUE DUP1 ISZERO PUSH2 0x138 JUMPI PUSH0 DUP1 REVERT JUMPDEST POP PUSH2 0xBD PUSH32 0x0 DUP2 JUMP JUMPDEST CALLVALUE DUP1 ISZERO PUSH2 0x16B JUMPI PUSH0 DUP1 REVERT JUMPDEST POP PUSH2 0xBD PUSH2 0x17A CALLDATASIZE PUSH1 0x4 PUSH2 0x9AD JUMP JUMPDEST PUSH2 0x39D JUMP JUMPDEST CALLVALUE DUP1 ISZERO PUSH2 0x18A JUMPI PUSH0 DUP1 REVERT JUMPDEST POP PUSH2 0xBD PUSH2 0x199 CALLDATASIZE PUSH1 0x4 PUSH2 0x98D JUMP JUMPDEST PUSH2 0x414 JUMP JUMPDEST CALLVALUE DUP1 ISZERO PUSH2 0x1A9 JUMPI PUSH0 DUP1 REVERT JUMPDEST POP PUSH2 0xBD PUSH2 0x1B8 CALLDATASIZE PUSH1 0x4 PUSH2 0x9AD JUMP JUMPDEST PUSH2 0x435 JUMP JUMPDEST CALLVALUE DUP1 ISZERO PUSH2 0x1C8 JUMPI PUSH0 DUP1 REVERT JUMPDEST POP PUSH2 0xBD PUSH32 0x0 DUP2 JUMP JUMPDEST PUSH2 0xBD PUSH2 0x1FE CALLDATASIZE PUSH1 0x4 PUSH2 0xACC JUMP JUMPDEST PUSH2 0x489 JUMP JUMPDEST CALLVALUE DUP1 ISZERO PUSH2 0x20E JUMPI PUSH0 DUP1 REVERT JUMPDEST POP PUSH2 0xBD PUSH2 0x21D CALLDATASIZE PUSH1 0x4 PUSH2 0x98D JUMP JUMPDEST PUSH2 0x696 JUMP JUMPDEST CALLVALUE DUP1 ISZERO PUSH2 0x22D JUMPI PUSH0 DUP1 REVERT JUMPDEST POP PUSH1 0x2 SLOAD PUSH2 0x241 SWAP1 PUSH1 0x1 PUSH1 0x1 PUSH1 0xA0 SHL SUB AND DUP2 JUMP JUMPDEST PUSH1 0x40 MLOAD PUSH1 0x1 PUSH1 0x1 PUSH1 0xA0 SHL SUB SWAP1 SWAP2 AND DUP2 MSTORE PUSH1 0x20 ADD PUSH2 0xC7 JUMP JUMPDEST PUSH1 0x2 SLOAD PUSH1 0x40 DUP1 MLOAD PUSH4 0x18160DDD PUSH1 0xE0 SHL DUP2 MSTORE SWAP1 MLOAD PUSH0 SWAP3 PUSH1 0x1 PUSH1 0x1 PUSH1 0xA0 SHL SUB AND SWAP2 PUSH4 0x18160DDD SWAP2 PUSH1 0x4 DUP1 DUP4 ADD SWAP3 PUSH1 0x20 SWAP3 SWAP2 SWAP1 DUP3 SWAP1 SUB ADD DUP2 DUP7 GAS STATICCALL ISZERO DUP1 ISZERO PUSH2 0x2A0 JUMPI RETURNDATASIZE PUSH0 DUP1 RETURNDATACOPY RETURNDATASIZE PUSH0 REVERT JUMPDEST POP POP POP POP PUSH1 0x40 MLOAD RETURNDATASIZE PUSH1 0x1F NOT PUSH1 0x1F DUP3 ADD AND DUP3 ADD DUP1 PUSH1 0x40 MSTORE POP DUP2 ADD SWAP1 PUSH2 0x2C4 SWAP2 SWAP1 PUSH2 0xB8E JUMP JUMPDEST SWAP1 POP SWAP1 JUMP JUMPDEST PUSH0 DUP1 PUSH2 0x2D5 DUP5 DUP5 PUSH2 0x414 JUMP JUMPDEST SWAP1 POP PUSH0 PUSH2 0x2E5 PUSH2 0x1B8 DUP4 DUP7 PUSH2 0xBB9 JUMP JUMPDEST SWAP1 POP PUSH0 PUSH2 0x2F2 DUP3 DUP8 PUSH2 0xBCC JUMP JUMPDEST SWAP4 POP POP POP POP JUMPDEST SWAP3 SWAP2 POP POP JUMP JUMPDEST PUSH0 PUSH32 0x0 PUSH8 0xDE0B6B3A7640000 DUP4 MUL SDIV PUSH2 0x2F8 JUMP JUMPDEST PUSH1 0x2 SLOAD PUSH1 0x40 MLOAD PUSH4 0x70A08231 PUSH1 0xE0 SHL DUP2 MSTORE PUSH1 0x1 PUSH1 0x1 PUSH1 0xA0 SHL SUB DUP4 DUP2 AND PUSH1 0x4 DUP4 ADD MSTORE PUSH0 SWAP3 AND SWAP1 PUSH4 0x70A08231 SWAP1 PUSH1 0x24 ADD PUSH1 0x20 PUSH1 0x40 MLOAD DUP1 DUP4 SUB DUP2 DUP7 GAS STATICCALL ISZERO DUP1 ISZERO PUSH2 0x379 JUMPI RETURNDATASIZE PUSH0 DUP1 RETURNDATACOPY RETURNDATASIZE PUSH0 REVERT JUMPDEST POP POP POP POP PUSH1 0x40 MLOAD RETURNDATASIZE PUSH1 0x1F NOT PUSH1 0x1F DUP3 ADD AND DUP3 ADD DUP1 PUSH1 0x40 MSTORE POP DUP2 ADD SWAP1 PUSH2 0x2F8 SWAP2 SWAP1 PUSH2 0xB8E JUMP JUMPDEST PUSH0 DUP2 DUP2 PUSH7 0x38D7EA4C68000 JUMPDEST DUP3 ISZERO PUSH2 0x40C JUMPI DUP1 DUP4 LT ISZERO PUSH2 0x3E2 JUMPI PUSH2 0x3CE DUP4 DUP4 PUSH2 0x3C4 PUSH2 0x259 JUMP JUMPDEST PUSH2 0xEA SWAP2 SWAP1 PUSH2 0xBB9 JUMP JUMPDEST PUSH2 0x3D8 SWAP1 DUP4 PUSH2 0xBB9 JUMP JUMPDEST SWAP2 POP PUSH0 SWAP3 POP PUSH2 0x3A9 JUMP JUMPDEST PUSH2 0x3EF DUP2 DUP4 PUSH2 0x3C4 PUSH2 0x259 JUMP JUMPDEST PUSH2 0x3F9 SWAP1 DUP4 PUSH2 0xBB9 JUMP JUMPDEST SWAP2 POP PUSH2 0x405 DUP2 DUP5 PUSH2 0xBEB JUMP JUMPDEST SWAP3 POP PUSH2 0x3A9 JUMP JUMPDEST POP SWAP4 SWAP3 POP POP POP JUMP JUMPDEST PUSH0 DUP1 PUSH2 0x41F DUP4 PUSH2 0x435 JUMP JUMPDEST SWAP1 POP PUSH0 PUSH2 0x42C DUP3 DUP7 PUSH2 0xBCC JUMP JUMPDEST SWAP6 SWAP5 POP POP POP POP POP JUMP JUMPDEST PUSH0 DUP1 PUSH2 0x482 PUSH2 0x47C PUSH2 0x467 PUSH32 0x0 TIMESTAMP PUSH2 0xBEB JUMP JUMPDEST PUSH3 0x15180 PUSH8 0xDE0B6B3A7640000 SWAP2 SWAP1 SWAP2 MUL DIV SWAP1 JUMP JUMPDEST DUP5 PUSH2 0x696 JUMP JUMPDEST SWAP4 SWAP3 POP POP POP JUMP JUMPDEST PUSH0 PUSH2 0x492 PUSH2 0x729 JUMP JUMPDEST DUP3 MLOAD DUP5 MLOAD EQ PUSH2 0x4E8 JUMPI PUSH1 0x40 MLOAD PUSH3 0x461BCD PUSH1 0xE5 SHL DUP2 MSTORE PUSH1 0x20 PUSH1 0x4 DUP3 ADD MSTORE PUSH1 0x18 PUSH1 0x24 DUP3 ADD MSTORE PUSH32 0x506172616C6C656C206172726179732072657175697265640000000000000000 PUSH1 0x44 DUP3 ADD MSTORE PUSH1 0x64 ADD JUMPDEST PUSH1 0x40 MLOAD DUP1 SWAP2 SUB SWAP1 REVERT JUMPDEST PUSH0 PUSH2 0x4F2 CALLVALUE PUSH2 0x39D JUMP JUMPDEST PUSH1 0x1 SLOAD PUSH1 0x40 DUP1 MLOAD PUSH0 DUP1 DUP3 MSTORE PUSH1 0x20 DUP3 ADD SWAP3 DUP4 SWAP1 MSTORE SWAP4 SWAP5 POP PUSH1 0x1 PUSH1 0x1 PUSH1 0xA0 SHL SUB SWAP1 SWAP3 AND SWAP2 CALLVALUE SWAP2 PUSH2 0x520 SWAP2 SWAP1 PUSH2 0xBFE JUMP JUMPDEST PUSH0 PUSH1 0x40 MLOAD DUP1 DUP4 SUB DUP2 DUP6 DUP8 GAS CALL SWAP3 POP POP POP RETURNDATASIZE DUP1 PUSH0 DUP2 EQ PUSH2 0x55A JUMPI PUSH1 0x40 MLOAD SWAP2 POP PUSH1 0x1F NOT PUSH1 0x3F RETURNDATASIZE ADD AND DUP3 ADD PUSH1 0x40 MSTORE RETURNDATASIZE DUP3 MSTORE RETURNDATASIZE PUSH0 PUSH1 0x20 DUP5 ADD RETURNDATACOPY PUSH2 0x55F JUMP JUMPDEST PUSH1 0x60 SWAP2 POP JUMPDEST POP POP SWAP1 POP DUP1 PUSH2 0x5A3 JUMPI PUSH1 0x40 MLOAD PUSH3 0x461BCD PUSH1 0xE5 SHL DUP2 MSTORE PUSH1 0x20 PUSH1 0x4 DUP3 ADD MSTORE PUSH1 0x10 PUSH1 0x24 DUP3 ADD MSTORE PUSH16 0x2A3930B739B332B9103330B4B632B217 PUSH1 0x81 SHL PUSH1 0x44 DUP3 ADD MSTORE PUSH1 0x64 ADD PUSH2 0x4DF JUMP JUMPDEST PUSH0 DUP1 JUMPDEST DUP8 MLOAD DUP2 LT ISZERO PUSH2 0x637 JUMPI PUSH0 PUSH2 0x2710 DUP9 DUP4 DUP2 MLOAD DUP2 LT PUSH2 0x5C5 JUMPI PUSH2 0x5C5 PUSH2 0xC2A JUMP JUMPDEST PUSH1 0x20 MUL PUSH1 0x20 ADD ADD MLOAD DUP7 PUSH2 0x5D8 SWAP2 SWAP1 PUSH2 0xC3E JUMP JUMPDEST PUSH2 0x5E2 SWAP2 SWAP1 PUSH2 0xBCC JUMP JUMPDEST SWAP1 POP PUSH2 0x607 DUP10 DUP4 DUP2 MLOAD DUP2 LT PUSH2 0x5F9 JUMPI PUSH2 0x5F9 PUSH2 0xC2A JUMP JUMPDEST PUSH1 0x20 MUL PUSH1 0x20 ADD ADD MLOAD DUP3 PUSH2 0x751 JUMP JUMPDEST DUP8 DUP3 DUP2 MLOAD DUP2 LT PUSH2 0x619 JUMPI PUSH2 0x619 PUSH2 0xC2A JUMP JUMPDEST PUSH1 0x20 MUL PUSH1 0x20 ADD ADD MLOAD DUP4 PUSH2 0x62C SWAP2 SWAP1 PUSH2 0xBB9 JUMP JUMPDEST SWAP3 POP POP PUSH1 0x1 ADD PUSH2 0x5A6 JUMP JUMPDEST POP DUP1 PUSH2 0x2710 EQ PUSH2 0x689 JUMPI PUSH1 0x40 MLOAD PUSH3 0x461BCD PUSH1 0xE5 SHL DUP2 MSTORE PUSH1 0x20 PUSH1 0x4 DUP3 ADD MSTORE PUSH1 0x19 PUSH1 0x24 DUP3 ADD MSTORE PUSH32 0x627073206D7573742061646420757020746F2031305F30303000000000000000 PUSH1 0x44 DUP3 ADD MSTORE PUSH1 0x64 ADD PUSH2 0x4DF JUMP JUMPDEST POP POP PUSH1 0x1 PUSH0 SSTORE SWAP1 POP PUSH2 0x482 JUMP JUMPDEST PUSH0 DUP1 PUSH2 0x714 PUSH32 0x0 PUSH2 0x70F PUSH2 0x70A PUSH32 0x0 PUSH2 0x6F9 PUSH8 0xDE0B6B3A7640000 PUSH1 0x1 DUP11 ADD MUL PUSH2 0x2FE JUMP JUMPDEST DUP10 SUB PUSH8 0xDE0B6B3A7640000 SWAP2 MUL SDIV SWAP1 JUMP JUMPDEST PUSH2 0x7B6 JUMP JUMPDEST PUSH2 0x95C JUMP JUMPDEST SWAP1 POP PUSH1 0x1 DUP1 DUP3 LT ISZERO PUSH2 0x40C JUMPI SWAP2 POP PUSH2 0x2F8 SWAP1 POP JUMP JUMPDEST PUSH1 0x2 PUSH0 SLOAD SUB PUSH2 0x74B JUMPI PUSH1 0x40 MLOAD PUSH4 0x3EE5AEB5 PUSH1 0xE0 SHL DUP2 MSTORE PUSH1 0x4 ADD PUSH1 0x40 MLOAD DUP1 SWAP2 SUB SWAP1 REVERT JUMPDEST PUSH1 0x2 PUSH0 SSTORE JUMP JUMPDEST PUSH1 0x2 SLOAD PUSH1 0x40 MLOAD PUSH4 0x40C10F19 PUSH1 0xE0 SHL DUP2 MSTORE PUSH1 0x1 PUSH1 0x1 PUSH1 0xA0 SHL SUB DUP5 DUP2 AND PUSH1 0x4 DUP4 ADD MSTORE PUSH1 0x24 DUP3 ADD DUP5 SWAP1 MSTORE SWAP1 SWAP2 AND SWAP1 PUSH4 0x40C10F19 SWAP1 PUSH1 0x44 ADD PUSH0 PUSH1 0x40 MLOAD DUP1 DUP4 SUB DUP2 PUSH0 DUP8 DUP1 EXTCODESIZE ISZERO DUP1 ISZERO PUSH2 0x79C JUMPI PUSH0 DUP1 REVERT JUMPDEST POP GAS CALL ISZERO DUP1 ISZERO PUSH2 0x7AE JUMPI RETURNDATASIZE PUSH0 DUP1 RETURNDATACOPY RETURNDATASIZE PUSH0 REVERT JUMPDEST POP POP POP POP POP POP JUMP JUMPDEST PUSH0 PUSH9 0x248CE36A70CB26B3E NOT DUP3 SGT PUSH2 0x7CF JUMPI POP PUSH0 SWAP2 SWAP1 POP JUMP JUMPDEST PUSH9 0x755BF798B4A1BF1E5 DUP3 SLT PUSH2 0x816 JUMPI PUSH1 0x40 MLOAD PUSH3 0x461BCD PUSH1 0xE5 SHL DUP2 MSTORE PUSH1 0x20 PUSH1 0x4 DUP3 ADD MSTORE PUSH1 0xC PUSH1 0x24 DUP3 ADD MSTORE PUSH12 0x4558505F4F564552464C4F57 PUSH1 0xA0 SHL PUSH1 0x44 DUP3 ADD MSTORE PUSH1 0x64 ADD PUSH2 0x4DF JUMP JUMPDEST PUSH6 0x3782DACE9D9 PUSH1 0x4E DUP4 SWAP1 SHL SDIV SWAP2 POP PUSH0 PUSH1 0x60 PUSH12 0xB17217F7D1CF79ABC9E3B398 DUP5 DUP3 SHL SDIV PUSH1 0x1 PUSH1 0x5F SHL ADD SWAP1 SAR PUSH12 0xB17217F7D1CF79ABC9E3B398 DUP2 MUL SWAP1 SWAP4 SUB PUSH13 0x240C330E9FB2D9CBAF0FD5AAFB NOT DUP2 ADD DUP2 MUL PUSH1 0x60 SWAP1 DUP2 SAR PUSH14 0x277594991CFC85F6E2461837CD9 ADD DUP3 MUL DUP2 SAR PUSH14 0x1A521255E34F6A5061B25EF1C9C3 NOT ADD DUP3 MUL DUP2 SAR PUSH14 0xB1BBB201F443CF962F1A1D3DB4A5 ADD DUP3 MUL DUP2 SAR PUSH15 0x2C72388D9F74F51A9331FED693F14 NOT ADD DUP3 MUL DUP2 SAR PUSH15 0x5180BB14799AB47A8A8CB2A527D57 ADD PUSH14 0x2D16720577BD19BF614176FE9EA PUSH13 0x10FE68E7FD37D0007B713F7650 DUP5 ADD DUP5 MUL DUP4 SAR SWAP1 DUP2 ADD SWAP1 DUP5 ADD PUSH14 0x1D3967ED30FC4F89C02BAB57081 NOT ADD MUL SWAP1 SWAP2 SAR PUSH15 0x587F503BB6EA29D25FCB740196450 ADD SWAP1 SWAP2 MUL PUSH14 0x360D7AEEA093263ECC6E0ECB2917 PUSH1 0x62 SHL ADD SDIV PUSH21 0x29D9DC38563C32E5C2F6DC192EE70EF65F9978AF3 MUL PUSH1 0xC3 SWAP4 SWAP1 SWAP4 SUB SWAP3 SWAP1 SWAP3 SHR SWAP3 SWAP2 POP POP JUMP JUMPDEST DUP2 DUP2 MUL DUP3 ISZERO DUP4 DUP3 SDIV DUP4 EQ OR PUSH0 NOT DUP5 LT PUSH1 0x1 PUSH1 0xFF SHL DUP5 SGT OR AND PUSH2 0x97C JUMPI PUSH0 DUP1 REVERT JUMPDEST PUSH8 0xDE0B6B3A7640000 SWAP1 SDIV SWAP3 SWAP2 POP POP JUMP JUMPDEST PUSH0 DUP1 PUSH1 0x40 DUP4 DUP6 SUB SLT ISZERO PUSH2 0x99E JUMPI PUSH0 DUP1 REVERT JUMPDEST POP POP DUP1 CALLDATALOAD SWAP3 PUSH1 0x20 SWAP1 SWAP2 ADD CALLDATALOAD SWAP2 POP JUMP JUMPDEST PUSH0 PUSH1 0x20 DUP3 DUP5 SUB SLT ISZERO PUSH2 0x9BD JUMPI PUSH0 DUP1 REVERT JUMPDEST POP CALLDATALOAD SWAP2 SWAP1 POP JUMP JUMPDEST DUP1 CALLDATALOAD PUSH1 0x1 PUSH1 0x1 PUSH1 0xA0 SHL SUB DUP2 AND DUP2 EQ PUSH2 0x9DA JUMPI PUSH0 DUP1 REVERT JUMPDEST SWAP2 SWAP1 POP JUMP JUMPDEST PUSH0 PUSH1 0x20 DUP3 DUP5 SUB SLT ISZERO PUSH2 0x9EF JUMPI PUSH0 DUP1 REVERT JUMPDEST PUSH2 0x482 DUP3 PUSH2 0x9C4 JUMP JUMPDEST PUSH4 0x4E487B71 PUSH1 0xE0 SHL PUSH0 MSTORE PUSH1 0x41 PUSH1 0x4 MSTORE PUSH1 0x24 PUSH0 REVERT JUMPDEST PUSH1 0x40 MLOAD PUSH1 0x1F DUP3 ADD PUSH1 0x1F NOT AND DUP2 ADD PUSH8 0xFFFFFFFFFFFFFFFF DUP2 GT DUP3 DUP3 LT OR ISZERO PUSH2 0xA35 JUMPI PUSH2 0xA35 PUSH2 0x9F8 JUMP JUMPDEST PUSH1 0x40 MSTORE SWAP2 SWAP1 POP JUMP JUMPDEST PUSH0 PUSH8 0xFFFFFFFFFFFFFFFF DUP3 GT ISZERO PUSH2 0xA56 JUMPI PUSH2 0xA56 PUSH2 0x9F8 JUMP JUMPDEST POP PUSH1 0x5 SHL PUSH1 0x20 ADD SWAP1 JUMP JUMPDEST PUSH0 DUP3 PUSH1 0x1F DUP4 ADD SLT PUSH2 0xA6F JUMPI PUSH0 DUP1 REVERT JUMPDEST DUP2 CALLDATALOAD PUSH1 0x20 PUSH2 0xA84 PUSH2 0xA7F DUP4 PUSH2 0xA3D JUMP JUMPDEST PUSH2 0xA0C JUMP JUMPDEST DUP1 DUP4 DUP3 MSTORE PUSH1 0x20 DUP3 ADD SWAP2 POP PUSH1 0x20 DUP5 PUSH1 0x5 SHL DUP8 ADD ADD SWAP4 POP DUP7 DUP5 GT ISZERO PUSH2 0xAA5 JUMPI PUSH0 DUP1 REVERT JUMPDEST PUSH1 0x20 DUP7 ADD JUMPDEST DUP5 DUP2 LT ISZERO PUSH2 0xAC1 JUMPI DUP1 CALLDATALOAD DUP4 MSTORE SWAP2 DUP4 ADD SWAP2 DUP4 ADD PUSH2 0xAAA JUMP JUMPDEST POP SWAP7 SWAP6 POP POP POP POP POP POP JUMP JUMPDEST PUSH0 DUP1 PUSH0 PUSH1 0x60 DUP5 DUP7 SUB SLT ISZERO PUSH2 0xADE JUMPI PUSH0 DUP1 REVERT JUMPDEST DUP4 CALLDATALOAD PUSH8 0xFFFFFFFFFFFFFFFF DUP1 DUP3 GT ISZERO PUSH2 0xAF5 JUMPI PUSH0 DUP1 REVERT JUMPDEST DUP2 DUP7 ADD SWAP2 POP DUP7 PUSH1 0x1F DUP4 ADD SLT PUSH2 0xB08 JUMPI PUSH0 DUP1 REVERT JUMPDEST DUP2 CALLDATALOAD PUSH1 0x20 PUSH2 0xB18 PUSH2 0xA7F DUP4 PUSH2 0xA3D JUMP JUMPDEST DUP3 DUP2 MSTORE PUSH1 0x5 SWAP3 SWAP1 SWAP3 SHL DUP5 ADD DUP2 ADD SWAP2 DUP2 DUP2 ADD SWAP1 DUP11 DUP5 GT ISZERO PUSH2 0xB36 JUMPI PUSH0 DUP1 REVERT JUMPDEST SWAP5 DUP3 ADD SWAP5 JUMPDEST DUP4 DUP7 LT ISZERO PUSH2 0xB5B JUMPI PUSH2 0xB4C DUP7 PUSH2 0x9C4 JUMP JUMPDEST DUP3 MSTORE SWAP5 DUP3 ADD SWAP5 SWAP1 DUP3 ADD SWAP1 PUSH2 0xB3B JUMP JUMPDEST SWAP8 POP POP DUP8 ADD CALLDATALOAD SWAP3 POP POP DUP1 DUP3 GT ISZERO PUSH2 0xB70 JUMPI PUSH0 DUP1 REVERT JUMPDEST POP PUSH2 0xB7D DUP7 DUP3 DUP8 ADD PUSH2 0xA60 JUMP JUMPDEST SWAP3 POP POP PUSH1 0x40 DUP5 ADD CALLDATALOAD SWAP1 POP SWAP3 POP SWAP3 POP SWAP3 JUMP JUMPDEST PUSH0 PUSH1 0x20 DUP3 DUP5 SUB SLT ISZERO PUSH2 0xB9E JUMPI PUSH0 DUP1 REVERT JUMPDEST POP MLOAD SWAP2 SWAP1 POP JUMP JUMPDEST PUSH4 0x4E487B71 PUSH1 0xE0 SHL PUSH0 MSTORE PUSH1 0x11 PUSH1 0x4 MSTORE PUSH1 0x24 PUSH0 REVERT JUMPDEST DUP1 DUP3 ADD DUP1 DUP3 GT ISZERO PUSH2 0x2F8 JUMPI PUSH2 0x2F8 PUSH2 0xBA5 JUMP JUMPDEST PUSH0 DUP3 PUSH2 0xBE6 JUMPI PUSH4 0x4E487B71 PUSH1 0xE0 SHL PUSH0 MSTORE PUSH1 0x12 PUSH1 0x4 MSTORE PUSH1 0x24 PUSH0 REVERT JUMPDEST POP DIV SWAP1 JUMP JUMPDEST DUP2 DUP2 SUB DUP2 DUP2 GT ISZERO PUSH2 0x2F8 JUMPI PUSH2 0x2F8 PUSH2 0xBA5 JUMP JUMPDEST PUSH0 DUP3 MLOAD PUSH0 JUMPDEST DUP2 DUP2 LT ISZERO PUSH2 0xC1D JUMPI PUSH1 0x20 DUP2 DUP7 ADD DUP2 ADD MLOAD DUP6 DUP4 ADD MSTORE ADD PUSH2 0xC03 JUMP JUMPDEST POP PUSH0 SWAP3 ADD SWAP2 DUP3 MSTORE POP SWAP2 SWAP1 POP JUMP JUMPDEST PUSH4 0x4E487B71 PUSH1 0xE0 SHL PUSH0 MSTORE PUSH1 0x32 PUSH1 0x4 MSTORE PUSH1 0x24 PUSH0 REVERT JUMPDEST DUP1 DUP3 MUL DUP2 ISZERO DUP3 DUP3 DIV DUP5 EQ OR PUSH2 0x2F8 JUMPI PUSH2 0x2F8 PUSH2 0xBA5 JUMP INVALID LOG2 PUSH5 0x6970667358 0x22 SLT KECCAK256 0xE6 0xE2 0xF6 AND DIV 0xCD 0x4D AND EXP 0xB8 SWAP10 SWAP7 PUSH29 0x69C423ACFE0C1139A27B238EB96D7F1A8C000864736F6C634300081600 CALLER "
		},
		"gasEstimates": {
			"creation": {
				"codeDepositCost": "642200",
				"executionCost": "infinite",
				"totalCost": "infinite"
			},
			"external": {
				"UNSAFE_getOverestimateTokenAmount(uint256,uint256)": "infinite",
				"_getTokenAmountForSinglePurchase(uint256,uint256)": "infinite",
				"balanceOf(address)": "infinite",
				"buyToken(address[],uint256[],uint256)": "infinite",
				"getTargetSaleTime(int256)": "infinite",
				"getTokenAmountForMultiPurchase(uint256)": "infinite",
				"getTokenPrice(uint256)": "infinite",
				"getVRGDAPrice(int256,uint256)": "infinite",
				"startTime()": "infinite",
				"targetPrice()": "infinite",
				"token()": "2446",
				"totalSupply()": "infinite"
			},
			"internal": {
				"_mint(address,uint256)": "infinite"
			}
		},
		"methodIdentifiers": {
			"UNSAFE_getOverestimateTokenAmount(uint256,uint256)": "ae9cdbe3",
			"_getTokenAmountForSinglePurchase(uint256,uint256)": "244ec3c8",
			"balanceOf(address)": "70a08231",
			"buyToken(address[],uint256[],uint256)": "dec86df1",
			"getTargetSaleTime(int256)": "6d9d33b7",
			"getTokenAmountForMultiPurchase(uint256)": "7ba7614f",
			"getTokenPrice(uint256)": "c457fb37",
			"getVRGDAPrice(int256,uint256)": "f466d4ab",
			"startTime()": "78e97925",
			"targetPrice()": "dc38679c",
			"token()": "fc0c546a",
			"totalSupply()": "18160ddd"
		}
	},
	"abi": [
		{
			"inputs": [
				{
					"internalType": "contract NontransferableERC20",
					"name": "_token",
					"type": "address"
				},
				{
					"internalType": "address",
					"name": "_treasury",
					"type": "address"
				},
				{
					"internalType": "int256",
					"name": "_targetPrice",
					"type": "int256"
				},
				{
					"internalType": "int256",
					"name": "_priceDecayPercent",
					"type": "int256"
				},
				{
					"internalType": "int256",
					"name": "_governancePerTimeUnit",
					"type": "int256"
				}
			],
			"stateMutability": "nonpayable",
			"type": "constructor"
		},
		{
			"inputs": [],
			"name": "ReentrancyGuardReentrantCall",
			"type": "error"
		},
		{
			"anonymous": false,
			"inputs": [
				{
					"indexed": false,
					"internalType": "string",
					"name": "name",
					"type": "string"
				},
				{
					"indexed": false,
					"internalType": "uint256",
					"name": "value",
					"type": "uint256"
				}
			],
			"name": "Log",
			"type": "event"
		},
		{
			"anonymous": false,
			"inputs": [
				{
					"indexed": true,
					"internalType": "address",
					"name": "from",
					"type": "address"
				},
				{
					"indexed": true,
					"internalType": "address",
					"name": "to",
					"type": "address"
				},
				{
					"indexed": false,
					"internalType": "uint256",
					"name": "value",
					"type": "uint256"
				}
			],
			"name": "Transfer",
			"type": "event"
		},
		{
			"inputs": [
				{
					"internalType": "uint256",
					"name": "payment",
					"type": "uint256"
				},
				{
					"internalType": "uint256",
					"name": "supply",
					"type": "uint256"
				}
			],
			"name": "UNSAFE_getOverestimateTokenAmount",
			"outputs": [
				{
					"internalType": "uint256",
					"name": "",
					"type": "uint256"
				}
			],
			"stateMutability": "view",
			"type": "function"
		},
		{
			"inputs": [
				{
					"internalType": "uint256",
					"name": "payment",
					"type": "uint256"
				},
				{
					"internalType": "uint256",
					"name": "supply",
					"type": "uint256"
				}
			],
			"name": "_getTokenAmountForSinglePurchase",
			"outputs": [
				{
					"internalType": "uint256",
					"name": "",
					"type": "uint256"
				}
			],
			"stateMutability": "view",
			"type": "function"
		},
		{
			"inputs": [
				{
					"internalType": "address",
					"name": "_owner",
					"type": "address"
				}
			],
			"name": "balanceOf",
			"outputs": [
				{
					"internalType": "uint256",
					"name": "",
					"type": "uint256"
				}
			],
			"stateMutability": "view",
			"type": "function"
		},
		{
			"inputs": [
				{
					"internalType": "address[]",
					"name": "_addresses",
					"type": "address[]"
				},
				{
					"internalType": "uint256[]",
					"name": "_bps",
					"type": "uint256[]"
				},
				{
					"internalType": "uint256",
					"name": "",
					"type": "uint256"
				}
			],
			"name": "buyToken",
			"outputs": [
				{
					"internalType": "uint256",
					"name": "",
					"type": "uint256"
				}
			],
			"stateMutability": "payable",
			"type": "function"
		},
		{
			"inputs": [
				{
					"internalType": "int256",
					"name": "sold",
					"type": "int256"
				}
			],
			"name": "getTargetSaleTime",
			"outputs": [
				{
					"internalType": "int256",
					"name": "",
					"type": "int256"
				}
			],
			"stateMutability": "view",
			"type": "function"
		},
		{
			"inputs": [
				{
					"internalType": "uint256",
					"name": "payment",
					"type": "uint256"
				}
			],
			"name": "getTokenAmountForMultiPurchase",
			"outputs": [
				{
					"internalType": "uint256",
					"name": "",
					"type": "uint256"
				}
			],
			"stateMutability": "view",
			"type": "function"
		},
		{
			"inputs": [
				{
					"internalType": "uint256",
					"name": "tokensSoldSoFar",
					"type": "uint256"
				}
			],
			"name": "getTokenPrice",
			"outputs": [
				{
					"internalType": "uint256",
					"name": "",
					"type": "uint256"
				}
			],
			"stateMutability": "view",
			"type": "function"
		},
		{
			"inputs": [
				{
					"internalType": "int256",
					"name": "timeSinceStart",
					"type": "int256"
				},
				{
					"internalType": "uint256",
					"name": "sold",
					"type": "uint256"
				}
			],
			"name": "getVRGDAPrice",
			"outputs": [
				{
					"internalType": "uint256",
					"name": "",
					"type": "uint256"
				}
			],
			"stateMutability": "view",
			"type": "function"
		},
		{
			"inputs": [],
			"name": "startTime",
			"outputs": [
				{
					"internalType": "uint256",
					"name": "",
					"type": "uint256"
				}
			],
			"stateMutability": "view",
			"type": "function"
		},
		{
			"inputs": [],
			"name": "targetPrice",
			"outputs": [
				{
					"internalType": "int256",
					"name": "",
					"type": "int256"
				}
			],
			"stateMutability": "view",
			"type": "function"
		},
		{
			"inputs": [],
			"name": "token",
			"outputs": [
				{
					"internalType": "contract NontransferableERC20",
					"name": "",
					"type": "address"
				}
			],
			"stateMutability": "view",
			"type": "function"
		},
		{
			"inputs": [],
			"name": "totalSupply",
			"outputs": [
				{
					"internalType": "uint256",
					"name": "",
					"type": "uint256"
				}
			],
			"stateMutability": "view",
			"type": "function"
		}
	]
}