{
	"data": {
		"bytecode": {
			"linkReferences": {},
			"object": "608060405234801561000f575f80fd5b50611d588061001d5f395ff3fe60806040526004361061013c575f3560e01c80637d9f6db5116100b3578063ce9c7c0d1161006d578063ce9c7c0d14610393578063db2e1eed146103b2578063ec91f2a4146103c7578063f25efffc146103dc578063f2fde38b146103f0578063fe95233b1461040f575f80fd5b80637d9f6db51461029a5780638456cb591461030d5780638da5cb5b14610321578063a4d0a17e14610335578063a910d31814610349578063b296024d14610368575f80fd5b80633f4ba83a116101045780633f4ba83a146101f35780633fc8cef3146102075780635c975abb14610226578063659dd2b4146102545780637120334b14610267578063715018a614610286575f80fd5b80630284464a146101405780630802be0a1461017b5780630fb5a6b41461019e57806336ebdb38146101b35780633d64baf1146101d4575b5f80fd5b34801561014b575f80fd5b505f5461015e906001600160a01b031681565b6040516001600160a01b0390911681526020015b60405180910390f35b348015610186575f80fd5b5061019060065481565b604051908152602001610172565b3480156101a9575f80fd5b5061019060085481565b3480156101be575f80fd5b506101d26101cd366004611629565b610424565b005b3480156101df575f80fd5b5060015461015e906001600160a01b031681565b3480156101fe575f80fd5b506101d2610475565b348015610212575f80fd5b5060025461015e906001600160a01b031681565b348015610231575f80fd5b505f80516020611ce38339815191525460ff166040519015158152602001610172565b6101d2610262366004611649565b6104ac565b348015610272575f80fd5b506101d2610281366004611649565b6107a4565b348015610291575f80fd5b506101d26107e1565b3480156102a5575f80fd5b50600954600a54600b54600c54600d546102d594939291906001600160a01b03811690600160a01b900460ff1686565b6040805196875260208701959095529385019290925260608401526001600160a01b03166080830152151560a082015260c001610172565b348015610318575f80fd5b506101d26107f2565b34801561032c575f80fd5b5061015e610802565b348015610340575f80fd5b506101d2610830565b348015610354575f80fd5b506101d2610363366004611674565b61085e565b348015610373575f80fd5b506005546103819060ff1681565b60405160ff9091168152602001610172565b34801561039e575f80fd5b506101d26103ad366004611649565b610a3b565b3480156103bd575f80fd5b5061019060045481565b3480156103d2575f80fd5b5061019060035481565b3480156103e7575f80fd5b506101d2610a78565b3480156103fb575f80fd5b506101d261040a36600461170d565b610a98565b34801561041a575f80fd5b5061019060075481565b61042c610ad2565b6005805460ff191660ff83169081179091556040519081527fec5ccd96cc77b6219e9d44143df916af68fc169339ea7de5008ff15eae13450d906020015b60405180910390a150565b61047d610ad2565b610485610b04565b600b54158061049d5750600d54600160a01b900460ff165b156104aa576104aa610b5d565b565b6104b4610cac565b6040805160c081018252600954808252600a546020830152600b5492820192909252600c546060820152600d546001600160a01b0381166080830152600160a01b900460ff16151560a08201529082146105555760405162461bcd60e51b815260206004820152601760248201527f56657262206e6f7420757020666f722061756374696f6e00000000000000000060448201526064015b60405180910390fd5b8060600151421061059a5760405162461bcd60e51b815260206004820152600f60248201526e105d58dd1a5bdb88195e1c1a5c9959608a1b604482015260640161054c565b6004543410156105ec5760405162461bcd60e51b815260206004820152601f60248201527f4d7573742073656e64206174206c656173742072657365727665507269636500604482015260640161054c565b60055460208201516064916106069160ff9091169061173c565b6106109190611753565b816020015161061f9190611772565b341015610696576040805162461bcd60e51b81526020600482015260248101919091527f4d7573742073656e64206d6f7265207468616e206c617374206269642062792060448201527f6d696e426964496e6372656d656e7450657263656e7461676520616d6f756e74606482015260840161054c565b60808101516001600160a01b038116156106b8576106b8818360200151610ce3565b34600a55600d80546001600160a01b0319163317905560035460608301515f91906106e4904290611785565b1090508015610705576003546106fa9042611772565b60608401819052600c555b8251604080513381523460208201528315158183015290517f1159164c56f277e6fc99c11731bd380e0347deb969b75523398734c252706ea39181900360600190a2801561078857825160608401516040519081527f6e912a3a9105bdd2af817ba5adc14e6c127c1035b5b648faa29ca0d58ab8ff4e9060200160405180910390a25b5050506107a160015f80516020611d0383398151915255565b50565b6107ac610ad2565b60038190556040518181527f1b55d9f7002bda4490f467e326f22a4a847629c0f2d1ed421607d318d25b410d9060200161046a565b6107e9610ad2565b6104aa5f610de3565b6107fa610ad2565b6104aa610e53565b7f9016d09d72d40fdae2fd8ceac6b6234c7706214fd39c1cd1e609a0528c199300546001600160a01b031690565b610838610e9b565b610840610cac565b610848610eca565b6104aa60015f80516020611d0383398151915255565b7ff0c57e16840df040f15088dc2f81fe391c3923bec73e23a9662efc9c229c6a008054600160401b810460ff16159067ffffffffffffffff165f811580156108a35750825b90505f8267ffffffffffffffff1660011480156108bf5750303b155b9050811580156108cd575080155b156108eb5760405163f92ee8a960e01b815260040160405180910390fd5b845467ffffffffffffffff19166001178555831561091557845460ff60401b1916600160401b1785555b61091d61146a565b61092561147a565b61092e8c61148a565b610936610e53565b8e5f806101000a8154816001600160a01b0302191690836001600160a01b031602179055508d60015f6101000a8154816001600160a01b0302191690836001600160a01b031602179055508c60025f6101000a8154816001600160a01b0302191690836001600160a01b031602179055508a600381905550896004819055508860055f6101000a81548160ff021916908360ff1602179055508760088190555086600681905550856007819055508315610a2a57845460ff60401b19168555604051600181527fc7f505b2f371ae2175ee4913f4499e1f2633a7b5936321eed1cdaeb6115181d29060200160405180910390a15b505050505050505050505050505050565b610a43610ad2565b60048190556040518181527f6ab2e127d7fdf53b8f304e59d3aab5bfe97979f52a85479691a6fab27a28a6b29060200161046a565b610a80610cac565b610a8861149b565b610a90610eca565b610848610b5d565b610aa0610ad2565b6001600160a01b038116610ac957604051631e4fbdf760e01b81525f600482015260240161054c565b6107a181610de3565b33610adb610802565b6001600160a01b0316146104aa5760405163118cdaa760e01b815233600482015260240161054c565b610b0c610e9b565b5f80516020611ce3833981519152805460ff191681557f5db9ee0a495bf2e6ff9c91a7834c1ba4fdd244a5e8aa4e537bd38aeae4b073aa335b6040516001600160a01b03909116815260200161046a565b5f8054906101000a90046001600160a01b03166001600160a01b0316631249c58b6040518163ffffffff1660e01b81526004016020604051808303815f875af1925050508015610bca575060408051601f3d908101601f19168201909252610bc791810190611798565b60015b610c0757610bd66117af565b806308c379a003610bfd5750610bea61184f565b80610bf55750610bff565b6107a1610e53565b505b3d5f803e3d5ffd5b60085442905f90610c189083611772565b6040805160c0810182528581525f6020808301829052828401879052606083018590526080830182905260a09092018190526009879055600a55600b859055600c839055600d80546001600160a81b0319169055815185815290810183905291925084917fd6eddd1118d71820909c1197aa966dbc15ed6f508554252169cc3d5ccac756ca910160405180910390a2505050565b5f80516020611d03833981519152805460011901610cdd57604051633ee5aeb560e01b815260040160405180910390fd5b60029055565b610ced82826114cb565b610dcc5760025f9054906101000a90046001600160a01b03166001600160a01b031663d0e30db0826040518263ffffffff1660e01b81526004015f604051808303818588803b158015610d3e575f80fd5b505af1158015610d50573d5f803e3d5ffd5b505060025460405163a9059cbb60e01b81526001600160a01b03878116600483015260248201879052909116935063a9059cbb925060440190506020604051808303815f875af1158015610da6573d5f803e3d5ffd5b505050506040513d601f19601f82011682018060405250810190610dca91906118e7565b505b5050565b60015f80516020611d0383398151915255565b7f9016d09d72d40fdae2fd8ceac6b6234c7706214fd39c1cd1e609a0528c19930080546001600160a01b031981166001600160a01b03848116918217845560405192169182907f8be0079c531659141344cd1fd0a4f28419497f9722a3daafe3b4186f6b6457e0905f90a3505050565b610e5b61149b565b5f80516020611ce3833981519152805460ff191660011781557f62e78cea01bee320cd4e420270b5ea74000d11b0c9f74754ebdbfc544b05a25833610b45565b5f80516020611ce38339815191525460ff166104aa57604051638dfc202b60e01b815260040160405180910390fd5b6040805160c0810182526009548152600a546020820152600b54918101829052600c546060820152600d546001600160a01b0381166080830152600160a01b900460ff16151560a0820152905f03610f5b5760405162461bcd60e51b815260206004820152601460248201527320bab1ba34b7b7103430b9b713ba103132b3bab760611b604482015260640161054c565b8060a0015115610fad5760405162461bcd60e51b815260206004820181905260248201527f41756374696f6e2068617320616c7265616479206265656e20736574746c6564604482015260640161054c565b80606001514210156110015760405162461bcd60e51b815260206004820152601860248201527f41756374696f6e206861736e277420636f6d706c657465640000000000000000604482015260640161054c565b600d805460ff60a01b1916600160a01b17905560808101516001600160a01b031661108b575f548151604051630852cd8d60e31b81526001600160a01b03909216916342966c68916110599160040190815260200190565b5f604051808303815f87803b158015611070575f80fd5b505af1158015611082573d5f803e3d5ffd5b505050506110f9565b5f54608082015182516040516323b872dd60e01b81523060048201526001600160a01b03928316602482015260448101919091529116906323b872dd906064015f604051808303815f87803b1580156110e2575f80fd5b505af11580156110f4573d5f803e3d5ffd5b505050505b60208101511561141a575f61112c611124836020015160065461271061111f9190611900565b611547565b612710611578565b90505f81836020015161113f9190611785565b90505f61115161112483600754611547565b90505f61115e8284611785565b5f805487516040516324d19ab160e11b8152600481019190915292935090916001600160a01b03909116906349a33562906024015f60405180830381865afa1580156111ac573d5f803e3d5ffd5b505050506040513d5f823e601f3d908101601f191682016040526111d39190810190611aa6565b604001515190505f8167ffffffffffffffff8111156111f4576111f46117c8565b60405190808252806020026020018201604052801561121d578160200160208202803683370190505b5090505f8267ffffffffffffffff81111561123a5761123a6117c8565b604051908082528060200260200182016040528015611263578160200160208202803683370190505b509050611277611271610802565b88610ce3565b5f5b83811015611399575f80548a516040516324d19ab160e11b81526001600160a01b03909216916349a33562916112b59160040190815260200190565b5f60405180830381865afa1580156112cf573d5f803e3d5ffd5b505050506040513d5f823e601f3d908101601f191682016040526112f69190810190611aa6565b60400151828151811061130b5761130b611c28565b60200260200101519050805f015184838151811061132b5761132b611c28565b60200260200101906001600160a01b031690816001600160a01b031681525050806020015183838151811061136257611362611c28565b6020026020010181815250505f611380611124898460200151611547565b905061138f825f015182610ce3565b5050600101611279565b5060015460405163dec86df160e01b81526001600160a01b039091169063dec86df19086906113d090869086908490600401611c3c565b60206040518083038185885af11580156113ec573d5f803e3d5ffd5b50505050506040513d601f19601f820116820180604052508101906114119190611798565b50505050505050505b80516080820151602080840151604080516001600160a01b039094168452918301527fc9f72b276a388619c6d185d146697036241880c36654b1a3ffdad07c24038d99910160405180910390a250565b61147261159b565b6104aa6115e4565b61148261159b565b6104aa611604565b61149261159b565b6107a18161160c565b5f80516020611ce38339815191525460ff16156104aa5760405163d93c066560e01b815260040160405180910390fd5b604080515f8082526020820190925281906001600160a01b038516906175309085906040516114fa9190611cc7565b5f60405180830381858888f193505050503d805f8114611535576040519150601f19603f3d011682016040523d82523d5f602084013e61153a565b606091505b5090925050505b92915050565b81810282158382058314175f198410600160ff1b84131716611567575f80fd5b670de0b6b3a7640000900592915050565b670de0b6b3a7640000828102908105831482151516611595575f80fd5b05919050565b7ff0c57e16840df040f15088dc2f81fe391c3923bec73e23a9662efc9c229c6a0054600160401b900460ff166104aa57604051631afcd79f60e31b815260040160405180910390fd5b6115ec61159b565b5f80516020611ce3833981519152805460ff19169055565b610dd061159b565b610aa061159b565b803560ff81168114611624575f80fd5b919050565b5f60208284031215611639575f80fd5b61164282611614565b9392505050565b5f60208284031215611659575f80fd5b5035919050565b6001600160a01b03811681146107a1575f80fd5b5f805f805f805f805f806101408b8d03121561168e575f80fd5b8a3561169981611660565b995060208b01356116a981611660565b985060408b01356116b981611660565b975060608b01356116c981611660565b965060808b0135955060a08b013594506116e560c08c01611614565b935060e08b013592506101008b013591506101208b013590509295989b9194979a5092959850565b5f6020828403121561171d575f80fd5b813561164281611660565b634e487b7160e01b5f52601160045260245ffd5b808202811582820484141761154157611541611728565b5f8261176d57634e487b7160e01b5f52601260045260245ffd5b500490565b8082018082111561154157611541611728565b8181038181111561154157611541611728565b5f602082840312156117a8575f80fd5b5051919050565b5f60033d11156117c55760045f803e505f5160e01c5b90565b634e487b7160e01b5f52604160045260245ffd5b6040810181811067ffffffffffffffff821117156117fc576117fc6117c8565b60405250565b60a0810181811067ffffffffffffffff821117156117fc576117fc6117c8565b601f8201601f1916810167ffffffffffffffff81118282101715611848576118486117c8565b6040525050565b5f60443d101561185c5790565b6040516003193d81016004833e81513d67ffffffffffffffff816024840111818411171561188c57505050505090565b82850191508151818111156118a45750505050505090565b843d87010160208285010111156118be5750505050505090565b6118cd60208286010187611822565b509095945050505050565b80518015158114611624575f80fd5b5f602082840312156118f7575f80fd5b611642826118d8565b8181035f83128015838313168383128216171561191f5761191f611728565b5092915050565b60405160c0810167ffffffffffffffff81118282101715611949576119496117c8565b60405290565b5f5b83811015611969578181015183820152602001611951565b50505f910152565b5f82601f830112611980575f80fd5b815167ffffffffffffffff81111561199a5761199a6117c8565b6040516119b1601f8301601f191660200182611822565b8181528460208386010111156119c5575f80fd5b6119d682602083016020870161194f565b949350505050565b805160068110611624575f80fd5b805161162481611660565b5f82601f830112611a06575f80fd5b8151602067ffffffffffffffff821115611a2257611a226117c8565b60408051611a35838560051b0182611822565b83815260069390931b850182019282810187851115611a52575f80fd5b8387015b85811015611a995783818a031215611a6c575f80fd5b8351611a77816117dc565b8151611a8281611660565b815281860151868201528252908401908301611a56565b5090979650505050505050565b5f60208284031215611ab6575f80fd5b815167ffffffffffffffff80821115611acd575f80fd5b9083019060a08286031215611ae0575f80fd5b604051611aec81611802565b82518152602083015182811115611b01575f80fd5b830160c08188031215611b12575f80fd5b611b1a611926565b815184811115611b28575f80fd5b611b3489828501611971565b825250602082015184811115611b48575f80fd5b611b5489828501611971565b602083015250611b66604083016119de565b6040820152606082015184811115611b7c575f80fd5b611b8889828501611971565b606083015250608082015184811115611b9f575f80fd5b611bab89828501611971565b60808301525060a082015184811115611bc2575f80fd5b611bce89828501611971565b60a083015250602083015250604083015182811115611beb575f80fd5b611bf7878286016119f7565b604083015250611c09606084016119ec565b6060820152611c1a608084016118d8565b608082015295945050505050565b634e487b7160e01b5f52603260045260245ffd5b606080825284519082018190525f906020906080840190828801845b82811015611c7d5781516001600160a01b031684529284019290840190600101611c58565b505050838103828501528551808252868301918301905f5b81811015611cb157835183529284019291840191600101611c95565b5050809350505050826040830152949350505050565b5f8251611cd881846020870161194f565b919091019291505056fecd5ed15c6e187e77e9aee88184c21f4f2182ab5827cb3b7e07fbedcd63f033009b779b17422d0df92223018b32b4d1fa46e071723d6817e2486d003becc55f00a2646970667358221220ebfa0740fd3fedcf63c0bf74daa353485f4f7ecb6ca40b0fdeaa7c60d0dca1b764736f6c63430008160033",
			"opcodes": "PUSH1 0x80 PUSH1 0x40 MSTORE CALLVALUE DUP1 ISZERO PUSH2 0xF JUMPI PUSH0 DUP1 REVERT JUMPDEST POP PUSH2 0x1D58 DUP1 PUSH2 0x1D PUSH0 CODECOPY PUSH0 RETURN INVALID PUSH1 0x80 PUSH1 0x40 MSTORE PUSH1 0x4 CALLDATASIZE LT PUSH2 0x13C JUMPI PUSH0 CALLDATALOAD PUSH1 0xE0 SHR DUP1 PUSH4 0x7D9F6DB5 GT PUSH2 0xB3 JUMPI DUP1 PUSH4 0xCE9C7C0D GT PUSH2 0x6D JUMPI DUP1 PUSH4 0xCE9C7C0D EQ PUSH2 0x393 JUMPI DUP1 PUSH4 0xDB2E1EED EQ PUSH2 0x3B2 JUMPI DUP1 PUSH4 0xEC91F2A4 EQ PUSH2 0x3C7 JUMPI DUP1 PUSH4 0xF25EFFFC EQ PUSH2 0x3DC JUMPI DUP1 PUSH4 0xF2FDE38B EQ PUSH2 0x3F0 JUMPI DUP1 PUSH4 0xFE95233B EQ PUSH2 0x40F JUMPI PUSH0 DUP1 REVERT JUMPDEST DUP1 PUSH4 0x7D9F6DB5 EQ PUSH2 0x29A JUMPI DUP1 PUSH4 0x8456CB59 EQ PUSH2 0x30D JUMPI DUP1 PUSH4 0x8DA5CB5B EQ PUSH2 0x321 JUMPI DUP1 PUSH4 0xA4D0A17E EQ PUSH2 0x335 JUMPI DUP1 PUSH4 0xA910D318 EQ PUSH2 0x349 JUMPI DUP1 PUSH4 0xB296024D EQ PUSH2 0x368 JUMPI PUSH0 DUP1 REVERT JUMPDEST DUP1 PUSH4 0x3F4BA83A GT PUSH2 0x104 JUMPI DUP1 PUSH4 0x3F4BA83A EQ PUSH2 0x1F3 JUMPI DUP1 PUSH4 0x3FC8CEF3 EQ PUSH2 0x207 JUMPI DUP1 PUSH4 0x5C975ABB EQ PUSH2 0x226 JUMPI DUP1 PUSH4 0x659DD2B4 EQ PUSH2 0x254 JUMPI DUP1 PUSH4 0x7120334B EQ PUSH2 0x267 JUMPI DUP1 PUSH4 0x715018A6 EQ PUSH2 0x286 JUMPI PUSH0 DUP1 REVERT JUMPDEST DUP1 PUSH4 0x284464A EQ PUSH2 0x140 JUMPI DUP1 PUSH4 0x802BE0A EQ PUSH2 0x17B JUMPI DUP1 PUSH4 0xFB5A6B4 EQ PUSH2 0x19E JUMPI DUP1 PUSH4 0x36EBDB38 EQ PUSH2 0x1B3 JUMPI DUP1 PUSH4 0x3D64BAF1 EQ PUSH2 0x1D4 JUMPI JUMPDEST PUSH0 DUP1 REVERT JUMPDEST CALLVALUE DUP1 ISZERO PUSH2 0x14B JUMPI PUSH0 DUP1 REVERT JUMPDEST POP PUSH0 SLOAD PUSH2 0x15E SWAP1 PUSH1 0x1 PUSH1 0x1 PUSH1 0xA0 SHL SUB AND DUP2 JUMP JUMPDEST PUSH1 0x40 MLOAD PUSH1 0x1 PUSH1 0x1 PUSH1 0xA0 SHL SUB SWAP1 SWAP2 AND DUP2 MSTORE PUSH1 0x20 ADD JUMPDEST PUSH1 0x40 MLOAD DUP1 SWAP2 SUB SWAP1 RETURN JUMPDEST CALLVALUE DUP1 ISZERO PUSH2 0x186 JUMPI PUSH0 DUP1 REVERT JUMPDEST POP PUSH2 0x190 PUSH1 0x6 SLOAD DUP2 JUMP JUMPDEST PUSH1 0x40 MLOAD SWAP1 DUP2 MSTORE PUSH1 0x20 ADD PUSH2 0x172 JUMP JUMPDEST CALLVALUE DUP1 ISZERO PUSH2 0x1A9 JUMPI PUSH0 DUP1 REVERT JUMPDEST POP PUSH2 0x190 PUSH1 0x8 SLOAD DUP2 JUMP JUMPDEST CALLVALUE DUP1 ISZERO PUSH2 0x1BE JUMPI PUSH0 DUP1 REVERT JUMPDEST POP PUSH2 0x1D2 PUSH2 0x1CD CALLDATASIZE PUSH1 0x4 PUSH2 0x1629 JUMP JUMPDEST PUSH2 0x424 JUMP JUMPDEST STOP JUMPDEST CALLVALUE DUP1 ISZERO PUSH2 0x1DF JUMPI PUSH0 DUP1 REVERT JUMPDEST POP PUSH1 0x1 SLOAD PUSH2 0x15E SWAP1 PUSH1 0x1 PUSH1 0x1 PUSH1 0xA0 SHL SUB AND DUP2 JUMP JUMPDEST CALLVALUE DUP1 ISZERO PUSH2 0x1FE JUMPI PUSH0 DUP1 REVERT JUMPDEST POP PUSH2 0x1D2 PUSH2 0x475 JUMP JUMPDEST CALLVALUE DUP1 ISZERO PUSH2 0x212 JUMPI PUSH0 DUP1 REVERT JUMPDEST POP PUSH1 0x2 SLOAD PUSH2 0x15E SWAP1 PUSH1 0x1 PUSH1 0x1 PUSH1 0xA0 SHL SUB AND DUP2 JUMP JUMPDEST CALLVALUE DUP1 ISZERO PUSH2 0x231 JUMPI PUSH0 DUP1 REVERT JUMPDEST POP PUSH0 DUP1 MLOAD PUSH1 0x20 PUSH2 0x1CE3 DUP4 CODECOPY DUP2 MLOAD SWAP2 MSTORE SLOAD PUSH1 0xFF AND PUSH1 0x40 MLOAD SWAP1 ISZERO ISZERO DUP2 MSTORE PUSH1 0x20 ADD PUSH2 0x172 JUMP JUMPDEST PUSH2 0x1D2 PUSH2 0x262 CALLDATASIZE PUSH1 0x4 PUSH2 0x1649 JUMP JUMPDEST PUSH2 0x4AC JUMP JUMPDEST CALLVALUE DUP1 ISZERO PUSH2 0x272 JUMPI PUSH0 DUP1 REVERT JUMPDEST POP PUSH2 0x1D2 PUSH2 0x281 CALLDATASIZE PUSH1 0x4 PUSH2 0x1649 JUMP JUMPDEST PUSH2 0x7A4 JUMP JUMPDEST CALLVALUE DUP1 ISZERO PUSH2 0x291 JUMPI PUSH0 DUP1 REVERT JUMPDEST POP PUSH2 0x1D2 PUSH2 0x7E1 JUMP JUMPDEST CALLVALUE DUP1 ISZERO PUSH2 0x2A5 JUMPI PUSH0 DUP1 REVERT JUMPDEST POP PUSH1 0x9 SLOAD PUSH1 0xA SLOAD PUSH1 0xB SLOAD PUSH1 0xC SLOAD PUSH1 0xD SLOAD PUSH2 0x2D5 SWAP5 SWAP4 SWAP3 SWAP2 SWAP1 PUSH1 0x1 PUSH1 0x1 PUSH1 0xA0 SHL SUB DUP2 AND SWAP1 PUSH1 0x1 PUSH1 0xA0 SHL SWAP1 DIV PUSH1 0xFF AND DUP7 JUMP JUMPDEST PUSH1 0x40 DUP1 MLOAD SWAP7 DUP8 MSTORE PUSH1 0x20 DUP8 ADD SWAP6 SWAP1 SWAP6 MSTORE SWAP4 DUP6 ADD SWAP3 SWAP1 SWAP3 MSTORE PUSH1 0x60 DUP5 ADD MSTORE PUSH1 0x1 PUSH1 0x1 PUSH1 0xA0 SHL SUB AND PUSH1 0x80 DUP4 ADD MSTORE ISZERO ISZERO PUSH1 0xA0 DUP3 ADD MSTORE PUSH1 0xC0 ADD PUSH2 0x172 JUMP JUMPDEST CALLVALUE DUP1 ISZERO PUSH2 0x318 JUMPI PUSH0 DUP1 REVERT JUMPDEST POP PUSH2 0x1D2 PUSH2 0x7F2 JUMP JUMPDEST CALLVALUE DUP1 ISZERO PUSH2 0x32C JUMPI PUSH0 DUP1 REVERT JUMPDEST POP PUSH2 0x15E PUSH2 0x802 JUMP JUMPDEST CALLVALUE DUP1 ISZERO PUSH2 0x340 JUMPI PUSH0 DUP1 REVERT JUMPDEST POP PUSH2 0x1D2 PUSH2 0x830 JUMP JUMPDEST CALLVALUE DUP1 ISZERO PUSH2 0x354 JUMPI PUSH0 DUP1 REVERT JUMPDEST POP PUSH2 0x1D2 PUSH2 0x363 CALLDATASIZE PUSH1 0x4 PUSH2 0x1674 JUMP JUMPDEST PUSH2 0x85E JUMP JUMPDEST CALLVALUE DUP1 ISZERO PUSH2 0x373 JUMPI PUSH0 DUP1 REVERT JUMPDEST POP PUSH1 0x5 SLOAD PUSH2 0x381 SWAP1 PUSH1 0xFF AND DUP2 JUMP JUMPDEST PUSH1 0x40 MLOAD PUSH1 0xFF SWAP1 SWAP2 AND DUP2 MSTORE PUSH1 0x20 ADD PUSH2 0x172 JUMP JUMPDEST CALLVALUE DUP1 ISZERO PUSH2 0x39E JUMPI PUSH0 DUP1 REVERT JUMPDEST POP PUSH2 0x1D2 PUSH2 0x3AD CALLDATASIZE PUSH1 0x4 PUSH2 0x1649 JUMP JUMPDEST PUSH2 0xA3B JUMP JUMPDEST CALLVALUE DUP1 ISZERO PUSH2 0x3BD JUMPI PUSH0 DUP1 REVERT JUMPDEST POP PUSH2 0x190 PUSH1 0x4 SLOAD DUP2 JUMP JUMPDEST CALLVALUE DUP1 ISZERO PUSH2 0x3D2 JUMPI PUSH0 DUP1 REVERT JUMPDEST POP PUSH2 0x190 PUSH1 0x3 SLOAD DUP2 JUMP JUMPDEST CALLVALUE DUP1 ISZERO PUSH2 0x3E7 JUMPI PUSH0 DUP1 REVERT JUMPDEST POP PUSH2 0x1D2 PUSH2 0xA78 JUMP JUMPDEST CALLVALUE DUP1 ISZERO PUSH2 0x3FB JUMPI PUSH0 DUP1 REVERT JUMPDEST POP PUSH2 0x1D2 PUSH2 0x40A CALLDATASIZE PUSH1 0x4 PUSH2 0x170D JUMP JUMPDEST PUSH2 0xA98 JUMP JUMPDEST CALLVALUE DUP1 ISZERO PUSH2 0x41A JUMPI PUSH0 DUP1 REVERT JUMPDEST POP PUSH2 0x190 PUSH1 0x7 SLOAD DUP2 JUMP JUMPDEST PUSH2 0x42C PUSH2 0xAD2 JUMP JUMPDEST PUSH1 0x5 DUP1 SLOAD PUSH1 0xFF NOT AND PUSH1 0xFF DUP4 AND SWAP1 DUP2 OR SWAP1 SWAP2 SSTORE PUSH1 0x40 MLOAD SWAP1 DUP2 MSTORE PUSH32 0xEC5CCD96CC77B6219E9D44143DF916AF68FC169339EA7DE5008FF15EAE13450D SWAP1 PUSH1 0x20 ADD JUMPDEST PUSH1 0x40 MLOAD DUP1 SWAP2 SUB SWAP1 LOG1 POP JUMP JUMPDEST PUSH2 0x47D PUSH2 0xAD2 JUMP JUMPDEST PUSH2 0x485 PUSH2 0xB04 JUMP JUMPDEST PUSH1 0xB SLOAD ISZERO DUP1 PUSH2 0x49D JUMPI POP PUSH1 0xD SLOAD PUSH1 0x1 PUSH1 0xA0 SHL SWAP1 DIV PUSH1 0xFF AND JUMPDEST ISZERO PUSH2 0x4AA JUMPI PUSH2 0x4AA PUSH2 0xB5D JUMP JUMPDEST JUMP JUMPDEST PUSH2 0x4B4 PUSH2 0xCAC JUMP JUMPDEST PUSH1 0x40 DUP1 MLOAD PUSH1 0xC0 DUP2 ADD DUP3 MSTORE PUSH1 0x9 SLOAD DUP1 DUP3 MSTORE PUSH1 0xA SLOAD PUSH1 0x20 DUP4 ADD MSTORE PUSH1 0xB SLOAD SWAP3 DUP3 ADD SWAP3 SWAP1 SWAP3 MSTORE PUSH1 0xC SLOAD PUSH1 0x60 DUP3 ADD MSTORE PUSH1 0xD SLOAD PUSH1 0x1 PUSH1 0x1 PUSH1 0xA0 SHL SUB DUP2 AND PUSH1 0x80 DUP4 ADD MSTORE PUSH1 0x1 PUSH1 0xA0 SHL SWAP1 DIV PUSH1 0xFF AND ISZERO ISZERO PUSH1 0xA0 DUP3 ADD MSTORE SWAP1 DUP3 EQ PUSH2 0x555 JUMPI PUSH1 0x40 MLOAD PUSH3 0x461BCD PUSH1 0xE5 SHL DUP2 MSTORE PUSH1 0x20 PUSH1 0x4 DUP3 ADD MSTORE PUSH1 0x17 PUSH1 0x24 DUP3 ADD MSTORE PUSH32 0x56657262206E6F7420757020666F722061756374696F6E000000000000000000 PUSH1 0x44 DUP3 ADD MSTORE PUSH1 0x64 ADD JUMPDEST PUSH1 0x40 MLOAD DUP1 SWAP2 SUB SWAP1 REVERT JUMPDEST DUP1 PUSH1 0x60 ADD MLOAD TIMESTAMP LT PUSH2 0x59A JUMPI PUSH1 0x40 MLOAD PUSH3 0x461BCD PUSH1 0xE5 SHL DUP2 MSTORE PUSH1 0x20 PUSH1 0x4 DUP3 ADD MSTORE PUSH1 0xF PUSH1 0x24 DUP3 ADD MSTORE PUSH15 0x105D58DD1A5BDB88195E1C1A5C9959 PUSH1 0x8A SHL PUSH1 0x44 DUP3 ADD MSTORE PUSH1 0x64 ADD PUSH2 0x54C JUMP JUMPDEST PUSH1 0x4 SLOAD CALLVALUE LT ISZERO PUSH2 0x5EC JUMPI PUSH1 0x40 MLOAD PUSH3 0x461BCD PUSH1 0xE5 SHL DUP2 MSTORE PUSH1 0x20 PUSH1 0x4 DUP3 ADD MSTORE PUSH1 0x1F PUSH1 0x24 DUP3 ADD MSTORE PUSH32 0x4D7573742073656E64206174206C656173742072657365727665507269636500 PUSH1 0x44 DUP3 ADD MSTORE PUSH1 0x64 ADD PUSH2 0x54C JUMP JUMPDEST PUSH1 0x5 SLOAD PUSH1 0x20 DUP3 ADD MLOAD PUSH1 0x64 SWAP2 PUSH2 0x606 SWAP2 PUSH1 0xFF SWAP1 SWAP2 AND SWAP1 PUSH2 0x173C JUMP JUMPDEST PUSH2 0x610 SWAP2 SWAP1 PUSH2 0x1753 JUMP JUMPDEST DUP2 PUSH1 0x20 ADD MLOAD PUSH2 0x61F SWAP2 SWAP1 PUSH2 0x1772 JUMP JUMPDEST CALLVALUE LT ISZERO PUSH2 0x696 JUMPI PUSH1 0x40 DUP1 MLOAD PUSH3 0x461BCD PUSH1 0xE5 SHL DUP2 MSTORE PUSH1 0x20 PUSH1 0x4 DUP3 ADD MSTORE PUSH1 0x24 DUP2 ADD SWAP2 SWAP1 SWAP2 MSTORE PUSH32 0x4D7573742073656E64206D6F7265207468616E206C6173742062696420627920 PUSH1 0x44 DUP3 ADD MSTORE PUSH32 0x6D696E426964496E6372656D656E7450657263656E7461676520616D6F756E74 PUSH1 0x64 DUP3 ADD MSTORE PUSH1 0x84 ADD PUSH2 0x54C JUMP JUMPDEST PUSH1 0x80 DUP2 ADD MLOAD PUSH1 0x1 PUSH1 0x1 PUSH1 0xA0 SHL SUB DUP2 AND ISZERO PUSH2 0x6B8 JUMPI PUSH2 0x6B8 DUP2 DUP4 PUSH1 0x20 ADD MLOAD PUSH2 0xCE3 JUMP JUMPDEST CALLVALUE PUSH1 0xA SSTORE PUSH1 0xD DUP1 SLOAD PUSH1 0x1 PUSH1 0x1 PUSH1 0xA0 SHL SUB NOT AND CALLER OR SWAP1 SSTORE PUSH1 0x3 SLOAD PUSH1 0x60 DUP4 ADD MLOAD PUSH0 SWAP2 SWAP1 PUSH2 0x6E4 SWAP1 TIMESTAMP SWAP1 PUSH2 0x1785 JUMP JUMPDEST LT SWAP1 POP DUP1 ISZERO PUSH2 0x705 JUMPI PUSH1 0x3 SLOAD PUSH2 0x6FA SWAP1 TIMESTAMP PUSH2 0x1772 JUMP JUMPDEST PUSH1 0x60 DUP5 ADD DUP2 SWAP1 MSTORE PUSH1 0xC SSTORE JUMPDEST DUP3 MLOAD PUSH1 0x40 DUP1 MLOAD CALLER DUP2 MSTORE CALLVALUE PUSH1 0x20 DUP3 ADD MSTORE DUP4 ISZERO ISZERO DUP2 DUP4 ADD MSTORE SWAP1 MLOAD PUSH32 0x1159164C56F277E6FC99C11731BD380E0347DEB969B75523398734C252706EA3 SWAP2 DUP2 SWAP1 SUB PUSH1 0x60 ADD SWAP1 LOG2 DUP1 ISZERO PUSH2 0x788 JUMPI DUP3 MLOAD PUSH1 0x60 DUP5 ADD MLOAD PUSH1 0x40 MLOAD SWAP1 DUP2 MSTORE PUSH32 0x6E912A3A9105BDD2AF817BA5ADC14E6C127C1035B5B648FAA29CA0D58AB8FF4E SWAP1 PUSH1 0x20 ADD PUSH1 0x40 MLOAD DUP1 SWAP2 SUB SWAP1 LOG2 JUMPDEST POP POP POP PUSH2 0x7A1 PUSH1 0x1 PUSH0 DUP1 MLOAD PUSH1 0x20 PUSH2 0x1D03 DUP4 CODECOPY DUP2 MLOAD SWAP2 MSTORE SSTORE JUMP JUMPDEST POP JUMP JUMPDEST PUSH2 0x7AC PUSH2 0xAD2 JUMP JUMPDEST PUSH1 0x3 DUP2 SWAP1 SSTORE PUSH1 0x40 MLOAD DUP2 DUP2 MSTORE PUSH32 0x1B55D9F7002BDA4490F467E326F22A4A847629C0F2D1ED421607D318D25B410D SWAP1 PUSH1 0x20 ADD PUSH2 0x46A JUMP JUMPDEST PUSH2 0x7E9 PUSH2 0xAD2 JUMP JUMPDEST PUSH2 0x4AA PUSH0 PUSH2 0xDE3 JUMP JUMPDEST PUSH2 0x7FA PUSH2 0xAD2 JUMP JUMPDEST PUSH2 0x4AA PUSH2 0xE53 JUMP JUMPDEST PUSH32 0x9016D09D72D40FDAE2FD8CEAC6B6234C7706214FD39C1CD1E609A0528C199300 SLOAD PUSH1 0x1 PUSH1 0x1 PUSH1 0xA0 SHL SUB AND SWAP1 JUMP JUMPDEST PUSH2 0x838 PUSH2 0xE9B JUMP JUMPDEST PUSH2 0x840 PUSH2 0xCAC JUMP JUMPDEST PUSH2 0x848 PUSH2 0xECA JUMP JUMPDEST PUSH2 0x4AA PUSH1 0x1 PUSH0 DUP1 MLOAD PUSH1 0x20 PUSH2 0x1D03 DUP4 CODECOPY DUP2 MLOAD SWAP2 MSTORE SSTORE JUMP JUMPDEST PUSH32 0xF0C57E16840DF040F15088DC2F81FE391C3923BEC73E23A9662EFC9C229C6A00 DUP1 SLOAD PUSH1 0x1 PUSH1 0x40 SHL DUP2 DIV PUSH1 0xFF AND ISZERO SWAP1 PUSH8 0xFFFFFFFFFFFFFFFF AND PUSH0 DUP2 ISZERO DUP1 ISZERO PUSH2 0x8A3 JUMPI POP DUP3 JUMPDEST SWAP1 POP PUSH0 DUP3 PUSH8 0xFFFFFFFFFFFFFFFF AND PUSH1 0x1 EQ DUP1 ISZERO PUSH2 0x8BF JUMPI POP ADDRESS EXTCODESIZE ISZERO JUMPDEST SWAP1 POP DUP2 ISZERO DUP1 ISZERO PUSH2 0x8CD JUMPI POP DUP1 ISZERO JUMPDEST ISZERO PUSH2 0x8EB JUMPI PUSH1 0x40 MLOAD PUSH4 0xF92EE8A9 PUSH1 0xE0 SHL DUP2 MSTORE PUSH1 0x4 ADD PUSH1 0x40 MLOAD DUP1 SWAP2 SUB SWAP1 REVERT JUMPDEST DUP5 SLOAD PUSH8 0xFFFFFFFFFFFFFFFF NOT AND PUSH1 0x1 OR DUP6 SSTORE DUP4 ISZERO PUSH2 0x915 JUMPI DUP5 SLOAD PUSH1 0xFF PUSH1 0x40 SHL NOT AND PUSH1 0x1 PUSH1 0x40 SHL OR DUP6 SSTORE JUMPDEST PUSH2 0x91D PUSH2 0x146A JUMP JUMPDEST PUSH2 0x925 PUSH2 0x147A JUMP JUMPDEST PUSH2 0x92E DUP13 PUSH2 0x148A JUMP JUMPDEST PUSH2 0x936 PUSH2 0xE53 JUMP JUMPDEST DUP15 PUSH0 DUP1 PUSH2 0x100 EXP DUP2 SLOAD DUP2 PUSH1 0x1 PUSH1 0x1 PUSH1 0xA0 SHL SUB MUL NOT AND SWAP1 DUP4 PUSH1 0x1 PUSH1 0x1 PUSH1 0xA0 SHL SUB AND MUL OR SWAP1 SSTORE POP DUP14 PUSH1 0x1 PUSH0 PUSH2 0x100 EXP DUP2 SLOAD DUP2 PUSH1 0x1 PUSH1 0x1 PUSH1 0xA0 SHL SUB MUL NOT AND SWAP1 DUP4 PUSH1 0x1 PUSH1 0x1 PUSH1 0xA0 SHL SUB AND MUL OR SWAP1 SSTORE POP DUP13 PUSH1 0x2 PUSH0 PUSH2 0x100 EXP DUP2 SLOAD DUP2 PUSH1 0x1 PUSH1 0x1 PUSH1 0xA0 SHL SUB MUL NOT AND SWAP1 DUP4 PUSH1 0x1 PUSH1 0x1 PUSH1 0xA0 SHL SUB AND MUL OR SWAP1 SSTORE POP DUP11 PUSH1 0x3 DUP2 SWAP1 SSTORE POP DUP10 PUSH1 0x4 DUP2 SWAP1 SSTORE POP DUP9 PUSH1 0x5 PUSH0 PUSH2 0x100 EXP DUP2 SLOAD DUP2 PUSH1 0xFF MUL NOT AND SWAP1 DUP4 PUSH1 0xFF AND MUL OR SWAP1 SSTORE POP DUP8 PUSH1 0x8 DUP2 SWAP1 SSTORE POP DUP7 PUSH1 0x6 DUP2 SWAP1 SSTORE POP DUP6 PUSH1 0x7 DUP2 SWAP1 SSTORE POP DUP4 ISZERO PUSH2 0xA2A JUMPI DUP5 SLOAD PUSH1 0xFF PUSH1 0x40 SHL NOT AND DUP6 SSTORE PUSH1 0x40 MLOAD PUSH1 0x1 DUP2 MSTORE PUSH32 0xC7F505B2F371AE2175EE4913F4499E1F2633A7B5936321EED1CDAEB6115181D2 SWAP1 PUSH1 0x20 ADD PUSH1 0x40 MLOAD DUP1 SWAP2 SUB SWAP1 LOG1 JUMPDEST POP POP POP POP POP POP POP POP POP POP POP POP POP POP POP JUMP JUMPDEST PUSH2 0xA43 PUSH2 0xAD2 JUMP JUMPDEST PUSH1 0x4 DUP2 SWAP1 SSTORE PUSH1 0x40 MLOAD DUP2 DUP2 MSTORE PUSH32 0x6AB2E127D7FDF53B8F304E59D3AAB5BFE97979F52A85479691A6FAB27A28A6B2 SWAP1 PUSH1 0x20 ADD PUSH2 0x46A JUMP JUMPDEST PUSH2 0xA80 PUSH2 0xCAC JUMP JUMPDEST PUSH2 0xA88 PUSH2 0x149B JUMP JUMPDEST PUSH2 0xA90 PUSH2 0xECA JUMP JUMPDEST PUSH2 0x848 PUSH2 0xB5D JUMP JUMPDEST PUSH2 0xAA0 PUSH2 0xAD2 JUMP JUMPDEST PUSH1 0x1 PUSH1 0x1 PUSH1 0xA0 SHL SUB DUP2 AND PUSH2 0xAC9 JUMPI PUSH1 0x40 MLOAD PUSH4 0x1E4FBDF7 PUSH1 0xE0 SHL DUP2 MSTORE PUSH0 PUSH1 0x4 DUP3 ADD MSTORE PUSH1 0x24 ADD PUSH2 0x54C JUMP JUMPDEST PUSH2 0x7A1 DUP2 PUSH2 0xDE3 JUMP JUMPDEST CALLER PUSH2 0xADB PUSH2 0x802 JUMP JUMPDEST PUSH1 0x1 PUSH1 0x1 PUSH1 0xA0 SHL SUB AND EQ PUSH2 0x4AA JUMPI PUSH1 0x40 MLOAD PUSH4 0x118CDAA7 PUSH1 0xE0 SHL DUP2 MSTORE CALLER PUSH1 0x4 DUP3 ADD MSTORE PUSH1 0x24 ADD PUSH2 0x54C JUMP JUMPDEST PUSH2 0xB0C PUSH2 0xE9B JUMP JUMPDEST PUSH0 DUP1 MLOAD PUSH1 0x20 PUSH2 0x1CE3 DUP4 CODECOPY DUP2 MLOAD SWAP2 MSTORE DUP1 SLOAD PUSH1 0xFF NOT AND DUP2 SSTORE PUSH32 0x5DB9EE0A495BF2E6FF9C91A7834C1BA4FDD244A5E8AA4E537BD38AEAE4B073AA CALLER JUMPDEST PUSH1 0x40 MLOAD PUSH1 0x1 PUSH1 0x1 PUSH1 0xA0 SHL SUB SWAP1 SWAP2 AND DUP2 MSTORE PUSH1 0x20 ADD PUSH2 0x46A JUMP JUMPDEST PUSH0 DUP1 SLOAD SWAP1 PUSH2 0x100 EXP SWAP1 DIV PUSH1 0x1 PUSH1 0x1 PUSH1 0xA0 SHL SUB AND PUSH1 0x1 PUSH1 0x1 PUSH1 0xA0 SHL SUB AND PUSH4 0x1249C58B PUSH1 0x40 MLOAD DUP2 PUSH4 0xFFFFFFFF AND PUSH1 0xE0 SHL DUP2 MSTORE PUSH1 0x4 ADD PUSH1 0x20 PUSH1 0x40 MLOAD DUP1 DUP4 SUB DUP2 PUSH0 DUP8 GAS CALL SWAP3 POP POP POP DUP1 ISZERO PUSH2 0xBCA JUMPI POP PUSH1 0x40 DUP1 MLOAD PUSH1 0x1F RETURNDATASIZE SWAP1 DUP2 ADD PUSH1 0x1F NOT AND DUP3 ADD SWAP1 SWAP3 MSTORE PUSH2 0xBC7 SWAP2 DUP2 ADD SWAP1 PUSH2 0x1798 JUMP JUMPDEST PUSH1 0x1 JUMPDEST PUSH2 0xC07 JUMPI PUSH2 0xBD6 PUSH2 0x17AF JUMP JUMPDEST DUP1 PUSH4 0x8C379A0 SUB PUSH2 0xBFD JUMPI POP PUSH2 0xBEA PUSH2 0x184F JUMP JUMPDEST DUP1 PUSH2 0xBF5 JUMPI POP PUSH2 0xBFF JUMP JUMPDEST PUSH2 0x7A1 PUSH2 0xE53 JUMP JUMPDEST POP JUMPDEST RETURNDATASIZE PUSH0 DUP1 RETURNDATACOPY RETURNDATASIZE PUSH0 REVERT JUMPDEST PUSH1 0x8 SLOAD TIMESTAMP SWAP1 PUSH0 SWAP1 PUSH2 0xC18 SWAP1 DUP4 PUSH2 0x1772 JUMP JUMPDEST PUSH1 0x40 DUP1 MLOAD PUSH1 0xC0 DUP2 ADD DUP3 MSTORE DUP6 DUP2 MSTORE PUSH0 PUSH1 0x20 DUP1 DUP4 ADD DUP3 SWAP1 MSTORE DUP3 DUP5 ADD DUP8 SWAP1 MSTORE PUSH1 0x60 DUP4 ADD DUP6 SWAP1 MSTORE PUSH1 0x80 DUP4 ADD DUP3 SWAP1 MSTORE PUSH1 0xA0 SWAP1 SWAP3 ADD DUP2 SWAP1 MSTORE PUSH1 0x9 DUP8 SWAP1 SSTORE PUSH1 0xA SSTORE PUSH1 0xB DUP6 SWAP1 SSTORE PUSH1 0xC DUP4 SWAP1 SSTORE PUSH1 0xD DUP1 SLOAD PUSH1 0x1 PUSH1 0x1 PUSH1 0xA8 SHL SUB NOT AND SWAP1 SSTORE DUP2 MLOAD DUP6 DUP2 MSTORE SWAP1 DUP2 ADD DUP4 SWAP1 MSTORE SWAP2 SWAP3 POP DUP5 SWAP2 PUSH32 0xD6EDDD1118D71820909C1197AA966DBC15ED6F508554252169CC3D5CCAC756CA SWAP2 ADD PUSH1 0x40 MLOAD DUP1 SWAP2 SUB SWAP1 LOG2 POP POP POP JUMP JUMPDEST PUSH0 DUP1 MLOAD PUSH1 0x20 PUSH2 0x1D03 DUP4 CODECOPY DUP2 MLOAD SWAP2 MSTORE DUP1 SLOAD PUSH1 0x1 NOT ADD PUSH2 0xCDD JUMPI PUSH1 0x40 MLOAD PUSH4 0x3EE5AEB5 PUSH1 0xE0 SHL DUP2 MSTORE PUSH1 0x4 ADD PUSH1 0x40 MLOAD DUP1 SWAP2 SUB SWAP1 REVERT JUMPDEST PUSH1 0x2 SWAP1 SSTORE JUMP JUMPDEST PUSH2 0xCED DUP3 DUP3 PUSH2 0x14CB JUMP JUMPDEST PUSH2 0xDCC JUMPI PUSH1 0x2 PUSH0 SWAP1 SLOAD SWAP1 PUSH2 0x100 EXP SWAP1 DIV PUSH1 0x1 PUSH1 0x1 PUSH1 0xA0 SHL SUB AND PUSH1 0x1 PUSH1 0x1 PUSH1 0xA0 SHL SUB AND PUSH4 0xD0E30DB0 DUP3 PUSH1 0x40 MLOAD DUP3 PUSH4 0xFFFFFFFF AND PUSH1 0xE0 SHL DUP2 MSTORE PUSH1 0x4 ADD PUSH0 PUSH1 0x40 MLOAD DUP1 DUP4 SUB DUP2 DUP6 DUP9 DUP1 EXTCODESIZE ISZERO DUP1 ISZERO PUSH2 0xD3E JUMPI PUSH0 DUP1 REVERT JUMPDEST POP GAS CALL ISZERO DUP1 ISZERO PUSH2 0xD50 JUMPI RETURNDATASIZE PUSH0 DUP1 RETURNDATACOPY RETURNDATASIZE PUSH0 REVERT JUMPDEST POP POP PUSH1 0x2 SLOAD PUSH1 0x40 MLOAD PUSH4 0xA9059CBB PUSH1 0xE0 SHL DUP2 MSTORE PUSH1 0x1 PUSH1 0x1 PUSH1 0xA0 SHL SUB DUP8 DUP2 AND PUSH1 0x4 DUP4 ADD MSTORE PUSH1 0x24 DUP3 ADD DUP8 SWAP1 MSTORE SWAP1 SWAP2 AND SWAP4 POP PUSH4 0xA9059CBB SWAP3 POP PUSH1 0x44 ADD SWAP1 POP PUSH1 0x20 PUSH1 0x40 MLOAD DUP1 DUP4 SUB DUP2 PUSH0 DUP8 GAS CALL ISZERO DUP1 ISZERO PUSH2 0xDA6 JUMPI RETURNDATASIZE PUSH0 DUP1 RETURNDATACOPY RETURNDATASIZE PUSH0 REVERT JUMPDEST POP POP POP POP PUSH1 0x40 MLOAD RETURNDATASIZE PUSH1 0x1F NOT PUSH1 0x1F DUP3 ADD AND DUP3 ADD DUP1 PUSH1 0x40 MSTORE POP DUP2 ADD SWAP1 PUSH2 0xDCA SWAP2 SWAP1 PUSH2 0x18E7 JUMP JUMPDEST POP JUMPDEST POP POP JUMP JUMPDEST PUSH1 0x1 PUSH0 DUP1 MLOAD PUSH1 0x20 PUSH2 0x1D03 DUP4 CODECOPY DUP2 MLOAD SWAP2 MSTORE SSTORE JUMP JUMPDEST PUSH32 0x9016D09D72D40FDAE2FD8CEAC6B6234C7706214FD39C1CD1E609A0528C199300 DUP1 SLOAD PUSH1 0x1 PUSH1 0x1 PUSH1 0xA0 SHL SUB NOT DUP2 AND PUSH1 0x1 PUSH1 0x1 PUSH1 0xA0 SHL SUB DUP5 DUP2 AND SWAP2 DUP3 OR DUP5 SSTORE PUSH1 0x40 MLOAD SWAP3 AND SWAP2 DUP3 SWAP1 PUSH32 0x8BE0079C531659141344CD1FD0A4F28419497F9722A3DAAFE3B4186F6B6457E0 SWAP1 PUSH0 SWAP1 LOG3 POP POP POP JUMP JUMPDEST PUSH2 0xE5B PUSH2 0x149B JUMP JUMPDEST PUSH0 DUP1 MLOAD PUSH1 0x20 PUSH2 0x1CE3 DUP4 CODECOPY DUP2 MLOAD SWAP2 MSTORE DUP1 SLOAD PUSH1 0xFF NOT AND PUSH1 0x1 OR DUP2 SSTORE PUSH32 0x62E78CEA01BEE320CD4E420270B5EA74000D11B0C9F74754EBDBFC544B05A258 CALLER PUSH2 0xB45 JUMP JUMPDEST PUSH0 DUP1 MLOAD PUSH1 0x20 PUSH2 0x1CE3 DUP4 CODECOPY DUP2 MLOAD SWAP2 MSTORE SLOAD PUSH1 0xFF AND PUSH2 0x4AA JUMPI PUSH1 0x40 MLOAD PUSH4 0x8DFC202B PUSH1 0xE0 SHL DUP2 MSTORE PUSH1 0x4 ADD PUSH1 0x40 MLOAD DUP1 SWAP2 SUB SWAP1 REVERT JUMPDEST PUSH1 0x40 DUP1 MLOAD PUSH1 0xC0 DUP2 ADD DUP3 MSTORE PUSH1 0x9 SLOAD DUP2 MSTORE PUSH1 0xA SLOAD PUSH1 0x20 DUP3 ADD MSTORE PUSH1 0xB SLOAD SWAP2 DUP2 ADD DUP3 SWAP1 MSTORE PUSH1 0xC SLOAD PUSH1 0x60 DUP3 ADD MSTORE PUSH1 0xD SLOAD PUSH1 0x1 PUSH1 0x1 PUSH1 0xA0 SHL SUB DUP2 AND PUSH1 0x80 DUP4 ADD MSTORE PUSH1 0x1 PUSH1 0xA0 SHL SWAP1 DIV PUSH1 0xFF AND ISZERO ISZERO PUSH1 0xA0 DUP3 ADD MSTORE SWAP1 PUSH0 SUB PUSH2 0xF5B JUMPI PUSH1 0x40 MLOAD PUSH3 0x461BCD PUSH1 0xE5 SHL DUP2 MSTORE PUSH1 0x20 PUSH1 0x4 DUP3 ADD MSTORE PUSH1 0x14 PUSH1 0x24 DUP3 ADD MSTORE PUSH20 0x20BAB1BA34B7B7103430B9B713BA103132B3BAB7 PUSH1 0x61 SHL PUSH1 0x44 DUP3 ADD MSTORE PUSH1 0x64 ADD PUSH2 0x54C JUMP JUMPDEST DUP1 PUSH1 0xA0 ADD MLOAD ISZERO PUSH2 0xFAD JUMPI PUSH1 0x40 MLOAD PUSH3 0x461BCD PUSH1 0xE5 SHL DUP2 MSTORE PUSH1 0x20 PUSH1 0x4 DUP3 ADD DUP2 SWAP1 MSTORE PUSH1 0x24 DUP3 ADD MSTORE PUSH32 0x41756374696F6E2068617320616C7265616479206265656E20736574746C6564 PUSH1 0x44 DUP3 ADD MSTORE PUSH1 0x64 ADD PUSH2 0x54C JUMP JUMPDEST DUP1 PUSH1 0x60 ADD MLOAD TIMESTAMP LT ISZERO PUSH2 0x1001 JUMPI PUSH1 0x40 MLOAD PUSH3 0x461BCD PUSH1 0xE5 SHL DUP2 MSTORE PUSH1 0x20 PUSH1 0x4 DUP3 ADD MSTORE PUSH1 0x18 PUSH1 0x24 DUP3 ADD MSTORE PUSH32 0x41756374696F6E206861736E277420636F6D706C657465640000000000000000 PUSH1 0x44 DUP3 ADD MSTORE PUSH1 0x64 ADD PUSH2 0x54C JUMP JUMPDEST PUSH1 0xD DUP1 SLOAD PUSH1 0xFF PUSH1 0xA0 SHL NOT AND PUSH1 0x1 PUSH1 0xA0 SHL OR SWAP1 SSTORE PUSH1 0x80 DUP2 ADD MLOAD PUSH1 0x1 PUSH1 0x1 PUSH1 0xA0 SHL SUB AND PUSH2 0x108B JUMPI PUSH0 SLOAD DUP2 MLOAD PUSH1 0x40 MLOAD PUSH4 0x852CD8D PUSH1 0xE3 SHL DUP2 MSTORE PUSH1 0x1 PUSH1 0x1 PUSH1 0xA0 SHL SUB SWAP1 SWAP3 AND SWAP2 PUSH4 0x42966C68 SWAP2 PUSH2 0x1059 SWAP2 PUSH1 0x4 ADD SWAP1 DUP2 MSTORE PUSH1 0x20 ADD SWAP1 JUMP JUMPDEST PUSH0 PUSH1 0x40 MLOAD DUP1 DUP4 SUB DUP2 PUSH0 DUP8 DUP1 EXTCODESIZE ISZERO DUP1 ISZERO PUSH2 0x1070 JUMPI PUSH0 DUP1 REVERT JUMPDEST POP GAS CALL ISZERO DUP1 ISZERO PUSH2 0x1082 JUMPI RETURNDATASIZE PUSH0 DUP1 RETURNDATACOPY RETURNDATASIZE PUSH0 REVERT JUMPDEST POP POP POP POP PUSH2 0x10F9 JUMP JUMPDEST PUSH0 SLOAD PUSH1 0x80 DUP3 ADD MLOAD DUP3 MLOAD PUSH1 0x40 MLOAD PUSH4 0x23B872DD PUSH1 0xE0 SHL DUP2 MSTORE ADDRESS PUSH1 0x4 DUP3 ADD MSTORE PUSH1 0x1 PUSH1 0x1 PUSH1 0xA0 SHL SUB SWAP3 DUP4 AND PUSH1 0x24 DUP3 ADD MSTORE PUSH1 0x44 DUP2 ADD SWAP2 SWAP1 SWAP2 MSTORE SWAP2 AND SWAP1 PUSH4 0x23B872DD SWAP1 PUSH1 0x64 ADD PUSH0 PUSH1 0x40 MLOAD DUP1 DUP4 SUB DUP2 PUSH0 DUP8 DUP1 EXTCODESIZE ISZERO DUP1 ISZERO PUSH2 0x10E2 JUMPI PUSH0 DUP1 REVERT JUMPDEST POP GAS CALL ISZERO DUP1 ISZERO PUSH2 0x10F4 JUMPI RETURNDATASIZE PUSH0 DUP1 RETURNDATACOPY RETURNDATASIZE PUSH0 REVERT JUMPDEST POP POP POP POP JUMPDEST PUSH1 0x20 DUP2 ADD MLOAD ISZERO PUSH2 0x141A JUMPI PUSH0 PUSH2 0x112C PUSH2 0x1124 DUP4 PUSH1 0x20 ADD MLOAD PUSH1 0x6 SLOAD PUSH2 0x2710 PUSH2 0x111F SWAP2 SWAP1 PUSH2 0x1900 JUMP JUMPDEST PUSH2 0x1547 JUMP JUMPDEST PUSH2 0x2710 PUSH2 0x1578 JUMP JUMPDEST SWAP1 POP PUSH0 DUP2 DUP4 PUSH1 0x20 ADD MLOAD PUSH2 0x113F SWAP2 SWAP1 PUSH2 0x1785 JUMP JUMPDEST SWAP1 POP PUSH0 PUSH2 0x1151 PUSH2 0x1124 DUP4 PUSH1 0x7 SLOAD PUSH2 0x1547 JUMP JUMPDEST SWAP1 POP PUSH0 PUSH2 0x115E DUP3 DUP5 PUSH2 0x1785 JUMP JUMPDEST PUSH0 DUP1 SLOAD DUP8 MLOAD PUSH1 0x40 MLOAD PUSH4 0x24D19AB1 PUSH1 0xE1 SHL DUP2 MSTORE PUSH1 0x4 DUP2 ADD SWAP2 SWAP1 SWAP2 MSTORE SWAP3 SWAP4 POP SWAP1 SWAP2 PUSH1 0x1 PUSH1 0x1 PUSH1 0xA0 SHL SUB SWAP1 SWAP2 AND SWAP1 PUSH4 0x49A33562 SWAP1 PUSH1 0x24 ADD PUSH0 PUSH1 0x40 MLOAD DUP1 DUP4 SUB DUP2 DUP7 GAS STATICCALL ISZERO DUP1 ISZERO PUSH2 0x11AC JUMPI RETURNDATASIZE PUSH0 DUP1 RETURNDATACOPY RETURNDATASIZE PUSH0 REVERT JUMPDEST POP POP POP POP PUSH1 0x40 MLOAD RETURNDATASIZE PUSH0 DUP3 RETURNDATACOPY PUSH1 0x1F RETURNDATASIZE SWAP1 DUP2 ADD PUSH1 0x1F NOT AND DUP3 ADD PUSH1 0x40 MSTORE PUSH2 0x11D3 SWAP2 SWAP1 DUP2 ADD SWAP1 PUSH2 0x1AA6 JUMP JUMPDEST PUSH1 0x40 ADD MLOAD MLOAD SWAP1 POP PUSH0 DUP2 PUSH8 0xFFFFFFFFFFFFFFFF DUP2 GT ISZERO PUSH2 0x11F4 JUMPI PUSH2 0x11F4 PUSH2 0x17C8 JUMP JUMPDEST PUSH1 0x40 MLOAD SWAP1 DUP1 DUP3 MSTORE DUP1 PUSH1 0x20 MUL PUSH1 0x20 ADD DUP3 ADD PUSH1 0x40 MSTORE DUP1 ISZERO PUSH2 0x121D JUMPI DUP2 PUSH1 0x20 ADD PUSH1 0x20 DUP3 MUL DUP1 CALLDATASIZE DUP4 CALLDATACOPY ADD SWAP1 POP JUMPDEST POP SWAP1 POP PUSH0 DUP3 PUSH8 0xFFFFFFFFFFFFFFFF DUP2 GT ISZERO PUSH2 0x123A JUMPI PUSH2 0x123A PUSH2 0x17C8 JUMP JUMPDEST PUSH1 0x40 MLOAD SWAP1 DUP1 DUP3 MSTORE DUP1 PUSH1 0x20 MUL PUSH1 0x20 ADD DUP3 ADD PUSH1 0x40 MSTORE DUP1 ISZERO PUSH2 0x1263 JUMPI DUP2 PUSH1 0x20 ADD PUSH1 0x20 DUP3 MUL DUP1 CALLDATASIZE DUP4 CALLDATACOPY ADD SWAP1 POP JUMPDEST POP SWAP1 POP PUSH2 0x1277 PUSH2 0x1271 PUSH2 0x802 JUMP JUMPDEST DUP9 PUSH2 0xCE3 JUMP JUMPDEST PUSH0 JUMPDEST DUP4 DUP2 LT ISZERO PUSH2 0x1399 JUMPI PUSH0 DUP1 SLOAD DUP11 MLOAD PUSH1 0x40 MLOAD PUSH4 0x24D19AB1 PUSH1 0xE1 SHL DUP2 MSTORE PUSH1 0x1 PUSH1 0x1 PUSH1 0xA0 SHL SUB SWAP1 SWAP3 AND SWAP2 PUSH4 0x49A33562 SWAP2 PUSH2 0x12B5 SWAP2 PUSH1 0x4 ADD SWAP1 DUP2 MSTORE PUSH1 0x20 ADD SWAP1 JUMP JUMPDEST PUSH0 PUSH1 0x40 MLOAD DUP1 DUP4 SUB DUP2 DUP7 GAS STATICCALL ISZERO DUP1 ISZERO PUSH2 0x12CF JUMPI RETURNDATASIZE PUSH0 DUP1 RETURNDATACOPY RETURNDATASIZE PUSH0 REVERT JUMPDEST POP POP POP POP PUSH1 0x40 MLOAD RETURNDATASIZE PUSH0 DUP3 RETURNDATACOPY PUSH1 0x1F RETURNDATASIZE SWAP1 DUP2 ADD PUSH1 0x1F NOT AND DUP3 ADD PUSH1 0x40 MSTORE PUSH2 0x12F6 SWAP2 SWAP1 DUP2 ADD SWAP1 PUSH2 0x1AA6 JUMP JUMPDEST PUSH1 0x40 ADD MLOAD DUP3 DUP2 MLOAD DUP2 LT PUSH2 0x130B JUMPI PUSH2 0x130B PUSH2 0x1C28 JUMP JUMPDEST PUSH1 0x20 MUL PUSH1 0x20 ADD ADD MLOAD SWAP1 POP DUP1 PUSH0 ADD MLOAD DUP5 DUP4 DUP2 MLOAD DUP2 LT PUSH2 0x132B JUMPI PUSH2 0x132B PUSH2 0x1C28 JUMP JUMPDEST PUSH1 0x20 MUL PUSH1 0x20 ADD ADD SWAP1 PUSH1 0x1 PUSH1 0x1 PUSH1 0xA0 SHL SUB AND SWAP1 DUP2 PUSH1 0x1 PUSH1 0x1 PUSH1 0xA0 SHL SUB AND DUP2 MSTORE POP POP DUP1 PUSH1 0x20 ADD MLOAD DUP4 DUP4 DUP2 MLOAD DUP2 LT PUSH2 0x1362 JUMPI PUSH2 0x1362 PUSH2 0x1C28 JUMP JUMPDEST PUSH1 0x20 MUL PUSH1 0x20 ADD ADD DUP2 DUP2 MSTORE POP POP PUSH0 PUSH2 0x1380 PUSH2 0x1124 DUP10 DUP5 PUSH1 0x20 ADD MLOAD PUSH2 0x1547 JUMP JUMPDEST SWAP1 POP PUSH2 0x138F DUP3 PUSH0 ADD MLOAD DUP3 PUSH2 0xCE3 JUMP JUMPDEST POP POP PUSH1 0x1 ADD PUSH2 0x1279 JUMP JUMPDEST POP PUSH1 0x1 SLOAD PUSH1 0x40 MLOAD PUSH4 0xDEC86DF1 PUSH1 0xE0 SHL DUP2 MSTORE PUSH1 0x1 PUSH1 0x1 PUSH1 0xA0 SHL SUB SWAP1 SWAP2 AND SWAP1 PUSH4 0xDEC86DF1 SWAP1 DUP7 SWAP1 PUSH2 0x13D0 SWAP1 DUP7 SWAP1 DUP7 SWAP1 DUP5 SWAP1 PUSH1 0x4 ADD PUSH2 0x1C3C JUMP JUMPDEST PUSH1 0x20 PUSH1 0x40 MLOAD DUP1 DUP4 SUB DUP2 DUP6 DUP9 GAS CALL ISZERO DUP1 ISZERO PUSH2 0x13EC JUMPI RETURNDATASIZE PUSH0 DUP1 RETURNDATACOPY RETURNDATASIZE PUSH0 REVERT JUMPDEST POP POP POP POP POP PUSH1 0x40 MLOAD RETURNDATASIZE PUSH1 0x1F NOT PUSH1 0x1F DUP3 ADD AND DUP3 ADD DUP1 PUSH1 0x40 MSTORE POP DUP2 ADD SWAP1 PUSH2 0x1411 SWAP2 SWAP1 PUSH2 0x1798 JUMP JUMPDEST POP POP POP POP POP POP POP POP JUMPDEST DUP1 MLOAD PUSH1 0x80 DUP3 ADD MLOAD PUSH1 0x20 DUP1 DUP5 ADD MLOAD PUSH1 0x40 DUP1 MLOAD PUSH1 0x1 PUSH1 0x1 PUSH1 0xA0 SHL SUB SWAP1 SWAP5 AND DUP5 MSTORE SWAP2 DUP4 ADD MSTORE PUSH32 0xC9F72B276A388619C6D185D146697036241880C36654B1A3FFDAD07C24038D99 SWAP2 ADD PUSH1 0x40 MLOAD DUP1 SWAP2 SUB SWAP1 LOG2 POP JUMP JUMPDEST PUSH2 0x1472 PUSH2 0x159B JUMP JUMPDEST PUSH2 0x4AA PUSH2 0x15E4 JUMP JUMPDEST PUSH2 0x1482 PUSH2 0x159B JUMP JUMPDEST PUSH2 0x4AA PUSH2 0x1604 JUMP JUMPDEST PUSH2 0x1492 PUSH2 0x159B JUMP JUMPDEST PUSH2 0x7A1 DUP2 PUSH2 0x160C JUMP JUMPDEST PUSH0 DUP1 MLOAD PUSH1 0x20 PUSH2 0x1CE3 DUP4 CODECOPY DUP2 MLOAD SWAP2 MSTORE SLOAD PUSH1 0xFF AND ISZERO PUSH2 0x4AA JUMPI PUSH1 0x40 MLOAD PUSH4 0xD93C0665 PUSH1 0xE0 SHL DUP2 MSTORE PUSH1 0x4 ADD PUSH1 0x40 MLOAD DUP1 SWAP2 SUB SWAP1 REVERT JUMPDEST PUSH1 0x40 DUP1 MLOAD PUSH0 DUP1 DUP3 MSTORE PUSH1 0x20 DUP3 ADD SWAP1 SWAP3 MSTORE DUP2 SWAP1 PUSH1 0x1 PUSH1 0x1 PUSH1 0xA0 SHL SUB DUP6 AND SWAP1 PUSH2 0x7530 SWAP1 DUP6 SWAP1 PUSH1 0x40 MLOAD PUSH2 0x14FA SWAP2 SWAP1 PUSH2 0x1CC7 JUMP JUMPDEST PUSH0 PUSH1 0x40 MLOAD DUP1 DUP4 SUB DUP2 DUP6 DUP9 DUP9 CALL SWAP4 POP POP POP POP RETURNDATASIZE DUP1 PUSH0 DUP2 EQ PUSH2 0x1535 JUMPI PUSH1 0x40 MLOAD SWAP2 POP PUSH1 0x1F NOT PUSH1 0x3F RETURNDATASIZE ADD AND DUP3 ADD PUSH1 0x40 MSTORE RETURNDATASIZE DUP3 MSTORE RETURNDATASIZE PUSH0 PUSH1 0x20 DUP5 ADD RETURNDATACOPY PUSH2 0x153A JUMP JUMPDEST PUSH1 0x60 SWAP2 POP JUMPDEST POP SWAP1 SWAP3 POP POP POP JUMPDEST SWAP3 SWAP2 POP POP JUMP JUMPDEST DUP2 DUP2 MUL DUP3 ISZERO DUP4 DUP3 SDIV DUP4 EQ OR PUSH0 NOT DUP5 LT PUSH1 0x1 PUSH1 0xFF SHL DUP5 SGT OR AND PUSH2 0x1567 JUMPI PUSH0 DUP1 REVERT JUMPDEST PUSH8 0xDE0B6B3A7640000 SWAP1 SDIV SWAP3 SWAP2 POP POP JUMP JUMPDEST PUSH8 0xDE0B6B3A7640000 DUP3 DUP2 MUL SWAP1 DUP2 SDIV DUP4 EQ DUP3 ISZERO ISZERO AND PUSH2 0x1595 JUMPI PUSH0 DUP1 REVERT JUMPDEST SDIV SWAP2 SWAP1 POP JUMP JUMPDEST PUSH32 0xF0C57E16840DF040F15088DC2F81FE391C3923BEC73E23A9662EFC9C229C6A00 SLOAD PUSH1 0x1 PUSH1 0x40 SHL SWAP1 DIV PUSH1 0xFF AND PUSH2 0x4AA JUMPI PUSH1 0x40 MLOAD PUSH4 0x1AFCD79F PUSH1 0xE3 SHL DUP2 MSTORE PUSH1 0x4 ADD PUSH1 0x40 MLOAD DUP1 SWAP2 SUB SWAP1 REVERT JUMPDEST PUSH2 0x15EC PUSH2 0x159B JUMP JUMPDEST PUSH0 DUP1 MLOAD PUSH1 0x20 PUSH2 0x1CE3 DUP4 CODECOPY DUP2 MLOAD SWAP2 MSTORE DUP1 SLOAD PUSH1 0xFF NOT AND SWAP1 SSTORE JUMP JUMPDEST PUSH2 0xDD0 PUSH2 0x159B JUMP JUMPDEST PUSH2 0xAA0 PUSH2 0x159B JUMP JUMPDEST DUP1 CALLDATALOAD PUSH1 0xFF DUP2 AND DUP2 EQ PUSH2 0x1624 JUMPI PUSH0 DUP1 REVERT JUMPDEST SWAP2 SWAP1 POP JUMP JUMPDEST PUSH0 PUSH1 0x20 DUP3 DUP5 SUB SLT ISZERO PUSH2 0x1639 JUMPI PUSH0 DUP1 REVERT JUMPDEST PUSH2 0x1642 DUP3 PUSH2 0x1614 JUMP JUMPDEST SWAP4 SWAP3 POP POP POP JUMP JUMPDEST PUSH0 PUSH1 0x20 DUP3 DUP5 SUB SLT ISZERO PUSH2 0x1659 JUMPI PUSH0 DUP1 REVERT JUMPDEST POP CALLDATALOAD SWAP2 SWAP1 POP JUMP JUMPDEST PUSH1 0x1 PUSH1 0x1 PUSH1 0xA0 SHL SUB DUP2 AND DUP2 EQ PUSH2 0x7A1 JUMPI PUSH0 DUP1 REVERT JUMPDEST PUSH0 DUP1 PUSH0 DUP1 PUSH0 DUP1 PUSH0 DUP1 PUSH0 DUP1 PUSH2 0x140 DUP12 DUP14 SUB SLT ISZERO PUSH2 0x168E JUMPI PUSH0 DUP1 REVERT JUMPDEST DUP11 CALLDATALOAD PUSH2 0x1699 DUP2 PUSH2 0x1660 JUMP JUMPDEST SWAP10 POP PUSH1 0x20 DUP12 ADD CALLDATALOAD PUSH2 0x16A9 DUP2 PUSH2 0x1660 JUMP JUMPDEST SWAP9 POP PUSH1 0x40 DUP12 ADD CALLDATALOAD PUSH2 0x16B9 DUP2 PUSH2 0x1660 JUMP JUMPDEST SWAP8 POP PUSH1 0x60 DUP12 ADD CALLDATALOAD PUSH2 0x16C9 DUP2 PUSH2 0x1660 JUMP JUMPDEST SWAP7 POP PUSH1 0x80 DUP12 ADD CALLDATALOAD SWAP6 POP PUSH1 0xA0 DUP12 ADD CALLDATALOAD SWAP5 POP PUSH2 0x16E5 PUSH1 0xC0 DUP13 ADD PUSH2 0x1614 JUMP JUMPDEST SWAP4 POP PUSH1 0xE0 DUP12 ADD CALLDATALOAD SWAP3 POP PUSH2 0x100 DUP12 ADD CALLDATALOAD SWAP2 POP PUSH2 0x120 DUP12 ADD CALLDATALOAD SWAP1 POP SWAP3 SWAP6 SWAP9 SWAP12 SWAP2 SWAP5 SWAP8 SWAP11 POP SWAP3 SWAP6 SWAP9 POP JUMP JUMPDEST PUSH0 PUSH1 0x20 DUP3 DUP5 SUB SLT ISZERO PUSH2 0x171D JUMPI PUSH0 DUP1 REVERT JUMPDEST DUP2 CALLDATALOAD PUSH2 0x1642 DUP2 PUSH2 0x1660 JUMP JUMPDEST PUSH4 0x4E487B71 PUSH1 0xE0 SHL PUSH0 MSTORE PUSH1 0x11 PUSH1 0x4 MSTORE PUSH1 0x24 PUSH0 REVERT JUMPDEST DUP1 DUP3 MUL DUP2 ISZERO DUP3 DUP3 DIV DUP5 EQ OR PUSH2 0x1541 JUMPI PUSH2 0x1541 PUSH2 0x1728 JUMP JUMPDEST PUSH0 DUP3 PUSH2 0x176D JUMPI PUSH4 0x4E487B71 PUSH1 0xE0 SHL PUSH0 MSTORE PUSH1 0x12 PUSH1 0x4 MSTORE PUSH1 0x24 PUSH0 REVERT JUMPDEST POP DIV SWAP1 JUMP JUMPDEST DUP1 DUP3 ADD DUP1 DUP3 GT ISZERO PUSH2 0x1541 JUMPI PUSH2 0x1541 PUSH2 0x1728 JUMP JUMPDEST DUP2 DUP2 SUB DUP2 DUP2 GT ISZERO PUSH2 0x1541 JUMPI PUSH2 0x1541 PUSH2 0x1728 JUMP JUMPDEST PUSH0 PUSH1 0x20 DUP3 DUP5 SUB SLT ISZERO PUSH2 0x17A8 JUMPI PUSH0 DUP1 REVERT JUMPDEST POP MLOAD SWAP2 SWAP1 POP JUMP JUMPDEST PUSH0 PUSH1 0x3 RETURNDATASIZE GT ISZERO PUSH2 0x17C5 JUMPI PUSH1 0x4 PUSH0 DUP1 RETURNDATACOPY POP PUSH0 MLOAD PUSH1 0xE0 SHR JUMPDEST SWAP1 JUMP JUMPDEST PUSH4 0x4E487B71 PUSH1 0xE0 SHL PUSH0 MSTORE PUSH1 0x41 PUSH1 0x4 MSTORE PUSH1 0x24 PUSH0 REVERT JUMPDEST PUSH1 0x40 DUP2 ADD DUP2 DUP2 LT PUSH8 0xFFFFFFFFFFFFFFFF DUP3 GT OR ISZERO PUSH2 0x17FC JUMPI PUSH2 0x17FC PUSH2 0x17C8 JUMP JUMPDEST PUSH1 0x40 MSTORE POP JUMP JUMPDEST PUSH1 0xA0 DUP2 ADD DUP2 DUP2 LT PUSH8 0xFFFFFFFFFFFFFFFF DUP3 GT OR ISZERO PUSH2 0x17FC JUMPI PUSH2 0x17FC PUSH2 0x17C8 JUMP JUMPDEST PUSH1 0x1F DUP3 ADD PUSH1 0x1F NOT AND DUP2 ADD PUSH8 0xFFFFFFFFFFFFFFFF DUP2 GT DUP3 DUP3 LT OR ISZERO PUSH2 0x1848 JUMPI PUSH2 0x1848 PUSH2 0x17C8 JUMP JUMPDEST PUSH1 0x40 MSTORE POP POP JUMP JUMPDEST PUSH0 PUSH1 0x44 RETURNDATASIZE LT ISZERO PUSH2 0x185C JUMPI SWAP1 JUMP JUMPDEST PUSH1 0x40 MLOAD PUSH1 0x3 NOT RETURNDATASIZE DUP2 ADD PUSH1 0x4 DUP4 RETURNDATACOPY DUP2 MLOAD RETURNDATASIZE PUSH8 0xFFFFFFFFFFFFFFFF DUP2 PUSH1 0x24 DUP5 ADD GT DUP2 DUP5 GT OR ISZERO PUSH2 0x188C JUMPI POP POP POP POP POP SWAP1 JUMP JUMPDEST DUP3 DUP6 ADD SWAP2 POP DUP2 MLOAD DUP2 DUP2 GT ISZERO PUSH2 0x18A4 JUMPI POP POP POP POP POP POP SWAP1 JUMP JUMPDEST DUP5 RETURNDATASIZE DUP8 ADD ADD PUSH1 0x20 DUP3 DUP6 ADD ADD GT ISZERO PUSH2 0x18BE JUMPI POP POP POP POP POP POP SWAP1 JUMP JUMPDEST PUSH2 0x18CD PUSH1 0x20 DUP3 DUP7 ADD ADD DUP8 PUSH2 0x1822 JUMP JUMPDEST POP SWAP1 SWAP6 SWAP5 POP POP POP POP POP JUMP JUMPDEST DUP1 MLOAD DUP1 ISZERO ISZERO DUP2 EQ PUSH2 0x1624 JUMPI PUSH0 DUP1 REVERT JUMPDEST PUSH0 PUSH1 0x20 DUP3 DUP5 SUB SLT ISZERO PUSH2 0x18F7 JUMPI PUSH0 DUP1 REVERT JUMPDEST PUSH2 0x1642 DUP3 PUSH2 0x18D8 JUMP JUMPDEST DUP2 DUP2 SUB PUSH0 DUP4 SLT DUP1 ISZERO DUP4 DUP4 SGT AND DUP4 DUP4 SLT DUP3 AND OR ISZERO PUSH2 0x191F JUMPI PUSH2 0x191F PUSH2 0x1728 JUMP JUMPDEST POP SWAP3 SWAP2 POP POP JUMP JUMPDEST PUSH1 0x40 MLOAD PUSH1 0xC0 DUP2 ADD PUSH8 0xFFFFFFFFFFFFFFFF DUP2 GT DUP3 DUP3 LT OR ISZERO PUSH2 0x1949 JUMPI PUSH2 0x1949 PUSH2 0x17C8 JUMP JUMPDEST PUSH1 0x40 MSTORE SWAP1 JUMP JUMPDEST PUSH0 JUMPDEST DUP4 DUP2 LT ISZERO PUSH2 0x1969 JUMPI DUP2 DUP2 ADD MLOAD DUP4 DUP3 ADD MSTORE PUSH1 0x20 ADD PUSH2 0x1951 JUMP JUMPDEST POP POP PUSH0 SWAP2 ADD MSTORE JUMP JUMPDEST PUSH0 DUP3 PUSH1 0x1F DUP4 ADD SLT PUSH2 0x1980 JUMPI PUSH0 DUP1 REVERT JUMPDEST DUP2 MLOAD PUSH8 0xFFFFFFFFFFFFFFFF DUP2 GT ISZERO PUSH2 0x199A JUMPI PUSH2 0x199A PUSH2 0x17C8 JUMP JUMPDEST PUSH1 0x40 MLOAD PUSH2 0x19B1 PUSH1 0x1F DUP4 ADD PUSH1 0x1F NOT AND PUSH1 0x20 ADD DUP3 PUSH2 0x1822 JUMP JUMPDEST DUP2 DUP2 MSTORE DUP5 PUSH1 0x20 DUP4 DUP7 ADD ADD GT ISZERO PUSH2 0x19C5 JUMPI PUSH0 DUP1 REVERT JUMPDEST PUSH2 0x19D6 DUP3 PUSH1 0x20 DUP4 ADD PUSH1 0x20 DUP8 ADD PUSH2 0x194F JUMP JUMPDEST SWAP5 SWAP4 POP POP POP POP JUMP JUMPDEST DUP1 MLOAD PUSH1 0x6 DUP2 LT PUSH2 0x1624 JUMPI PUSH0 DUP1 REVERT JUMPDEST DUP1 MLOAD PUSH2 0x1624 DUP2 PUSH2 0x1660 JUMP JUMPDEST PUSH0 DUP3 PUSH1 0x1F DUP4 ADD SLT PUSH2 0x1A06 JUMPI PUSH0 DUP1 REVERT JUMPDEST DUP2 MLOAD PUSH1 0x20 PUSH8 0xFFFFFFFFFFFFFFFF DUP3 GT ISZERO PUSH2 0x1A22 JUMPI PUSH2 0x1A22 PUSH2 0x17C8 JUMP JUMPDEST PUSH1 0x40 DUP1 MLOAD PUSH2 0x1A35 DUP4 DUP6 PUSH1 0x5 SHL ADD DUP3 PUSH2 0x1822 JUMP JUMPDEST DUP4 DUP2 MSTORE PUSH1 0x6 SWAP4 SWAP1 SWAP4 SHL DUP6 ADD DUP3 ADD SWAP3 DUP3 DUP2 ADD DUP8 DUP6 GT ISZERO PUSH2 0x1A52 JUMPI PUSH0 DUP1 REVERT JUMPDEST DUP4 DUP8 ADD JUMPDEST DUP6 DUP2 LT ISZERO PUSH2 0x1A99 JUMPI DUP4 DUP2 DUP11 SUB SLT ISZERO PUSH2 0x1A6C JUMPI PUSH0 DUP1 REVERT JUMPDEST DUP4 MLOAD PUSH2 0x1A77 DUP2 PUSH2 0x17DC JUMP JUMPDEST DUP2 MLOAD PUSH2 0x1A82 DUP2 PUSH2 0x1660 JUMP JUMPDEST DUP2 MSTORE DUP2 DUP7 ADD MLOAD DUP7 DUP3 ADD MSTORE DUP3 MSTORE SWAP1 DUP5 ADD SWAP1 DUP4 ADD PUSH2 0x1A56 JUMP JUMPDEST POP SWAP1 SWAP8 SWAP7 POP POP POP POP POP POP POP JUMP JUMPDEST PUSH0 PUSH1 0x20 DUP3 DUP5 SUB SLT ISZERO PUSH2 0x1AB6 JUMPI PUSH0 DUP1 REVERT JUMPDEST DUP2 MLOAD PUSH8 0xFFFFFFFFFFFFFFFF DUP1 DUP3 GT ISZERO PUSH2 0x1ACD JUMPI PUSH0 DUP1 REVERT JUMPDEST SWAP1 DUP4 ADD SWAP1 PUSH1 0xA0 DUP3 DUP7 SUB SLT ISZERO PUSH2 0x1AE0 JUMPI PUSH0 DUP1 REVERT JUMPDEST PUSH1 0x40 MLOAD PUSH2 0x1AEC DUP2 PUSH2 0x1802 JUMP JUMPDEST DUP3 MLOAD DUP2 MSTORE PUSH1 0x20 DUP4 ADD MLOAD DUP3 DUP2 GT ISZERO PUSH2 0x1B01 JUMPI PUSH0 DUP1 REVERT JUMPDEST DUP4 ADD PUSH1 0xC0 DUP2 DUP9 SUB SLT ISZERO PUSH2 0x1B12 JUMPI PUSH0 DUP1 REVERT JUMPDEST PUSH2 0x1B1A PUSH2 0x1926 JUMP JUMPDEST DUP2 MLOAD DUP5 DUP2 GT ISZERO PUSH2 0x1B28 JUMPI PUSH0 DUP1 REVERT JUMPDEST PUSH2 0x1B34 DUP10 DUP3 DUP6 ADD PUSH2 0x1971 JUMP JUMPDEST DUP3 MSTORE POP PUSH1 0x20 DUP3 ADD MLOAD DUP5 DUP2 GT ISZERO PUSH2 0x1B48 JUMPI PUSH0 DUP1 REVERT JUMPDEST PUSH2 0x1B54 DUP10 DUP3 DUP6 ADD PUSH2 0x1971 JUMP JUMPDEST PUSH1 0x20 DUP4 ADD MSTORE POP PUSH2 0x1B66 PUSH1 0x40 DUP4 ADD PUSH2 0x19DE JUMP JUMPDEST PUSH1 0x40 DUP3 ADD MSTORE PUSH1 0x60 DUP3 ADD MLOAD DUP5 DUP2 GT ISZERO PUSH2 0x1B7C JUMPI PUSH0 DUP1 REVERT JUMPDEST PUSH2 0x1B88 DUP10 DUP3 DUP6 ADD PUSH2 0x1971 JUMP JUMPDEST PUSH1 0x60 DUP4 ADD MSTORE POP PUSH1 0x80 DUP3 ADD MLOAD DUP5 DUP2 GT ISZERO PUSH2 0x1B9F JUMPI PUSH0 DUP1 REVERT JUMPDEST PUSH2 0x1BAB DUP10 DUP3 DUP6 ADD PUSH2 0x1971 JUMP JUMPDEST PUSH1 0x80 DUP4 ADD MSTORE POP PUSH1 0xA0 DUP3 ADD MLOAD DUP5 DUP2 GT ISZERO PUSH2 0x1BC2 JUMPI PUSH0 DUP1 REVERT JUMPDEST PUSH2 0x1BCE DUP10 DUP3 DUP6 ADD PUSH2 0x1971 JUMP JUMPDEST PUSH1 0xA0 DUP4 ADD MSTORE POP PUSH1 0x20 DUP4 ADD MSTORE POP PUSH1 0x40 DUP4 ADD MLOAD DUP3 DUP2 GT ISZERO PUSH2 0x1BEB JUMPI PUSH0 DUP1 REVERT JUMPDEST PUSH2 0x1BF7 DUP8 DUP3 DUP7 ADD PUSH2 0x19F7 JUMP JUMPDEST PUSH1 0x40 DUP4 ADD MSTORE POP PUSH2 0x1C09 PUSH1 0x60 DUP5 ADD PUSH2 0x19EC JUMP JUMPDEST PUSH1 0x60 DUP3 ADD MSTORE PUSH2 0x1C1A PUSH1 0x80 DUP5 ADD PUSH2 0x18D8 JUMP JUMPDEST PUSH1 0x80 DUP3 ADD MSTORE SWAP6 SWAP5 POP POP POP POP POP JUMP JUMPDEST PUSH4 0x4E487B71 PUSH1 0xE0 SHL PUSH0 MSTORE PUSH1 0x32 PUSH1 0x4 MSTORE PUSH1 0x24 PUSH0 REVERT JUMPDEST PUSH1 0x60 DUP1 DUP3 MSTORE DUP5 MLOAD SWAP1 DUP3 ADD DUP2 SWAP1 MSTORE PUSH0 SWAP1 PUSH1 0x20 SWAP1 PUSH1 0x80 DUP5 ADD SWAP1 DUP3 DUP9 ADD DUP5 JUMPDEST DUP3 DUP2 LT ISZERO PUSH2 0x1C7D JUMPI DUP2 MLOAD PUSH1 0x1 PUSH1 0x1 PUSH1 0xA0 SHL SUB AND DUP5 MSTORE SWAP3 DUP5 ADD SWAP3 SWAP1 DUP5 ADD SWAP1 PUSH1 0x1 ADD PUSH2 0x1C58 JUMP JUMPDEST POP POP POP DUP4 DUP2 SUB DUP3 DUP6 ADD MSTORE DUP6 MLOAD DUP1 DUP3 MSTORE DUP7 DUP4 ADD SWAP2 DUP4 ADD SWAP1 PUSH0 JUMPDEST DUP2 DUP2 LT ISZERO PUSH2 0x1CB1 JUMPI DUP4 MLOAD DUP4 MSTORE SWAP3 DUP5 ADD SWAP3 SWAP2 DUP5 ADD SWAP2 PUSH1 0x1 ADD PUSH2 0x1C95 JUMP JUMPDEST POP POP DUP1 SWAP4 POP POP POP POP DUP3 PUSH1 0x40 DUP4 ADD MSTORE SWAP5 SWAP4 POP POP POP POP JUMP JUMPDEST PUSH0 DUP3 MLOAD PUSH2 0x1CD8 DUP2 DUP5 PUSH1 0x20 DUP8 ADD PUSH2 0x194F JUMP JUMPDEST SWAP2 SWAP1 SWAP2 ADD SWAP3 SWAP2 POP POP JUMP INVALID 0xCD 0x5E 0xD1 0x5C PUSH15 0x187E77E9AEE88184C21F4F2182AB58 0x27 0xCB EXTCODESIZE PUSH31 0x7FBEDCD63F033009B779B17422D0DF92223018B32B4D1FA46E071723D6817 0xE2 BASEFEE PUSH14 0x3BECC55F00A264697066735822 SLT KECCAK256 0xEB STATICCALL SMOD BLOCKHASH REVERT EXTCODEHASH 0xED 0xCF PUSH4 0xC0BF74DA LOG3 MSTORE8 BASEFEE PUSH0 0x4F PUSH31 0xCB6CA40B0FDEAA7C60D0DCA1B764736F6C6343000816003300000000000000 "
		},
		"gasEstimates": {
			"creation": {
				"codeDepositCost": "1502400",
				"executionCost": "1566",
				"totalCost": "1503966"
			},
			"external": {
				"auction()": "10911",
				"createBid(uint256)": "infinite",
				"creatorRateBps()": "2340",
				"duration()": "2362",
				"entropyRateBps()": "2426",
				"initialize(address,address,address,address,uint256,uint256,uint8,uint256,uint256,uint256)": "infinite",
				"minBidIncrementPercentage()": "2445",
				"owner()": "2401",
				"pause()": "infinite",
				"paused()": "infinite",
				"renounceOwnership()": "infinite",
				"reservePrice()": "2338",
				"setMinBidIncrementPercentage(uint8)": "27886",
				"setReservePrice(uint256)": "25630",
				"setTimeBuffer(uint256)": "25719",
				"settleAuction()": "infinite",
				"settleCurrentAndCreateNewAuction()": "infinite",
				"timeBuffer()": "2360",
				"tokenEmitter()": "2437",
				"transferOwnership(address)": "infinite",
				"unpause()": "infinite",
				"verbs()": "2348",
				"weth()": "2370"
			},
			"internal": {
				"_createAuction()": "infinite",
				"_safeTransferETH(address,uint256)": "infinite",
				"_safeTransferETHWithFallback(address,uint256)": "infinite",
				"_settleAuction()": "infinite"
			}
		},
		"methodIdentifiers": {
			"auction()": "7d9f6db5",
			"createBid(uint256)": "659dd2b4",
			"creatorRateBps()": "0802be0a",
			"duration()": "0fb5a6b4",
			"entropyRateBps()": "fe95233b",
			"initialize(address,address,address,address,uint256,uint256,uint8,uint256,uint256,uint256)": "a910d318",
			"minBidIncrementPercentage()": "b296024d",
			"owner()": "8da5cb5b",
			"pause()": "8456cb59",
			"paused()": "5c975abb",
			"renounceOwnership()": "715018a6",
			"reservePrice()": "db2e1eed",
			"setMinBidIncrementPercentage(uint8)": "36ebdb38",
			"setReservePrice(uint256)": "ce9c7c0d",
			"setTimeBuffer(uint256)": "7120334b",
			"settleAuction()": "a4d0a17e",
			"settleCurrentAndCreateNewAuction()": "f25efffc",
			"timeBuffer()": "ec91f2a4",
			"tokenEmitter()": "3d64baf1",
			"transferOwnership(address)": "f2fde38b",
			"unpause()": "3f4ba83a",
			"verbs()": "0284464a",
			"weth()": "3fc8cef3"
		}
	},
	"abi": [
		{
			"inputs": [],
			"name": "EnforcedPause",
			"type": "error"
		},
		{
			"inputs": [],
			"name": "ExpectedPause",
			"type": "error"
		},
		{
			"inputs": [],
			"name": "InvalidInitialization",
			"type": "error"
		},
		{
			"inputs": [],
			"name": "NotInitializing",
			"type": "error"
		},
		{
			"inputs": [
				{
					"internalType": "address",
					"name": "owner",
					"type": "address"
				}
			],
			"name": "OwnableInvalidOwner",
			"type": "error"
		},
		{
			"inputs": [
				{
					"internalType": "address",
					"name": "account",
					"type": "address"
				}
			],
			"name": "OwnableUnauthorizedAccount",
			"type": "error"
		},
		{
			"inputs": [],
			"name": "ReentrancyGuardReentrantCall",
			"type": "error"
		},
		{
			"anonymous": false,
			"inputs": [
				{
					"indexed": true,
					"internalType": "uint256",
					"name": "verbId",
					"type": "uint256"
				},
				{
					"indexed": false,
					"internalType": "address",
					"name": "sender",
					"type": "address"
				},
				{
					"indexed": false,
					"internalType": "uint256",
					"name": "value",
					"type": "uint256"
				},
				{
					"indexed": false,
					"internalType": "bool",
					"name": "extended",
					"type": "bool"
				}
			],
			"name": "AuctionBid",
			"type": "event"
		},
		{
			"anonymous": false,
			"inputs": [
				{
					"indexed": true,
					"internalType": "uint256",
					"name": "verbId",
					"type": "uint256"
				},
				{
					"indexed": false,
					"internalType": "uint256",
					"name": "startTime",
					"type": "uint256"
				},
				{
					"indexed": false,
					"internalType": "uint256",
					"name": "endTime",
					"type": "uint256"
				}
			],
			"name": "AuctionCreated",
			"type": "event"
		},
		{
			"anonymous": false,
			"inputs": [
				{
					"indexed": true,
					"internalType": "uint256",
					"name": "verbId",
					"type": "uint256"
				},
				{
					"indexed": false,
					"internalType": "uint256",
					"name": "endTime",
					"type": "uint256"
				}
			],
			"name": "AuctionExtended",
			"type": "event"
		},
		{
			"anonymous": false,
			"inputs": [
				{
					"indexed": false,
					"internalType": "uint256",
					"name": "minBidIncrementPercentage",
					"type": "uint256"
				}
			],
			"name": "AuctionMinBidIncrementPercentageUpdated",
			"type": "event"
		},
		{
			"anonymous": false,
			"inputs": [
				{
					"indexed": false,
					"internalType": "uint256",
					"name": "reservePrice",
					"type": "uint256"
				}
			],
			"name": "AuctionReservePriceUpdated",
			"type": "event"
		},
		{
			"anonymous": false,
			"inputs": [
				{
					"indexed": true,
					"internalType": "uint256",
					"name": "verbId",
					"type": "uint256"
				},
				{
					"indexed": false,
					"internalType": "address",
					"name": "winner",
					"type": "address"
				},
				{
					"indexed": false,
					"internalType": "uint256",
					"name": "amount",
					"type": "uint256"
				}
			],
			"name": "AuctionSettled",
			"type": "event"
		},
		{
			"anonymous": false,
			"inputs": [
				{
					"indexed": false,
					"internalType": "uint256",
					"name": "timeBuffer",
					"type": "uint256"
				}
			],
			"name": "AuctionTimeBufferUpdated",
			"type": "event"
		},
		{
			"anonymous": false,
			"inputs": [
				{
					"indexed": false,
					"internalType": "uint64",
					"name": "version",
					"type": "uint64"
				}
			],
			"name": "Initialized",
			"type": "event"
		},
		{
			"anonymous": false,
			"inputs": [
				{
					"indexed": true,
					"internalType": "address",
					"name": "previousOwner",
					"type": "address"
				},
				{
					"indexed": true,
					"internalType": "address",
					"name": "newOwner",
					"type": "address"
				}
			],
			"name": "OwnershipTransferred",
			"type": "event"
		},
		{
			"anonymous": false,
			"inputs": [
				{
					"indexed": false,
					"internalType": "address",
					"name": "account",
					"type": "address"
				}
			],
			"name": "Paused",
			"type": "event"
		},
		{
			"anonymous": false,
			"inputs": [
				{
					"indexed": false,
					"internalType": "address",
					"name": "account",
					"type": "address"
				}
			],
			"name": "Unpaused",
			"type": "event"
		},
		{
			"inputs": [],
			"name": "auction",
			"outputs": [
				{
					"internalType": "uint256",
					"name": "verbId",
					"type": "uint256"
				},
				{
					"internalType": "uint256",
					"name": "amount",
					"type": "uint256"
				},
				{
					"internalType": "uint256",
					"name": "startTime",
					"type": "uint256"
				},
				{
					"internalType": "uint256",
					"name": "endTime",
					"type": "uint256"
				},
				{
					"internalType": "address payable",
					"name": "bidder",
					"type": "address"
				},
				{
					"internalType": "bool",
					"name": "settled",
					"type": "bool"
				}
			],
			"stateMutability": "view",
			"type": "function"
		},
		{
			"inputs": [
				{
					"internalType": "uint256",
					"name": "verbId",
					"type": "uint256"
				}
			],
			"name": "createBid",
			"outputs": [],
			"stateMutability": "payable",
			"type": "function"
		},
		{
			"inputs": [],
			"name": "creatorRateBps",
			"outputs": [
				{
					"internalType": "uint256",
					"name": "",
					"type": "uint256"
				}
			],
			"stateMutability": "view",
			"type": "function"
		},
		{
			"inputs": [],
			"name": "duration",
			"outputs": [
				{
					"internalType": "uint256",
					"name": "",
					"type": "uint256"
				}
			],
			"stateMutability": "view",
			"type": "function"
		},
		{
			"inputs": [],
			"name": "entropyRateBps",
			"outputs": [
				{
					"internalType": "uint256",
					"name": "",
					"type": "uint256"
				}
			],
			"stateMutability": "view",
			"type": "function"
		},
		{
			"inputs": [
				{
					"internalType": "contract IVerbsToken",
					"name": "_verbs",
					"type": "address"
				},
				{
					"internalType": "contract ITokenEmitter",
					"name": "_tokenEmitter",
					"type": "address"
				},
				{
					"internalType": "address",
					"name": "_weth",
					"type": "address"
				},
				{
					"internalType": "address",
					"name": "_founder",
					"type": "address"
				},
				{
					"internalType": "uint256",
					"name": "_timeBuffer",
					"type": "uint256"
				},
				{
					"internalType": "uint256",
					"name": "_reservePrice",
					"type": "uint256"
				},
				{
					"internalType": "uint8",
					"name": "_minBidIncrementPercentage",
					"type": "uint8"
				},
				{
					"internalType": "uint256",
					"name": "_duration",
					"type": "uint256"
				},
				{
					"internalType": "uint256",
					"name": "_creatorRateBps",
					"type": "uint256"
				},
				{
					"internalType": "uint256",
					"name": "_entropyRateBps",
					"type": "uint256"
				}
			],
			"name": "initialize",
			"outputs": [],
			"stateMutability": "nonpayable",
			"type": "function"
		},
		{
			"inputs": [],
			"name": "minBidIncrementPercentage",
			"outputs": [
				{
					"internalType": "uint8",
					"name": "",
					"type": "uint8"
				}
			],
			"stateMutability": "view",
			"type": "function"
		},
		{
			"inputs": [],
			"name": "owner",
			"outputs": [
				{
					"internalType": "address",
					"name": "",
					"type": "address"
				}
			],
			"stateMutability": "view",
			"type": "function"
		},
		{
			"inputs": [],
			"name": "pause",
			"outputs": [],
			"stateMutability": "nonpayable",
			"type": "function"
		},
		{
			"inputs": [],
			"name": "paused",
			"outputs": [
				{
					"internalType": "bool",
					"name": "",
					"type": "bool"
				}
			],
			"stateMutability": "view",
			"type": "function"
		},
		{
			"inputs": [],
			"name": "renounceOwnership",
			"outputs": [],
			"stateMutability": "nonpayable",
			"type": "function"
		},
		{
			"inputs": [],
			"name": "reservePrice",
			"outputs": [
				{
					"internalType": "uint256",
					"name": "",
					"type": "uint256"
				}
			],
			"stateMutability": "view",
			"type": "function"
		},
		{
			"inputs": [
				{
					"internalType": "uint8",
					"name": "_minBidIncrementPercentage",
					"type": "uint8"
				}
			],
			"name": "setMinBidIncrementPercentage",
			"outputs": [],
			"stateMutability": "nonpayable",
			"type": "function"
		},
		{
			"inputs": [
				{
					"internalType": "uint256",
					"name": "_reservePrice",
					"type": "uint256"
				}
			],
			"name": "setReservePrice",
			"outputs": [],
			"stateMutability": "nonpayable",
			"type": "function"
		},
		{
			"inputs": [
				{
					"internalType": "uint256",
					"name": "_timeBuffer",
					"type": "uint256"
				}
			],
			"name": "setTimeBuffer",
			"outputs": [],
			"stateMutability": "nonpayable",
			"type": "function"
		},
		{
			"inputs": [],
			"name": "settleAuction",
			"outputs": [],
			"stateMutability": "nonpayable",
			"type": "function"
		},
		{
			"inputs": [],
			"name": "settleCurrentAndCreateNewAuction",
			"outputs": [],
			"stateMutability": "nonpayable",
			"type": "function"
		},
		{
			"inputs": [],
			"name": "timeBuffer",
			"outputs": [
				{
					"internalType": "uint256",
					"name": "",
					"type": "uint256"
				}
			],
			"stateMutability": "view",
			"type": "function"
		},
		{
			"inputs": [],
			"name": "tokenEmitter",
			"outputs": [
				{
					"internalType": "contract ITokenEmitter",
					"name": "",
					"type": "address"
				}
			],
			"stateMutability": "view",
			"type": "function"
		},
		{
			"inputs": [
				{
					"internalType": "address",
					"name": "newOwner",
					"type": "address"
				}
			],
			"name": "transferOwnership",
			"outputs": [],
			"stateMutability": "nonpayable",
			"type": "function"
		},
		{
			"inputs": [],
			"name": "unpause",
			"outputs": [],
			"stateMutability": "nonpayable",
			"type": "function"
		},
		{
			"inputs": [],
			"name": "verbs",
			"outputs": [
				{
					"internalType": "contract IVerbsToken",
					"name": "",
					"type": "address"
				}
			],
			"stateMutability": "view",
			"type": "function"
		},
		{
			"inputs": [],
			"name": "weth",
			"outputs": [
				{
					"internalType": "address",
					"name": "",
					"type": "address"
				}
			],
			"stateMutability": "view",
			"type": "function"
		}
	]
}