{
	"data": {
		"bytecode": {
			"linkReferences": {},
			"object": "60806040525f805460ff60a01b1916600160a01b17905534801562000022575f80fd5b506040516200135f3803806200135f8339810160408190526200004591620000fa565b816001600160a01b0381166200007457604051631e4fbdf760e01b81525f600482015260240160405180910390fd5b6200007f8162000097565b5060026200008e828262000272565b5050506200033e565b5f80546001600160a01b038381166001600160a01b0319831681178455604051919092169283917f8be0079c531659141344cd1fd0a4f28419497f9722a3daafe3b4186f6b6457e09190a35050565b634e487b7160e01b5f52604160045260245ffd5b5f80604083850312156200010c575f80fd5b82516001600160a01b038116811462000123575f80fd5b602084810151919350906001600160401b038082111562000142575f80fd5b818601915086601f83011262000156575f80fd5b8151818111156200016b576200016b620000e6565b604051601f8201601f19908116603f01168101908382118183101715620001965762000196620000e6565b816040528281528986848701011115620001ae575f80fd5b5f93505b82841015620001d15784840186015181850187015292850192620001b2565b5f8684830101528096505050505050509250929050565b600181811c90821680620001fd57607f821691505b6020821081036200021c57634e487b7160e01b5f52602260045260245ffd5b50919050565b601f8211156200026d57805f5260205f20601f840160051c81016020851015620002495750805b601f840160051c820191505b818110156200026a575f815560010162000255565b50505b505050565b81516001600160401b038111156200028e576200028e620000e6565b620002a6816200029f8454620001e8565b8462000222565b602080601f831160018114620002dc575f8415620002c45750858301515b5f19600386901b1c1916600185901b17855562000336565b5f85815260208120601f198616915b828110156200030c57888601518255948401946001909101908401620002eb565b50858210156200032a57878501515f19600388901b60f8161c191681555b505060018460011b0185555b505050505050565b611013806200034c5f395ff3fe608060405234801561000f575f80fd5b50600436106100b1575f3560e01c80638da5cb5b1161006e5780638da5cb5b1461011e57806392b4c81b14610138578063ce2f4f531461014b578063dfe8478b1461016e578063f0b305eb14610176578063f2fde38b14610189575f80fd5b80630dd4f079146100b55780632c90464d146100de5780633dc081b9146100f157806355f804b3146100f95780636c0360eb1461010e578063715018a614610116575b5f80fd5b6100c86100c336600461099d565b61019c565b6040516100d59190610a03565b60405180910390f35b6100c86100ec36600461099d565b6101e5565b6100c861023d565b61010c610107366004610a35565b6102c9565b005b6100c861031c565b61010c610329565b5f546040516001600160a01b0390911681526020016100d5565b6100c8610146366004610aa1565b61033c565b5f5461015e90600160a01b900460ff1681565b60405190151581526020016100d5565b61010c6103a6565b6100c8610184366004610b72565b610403565b61010c610197366004610bc8565b610446565b60605f6101a884610488565b90505f6002826040516020016101bf929190610c9c565b60405160208183030381529060405290506101da8185610403565b925050505b92915050565b5f54606090600160a01b900460ff161561020a57610203838361019c565b90506101df565b600161021584610488565b604051602001610226929190610ccd565b604051602081830303815290604052905092915050565b6002805461024a90610bf5565b80601f016020809104026020016040519081016040528092919081815260200182805461027690610bf5565b80156102c15780601f10610298576101008083540402835291602001916102c1565b820191905f5260205f20905b8154815290600101906020018083116102a457829003601f168201915b505050505081565b6102d1610518565b60016102de828483610d3d565b507f6741b2fc379fad678116fe3d4d4b9a1a184ab53ba36b86ad0fa66340b1ab41ad8282604051610310929190610df7565b60405180910390a15050565b6001805461024a90610bf5565b610331610518565b61033a5f610544565b565b60605f825f01518360200151846040015185606001516040516020016103659493929190610e25565b604051602081830303815290604052905061037f81610593565b60405160200161038f9190610efc565b604051602081830303815290604052915050919050565b6103ae610518565b5f805460ff60a01b198116600160a01b9182900460ff1615918202179091556040518181527f360c3d72ee193226275b842f85231c259c934e85459fed80fa68e502ffa9dbde9060200160405180910390a150565b60605f604051806080016040528085815260200184602001518152602001846060015181526020018460a00151815250905061043e8161033c565b949350505050565b61044e610518565b6001600160a01b03811661047c57604051631e4fbdf760e01b81525f60048201526024015b60405180910390fd5b61048581610544565b50565b60605f610494836106e2565b60010190505f8167ffffffffffffffff8111156104b3576104b36107b9565b6040519080825280601f01601f1916602001820160405280156104dd576020820181803683370190505b5090508181016020015b5f19016f181899199a1a9b1b9c1cb0b131b232b360811b600a86061a8153600a85049450846104e757509392505050565b5f546001600160a01b0316331461033a5760405163118cdaa760e01b8152336004820152602401610473565b5f80546001600160a01b038381166001600160a01b0319831681178455604051919092169283917f8be0079c531659141344cd1fd0a4f28419497f9722a3daafe3b4186f6b6457e09190a35050565b606081515f036105b057505060408051602081019091525f815290565b5f604051806060016040528060408152602001610f9e6040913990505f6003845160026105dd9190610f54565b6105e79190610f67565b6105f2906004610f86565b67ffffffffffffffff81111561060a5761060a6107b9565b6040519080825280601f01601f191660200182016040528015610634576020820181803683370190505b509050600182016020820185865187015b808210156106a0576003820191508151603f8160121c168501518453600184019350603f81600c1c168501518453600184019350603f8160061c168501518453600184019350603f8116850151845350600183019250610645565b50506003865106600181146106bc57600281146106cf576106d7565b603d6001830353603d60028303536106d7565b603d60018303535b509195945050505050565b5f8072184f03e93ff9f4daa797ed6e38ed64bf6a1f0160401b83106107205772184f03e93ff9f4daa797ed6e38ed64bf6a1f0160401b830492506040015b6d04ee2d6d415b85acef8100000000831061074c576d04ee2d6d415b85acef8100000000830492506020015b662386f26fc10000831061076a57662386f26fc10000830492506010015b6305f5e1008310610782576305f5e100830492506008015b612710831061079657612710830492506004015b606483106107a8576064830492506002015b600a83106101df5760010192915050565b634e487b7160e01b5f52604160045260245ffd5b60405160c0810167ffffffffffffffff811182821017156107f0576107f06107b9565b60405290565b6040516080810167ffffffffffffffff811182821017156107f0576107f06107b9565b5f82601f830112610828575f80fd5b813567ffffffffffffffff80821115610843576108436107b9565b604051601f8301601f19908116603f0116810190828211818310171561086b5761086b6107b9565b81604052838152866020858801011115610883575f80fd5b836020870160208301375f602085830101528094505050505092915050565b8035600681106108b0575f80fd5b919050565b5f60c082840312156108c5575f80fd5b6108cd6107cd565b9050813567ffffffffffffffff808211156108e6575f80fd5b6108f285838601610819565b83526020840135915080821115610907575f80fd5b61091385838601610819565b6020840152610924604085016108a2565b6040840152606084013591508082111561093c575f80fd5b61094885838601610819565b60608401526080840135915080821115610960575f80fd5b61096c85838601610819565b608084015260a0840135915080821115610984575f80fd5b5061099184828501610819565b60a08301525092915050565b5f80604083850312156109ae575f80fd5b82359150602083013567ffffffffffffffff8111156109cb575f80fd5b6109d7858286016108b5565b9150509250929050565b5f5b838110156109fb5781810151838201526020016109e3565b50505f910152565b602081525f8251806020840152610a218160408501602087016109e1565b601f01601f19169190910160400192915050565b5f8060208385031215610a46575f80fd5b823567ffffffffffffffff80821115610a5d575f80fd5b818501915085601f830112610a70575f80fd5b813581811115610a7e575f80fd5b866020828501011115610a8f575f80fd5b60209290920196919550909350505050565b5f60208284031215610ab1575f80fd5b813567ffffffffffffffff80821115610ac8575f80fd5b9083019060808286031215610adb575f80fd5b610ae36107f6565b823582811115610af1575f80fd5b610afd87828601610819565b825250602083013582811115610b11575f80fd5b610b1d87828601610819565b602083015250604083013582811115610b34575f80fd5b610b4087828601610819565b604083015250606083013582811115610b57575f80fd5b610b6387828601610819565b60608301525095945050505050565b5f8060408385031215610b83575f80fd5b823567ffffffffffffffff80821115610b9a575f80fd5b610ba686838701610819565b93506020850135915080821115610bbb575f80fd5b506109d7858286016108b5565b5f60208284031215610bd8575f80fd5b81356001600160a01b0381168114610bee575f80fd5b9392505050565b600181811c90821680610c0957607f821691505b602082108103610c2757634e487b7160e01b5f52602260045260245ffd5b50919050565b5f8154610c3981610bf5565b60018281168015610c515760018114610c6657610c92565b60ff1984168752821515830287019450610c92565b855f526020805f205f5b85811015610c895781548a820152908401908201610c70565b50505082870194505b5050505092915050565b5f610ca78285610c2d565b600160fd1b81528351610cc18160018401602088016109e1565b01600101949350505050565b5f610cd88285610c2d565b8351610ce88183602088016109e1565b01949350505050565b601f821115610d3857805f5260205f20601f840160051c81016020851015610d165750805b601f840160051c820191505b81811015610d35575f8155600101610d22565b50505b505050565b67ffffffffffffffff831115610d5557610d556107b9565b610d6983610d638354610bf5565b83610cf1565b5f601f841160018114610d9a575f8515610d835750838201355b5f19600387901b1c1916600186901b178355610d35565b5f83815260208120601f198716915b82811015610dc95786850135825560209485019460019092019101610da9565b5086821015610de5575f1960f88860031b161c19848701351681555b505060018560011b0183555050505050565b60208152816020820152818360408301375f818301604090810191909152601f909201601f19160101919050565b683d913730b6b2911d1160b91b815284515f90610e49816009850160208a016109e1565b71111610113232b9b1b934b83a34b7b7111d1160711b6009918401918201528551610e7b81601b840160208a016109e1565b6c1116101134b6b0b3b2911d101160991b601b92909101918201528451610ea98160288401602089016109e1565b741116101130b734b6b0ba34b7b72fbab936111d101160591b602892909101918201528351610edf81603d8401602088016109e1565b61227d60f01b603d9290910191820152603f019695505050505050565b7f646174613a6170706c69636174696f6e2f6a736f6e3b6261736536342c00000081525f8251610f3381601d8501602087016109e1565b91909101601d0192915050565b634e487b7160e01b5f52601160045260245ffd5b808201808211156101df576101df610f40565b5f82610f8157634e487b7160e01b5f52601260045260245ffd5b500490565b80820281158282048414176101df576101df610f4056fe4142434445464748494a4b4c4d4e4f505152535455565758595a6162636465666768696a6b6c6d6e6f707172737475767778797a303132333435363738392b2fa2646970667358221220c48e3458de6d3d01a6872cdc4a6f041ba627aac8bcae6799e277a28f25d32b7064736f6c63430008160033",
			"opcodes": "PUSH1 0x80 PUSH1 0x40 MSTORE PUSH0 DUP1 SLOAD PUSH1 0xFF PUSH1 0xA0 SHL NOT AND PUSH1 0x1 PUSH1 0xA0 SHL OR SWAP1 SSTORE CALLVALUE DUP1 ISZERO PUSH3 0x22 JUMPI PUSH0 DUP1 REVERT JUMPDEST POP PUSH1 0x40 MLOAD PUSH3 0x135F CODESIZE SUB DUP1 PUSH3 0x135F DUP4 CODECOPY DUP2 ADD PUSH1 0x40 DUP2 SWAP1 MSTORE PUSH3 0x45 SWAP2 PUSH3 0xFA JUMP JUMPDEST DUP2 PUSH1 0x1 PUSH1 0x1 PUSH1 0xA0 SHL SUB DUP2 AND PUSH3 0x74 JUMPI PUSH1 0x40 MLOAD PUSH4 0x1E4FBDF7 PUSH1 0xE0 SHL DUP2 MSTORE PUSH0 PUSH1 0x4 DUP3 ADD MSTORE PUSH1 0x24 ADD PUSH1 0x40 MLOAD DUP1 SWAP2 SUB SWAP1 REVERT JUMPDEST PUSH3 0x7F DUP2 PUSH3 0x97 JUMP JUMPDEST POP PUSH1 0x2 PUSH3 0x8E DUP3 DUP3 PUSH3 0x272 JUMP JUMPDEST POP POP POP PUSH3 0x33E JUMP JUMPDEST PUSH0 DUP1 SLOAD PUSH1 0x1 PUSH1 0x1 PUSH1 0xA0 SHL SUB DUP4 DUP2 AND PUSH1 0x1 PUSH1 0x1 PUSH1 0xA0 SHL SUB NOT DUP4 AND DUP2 OR DUP5 SSTORE PUSH1 0x40 MLOAD SWAP2 SWAP1 SWAP3 AND SWAP3 DUP4 SWAP2 PUSH32 0x8BE0079C531659141344CD1FD0A4F28419497F9722A3DAAFE3B4186F6B6457E0 SWAP2 SWAP1 LOG3 POP POP JUMP JUMPDEST PUSH4 0x4E487B71 PUSH1 0xE0 SHL PUSH0 MSTORE PUSH1 0x41 PUSH1 0x4 MSTORE PUSH1 0x24 PUSH0 REVERT JUMPDEST PUSH0 DUP1 PUSH1 0x40 DUP4 DUP6 SUB SLT ISZERO PUSH3 0x10C JUMPI PUSH0 DUP1 REVERT JUMPDEST DUP3 MLOAD PUSH1 0x1 PUSH1 0x1 PUSH1 0xA0 SHL SUB DUP2 AND DUP2 EQ PUSH3 0x123 JUMPI PUSH0 DUP1 REVERT JUMPDEST PUSH1 0x20 DUP5 DUP2 ADD MLOAD SWAP2 SWAP4 POP SWAP1 PUSH1 0x1 PUSH1 0x1 PUSH1 0x40 SHL SUB DUP1 DUP3 GT ISZERO PUSH3 0x142 JUMPI PUSH0 DUP1 REVERT JUMPDEST DUP2 DUP7 ADD SWAP2 POP DUP7 PUSH1 0x1F DUP4 ADD SLT PUSH3 0x156 JUMPI PUSH0 DUP1 REVERT JUMPDEST DUP2 MLOAD DUP2 DUP2 GT ISZERO PUSH3 0x16B JUMPI PUSH3 0x16B PUSH3 0xE6 JUMP JUMPDEST PUSH1 0x40 MLOAD PUSH1 0x1F DUP3 ADD PUSH1 0x1F NOT SWAP1 DUP2 AND PUSH1 0x3F ADD AND DUP2 ADD SWAP1 DUP4 DUP3 GT DUP2 DUP4 LT OR ISZERO PUSH3 0x196 JUMPI PUSH3 0x196 PUSH3 0xE6 JUMP JUMPDEST DUP2 PUSH1 0x40 MSTORE DUP3 DUP2 MSTORE DUP10 DUP7 DUP5 DUP8 ADD ADD GT ISZERO PUSH3 0x1AE JUMPI PUSH0 DUP1 REVERT JUMPDEST PUSH0 SWAP4 POP JUMPDEST DUP3 DUP5 LT ISZERO PUSH3 0x1D1 JUMPI DUP5 DUP5 ADD DUP7 ADD MLOAD DUP2 DUP6 ADD DUP8 ADD MSTORE SWAP3 DUP6 ADD SWAP3 PUSH3 0x1B2 JUMP JUMPDEST PUSH0 DUP7 DUP5 DUP4 ADD ADD MSTORE DUP1 SWAP7 POP POP POP POP POP POP POP SWAP3 POP SWAP3 SWAP1 POP JUMP JUMPDEST PUSH1 0x1 DUP2 DUP2 SHR SWAP1 DUP3 AND DUP1 PUSH3 0x1FD JUMPI PUSH1 0x7F DUP3 AND SWAP2 POP JUMPDEST PUSH1 0x20 DUP3 LT DUP2 SUB PUSH3 0x21C JUMPI PUSH4 0x4E487B71 PUSH1 0xE0 SHL PUSH0 MSTORE PUSH1 0x22 PUSH1 0x4 MSTORE PUSH1 0x24 PUSH0 REVERT JUMPDEST POP SWAP2 SWAP1 POP JUMP JUMPDEST PUSH1 0x1F DUP3 GT ISZERO PUSH3 0x26D JUMPI DUP1 PUSH0 MSTORE PUSH1 0x20 PUSH0 KECCAK256 PUSH1 0x1F DUP5 ADD PUSH1 0x5 SHR DUP2 ADD PUSH1 0x20 DUP6 LT ISZERO PUSH3 0x249 JUMPI POP DUP1 JUMPDEST PUSH1 0x1F DUP5 ADD PUSH1 0x5 SHR DUP3 ADD SWAP2 POP JUMPDEST DUP2 DUP2 LT ISZERO PUSH3 0x26A JUMPI PUSH0 DUP2 SSTORE PUSH1 0x1 ADD PUSH3 0x255 JUMP JUMPDEST POP POP JUMPDEST POP POP POP JUMP JUMPDEST DUP2 MLOAD PUSH1 0x1 PUSH1 0x1 PUSH1 0x40 SHL SUB DUP2 GT ISZERO PUSH3 0x28E JUMPI PUSH3 0x28E PUSH3 0xE6 JUMP JUMPDEST PUSH3 0x2A6 DUP2 PUSH3 0x29F DUP5 SLOAD PUSH3 0x1E8 JUMP JUMPDEST DUP5 PUSH3 0x222 JUMP JUMPDEST PUSH1 0x20 DUP1 PUSH1 0x1F DUP4 GT PUSH1 0x1 DUP2 EQ PUSH3 0x2DC JUMPI PUSH0 DUP5 ISZERO PUSH3 0x2C4 JUMPI POP DUP6 DUP4 ADD MLOAD JUMPDEST PUSH0 NOT PUSH1 0x3 DUP7 SWAP1 SHL SHR NOT AND PUSH1 0x1 DUP6 SWAP1 SHL OR DUP6 SSTORE PUSH3 0x336 JUMP JUMPDEST PUSH0 DUP6 DUP2 MSTORE PUSH1 0x20 DUP2 KECCAK256 PUSH1 0x1F NOT DUP7 AND SWAP2 JUMPDEST DUP3 DUP2 LT ISZERO PUSH3 0x30C JUMPI DUP9 DUP7 ADD MLOAD DUP3 SSTORE SWAP5 DUP5 ADD SWAP5 PUSH1 0x1 SWAP1 SWAP2 ADD SWAP1 DUP5 ADD PUSH3 0x2EB JUMP JUMPDEST POP DUP6 DUP3 LT ISZERO PUSH3 0x32A JUMPI DUP8 DUP6 ADD MLOAD PUSH0 NOT PUSH1 0x3 DUP9 SWAP1 SHL PUSH1 0xF8 AND SHR NOT AND DUP2 SSTORE JUMPDEST POP POP PUSH1 0x1 DUP5 PUSH1 0x1 SHL ADD DUP6 SSTORE JUMPDEST POP POP POP POP POP POP JUMP JUMPDEST PUSH2 0x1013 DUP1 PUSH3 0x34C PUSH0 CODECOPY PUSH0 RETURN INVALID PUSH1 0x80 PUSH1 0x40 MSTORE CALLVALUE DUP1 ISZERO PUSH2 0xF JUMPI PUSH0 DUP1 REVERT JUMPDEST POP PUSH1 0x4 CALLDATASIZE LT PUSH2 0xB1 JUMPI PUSH0 CALLDATALOAD PUSH1 0xE0 SHR DUP1 PUSH4 0x8DA5CB5B GT PUSH2 0x6E JUMPI DUP1 PUSH4 0x8DA5CB5B EQ PUSH2 0x11E JUMPI DUP1 PUSH4 0x92B4C81B EQ PUSH2 0x138 JUMPI DUP1 PUSH4 0xCE2F4F53 EQ PUSH2 0x14B JUMPI DUP1 PUSH4 0xDFE8478B EQ PUSH2 0x16E JUMPI DUP1 PUSH4 0xF0B305EB EQ PUSH2 0x176 JUMPI DUP1 PUSH4 0xF2FDE38B EQ PUSH2 0x189 JUMPI PUSH0 DUP1 REVERT JUMPDEST DUP1 PUSH4 0xDD4F079 EQ PUSH2 0xB5 JUMPI DUP1 PUSH4 0x2C90464D EQ PUSH2 0xDE JUMPI DUP1 PUSH4 0x3DC081B9 EQ PUSH2 0xF1 JUMPI DUP1 PUSH4 0x55F804B3 EQ PUSH2 0xF9 JUMPI DUP1 PUSH4 0x6C0360EB EQ PUSH2 0x10E JUMPI DUP1 PUSH4 0x715018A6 EQ PUSH2 0x116 JUMPI JUMPDEST PUSH0 DUP1 REVERT JUMPDEST PUSH2 0xC8 PUSH2 0xC3 CALLDATASIZE PUSH1 0x4 PUSH2 0x99D JUMP JUMPDEST PUSH2 0x19C JUMP JUMPDEST PUSH1 0x40 MLOAD PUSH2 0xD5 SWAP2 SWAP1 PUSH2 0xA03 JUMP JUMPDEST PUSH1 0x40 MLOAD DUP1 SWAP2 SUB SWAP1 RETURN JUMPDEST PUSH2 0xC8 PUSH2 0xEC CALLDATASIZE PUSH1 0x4 PUSH2 0x99D JUMP JUMPDEST PUSH2 0x1E5 JUMP JUMPDEST PUSH2 0xC8 PUSH2 0x23D JUMP JUMPDEST PUSH2 0x10C PUSH2 0x107 CALLDATASIZE PUSH1 0x4 PUSH2 0xA35 JUMP JUMPDEST PUSH2 0x2C9 JUMP JUMPDEST STOP JUMPDEST PUSH2 0xC8 PUSH2 0x31C JUMP JUMPDEST PUSH2 0x10C PUSH2 0x329 JUMP JUMPDEST PUSH0 SLOAD PUSH1 0x40 MLOAD PUSH1 0x1 PUSH1 0x1 PUSH1 0xA0 SHL SUB SWAP1 SWAP2 AND DUP2 MSTORE PUSH1 0x20 ADD PUSH2 0xD5 JUMP JUMPDEST PUSH2 0xC8 PUSH2 0x146 CALLDATASIZE PUSH1 0x4 PUSH2 0xAA1 JUMP JUMPDEST PUSH2 0x33C JUMP JUMPDEST PUSH0 SLOAD PUSH2 0x15E SWAP1 PUSH1 0x1 PUSH1 0xA0 SHL SWAP1 DIV PUSH1 0xFF AND DUP2 JUMP JUMPDEST PUSH1 0x40 MLOAD SWAP1 ISZERO ISZERO DUP2 MSTORE PUSH1 0x20 ADD PUSH2 0xD5 JUMP JUMPDEST PUSH2 0x10C PUSH2 0x3A6 JUMP JUMPDEST PUSH2 0xC8 PUSH2 0x184 CALLDATASIZE PUSH1 0x4 PUSH2 0xB72 JUMP JUMPDEST PUSH2 0x403 JUMP JUMPDEST PUSH2 0x10C PUSH2 0x197 CALLDATASIZE PUSH1 0x4 PUSH2 0xBC8 JUMP JUMPDEST PUSH2 0x446 JUMP JUMPDEST PUSH1 0x60 PUSH0 PUSH2 0x1A8 DUP5 PUSH2 0x488 JUMP JUMPDEST SWAP1 POP PUSH0 PUSH1 0x2 DUP3 PUSH1 0x40 MLOAD PUSH1 0x20 ADD PUSH2 0x1BF SWAP3 SWAP2 SWAP1 PUSH2 0xC9C JUMP JUMPDEST PUSH1 0x40 MLOAD PUSH1 0x20 DUP2 DUP4 SUB SUB DUP2 MSTORE SWAP1 PUSH1 0x40 MSTORE SWAP1 POP PUSH2 0x1DA DUP2 DUP6 PUSH2 0x403 JUMP JUMPDEST SWAP3 POP POP POP JUMPDEST SWAP3 SWAP2 POP POP JUMP JUMPDEST PUSH0 SLOAD PUSH1 0x60 SWAP1 PUSH1 0x1 PUSH1 0xA0 SHL SWAP1 DIV PUSH1 0xFF AND ISZERO PUSH2 0x20A JUMPI PUSH2 0x203 DUP4 DUP4 PUSH2 0x19C JUMP JUMPDEST SWAP1 POP PUSH2 0x1DF JUMP JUMPDEST PUSH1 0x1 PUSH2 0x215 DUP5 PUSH2 0x488 JUMP JUMPDEST PUSH1 0x40 MLOAD PUSH1 0x20 ADD PUSH2 0x226 SWAP3 SWAP2 SWAP1 PUSH2 0xCCD JUMP JUMPDEST PUSH1 0x40 MLOAD PUSH1 0x20 DUP2 DUP4 SUB SUB DUP2 MSTORE SWAP1 PUSH1 0x40 MSTORE SWAP1 POP SWAP3 SWAP2 POP POP JUMP JUMPDEST PUSH1 0x2 DUP1 SLOAD PUSH2 0x24A SWAP1 PUSH2 0xBF5 JUMP JUMPDEST DUP1 PUSH1 0x1F ADD PUSH1 0x20 DUP1 SWAP2 DIV MUL PUSH1 0x20 ADD PUSH1 0x40 MLOAD SWAP1 DUP2 ADD PUSH1 0x40 MSTORE DUP1 SWAP3 SWAP2 SWAP1 DUP2 DUP2 MSTORE PUSH1 0x20 ADD DUP3 DUP1 SLOAD PUSH2 0x276 SWAP1 PUSH2 0xBF5 JUMP JUMPDEST DUP1 ISZERO PUSH2 0x2C1 JUMPI DUP1 PUSH1 0x1F LT PUSH2 0x298 JUMPI PUSH2 0x100 DUP1 DUP4 SLOAD DIV MUL DUP4 MSTORE SWAP2 PUSH1 0x20 ADD SWAP2 PUSH2 0x2C1 JUMP JUMPDEST DUP3 ADD SWAP2 SWAP1 PUSH0 MSTORE PUSH1 0x20 PUSH0 KECCAK256 SWAP1 JUMPDEST DUP2 SLOAD DUP2 MSTORE SWAP1 PUSH1 0x1 ADD SWAP1 PUSH1 0x20 ADD DUP1 DUP4 GT PUSH2 0x2A4 JUMPI DUP3 SWAP1 SUB PUSH1 0x1F AND DUP3 ADD SWAP2 JUMPDEST POP POP POP POP POP DUP2 JUMP JUMPDEST PUSH2 0x2D1 PUSH2 0x518 JUMP JUMPDEST PUSH1 0x1 PUSH2 0x2DE DUP3 DUP5 DUP4 PUSH2 0xD3D JUMP JUMPDEST POP PUSH32 0x6741B2FC379FAD678116FE3D4D4B9A1A184AB53BA36B86AD0FA66340B1AB41AD DUP3 DUP3 PUSH1 0x40 MLOAD PUSH2 0x310 SWAP3 SWAP2 SWAP1 PUSH2 0xDF7 JUMP JUMPDEST PUSH1 0x40 MLOAD DUP1 SWAP2 SUB SWAP1 LOG1 POP POP JUMP JUMPDEST PUSH1 0x1 DUP1 SLOAD PUSH2 0x24A SWAP1 PUSH2 0xBF5 JUMP JUMPDEST PUSH2 0x331 PUSH2 0x518 JUMP JUMPDEST PUSH2 0x33A PUSH0 PUSH2 0x544 JUMP JUMPDEST JUMP JUMPDEST PUSH1 0x60 PUSH0 DUP3 PUSH0 ADD MLOAD DUP4 PUSH1 0x20 ADD MLOAD DUP5 PUSH1 0x40 ADD MLOAD DUP6 PUSH1 0x60 ADD MLOAD PUSH1 0x40 MLOAD PUSH1 0x20 ADD PUSH2 0x365 SWAP5 SWAP4 SWAP3 SWAP2 SWAP1 PUSH2 0xE25 JUMP JUMPDEST PUSH1 0x40 MLOAD PUSH1 0x20 DUP2 DUP4 SUB SUB DUP2 MSTORE SWAP1 PUSH1 0x40 MSTORE SWAP1 POP PUSH2 0x37F DUP2 PUSH2 0x593 JUMP JUMPDEST PUSH1 0x40 MLOAD PUSH1 0x20 ADD PUSH2 0x38F SWAP2 SWAP1 PUSH2 0xEFC JUMP JUMPDEST PUSH1 0x40 MLOAD PUSH1 0x20 DUP2 DUP4 SUB SUB DUP2 MSTORE SWAP1 PUSH1 0x40 MSTORE SWAP2 POP POP SWAP2 SWAP1 POP JUMP JUMPDEST PUSH2 0x3AE PUSH2 0x518 JUMP JUMPDEST PUSH0 DUP1 SLOAD PUSH1 0xFF PUSH1 0xA0 SHL NOT DUP2 AND PUSH1 0x1 PUSH1 0xA0 SHL SWAP2 DUP3 SWAP1 DIV PUSH1 0xFF AND ISZERO SWAP2 DUP3 MUL OR SWAP1 SWAP2 SSTORE PUSH1 0x40 MLOAD DUP2 DUP2 MSTORE PUSH32 0x360C3D72EE193226275B842F85231C259C934E85459FED80FA68E502FFA9DBDE SWAP1 PUSH1 0x20 ADD PUSH1 0x40 MLOAD DUP1 SWAP2 SUB SWAP1 LOG1 POP JUMP JUMPDEST PUSH1 0x60 PUSH0 PUSH1 0x40 MLOAD DUP1 PUSH1 0x80 ADD PUSH1 0x40 MSTORE DUP1 DUP6 DUP2 MSTORE PUSH1 0x20 ADD DUP5 PUSH1 0x20 ADD MLOAD DUP2 MSTORE PUSH1 0x20 ADD DUP5 PUSH1 0x60 ADD MLOAD DUP2 MSTORE PUSH1 0x20 ADD DUP5 PUSH1 0xA0 ADD MLOAD DUP2 MSTORE POP SWAP1 POP PUSH2 0x43E DUP2 PUSH2 0x33C JUMP JUMPDEST SWAP5 SWAP4 POP POP POP POP JUMP JUMPDEST PUSH2 0x44E PUSH2 0x518 JUMP JUMPDEST PUSH1 0x1 PUSH1 0x1 PUSH1 0xA0 SHL SUB DUP2 AND PUSH2 0x47C JUMPI PUSH1 0x40 MLOAD PUSH4 0x1E4FBDF7 PUSH1 0xE0 SHL DUP2 MSTORE PUSH0 PUSH1 0x4 DUP3 ADD MSTORE PUSH1 0x24 ADD JUMPDEST PUSH1 0x40 MLOAD DUP1 SWAP2 SUB SWAP1 REVERT JUMPDEST PUSH2 0x485 DUP2 PUSH2 0x544 JUMP JUMPDEST POP JUMP JUMPDEST PUSH1 0x60 PUSH0 PUSH2 0x494 DUP4 PUSH2 0x6E2 JUMP JUMPDEST PUSH1 0x1 ADD SWAP1 POP PUSH0 DUP2 PUSH8 0xFFFFFFFFFFFFFFFF DUP2 GT ISZERO PUSH2 0x4B3 JUMPI PUSH2 0x4B3 PUSH2 0x7B9 JUMP JUMPDEST PUSH1 0x40 MLOAD SWAP1 DUP1 DUP3 MSTORE DUP1 PUSH1 0x1F ADD PUSH1 0x1F NOT AND PUSH1 0x20 ADD DUP3 ADD PUSH1 0x40 MSTORE DUP1 ISZERO PUSH2 0x4DD JUMPI PUSH1 0x20 DUP3 ADD DUP2 DUP1 CALLDATASIZE DUP4 CALLDATACOPY ADD SWAP1 POP JUMPDEST POP SWAP1 POP DUP2 DUP2 ADD PUSH1 0x20 ADD JUMPDEST PUSH0 NOT ADD PUSH16 0x181899199A1A9B1B9C1CB0B131B232B3 PUSH1 0x81 SHL PUSH1 0xA DUP7 MOD BYTE DUP2 MSTORE8 PUSH1 0xA DUP6 DIV SWAP5 POP DUP5 PUSH2 0x4E7 JUMPI POP SWAP4 SWAP3 POP POP POP JUMP JUMPDEST PUSH0 SLOAD PUSH1 0x1 PUSH1 0x1 PUSH1 0xA0 SHL SUB AND CALLER EQ PUSH2 0x33A JUMPI PUSH1 0x40 MLOAD PUSH4 0x118CDAA7 PUSH1 0xE0 SHL DUP2 MSTORE CALLER PUSH1 0x4 DUP3 ADD MSTORE PUSH1 0x24 ADD PUSH2 0x473 JUMP JUMPDEST PUSH0 DUP1 SLOAD PUSH1 0x1 PUSH1 0x1 PUSH1 0xA0 SHL SUB DUP4 DUP2 AND PUSH1 0x1 PUSH1 0x1 PUSH1 0xA0 SHL SUB NOT DUP4 AND DUP2 OR DUP5 SSTORE PUSH1 0x40 MLOAD SWAP2 SWAP1 SWAP3 AND SWAP3 DUP4 SWAP2 PUSH32 0x8BE0079C531659141344CD1FD0A4F28419497F9722A3DAAFE3B4186F6B6457E0 SWAP2 SWAP1 LOG3 POP POP JUMP JUMPDEST PUSH1 0x60 DUP2 MLOAD PUSH0 SUB PUSH2 0x5B0 JUMPI POP POP PUSH1 0x40 DUP1 MLOAD PUSH1 0x20 DUP2 ADD SWAP1 SWAP2 MSTORE PUSH0 DUP2 MSTORE SWAP1 JUMP JUMPDEST PUSH0 PUSH1 0x40 MLOAD DUP1 PUSH1 0x60 ADD PUSH1 0x40 MSTORE DUP1 PUSH1 0x40 DUP2 MSTORE PUSH1 0x20 ADD PUSH2 0xF9E PUSH1 0x40 SWAP2 CODECOPY SWAP1 POP PUSH0 PUSH1 0x3 DUP5 MLOAD PUSH1 0x2 PUSH2 0x5DD SWAP2 SWAP1 PUSH2 0xF54 JUMP JUMPDEST PUSH2 0x5E7 SWAP2 SWAP1 PUSH2 0xF67 JUMP JUMPDEST PUSH2 0x5F2 SWAP1 PUSH1 0x4 PUSH2 0xF86 JUMP JUMPDEST PUSH8 0xFFFFFFFFFFFFFFFF DUP2 GT ISZERO PUSH2 0x60A JUMPI PUSH2 0x60A PUSH2 0x7B9 JUMP JUMPDEST PUSH1 0x40 MLOAD SWAP1 DUP1 DUP3 MSTORE DUP1 PUSH1 0x1F ADD PUSH1 0x1F NOT AND PUSH1 0x20 ADD DUP3 ADD PUSH1 0x40 MSTORE DUP1 ISZERO PUSH2 0x634 JUMPI PUSH1 0x20 DUP3 ADD DUP2 DUP1 CALLDATASIZE DUP4 CALLDATACOPY ADD SWAP1 POP JUMPDEST POP SWAP1 POP PUSH1 0x1 DUP3 ADD PUSH1 0x20 DUP3 ADD DUP6 DUP7 MLOAD DUP8 ADD JUMPDEST DUP1 DUP3 LT ISZERO PUSH2 0x6A0 JUMPI PUSH1 0x3 DUP3 ADD SWAP2 POP DUP2 MLOAD PUSH1 0x3F DUP2 PUSH1 0x12 SHR AND DUP6 ADD MLOAD DUP5 MSTORE8 PUSH1 0x1 DUP5 ADD SWAP4 POP PUSH1 0x3F DUP2 PUSH1 0xC SHR AND DUP6 ADD MLOAD DUP5 MSTORE8 PUSH1 0x1 DUP5 ADD SWAP4 POP PUSH1 0x3F DUP2 PUSH1 0x6 SHR AND DUP6 ADD MLOAD DUP5 MSTORE8 PUSH1 0x1 DUP5 ADD SWAP4 POP PUSH1 0x3F DUP2 AND DUP6 ADD MLOAD DUP5 MSTORE8 POP PUSH1 0x1 DUP4 ADD SWAP3 POP PUSH2 0x645 JUMP JUMPDEST POP POP PUSH1 0x3 DUP7 MLOAD MOD PUSH1 0x1 DUP2 EQ PUSH2 0x6BC JUMPI PUSH1 0x2 DUP2 EQ PUSH2 0x6CF JUMPI PUSH2 0x6D7 JUMP JUMPDEST PUSH1 0x3D PUSH1 0x1 DUP4 SUB MSTORE8 PUSH1 0x3D PUSH1 0x2 DUP4 SUB MSTORE8 PUSH2 0x6D7 JUMP JUMPDEST PUSH1 0x3D PUSH1 0x1 DUP4 SUB MSTORE8 JUMPDEST POP SWAP2 SWAP6 SWAP5 POP POP POP POP POP JUMP JUMPDEST PUSH0 DUP1 PUSH19 0x184F03E93FF9F4DAA797ED6E38ED64BF6A1F01 PUSH1 0x40 SHL DUP4 LT PUSH2 0x720 JUMPI PUSH19 0x184F03E93FF9F4DAA797ED6E38ED64BF6A1F01 PUSH1 0x40 SHL DUP4 DIV SWAP3 POP PUSH1 0x40 ADD JUMPDEST PUSH14 0x4EE2D6D415B85ACEF8100000000 DUP4 LT PUSH2 0x74C JUMPI PUSH14 0x4EE2D6D415B85ACEF8100000000 DUP4 DIV SWAP3 POP PUSH1 0x20 ADD JUMPDEST PUSH7 0x2386F26FC10000 DUP4 LT PUSH2 0x76A JUMPI PUSH7 0x2386F26FC10000 DUP4 DIV SWAP3 POP PUSH1 0x10 ADD JUMPDEST PUSH4 0x5F5E100 DUP4 LT PUSH2 0x782 JUMPI PUSH4 0x5F5E100 DUP4 DIV SWAP3 POP PUSH1 0x8 ADD JUMPDEST PUSH2 0x2710 DUP4 LT PUSH2 0x796 JUMPI PUSH2 0x2710 DUP4 DIV SWAP3 POP PUSH1 0x4 ADD JUMPDEST PUSH1 0x64 DUP4 LT PUSH2 0x7A8 JUMPI PUSH1 0x64 DUP4 DIV SWAP3 POP PUSH1 0x2 ADD JUMPDEST PUSH1 0xA DUP4 LT PUSH2 0x1DF JUMPI PUSH1 0x1 ADD SWAP3 SWAP2 POP POP JUMP JUMPDEST PUSH4 0x4E487B71 PUSH1 0xE0 SHL PUSH0 MSTORE PUSH1 0x41 PUSH1 0x4 MSTORE PUSH1 0x24 PUSH0 REVERT JUMPDEST PUSH1 0x40 MLOAD PUSH1 0xC0 DUP2 ADD PUSH8 0xFFFFFFFFFFFFFFFF DUP2 GT DUP3 DUP3 LT OR ISZERO PUSH2 0x7F0 JUMPI PUSH2 0x7F0 PUSH2 0x7B9 JUMP JUMPDEST PUSH1 0x40 MSTORE SWAP1 JUMP JUMPDEST PUSH1 0x40 MLOAD PUSH1 0x80 DUP2 ADD PUSH8 0xFFFFFFFFFFFFFFFF DUP2 GT DUP3 DUP3 LT OR ISZERO PUSH2 0x7F0 JUMPI PUSH2 0x7F0 PUSH2 0x7B9 JUMP JUMPDEST PUSH0 DUP3 PUSH1 0x1F DUP4 ADD SLT PUSH2 0x828 JUMPI PUSH0 DUP1 REVERT JUMPDEST DUP2 CALLDATALOAD PUSH8 0xFFFFFFFFFFFFFFFF DUP1 DUP3 GT ISZERO PUSH2 0x843 JUMPI PUSH2 0x843 PUSH2 0x7B9 JUMP JUMPDEST PUSH1 0x40 MLOAD PUSH1 0x1F DUP4 ADD PUSH1 0x1F NOT SWAP1 DUP2 AND PUSH1 0x3F ADD AND DUP2 ADD SWAP1 DUP3 DUP3 GT DUP2 DUP4 LT OR ISZERO PUSH2 0x86B JUMPI PUSH2 0x86B PUSH2 0x7B9 JUMP JUMPDEST DUP2 PUSH1 0x40 MSTORE DUP4 DUP2 MSTORE DUP7 PUSH1 0x20 DUP6 DUP9 ADD ADD GT ISZERO PUSH2 0x883 JUMPI PUSH0 DUP1 REVERT JUMPDEST DUP4 PUSH1 0x20 DUP8 ADD PUSH1 0x20 DUP4 ADD CALLDATACOPY PUSH0 PUSH1 0x20 DUP6 DUP4 ADD ADD MSTORE DUP1 SWAP5 POP POP POP POP POP SWAP3 SWAP2 POP POP JUMP JUMPDEST DUP1 CALLDATALOAD PUSH1 0x6 DUP2 LT PUSH2 0x8B0 JUMPI PUSH0 DUP1 REVERT JUMPDEST SWAP2 SWAP1 POP JUMP JUMPDEST PUSH0 PUSH1 0xC0 DUP3 DUP5 SUB SLT ISZERO PUSH2 0x8C5 JUMPI PUSH0 DUP1 REVERT JUMPDEST PUSH2 0x8CD PUSH2 0x7CD JUMP JUMPDEST SWAP1 POP DUP2 CALLDATALOAD PUSH8 0xFFFFFFFFFFFFFFFF DUP1 DUP3 GT ISZERO PUSH2 0x8E6 JUMPI PUSH0 DUP1 REVERT JUMPDEST PUSH2 0x8F2 DUP6 DUP4 DUP7 ADD PUSH2 0x819 JUMP JUMPDEST DUP4 MSTORE PUSH1 0x20 DUP5 ADD CALLDATALOAD SWAP2 POP DUP1 DUP3 GT ISZERO PUSH2 0x907 JUMPI PUSH0 DUP1 REVERT JUMPDEST PUSH2 0x913 DUP6 DUP4 DUP7 ADD PUSH2 0x819 JUMP JUMPDEST PUSH1 0x20 DUP5 ADD MSTORE PUSH2 0x924 PUSH1 0x40 DUP6 ADD PUSH2 0x8A2 JUMP JUMPDEST PUSH1 0x40 DUP5 ADD MSTORE PUSH1 0x60 DUP5 ADD CALLDATALOAD SWAP2 POP DUP1 DUP3 GT ISZERO PUSH2 0x93C JUMPI PUSH0 DUP1 REVERT JUMPDEST PUSH2 0x948 DUP6 DUP4 DUP7 ADD PUSH2 0x819 JUMP JUMPDEST PUSH1 0x60 DUP5 ADD MSTORE PUSH1 0x80 DUP5 ADD CALLDATALOAD SWAP2 POP DUP1 DUP3 GT ISZERO PUSH2 0x960 JUMPI PUSH0 DUP1 REVERT JUMPDEST PUSH2 0x96C DUP6 DUP4 DUP7 ADD PUSH2 0x819 JUMP JUMPDEST PUSH1 0x80 DUP5 ADD MSTORE PUSH1 0xA0 DUP5 ADD CALLDATALOAD SWAP2 POP DUP1 DUP3 GT ISZERO PUSH2 0x984 JUMPI PUSH0 DUP1 REVERT JUMPDEST POP PUSH2 0x991 DUP5 DUP3 DUP6 ADD PUSH2 0x819 JUMP JUMPDEST PUSH1 0xA0 DUP4 ADD MSTORE POP SWAP3 SWAP2 POP POP JUMP JUMPDEST PUSH0 DUP1 PUSH1 0x40 DUP4 DUP6 SUB SLT ISZERO PUSH2 0x9AE JUMPI PUSH0 DUP1 REVERT JUMPDEST DUP3 CALLDATALOAD SWAP2 POP PUSH1 0x20 DUP4 ADD CALLDATALOAD PUSH8 0xFFFFFFFFFFFFFFFF DUP2 GT ISZERO PUSH2 0x9CB JUMPI PUSH0 DUP1 REVERT JUMPDEST PUSH2 0x9D7 DUP6 DUP3 DUP7 ADD PUSH2 0x8B5 JUMP JUMPDEST SWAP2 POP POP SWAP3 POP SWAP3 SWAP1 POP JUMP JUMPDEST PUSH0 JUMPDEST DUP4 DUP2 LT ISZERO PUSH2 0x9FB JUMPI DUP2 DUP2 ADD MLOAD DUP4 DUP3 ADD MSTORE PUSH1 0x20 ADD PUSH2 0x9E3 JUMP JUMPDEST POP POP PUSH0 SWAP2 ADD MSTORE JUMP JUMPDEST PUSH1 0x20 DUP2 MSTORE PUSH0 DUP3 MLOAD DUP1 PUSH1 0x20 DUP5 ADD MSTORE PUSH2 0xA21 DUP2 PUSH1 0x40 DUP6 ADD PUSH1 0x20 DUP8 ADD PUSH2 0x9E1 JUMP JUMPDEST PUSH1 0x1F ADD PUSH1 0x1F NOT AND SWAP2 SWAP1 SWAP2 ADD PUSH1 0x40 ADD SWAP3 SWAP2 POP POP JUMP JUMPDEST PUSH0 DUP1 PUSH1 0x20 DUP4 DUP6 SUB SLT ISZERO PUSH2 0xA46 JUMPI PUSH0 DUP1 REVERT JUMPDEST DUP3 CALLDATALOAD PUSH8 0xFFFFFFFFFFFFFFFF DUP1 DUP3 GT ISZERO PUSH2 0xA5D JUMPI PUSH0 DUP1 REVERT JUMPDEST DUP2 DUP6 ADD SWAP2 POP DUP6 PUSH1 0x1F DUP4 ADD SLT PUSH2 0xA70 JUMPI PUSH0 DUP1 REVERT JUMPDEST DUP2 CALLDATALOAD DUP2 DUP2 GT ISZERO PUSH2 0xA7E JUMPI PUSH0 DUP1 REVERT JUMPDEST DUP7 PUSH1 0x20 DUP3 DUP6 ADD ADD GT ISZERO PUSH2 0xA8F JUMPI PUSH0 DUP1 REVERT JUMPDEST PUSH1 0x20 SWAP3 SWAP1 SWAP3 ADD SWAP7 SWAP2 SWAP6 POP SWAP1 SWAP4 POP POP POP POP JUMP JUMPDEST PUSH0 PUSH1 0x20 DUP3 DUP5 SUB SLT ISZERO PUSH2 0xAB1 JUMPI PUSH0 DUP1 REVERT JUMPDEST DUP2 CALLDATALOAD PUSH8 0xFFFFFFFFFFFFFFFF DUP1 DUP3 GT ISZERO PUSH2 0xAC8 JUMPI PUSH0 DUP1 REVERT JUMPDEST SWAP1 DUP4 ADD SWAP1 PUSH1 0x80 DUP3 DUP7 SUB SLT ISZERO PUSH2 0xADB JUMPI PUSH0 DUP1 REVERT JUMPDEST PUSH2 0xAE3 PUSH2 0x7F6 JUMP JUMPDEST DUP3 CALLDATALOAD DUP3 DUP2 GT ISZERO PUSH2 0xAF1 JUMPI PUSH0 DUP1 REVERT JUMPDEST PUSH2 0xAFD DUP8 DUP3 DUP7 ADD PUSH2 0x819 JUMP JUMPDEST DUP3 MSTORE POP PUSH1 0x20 DUP4 ADD CALLDATALOAD DUP3 DUP2 GT ISZERO PUSH2 0xB11 JUMPI PUSH0 DUP1 REVERT JUMPDEST PUSH2 0xB1D DUP8 DUP3 DUP7 ADD PUSH2 0x819 JUMP JUMPDEST PUSH1 0x20 DUP4 ADD MSTORE POP PUSH1 0x40 DUP4 ADD CALLDATALOAD DUP3 DUP2 GT ISZERO PUSH2 0xB34 JUMPI PUSH0 DUP1 REVERT JUMPDEST PUSH2 0xB40 DUP8 DUP3 DUP7 ADD PUSH2 0x819 JUMP JUMPDEST PUSH1 0x40 DUP4 ADD MSTORE POP PUSH1 0x60 DUP4 ADD CALLDATALOAD DUP3 DUP2 GT ISZERO PUSH2 0xB57 JUMPI PUSH0 DUP1 REVERT JUMPDEST PUSH2 0xB63 DUP8 DUP3 DUP7 ADD PUSH2 0x819 JUMP JUMPDEST PUSH1 0x60 DUP4 ADD MSTORE POP SWAP6 SWAP5 POP POP POP POP POP JUMP JUMPDEST PUSH0 DUP1 PUSH1 0x40 DUP4 DUP6 SUB SLT ISZERO PUSH2 0xB83 JUMPI PUSH0 DUP1 REVERT JUMPDEST DUP3 CALLDATALOAD PUSH8 0xFFFFFFFFFFFFFFFF DUP1 DUP3 GT ISZERO PUSH2 0xB9A JUMPI PUSH0 DUP1 REVERT JUMPDEST PUSH2 0xBA6 DUP7 DUP4 DUP8 ADD PUSH2 0x819 JUMP JUMPDEST SWAP4 POP PUSH1 0x20 DUP6 ADD CALLDATALOAD SWAP2 POP DUP1 DUP3 GT ISZERO PUSH2 0xBBB JUMPI PUSH0 DUP1 REVERT JUMPDEST POP PUSH2 0x9D7 DUP6 DUP3 DUP7 ADD PUSH2 0x8B5 JUMP JUMPDEST PUSH0 PUSH1 0x20 DUP3 DUP5 SUB SLT ISZERO PUSH2 0xBD8 JUMPI PUSH0 DUP1 REVERT JUMPDEST DUP2 CALLDATALOAD PUSH1 0x1 PUSH1 0x1 PUSH1 0xA0 SHL SUB DUP2 AND DUP2 EQ PUSH2 0xBEE JUMPI PUSH0 DUP1 REVERT JUMPDEST SWAP4 SWAP3 POP POP POP JUMP JUMPDEST PUSH1 0x1 DUP2 DUP2 SHR SWAP1 DUP3 AND DUP1 PUSH2 0xC09 JUMPI PUSH1 0x7F DUP3 AND SWAP2 POP JUMPDEST PUSH1 0x20 DUP3 LT DUP2 SUB PUSH2 0xC27 JUMPI PUSH4 0x4E487B71 PUSH1 0xE0 SHL PUSH0 MSTORE PUSH1 0x22 PUSH1 0x4 MSTORE PUSH1 0x24 PUSH0 REVERT JUMPDEST POP SWAP2 SWAP1 POP JUMP JUMPDEST PUSH0 DUP2 SLOAD PUSH2 0xC39 DUP2 PUSH2 0xBF5 JUMP JUMPDEST PUSH1 0x1 DUP3 DUP2 AND DUP1 ISZERO PUSH2 0xC51 JUMPI PUSH1 0x1 DUP2 EQ PUSH2 0xC66 JUMPI PUSH2 0xC92 JUMP JUMPDEST PUSH1 0xFF NOT DUP5 AND DUP8 MSTORE DUP3 ISZERO ISZERO DUP4 MUL DUP8 ADD SWAP5 POP PUSH2 0xC92 JUMP JUMPDEST DUP6 PUSH0 MSTORE PUSH1 0x20 DUP1 PUSH0 KECCAK256 PUSH0 JUMPDEST DUP6 DUP2 LT ISZERO PUSH2 0xC89 JUMPI DUP2 SLOAD DUP11 DUP3 ADD MSTORE SWAP1 DUP5 ADD SWAP1 DUP3 ADD PUSH2 0xC70 JUMP JUMPDEST POP POP POP DUP3 DUP8 ADD SWAP5 POP JUMPDEST POP POP POP POP SWAP3 SWAP2 POP POP JUMP JUMPDEST PUSH0 PUSH2 0xCA7 DUP3 DUP6 PUSH2 0xC2D JUMP JUMPDEST PUSH1 0x1 PUSH1 0xFD SHL DUP2 MSTORE DUP4 MLOAD PUSH2 0xCC1 DUP2 PUSH1 0x1 DUP5 ADD PUSH1 0x20 DUP9 ADD PUSH2 0x9E1 JUMP JUMPDEST ADD PUSH1 0x1 ADD SWAP5 SWAP4 POP POP POP POP JUMP JUMPDEST PUSH0 PUSH2 0xCD8 DUP3 DUP6 PUSH2 0xC2D JUMP JUMPDEST DUP4 MLOAD PUSH2 0xCE8 DUP2 DUP4 PUSH1 0x20 DUP9 ADD PUSH2 0x9E1 JUMP JUMPDEST ADD SWAP5 SWAP4 POP POP POP POP JUMP JUMPDEST PUSH1 0x1F DUP3 GT ISZERO PUSH2 0xD38 JUMPI DUP1 PUSH0 MSTORE PUSH1 0x20 PUSH0 KECCAK256 PUSH1 0x1F DUP5 ADD PUSH1 0x5 SHR DUP2 ADD PUSH1 0x20 DUP6 LT ISZERO PUSH2 0xD16 JUMPI POP DUP1 JUMPDEST PUSH1 0x1F DUP5 ADD PUSH1 0x5 SHR DUP3 ADD SWAP2 POP JUMPDEST DUP2 DUP2 LT ISZERO PUSH2 0xD35 JUMPI PUSH0 DUP2 SSTORE PUSH1 0x1 ADD PUSH2 0xD22 JUMP JUMPDEST POP POP JUMPDEST POP POP POP JUMP JUMPDEST PUSH8 0xFFFFFFFFFFFFFFFF DUP4 GT ISZERO PUSH2 0xD55 JUMPI PUSH2 0xD55 PUSH2 0x7B9 JUMP JUMPDEST PUSH2 0xD69 DUP4 PUSH2 0xD63 DUP4 SLOAD PUSH2 0xBF5 JUMP JUMPDEST DUP4 PUSH2 0xCF1 JUMP JUMPDEST PUSH0 PUSH1 0x1F DUP5 GT PUSH1 0x1 DUP2 EQ PUSH2 0xD9A JUMPI PUSH0 DUP6 ISZERO PUSH2 0xD83 JUMPI POP DUP4 DUP3 ADD CALLDATALOAD JUMPDEST PUSH0 NOT PUSH1 0x3 DUP8 SWAP1 SHL SHR NOT AND PUSH1 0x1 DUP7 SWAP1 SHL OR DUP4 SSTORE PUSH2 0xD35 JUMP JUMPDEST PUSH0 DUP4 DUP2 MSTORE PUSH1 0x20 DUP2 KECCAK256 PUSH1 0x1F NOT DUP8 AND SWAP2 JUMPDEST DUP3 DUP2 LT ISZERO PUSH2 0xDC9 JUMPI DUP7 DUP6 ADD CALLDATALOAD DUP3 SSTORE PUSH1 0x20 SWAP5 DUP6 ADD SWAP5 PUSH1 0x1 SWAP1 SWAP3 ADD SWAP2 ADD PUSH2 0xDA9 JUMP JUMPDEST POP DUP7 DUP3 LT ISZERO PUSH2 0xDE5 JUMPI PUSH0 NOT PUSH1 0xF8 DUP9 PUSH1 0x3 SHL AND SHR NOT DUP5 DUP8 ADD CALLDATALOAD AND DUP2 SSTORE JUMPDEST POP POP PUSH1 0x1 DUP6 PUSH1 0x1 SHL ADD DUP4 SSTORE POP POP POP POP POP JUMP JUMPDEST PUSH1 0x20 DUP2 MSTORE DUP2 PUSH1 0x20 DUP3 ADD MSTORE DUP2 DUP4 PUSH1 0x40 DUP4 ADD CALLDATACOPY PUSH0 DUP2 DUP4 ADD PUSH1 0x40 SWAP1 DUP2 ADD SWAP2 SWAP1 SWAP2 MSTORE PUSH1 0x1F SWAP1 SWAP3 ADD PUSH1 0x1F NOT AND ADD ADD SWAP2 SWAP1 POP JUMP JUMPDEST PUSH9 0x3D913730B6B2911D11 PUSH1 0xB9 SHL DUP2 MSTORE DUP5 MLOAD PUSH0 SWAP1 PUSH2 0xE49 DUP2 PUSH1 0x9 DUP6 ADD PUSH1 0x20 DUP11 ADD PUSH2 0x9E1 JUMP JUMPDEST PUSH18 0x111610113232B9B1B934B83A34B7B7111D11 PUSH1 0x71 SHL PUSH1 0x9 SWAP2 DUP5 ADD SWAP2 DUP3 ADD MSTORE DUP6 MLOAD PUSH2 0xE7B DUP2 PUSH1 0x1B DUP5 ADD PUSH1 0x20 DUP11 ADD PUSH2 0x9E1 JUMP JUMPDEST PUSH13 0x1116101134B6B0B3B2911D1011 PUSH1 0x99 SHL PUSH1 0x1B SWAP3 SWAP1 SWAP2 ADD SWAP2 DUP3 ADD MSTORE DUP5 MLOAD PUSH2 0xEA9 DUP2 PUSH1 0x28 DUP5 ADD PUSH1 0x20 DUP10 ADD PUSH2 0x9E1 JUMP JUMPDEST PUSH21 0x1116101130B734B6B0BA34B7B72FBAB936111D1011 PUSH1 0x59 SHL PUSH1 0x28 SWAP3 SWAP1 SWAP2 ADD SWAP2 DUP3 ADD MSTORE DUP4 MLOAD PUSH2 0xEDF DUP2 PUSH1 0x3D DUP5 ADD PUSH1 0x20 DUP9 ADD PUSH2 0x9E1 JUMP JUMPDEST PUSH2 0x227D PUSH1 0xF0 SHL PUSH1 0x3D SWAP3 SWAP1 SWAP2 ADD SWAP2 DUP3 ADD MSTORE PUSH1 0x3F ADD SWAP7 SWAP6 POP POP POP POP POP POP JUMP JUMPDEST PUSH32 0x646174613A6170706C69636174696F6E2F6A736F6E3B6261736536342C000000 DUP2 MSTORE PUSH0 DUP3 MLOAD PUSH2 0xF33 DUP2 PUSH1 0x1D DUP6 ADD PUSH1 0x20 DUP8 ADD PUSH2 0x9E1 JUMP JUMPDEST SWAP2 SWAP1 SWAP2 ADD PUSH1 0x1D ADD SWAP3 SWAP2 POP POP JUMP JUMPDEST PUSH4 0x4E487B71 PUSH1 0xE0 SHL PUSH0 MSTORE PUSH1 0x11 PUSH1 0x4 MSTORE PUSH1 0x24 PUSH0 REVERT JUMPDEST DUP1 DUP3 ADD DUP1 DUP3 GT ISZERO PUSH2 0x1DF JUMPI PUSH2 0x1DF PUSH2 0xF40 JUMP JUMPDEST PUSH0 DUP3 PUSH2 0xF81 JUMPI PUSH4 0x4E487B71 PUSH1 0xE0 SHL PUSH0 MSTORE PUSH1 0x12 PUSH1 0x4 MSTORE PUSH1 0x24 PUSH0 REVERT JUMPDEST POP DIV SWAP1 JUMP JUMPDEST DUP1 DUP3 MUL DUP2 ISZERO DUP3 DUP3 DIV DUP5 EQ OR PUSH2 0x1DF JUMPI PUSH2 0x1DF PUSH2 0xF40 JUMP INVALID COINBASE TIMESTAMP NUMBER PREVRANDAO GASLIMIT CHAINID SELFBALANCE BASEFEE 0x49 0x4A 0x4B 0x4C 0x4D 0x4E 0x4F POP MLOAD MSTORE MSTORE8 SLOAD SSTORE JUMP JUMPI PC MSIZE GAS PUSH2 0x6263 PUSH5 0x6566676869 PUSH11 0x6B6C6D6E6F707172737475 PUSH23 0x7778797A303132333435363738392B2FA2646970667358 0x22 SLT KECCAK256 0xC4 DUP15 CALLVALUE PC 0xDE PUSH14 0x3D01A6872CDC4A6F041BA627AAC8 0xBC 0xAE PUSH8 0x99E277A28F25D32B PUSH17 0x64736F6C63430008160033000000000000 "
		},
		"gasEstimates": {
			"creation": {
				"codeDepositCost": "823000",
				"executionCost": "infinite",
				"totalCost": "infinite"
			},
			"external": {
				"baseURI()": "infinite",
				"constructTokenURI((string,string,string,string))": "infinite",
				"dataURI(uint256,(string,string,uint8,string,string,string))": "infinite",
				"genericDataURI(string,(string,string,uint8,string,string,string))": "infinite",
				"isDataURIEnabled()": "2369",
				"owner()": "2299",
				"renounceOwnership()": "infinite",
				"setBaseURI(string)": "infinite",
				"toggleDataURIEnabled()": "27706",
				"tokenNamePrefix()": "infinite",
				"tokenURI(uint256,(string,string,uint8,string,string,string))": "infinite",
				"transferOwnership(address)": "28404"
			}
		},
		"methodIdentifiers": {
			"baseURI()": "6c0360eb",
			"constructTokenURI((string,string,string,string))": "92b4c81b",
			"dataURI(uint256,(string,string,uint8,string,string,string))": "0dd4f079",
			"genericDataURI(string,(string,string,uint8,string,string,string))": "f0b305eb",
			"isDataURIEnabled()": "ce2f4f53",
			"owner()": "8da5cb5b",
			"renounceOwnership()": "715018a6",
			"setBaseURI(string)": "55f804b3",
			"toggleDataURIEnabled()": "dfe8478b",
			"tokenNamePrefix()": "3dc081b9",
			"tokenURI(uint256,(string,string,uint8,string,string,string))": "2c90464d",
			"transferOwnership(address)": "f2fde38b"
		}
	},
	"abi": [
		{
			"inputs": [
				{
					"internalType": "address",
					"name": "_initialOwner",
					"type": "address"
				},
				{
					"internalType": "string",
					"name": "_tokenNamePrefix",
					"type": "string"
				}
			],
			"stateMutability": "nonpayable",
			"type": "constructor"
		},
		{
			"inputs": [
				{
					"internalType": "address",
					"name": "owner",
					"type": "address"
				}
			],
			"name": "OwnableInvalidOwner",
			"type": "error"
		},
		{
			"inputs": [
				{
					"internalType": "address",
					"name": "account",
					"type": "address"
				}
			],
			"name": "OwnableUnauthorizedAccount",
			"type": "error"
		},
		{
			"anonymous": false,
			"inputs": [
				{
					"indexed": false,
					"internalType": "string",
					"name": "baseURI",
					"type": "string"
				}
			],
			"name": "BaseURIUpdated",
			"type": "event"
		},
		{
			"anonymous": false,
			"inputs": [
				{
					"indexed": false,
					"internalType": "bool",
					"name": "enabled",
					"type": "bool"
				}
			],
			"name": "DataURIToggled",
			"type": "event"
		},
		{
			"anonymous": false,
			"inputs": [
				{
					"indexed": true,
					"internalType": "address",
					"name": "previousOwner",
					"type": "address"
				},
				{
					"indexed": true,
					"internalType": "address",
					"name": "newOwner",
					"type": "address"
				}
			],
			"name": "OwnershipTransferred",
			"type": "event"
		},
		{
			"anonymous": false,
			"inputs": [],
			"name": "PartsLocked",
			"type": "event"
		},
		{
			"inputs": [],
			"name": "baseURI",
			"outputs": [
				{
					"internalType": "string",
					"name": "",
					"type": "string"
				}
			],
			"stateMutability": "view",
			"type": "function"
		},
		{
			"inputs": [
				{
					"components": [
						{
							"internalType": "string",
							"name": "name",
							"type": "string"
						},
						{
							"internalType": "string",
							"name": "description",
							"type": "string"
						},
						{
							"internalType": "string",
							"name": "image",
							"type": "string"
						},
						{
							"internalType": "string",
							"name": "animation_url",
							"type": "string"
						}
					],
					"internalType": "struct VerbsDescriptor.TokenURIParams",
					"name": "params",
					"type": "tuple"
				}
			],
			"name": "constructTokenURI",
			"outputs": [
				{
					"internalType": "string",
					"name": "",
					"type": "string"
				}
			],
			"stateMutability": "pure",
			"type": "function"
		},
		{
			"inputs": [
				{
					"internalType": "uint256",
					"name": "tokenId",
					"type": "uint256"
				},
				{
					"components": [
						{
							"internalType": "string",
							"name": "name",
							"type": "string"
						},
						{
							"internalType": "string",
							"name": "description",
							"type": "string"
						},
						{
							"internalType": "enum ICultureIndex.MediaType",
							"name": "mediaType",
							"type": "uint8"
						},
						{
							"internalType": "string",
							"name": "image",
							"type": "string"
						},
						{
							"internalType": "string",
							"name": "text",
							"type": "string"
						},
						{
							"internalType": "string",
							"name": "animationUrl",
							"type": "string"
						}
					],
					"internalType": "struct ICultureIndex.ArtPieceMetadata",
					"name": "metadata",
					"type": "tuple"
				}
			],
			"name": "dataURI",
			"outputs": [
				{
					"internalType": "string",
					"name": "",
					"type": "string"
				}
			],
			"stateMutability": "view",
			"type": "function"
		},
		{
			"inputs": [
				{
					"internalType": "string",
					"name": "name",
					"type": "string"
				},
				{
					"components": [
						{
							"internalType": "string",
							"name": "name",
							"type": "string"
						},
						{
							"internalType": "string",
							"name": "description",
							"type": "string"
						},
						{
							"internalType": "enum ICultureIndex.MediaType",
							"name": "mediaType",
							"type": "uint8"
						},
						{
							"internalType": "string",
							"name": "image",
							"type": "string"
						},
						{
							"internalType": "string",
							"name": "text",
							"type": "string"
						},
						{
							"internalType": "string",
							"name": "animationUrl",
							"type": "string"
						}
					],
					"internalType": "struct ICultureIndex.ArtPieceMetadata",
					"name": "metadata",
					"type": "tuple"
				}
			],
			"name": "genericDataURI",
			"outputs": [
				{
					"internalType": "string",
					"name": "",
					"type": "string"
				}
			],
			"stateMutability": "pure",
			"type": "function"
		},
		{
			"inputs": [],
			"name": "isDataURIEnabled",
			"outputs": [
				{
					"internalType": "bool",
					"name": "",
					"type": "bool"
				}
			],
			"stateMutability": "view",
			"type": "function"
		},
		{
			"inputs": [],
			"name": "owner",
			"outputs": [
				{
					"internalType": "address",
					"name": "",
					"type": "address"
				}
			],
			"stateMutability": "view",
			"type": "function"
		},
		{
			"inputs": [],
			"name": "renounceOwnership",
			"outputs": [],
			"stateMutability": "nonpayable",
			"type": "function"
		},
		{
			"inputs": [
				{
					"internalType": "string",
					"name": "_baseURI",
					"type": "string"
				}
			],
			"name": "setBaseURI",
			"outputs": [],
			"stateMutability": "nonpayable",
			"type": "function"
		},
		{
			"inputs": [],
			"name": "toggleDataURIEnabled",
			"outputs": [],
			"stateMutability": "nonpayable",
			"type": "function"
		},
		{
			"inputs": [],
			"name": "tokenNamePrefix",
			"outputs": [
				{
					"internalType": "string",
					"name": "",
					"type": "string"
				}
			],
			"stateMutability": "view",
			"type": "function"
		},
		{
			"inputs": [
				{
					"internalType": "uint256",
					"name": "tokenId",
					"type": "uint256"
				},
				{
					"components": [
						{
							"internalType": "string",
							"name": "name",
							"type": "string"
						},
						{
							"internalType": "string",
							"name": "description",
							"type": "string"
						},
						{
							"internalType": "enum ICultureIndex.MediaType",
							"name": "mediaType",
							"type": "uint8"
						},
						{
							"internalType": "string",
							"name": "image",
							"type": "string"
						},
						{
							"internalType": "string",
							"name": "text",
							"type": "string"
						},
						{
							"internalType": "string",
							"name": "animationUrl",
							"type": "string"
						}
					],
					"internalType": "struct ICultureIndex.ArtPieceMetadata",
					"name": "metadata",
					"type": "tuple"
				}
			],
			"name": "tokenURI",
			"outputs": [
				{
					"internalType": "string",
					"name": "",
					"type": "string"
				}
			],
			"stateMutability": "view",
			"type": "function"
		},
		{
			"inputs": [
				{
					"internalType": "address",
					"name": "newOwner",
					"type": "address"
				}
			],
			"name": "transferOwnership",
			"outputs": [],
			"stateMutability": "nonpayable",
			"type": "function"
		}
	]
}