{
	"packages/revolution-contracts/VerbsDescriptor.sol": {
		"VerbsDescriptor": {
			"abi": [
				{
					"inputs": [
						{
							"internalType": "address",
							"name": "_initialOwner",
							"type": "address"
						},
						{
							"internalType": "string",
							"name": "_tokenNamePrefix",
							"type": "string"
						}
					],
					"stateMutability": "nonpayable",
					"type": "constructor"
				},
				{
					"inputs": [
						{
							"internalType": "address",
							"name": "owner",
							"type": "address"
						}
					],
					"name": "OwnableInvalidOwner",
					"type": "error"
				},
				{
					"inputs": [
						{
							"internalType": "address",
							"name": "account",
							"type": "address"
						}
					],
					"name": "OwnableUnauthorizedAccount",
					"type": "error"
				},
				{
					"anonymous": false,
					"inputs": [
						{
							"indexed": false,
							"internalType": "string",
							"name": "baseURI",
							"type": "string"
						}
					],
					"name": "BaseURIUpdated",
					"type": "event"
				},
				{
					"anonymous": false,
					"inputs": [
						{
							"indexed": false,
							"internalType": "bool",
							"name": "enabled",
							"type": "bool"
						}
					],
					"name": "DataURIToggled",
					"type": "event"
				},
				{
					"anonymous": false,
					"inputs": [
						{
							"indexed": true,
							"internalType": "address",
							"name": "previousOwner",
							"type": "address"
						},
						{
							"indexed": true,
							"internalType": "address",
							"name": "newOwner",
							"type": "address"
						}
					],
					"name": "OwnershipTransferred",
					"type": "event"
				},
				{
					"anonymous": false,
					"inputs": [],
					"name": "PartsLocked",
					"type": "event"
				},
				{
					"inputs": [],
					"name": "baseURI",
					"outputs": [
						{
							"internalType": "string",
							"name": "",
							"type": "string"
						}
					],
					"stateMutability": "view",
					"type": "function"
				},
				{
					"inputs": [
						{
							"components": [
								{
									"internalType": "string",
									"name": "name",
									"type": "string"
								},
								{
									"internalType": "string",
									"name": "description",
									"type": "string"
								},
								{
									"internalType": "string",
									"name": "image",
									"type": "string"
								},
								{
									"internalType": "string",
									"name": "animation_url",
									"type": "string"
								}
							],
							"internalType": "struct VerbsDescriptor.TokenURIParams",
							"name": "params",
							"type": "tuple"
						}
					],
					"name": "constructTokenURI",
					"outputs": [
						{
							"internalType": "string",
							"name": "",
							"type": "string"
						}
					],
					"stateMutability": "pure",
					"type": "function"
				},
				{
					"inputs": [
						{
							"internalType": "uint256",
							"name": "tokenId",
							"type": "uint256"
						},
						{
							"components": [
								{
									"internalType": "string",
									"name": "name",
									"type": "string"
								},
								{
									"internalType": "string",
									"name": "description",
									"type": "string"
								},
								{
									"internalType": "enum ICultureIndex.MediaType",
									"name": "mediaType",
									"type": "uint8"
								},
								{
									"internalType": "string",
									"name": "image",
									"type": "string"
								},
								{
									"internalType": "string",
									"name": "text",
									"type": "string"
								},
								{
									"internalType": "string",
									"name": "animationUrl",
									"type": "string"
								}
							],
							"internalType": "struct ICultureIndex.ArtPieceMetadata",
							"name": "metadata",
							"type": "tuple"
						}
					],
					"name": "dataURI",
					"outputs": [
						{
							"internalType": "string",
							"name": "",
							"type": "string"
						}
					],
					"stateMutability": "view",
					"type": "function"
				},
				{
					"inputs": [
						{
							"internalType": "string",
							"name": "name",
							"type": "string"
						},
						{
							"components": [
								{
									"internalType": "string",
									"name": "name",
									"type": "string"
								},
								{
									"internalType": "string",
									"name": "description",
									"type": "string"
								},
								{
									"internalType": "enum ICultureIndex.MediaType",
									"name": "mediaType",
									"type": "uint8"
								},
								{
									"internalType": "string",
									"name": "image",
									"type": "string"
								},
								{
									"internalType": "string",
									"name": "text",
									"type": "string"
								},
								{
									"internalType": "string",
									"name": "animationUrl",
									"type": "string"
								}
							],
							"internalType": "struct ICultureIndex.ArtPieceMetadata",
							"name": "metadata",
							"type": "tuple"
						}
					],
					"name": "genericDataURI",
					"outputs": [
						{
							"internalType": "string",
							"name": "",
							"type": "string"
						}
					],
					"stateMutability": "pure",
					"type": "function"
				},
				{
					"inputs": [],
					"name": "isDataURIEnabled",
					"outputs": [
						{
							"internalType": "bool",
							"name": "",
							"type": "bool"
						}
					],
					"stateMutability": "view",
					"type": "function"
				},
				{
					"inputs": [],
					"name": "owner",
					"outputs": [
						{
							"internalType": "address",
							"name": "",
							"type": "address"
						}
					],
					"stateMutability": "view",
					"type": "function"
				},
				{
					"inputs": [],
					"name": "renounceOwnership",
					"outputs": [],
					"stateMutability": "nonpayable",
					"type": "function"
				},
				{
					"inputs": [
						{
							"internalType": "string",
							"name": "_baseURI",
							"type": "string"
						}
					],
					"name": "setBaseURI",
					"outputs": [],
					"stateMutability": "nonpayable",
					"type": "function"
				},
				{
					"inputs": [],
					"name": "toggleDataURIEnabled",
					"outputs": [],
					"stateMutability": "nonpayable",
					"type": "function"
				},
				{
					"inputs": [],
					"name": "tokenNamePrefix",
					"outputs": [
						{
							"internalType": "string",
							"name": "",
							"type": "string"
						}
					],
					"stateMutability": "view",
					"type": "function"
				},
				{
					"inputs": [
						{
							"internalType": "uint256",
							"name": "tokenId",
							"type": "uint256"
						},
						{
							"components": [
								{
									"internalType": "string",
									"name": "name",
									"type": "string"
								},
								{
									"internalType": "string",
									"name": "description",
									"type": "string"
								},
								{
									"internalType": "enum ICultureIndex.MediaType",
									"name": "mediaType",
									"type": "uint8"
								},
								{
									"internalType": "string",
									"name": "image",
									"type": "string"
								},
								{
									"internalType": "string",
									"name": "text",
									"type": "string"
								},
								{
									"internalType": "string",
									"name": "animationUrl",
									"type": "string"
								}
							],
							"internalType": "struct ICultureIndex.ArtPieceMetadata",
							"name": "metadata",
							"type": "tuple"
						}
					],
					"name": "tokenURI",
					"outputs": [
						{
							"internalType": "string",
							"name": "",
							"type": "string"
						}
					],
					"stateMutability": "view",
					"type": "function"
				},
				{
					"inputs": [
						{
							"internalType": "address",
							"name": "newOwner",
							"type": "address"
						}
					],
					"name": "transferOwnership",
					"outputs": [],
					"stateMutability": "nonpayable",
					"type": "function"
				}
			],
			"devdoc": {
				"errors": {
					"OwnableInvalidOwner(address)": [
						{
							"details": "The owner is not a valid owner account. (eg. `address(0)`)"
						}
					],
					"OwnableUnauthorizedAccount(address)": [
						{
							"details": "The caller account is not authorized to perform an operation."
						}
					]
				},
				"kind": "dev",
				"methods": {
					"owner()": {
						"details": "Returns the address of the current owner."
					},
					"renounceOwnership()": {
						"details": "Leaves the contract without owner. It will not be possible to call `onlyOwner` functions. Can only be called by the current owner. NOTE: Renouncing ownership will leave the contract without an owner, thereby disabling any functionality that is only available to the owner."
					},
					"setBaseURI(string)": {
						"details": "This can only be called by the owner."
					},
					"toggleDataURIEnabled()": {
						"details": "This can only be called by the owner."
					},
					"tokenURI(uint256,(string,string,uint8,string,string,string))": {
						"details": "The returned value may be a base64 encoded data URI or an API URL."
					},
					"transferOwnership(address)": {
						"details": "Transfers ownership of the contract to a new account (`newOwner`). Can only be called by the current owner."
					}
				},
				"version": 1
			},
			"evm": {
				"assembly": "    /* \"packages/revolution-contracts/VerbsDescriptor.sol\":1443:5249  contract VerbsDescriptor is IVerbsDescriptor, Ownable {... */\n  mstore(0x40, 0x80)\n    /* \"packages/revolution-contracts/VerbsDescriptor.sol\":1839:1883  bool public override isDataURIEnabled = true */\n  0x00\n  dup1\n  sload\n  not(shl(0xa0, 0xff))\n  and\n  shl(0xa0, 0x01)\n  or\n  swap1\n  sstore\n    /* \"packages/revolution-contracts/VerbsDescriptor.sol\":2190:2331  constructor(address _initialOwner, string memory _tokenNamePrefix) Ownable(_initialOwner) {... */\n  callvalue\n  dup1\n  iszero\n  tag_1\n  jumpi\n  0x00\n  dup1\n  revert\ntag_1:\n  pop\n  mload(0x40)\n  sub(codesize, bytecodeSize)\n  dup1\n  bytecodeSize\n  dup4\n  codecopy\n  dup2\n  add\n  0x40\n  dup2\n  swap1\n  mstore\n  tag_2\n  swap2\n  tag_3\n  jump\t// in\ntag_2:\n    /* \"packages/revolution-contracts/VerbsDescriptor.sol\":2265:2278  _initialOwner */\n  dup2\n  sub(shl(0xa0, 0x01), 0x01)\n    /* \"@openzeppelin/contracts/access/Ownable.sol\":1273:1299  initialOwner == address(0) */\n  dup2\n  and\n    /* \"@openzeppelin/contracts/access/Ownable.sol\":1269:1364  if (initialOwner == address(0)) {... */\n  tag_7\n  jumpi\n    /* \"@openzeppelin/contracts/access/Ownable.sol\":1322:1353  OwnableInvalidOwner(address(0)) */\n  mload(0x40)\n  shl(0xe0, 0x1e4fbdf7)\n  dup2\n  mstore\n    /* \"@openzeppelin/contracts/access/Ownable.sol\":1350:1351  0 */\n  0x00\n    /* \"@openzeppelin/contracts/access/Ownable.sol\":1322:1353  OwnableInvalidOwner(address(0)) */\n  0x04\n  dup3\n  add\n    /* \"#utility.yul\":1506:1557   */\n  mstore\n    /* \"#utility.yul\":1479:1497   */\n  0x24\n  add\n    /* \"@openzeppelin/contracts/access/Ownable.sol\":1322:1353  OwnableInvalidOwner(address(0)) */\n  mload(0x40)\n  dup1\n  swap2\n  sub\n  swap1\n  revert\n    /* \"@openzeppelin/contracts/access/Ownable.sol\":1269:1364  if (initialOwner == address(0)) {... */\ntag_7:\n    /* \"@openzeppelin/contracts/access/Ownable.sol\":1373:1405  _transferOwnership(initialOwner) */\n  tag_10\n    /* \"@openzeppelin/contracts/access/Ownable.sol\":1392:1404  initialOwner */\n  dup2\n    /* \"@openzeppelin/contracts/access/Ownable.sol\":1373:1391  _transferOwnership */\n  tag_11\n    /* \"@openzeppelin/contracts/access/Ownable.sol\":1373:1405  _transferOwnership(initialOwner) */\n  jump\t// in\ntag_10:\n  pop\n    /* \"packages/revolution-contracts/VerbsDescriptor.sol\":2290:2305  tokenNamePrefix */\n  0x02\n    /* \"packages/revolution-contracts/VerbsDescriptor.sol\":2290:2324  tokenNamePrefix = _tokenNamePrefix */\n  tag_13\n    /* \"packages/revolution-contracts/VerbsDescriptor.sol\":2308:2324  _tokenNamePrefix */\n  dup3\n    /* \"packages/revolution-contracts/VerbsDescriptor.sol\":2290:2305  tokenNamePrefix */\n  dup3\n    /* \"packages/revolution-contracts/VerbsDescriptor.sol\":2290:2324  tokenNamePrefix = _tokenNamePrefix */\n  tag_14\n  jump\t// in\ntag_13:\n  pop\n    /* \"packages/revolution-contracts/VerbsDescriptor.sol\":2190:2331  constructor(address _initialOwner, string memory _tokenNamePrefix) Ownable(_initialOwner) {... */\n  pop\n  pop\n    /* \"packages/revolution-contracts/VerbsDescriptor.sol\":1443:5249  contract VerbsDescriptor is IVerbsDescriptor, Ownable {... */\n  jump(tag_22)\n    /* \"@openzeppelin/contracts/access/Ownable.sol\":2912:3099  function _transferOwnership(address newOwner) internal virtual {... */\ntag_11:\n    /* \"@openzeppelin/contracts/access/Ownable.sol\":2985:3001  address oldOwner */\n  0x00\n    /* \"@openzeppelin/contracts/access/Ownable.sol\":3004:3010  _owner */\n  dup1\n  sload\n  sub(shl(0xa0, 0x01), 0x01)\n    /* \"@openzeppelin/contracts/access/Ownable.sol\":3020:3037  _owner = newOwner */\n  dup4\n  dup2\n  and\n  not(sub(shl(0xa0, 0x01), 0x01))\n  dup4\n  and\n  dup2\n  or\n  dup5\n  sstore\n    /* \"@openzeppelin/contracts/access/Ownable.sol\":3052:3092  OwnershipTransferred(oldOwner, newOwner) */\n  mload(0x40)\n    /* \"@openzeppelin/contracts/access/Ownable.sol\":3004:3010  _owner */\n  swap2\n  swap1\n  swap3\n  and\n  swap3\n  dup4\n  swap2\n    /* \"@openzeppelin/contracts/access/Ownable.sol\":3052:3092  OwnershipTransferred(oldOwner, newOwner) */\n  0x8be0079c531659141344cd1fd0a4f28419497f9722a3daafe3b4186f6b6457e0\n  swap2\n    /* \"@openzeppelin/contracts/access/Ownable.sol\":2985:3001  address oldOwner */\n  swap1\n    /* \"@openzeppelin/contracts/access/Ownable.sol\":3052:3092  OwnershipTransferred(oldOwner, newOwner) */\n  log3\n    /* \"@openzeppelin/contracts/access/Ownable.sol\":2975:3099  {... */\n  pop\n    /* \"@openzeppelin/contracts/access/Ownable.sol\":2912:3099  function _transferOwnership(address newOwner) internal virtual {... */\n  pop\n  jump\t// out\n    /* \"#utility.yul\":14:141   */\ntag_17:\n    /* \"#utility.yul\":75:85   */\n  0x4e487b71\n    /* \"#utility.yul\":70:73   */\n  0xe0\n    /* \"#utility.yul\":66:86   */\n  shl\n    /* \"#utility.yul\":63:64   */\n  0x00\n    /* \"#utility.yul\":56:87   */\n  mstore\n    /* \"#utility.yul\":106:110   */\n  0x41\n    /* \"#utility.yul\":103:104   */\n  0x04\n    /* \"#utility.yul\":96:111   */\n  mstore\n    /* \"#utility.yul\":130:134   */\n  0x24\n    /* \"#utility.yul\":127:128   */\n  0x00\n    /* \"#utility.yul\":120:135   */\n  revert\n    /* \"#utility.yul\":146:1355   */\ntag_3:\n    /* \"#utility.yul\":235:241   */\n  0x00\n    /* \"#utility.yul\":243:249   */\n  dup1\n    /* \"#utility.yul\":296:298   */\n  0x40\n    /* \"#utility.yul\":284:293   */\n  dup4\n    /* \"#utility.yul\":275:282   */\n  dup6\n    /* \"#utility.yul\":271:294   */\n  sub\n    /* \"#utility.yul\":267:299   */\n  slt\n    /* \"#utility.yul\":264:316   */\n  iszero\n  tag_25\n  jumpi\n    /* \"#utility.yul\":312:313   */\n  0x00\n    /* \"#utility.yul\":309:310   */\n  dup1\n    /* \"#utility.yul\":302:314   */\n  revert\n    /* \"#utility.yul\":264:316   */\ntag_25:\n    /* \"#utility.yul\":338:354   */\n  dup3\n  mload\n  sub(shl(0xa0, 0x01), 0x01)\n    /* \"#utility.yul\":383:414   */\n  dup2\n  and\n    /* \"#utility.yul\":373:415   */\n  dup2\n  eq\n    /* \"#utility.yul\":363:433   */\n  tag_26\n  jumpi\n    /* \"#utility.yul\":429:430   */\n  0x00\n    /* \"#utility.yul\":426:427   */\n  dup1\n    /* \"#utility.yul\":419:431   */\n  revert\n    /* \"#utility.yul\":363:433   */\ntag_26:\n    /* \"#utility.yul\":476:478   */\n  0x20\n    /* \"#utility.yul\":507:525   */\n  dup5\n  dup2\n  add\n    /* \"#utility.yul\":501:526   */\n  mload\n    /* \"#utility.yul\":452:457   */\n  swap2\n  swap4\n  pop\n    /* \"#utility.yul\":476:478   */\n  swap1\n  sub(shl(0x40, 0x01), 0x01)\n    /* \"#utility.yul\":575:589   */\n  dup1\n  dup3\n  gt\n    /* \"#utility.yul\":572:606   */\n  iszero\n  tag_27\n  jumpi\n    /* \"#utility.yul\":602:603   */\n  0x00\n    /* \"#utility.yul\":599:600   */\n  dup1\n    /* \"#utility.yul\":592:604   */\n  revert\n    /* \"#utility.yul\":572:606   */\ntag_27:\n    /* \"#utility.yul\":640:646   */\n  dup2\n    /* \"#utility.yul\":629:638   */\n  dup7\n    /* \"#utility.yul\":625:647   */\n  add\n    /* \"#utility.yul\":615:647   */\n  swap2\n  pop\n    /* \"#utility.yul\":685:692   */\n  dup7\n    /* \"#utility.yul\":678:682   */\n  0x1f\n    /* \"#utility.yul\":674:676   */\n  dup4\n    /* \"#utility.yul\":670:683   */\n  add\n    /* \"#utility.yul\":666:693   */\n  slt\n    /* \"#utility.yul\":656:711   */\n  tag_28\n  jumpi\n    /* \"#utility.yul\":707:708   */\n  0x00\n    /* \"#utility.yul\":704:705   */\n  dup1\n    /* \"#utility.yul\":697:709   */\n  revert\n    /* \"#utility.yul\":656:711   */\ntag_28:\n    /* \"#utility.yul\":736:738   */\n  dup2\n    /* \"#utility.yul\":730:739   */\n  mload\n    /* \"#utility.yul\":758:760   */\n  dup2\n    /* \"#utility.yul\":754:756   */\n  dup2\n    /* \"#utility.yul\":751:761   */\n  gt\n    /* \"#utility.yul\":748:784   */\n  iszero\n  tag_30\n  jumpi\n    /* \"#utility.yul\":764:782   */\n  tag_30\n  tag_17\n  jump\t// in\ntag_30:\n    /* \"#utility.yul\":839:841   */\n  0x40\n    /* \"#utility.yul\":833:842   */\n  mload\n    /* \"#utility.yul\":807:809   */\n  0x1f\n    /* \"#utility.yul\":893:906   */\n  dup3\n  add\n  not(0x1f)\n    /* \"#utility.yul\":889:911   */\n  swap1\n  dup2\n  and\n    /* \"#utility.yul\":913:915   */\n  0x3f\n    /* \"#utility.yul\":885:916   */\n  add\n    /* \"#utility.yul\":881:921   */\n  and\n    /* \"#utility.yul\":869:922   */\n  dup2\n  add\n  swap1\n    /* \"#utility.yul\":937:955   */\n  dup4\n  dup3\n  gt\n    /* \"#utility.yul\":957:979   */\n  dup2\n  dup4\n  lt\n    /* \"#utility.yul\":934:980   */\n  or\n    /* \"#utility.yul\":931:1003   */\n  iszero\n  tag_32\n  jumpi\n    /* \"#utility.yul\":983:1001   */\n  tag_32\n  tag_17\n  jump\t// in\ntag_32:\n    /* \"#utility.yul\":1023:1033   */\n  dup2\n    /* \"#utility.yul\":1019:1021   */\n  0x40\n    /* \"#utility.yul\":1012:1034   */\n  mstore\n    /* \"#utility.yul\":1058:1060   */\n  dup3\n    /* \"#utility.yul\":1050:1056   */\n  dup2\n    /* \"#utility.yul\":1043:1061   */\n  mstore\n    /* \"#utility.yul\":1098:1105   */\n  dup10\n    /* \"#utility.yul\":1093:1095   */\n  dup7\n    /* \"#utility.yul\":1088:1090   */\n  dup5\n    /* \"#utility.yul\":1084:1086   */\n  dup8\n    /* \"#utility.yul\":1080:1091   */\n  add\n    /* \"#utility.yul\":1076:1096   */\n  add\n    /* \"#utility.yul\":1073:1106   */\n  gt\n    /* \"#utility.yul\":1070:1123   */\n  iszero\n  tag_33\n  jumpi\n    /* \"#utility.yul\":1119:1120   */\n  0x00\n    /* \"#utility.yul\":1116:1117   */\n  dup1\n    /* \"#utility.yul\":1109:1121   */\n  revert\n    /* \"#utility.yul\":1070:1123   */\ntag_33:\n    /* \"#utility.yul\":1141:1142   */\n  0x00\n    /* \"#utility.yul\":1132:1142   */\n  swap4\n  pop\n    /* \"#utility.yul\":1151:1280   */\ntag_34:\n    /* \"#utility.yul\":1165:1167   */\n  dup3\n    /* \"#utility.yul\":1162:1163   */\n  dup5\n    /* \"#utility.yul\":1159:1168   */\n  lt\n    /* \"#utility.yul\":1151:1280   */\n  iszero\n  tag_36\n  jumpi\n    /* \"#utility.yul\":1253:1263   */\n  dup5\n  dup5\n  add\n    /* \"#utility.yul\":1249:1268   */\n  dup7\n  add\n    /* \"#utility.yul\":1243:1269   */\n  mload\n    /* \"#utility.yul\":1222:1236   */\n  dup2\n  dup6\n  add\n    /* \"#utility.yul\":1218:1241   */\n  dup8\n  add\n    /* \"#utility.yul\":1211:1270   */\n  mstore\n    /* \"#utility.yul\":1176:1186   */\n  swap3\n  dup6\n  add\n  swap3\n    /* \"#utility.yul\":1151:1280   */\n  jump(tag_34)\ntag_36:\n    /* \"#utility.yul\":1322:1323   */\n  0x00\n    /* \"#utility.yul\":1317:1319   */\n  dup7\n    /* \"#utility.yul\":1312:1314   */\n  dup5\n    /* \"#utility.yul\":1304:1310   */\n  dup4\n    /* \"#utility.yul\":1300:1315   */\n  add\n    /* \"#utility.yul\":1296:1320   */\n  add\n    /* \"#utility.yul\":1289:1324   */\n  mstore\n    /* \"#utility.yul\":1343:1349   */\n  dup1\n    /* \"#utility.yul\":1333:1349   */\n  swap7\n  pop\n  pop\n  pop\n  pop\n  pop\n  pop\n  pop\n    /* \"#utility.yul\":146:1355   */\n  swap3\n  pop\n  swap3\n  swap1\n  pop\n  jump\t// out\n    /* \"#utility.yul\":1568:1948   */\ntag_18:\n    /* \"#utility.yul\":1647:1648   */\n  0x01\n    /* \"#utility.yul\":1643:1655   */\n  dup2\n  dup2\n  shr\n  swap1\n    /* \"#utility.yul\":1690:1702   */\n  dup3\n  and\n  dup1\n    /* \"#utility.yul\":1711:1772   */\n  tag_39\n  jumpi\n    /* \"#utility.yul\":1765:1769   */\n  0x7f\n    /* \"#utility.yul\":1757:1763   */\n  dup3\n    /* \"#utility.yul\":1753:1770   */\n  and\n    /* \"#utility.yul\":1743:1770   */\n  swap2\n  pop\n    /* \"#utility.yul\":1711:1772   */\ntag_39:\n    /* \"#utility.yul\":1818:1820   */\n  0x20\n    /* \"#utility.yul\":1810:1816   */\n  dup3\n    /* \"#utility.yul\":1807:1821   */\n  lt\n    /* \"#utility.yul\":1787:1805   */\n  dup2\n    /* \"#utility.yul\":1784:1822   */\n  sub\n    /* \"#utility.yul\":1781:1942   */\n  tag_40\n  jumpi\n    /* \"#utility.yul\":1864:1874   */\n  0x4e487b71\n    /* \"#utility.yul\":1859:1862   */\n  0xe0\n    /* \"#utility.yul\":1855:1875   */\n  shl\n    /* \"#utility.yul\":1852:1853   */\n  0x00\n    /* \"#utility.yul\":1845:1876   */\n  mstore\n    /* \"#utility.yul\":1899:1903   */\n  0x22\n    /* \"#utility.yul\":1896:1897   */\n  0x04\n    /* \"#utility.yul\":1889:1904   */\n  mstore\n    /* \"#utility.yul\":1927:1931   */\n  0x24\n    /* \"#utility.yul\":1924:1925   */\n  0x00\n    /* \"#utility.yul\":1917:1932   */\n  revert\n    /* \"#utility.yul\":1781:1942   */\ntag_40:\n  pop\n    /* \"#utility.yul\":1568:1948   */\n  swap2\n  swap1\n  pop\n  jump\t// out\n    /* \"#utility.yul\":2079:2597   */\ntag_20:\n    /* \"#utility.yul\":2181:2183   */\n  0x1f\n    /* \"#utility.yul\":2176:2179   */\n  dup3\n    /* \"#utility.yul\":2173:2184   */\n  gt\n    /* \"#utility.yul\":2170:2591   */\n  iszero\n  tag_43\n  jumpi\n    /* \"#utility.yul\":2217:2222   */\n  dup1\n    /* \"#utility.yul\":2214:2215   */\n  0x00\n    /* \"#utility.yul\":2207:2223   */\n  mstore\n    /* \"#utility.yul\":2261:2265   */\n  0x20\n    /* \"#utility.yul\":2258:2259   */\n  0x00\n    /* \"#utility.yul\":2248:2266   */\n  keccak256\n    /* \"#utility.yul\":2331:2333   */\n  0x1f\n    /* \"#utility.yul\":2319:2329   */\n  dup5\n    /* \"#utility.yul\":2315:2334   */\n  add\n    /* \"#utility.yul\":2312:2313   */\n  0x05\n    /* \"#utility.yul\":2308:2335   */\n  shr\n    /* \"#utility.yul\":2302:2306   */\n  dup2\n    /* \"#utility.yul\":2298:2336   */\n  add\n    /* \"#utility.yul\":2367:2371   */\n  0x20\n    /* \"#utility.yul\":2355:2365   */\n  dup6\n    /* \"#utility.yul\":2352:2372   */\n  lt\n    /* \"#utility.yul\":2349:2396   */\n  iszero\n  tag_44\n  jumpi\n  pop\n    /* \"#utility.yul\":2390:2394   */\n  dup1\n    /* \"#utility.yul\":2349:2396   */\ntag_44:\n    /* \"#utility.yul\":2445:2447   */\n  0x1f\n    /* \"#utility.yul\":2440:2443   */\n  dup5\n    /* \"#utility.yul\":2436:2448   */\n  add\n    /* \"#utility.yul\":2433:2434   */\n  0x05\n    /* \"#utility.yul\":2429:2449   */\n  shr\n    /* \"#utility.yul\":2423:2427   */\n  dup3\n    /* \"#utility.yul\":2419:2450   */\n  add\n    /* \"#utility.yul\":2409:2450   */\n  swap2\n  pop\n    /* \"#utility.yul\":2500:2581   */\ntag_45:\n    /* \"#utility.yul\":2518:2520   */\n  dup2\n    /* \"#utility.yul\":2511:2516   */\n  dup2\n    /* \"#utility.yul\":2508:2521   */\n  lt\n    /* \"#utility.yul\":2500:2581   */\n  iszero\n  tag_47\n  jumpi\n    /* \"#utility.yul\":2577:2578   */\n  0x00\n    /* \"#utility.yul\":2563:2579   */\n  dup2\n  sstore\n    /* \"#utility.yul\":2544:2545   */\n  0x01\n    /* \"#utility.yul\":2533:2546   */\n  add\n    /* \"#utility.yul\":2500:2581   */\n  jump(tag_45)\ntag_47:\n    /* \"#utility.yul\":2504:2507   */\n  pop\n  pop\n    /* \"#utility.yul\":2170:2591   */\ntag_43:\n    /* \"#utility.yul\":2079:2597   */\n  pop\n  pop\n  pop\n  jump\t// out\n    /* \"#utility.yul\":2773:4118   */\ntag_14:\n    /* \"#utility.yul\":2893:2903   */\n  dup2\n  mload\n  sub(shl(0x40, 0x01), 0x01)\n    /* \"#utility.yul\":2915:2945   */\n  dup2\n  gt\n    /* \"#utility.yul\":2912:2968   */\n  iszero\n  tag_51\n  jumpi\n    /* \"#utility.yul\":2948:2966   */\n  tag_51\n  tag_17\n  jump\t// in\ntag_51:\n    /* \"#utility.yul\":2977:3074   */\n  tag_52\n    /* \"#utility.yul\":3067:3073   */\n  dup2\n    /* \"#utility.yul\":3027:3065   */\n  tag_53\n    /* \"#utility.yul\":3059:3063   */\n  dup5\n    /* \"#utility.yul\":3053:3064   */\n  sload\n    /* \"#utility.yul\":3027:3065   */\n  tag_18\n  jump\t// in\ntag_53:\n    /* \"#utility.yul\":3021:3025   */\n  dup5\n    /* \"#utility.yul\":2977:3074   */\n  tag_20\n  jump\t// in\ntag_52:\n    /* \"#utility.yul\":3129:3133   */\n  0x20\n  dup1\n    /* \"#utility.yul\":3186:3188   */\n  0x1f\n    /* \"#utility.yul\":3175:3189   */\n  dup4\n  gt\n    /* \"#utility.yul\":3203:3204   */\n  0x01\n    /* \"#utility.yul\":3198:3861   */\n  dup2\n  eq\n  tag_55\n  jumpi\n    /* \"#utility.yul\":3905:3906   */\n  0x00\n    /* \"#utility.yul\":3922:3928   */\n  dup5\n    /* \"#utility.yul\":3919:4008   */\n  iszero\n  tag_56\n  jumpi\n  pop\n    /* \"#utility.yul\":3974:3993   */\n  dup6\n  dup4\n  add\n    /* \"#utility.yul\":3968:3994   */\n  mload\n    /* \"#utility.yul\":3919:4008   */\ntag_56:\n  not(0x00)\n    /* \"#utility.yul\":2730:2731   */\n  0x03\n    /* \"#utility.yul\":2726:2737   */\n  dup7\n  swap1\n  shl\n    /* \"#utility.yul\":2722:2746   */\n  shr\n    /* \"#utility.yul\":2718:2747   */\n  not\n    /* \"#utility.yul\":2708:2748   */\n  and\n    /* \"#utility.yul\":2754:2755   */\n  0x01\n    /* \"#utility.yul\":2750:2761   */\n  dup6\n  swap1\n  shl\n    /* \"#utility.yul\":2705:2762   */\n  or\n    /* \"#utility.yul\":4021:4102   */\n  dup6\n  sstore\n    /* \"#utility.yul\":3168:4112   */\n  jump(tag_54)\n    /* \"#utility.yul\":3198:3861   */\ntag_55:\n    /* \"#utility.yul\":2026:2027   */\n  0x00\n    /* \"#utility.yul\":2019:2033   */\n  dup6\n  dup2\n  mstore\n    /* \"#utility.yul\":2063:2067   */\n  0x20\n    /* \"#utility.yul\":2050:2068   */\n  dup2\n  keccak256\n  not(0x1f)\n    /* \"#utility.yul\":3234:3254   */\n  dup7\n  and\n  swap2\n    /* \"#utility.yul\":3352:3588   */\ntag_59:\n    /* \"#utility.yul\":3366:3373   */\n  dup3\n    /* \"#utility.yul\":3363:3364   */\n  dup2\n    /* \"#utility.yul\":3360:3374   */\n  lt\n    /* \"#utility.yul\":3352:3588   */\n  iszero\n  tag_61\n  jumpi\n    /* \"#utility.yul\":3455:3474   */\n  dup9\n  dup7\n  add\n    /* \"#utility.yul\":3449:3475   */\n  mload\n    /* \"#utility.yul\":3434:3476   */\n  dup3\n  sstore\n    /* \"#utility.yul\":3547:3574   */\n  swap5\n  dup5\n  add\n  swap5\n    /* \"#utility.yul\":3515:3516   */\n  0x01\n    /* \"#utility.yul\":3503:3517   */\n  swap1\n  swap2\n  add\n  swap1\n    /* \"#utility.yul\":3382:3401   */\n  dup5\n  add\n    /* \"#utility.yul\":3352:3588   */\n  jump(tag_59)\ntag_61:\n    /* \"#utility.yul\":3356:3359   */\n  pop\n    /* \"#utility.yul\":3616:3622   */\n  dup6\n    /* \"#utility.yul\":3607:3614   */\n  dup3\n    /* \"#utility.yul\":3604:3623   */\n  lt\n    /* \"#utility.yul\":3601:3802   */\n  iszero\n  tag_62\n  jumpi\n    /* \"#utility.yul\":3677:3696   */\n  dup8\n  dup6\n  add\n    /* \"#utility.yul\":3671:3697   */\n  mload\n  not(0x00)\n    /* \"#utility.yul\":3760:3761   */\n  0x03\n    /* \"#utility.yul\":3756:3770   */\n  dup9\n  swap1\n  shl\n    /* \"#utility.yul\":3772:3775   */\n  0xf8\n    /* \"#utility.yul\":3752:3776   */\n  and\n    /* \"#utility.yul\":3748:3785   */\n  shr\n    /* \"#utility.yul\":3744:3786   */\n  not\n    /* \"#utility.yul\":3729:3787   */\n  and\n    /* \"#utility.yul\":3714:3788   */\n  dup2\n  sstore\n    /* \"#utility.yul\":3601:3802   */\ntag_62:\n  pop\n  pop\n    /* \"#utility.yul\":3848:3849   */\n  0x01\n    /* \"#utility.yul\":3839:3845   */\n  dup5\n    /* \"#utility.yul\":3836:3837   */\n  0x01\n    /* \"#utility.yul\":3832:3846   */\n  shl\n    /* \"#utility.yul\":3828:3850   */\n  add\n    /* \"#utility.yul\":3822:3826   */\n  dup6\n    /* \"#utility.yul\":3815:3851   */\n  sstore\n    /* \"#utility.yul\":3168:4112   */\ntag_54:\n  pop\n  pop\n  pop\n  pop\n    /* \"#utility.yul\":2773:4118   */\n  pop\n  pop\n  jump\t// out\ntag_22:\n    /* \"packages/revolution-contracts/VerbsDescriptor.sol\":1443:5249  contract VerbsDescriptor is IVerbsDescriptor, Ownable {... */\n  dataSize(sub_0)\n  dup1\n  dataOffset(sub_0)\n  0x00\n  codecopy\n  0x00\n  return\nstop\n\nsub_0: assembly {\n        /* \"packages/revolution-contracts/VerbsDescriptor.sol\":1443:5249  contract VerbsDescriptor is IVerbsDescriptor, Ownable {... */\n      mstore(0x40, 0x80)\n      callvalue\n      dup1\n      iszero\n      tag_1\n      jumpi\n      0x00\n      dup1\n      revert\n    tag_1:\n      pop\n      jumpi(tag_2, lt(calldatasize, 0x04))\n      shr(0xe0, calldataload(0x00))\n      dup1\n      0x8da5cb5b\n      gt\n      tag_15\n      jumpi\n      dup1\n      0x8da5cb5b\n      eq\n      tag_9\n      jumpi\n      dup1\n      0x92b4c81b\n      eq\n      tag_10\n      jumpi\n      dup1\n      0xce2f4f53\n      eq\n      tag_11\n      jumpi\n      dup1\n      0xdfe8478b\n      eq\n      tag_12\n      jumpi\n      dup1\n      0xf0b305eb\n      eq\n      tag_13\n      jumpi\n      dup1\n      0xf2fde38b\n      eq\n      tag_14\n      jumpi\n      0x00\n      dup1\n      revert\n    tag_15:\n      dup1\n      0x0dd4f079\n      eq\n      tag_3\n      jumpi\n      dup1\n      0x2c90464d\n      eq\n      tag_4\n      jumpi\n      dup1\n      0x3dc081b9\n      eq\n      tag_5\n      jumpi\n      dup1\n      0x55f804b3\n      eq\n      tag_6\n      jumpi\n      dup1\n      0x6c0360eb\n      eq\n      tag_7\n      jumpi\n      dup1\n      0x715018a6\n      eq\n      tag_8\n      jumpi\n    tag_2:\n      0x00\n      dup1\n      revert\n        /* \"packages/revolution-contracts/VerbsDescriptor.sol\":4355:4664  function dataURI(uint256 tokenId, ICultureIndex.ArtPieceMetadata memory metadata) public view returns (string memory) {... */\n    tag_3:\n      tag_16\n      tag_17\n      calldatasize\n      0x04\n      tag_18\n      jump\t// in\n    tag_17:\n      tag_19\n      jump\t// in\n    tag_16:\n      mload(0x40)\n      tag_20\n      swap2\n      swap1\n      tag_21\n      jump\t// in\n    tag_20:\n      mload(0x40)\n      dup1\n      swap2\n      sub\n      swap1\n      return\n        /* \"packages/revolution-contracts/VerbsDescriptor.sol\":3946:4233  function tokenURI(uint256 tokenId, ICultureIndex.ArtPieceMetadata memory metadata) external view returns (string memory) {... */\n    tag_4:\n      tag_16\n      tag_23\n      calldatasize\n      0x04\n      tag_18\n      jump\t// in\n    tag_23:\n      tag_24\n      jump\t// in\n        /* \"packages/revolution-contracts/VerbsDescriptor.sol\":1968:1997  string public tokenNamePrefix */\n    tag_5:\n      tag_16\n      tag_27\n      jump\t// in\n        /* \"packages/revolution-contracts/VerbsDescriptor.sol\":3610:3759  function setBaseURI(string calldata _baseURI) external override onlyOwner {... */\n    tag_6:\n      tag_29\n      tag_30\n      calldatasize\n      0x04\n      tag_31\n      jump\t// in\n    tag_30:\n      tag_32\n      jump\t// in\n    tag_29:\n      stop\n        /* \"packages/revolution-contracts/VerbsDescriptor.sol\":1906:1936  string public override baseURI */\n    tag_7:\n      tag_16\n      tag_34\n      jump\t// in\n        /* \"@openzeppelin/contracts/access/Ownable.sol\":2293:2394  function renounceOwnership() public virtual onlyOwner {... */\n    tag_8:\n      tag_29\n      tag_37\n      jump\t// in\n        /* \"@openzeppelin/contracts/access/Ownable.sol\":1638:1723  function owner() public view virtual returns (address) {... */\n    tag_9:\n        /* \"@openzeppelin/contracts/access/Ownable.sol\":1684:1691  address */\n      0x00\n        /* \"@openzeppelin/contracts/access/Ownable.sol\":1710:1716  _owner */\n      sload\n        /* \"@openzeppelin/contracts/access/Ownable.sol\":1638:1723  function owner() public view virtual returns (address) {... */\n      mload(0x40)\n      sub(shl(0xa0, 0x01), 0x01)\n        /* \"@openzeppelin/contracts/access/Ownable.sol\":1710:1716  _owner */\n      swap1\n      swap2\n      and\n        /* \"#utility.yul\":4560:4611   */\n      dup2\n      mstore\n        /* \"#utility.yul\":4548:4550   */\n      0x20\n        /* \"#utility.yul\":4533:4551   */\n      add\n        /* \"@openzeppelin/contracts/access/Ownable.sol\":1638:1723  function owner() public view virtual returns (address) {... */\n      tag_20\n        /* \"#utility.yul\":4414:4617   */\n      jump\n        /* \"packages/revolution-contracts/VerbsDescriptor.sol\":2399:2988  function constructTokenURI(TokenURIParams memory params) public pure returns (string memory) {... */\n    tag_10:\n      tag_16\n      tag_43\n      calldatasize\n      0x04\n      tag_44\n      jump\t// in\n    tag_43:\n      tag_45\n      jump\t// in\n        /* \"packages/revolution-contracts/VerbsDescriptor.sol\":1839:1883  bool public override isDataURIEnabled = true */\n    tag_11:\n      sload(0x00)\n      tag_47\n      swap1\n      shl(0xa0, 0x01)\n      swap1\n      div\n      0xff\n      and\n      dup2\n      jump\n    tag_47:\n      mload(0x40)\n        /* \"#utility.yul\":5927:5941   */\n      swap1\n      iszero\n        /* \"#utility.yul\":5920:5942   */\n      iszero\n        /* \"#utility.yul\":5902:5943   */\n      dup2\n      mstore\n        /* \"#utility.yul\":5890:5892   */\n      0x20\n        /* \"#utility.yul\":5875:5893   */\n      add\n        /* \"packages/revolution-contracts/VerbsDescriptor.sol\":1839:1883  bool public override isDataURIEnabled = true */\n      tag_20\n        /* \"#utility.yul\":5762:5949   */\n      jump\n        /* \"packages/revolution-contracts/VerbsDescriptor.sol\":3171:3355  function toggleDataURIEnabled() external override onlyOwner {... */\n    tag_12:\n      tag_29\n      tag_52\n      jump\t// in\n        /* \"packages/revolution-contracts/VerbsDescriptor.sol\":4766:5247  function genericDataURI(string memory name, ICultureIndex.ArtPieceMetadata memory metadata) public pure returns (string memory) {... */\n    tag_13:\n      tag_16\n      tag_54\n      calldatasize\n      0x04\n      tag_55\n      jump\t// in\n    tag_54:\n      tag_56\n      jump\t// in\n        /* \"@openzeppelin/contracts/access/Ownable.sol\":2543:2758  function transferOwnership(address newOwner) public virtual onlyOwner {... */\n    tag_14:\n      tag_29\n      tag_59\n      calldatasize\n      0x04\n      tag_60\n      jump\t// in\n    tag_59:\n      tag_61\n      jump\t// in\n        /* \"packages/revolution-contracts/VerbsDescriptor.sol\":4355:4664  function dataURI(uint256 tokenId, ICultureIndex.ArtPieceMetadata memory metadata) public view returns (string memory) {... */\n    tag_19:\n        /* \"packages/revolution-contracts/VerbsDescriptor.sol\":4458:4471  string memory */\n      0x60\n        /* \"packages/revolution-contracts/VerbsDescriptor.sol\":4483:4503  string memory verbId */\n      0x00\n        /* \"packages/revolution-contracts/VerbsDescriptor.sol\":4506:4524  tokenId.toString() */\n      tag_63\n        /* \"packages/revolution-contracts/VerbsDescriptor.sol\":4506:4513  tokenId */\n      dup5\n        /* \"packages/revolution-contracts/VerbsDescriptor.sol\":4506:4522  tokenId.toString */\n      tag_64\n        /* \"packages/revolution-contracts/VerbsDescriptor.sol\":4506:4524  tokenId.toString() */\n      jump\t// in\n    tag_63:\n        /* \"packages/revolution-contracts/VerbsDescriptor.sol\":4483:4524  string memory verbId = tokenId.toString() */\n      swap1\n      pop\n        /* \"packages/revolution-contracts/VerbsDescriptor.sol\":4534:4552  string memory name */\n      0x00\n        /* \"packages/revolution-contracts/VerbsDescriptor.sol\":4579:4594  tokenNamePrefix */\n      0x02\n        /* \"packages/revolution-contracts/VerbsDescriptor.sol\":4601:4607  verbId */\n      dup3\n        /* \"packages/revolution-contracts/VerbsDescriptor.sol\":4562:4608  abi.encodePacked(tokenNamePrefix, \" \", verbId) */\n      add(0x20, mload(0x40))\n      tag_65\n      swap3\n      swap2\n      swap1\n      tag_66\n      jump\t// in\n    tag_65:\n      mload(0x40)\n      0x20\n      dup2\n      dup4\n      sub\n      sub\n      dup2\n      mstore\n      swap1\n      0x40\n      mstore\n        /* \"packages/revolution-contracts/VerbsDescriptor.sol\":4534:4609  string memory name = string(abi.encodePacked(tokenNamePrefix, \" \", verbId)) */\n      swap1\n      pop\n        /* \"packages/revolution-contracts/VerbsDescriptor.sol\":4627:4657  genericDataURI(name, metadata) */\n      tag_67\n        /* \"packages/revolution-contracts/VerbsDescriptor.sol\":4642:4646  name */\n      dup2\n        /* \"packages/revolution-contracts/VerbsDescriptor.sol\":4648:4656  metadata */\n      dup6\n        /* \"packages/revolution-contracts/VerbsDescriptor.sol\":4627:4641  genericDataURI */\n      tag_56\n        /* \"packages/revolution-contracts/VerbsDescriptor.sol\":4627:4657  genericDataURI(name, metadata) */\n      jump\t// in\n    tag_67:\n        /* \"packages/revolution-contracts/VerbsDescriptor.sol\":4620:4657  return genericDataURI(name, metadata) */\n      swap3\n      pop\n      pop\n      pop\n        /* \"packages/revolution-contracts/VerbsDescriptor.sol\":4355:4664  function dataURI(uint256 tokenId, ICultureIndex.ArtPieceMetadata memory metadata) public view returns (string memory) {... */\n    tag_62:\n      swap3\n      swap2\n      pop\n      pop\n      jump\t// out\n        /* \"packages/revolution-contracts/VerbsDescriptor.sol\":3946:4233  function tokenURI(uint256 tokenId, ICultureIndex.ArtPieceMetadata memory metadata) external view returns (string memory) {... */\n    tag_24:\n        /* \"packages/revolution-contracts/VerbsDescriptor.sol\":4081:4097  isDataURIEnabled */\n      sload(0x00)\n        /* \"packages/revolution-contracts/VerbsDescriptor.sol\":4052:4065  string memory */\n      0x60\n      swap1\n      shl(0xa0, 0x01)\n        /* \"packages/revolution-contracts/VerbsDescriptor.sol\":4081:4097  isDataURIEnabled */\n      swap1\n      div\n      0xff\n      and\n        /* \"packages/revolution-contracts/VerbsDescriptor.sol\":4077:4157  if (isDataURIEnabled) {... */\n      iszero\n      tag_69\n      jumpi\n        /* \"packages/revolution-contracts/VerbsDescriptor.sol\":4120:4146  dataURI(tokenId, metadata) */\n      tag_70\n        /* \"packages/revolution-contracts/VerbsDescriptor.sol\":4128:4135  tokenId */\n      dup4\n        /* \"packages/revolution-contracts/VerbsDescriptor.sol\":4137:4145  metadata */\n      dup4\n        /* \"packages/revolution-contracts/VerbsDescriptor.sol\":4120:4127  dataURI */\n      tag_19\n        /* \"packages/revolution-contracts/VerbsDescriptor.sol\":4120:4146  dataURI(tokenId, metadata) */\n      jump\t// in\n    tag_70:\n        /* \"packages/revolution-contracts/VerbsDescriptor.sol\":4113:4146  return dataURI(tokenId, metadata) */\n      swap1\n      pop\n      jump(tag_62)\n        /* \"packages/revolution-contracts/VerbsDescriptor.sol\":4077:4157  if (isDataURIEnabled) {... */\n    tag_69:\n        /* \"packages/revolution-contracts/VerbsDescriptor.sol\":4197:4204  baseURI */\n      0x01\n        /* \"packages/revolution-contracts/VerbsDescriptor.sol\":4206:4224  tokenId.toString() */\n      tag_71\n        /* \"packages/revolution-contracts/VerbsDescriptor.sol\":4206:4213  tokenId */\n      dup5\n        /* \"packages/revolution-contracts/VerbsDescriptor.sol\":4206:4222  tokenId.toString */\n      tag_64\n        /* \"packages/revolution-contracts/VerbsDescriptor.sol\":4206:4224  tokenId.toString() */\n      jump\t// in\n    tag_71:\n        /* \"packages/revolution-contracts/VerbsDescriptor.sol\":4180:4225  abi.encodePacked(baseURI, tokenId.toString()) */\n      add(0x20, mload(0x40))\n      tag_72\n      swap3\n      swap2\n      swap1\n      tag_73\n      jump\t// in\n    tag_72:\n      mload(0x40)\n      0x20\n      dup2\n      dup4\n      sub\n      sub\n      dup2\n      mstore\n      swap1\n      0x40\n      mstore\n        /* \"packages/revolution-contracts/VerbsDescriptor.sol\":4166:4226  return string(abi.encodePacked(baseURI, tokenId.toString())) */\n      swap1\n      pop\n        /* \"packages/revolution-contracts/VerbsDescriptor.sol\":3946:4233  function tokenURI(uint256 tokenId, ICultureIndex.ArtPieceMetadata memory metadata) external view returns (string memory) {... */\n      swap3\n      swap2\n      pop\n      pop\n      jump\t// out\n        /* \"packages/revolution-contracts/VerbsDescriptor.sol\":1968:1997  string public tokenNamePrefix */\n    tag_27:\n      0x02\n      dup1\n      sload\n      tag_74\n      swap1\n      tag_75\n      jump\t// in\n    tag_74:\n      dup1\n      0x1f\n      add\n      0x20\n      dup1\n      swap2\n      div\n      mul\n      0x20\n      add\n      mload(0x40)\n      swap1\n      dup2\n      add\n      0x40\n      mstore\n      dup1\n      swap3\n      swap2\n      swap1\n      dup2\n      dup2\n      mstore\n      0x20\n      add\n      dup3\n      dup1\n      sload\n      tag_76\n      swap1\n      tag_75\n      jump\t// in\n    tag_76:\n      dup1\n      iszero\n      tag_77\n      jumpi\n      dup1\n      0x1f\n      lt\n      tag_78\n      jumpi\n      0x0100\n      dup1\n      dup4\n      sload\n      div\n      mul\n      dup4\n      mstore\n      swap2\n      0x20\n      add\n      swap2\n      jump(tag_77)\n    tag_78:\n      dup3\n      add\n      swap2\n      swap1\n      0x00\n      mstore\n      keccak256(0x00, 0x20)\n      swap1\n    tag_79:\n      dup2\n      sload\n      dup2\n      mstore\n      swap1\n      0x01\n      add\n      swap1\n      0x20\n      add\n      dup1\n      dup4\n      gt\n      tag_79\n      jumpi\n      dup3\n      swap1\n      sub\n      0x1f\n      and\n      dup3\n      add\n      swap2\n    tag_77:\n      pop\n      pop\n      pop\n      pop\n      pop\n      dup2\n      jump\t// out\n        /* \"packages/revolution-contracts/VerbsDescriptor.sol\":3610:3759  function setBaseURI(string calldata _baseURI) external override onlyOwner {... */\n    tag_32:\n        /* \"@openzeppelin/contracts/access/Ownable.sol\":1531:1544  _checkOwner() */\n      tag_81\n        /* \"@openzeppelin/contracts/access/Ownable.sol\":1531:1542  _checkOwner */\n      tag_82\n        /* \"@openzeppelin/contracts/access/Ownable.sol\":1531:1544  _checkOwner() */\n      jump\t// in\n    tag_81:\n        /* \"packages/revolution-contracts/VerbsDescriptor.sol\":3694:3701  baseURI */\n      0x01\n        /* \"packages/revolution-contracts/VerbsDescriptor.sol\":3694:3712  baseURI = _baseURI */\n      tag_84\n        /* \"packages/revolution-contracts/VerbsDescriptor.sol\":3704:3712  _baseURI */\n      dup3\n      dup5\n        /* \"packages/revolution-contracts/VerbsDescriptor.sol\":3694:3701  baseURI */\n      dup4\n        /* \"packages/revolution-contracts/VerbsDescriptor.sol\":3694:3712  baseURI = _baseURI */\n      tag_85\n      jump\t// in\n    tag_84:\n      pop\n        /* \"packages/revolution-contracts/VerbsDescriptor.sol\":3728:3752  BaseURIUpdated(_baseURI) */\n      0x6741b2fc379fad678116fe3d4d4b9a1a184ab53ba36b86ad0fa66340b1ab41ad\n        /* \"packages/revolution-contracts/VerbsDescriptor.sol\":3743:3751  _baseURI */\n      dup3\n      dup3\n        /* \"packages/revolution-contracts/VerbsDescriptor.sol\":3728:3752  BaseURIUpdated(_baseURI) */\n      mload(0x40)\n      tag_86\n      swap3\n      swap2\n      swap1\n      tag_87\n      jump\t// in\n    tag_86:\n      mload(0x40)\n      dup1\n      swap2\n      sub\n      swap1\n      log1\n        /* \"packages/revolution-contracts/VerbsDescriptor.sol\":3610:3759  function setBaseURI(string calldata _baseURI) external override onlyOwner {... */\n      pop\n      pop\n      jump\t// out\n        /* \"packages/revolution-contracts/VerbsDescriptor.sol\":1906:1936  string public override baseURI */\n    tag_34:\n      0x01\n      dup1\n      sload\n      tag_74\n      swap1\n      tag_75\n      jump\t// in\n        /* \"@openzeppelin/contracts/access/Ownable.sol\":2293:2394  function renounceOwnership() public virtual onlyOwner {... */\n    tag_37:\n        /* \"@openzeppelin/contracts/access/Ownable.sol\":1531:1544  _checkOwner() */\n      tag_94\n        /* \"@openzeppelin/contracts/access/Ownable.sol\":1531:1542  _checkOwner */\n      tag_82\n        /* \"@openzeppelin/contracts/access/Ownable.sol\":1531:1544  _checkOwner() */\n      jump\t// in\n    tag_94:\n        /* \"@openzeppelin/contracts/access/Ownable.sol\":2357:2387  _transferOwnership(address(0)) */\n      tag_96\n        /* \"@openzeppelin/contracts/access/Ownable.sol\":2384:2385  0 */\n      0x00\n        /* \"@openzeppelin/contracts/access/Ownable.sol\":2357:2375  _transferOwnership */\n      tag_97\n        /* \"@openzeppelin/contracts/access/Ownable.sol\":2357:2387  _transferOwnership(address(0)) */\n      jump\t// in\n    tag_96:\n        /* \"@openzeppelin/contracts/access/Ownable.sol\":2293:2394  function renounceOwnership() public virtual onlyOwner {... */\n      jump\t// out\n        /* \"packages/revolution-contracts/VerbsDescriptor.sol\":2399:2988  function constructTokenURI(TokenURIParams memory params) public pure returns (string memory) {... */\n    tag_45:\n        /* \"packages/revolution-contracts/VerbsDescriptor.sol\":2477:2490  string memory */\n      0x60\n        /* \"packages/revolution-contracts/VerbsDescriptor.sol\":2502:2520  string memory json */\n      0x00\n        /* \"packages/revolution-contracts/VerbsDescriptor.sol\":2606:2612  params */\n      dup3\n        /* \"packages/revolution-contracts/VerbsDescriptor.sol\":2606:2617  params.name */\n      0x00\n      add\n      mload\n        /* \"packages/revolution-contracts/VerbsDescriptor.sol\":2673:2679  params */\n      dup4\n        /* \"packages/revolution-contracts/VerbsDescriptor.sol\":2673:2691  params.description */\n      0x20\n      add\n      mload\n        /* \"packages/revolution-contracts/VerbsDescriptor.sol\":2742:2748  params */\n      dup5\n        /* \"packages/revolution-contracts/VerbsDescriptor.sol\":2742:2754  params.image */\n      0x40\n      add\n      mload\n        /* \"packages/revolution-contracts/VerbsDescriptor.sol\":2813:2819  params */\n      dup6\n        /* \"packages/revolution-contracts/VerbsDescriptor.sol\":2813:2833  params.animation_url */\n      0x60\n      add\n      mload\n        /* \"packages/revolution-contracts/VerbsDescriptor.sol\":2543:2869  abi.encodePacked(... */\n      add(0x20, mload(0x40))\n      tag_100\n      swap5\n      swap4\n      swap3\n      swap2\n      swap1\n      tag_101\n      jump\t// in\n    tag_100:\n      mload(0x40)\n      0x20\n      dup2\n      dup4\n      sub\n      sub\n      dup2\n      mstore\n      swap1\n      0x40\n      mstore\n        /* \"packages/revolution-contracts/VerbsDescriptor.sol\":2502:2879  string memory json = string(... */\n      swap1\n      pop\n        /* \"packages/revolution-contracts/VerbsDescriptor.sol\":2953:2979  Base64.encode(bytes(json)) */\n      tag_102\n        /* \"packages/revolution-contracts/VerbsDescriptor.sol\":2973:2977  json */\n      dup2\n        /* \"packages/revolution-contracts/VerbsDescriptor.sol\":2953:2966  Base64.encode */\n      tag_103\n        /* \"packages/revolution-contracts/VerbsDescriptor.sol\":2953:2979  Base64.encode(bytes(json)) */\n      jump\t// in\n    tag_102:\n        /* \"packages/revolution-contracts/VerbsDescriptor.sol\":2903:2980  abi.encodePacked(\"data:application/json;base64,\", Base64.encode(bytes(json))) */\n      add(0x20, mload(0x40))\n      tag_104\n      swap2\n      swap1\n      tag_105\n      jump\t// in\n    tag_104:\n      mload(0x40)\n      0x20\n      dup2\n      dup4\n      sub\n      sub\n      dup2\n      mstore\n      swap1\n      0x40\n      mstore\n        /* \"packages/revolution-contracts/VerbsDescriptor.sol\":2889:2981  return string(abi.encodePacked(\"data:application/json;base64,\", Base64.encode(bytes(json)))) */\n      swap2\n      pop\n      pop\n        /* \"packages/revolution-contracts/VerbsDescriptor.sol\":2399:2988  function constructTokenURI(TokenURIParams memory params) public pure returns (string memory) {... */\n      swap2\n      swap1\n      pop\n      jump\t// out\n        /* \"packages/revolution-contracts/VerbsDescriptor.sol\":3171:3355  function toggleDataURIEnabled() external override onlyOwner {... */\n    tag_52:\n        /* \"@openzeppelin/contracts/access/Ownable.sol\":1531:1544  _checkOwner() */\n      tag_107\n        /* \"@openzeppelin/contracts/access/Ownable.sol\":1531:1542  _checkOwner */\n      tag_82\n        /* \"@openzeppelin/contracts/access/Ownable.sol\":1531:1544  _checkOwner() */\n      jump\t// in\n    tag_107:\n        /* \"packages/revolution-contracts/VerbsDescriptor.sol\":3241:3253  bool enabled */\n      0x00\n        /* \"packages/revolution-contracts/VerbsDescriptor.sol\":3257:3273  isDataURIEnabled */\n      dup1\n      sload\n      not(shl(0xa0, 0xff))\n        /* \"packages/revolution-contracts/VerbsDescriptor.sol\":3284:3310  isDataURIEnabled = enabled */\n      dup2\n      and\n      shl(0xa0, 0x01)\n        /* \"packages/revolution-contracts/VerbsDescriptor.sol\":3257:3273  isDataURIEnabled */\n      swap2\n      dup3\n      swap1\n      div\n      0xff\n      and\n        /* \"packages/revolution-contracts/VerbsDescriptor.sol\":3256:3273  !isDataURIEnabled */\n      iszero\n        /* \"packages/revolution-contracts/VerbsDescriptor.sol\":3284:3310  isDataURIEnabled = enabled */\n      swap2\n      dup3\n      mul\n      or\n      swap1\n      swap2\n      sstore\n        /* \"packages/revolution-contracts/VerbsDescriptor.sol\":3325:3348  DataURIToggled(enabled) */\n      mload(0x40)\n        /* \"#utility.yul\":5902:5943   */\n      dup2\n      dup2\n      mstore\n        /* \"packages/revolution-contracts/VerbsDescriptor.sol\":3325:3348  DataURIToggled(enabled) */\n      0x360c3d72ee193226275b842f85231c259c934e85459fed80fa68e502ffa9dbde\n      swap1\n        /* \"#utility.yul\":5890:5892   */\n      0x20\n        /* \"#utility.yul\":5875:5893   */\n      add\n        /* \"packages/revolution-contracts/VerbsDescriptor.sol\":3325:3348  DataURIToggled(enabled) */\n      mload(0x40)\n      dup1\n      swap2\n      sub\n      swap1\n      log1\n        /* \"packages/revolution-contracts/VerbsDescriptor.sol\":3231:3355  {... */\n      pop\n        /* \"packages/revolution-contracts/VerbsDescriptor.sol\":3171:3355  function toggleDataURIEnabled() external override onlyOwner {... */\n      jump\t// out\n        /* \"packages/revolution-contracts/VerbsDescriptor.sol\":4766:5247  function genericDataURI(string memory name, ICultureIndex.ArtPieceMetadata memory metadata) public pure returns (string memory) {... */\n    tag_56:\n        /* \"packages/revolution-contracts/VerbsDescriptor.sol\":4879:4892  string memory */\n      0x60\n        /* \"packages/revolution-contracts/VerbsDescriptor.sol\":4985:5013  TokenURIParams memory params */\n      0x00\n        /* \"packages/revolution-contracts/VerbsDescriptor.sol\":5016:5198  TokenURIParams({... */\n      mload(0x40)\n      dup1\n      0x80\n      add\n      0x40\n      mstore\n      dup1\n        /* \"packages/revolution-contracts/VerbsDescriptor.sol\":5051:5055  name */\n      dup6\n        /* \"packages/revolution-contracts/VerbsDescriptor.sol\":5016:5198  TokenURIParams({... */\n      dup2\n      mstore\n      0x20\n      add\n        /* \"packages/revolution-contracts/VerbsDescriptor.sol\":5082:5090  metadata */\n      dup5\n        /* \"packages/revolution-contracts/VerbsDescriptor.sol\":5082:5102  metadata.description */\n      0x20\n      add\n      mload\n        /* \"packages/revolution-contracts/VerbsDescriptor.sol\":5016:5198  TokenURIParams({... */\n      dup2\n      mstore\n      0x20\n      add\n        /* \"packages/revolution-contracts/VerbsDescriptor.sol\":5123:5131  metadata */\n      dup5\n        /* \"packages/revolution-contracts/VerbsDescriptor.sol\":5123:5137  metadata.image */\n      0x60\n      add\n      mload\n        /* \"packages/revolution-contracts/VerbsDescriptor.sol\":5016:5198  TokenURIParams({... */\n      dup2\n      mstore\n      0x20\n      add\n        /* \"packages/revolution-contracts/VerbsDescriptor.sol\":5166:5174  metadata */\n      dup5\n        /* \"packages/revolution-contracts/VerbsDescriptor.sol\":5166:5187  metadata.animationUrl */\n      0xa0\n      add\n      mload\n        /* \"packages/revolution-contracts/VerbsDescriptor.sol\":5016:5198  TokenURIParams({... */\n      dup2\n      mstore\n      pop\n        /* \"packages/revolution-contracts/VerbsDescriptor.sol\":4985:5198  TokenURIParams memory params = TokenURIParams({... */\n      swap1\n      pop\n        /* \"packages/revolution-contracts/VerbsDescriptor.sol\":5215:5240  constructTokenURI(params) */\n      tag_111\n        /* \"packages/revolution-contracts/VerbsDescriptor.sol\":5233:5239  params */\n      dup2\n        /* \"packages/revolution-contracts/VerbsDescriptor.sol\":5215:5232  constructTokenURI */\n      tag_45\n        /* \"packages/revolution-contracts/VerbsDescriptor.sol\":5215:5240  constructTokenURI(params) */\n      jump\t// in\n    tag_111:\n        /* \"packages/revolution-contracts/VerbsDescriptor.sol\":5208:5240  return constructTokenURI(params) */\n      swap5\n        /* \"packages/revolution-contracts/VerbsDescriptor.sol\":4766:5247  function genericDataURI(string memory name, ICultureIndex.ArtPieceMetadata memory metadata) public pure returns (string memory) {... */\n      swap4\n      pop\n      pop\n      pop\n      pop\n      jump\t// out\n        /* \"@openzeppelin/contracts/access/Ownable.sol\":2543:2758  function transferOwnership(address newOwner) public virtual onlyOwner {... */\n    tag_61:\n        /* \"@openzeppelin/contracts/access/Ownable.sol\":1531:1544  _checkOwner() */\n      tag_113\n        /* \"@openzeppelin/contracts/access/Ownable.sol\":1531:1542  _checkOwner */\n      tag_82\n        /* \"@openzeppelin/contracts/access/Ownable.sol\":1531:1544  _checkOwner() */\n      jump\t// in\n    tag_113:\n      sub(shl(0xa0, 0x01), 0x01)\n        /* \"@openzeppelin/contracts/access/Ownable.sol\":2627:2649  newOwner == address(0) */\n      dup2\n      and\n        /* \"@openzeppelin/contracts/access/Ownable.sol\":2623:2714  if (newOwner == address(0)) {... */\n      tag_115\n      jumpi\n        /* \"@openzeppelin/contracts/access/Ownable.sol\":2672:2703  OwnableInvalidOwner(address(0)) */\n      mload(0x40)\n      shl(0xe0, 0x1e4fbdf7)\n      dup2\n      mstore\n        /* \"@openzeppelin/contracts/access/Ownable.sol\":2700:2701  0 */\n      0x00\n        /* \"@openzeppelin/contracts/access/Ownable.sol\":2672:2703  OwnableInvalidOwner(address(0)) */\n      0x04\n      dup3\n      add\n        /* \"#utility.yul\":4560:4611   */\n      mstore\n        /* \"#utility.yul\":4533:4551   */\n      0x24\n      add\n        /* \"@openzeppelin/contracts/access/Ownable.sol\":2672:2703  OwnableInvalidOwner(address(0)) */\n    tag_116:\n      mload(0x40)\n      dup1\n      swap2\n      sub\n      swap1\n      revert\n        /* \"@openzeppelin/contracts/access/Ownable.sol\":2623:2714  if (newOwner == address(0)) {... */\n    tag_115:\n        /* \"@openzeppelin/contracts/access/Ownable.sol\":2723:2751  _transferOwnership(newOwner) */\n      tag_117\n        /* \"@openzeppelin/contracts/access/Ownable.sol\":2742:2750  newOwner */\n      dup2\n        /* \"@openzeppelin/contracts/access/Ownable.sol\":2723:2741  _transferOwnership */\n      tag_97\n        /* \"@openzeppelin/contracts/access/Ownable.sol\":2723:2751  _transferOwnership(newOwner) */\n      jump\t// in\n    tag_117:\n        /* \"@openzeppelin/contracts/access/Ownable.sol\":2543:2758  function transferOwnership(address newOwner) public virtual onlyOwner {... */\n      pop\n      jump\t// out\n        /* \"@openzeppelin/contracts/utils/Strings.sol\":637:1335  function toString(uint256 value) internal pure returns (string memory) {... */\n    tag_64:\n        /* \"@openzeppelin/contracts/utils/Strings.sol\":693:706  string memory */\n      0x60\n        /* \"@openzeppelin/contracts/utils/Strings.sol\":742:756  uint256 length */\n      0x00\n        /* \"@openzeppelin/contracts/utils/Strings.sol\":759:776  Math.log10(value) */\n      tag_119\n        /* \"@openzeppelin/contracts/utils/Strings.sol\":770:775  value */\n      dup4\n        /* \"@openzeppelin/contracts/utils/Strings.sol\":759:769  Math.log10 */\n      tag_120\n        /* \"@openzeppelin/contracts/utils/Strings.sol\":759:776  Math.log10(value) */\n      jump\t// in\n    tag_119:\n        /* \"@openzeppelin/contracts/utils/Strings.sol\":779:780  1 */\n      0x01\n        /* \"@openzeppelin/contracts/utils/Strings.sol\":759:780  Math.log10(value) + 1 */\n      add\n        /* \"@openzeppelin/contracts/utils/Strings.sol\":742:780  uint256 length = Math.log10(value) + 1 */\n      swap1\n      pop\n        /* \"@openzeppelin/contracts/utils/Strings.sol\":794:814  string memory buffer */\n      0x00\n        /* \"@openzeppelin/contracts/utils/Strings.sol\":828:834  length */\n      dup2\n        /* \"@openzeppelin/contracts/utils/Strings.sol\":817:835  new string(length) */\n      0xffffffffffffffff\n      dup2\n      gt\n      iszero\n      tag_122\n      jumpi\n      tag_122\n      tag_123\n      jump\t// in\n    tag_122:\n      mload(0x40)\n      swap1\n      dup1\n      dup3\n      mstore\n      dup1\n      0x1f\n      add\n      not(0x1f)\n      and\n      0x20\n      add\n      dup3\n      add\n      0x40\n      mstore\n      dup1\n      iszero\n      tag_124\n      jumpi\n      0x20\n      dup3\n      add\n      dup2\n      dup1\n      calldatasize\n      dup4\n      calldatacopy\n      add\n      swap1\n      pop\n    tag_124:\n      pop\n        /* \"@openzeppelin/contracts/utils/Strings.sol\":794:835  string memory buffer = new string(length) */\n      swap1\n      pop\n        /* \"@openzeppelin/contracts/utils/Strings.sol\":955:983  add(buffer, add(32, length)) */\n      dup2\n      dup2\n      add\n        /* \"@openzeppelin/contracts/utils/Strings.sol\":971:973  32 */\n      0x20\n        /* \"@openzeppelin/contracts/utils/Strings.sol\":955:983  add(buffer, add(32, length)) */\n      add\n        /* \"@openzeppelin/contracts/utils/Strings.sol\":1010:1292  while (true) {... */\n    tag_125:\n      not(0x00)\n        /* \"@openzeppelin/contracts/utils/Strings.sol\":1041:1046  ptr-- */\n      add\n      shl(0x81, 0x181899199a1a9b1b9c1cb0b131b232b3)\n        /* \"@openzeppelin/contracts/utils/Strings.sol\":1175:1177  10 */\n      0x0a\n        /* \"@openzeppelin/contracts/utils/Strings.sol\":1164:1178  mod(value, 10) */\n      dup7\n      mod\n        /* \"@openzeppelin/contracts/utils/Strings.sol\":1159:1191  byte(mod(value, 10), HEX_DIGITS) */\n      byte\n        /* \"@openzeppelin/contracts/utils/Strings.sol\":1041:1046  ptr-- */\n      dup2\n        /* \"@openzeppelin/contracts/utils/Strings.sol\":1146:1192  mstore8(ptr, byte(mod(value, 10), HEX_DIGITS)) */\n      mstore8\n        /* \"@openzeppelin/contracts/utils/Strings.sol\":1236:1238  10 */\n      0x0a\n        /* \"@openzeppelin/contracts/utils/Strings.sol\":1227:1238  value /= 10 */\n      dup6\n      div\n      swap5\n      pop\n        /* \"@openzeppelin/contracts/utils/Strings.sol\":1256:1277  if (value == 0) break */\n      dup5\n        /* \"@openzeppelin/contracts/utils/Strings.sol\":1010:1292  while (true) {... */\n      tag_125\n        /* \"@openzeppelin/contracts/utils/Strings.sol\":1256:1277  if (value == 0) break */\n      jumpi\n      pop\n        /* \"@openzeppelin/contracts/utils/Strings.sol\":1312:1318  buffer */\n      swap4\n        /* \"@openzeppelin/contracts/utils/Strings.sol\":637:1335  function toString(uint256 value) internal pure returns (string memory) {... */\n      swap3\n      pop\n      pop\n      pop\n      jump\t// out\n        /* \"@openzeppelin/contracts/access/Ownable.sol\":1796:1958  function _checkOwner() internal view virtual {... */\n    tag_82:\n        /* \"@openzeppelin/contracts/access/Ownable.sol\":1684:1691  address */\n      0x00\n        /* \"@openzeppelin/contracts/access/Ownable.sol\":1710:1716  _owner */\n      sload\n      sub(shl(0xa0, 0x01), 0x01)\n      and\n        /* \"@openzeppelin/contracts/utils/Context.sol\":735:745  msg.sender */\n      caller\n        /* \"@openzeppelin/contracts/access/Ownable.sol\":1855:1878  owner() != _msgSender() */\n      eq\n        /* \"@openzeppelin/contracts/access/Ownable.sol\":1851:1952  if (owner() != _msgSender()) {... */\n      tag_96\n      jumpi\n        /* \"@openzeppelin/contracts/access/Ownable.sol\":1901:1941  OwnableUnauthorizedAccount(_msgSender()) */\n      mload(0x40)\n      shl(0xe0, 0x118cdaa7)\n      dup2\n      mstore\n        /* \"@openzeppelin/contracts/utils/Context.sol\":735:745  msg.sender */\n      caller\n        /* \"@openzeppelin/contracts/access/Ownable.sol\":1901:1941  OwnableUnauthorizedAccount(_msgSender()) */\n      0x04\n      dup3\n      add\n        /* \"#utility.yul\":4560:4611   */\n      mstore\n        /* \"#utility.yul\":4533:4551   */\n      0x24\n      add\n        /* \"@openzeppelin/contracts/access/Ownable.sol\":1901:1941  OwnableUnauthorizedAccount(_msgSender()) */\n      tag_116\n        /* \"#utility.yul\":4414:4617   */\n      jump\n        /* \"@openzeppelin/contracts/access/Ownable.sol\":2912:3099  function _transferOwnership(address newOwner) internal virtual {... */\n    tag_97:\n        /* \"@openzeppelin/contracts/access/Ownable.sol\":2985:3001  address oldOwner */\n      0x00\n        /* \"@openzeppelin/contracts/access/Ownable.sol\":3004:3010  _owner */\n      dup1\n      sload\n      sub(shl(0xa0, 0x01), 0x01)\n        /* \"@openzeppelin/contracts/access/Ownable.sol\":3020:3037  _owner = newOwner */\n      dup4\n      dup2\n      and\n      not(sub(shl(0xa0, 0x01), 0x01))\n      dup4\n      and\n      dup2\n      or\n      dup5\n      sstore\n        /* \"@openzeppelin/contracts/access/Ownable.sol\":3052:3092  OwnershipTransferred(oldOwner, newOwner) */\n      mload(0x40)\n        /* \"@openzeppelin/contracts/access/Ownable.sol\":3004:3010  _owner */\n      swap2\n      swap1\n      swap3\n      and\n      swap3\n      dup4\n      swap2\n        /* \"@openzeppelin/contracts/access/Ownable.sol\":3052:3092  OwnershipTransferred(oldOwner, newOwner) */\n      0x8be0079c531659141344cd1fd0a4f28419497f9722a3daafe3b4186f6b6457e0\n      swap2\n        /* \"@openzeppelin/contracts/access/Ownable.sol\":2985:3001  address oldOwner */\n      swap1\n        /* \"@openzeppelin/contracts/access/Ownable.sol\":3052:3092  OwnershipTransferred(oldOwner, newOwner) */\n      log3\n        /* \"@openzeppelin/contracts/access/Ownable.sol\":2975:3099  {... */\n      pop\n        /* \"@openzeppelin/contracts/access/Ownable.sol\":2912:3099  function _transferOwnership(address newOwner) internal virtual {... */\n      pop\n      jump\t// out\n        /* \"@openzeppelin/contracts/utils/Base64.sol\":476:3502  function encode(bytes memory data) internal pure returns (string memory) {... */\n    tag_103:\n        /* \"@openzeppelin/contracts/utils/Base64.sol\":534:547  string memory */\n      0x60\n        /* \"@openzeppelin/contracts/utils/Base64.sol\":766:770  data */\n      dup2\n        /* \"@openzeppelin/contracts/utils/Base64.sol\":766:777  data.length */\n      mload\n        /* \"@openzeppelin/contracts/utils/Base64.sol\":781:782  0 */\n      0x00\n        /* \"@openzeppelin/contracts/utils/Base64.sol\":766:782  data.length == 0 */\n      sub\n        /* \"@openzeppelin/contracts/utils/Base64.sol\":762:793  if (data.length == 0) return \"\" */\n      tag_140\n      jumpi\n      pop\n      pop\n        /* \"@openzeppelin/contracts/utils/Base64.sol\":784:793  return \"\" */\n      0x40\n      dup1\n      mload\n      0x20\n      dup2\n      add\n      swap1\n      swap2\n      mstore\n      0x00\n      dup2\n      mstore\n      swap1\n        /* \"@openzeppelin/contracts/utils/Base64.sol\":476:3502  function encode(bytes memory data) internal pure returns (string memory) {... */\n      jump\t// out\n        /* \"@openzeppelin/contracts/utils/Base64.sol\":762:793  if (data.length == 0) return \"\" */\n    tag_140:\n        /* \"@openzeppelin/contracts/utils/Base64.sol\":843:862  string memory table */\n      0x00\n        /* \"@openzeppelin/contracts/utils/Base64.sol\":865:871  _TABLE */\n      mload(0x40)\n      dup1\n      0x60\n      add\n      0x40\n      mstore\n      dup1\n      0x40\n      dup2\n      mstore\n      0x20\n      add\n      data_84d8a590de33e00cbdc16e1f28c3506f5ec15c599fab9a6a4bcd575cc2f110ce\n      0x40\n      swap2\n      codecopy\n        /* \"@openzeppelin/contracts/utils/Base64.sol\":843:871  string memory table = _TABLE */\n      swap1\n      pop\n        /* \"@openzeppelin/contracts/utils/Base64.sol\":1274:1294  string memory result */\n      0x00\n        /* \"@openzeppelin/contracts/utils/Base64.sol\":1333:1334  3 */\n      0x03\n        /* \"@openzeppelin/contracts/utils/Base64.sol\":1314:1318  data */\n      dup5\n        /* \"@openzeppelin/contracts/utils/Base64.sol\":1314:1325  data.length */\n      mload\n        /* \"@openzeppelin/contracts/utils/Base64.sol\":1328:1329  2 */\n      0x02\n        /* \"@openzeppelin/contracts/utils/Base64.sol\":1314:1329  data.length + 2 */\n      tag_141\n      swap2\n      swap1\n      tag_142\n      jump\t// in\n    tag_141:\n        /* \"@openzeppelin/contracts/utils/Base64.sol\":1313:1334  (data.length + 2) / 3 */\n      tag_143\n      swap2\n      swap1\n      tag_144\n      jump\t// in\n    tag_143:\n        /* \"@openzeppelin/contracts/utils/Base64.sol\":1308:1335  4 * ((data.length + 2) / 3) */\n      tag_145\n      swap1\n        /* \"@openzeppelin/contracts/utils/Base64.sol\":1308:1309  4 */\n      0x04\n        /* \"@openzeppelin/contracts/utils/Base64.sol\":1308:1335  4 * ((data.length + 2) / 3) */\n      tag_146\n      jump\t// in\n    tag_145:\n        /* \"@openzeppelin/contracts/utils/Base64.sol\":1297:1336  new string(4 * ((data.length + 2) / 3)) */\n      0xffffffffffffffff\n      dup2\n      gt\n      iszero\n      tag_148\n      jumpi\n      tag_148\n      tag_123\n      jump\t// in\n    tag_148:\n      mload(0x40)\n      swap1\n      dup1\n      dup3\n      mstore\n      dup1\n      0x1f\n      add\n      not(0x1f)\n      and\n      0x20\n      add\n      dup3\n      add\n      0x40\n      mstore\n      dup1\n      iszero\n      tag_149\n      jumpi\n      0x20\n      dup3\n      add\n      dup2\n      dup1\n      calldatasize\n      dup4\n      calldatacopy\n      add\n      swap1\n      pop\n    tag_149:\n      pop\n        /* \"@openzeppelin/contracts/utils/Base64.sol\":1274:1336  string memory result = new string(4 * ((data.length + 2) / 3)) */\n      swap1\n      pop\n        /* \"@openzeppelin/contracts/utils/Base64.sol\":1511:1512  1 */\n      0x01\n        /* \"@openzeppelin/contracts/utils/Base64.sol\":1504:1509  table */\n      dup3\n        /* \"@openzeppelin/contracts/utils/Base64.sol\":1500:1513  add(table, 1) */\n      add\n        /* \"@openzeppelin/contracts/utils/Base64.sol\":1612:1614  32 */\n      0x20\n        /* \"@openzeppelin/contracts/utils/Base64.sol\":1604:1610  result */\n      dup3\n        /* \"@openzeppelin/contracts/utils/Base64.sol\":1600:1615  add(result, 32) */\n      add\n        /* \"@openzeppelin/contracts/utils/Base64.sol\":1719:1723  data */\n      dup6\n        /* \"@openzeppelin/contracts/utils/Base64.sol\":1770:1774  data */\n      dup7\n        /* \"@openzeppelin/contracts/utils/Base64.sol\":1764:1775  mload(data) */\n      mload\n        /* \"@openzeppelin/contracts/utils/Base64.sol\":1758:1762  data */\n      dup8\n        /* \"@openzeppelin/contracts/utils/Base64.sol\":1754:1776  add(data, mload(data)) */\n      add\n        /* \"@openzeppelin/contracts/utils/Base64.sol\":1682:3085  for {... */\n    tag_150:\n        /* \"@openzeppelin/contracts/utils/Base64.sol\":1803:1809  endPtr */\n      dup1\n        /* \"@openzeppelin/contracts/utils/Base64.sol\":1794:1801  dataPtr */\n      dup3\n        /* \"@openzeppelin/contracts/utils/Base64.sol\":1791:1810  lt(dataPtr, endPtr) */\n      lt\n        /* \"@openzeppelin/contracts/utils/Base64.sol\":1682:3085  for {... */\n      iszero\n      tag_152\n      jumpi\n        /* \"@openzeppelin/contracts/utils/Base64.sol\":1905:1906  3 */\n      0x03\n        /* \"@openzeppelin/contracts/utils/Base64.sol\":1896:1903  dataPtr */\n      dup3\n        /* \"@openzeppelin/contracts/utils/Base64.sol\":1892:1907  add(dataPtr, 3) */\n      add\n        /* \"@openzeppelin/contracts/utils/Base64.sol\":1881:1907  dataPtr := add(dataPtr, 3) */\n      swap2\n      pop\n        /* \"@openzeppelin/contracts/utils/Base64.sol\":1943:1950  dataPtr */\n      dup2\n        /* \"@openzeppelin/contracts/utils/Base64.sol\":1937:1951  mload(dataPtr) */\n      mload\n        /* \"@openzeppelin/contracts/utils/Base64.sol\":2586:2590  0x3F */\n      0x3f\n        /* \"@openzeppelin/contracts/utils/Base64.sol\":2578:2583  input */\n      dup2\n        /* \"@openzeppelin/contracts/utils/Base64.sol\":2574:2576  18 */\n      0x12\n        /* \"@openzeppelin/contracts/utils/Base64.sol\":2570:2584  shr(18, input) */\n      shr\n        /* \"@openzeppelin/contracts/utils/Base64.sol\":2566:2591  and(shr(18, input), 0x3F) */\n      and\n        /* \"@openzeppelin/contracts/utils/Base64.sol\":2556:2564  tablePtr */\n      dup6\n        /* \"@openzeppelin/contracts/utils/Base64.sol\":2552:2592  add(tablePtr, and(shr(18, input), 0x3F)) */\n      add\n        /* \"@openzeppelin/contracts/utils/Base64.sol\":2546:2593  mload(add(tablePtr, and(shr(18, input), 0x3F))) */\n      mload\n        /* \"@openzeppelin/contracts/utils/Base64.sol\":2535:2544  resultPtr */\n      dup5\n        /* \"@openzeppelin/contracts/utils/Base64.sol\":2527:2594  mstore8(resultPtr, mload(add(tablePtr, and(shr(18, input), 0x3F)))) */\n      mstore8\n        /* \"@openzeppelin/contracts/utils/Base64.sol\":2639:2640  1 */\n      0x01\n        /* \"@openzeppelin/contracts/utils/Base64.sol\":2628:2637  resultPtr */\n      dup5\n        /* \"@openzeppelin/contracts/utils/Base64.sol\":2624:2641  add(resultPtr, 1) */\n      add\n        /* \"@openzeppelin/contracts/utils/Base64.sol\":2611:2641  resultPtr := add(resultPtr, 1) */\n      swap4\n      pop\n        /* \"@openzeppelin/contracts/utils/Base64.sol\":2729:2733  0x3F */\n      0x3f\n        /* \"@openzeppelin/contracts/utils/Base64.sol\":2721:2726  input */\n      dup2\n        /* \"@openzeppelin/contracts/utils/Base64.sol\":2717:2719  12 */\n      0x0c\n        /* \"@openzeppelin/contracts/utils/Base64.sol\":2713:2727  shr(12, input) */\n      shr\n        /* \"@openzeppelin/contracts/utils/Base64.sol\":2709:2734  and(shr(12, input), 0x3F) */\n      and\n        /* \"@openzeppelin/contracts/utils/Base64.sol\":2699:2707  tablePtr */\n      dup6\n        /* \"@openzeppelin/contracts/utils/Base64.sol\":2695:2735  add(tablePtr, and(shr(12, input), 0x3F)) */\n      add\n        /* \"@openzeppelin/contracts/utils/Base64.sol\":2689:2736  mload(add(tablePtr, and(shr(12, input), 0x3F))) */\n      mload\n        /* \"@openzeppelin/contracts/utils/Base64.sol\":2678:2687  resultPtr */\n      dup5\n        /* \"@openzeppelin/contracts/utils/Base64.sol\":2670:2737  mstore8(resultPtr, mload(add(tablePtr, and(shr(12, input), 0x3F)))) */\n      mstore8\n        /* \"@openzeppelin/contracts/utils/Base64.sol\":2782:2783  1 */\n      0x01\n        /* \"@openzeppelin/contracts/utils/Base64.sol\":2771:2780  resultPtr */\n      dup5\n        /* \"@openzeppelin/contracts/utils/Base64.sol\":2767:2784  add(resultPtr, 1) */\n      add\n        /* \"@openzeppelin/contracts/utils/Base64.sol\":2754:2784  resultPtr := add(resultPtr, 1) */\n      swap4\n      pop\n        /* \"@openzeppelin/contracts/utils/Base64.sol\":2871:2875  0x3F */\n      0x3f\n        /* \"@openzeppelin/contracts/utils/Base64.sol\":2863:2868  input */\n      dup2\n        /* \"@openzeppelin/contracts/utils/Base64.sol\":2860:2861  6 */\n      0x06\n        /* \"@openzeppelin/contracts/utils/Base64.sol\":2856:2869  shr(6, input) */\n      shr\n        /* \"@openzeppelin/contracts/utils/Base64.sol\":2852:2876  and(shr(6, input), 0x3F) */\n      and\n        /* \"@openzeppelin/contracts/utils/Base64.sol\":2842:2850  tablePtr */\n      dup6\n        /* \"@openzeppelin/contracts/utils/Base64.sol\":2838:2877  add(tablePtr, and(shr(6, input), 0x3F)) */\n      add\n        /* \"@openzeppelin/contracts/utils/Base64.sol\":2832:2878  mload(add(tablePtr, and(shr(6, input), 0x3F))) */\n      mload\n        /* \"@openzeppelin/contracts/utils/Base64.sol\":2821:2830  resultPtr */\n      dup5\n        /* \"@openzeppelin/contracts/utils/Base64.sol\":2813:2879  mstore8(resultPtr, mload(add(tablePtr, and(shr(6, input), 0x3F)))) */\n      mstore8\n        /* \"@openzeppelin/contracts/utils/Base64.sol\":2924:2925  1 */\n      0x01\n        /* \"@openzeppelin/contracts/utils/Base64.sol\":2913:2922  resultPtr */\n      dup5\n        /* \"@openzeppelin/contracts/utils/Base64.sol\":2909:2926  add(resultPtr, 1) */\n      add\n        /* \"@openzeppelin/contracts/utils/Base64.sol\":2896:2926  resultPtr := add(resultPtr, 1) */\n      swap4\n      pop\n        /* \"@openzeppelin/contracts/utils/Base64.sol\":3005:3009  0x3F */\n      0x3f\n        /* \"@openzeppelin/contracts/utils/Base64.sol\":2998:3003  input */\n      dup2\n        /* \"@openzeppelin/contracts/utils/Base64.sol\":2994:3010  and(input, 0x3F) */\n      and\n        /* \"@openzeppelin/contracts/utils/Base64.sol\":2984:2992  tablePtr */\n      dup6\n        /* \"@openzeppelin/contracts/utils/Base64.sol\":2980:3011  add(tablePtr, and(input, 0x3F)) */\n      add\n        /* \"@openzeppelin/contracts/utils/Base64.sol\":2974:3012  mload(add(tablePtr, and(input, 0x3F))) */\n      mload\n        /* \"@openzeppelin/contracts/utils/Base64.sol\":2963:2972  resultPtr */\n      dup5\n        /* \"@openzeppelin/contracts/utils/Base64.sol\":2955:3013  mstore8(resultPtr, mload(add(tablePtr, and(input, 0x3F)))) */\n      mstore8\n      pop\n        /* \"@openzeppelin/contracts/utils/Base64.sol\":3058:3059  1 */\n      0x01\n        /* \"@openzeppelin/contracts/utils/Base64.sol\":3047:3056  resultPtr */\n      dup4\n        /* \"@openzeppelin/contracts/utils/Base64.sol\":3043:3060  add(resultPtr, 1) */\n      add\n        /* \"@openzeppelin/contracts/utils/Base64.sol\":3030:3060  resultPtr := add(resultPtr, 1) */\n      swap3\n      pop\n        /* \"@openzeppelin/contracts/utils/Base64.sol\":1682:3085  for {... */\n      jump(tag_150)\n    tag_152:\n        /* \"@openzeppelin/contracts/utils/Base64.sol\":1686:1790  {... */\n      pop\n      pop\n        /* \"@openzeppelin/contracts/utils/Base64.sol\":3243:3244  3 */\n      0x03\n        /* \"@openzeppelin/contracts/utils/Base64.sol\":3236:3240  data */\n      dup7\n        /* \"@openzeppelin/contracts/utils/Base64.sol\":3230:3241  mload(data) */\n      mload\n        /* \"@openzeppelin/contracts/utils/Base64.sol\":3226:3245  mod(mload(data), 3) */\n      mod\n        /* \"@openzeppelin/contracts/utils/Base64.sol\":3263:3264  1 */\n      0x01\n        /* \"@openzeppelin/contracts/utils/Base64.sol\":3258:3378  case 1 {... */\n      dup2\n      eq\n      tag_154\n      jumpi\n        /* \"@openzeppelin/contracts/utils/Base64.sol\":3396:3397  2 */\n      0x02\n        /* \"@openzeppelin/contracts/utils/Base64.sol\":3391:3462  case 2 {... */\n      dup2\n      eq\n      tag_155\n      jumpi\n        /* \"@openzeppelin/contracts/utils/Base64.sol\":3219:3462  switch mod(mload(data), 3)... */\n      jump(tag_153)\n        /* \"@openzeppelin/contracts/utils/Base64.sol\":3258:3378  case 1 {... */\n    tag_154:\n        /* \"@openzeppelin/contracts/utils/Base64.sol\":3310:3314  0x3d */\n      0x3d\n        /* \"@openzeppelin/contracts/utils/Base64.sol\":3306:3307  1 */\n      0x01\n        /* \"@openzeppelin/contracts/utils/Base64.sol\":3295:3304  resultPtr */\n      dup4\n        /* \"@openzeppelin/contracts/utils/Base64.sol\":3291:3308  sub(resultPtr, 1) */\n      sub\n        /* \"@openzeppelin/contracts/utils/Base64.sol\":3283:3315  mstore8(sub(resultPtr, 1), 0x3d) */\n      mstore8\n        /* \"@openzeppelin/contracts/utils/Base64.sol\":3359:3363  0x3d */\n      0x3d\n        /* \"@openzeppelin/contracts/utils/Base64.sol\":3355:3356  2 */\n      0x02\n        /* \"@openzeppelin/contracts/utils/Base64.sol\":3344:3353  resultPtr */\n      dup4\n        /* \"@openzeppelin/contracts/utils/Base64.sol\":3340:3357  sub(resultPtr, 2) */\n      sub\n        /* \"@openzeppelin/contracts/utils/Base64.sol\":3332:3364  mstore8(sub(resultPtr, 2), 0x3d) */\n      mstore8\n        /* \"@openzeppelin/contracts/utils/Base64.sol\":3258:3378  case 1 {... */\n      jump(tag_153)\n        /* \"@openzeppelin/contracts/utils/Base64.sol\":3391:3462  case 2 {... */\n    tag_155:\n        /* \"@openzeppelin/contracts/utils/Base64.sol\":3443:3447  0x3d */\n      0x3d\n        /* \"@openzeppelin/contracts/utils/Base64.sol\":3439:3440  1 */\n      0x01\n        /* \"@openzeppelin/contracts/utils/Base64.sol\":3428:3437  resultPtr */\n      dup4\n        /* \"@openzeppelin/contracts/utils/Base64.sol\":3424:3441  sub(resultPtr, 1) */\n      sub\n        /* \"@openzeppelin/contracts/utils/Base64.sol\":3416:3448  mstore8(sub(resultPtr, 1), 0x3d) */\n      mstore8\n        /* \"@openzeppelin/contracts/utils/Base64.sol\":3219:3462  switch mod(mload(data), 3)... */\n    tag_153:\n      pop\n        /* \"@openzeppelin/contracts/utils/Base64.sol\":3489:3495  result */\n      swap2\n      swap6\n        /* \"@openzeppelin/contracts/utils/Base64.sol\":476:3502  function encode(bytes memory data) internal pure returns (string memory) {... */\n      swap5\n      pop\n      pop\n      pop\n      pop\n      pop\n      jump\t// out\n        /* \"@openzeppelin/contracts/utils/math/Math.sol\":12214:13130  function log10(uint256 value) internal pure returns (uint256) {... */\n    tag_120:\n        /* \"@openzeppelin/contracts/utils/math/Math.sol\":12267:12274  uint256 */\n      0x00\n      dup1\n      shl(0x40, 0x184f03e93ff9f4daa797ed6e38ed64bf6a1f01)\n        /* \"@openzeppelin/contracts/utils/math/Math.sol\":12342:12359  value >= 10 ** 64 */\n      dup4\n      lt\n        /* \"@openzeppelin/contracts/utils/math/Math.sol\":12338:12441  if (value >= 10 ** 64) {... */\n      tag_157\n      jumpi\n      shl(0x40, 0x184f03e93ff9f4daa797ed6e38ed64bf6a1f01)\n        /* \"@openzeppelin/contracts/utils/math/Math.sol\":12379:12396  value /= 10 ** 64 */\n      dup4\n      div\n      swap3\n      pop\n        /* \"@openzeppelin/contracts/utils/math/Math.sol\":12424:12426  64 */\n      0x40\n        /* \"@openzeppelin/contracts/utils/math/Math.sol\":12414:12426  result += 64 */\n      add\n        /* \"@openzeppelin/contracts/utils/math/Math.sol\":12338:12441  if (value >= 10 ** 64) {... */\n    tag_157:\n        /* \"@openzeppelin/contracts/utils/math/Math.sol\":12467:12475  10 ** 32 */\n      0x04ee2d6d415b85acef8100000000\n        /* \"@openzeppelin/contracts/utils/math/Math.sol\":12458:12463  value */\n      dup4\n        /* \"@openzeppelin/contracts/utils/math/Math.sol\":12458:12475  value >= 10 ** 32 */\n      lt\n        /* \"@openzeppelin/contracts/utils/math/Math.sol\":12454:12557  if (value >= 10 ** 32) {... */\n      tag_160\n      jumpi\n        /* \"@openzeppelin/contracts/utils/math/Math.sol\":12504:12512  10 ** 32 */\n      0x04ee2d6d415b85acef8100000000\n        /* \"@openzeppelin/contracts/utils/math/Math.sol\":12495:12512  value /= 10 ** 32 */\n      dup4\n      div\n      swap3\n      pop\n        /* \"@openzeppelin/contracts/utils/math/Math.sol\":12540:12542  32 */\n      0x20\n        /* \"@openzeppelin/contracts/utils/math/Math.sol\":12530:12542  result += 32 */\n      add\n        /* \"@openzeppelin/contracts/utils/math/Math.sol\":12454:12557  if (value >= 10 ** 32) {... */\n    tag_160:\n        /* \"@openzeppelin/contracts/utils/math/Math.sol\":12583:12591  10 ** 16 */\n      0x2386f26fc10000\n        /* \"@openzeppelin/contracts/utils/math/Math.sol\":12574:12579  value */\n      dup4\n        /* \"@openzeppelin/contracts/utils/math/Math.sol\":12574:12591  value >= 10 ** 16 */\n      lt\n        /* \"@openzeppelin/contracts/utils/math/Math.sol\":12570:12673  if (value >= 10 ** 16) {... */\n      tag_163\n      jumpi\n        /* \"@openzeppelin/contracts/utils/math/Math.sol\":12620:12628  10 ** 16 */\n      0x2386f26fc10000\n        /* \"@openzeppelin/contracts/utils/math/Math.sol\":12611:12628  value /= 10 ** 16 */\n      dup4\n      div\n      swap3\n      pop\n        /* \"@openzeppelin/contracts/utils/math/Math.sol\":12656:12658  16 */\n      0x10\n        /* \"@openzeppelin/contracts/utils/math/Math.sol\":12646:12658  result += 16 */\n      add\n        /* \"@openzeppelin/contracts/utils/math/Math.sol\":12570:12673  if (value >= 10 ** 16) {... */\n    tag_163:\n        /* \"@openzeppelin/contracts/utils/math/Math.sol\":12699:12706  10 ** 8 */\n      0x05f5e100\n        /* \"@openzeppelin/contracts/utils/math/Math.sol\":12690:12695  value */\n      dup4\n        /* \"@openzeppelin/contracts/utils/math/Math.sol\":12690:12706  value >= 10 ** 8 */\n      lt\n        /* \"@openzeppelin/contracts/utils/math/Math.sol\":12686:12786  if (value >= 10 ** 8) {... */\n      tag_166\n      jumpi\n        /* \"@openzeppelin/contracts/utils/math/Math.sol\":12735:12742  10 ** 8 */\n      0x05f5e100\n        /* \"@openzeppelin/contracts/utils/math/Math.sol\":12726:12742  value /= 10 ** 8 */\n      dup4\n      div\n      swap3\n      pop\n        /* \"@openzeppelin/contracts/utils/math/Math.sol\":12770:12771  8 */\n      0x08\n        /* \"@openzeppelin/contracts/utils/math/Math.sol\":12760:12771  result += 8 */\n      add\n        /* \"@openzeppelin/contracts/utils/math/Math.sol\":12686:12786  if (value >= 10 ** 8) {... */\n    tag_166:\n        /* \"@openzeppelin/contracts/utils/math/Math.sol\":12812:12819  10 ** 4 */\n      0x2710\n        /* \"@openzeppelin/contracts/utils/math/Math.sol\":12803:12808  value */\n      dup4\n        /* \"@openzeppelin/contracts/utils/math/Math.sol\":12803:12819  value >= 10 ** 4 */\n      lt\n        /* \"@openzeppelin/contracts/utils/math/Math.sol\":12799:12899  if (value >= 10 ** 4) {... */\n      tag_169\n      jumpi\n        /* \"@openzeppelin/contracts/utils/math/Math.sol\":12848:12855  10 ** 4 */\n      0x2710\n        /* \"@openzeppelin/contracts/utils/math/Math.sol\":12839:12855  value /= 10 ** 4 */\n      dup4\n      div\n      swap3\n      pop\n        /* \"@openzeppelin/contracts/utils/math/Math.sol\":12883:12884  4 */\n      0x04\n        /* \"@openzeppelin/contracts/utils/math/Math.sol\":12873:12884  result += 4 */\n      add\n        /* \"@openzeppelin/contracts/utils/math/Math.sol\":12799:12899  if (value >= 10 ** 4) {... */\n    tag_169:\n        /* \"@openzeppelin/contracts/utils/math/Math.sol\":12925:12932  10 ** 2 */\n      0x64\n        /* \"@openzeppelin/contracts/utils/math/Math.sol\":12916:12921  value */\n      dup4\n        /* \"@openzeppelin/contracts/utils/math/Math.sol\":12916:12932  value >= 10 ** 2 */\n      lt\n        /* \"@openzeppelin/contracts/utils/math/Math.sol\":12912:13012  if (value >= 10 ** 2) {... */\n      tag_172\n      jumpi\n        /* \"@openzeppelin/contracts/utils/math/Math.sol\":12961:12968  10 ** 2 */\n      0x64\n        /* \"@openzeppelin/contracts/utils/math/Math.sol\":12952:12968  value /= 10 ** 2 */\n      dup4\n      div\n      swap3\n      pop\n        /* \"@openzeppelin/contracts/utils/math/Math.sol\":12996:12997  2 */\n      0x02\n        /* \"@openzeppelin/contracts/utils/math/Math.sol\":12986:12997  result += 2 */\n      add\n        /* \"@openzeppelin/contracts/utils/math/Math.sol\":12912:13012  if (value >= 10 ** 2) {... */\n    tag_172:\n        /* \"@openzeppelin/contracts/utils/math/Math.sol\":13038:13045  10 ** 1 */\n      0x0a\n        /* \"@openzeppelin/contracts/utils/math/Math.sol\":13029:13034  value */\n      dup4\n        /* \"@openzeppelin/contracts/utils/math/Math.sol\":13029:13045  value >= 10 ** 1 */\n      lt\n        /* \"@openzeppelin/contracts/utils/math/Math.sol\":13025:13091  if (value >= 10 ** 1) {... */\n      tag_62\n      jumpi\n        /* \"@openzeppelin/contracts/utils/math/Math.sol\":13075:13076  1 */\n      0x01\n        /* \"@openzeppelin/contracts/utils/math/Math.sol\":13065:13076  result += 1 */\n      add\n        /* \"@openzeppelin/contracts/utils/math/Math.sol\":13117:13123  result */\n      swap3\n        /* \"@openzeppelin/contracts/utils/math/Math.sol\":12214:13130  function log10(uint256 value) internal pure returns (uint256) {... */\n      swap2\n      pop\n      pop\n      jump\t// out\n        /* \"#utility.yul\":14:141   */\n    tag_123:\n        /* \"#utility.yul\":75:85   */\n      0x4e487b71\n        /* \"#utility.yul\":70:73   */\n      0xe0\n        /* \"#utility.yul\":66:86   */\n      shl\n        /* \"#utility.yul\":63:64   */\n      0x00\n        /* \"#utility.yul\":56:87   */\n      mstore\n        /* \"#utility.yul\":106:110   */\n      0x41\n        /* \"#utility.yul\":103:104   */\n      0x04\n        /* \"#utility.yul\":96:111   */\n      mstore\n        /* \"#utility.yul\":130:134   */\n      0x24\n        /* \"#utility.yul\":127:128   */\n      0x00\n        /* \"#utility.yul\":120:135   */\n      revert\n        /* \"#utility.yul\":146:394   */\n    tag_177:\n        /* \"#utility.yul\":213:215   */\n      0x40\n        /* \"#utility.yul\":207:216   */\n      mload\n        /* \"#utility.yul\":255:259   */\n      0xc0\n        /* \"#utility.yul\":243:260   */\n      dup2\n      add\n        /* \"#utility.yul\":290:308   */\n      0xffffffffffffffff\n        /* \"#utility.yul\":275:309   */\n      dup2\n      gt\n        /* \"#utility.yul\":311:333   */\n      dup3\n      dup3\n      lt\n        /* \"#utility.yul\":272:334   */\n      or\n        /* \"#utility.yul\":269:357   */\n      iszero\n      tag_192\n      jumpi\n        /* \"#utility.yul\":337:355   */\n      tag_192\n      tag_123\n      jump\t// in\n    tag_192:\n        /* \"#utility.yul\":373:375   */\n      0x40\n        /* \"#utility.yul\":366:388   */\n      mstore\n        /* \"#utility.yul\":146:394   */\n      swap1\n      jump\t// out\n        /* \"#utility.yul\":399:652   */\n    tag_178:\n        /* \"#utility.yul\":471:473   */\n      0x40\n        /* \"#utility.yul\":465:474   */\n      mload\n        /* \"#utility.yul\":513:517   */\n      0x80\n        /* \"#utility.yul\":501:518   */\n      dup2\n      add\n        /* \"#utility.yul\":548:566   */\n      0xffffffffffffffff\n        /* \"#utility.yul\":533:567   */\n      dup2\n      gt\n        /* \"#utility.yul\":569:591   */\n      dup3\n      dup3\n      lt\n        /* \"#utility.yul\":530:592   */\n      or\n        /* \"#utility.yul\":527:615   */\n      iszero\n      tag_192\n      jumpi\n        /* \"#utility.yul\":595:613   */\n      tag_192\n      tag_123\n      jump\t// in\n        /* \"#utility.yul\":657:1376   */\n    tag_179:\n        /* \"#utility.yul\":700:705   */\n      0x00\n        /* \"#utility.yul\":753:756   */\n      dup3\n        /* \"#utility.yul\":746:750   */\n      0x1f\n        /* \"#utility.yul\":738:744   */\n      dup4\n        /* \"#utility.yul\":734:751   */\n      add\n        /* \"#utility.yul\":730:757   */\n      slt\n        /* \"#utility.yul\":720:775   */\n      tag_197\n      jumpi\n        /* \"#utility.yul\":771:772   */\n      0x00\n        /* \"#utility.yul\":768:769   */\n      dup1\n        /* \"#utility.yul\":761:773   */\n      revert\n        /* \"#utility.yul\":720:775   */\n    tag_197:\n        /* \"#utility.yul\":807:813   */\n      dup2\n        /* \"#utility.yul\":794:814   */\n      calldataload\n        /* \"#utility.yul\":833:851   */\n      0xffffffffffffffff\n        /* \"#utility.yul\":870:872   */\n      dup1\n        /* \"#utility.yul\":866:868   */\n      dup3\n        /* \"#utility.yul\":863:873   */\n      gt\n        /* \"#utility.yul\":860:896   */\n      iszero\n      tag_199\n      jumpi\n        /* \"#utility.yul\":876:894   */\n      tag_199\n      tag_123\n      jump\t// in\n    tag_199:\n        /* \"#utility.yul\":951:953   */\n      0x40\n        /* \"#utility.yul\":945:954   */\n      mload\n        /* \"#utility.yul\":919:921   */\n      0x1f\n        /* \"#utility.yul\":1005:1018   */\n      dup4\n      add\n      not(0x1f)\n        /* \"#utility.yul\":1001:1023   */\n      swap1\n      dup2\n      and\n        /* \"#utility.yul\":1025:1027   */\n      0x3f\n        /* \"#utility.yul\":997:1028   */\n      add\n        /* \"#utility.yul\":993:1033   */\n      and\n        /* \"#utility.yul\":981:1034   */\n      dup2\n      add\n      swap1\n        /* \"#utility.yul\":1049:1067   */\n      dup3\n      dup3\n      gt\n        /* \"#utility.yul\":1069:1091   */\n      dup2\n      dup4\n      lt\n        /* \"#utility.yul\":1046:1092   */\n      or\n        /* \"#utility.yul\":1043:1115   */\n      iszero\n      tag_201\n      jumpi\n        /* \"#utility.yul\":1095:1113   */\n      tag_201\n      tag_123\n      jump\t// in\n    tag_201:\n        /* \"#utility.yul\":1135:1145   */\n      dup2\n        /* \"#utility.yul\":1131:1133   */\n      0x40\n        /* \"#utility.yul\":1124:1146   */\n      mstore\n        /* \"#utility.yul\":1170:1172   */\n      dup4\n        /* \"#utility.yul\":1162:1168   */\n      dup2\n        /* \"#utility.yul\":1155:1173   */\n      mstore\n        /* \"#utility.yul\":1216:1219   */\n      dup7\n        /* \"#utility.yul\":1209:1213   */\n      0x20\n        /* \"#utility.yul\":1204:1206   */\n      dup6\n        /* \"#utility.yul\":1196:1202   */\n      dup9\n        /* \"#utility.yul\":1192:1207   */\n      add\n        /* \"#utility.yul\":1188:1214   */\n      add\n        /* \"#utility.yul\":1185:1220   */\n      gt\n        /* \"#utility.yul\":1182:1237   */\n      iszero\n      tag_202\n      jumpi\n        /* \"#utility.yul\":1233:1234   */\n      0x00\n        /* \"#utility.yul\":1230:1231   */\n      dup1\n        /* \"#utility.yul\":1223:1235   */\n      revert\n        /* \"#utility.yul\":1182:1237   */\n    tag_202:\n        /* \"#utility.yul\":1297:1299   */\n      dup4\n        /* \"#utility.yul\":1290:1294   */\n      0x20\n        /* \"#utility.yul\":1282:1288   */\n      dup8\n        /* \"#utility.yul\":1278:1295   */\n      add\n        /* \"#utility.yul\":1271:1275   */\n      0x20\n        /* \"#utility.yul\":1263:1269   */\n      dup4\n        /* \"#utility.yul\":1259:1276   */\n      add\n        /* \"#utility.yul\":1246:1300   */\n      calldatacopy\n        /* \"#utility.yul\":1344:1345   */\n      0x00\n        /* \"#utility.yul\":1337:1341   */\n      0x20\n        /* \"#utility.yul\":1332:1334   */\n      dup6\n        /* \"#utility.yul\":1324:1330   */\n      dup4\n        /* \"#utility.yul\":1320:1335   */\n      add\n        /* \"#utility.yul\":1316:1342   */\n      add\n        /* \"#utility.yul\":1309:1346   */\n      mstore\n        /* \"#utility.yul\":1364:1370   */\n      dup1\n        /* \"#utility.yul\":1355:1370   */\n      swap5\n      pop\n      pop\n      pop\n      pop\n      pop\n        /* \"#utility.yul\":657:1376   */\n      swap3\n      swap2\n      pop\n      pop\n      jump\t// out\n        /* \"#utility.yul\":1381:1531   */\n    tag_180:\n        /* \"#utility.yul\":1456:1476   */\n      dup1\n      calldataload\n        /* \"#utility.yul\":1505:1506   */\n      0x06\n        /* \"#utility.yul\":1495:1507   */\n      dup2\n      lt\n        /* \"#utility.yul\":1485:1525   */\n      tag_204\n      jumpi\n        /* \"#utility.yul\":1521:1522   */\n      0x00\n        /* \"#utility.yul\":1518:1519   */\n      dup1\n        /* \"#utility.yul\":1511:1523   */\n      revert\n        /* \"#utility.yul\":1485:1525   */\n    tag_204:\n        /* \"#utility.yul\":1381:1531   */\n      swap2\n      swap1\n      pop\n      jump\t// out\n        /* \"#utility.yul\":1536:2720   */\n    tag_181:\n        /* \"#utility.yul\":1599:1604   */\n      0x00\n        /* \"#utility.yul\":1647:1651   */\n      0xc0\n        /* \"#utility.yul\":1635:1644   */\n      dup3\n        /* \"#utility.yul\":1630:1633   */\n      dup5\n        /* \"#utility.yul\":1626:1645   */\n      sub\n        /* \"#utility.yul\":1622:1652   */\n      slt\n        /* \"#utility.yul\":1619:1669   */\n      iszero\n      tag_206\n      jumpi\n        /* \"#utility.yul\":1665:1666   */\n      0x00\n        /* \"#utility.yul\":1662:1663   */\n      dup1\n        /* \"#utility.yul\":1655:1667   */\n      revert\n        /* \"#utility.yul\":1619:1669   */\n    tag_206:\n        /* \"#utility.yul\":1687:1704   */\n      tag_207\n      tag_177\n      jump\t// in\n    tag_207:\n        /* \"#utility.yul\":1678:1704   */\n      swap1\n      pop\n        /* \"#utility.yul\":1740:1749   */\n      dup2\n        /* \"#utility.yul\":1727:1750   */\n      calldataload\n        /* \"#utility.yul\":1769:1787   */\n      0xffffffffffffffff\n        /* \"#utility.yul\":1810:1812   */\n      dup1\n        /* \"#utility.yul\":1802:1808   */\n      dup3\n        /* \"#utility.yul\":1799:1813   */\n      gt\n        /* \"#utility.yul\":1796:1830   */\n      iszero\n      tag_208\n      jumpi\n        /* \"#utility.yul\":1826:1827   */\n      0x00\n        /* \"#utility.yul\":1823:1824   */\n      dup1\n        /* \"#utility.yul\":1816:1828   */\n      revert\n        /* \"#utility.yul\":1796:1830   */\n    tag_208:\n        /* \"#utility.yul\":1853:1899   */\n      tag_209\n        /* \"#utility.yul\":1895:1898   */\n      dup6\n        /* \"#utility.yul\":1886:1892   */\n      dup4\n        /* \"#utility.yul\":1875:1884   */\n      dup7\n        /* \"#utility.yul\":1871:1893   */\n      add\n        /* \"#utility.yul\":1853:1899   */\n      tag_179\n      jump\t// in\n    tag_209:\n        /* \"#utility.yul\":1846:1851   */\n      dup4\n        /* \"#utility.yul\":1839:1900   */\n      mstore\n        /* \"#utility.yul\":1953:1955   */\n      0x20\n        /* \"#utility.yul\":1942:1951   */\n      dup5\n        /* \"#utility.yul\":1938:1956   */\n      add\n        /* \"#utility.yul\":1925:1957   */\n      calldataload\n        /* \"#utility.yul\":1909:1957   */\n      swap2\n      pop\n        /* \"#utility.yul\":1982:1984   */\n      dup1\n        /* \"#utility.yul\":1972:1980   */\n      dup3\n        /* \"#utility.yul\":1969:1985   */\n      gt\n        /* \"#utility.yul\":1966:2002   */\n      iszero\n      tag_210\n      jumpi\n        /* \"#utility.yul\":1998:1999   */\n      0x00\n        /* \"#utility.yul\":1995:1996   */\n      dup1\n        /* \"#utility.yul\":1988:2000   */\n      revert\n        /* \"#utility.yul\":1966:2002   */\n    tag_210:\n        /* \"#utility.yul\":2034:2082   */\n      tag_211\n        /* \"#utility.yul\":2078:2081   */\n      dup6\n        /* \"#utility.yul\":2067:2075   */\n      dup4\n        /* \"#utility.yul\":2056:2065   */\n      dup7\n        /* \"#utility.yul\":2052:2076   */\n      add\n        /* \"#utility.yul\":2034:2082   */\n      tag_179\n      jump\t// in\n    tag_211:\n        /* \"#utility.yul\":2029:2031   */\n      0x20\n        /* \"#utility.yul\":2022:2027   */\n      dup5\n        /* \"#utility.yul\":2018:2032   */\n      add\n        /* \"#utility.yul\":2011:2083   */\n      mstore\n        /* \"#utility.yul\":2115:2160   */\n      tag_212\n        /* \"#utility.yul\":2156:2158   */\n      0x40\n        /* \"#utility.yul\":2145:2154   */\n      dup6\n        /* \"#utility.yul\":2141:2159   */\n      add\n        /* \"#utility.yul\":2115:2160   */\n      tag_180\n      jump\t// in\n    tag_212:\n        /* \"#utility.yul\":2110:2112   */\n      0x40\n        /* \"#utility.yul\":2103:2108   */\n      dup5\n        /* \"#utility.yul\":2099:2113   */\n      add\n        /* \"#utility.yul\":2092:2161   */\n      mstore\n        /* \"#utility.yul\":2214:2216   */\n      0x60\n        /* \"#utility.yul\":2203:2212   */\n      dup5\n        /* \"#utility.yul\":2199:2217   */\n      add\n        /* \"#utility.yul\":2186:2218   */\n      calldataload\n        /* \"#utility.yul\":2170:2218   */\n      swap2\n      pop\n        /* \"#utility.yul\":2243:2245   */\n      dup1\n        /* \"#utility.yul\":2233:2241   */\n      dup3\n        /* \"#utility.yul\":2230:2246   */\n      gt\n        /* \"#utility.yul\":2227:2263   */\n      iszero\n      tag_213\n      jumpi\n        /* \"#utility.yul\":2259:2260   */\n      0x00\n        /* \"#utility.yul\":2256:2257   */\n      dup1\n        /* \"#utility.yul\":2249:2261   */\n      revert\n        /* \"#utility.yul\":2227:2263   */\n    tag_213:\n        /* \"#utility.yul\":2295:2343   */\n      tag_214\n        /* \"#utility.yul\":2339:2342   */\n      dup6\n        /* \"#utility.yul\":2328:2336   */\n      dup4\n        /* \"#utility.yul\":2317:2326   */\n      dup7\n        /* \"#utility.yul\":2313:2337   */\n      add\n        /* \"#utility.yul\":2295:2343   */\n      tag_179\n      jump\t// in\n    tag_214:\n        /* \"#utility.yul\":2290:2292   */\n      0x60\n        /* \"#utility.yul\":2283:2288   */\n      dup5\n        /* \"#utility.yul\":2279:2293   */\n      add\n        /* \"#utility.yul\":2272:2344   */\n      mstore\n        /* \"#utility.yul\":2397:2400   */\n      0x80\n        /* \"#utility.yul\":2386:2395   */\n      dup5\n        /* \"#utility.yul\":2382:2401   */\n      add\n        /* \"#utility.yul\":2369:2402   */\n      calldataload\n        /* \"#utility.yul\":2353:2402   */\n      swap2\n      pop\n        /* \"#utility.yul\":2427:2429   */\n      dup1\n        /* \"#utility.yul\":2417:2425   */\n      dup3\n        /* \"#utility.yul\":2414:2430   */\n      gt\n        /* \"#utility.yul\":2411:2447   */\n      iszero\n      tag_215\n      jumpi\n        /* \"#utility.yul\":2443:2444   */\n      0x00\n        /* \"#utility.yul\":2440:2441   */\n      dup1\n        /* \"#utility.yul\":2433:2445   */\n      revert\n        /* \"#utility.yul\":2411:2447   */\n    tag_215:\n        /* \"#utility.yul\":2480:2528   */\n      tag_216\n        /* \"#utility.yul\":2524:2527   */\n      dup6\n        /* \"#utility.yul\":2513:2521   */\n      dup4\n        /* \"#utility.yul\":2502:2511   */\n      dup7\n        /* \"#utility.yul\":2498:2522   */\n      add\n        /* \"#utility.yul\":2480:2528   */\n      tag_179\n      jump\t// in\n    tag_216:\n        /* \"#utility.yul\":2474:2477   */\n      0x80\n        /* \"#utility.yul\":2467:2472   */\n      dup5\n        /* \"#utility.yul\":2463:2478   */\n      add\n        /* \"#utility.yul\":2456:2529   */\n      mstore\n        /* \"#utility.yul\":2582:2585   */\n      0xa0\n        /* \"#utility.yul\":2571:2580   */\n      dup5\n        /* \"#utility.yul\":2567:2586   */\n      add\n        /* \"#utility.yul\":2554:2587   */\n      calldataload\n        /* \"#utility.yul\":2538:2587   */\n      swap2\n      pop\n        /* \"#utility.yul\":2612:2614   */\n      dup1\n        /* \"#utility.yul\":2602:2610   */\n      dup3\n        /* \"#utility.yul\":2599:2615   */\n      gt\n        /* \"#utility.yul\":2596:2632   */\n      iszero\n      tag_217\n      jumpi\n        /* \"#utility.yul\":2628:2629   */\n      0x00\n        /* \"#utility.yul\":2625:2626   */\n      dup1\n        /* \"#utility.yul\":2618:2630   */\n      revert\n        /* \"#utility.yul\":2596:2632   */\n    tag_217:\n      pop\n        /* \"#utility.yul\":2665:2713   */\n      tag_218\n        /* \"#utility.yul\":2709:2712   */\n      dup5\n        /* \"#utility.yul\":2698:2706   */\n      dup3\n        /* \"#utility.yul\":2687:2696   */\n      dup6\n        /* \"#utility.yul\":2683:2707   */\n      add\n        /* \"#utility.yul\":2665:2713   */\n      tag_179\n      jump\t// in\n    tag_218:\n        /* \"#utility.yul\":2659:2662   */\n      0xa0\n        /* \"#utility.yul\":2652:2657   */\n      dup4\n        /* \"#utility.yul\":2648:2663   */\n      add\n        /* \"#utility.yul\":2641:2714   */\n      mstore\n      pop\n        /* \"#utility.yul\":1536:2720   */\n      swap3\n      swap2\n      pop\n      pop\n      jump\t// out\n        /* \"#utility.yul\":2725:3156   */\n    tag_18:\n        /* \"#utility.yul\":2827:2833   */\n      0x00\n        /* \"#utility.yul\":2835:2841   */\n      dup1\n        /* \"#utility.yul\":2888:2890   */\n      0x40\n        /* \"#utility.yul\":2876:2885   */\n      dup4\n        /* \"#utility.yul\":2867:2874   */\n      dup6\n        /* \"#utility.yul\":2863:2886   */\n      sub\n        /* \"#utility.yul\":2859:2891   */\n      slt\n        /* \"#utility.yul\":2856:2908   */\n      iszero\n      tag_220\n      jumpi\n        /* \"#utility.yul\":2904:2905   */\n      0x00\n        /* \"#utility.yul\":2901:2902   */\n      dup1\n        /* \"#utility.yul\":2894:2906   */\n      revert\n        /* \"#utility.yul\":2856:2908   */\n    tag_220:\n        /* \"#utility.yul\":2940:2949   */\n      dup3\n        /* \"#utility.yul\":2927:2950   */\n      calldataload\n        /* \"#utility.yul\":2917:2950   */\n      swap2\n      pop\n        /* \"#utility.yul\":3001:3003   */\n      0x20\n        /* \"#utility.yul\":2990:2999   */\n      dup4\n        /* \"#utility.yul\":2986:3004   */\n      add\n        /* \"#utility.yul\":2973:3005   */\n      calldataload\n        /* \"#utility.yul\":3028:3046   */\n      0xffffffffffffffff\n        /* \"#utility.yul\":3020:3026   */\n      dup2\n        /* \"#utility.yul\":3017:3047   */\n      gt\n        /* \"#utility.yul\":3014:3064   */\n      iszero\n      tag_221\n      jumpi\n        /* \"#utility.yul\":3060:3061   */\n      0x00\n        /* \"#utility.yul\":3057:3058   */\n      dup1\n        /* \"#utility.yul\":3050:3062   */\n      revert\n        /* \"#utility.yul\":3014:3064   */\n    tag_221:\n        /* \"#utility.yul\":3083:3150   */\n      tag_222\n        /* \"#utility.yul\":3142:3149   */\n      dup6\n        /* \"#utility.yul\":3133:3139   */\n      dup3\n        /* \"#utility.yul\":3122:3131   */\n      dup7\n        /* \"#utility.yul\":3118:3140   */\n      add\n        /* \"#utility.yul\":3083:3150   */\n      tag_181\n      jump\t// in\n    tag_222:\n        /* \"#utility.yul\":3073:3150   */\n      swap2\n      pop\n      pop\n        /* \"#utility.yul\":2725:3156   */\n      swap3\n      pop\n      swap3\n      swap1\n      pop\n      jump\t// out\n        /* \"#utility.yul\":3161:3411   */\n    tag_182:\n        /* \"#utility.yul\":3246:3247   */\n      0x00\n        /* \"#utility.yul\":3256:3369   */\n    tag_224:\n        /* \"#utility.yul\":3270:3276   */\n      dup4\n        /* \"#utility.yul\":3267:3268   */\n      dup2\n        /* \"#utility.yul\":3264:3277   */\n      lt\n        /* \"#utility.yul\":3256:3369   */\n      iszero\n      tag_226\n      jumpi\n        /* \"#utility.yul\":3346:3357   */\n      dup2\n      dup2\n      add\n        /* \"#utility.yul\":3340:3358   */\n      mload\n        /* \"#utility.yul\":3327:3338   */\n      dup4\n      dup3\n      add\n        /* \"#utility.yul\":3320:3359   */\n      mstore\n        /* \"#utility.yul\":3292:3294   */\n      0x20\n        /* \"#utility.yul\":3285:3295   */\n      add\n        /* \"#utility.yul\":3256:3369   */\n      jump(tag_224)\n    tag_226:\n      pop\n      pop\n        /* \"#utility.yul\":3403:3404   */\n      0x00\n        /* \"#utility.yul\":3385:3401   */\n      swap2\n      add\n        /* \"#utility.yul\":3378:3405   */\n      mstore\n        /* \"#utility.yul\":3161:3411   */\n      jump\t// out\n        /* \"#utility.yul\":3416:3812   */\n    tag_21:\n        /* \"#utility.yul\":3565:3567   */\n      0x20\n        /* \"#utility.yul\":3554:3563   */\n      dup2\n        /* \"#utility.yul\":3547:3568   */\n      mstore\n        /* \"#utility.yul\":3528:3532   */\n      0x00\n        /* \"#utility.yul\":3597:3603   */\n      dup3\n        /* \"#utility.yul\":3591:3604   */\n      mload\n        /* \"#utility.yul\":3640:3646   */\n      dup1\n        /* \"#utility.yul\":3635:3637   */\n      0x20\n        /* \"#utility.yul\":3624:3633   */\n      dup5\n        /* \"#utility.yul\":3620:3638   */\n      add\n        /* \"#utility.yul\":3613:3647   */\n      mstore\n        /* \"#utility.yul\":3656:3735   */\n      tag_228\n        /* \"#utility.yul\":3728:3734   */\n      dup2\n        /* \"#utility.yul\":3723:3725   */\n      0x40\n        /* \"#utility.yul\":3712:3721   */\n      dup6\n        /* \"#utility.yul\":3708:3726   */\n      add\n        /* \"#utility.yul\":3703:3705   */\n      0x20\n        /* \"#utility.yul\":3695:3701   */\n      dup8\n        /* \"#utility.yul\":3691:3706   */\n      add\n        /* \"#utility.yul\":3656:3735   */\n      tag_182\n      jump\t// in\n    tag_228:\n        /* \"#utility.yul\":3796:3798   */\n      0x1f\n        /* \"#utility.yul\":3775:3790   */\n      add\n      not(0x1f)\n        /* \"#utility.yul\":3771:3800   */\n      and\n        /* \"#utility.yul\":3756:3801   */\n      swap2\n      swap1\n      swap2\n      add\n        /* \"#utility.yul\":3803:3805   */\n      0x40\n        /* \"#utility.yul\":3752:3806   */\n      add\n      swap3\n        /* \"#utility.yul\":3416:3812   */\n      swap2\n      pop\n      pop\n      jump\t// out\n        /* \"#utility.yul\":3817:4409   */\n    tag_31:\n        /* \"#utility.yul\":3888:3894   */\n      0x00\n        /* \"#utility.yul\":3896:3902   */\n      dup1\n        /* \"#utility.yul\":3949:3951   */\n      0x20\n        /* \"#utility.yul\":3937:3946   */\n      dup4\n        /* \"#utility.yul\":3928:3935   */\n      dup6\n        /* \"#utility.yul\":3924:3947   */\n      sub\n        /* \"#utility.yul\":3920:3952   */\n      slt\n        /* \"#utility.yul\":3917:3969   */\n      iszero\n      tag_230\n      jumpi\n        /* \"#utility.yul\":3965:3966   */\n      0x00\n        /* \"#utility.yul\":3962:3963   */\n      dup1\n        /* \"#utility.yul\":3955:3967   */\n      revert\n        /* \"#utility.yul\":3917:3969   */\n    tag_230:\n        /* \"#utility.yul\":4005:4014   */\n      dup3\n        /* \"#utility.yul\":3992:4015   */\n      calldataload\n        /* \"#utility.yul\":4034:4052   */\n      0xffffffffffffffff\n        /* \"#utility.yul\":4075:4077   */\n      dup1\n        /* \"#utility.yul\":4067:4073   */\n      dup3\n        /* \"#utility.yul\":4064:4078   */\n      gt\n        /* \"#utility.yul\":4061:4095   */\n      iszero\n      tag_231\n      jumpi\n        /* \"#utility.yul\":4091:4092   */\n      0x00\n        /* \"#utility.yul\":4088:4089   */\n      dup1\n        /* \"#utility.yul\":4081:4093   */\n      revert\n        /* \"#utility.yul\":4061:4095   */\n    tag_231:\n        /* \"#utility.yul\":4129:4135   */\n      dup2\n        /* \"#utility.yul\":4118:4127   */\n      dup6\n        /* \"#utility.yul\":4114:4136   */\n      add\n        /* \"#utility.yul\":4104:4136   */\n      swap2\n      pop\n        /* \"#utility.yul\":4174:4181   */\n      dup6\n        /* \"#utility.yul\":4167:4171   */\n      0x1f\n        /* \"#utility.yul\":4163:4165   */\n      dup4\n        /* \"#utility.yul\":4159:4172   */\n      add\n        /* \"#utility.yul\":4155:4182   */\n      slt\n        /* \"#utility.yul\":4145:4200   */\n      tag_232\n      jumpi\n        /* \"#utility.yul\":4196:4197   */\n      0x00\n        /* \"#utility.yul\":4193:4194   */\n      dup1\n        /* \"#utility.yul\":4186:4198   */\n      revert\n        /* \"#utility.yul\":4145:4200   */\n    tag_232:\n        /* \"#utility.yul\":4236:4238   */\n      dup2\n        /* \"#utility.yul\":4223:4239   */\n      calldataload\n        /* \"#utility.yul\":4262:4264   */\n      dup2\n        /* \"#utility.yul\":4254:4260   */\n      dup2\n        /* \"#utility.yul\":4251:4265   */\n      gt\n        /* \"#utility.yul\":4248:4282   */\n      iszero\n      tag_233\n      jumpi\n        /* \"#utility.yul\":4278:4279   */\n      0x00\n        /* \"#utility.yul\":4275:4276   */\n      dup1\n        /* \"#utility.yul\":4268:4280   */\n      revert\n        /* \"#utility.yul\":4248:4282   */\n    tag_233:\n        /* \"#utility.yul\":4323:4330   */\n      dup7\n        /* \"#utility.yul\":4318:4320   */\n      0x20\n        /* \"#utility.yul\":4309:4315   */\n      dup3\n        /* \"#utility.yul\":4305:4307   */\n      dup6\n        /* \"#utility.yul\":4301:4316   */\n      add\n        /* \"#utility.yul\":4297:4321   */\n      add\n        /* \"#utility.yul\":4294:4331   */\n      gt\n        /* \"#utility.yul\":4291:4348   */\n      iszero\n      tag_234\n      jumpi\n        /* \"#utility.yul\":4344:4345   */\n      0x00\n        /* \"#utility.yul\":4341:4342   */\n      dup1\n        /* \"#utility.yul\":4334:4346   */\n      revert\n        /* \"#utility.yul\":4291:4348   */\n    tag_234:\n        /* \"#utility.yul\":4375:4377   */\n      0x20\n        /* \"#utility.yul\":4367:4378   */\n      swap3\n      swap1\n      swap3\n      add\n      swap7\n        /* \"#utility.yul\":4397:4403   */\n      swap2\n      swap6\n      pop\n        /* \"#utility.yul\":3817:4409   */\n      swap1\n      swap4\n      pop\n      pop\n      pop\n      pop\n      jump\t// out\n        /* \"#utility.yul\":4622:5757   */\n    tag_44:\n        /* \"#utility.yul\":4713:4719   */\n      0x00\n        /* \"#utility.yul\":4766:4768   */\n      0x20\n        /* \"#utility.yul\":4754:4763   */\n      dup3\n        /* \"#utility.yul\":4745:4752   */\n      dup5\n        /* \"#utility.yul\":4741:4764   */\n      sub\n        /* \"#utility.yul\":4737:4769   */\n      slt\n        /* \"#utility.yul\":4734:4786   */\n      iszero\n      tag_237\n      jumpi\n        /* \"#utility.yul\":4782:4783   */\n      0x00\n        /* \"#utility.yul\":4779:4780   */\n      dup1\n        /* \"#utility.yul\":4772:4784   */\n      revert\n        /* \"#utility.yul\":4734:4786   */\n    tag_237:\n        /* \"#utility.yul\":4822:4831   */\n      dup2\n        /* \"#utility.yul\":4809:4832   */\n      calldataload\n        /* \"#utility.yul\":4851:4869   */\n      0xffffffffffffffff\n        /* \"#utility.yul\":4892:4894   */\n      dup1\n        /* \"#utility.yul\":4884:4890   */\n      dup3\n        /* \"#utility.yul\":4881:4895   */\n      gt\n        /* \"#utility.yul\":4878:4912   */\n      iszero\n      tag_238\n      jumpi\n        /* \"#utility.yul\":4908:4909   */\n      0x00\n        /* \"#utility.yul\":4905:4906   */\n      dup1\n        /* \"#utility.yul\":4898:4910   */\n      revert\n        /* \"#utility.yul\":4878:4912   */\n    tag_238:\n        /* \"#utility.yul\":4931:4953   */\n      swap1\n      dup4\n      add\n      swap1\n        /* \"#utility.yul\":4987:4991   */\n      0x80\n        /* \"#utility.yul\":4969:4985   */\n      dup3\n      dup7\n      sub\n        /* \"#utility.yul\":4965:4992   */\n      slt\n        /* \"#utility.yul\":4962:5009   */\n      iszero\n      tag_239\n      jumpi\n        /* \"#utility.yul\":5005:5006   */\n      0x00\n        /* \"#utility.yul\":5002:5003   */\n      dup1\n        /* \"#utility.yul\":4995:5007   */\n      revert\n        /* \"#utility.yul\":4962:5009   */\n    tag_239:\n        /* \"#utility.yul\":5031:5053   */\n      tag_240\n      tag_178\n      jump\t// in\n    tag_240:\n        /* \"#utility.yul\":5091:5093   */\n      dup3\n        /* \"#utility.yul\":5078:5094   */\n      calldataload\n        /* \"#utility.yul\":5119:5121   */\n      dup3\n        /* \"#utility.yul\":5109:5117   */\n      dup2\n        /* \"#utility.yul\":5106:5122   */\n      gt\n        /* \"#utility.yul\":5103:5139   */\n      iszero\n      tag_241\n      jumpi\n        /* \"#utility.yul\":5135:5136   */\n      0x00\n        /* \"#utility.yul\":5132:5133   */\n      dup1\n        /* \"#utility.yul\":5125:5137   */\n      revert\n        /* \"#utility.yul\":5103:5139   */\n    tag_241:\n        /* \"#utility.yul\":5162:5207   */\n      tag_242\n        /* \"#utility.yul\":5199:5206   */\n      dup8\n        /* \"#utility.yul\":5188:5196   */\n      dup3\n        /* \"#utility.yul\":5184:5186   */\n      dup7\n        /* \"#utility.yul\":5180:5197   */\n      add\n        /* \"#utility.yul\":5162:5207   */\n      tag_179\n      jump\t// in\n    tag_242:\n        /* \"#utility.yul\":5155:5160   */\n      dup3\n        /* \"#utility.yul\":5148:5208   */\n      mstore\n      pop\n        /* \"#utility.yul\":5254:5256   */\n      0x20\n        /* \"#utility.yul\":5250:5252   */\n      dup4\n        /* \"#utility.yul\":5246:5257   */\n      add\n        /* \"#utility.yul\":5233:5258   */\n      calldataload\n        /* \"#utility.yul\":5283:5285   */\n      dup3\n        /* \"#utility.yul\":5273:5281   */\n      dup2\n        /* \"#utility.yul\":5270:5286   */\n      gt\n        /* \"#utility.yul\":5267:5303   */\n      iszero\n      tag_243\n      jumpi\n        /* \"#utility.yul\":5299:5300   */\n      0x00\n        /* \"#utility.yul\":5296:5297   */\n      dup1\n        /* \"#utility.yul\":5289:5301   */\n      revert\n        /* \"#utility.yul\":5267:5303   */\n    tag_243:\n        /* \"#utility.yul\":5335:5380   */\n      tag_244\n        /* \"#utility.yul\":5372:5379   */\n      dup8\n        /* \"#utility.yul\":5361:5369   */\n      dup3\n        /* \"#utility.yul\":5357:5359   */\n      dup7\n        /* \"#utility.yul\":5353:5370   */\n      add\n        /* \"#utility.yul\":5335:5380   */\n      tag_179\n      jump\t// in\n    tag_244:\n        /* \"#utility.yul\":5330:5332   */\n      0x20\n        /* \"#utility.yul\":5323:5328   */\n      dup4\n        /* \"#utility.yul\":5319:5333   */\n      add\n        /* \"#utility.yul\":5312:5381   */\n      mstore\n      pop\n        /* \"#utility.yul\":5427:5429   */\n      0x40\n        /* \"#utility.yul\":5423:5425   */\n      dup4\n        /* \"#utility.yul\":5419:5430   */\n      add\n        /* \"#utility.yul\":5406:5431   */\n      calldataload\n        /* \"#utility.yul\":5456:5458   */\n      dup3\n        /* \"#utility.yul\":5446:5454   */\n      dup2\n        /* \"#utility.yul\":5443:5459   */\n      gt\n        /* \"#utility.yul\":5440:5476   */\n      iszero\n      tag_245\n      jumpi\n        /* \"#utility.yul\":5472:5473   */\n      0x00\n        /* \"#utility.yul\":5469:5470   */\n      dup1\n        /* \"#utility.yul\":5462:5474   */\n      revert\n        /* \"#utility.yul\":5440:5476   */\n    tag_245:\n        /* \"#utility.yul\":5508:5553   */\n      tag_246\n        /* \"#utility.yul\":5545:5552   */\n      dup8\n        /* \"#utility.yul\":5534:5542   */\n      dup3\n        /* \"#utility.yul\":5530:5532   */\n      dup7\n        /* \"#utility.yul\":5526:5543   */\n      add\n        /* \"#utility.yul\":5508:5553   */\n      tag_179\n      jump\t// in\n    tag_246:\n        /* \"#utility.yul\":5503:5505   */\n      0x40\n        /* \"#utility.yul\":5496:5501   */\n      dup4\n        /* \"#utility.yul\":5492:5506   */\n      add\n        /* \"#utility.yul\":5485:5554   */\n      mstore\n      pop\n        /* \"#utility.yul\":5600:5602   */\n      0x60\n        /* \"#utility.yul\":5596:5598   */\n      dup4\n        /* \"#utility.yul\":5592:5603   */\n      add\n        /* \"#utility.yul\":5579:5604   */\n      calldataload\n        /* \"#utility.yul\":5629:5631   */\n      dup3\n        /* \"#utility.yul\":5619:5627   */\n      dup2\n        /* \"#utility.yul\":5616:5632   */\n      gt\n        /* \"#utility.yul\":5613:5649   */\n      iszero\n      tag_247\n      jumpi\n        /* \"#utility.yul\":5645:5646   */\n      0x00\n        /* \"#utility.yul\":5642:5643   */\n      dup1\n        /* \"#utility.yul\":5635:5647   */\n      revert\n        /* \"#utility.yul\":5613:5649   */\n    tag_247:\n        /* \"#utility.yul\":5681:5726   */\n      tag_248\n        /* \"#utility.yul\":5718:5725   */\n      dup8\n        /* \"#utility.yul\":5707:5715   */\n      dup3\n        /* \"#utility.yul\":5703:5705   */\n      dup7\n        /* \"#utility.yul\":5699:5716   */\n      add\n        /* \"#utility.yul\":5681:5726   */\n      tag_179\n      jump\t// in\n    tag_248:\n        /* \"#utility.yul\":5676:5678   */\n      0x60\n        /* \"#utility.yul\":5665:5679   */\n      dup4\n      add\n        /* \"#utility.yul\":5658:5727   */\n      mstore\n      pop\n        /* \"#utility.yul\":5669:5674   */\n      swap6\n        /* \"#utility.yul\":4622:5757   */\n      swap5\n      pop\n      pop\n      pop\n      pop\n      pop\n      jump\t// out\n        /* \"#utility.yul\":5954:6538   */\n    tag_55:\n        /* \"#utility.yul\":6066:6072   */\n      0x00\n        /* \"#utility.yul\":6074:6080   */\n      dup1\n        /* \"#utility.yul\":6127:6129   */\n      0x40\n        /* \"#utility.yul\":6115:6124   */\n      dup4\n        /* \"#utility.yul\":6106:6113   */\n      dup6\n        /* \"#utility.yul\":6102:6125   */\n      sub\n        /* \"#utility.yul\":6098:6130   */\n      slt\n        /* \"#utility.yul\":6095:6147   */\n      iszero\n      tag_251\n      jumpi\n        /* \"#utility.yul\":6143:6144   */\n      0x00\n        /* \"#utility.yul\":6140:6141   */\n      dup1\n        /* \"#utility.yul\":6133:6145   */\n      revert\n        /* \"#utility.yul\":6095:6147   */\n    tag_251:\n        /* \"#utility.yul\":6183:6192   */\n      dup3\n        /* \"#utility.yul\":6170:6193   */\n      calldataload\n        /* \"#utility.yul\":6212:6230   */\n      0xffffffffffffffff\n        /* \"#utility.yul\":6253:6255   */\n      dup1\n        /* \"#utility.yul\":6245:6251   */\n      dup3\n        /* \"#utility.yul\":6242:6256   */\n      gt\n        /* \"#utility.yul\":6239:6273   */\n      iszero\n      tag_252\n      jumpi\n        /* \"#utility.yul\":6269:6270   */\n      0x00\n        /* \"#utility.yul\":6266:6267   */\n      dup1\n        /* \"#utility.yul\":6259:6271   */\n      revert\n        /* \"#utility.yul\":6239:6273   */\n    tag_252:\n        /* \"#utility.yul\":6292:6342   */\n      tag_253\n        /* \"#utility.yul\":6334:6341   */\n      dup7\n        /* \"#utility.yul\":6325:6331   */\n      dup4\n        /* \"#utility.yul\":6314:6323   */\n      dup8\n        /* \"#utility.yul\":6310:6332   */\n      add\n        /* \"#utility.yul\":6292:6342   */\n      tag_179\n      jump\t// in\n    tag_253:\n        /* \"#utility.yul\":6282:6342   */\n      swap4\n      pop\n        /* \"#utility.yul\":6395:6397   */\n      0x20\n        /* \"#utility.yul\":6384:6393   */\n      dup6\n        /* \"#utility.yul\":6380:6398   */\n      add\n        /* \"#utility.yul\":6367:6399   */\n      calldataload\n        /* \"#utility.yul\":6351:6399   */\n      swap2\n      pop\n        /* \"#utility.yul\":6424:6426   */\n      dup1\n        /* \"#utility.yul\":6414:6422   */\n      dup3\n        /* \"#utility.yul\":6411:6427   */\n      gt\n        /* \"#utility.yul\":6408:6444   */\n      iszero\n      tag_254\n      jumpi\n        /* \"#utility.yul\":6440:6441   */\n      0x00\n        /* \"#utility.yul\":6437:6438   */\n      dup1\n        /* \"#utility.yul\":6430:6442   */\n      revert\n        /* \"#utility.yul\":6408:6444   */\n    tag_254:\n      pop\n        /* \"#utility.yul\":6463:6532   */\n      tag_222\n        /* \"#utility.yul\":6524:6531   */\n      dup6\n        /* \"#utility.yul\":6513:6521   */\n      dup3\n        /* \"#utility.yul\":6502:6511   */\n      dup7\n        /* \"#utility.yul\":6498:6522   */\n      add\n        /* \"#utility.yul\":6463:6532   */\n      tag_181\n      jump\t// in\n        /* \"#utility.yul\":6543:6829   */\n    tag_60:\n        /* \"#utility.yul\":6602:6608   */\n      0x00\n        /* \"#utility.yul\":6655:6657   */\n      0x20\n        /* \"#utility.yul\":6643:6652   */\n      dup3\n        /* \"#utility.yul\":6634:6641   */\n      dup5\n        /* \"#utility.yul\":6630:6653   */\n      sub\n        /* \"#utility.yul\":6626:6658   */\n      slt\n        /* \"#utility.yul\":6623:6675   */\n      iszero\n      tag_257\n      jumpi\n        /* \"#utility.yul\":6671:6672   */\n      0x00\n        /* \"#utility.yul\":6668:6669   */\n      dup1\n        /* \"#utility.yul\":6661:6673   */\n      revert\n        /* \"#utility.yul\":6623:6675   */\n    tag_257:\n        /* \"#utility.yul\":6697:6720   */\n      dup2\n      calldataload\n      sub(shl(0xa0, 0x01), 0x01)\n        /* \"#utility.yul\":6749:6780   */\n      dup2\n      and\n        /* \"#utility.yul\":6739:6781   */\n      dup2\n      eq\n        /* \"#utility.yul\":6729:6799   */\n      tag_258\n      jumpi\n        /* \"#utility.yul\":6795:6796   */\n      0x00\n        /* \"#utility.yul\":6792:6793   */\n      dup1\n        /* \"#utility.yul\":6785:6797   */\n      revert\n        /* \"#utility.yul\":6729:6799   */\n    tag_258:\n        /* \"#utility.yul\":6818:6823   */\n      swap4\n        /* \"#utility.yul\":6543:6829   */\n      swap3\n      pop\n      pop\n      pop\n      jump\t// out\n        /* \"#utility.yul\":6834:7214   */\n    tag_75:\n        /* \"#utility.yul\":6913:6914   */\n      0x01\n        /* \"#utility.yul\":6909:6921   */\n      dup2\n      dup2\n      shr\n      swap1\n        /* \"#utility.yul\":6956:6968   */\n      dup3\n      and\n      dup1\n        /* \"#utility.yul\":6977:7038   */\n      tag_260\n      jumpi\n        /* \"#utility.yul\":7031:7035   */\n      0x7f\n        /* \"#utility.yul\":7023:7029   */\n      dup3\n        /* \"#utility.yul\":7019:7036   */\n      and\n        /* \"#utility.yul\":7009:7036   */\n      swap2\n      pop\n        /* \"#utility.yul\":6977:7038   */\n    tag_260:\n        /* \"#utility.yul\":7084:7086   */\n      0x20\n        /* \"#utility.yul\":7076:7082   */\n      dup3\n        /* \"#utility.yul\":7073:7087   */\n      lt\n        /* \"#utility.yul\":7053:7071   */\n      dup2\n        /* \"#utility.yul\":7050:7088   */\n      sub\n        /* \"#utility.yul\":7047:7208   */\n      tag_261\n      jumpi\n        /* \"#utility.yul\":7130:7140   */\n      0x4e487b71\n        /* \"#utility.yul\":7125:7128   */\n      0xe0\n        /* \"#utility.yul\":7121:7141   */\n      shl\n        /* \"#utility.yul\":7118:7119   */\n      0x00\n        /* \"#utility.yul\":7111:7142   */\n      mstore\n        /* \"#utility.yul\":7165:7169   */\n      0x22\n        /* \"#utility.yul\":7162:7163   */\n      0x04\n        /* \"#utility.yul\":7155:7170   */\n      mstore\n        /* \"#utility.yul\":7193:7197   */\n      0x24\n        /* \"#utility.yul\":7190:7191   */\n      0x00\n        /* \"#utility.yul\":7183:7198   */\n      revert\n        /* \"#utility.yul\":7047:7208   */\n    tag_261:\n      pop\n        /* \"#utility.yul\":6834:7214   */\n      swap2\n      swap1\n      pop\n      jump\t// out\n        /* \"#utility.yul\":7345:8068   */\n    tag_184:\n        /* \"#utility.yul\":7395:7398   */\n      0x00\n        /* \"#utility.yul\":7436:7441   */\n      dup2\n        /* \"#utility.yul\":7430:7442   */\n      sload\n        /* \"#utility.yul\":7465:7501   */\n      tag_264\n        /* \"#utility.yul\":7491:7500   */\n      dup2\n        /* \"#utility.yul\":7465:7501   */\n      tag_75\n      jump\t// in\n    tag_264:\n        /* \"#utility.yul\":7520:7521   */\n      0x01\n        /* \"#utility.yul\":7537:7554   */\n      dup3\n      dup2\n      and\n        /* \"#utility.yul\":7563:7696   */\n      dup1\n      iszero\n      tag_266\n      jumpi\n        /* \"#utility.yul\":7710:7711   */\n      0x01\n        /* \"#utility.yul\":7705:8062   */\n      dup2\n      eq\n      tag_267\n      jumpi\n        /* \"#utility.yul\":7530:8062   */\n      jump(tag_265)\n        /* \"#utility.yul\":7563:7696   */\n    tag_266:\n      not(0xff)\n        /* \"#utility.yul\":7596:7620   */\n      dup5\n      and\n        /* \"#utility.yul\":7584:7621   */\n      dup8\n      mstore\n        /* \"#utility.yul\":7669:7683   */\n      dup3\n      iszero\n        /* \"#utility.yul\":7662:7684   */\n      iszero\n        /* \"#utility.yul\":7650:7685   */\n      dup4\n      mul\n        /* \"#utility.yul\":7641:7686   */\n      dup8\n      add\n      swap5\n      pop\n        /* \"#utility.yul\":7563:7696   */\n      jump(tag_265)\n        /* \"#utility.yul\":7705:8062   */\n    tag_267:\n        /* \"#utility.yul\":7736:7741   */\n      dup6\n        /* \"#utility.yul\":7733:7734   */\n      0x00\n        /* \"#utility.yul\":7726:7742   */\n      mstore\n        /* \"#utility.yul\":7765:7769   */\n      0x20\n        /* \"#utility.yul\":7810:7814   */\n      dup1\n        /* \"#utility.yul\":7807:7808   */\n      0x00\n        /* \"#utility.yul\":7797:7815   */\n      keccak256\n        /* \"#utility.yul\":7837:7838   */\n      0x00\n        /* \"#utility.yul\":7851:8016   */\n    tag_268:\n        /* \"#utility.yul\":7865:7871   */\n      dup6\n        /* \"#utility.yul\":7862:7863   */\n      dup2\n        /* \"#utility.yul\":7859:7872   */\n      lt\n        /* \"#utility.yul\":7851:8016   */\n      iszero\n      tag_270\n      jumpi\n        /* \"#utility.yul\":7943:7957   */\n      dup2\n      sload\n        /* \"#utility.yul\":7930:7941   */\n      dup11\n      dup3\n      add\n        /* \"#utility.yul\":7923:7958   */\n      mstore\n        /* \"#utility.yul\":7986:8002   */\n      swap1\n      dup5\n      add\n      swap1\n        /* \"#utility.yul\":7880:7890   */\n      dup3\n      add\n        /* \"#utility.yul\":7851:8016   */\n      jump(tag_268)\n    tag_270:\n        /* \"#utility.yul\":7855:7858   */\n      pop\n      pop\n      pop\n        /* \"#utility.yul\":8045:8051   */\n      dup3\n        /* \"#utility.yul\":8040:8043   */\n      dup8\n        /* \"#utility.yul\":8036:8052   */\n      add\n        /* \"#utility.yul\":8029:8052   */\n      swap5\n      pop\n        /* \"#utility.yul\":7530:8062   */\n    tag_265:\n      pop\n      pop\n      pop\n      pop\n        /* \"#utility.yul\":7345:8068   */\n      swap3\n      swap2\n      pop\n      pop\n      jump\t// out\n        /* \"#utility.yul\":8073:8603   */\n    tag_66:\n        /* \"#utility.yul\":8350:8353   */\n      0x00\n        /* \"#utility.yul\":8378:8416   */\n      tag_272\n        /* \"#utility.yul\":8412:8415   */\n      dup3\n        /* \"#utility.yul\":8404:8410   */\n      dup6\n        /* \"#utility.yul\":8378:8416   */\n      tag_184\n      jump\t// in\n    tag_272:\n      shl(0xfd, 0x01)\n        /* \"#utility.yul\":8432:8434   */\n      dup2\n        /* \"#utility.yul\":8425:8440   */\n      mstore\n        /* \"#utility.yul\":8469:8475   */\n      dup4\n        /* \"#utility.yul\":8463:8476   */\n      mload\n        /* \"#utility.yul\":8485:8558   */\n      tag_273\n        /* \"#utility.yul\":8551:8557   */\n      dup2\n        /* \"#utility.yul\":8547:8548   */\n      0x01\n        /* \"#utility.yul\":8543:8545   */\n      dup5\n        /* \"#utility.yul\":8539:8549   */\n      add\n        /* \"#utility.yul\":8532:8536   */\n      0x20\n        /* \"#utility.yul\":8524:8530   */\n      dup9\n        /* \"#utility.yul\":8520:8537   */\n      add\n        /* \"#utility.yul\":8485:8558   */\n      tag_182\n      jump\t// in\n    tag_273:\n        /* \"#utility.yul\":8578:8593   */\n      add\n        /* \"#utility.yul\":8595:8596   */\n      0x01\n        /* \"#utility.yul\":8574:8597   */\n      add\n      swap5\n        /* \"#utility.yul\":8073:8603   */\n      swap4\n      pop\n      pop\n      pop\n      pop\n      jump\t// out\n        /* \"#utility.yul\":8608:8997   */\n    tag_73:\n        /* \"#utility.yul\":8784:8787   */\n      0x00\n        /* \"#utility.yul\":8812:8850   */\n      tag_275\n        /* \"#utility.yul\":8846:8849   */\n      dup3\n        /* \"#utility.yul\":8838:8844   */\n      dup6\n        /* \"#utility.yul\":8812:8850   */\n      tag_184\n      jump\t// in\n    tag_275:\n        /* \"#utility.yul\":8879:8885   */\n      dup4\n        /* \"#utility.yul\":8873:8886   */\n      mload\n        /* \"#utility.yul\":8895:8960   */\n      tag_276\n        /* \"#utility.yul\":8953:8959   */\n      dup2\n        /* \"#utility.yul\":8949:8951   */\n      dup4\n        /* \"#utility.yul\":8942:8946   */\n      0x20\n        /* \"#utility.yul\":8934:8940   */\n      dup9\n        /* \"#utility.yul\":8930:8947   */\n      add\n        /* \"#utility.yul\":8895:8960   */\n      tag_182\n      jump\t// in\n    tag_276:\n        /* \"#utility.yul\":8976:8991   */\n      add\n      swap5\n        /* \"#utility.yul\":8608:8997   */\n      swap4\n      pop\n      pop\n      pop\n      pop\n      jump\t// out\n        /* \"#utility.yul\":9002:9520   */\n    tag_185:\n        /* \"#utility.yul\":9104:9106   */\n      0x1f\n        /* \"#utility.yul\":9099:9102   */\n      dup3\n        /* \"#utility.yul\":9096:9107   */\n      gt\n        /* \"#utility.yul\":9093:9514   */\n      iszero\n      tag_278\n      jumpi\n        /* \"#utility.yul\":9140:9145   */\n      dup1\n        /* \"#utility.yul\":9137:9138   */\n      0x00\n        /* \"#utility.yul\":9130:9146   */\n      mstore\n        /* \"#utility.yul\":9184:9188   */\n      0x20\n        /* \"#utility.yul\":9181:9182   */\n      0x00\n        /* \"#utility.yul\":9171:9189   */\n      keccak256\n        /* \"#utility.yul\":9254:9256   */\n      0x1f\n        /* \"#utility.yul\":9242:9252   */\n      dup5\n        /* \"#utility.yul\":9238:9257   */\n      add\n        /* \"#utility.yul\":9235:9236   */\n      0x05\n        /* \"#utility.yul\":9231:9258   */\n      shr\n        /* \"#utility.yul\":9225:9229   */\n      dup2\n        /* \"#utility.yul\":9221:9259   */\n      add\n        /* \"#utility.yul\":9290:9294   */\n      0x20\n        /* \"#utility.yul\":9278:9288   */\n      dup6\n        /* \"#utility.yul\":9275:9295   */\n      lt\n        /* \"#utility.yul\":9272:9319   */\n      iszero\n      tag_279\n      jumpi\n      pop\n        /* \"#utility.yul\":9313:9317   */\n      dup1\n        /* \"#utility.yul\":9272:9319   */\n    tag_279:\n        /* \"#utility.yul\":9368:9370   */\n      0x1f\n        /* \"#utility.yul\":9363:9366   */\n      dup5\n        /* \"#utility.yul\":9359:9371   */\n      add\n        /* \"#utility.yul\":9356:9357   */\n      0x05\n        /* \"#utility.yul\":9352:9372   */\n      shr\n        /* \"#utility.yul\":9346:9350   */\n      dup3\n        /* \"#utility.yul\":9342:9373   */\n      add\n        /* \"#utility.yul\":9332:9373   */\n      swap2\n      pop\n        /* \"#utility.yul\":9423:9504   */\n    tag_280:\n        /* \"#utility.yul\":9441:9443   */\n      dup2\n        /* \"#utility.yul\":9434:9439   */\n      dup2\n        /* \"#utility.yul\":9431:9444   */\n      lt\n        /* \"#utility.yul\":9423:9504   */\n      iszero\n      tag_282\n      jumpi\n        /* \"#utility.yul\":9500:9501   */\n      0x00\n        /* \"#utility.yul\":9486:9502   */\n      dup2\n      sstore\n        /* \"#utility.yul\":9467:9468   */\n      0x01\n        /* \"#utility.yul\":9456:9469   */\n      add\n        /* \"#utility.yul\":9423:9504   */\n      jump(tag_280)\n    tag_282:\n        /* \"#utility.yul\":9427:9430   */\n      pop\n      pop\n        /* \"#utility.yul\":9093:9514   */\n    tag_278:\n        /* \"#utility.yul\":9002:9520   */\n      pop\n      pop\n      pop\n      jump\t// out\n        /* \"#utility.yul\":9696:10894   */\n    tag_85:\n        /* \"#utility.yul\":9820:9838   */\n      0xffffffffffffffff\n        /* \"#utility.yul\":9815:9818   */\n      dup4\n        /* \"#utility.yul\":9812:9839   */\n      gt\n        /* \"#utility.yul\":9809:9862   */\n      iszero\n      tag_286\n      jumpi\n        /* \"#utility.yul\":9842:9860   */\n      tag_286\n      tag_123\n      jump\t// in\n    tag_286:\n        /* \"#utility.yul\":9871:9965   */\n      tag_287\n        /* \"#utility.yul\":9961:9964   */\n      dup4\n        /* \"#utility.yul\":9921:9959   */\n      tag_288\n        /* \"#utility.yul\":9953:9957   */\n      dup4\n        /* \"#utility.yul\":9947:9958   */\n      sload\n        /* \"#utility.yul\":9921:9959   */\n      tag_75\n      jump\t// in\n    tag_288:\n        /* \"#utility.yul\":9915:9919   */\n      dup4\n        /* \"#utility.yul\":9871:9965   */\n      tag_185\n      jump\t// in\n    tag_287:\n        /* \"#utility.yul\":9991:9992   */\n      0x00\n        /* \"#utility.yul\":10016:10018   */\n      0x1f\n        /* \"#utility.yul\":10011:10014   */\n      dup5\n        /* \"#utility.yul\":10008:10019   */\n      gt\n        /* \"#utility.yul\":10033:10034   */\n      0x01\n        /* \"#utility.yul\":10028:10636   */\n      dup2\n      eq\n      tag_290\n      jumpi\n        /* \"#utility.yul\":10680:10681   */\n      0x00\n        /* \"#utility.yul\":10697:10700   */\n      dup6\n        /* \"#utility.yul\":10694:10787   */\n      iszero\n      tag_291\n      jumpi\n      pop\n        /* \"#utility.yul\":10753:10772   */\n      dup4\n      dup3\n      add\n        /* \"#utility.yul\":10740:10773   */\n      calldataload\n        /* \"#utility.yul\":10694:10787   */\n    tag_291:\n      not(0x00)\n        /* \"#utility.yul\":9653:9654   */\n      0x03\n        /* \"#utility.yul\":9649:9660   */\n      dup8\n      swap1\n      shl\n        /* \"#utility.yul\":9645:9669   */\n      shr\n        /* \"#utility.yul\":9641:9670   */\n      not\n        /* \"#utility.yul\":9631:9671   */\n      and\n        /* \"#utility.yul\":9677:9678   */\n      0x01\n        /* \"#utility.yul\":9673:9684   */\n      dup7\n      swap1\n      shl\n        /* \"#utility.yul\":9628:9685   */\n      or\n        /* \"#utility.yul\":10800:10878   */\n      dup4\n      sstore\n        /* \"#utility.yul\":10001:10888   */\n      jump(tag_282)\n        /* \"#utility.yul\":10028:10636   */\n    tag_290:\n        /* \"#utility.yul\":7292:7293   */\n      0x00\n        /* \"#utility.yul\":7285:7299   */\n      dup4\n      dup2\n      mstore\n        /* \"#utility.yul\":7329:7333   */\n      0x20\n        /* \"#utility.yul\":7316:7334   */\n      dup2\n      keccak256\n      not(0x1f)\n        /* \"#utility.yul\":10064:10081   */\n      dup8\n      and\n      swap2\n        /* \"#utility.yul\":10179:10408   */\n    tag_294:\n        /* \"#utility.yul\":10193:10200   */\n      dup3\n        /* \"#utility.yul\":10190:10191   */\n      dup2\n        /* \"#utility.yul\":10187:10201   */\n      lt\n        /* \"#utility.yul\":10179:10408   */\n      iszero\n      tag_296\n      jumpi\n        /* \"#utility.yul\":10282:10301   */\n      dup7\n      dup6\n      add\n        /* \"#utility.yul\":10269:10302   */\n      calldataload\n        /* \"#utility.yul\":10254:10303   */\n      dup3\n      sstore\n        /* \"#utility.yul\":10389:10393   */\n      0x20\n        /* \"#utility.yul\":10374:10394   */\n      swap5\n      dup6\n      add\n      swap5\n        /* \"#utility.yul\":10342:10343   */\n      0x01\n        /* \"#utility.yul\":10330:10344   */\n      swap1\n      swap3\n      add\n      swap2\n        /* \"#utility.yul\":10209:10221   */\n      add\n        /* \"#utility.yul\":10179:10408   */\n      jump(tag_294)\n    tag_296:\n        /* \"#utility.yul\":10183:10186   */\n      pop\n        /* \"#utility.yul\":10436:10439   */\n      dup7\n        /* \"#utility.yul\":10427:10434   */\n      dup3\n        /* \"#utility.yul\":10424:10440   */\n      lt\n        /* \"#utility.yul\":10421:10580   */\n      iszero\n      tag_297\n      jumpi\n        /* \"#utility.yul\":10560:10561   */\n      0x00\n        /* \"#utility.yul\":10556:10562   */\n      not\n        /* \"#utility.yul\":10550:10553   */\n      0xf8\n        /* \"#utility.yul\":10544:10547   */\n      dup9\n        /* \"#utility.yul\":10541:10542   */\n      0x03\n        /* \"#utility.yul\":10537:10548   */\n      shl\n        /* \"#utility.yul\":10533:10554   */\n      and\n        /* \"#utility.yul\":10529:10563   */\n      shr\n        /* \"#utility.yul\":10525:10564   */\n      not\n        /* \"#utility.yul\":10512:10521   */\n      dup5\n        /* \"#utility.yul\":10507:10510   */\n      dup8\n        /* \"#utility.yul\":10503:10522   */\n      add\n        /* \"#utility.yul\":10490:10523   */\n      calldataload\n        /* \"#utility.yul\":10486:10565   */\n      and\n        /* \"#utility.yul\":10478:10484   */\n      dup2\n        /* \"#utility.yul\":10471:10566   */\n      sstore\n        /* \"#utility.yul\":10421:10580   */\n    tag_297:\n      pop\n      pop\n        /* \"#utility.yul\":10623:10624   */\n      0x01\n        /* \"#utility.yul\":10617:10620   */\n      dup6\n        /* \"#utility.yul\":10614:10615   */\n      0x01\n        /* \"#utility.yul\":10610:10621   */\n      shl\n        /* \"#utility.yul\":10606:10625   */\n      add\n        /* \"#utility.yul\":10600:10604   */\n      dup4\n        /* \"#utility.yul\":10593:10626   */\n      sstore\n        /* \"#utility.yul\":10001:10888   */\n      pop\n      pop\n        /* \"#utility.yul\":9696:10894   */\n      pop\n      pop\n      pop\n      jump\t// out\n        /* \"#utility.yul\":10899:11289   */\n    tag_87:\n        /* \"#utility.yul\":11058:11060   */\n      0x20\n        /* \"#utility.yul\":11047:11056   */\n      dup2\n        /* \"#utility.yul\":11040:11061   */\n      mstore\n        /* \"#utility.yul\":11097:11103   */\n      dup2\n        /* \"#utility.yul\":11092:11094   */\n      0x20\n        /* \"#utility.yul\":11081:11090   */\n      dup3\n        /* \"#utility.yul\":11077:11095   */\n      add\n        /* \"#utility.yul\":11070:11104   */\n      mstore\n        /* \"#utility.yul\":11154:11160   */\n      dup2\n        /* \"#utility.yul\":11146:11152   */\n      dup4\n        /* \"#utility.yul\":11141:11143   */\n      0x40\n        /* \"#utility.yul\":11130:11139   */\n      dup4\n        /* \"#utility.yul\":11126:11144   */\n      add\n        /* \"#utility.yul\":11113:11161   */\n      calldatacopy\n        /* \"#utility.yul\":11210:11211   */\n      0x00\n        /* \"#utility.yul\":11181:11203   */\n      dup2\n      dup4\n      add\n        /* \"#utility.yul\":11205:11207   */\n      0x40\n        /* \"#utility.yul\":11177:11208   */\n      swap1\n      dup2\n      add\n        /* \"#utility.yul\":11170:11212   */\n      swap2\n      swap1\n      swap2\n      mstore\n        /* \"#utility.yul\":11273:11275   */\n      0x1f\n        /* \"#utility.yul\":11252:11267   */\n      swap1\n      swap3\n      add\n      not(0x1f)\n        /* \"#utility.yul\":11248:11277   */\n      and\n        /* \"#utility.yul\":11233:11278   */\n      add\n        /* \"#utility.yul\":11229:11283   */\n      add\n      swap2\n        /* \"#utility.yul\":10899:11289   */\n      swap1\n      pop\n      jump\t// out\n        /* \"#utility.yul\":11294:13071   */\n    tag_101:\n      shl(0xb9, 0x3d913730b6b2911d11)\n        /* \"#utility.yul\":12092:12135   */\n      dup2\n      mstore\n        /* \"#utility.yul\":12158:12171   */\n      dup5\n      mload\n        /* \"#utility.yul\":12074:12077   */\n      0x00\n      swap1\n        /* \"#utility.yul\":12180:12254   */\n      tag_300\n        /* \"#utility.yul\":12158:12171   */\n      dup2\n        /* \"#utility.yul\":12243:12244   */\n      0x09\n        /* \"#utility.yul\":12234:12245   */\n      dup6\n      add\n        /* \"#utility.yul\":12227:12231   */\n      0x20\n        /* \"#utility.yul\":12215:12232   */\n      dup11\n      add\n        /* \"#utility.yul\":12180:12254   */\n      tag_182\n      jump\t// in\n    tag_300:\n      shl(0x71, 0x111610113232b9b1b934b83a34b7b7111d11)\n        /* \"#utility.yul\":12313:12314   */\n      0x09\n        /* \"#utility.yul\":12273:12289   */\n      swap2\n      dup5\n      add\n        /* \"#utility.yul\":12305:12315   */\n      swap2\n      dup3\n      add\n        /* \"#utility.yul\":12298:12366   */\n      mstore\n        /* \"#utility.yul\":12391:12404   */\n      dup6\n      mload\n        /* \"#utility.yul\":12413:12489   */\n      tag_301\n        /* \"#utility.yul\":12391:12404   */\n      dup2\n        /* \"#utility.yul\":12475:12477   */\n      0x1b\n        /* \"#utility.yul\":12467:12478   */\n      dup5\n      add\n        /* \"#utility.yul\":12460:12464   */\n      0x20\n        /* \"#utility.yul\":12448:12465   */\n      dup11\n      add\n        /* \"#utility.yul\":12413:12489   */\n      tag_182\n      jump\t// in\n    tag_301:\n      shl(0x99, 0x1116101134b6b0b3b2911d1011)\n        /* \"#utility.yul\":12549:12551   */\n      0x1b\n        /* \"#utility.yul\":12508:12525   */\n      swap3\n      swap1\n      swap2\n      add\n        /* \"#utility.yul\":12541:12552   */\n      swap2\n      dup3\n      add\n        /* \"#utility.yul\":12534:12593   */\n      mstore\n        /* \"#utility.yul\":12618:12631   */\n      dup5\n      mload\n        /* \"#utility.yul\":12640:12716   */\n      tag_302\n        /* \"#utility.yul\":12618:12631   */\n      dup2\n        /* \"#utility.yul\":12702:12704   */\n      0x28\n        /* \"#utility.yul\":12694:12705   */\n      dup5\n      add\n        /* \"#utility.yul\":12687:12691   */\n      0x20\n        /* \"#utility.yul\":12675:12692   */\n      dup10\n      add\n        /* \"#utility.yul\":12640:12716   */\n      tag_182\n      jump\t// in\n    tag_302:\n      shl(0x59, 0x1116101130b734b6b0ba34b7b72fbab936111d1011)\n        /* \"#utility.yul\":12776:12778   */\n      0x28\n        /* \"#utility.yul\":12735:12752   */\n      swap3\n      swap1\n      swap2\n      add\n        /* \"#utility.yul\":12768:12779   */\n      swap2\n      dup3\n      add\n        /* \"#utility.yul\":12761:12835   */\n      mstore\n        /* \"#utility.yul\":12860:12873   */\n      dup4\n      mload\n        /* \"#utility.yul\":12882:12958   */\n      tag_303\n        /* \"#utility.yul\":12860:12873   */\n      dup2\n        /* \"#utility.yul\":12944:12946   */\n      0x3d\n        /* \"#utility.yul\":12936:12947   */\n      dup5\n      add\n        /* \"#utility.yul\":12929:12933   */\n      0x20\n        /* \"#utility.yul\":12917:12934   */\n      dup9\n      add\n        /* \"#utility.yul\":12882:12958   */\n      tag_182\n      jump\t// in\n    tag_303:\n      shl(0xf0, 0x227d)\n        /* \"#utility.yul\":13018:13020   */\n      0x3d\n        /* \"#utility.yul\":12977:12994   */\n      swap3\n      swap1\n      swap2\n      add\n        /* \"#utility.yul\":13010:13021   */\n      swap2\n      dup3\n      add\n        /* \"#utility.yul\":13003:13038   */\n      mstore\n        /* \"#utility.yul\":13062:13064   */\n      0x3f\n        /* \"#utility.yul\":13054:13065   */\n      add\n      swap7\n        /* \"#utility.yul\":11294:13071   */\n      swap6\n      pop\n      pop\n      pop\n      pop\n      pop\n      pop\n      jump\t// out\n        /* \"#utility.yul\":13076:13537   */\n    tag_105:\n        /* \"#utility.yul\":13338:13369   */\n      0x646174613a6170706c69636174696f6e2f6a736f6e3b6261736536342c000000\n        /* \"#utility.yul\":13333:13336   */\n      dup2\n        /* \"#utility.yul\":13326:13370   */\n      mstore\n        /* \"#utility.yul\":13308:13311   */\n      0x00\n        /* \"#utility.yul\":13399:13405   */\n      dup3\n        /* \"#utility.yul\":13393:13406   */\n      mload\n        /* \"#utility.yul\":13415:13490   */\n      tag_305\n        /* \"#utility.yul\":13483:13489   */\n      dup2\n        /* \"#utility.yul\":13478:13480   */\n      0x1d\n        /* \"#utility.yul\":13473:13476   */\n      dup6\n        /* \"#utility.yul\":13469:13481   */\n      add\n        /* \"#utility.yul\":13462:13466   */\n      0x20\n        /* \"#utility.yul\":13454:13460   */\n      dup8\n        /* \"#utility.yul\":13450:13467   */\n      add\n        /* \"#utility.yul\":13415:13490   */\n      tag_182\n      jump\t// in\n    tag_305:\n        /* \"#utility.yul\":13510:13526   */\n      swap2\n      swap1\n      swap2\n      add\n        /* \"#utility.yul\":13528:13530   */\n      0x1d\n        /* \"#utility.yul\":13506:13531   */\n      add\n      swap3\n        /* \"#utility.yul\":13076:13537   */\n      swap2\n      pop\n      pop\n      jump\t// out\n        /* \"#utility.yul\":13674:13801   */\n    tag_187:\n        /* \"#utility.yul\":13735:13745   */\n      0x4e487b71\n        /* \"#utility.yul\":13730:13733   */\n      0xe0\n        /* \"#utility.yul\":13726:13746   */\n      shl\n        /* \"#utility.yul\":13723:13724   */\n      0x00\n        /* \"#utility.yul\":13716:13747   */\n      mstore\n        /* \"#utility.yul\":13766:13770   */\n      0x11\n        /* \"#utility.yul\":13763:13764   */\n      0x04\n        /* \"#utility.yul\":13756:13771   */\n      mstore\n        /* \"#utility.yul\":13790:13794   */\n      0x24\n        /* \"#utility.yul\":13787:13788   */\n      0x00\n        /* \"#utility.yul\":13780:13795   */\n      revert\n        /* \"#utility.yul\":13806:13931   */\n    tag_142:\n        /* \"#utility.yul\":13871:13880   */\n      dup1\n      dup3\n      add\n        /* \"#utility.yul\":13892:13902   */\n      dup1\n      dup3\n      gt\n        /* \"#utility.yul\":13889:13925   */\n      iszero\n      tag_62\n      jumpi\n        /* \"#utility.yul\":13905:13923   */\n      tag_62\n      tag_187\n      jump\t// in\n        /* \"#utility.yul\":13936:14153   */\n    tag_144:\n        /* \"#utility.yul\":13976:13977   */\n      0x00\n        /* \"#utility.yul\":14002:14003   */\n      dup3\n        /* \"#utility.yul\":13992:14124   */\n      tag_312\n      jumpi\n        /* \"#utility.yul\":14046:14056   */\n      0x4e487b71\n        /* \"#utility.yul\":14041:14044   */\n      0xe0\n        /* \"#utility.yul\":14037:14057   */\n      shl\n        /* \"#utility.yul\":14034:14035   */\n      0x00\n        /* \"#utility.yul\":14027:14058   */\n      mstore\n        /* \"#utility.yul\":14081:14085   */\n      0x12\n        /* \"#utility.yul\":14078:14079   */\n      0x04\n        /* \"#utility.yul\":14071:14086   */\n      mstore\n        /* \"#utility.yul\":14109:14113   */\n      0x24\n        /* \"#utility.yul\":14106:14107   */\n      0x00\n        /* \"#utility.yul\":14099:14114   */\n      revert\n        /* \"#utility.yul\":13992:14124   */\n    tag_312:\n      pop\n        /* \"#utility.yul\":14138:14147   */\n      div\n      swap1\n        /* \"#utility.yul\":13936:14153   */\n      jump\t// out\n        /* \"#utility.yul\":14158:14326   */\n    tag_146:\n        /* \"#utility.yul\":14231:14240   */\n      dup1\n      dup3\n      mul\n        /* \"#utility.yul\":14262:14271   */\n      dup2\n      iszero\n        /* \"#utility.yul\":14279:14294   */\n      dup3\n      dup3\n      div\n        /* \"#utility.yul\":14273:14295   */\n      dup5\n      eq\n        /* \"#utility.yul\":14259:14296   */\n      or\n        /* \"#utility.yul\":14249:14320   */\n      tag_62\n      jumpi\n        /* \"#utility.yul\":14300:14318   */\n      tag_62\n      tag_187\n      jump\t// in\n    stop\n    data_84d8a590de33e00cbdc16e1f28c3506f5ec15c599fab9a6a4bcd575cc2f110ce 4142434445464748494a4b4c4d4e4f505152535455565758595a6162636465666768696a6b6c6d6e6f707172737475767778797a303132333435363738392b2f\n\n    auxdata: 0xa2646970667358221220c48e3458de6d3d01a6872cdc4a6f041ba627aac8bcae6799e277a28f25d32b7064736f6c63430008160033\n}\n",
				"bytecode": {
					"linkReferences": {},
					"object": "60806040525f805460ff60a01b1916600160a01b17905534801562000022575f80fd5b506040516200135f3803806200135f8339810160408190526200004591620000fa565b816001600160a01b0381166200007457604051631e4fbdf760e01b81525f600482015260240160405180910390fd5b6200007f8162000097565b5060026200008e828262000272565b5050506200033e565b5f80546001600160a01b038381166001600160a01b0319831681178455604051919092169283917f8be0079c531659141344cd1fd0a4f28419497f9722a3daafe3b4186f6b6457e09190a35050565b634e487b7160e01b5f52604160045260245ffd5b5f80604083850312156200010c575f80fd5b82516001600160a01b038116811462000123575f80fd5b602084810151919350906001600160401b038082111562000142575f80fd5b818601915086601f83011262000156575f80fd5b8151818111156200016b576200016b620000e6565b604051601f8201601f19908116603f01168101908382118183101715620001965762000196620000e6565b816040528281528986848701011115620001ae575f80fd5b5f93505b82841015620001d15784840186015181850187015292850192620001b2565b5f8684830101528096505050505050509250929050565b600181811c90821680620001fd57607f821691505b6020821081036200021c57634e487b7160e01b5f52602260045260245ffd5b50919050565b601f8211156200026d57805f5260205f20601f840160051c81016020851015620002495750805b601f840160051c820191505b818110156200026a575f815560010162000255565b50505b505050565b81516001600160401b038111156200028e576200028e620000e6565b620002a6816200029f8454620001e8565b8462000222565b602080601f831160018114620002dc575f8415620002c45750858301515b5f19600386901b1c1916600185901b17855562000336565b5f85815260208120601f198616915b828110156200030c57888601518255948401946001909101908401620002eb565b50858210156200032a57878501515f19600388901b60f8161c191681555b505060018460011b0185555b505050505050565b611013806200034c5f395ff3fe608060405234801561000f575f80fd5b50600436106100b1575f3560e01c80638da5cb5b1161006e5780638da5cb5b1461011e57806392b4c81b14610138578063ce2f4f531461014b578063dfe8478b1461016e578063f0b305eb14610176578063f2fde38b14610189575f80fd5b80630dd4f079146100b55780632c90464d146100de5780633dc081b9146100f157806355f804b3146100f95780636c0360eb1461010e578063715018a614610116575b5f80fd5b6100c86100c336600461099d565b61019c565b6040516100d59190610a03565b60405180910390f35b6100c86100ec36600461099d565b6101e5565b6100c861023d565b61010c610107366004610a35565b6102c9565b005b6100c861031c565b61010c610329565b5f546040516001600160a01b0390911681526020016100d5565b6100c8610146366004610aa1565b61033c565b5f5461015e90600160a01b900460ff1681565b60405190151581526020016100d5565b61010c6103a6565b6100c8610184366004610b72565b610403565b61010c610197366004610bc8565b610446565b60605f6101a884610488565b90505f6002826040516020016101bf929190610c9c565b60405160208183030381529060405290506101da8185610403565b925050505b92915050565b5f54606090600160a01b900460ff161561020a57610203838361019c565b90506101df565b600161021584610488565b604051602001610226929190610ccd565b604051602081830303815290604052905092915050565b6002805461024a90610bf5565b80601f016020809104026020016040519081016040528092919081815260200182805461027690610bf5565b80156102c15780601f10610298576101008083540402835291602001916102c1565b820191905f5260205f20905b8154815290600101906020018083116102a457829003601f168201915b505050505081565b6102d1610518565b60016102de828483610d3d565b507f6741b2fc379fad678116fe3d4d4b9a1a184ab53ba36b86ad0fa66340b1ab41ad8282604051610310929190610df7565b60405180910390a15050565b6001805461024a90610bf5565b610331610518565b61033a5f610544565b565b60605f825f01518360200151846040015185606001516040516020016103659493929190610e25565b604051602081830303815290604052905061037f81610593565b60405160200161038f9190610efc565b604051602081830303815290604052915050919050565b6103ae610518565b5f805460ff60a01b198116600160a01b9182900460ff1615918202179091556040518181527f360c3d72ee193226275b842f85231c259c934e85459fed80fa68e502ffa9dbde9060200160405180910390a150565b60605f604051806080016040528085815260200184602001518152602001846060015181526020018460a00151815250905061043e8161033c565b949350505050565b61044e610518565b6001600160a01b03811661047c57604051631e4fbdf760e01b81525f60048201526024015b60405180910390fd5b61048581610544565b50565b60605f610494836106e2565b60010190505f8167ffffffffffffffff8111156104b3576104b36107b9565b6040519080825280601f01601f1916602001820160405280156104dd576020820181803683370190505b5090508181016020015b5f19016f181899199a1a9b1b9c1cb0b131b232b360811b600a86061a8153600a85049450846104e757509392505050565b5f546001600160a01b0316331461033a5760405163118cdaa760e01b8152336004820152602401610473565b5f80546001600160a01b038381166001600160a01b0319831681178455604051919092169283917f8be0079c531659141344cd1fd0a4f28419497f9722a3daafe3b4186f6b6457e09190a35050565b606081515f036105b057505060408051602081019091525f815290565b5f604051806060016040528060408152602001610f9e6040913990505f6003845160026105dd9190610f54565b6105e79190610f67565b6105f2906004610f86565b67ffffffffffffffff81111561060a5761060a6107b9565b6040519080825280601f01601f191660200182016040528015610634576020820181803683370190505b509050600182016020820185865187015b808210156106a0576003820191508151603f8160121c168501518453600184019350603f81600c1c168501518453600184019350603f8160061c168501518453600184019350603f8116850151845350600183019250610645565b50506003865106600181146106bc57600281146106cf576106d7565b603d6001830353603d60028303536106d7565b603d60018303535b509195945050505050565b5f8072184f03e93ff9f4daa797ed6e38ed64bf6a1f0160401b83106107205772184f03e93ff9f4daa797ed6e38ed64bf6a1f0160401b830492506040015b6d04ee2d6d415b85acef8100000000831061074c576d04ee2d6d415b85acef8100000000830492506020015b662386f26fc10000831061076a57662386f26fc10000830492506010015b6305f5e1008310610782576305f5e100830492506008015b612710831061079657612710830492506004015b606483106107a8576064830492506002015b600a83106101df5760010192915050565b634e487b7160e01b5f52604160045260245ffd5b60405160c0810167ffffffffffffffff811182821017156107f0576107f06107b9565b60405290565b6040516080810167ffffffffffffffff811182821017156107f0576107f06107b9565b5f82601f830112610828575f80fd5b813567ffffffffffffffff80821115610843576108436107b9565b604051601f8301601f19908116603f0116810190828211818310171561086b5761086b6107b9565b81604052838152866020858801011115610883575f80fd5b836020870160208301375f602085830101528094505050505092915050565b8035600681106108b0575f80fd5b919050565b5f60c082840312156108c5575f80fd5b6108cd6107cd565b9050813567ffffffffffffffff808211156108e6575f80fd5b6108f285838601610819565b83526020840135915080821115610907575f80fd5b61091385838601610819565b6020840152610924604085016108a2565b6040840152606084013591508082111561093c575f80fd5b61094885838601610819565b60608401526080840135915080821115610960575f80fd5b61096c85838601610819565b608084015260a0840135915080821115610984575f80fd5b5061099184828501610819565b60a08301525092915050565b5f80604083850312156109ae575f80fd5b82359150602083013567ffffffffffffffff8111156109cb575f80fd5b6109d7858286016108b5565b9150509250929050565b5f5b838110156109fb5781810151838201526020016109e3565b50505f910152565b602081525f8251806020840152610a218160408501602087016109e1565b601f01601f19169190910160400192915050565b5f8060208385031215610a46575f80fd5b823567ffffffffffffffff80821115610a5d575f80fd5b818501915085601f830112610a70575f80fd5b813581811115610a7e575f80fd5b866020828501011115610a8f575f80fd5b60209290920196919550909350505050565b5f60208284031215610ab1575f80fd5b813567ffffffffffffffff80821115610ac8575f80fd5b9083019060808286031215610adb575f80fd5b610ae36107f6565b823582811115610af1575f80fd5b610afd87828601610819565b825250602083013582811115610b11575f80fd5b610b1d87828601610819565b602083015250604083013582811115610b34575f80fd5b610b4087828601610819565b604083015250606083013582811115610b57575f80fd5b610b6387828601610819565b60608301525095945050505050565b5f8060408385031215610b83575f80fd5b823567ffffffffffffffff80821115610b9a575f80fd5b610ba686838701610819565b93506020850135915080821115610bbb575f80fd5b506109d7858286016108b5565b5f60208284031215610bd8575f80fd5b81356001600160a01b0381168114610bee575f80fd5b9392505050565b600181811c90821680610c0957607f821691505b602082108103610c2757634e487b7160e01b5f52602260045260245ffd5b50919050565b5f8154610c3981610bf5565b60018281168015610c515760018114610c6657610c92565b60ff1984168752821515830287019450610c92565b855f526020805f205f5b85811015610c895781548a820152908401908201610c70565b50505082870194505b5050505092915050565b5f610ca78285610c2d565b600160fd1b81528351610cc18160018401602088016109e1565b01600101949350505050565b5f610cd88285610c2d565b8351610ce88183602088016109e1565b01949350505050565b601f821115610d3857805f5260205f20601f840160051c81016020851015610d165750805b601f840160051c820191505b81811015610d35575f8155600101610d22565b50505b505050565b67ffffffffffffffff831115610d5557610d556107b9565b610d6983610d638354610bf5565b83610cf1565b5f601f841160018114610d9a575f8515610d835750838201355b5f19600387901b1c1916600186901b178355610d35565b5f83815260208120601f198716915b82811015610dc95786850135825560209485019460019092019101610da9565b5086821015610de5575f1960f88860031b161c19848701351681555b505060018560011b0183555050505050565b60208152816020820152818360408301375f818301604090810191909152601f909201601f19160101919050565b683d913730b6b2911d1160b91b815284515f90610e49816009850160208a016109e1565b71111610113232b9b1b934b83a34b7b7111d1160711b6009918401918201528551610e7b81601b840160208a016109e1565b6c1116101134b6b0b3b2911d101160991b601b92909101918201528451610ea98160288401602089016109e1565b741116101130b734b6b0ba34b7b72fbab936111d101160591b602892909101918201528351610edf81603d8401602088016109e1565b61227d60f01b603d9290910191820152603f019695505050505050565b7f646174613a6170706c69636174696f6e2f6a736f6e3b6261736536342c00000081525f8251610f3381601d8501602087016109e1565b91909101601d0192915050565b634e487b7160e01b5f52601160045260245ffd5b808201808211156101df576101df610f40565b5f82610f8157634e487b7160e01b5f52601260045260245ffd5b500490565b80820281158282048414176101df576101df610f4056fe4142434445464748494a4b4c4d4e4f505152535455565758595a6162636465666768696a6b6c6d6e6f707172737475767778797a303132333435363738392b2fa2646970667358221220c48e3458de6d3d01a6872cdc4a6f041ba627aac8bcae6799e277a28f25d32b7064736f6c63430008160033",
					"opcodes": "PUSH1 0x80 PUSH1 0x40 MSTORE PUSH0 DUP1 SLOAD PUSH1 0xFF PUSH1 0xA0 SHL NOT AND PUSH1 0x1 PUSH1 0xA0 SHL OR SWAP1 SSTORE CALLVALUE DUP1 ISZERO PUSH3 0x22 JUMPI PUSH0 DUP1 REVERT JUMPDEST POP PUSH1 0x40 MLOAD PUSH3 0x135F CODESIZE SUB DUP1 PUSH3 0x135F DUP4 CODECOPY DUP2 ADD PUSH1 0x40 DUP2 SWAP1 MSTORE PUSH3 0x45 SWAP2 PUSH3 0xFA JUMP JUMPDEST DUP2 PUSH1 0x1 PUSH1 0x1 PUSH1 0xA0 SHL SUB DUP2 AND PUSH3 0x74 JUMPI PUSH1 0x40 MLOAD PUSH4 0x1E4FBDF7 PUSH1 0xE0 SHL DUP2 MSTORE PUSH0 PUSH1 0x4 DUP3 ADD MSTORE PUSH1 0x24 ADD PUSH1 0x40 MLOAD DUP1 SWAP2 SUB SWAP1 REVERT JUMPDEST PUSH3 0x7F DUP2 PUSH3 0x97 JUMP JUMPDEST POP PUSH1 0x2 PUSH3 0x8E DUP3 DUP3 PUSH3 0x272 JUMP JUMPDEST POP POP POP PUSH3 0x33E JUMP JUMPDEST PUSH0 DUP1 SLOAD PUSH1 0x1 PUSH1 0x1 PUSH1 0xA0 SHL SUB DUP4 DUP2 AND PUSH1 0x1 PUSH1 0x1 PUSH1 0xA0 SHL SUB NOT DUP4 AND DUP2 OR DUP5 SSTORE PUSH1 0x40 MLOAD SWAP2 SWAP1 SWAP3 AND SWAP3 DUP4 SWAP2 PUSH32 0x8BE0079C531659141344CD1FD0A4F28419497F9722A3DAAFE3B4186F6B6457E0 SWAP2 SWAP1 LOG3 POP POP JUMP JUMPDEST PUSH4 0x4E487B71 PUSH1 0xE0 SHL PUSH0 MSTORE PUSH1 0x41 PUSH1 0x4 MSTORE PUSH1 0x24 PUSH0 REVERT JUMPDEST PUSH0 DUP1 PUSH1 0x40 DUP4 DUP6 SUB SLT ISZERO PUSH3 0x10C JUMPI PUSH0 DUP1 REVERT JUMPDEST DUP3 MLOAD PUSH1 0x1 PUSH1 0x1 PUSH1 0xA0 SHL SUB DUP2 AND DUP2 EQ PUSH3 0x123 JUMPI PUSH0 DUP1 REVERT JUMPDEST PUSH1 0x20 DUP5 DUP2 ADD MLOAD SWAP2 SWAP4 POP SWAP1 PUSH1 0x1 PUSH1 0x1 PUSH1 0x40 SHL SUB DUP1 DUP3 GT ISZERO PUSH3 0x142 JUMPI PUSH0 DUP1 REVERT JUMPDEST DUP2 DUP7 ADD SWAP2 POP DUP7 PUSH1 0x1F DUP4 ADD SLT PUSH3 0x156 JUMPI PUSH0 DUP1 REVERT JUMPDEST DUP2 MLOAD DUP2 DUP2 GT ISZERO PUSH3 0x16B JUMPI PUSH3 0x16B PUSH3 0xE6 JUMP JUMPDEST PUSH1 0x40 MLOAD PUSH1 0x1F DUP3 ADD PUSH1 0x1F NOT SWAP1 DUP2 AND PUSH1 0x3F ADD AND DUP2 ADD SWAP1 DUP4 DUP3 GT DUP2 DUP4 LT OR ISZERO PUSH3 0x196 JUMPI PUSH3 0x196 PUSH3 0xE6 JUMP JUMPDEST DUP2 PUSH1 0x40 MSTORE DUP3 DUP2 MSTORE DUP10 DUP7 DUP5 DUP8 ADD ADD GT ISZERO PUSH3 0x1AE JUMPI PUSH0 DUP1 REVERT JUMPDEST PUSH0 SWAP4 POP JUMPDEST DUP3 DUP5 LT ISZERO PUSH3 0x1D1 JUMPI DUP5 DUP5 ADD DUP7 ADD MLOAD DUP2 DUP6 ADD DUP8 ADD MSTORE SWAP3 DUP6 ADD SWAP3 PUSH3 0x1B2 JUMP JUMPDEST PUSH0 DUP7 DUP5 DUP4 ADD ADD MSTORE DUP1 SWAP7 POP POP POP POP POP POP POP SWAP3 POP SWAP3 SWAP1 POP JUMP JUMPDEST PUSH1 0x1 DUP2 DUP2 SHR SWAP1 DUP3 AND DUP1 PUSH3 0x1FD JUMPI PUSH1 0x7F DUP3 AND SWAP2 POP JUMPDEST PUSH1 0x20 DUP3 LT DUP2 SUB PUSH3 0x21C JUMPI PUSH4 0x4E487B71 PUSH1 0xE0 SHL PUSH0 MSTORE PUSH1 0x22 PUSH1 0x4 MSTORE PUSH1 0x24 PUSH0 REVERT JUMPDEST POP SWAP2 SWAP1 POP JUMP JUMPDEST PUSH1 0x1F DUP3 GT ISZERO PUSH3 0x26D JUMPI DUP1 PUSH0 MSTORE PUSH1 0x20 PUSH0 KECCAK256 PUSH1 0x1F DUP5 ADD PUSH1 0x5 SHR DUP2 ADD PUSH1 0x20 DUP6 LT ISZERO PUSH3 0x249 JUMPI POP DUP1 JUMPDEST PUSH1 0x1F DUP5 ADD PUSH1 0x5 SHR DUP3 ADD SWAP2 POP JUMPDEST DUP2 DUP2 LT ISZERO PUSH3 0x26A JUMPI PUSH0 DUP2 SSTORE PUSH1 0x1 ADD PUSH3 0x255 JUMP JUMPDEST POP POP JUMPDEST POP POP POP JUMP JUMPDEST DUP2 MLOAD PUSH1 0x1 PUSH1 0x1 PUSH1 0x40 SHL SUB DUP2 GT ISZERO PUSH3 0x28E JUMPI PUSH3 0x28E PUSH3 0xE6 JUMP JUMPDEST PUSH3 0x2A6 DUP2 PUSH3 0x29F DUP5 SLOAD PUSH3 0x1E8 JUMP JUMPDEST DUP5 PUSH3 0x222 JUMP JUMPDEST PUSH1 0x20 DUP1 PUSH1 0x1F DUP4 GT PUSH1 0x1 DUP2 EQ PUSH3 0x2DC JUMPI PUSH0 DUP5 ISZERO PUSH3 0x2C4 JUMPI POP DUP6 DUP4 ADD MLOAD JUMPDEST PUSH0 NOT PUSH1 0x3 DUP7 SWAP1 SHL SHR NOT AND PUSH1 0x1 DUP6 SWAP1 SHL OR DUP6 SSTORE PUSH3 0x336 JUMP JUMPDEST PUSH0 DUP6 DUP2 MSTORE PUSH1 0x20 DUP2 KECCAK256 PUSH1 0x1F NOT DUP7 AND SWAP2 JUMPDEST DUP3 DUP2 LT ISZERO PUSH3 0x30C JUMPI DUP9 DUP7 ADD MLOAD DUP3 SSTORE SWAP5 DUP5 ADD SWAP5 PUSH1 0x1 SWAP1 SWAP2 ADD SWAP1 DUP5 ADD PUSH3 0x2EB JUMP JUMPDEST POP DUP6 DUP3 LT ISZERO PUSH3 0x32A JUMPI DUP8 DUP6 ADD MLOAD PUSH0 NOT PUSH1 0x3 DUP9 SWAP1 SHL PUSH1 0xF8 AND SHR NOT AND DUP2 SSTORE JUMPDEST POP POP PUSH1 0x1 DUP5 PUSH1 0x1 SHL ADD DUP6 SSTORE JUMPDEST POP POP POP POP POP POP JUMP JUMPDEST PUSH2 0x1013 DUP1 PUSH3 0x34C PUSH0 CODECOPY PUSH0 RETURN INVALID PUSH1 0x80 PUSH1 0x40 MSTORE CALLVALUE DUP1 ISZERO PUSH2 0xF JUMPI PUSH0 DUP1 REVERT JUMPDEST POP PUSH1 0x4 CALLDATASIZE LT PUSH2 0xB1 JUMPI PUSH0 CALLDATALOAD PUSH1 0xE0 SHR DUP1 PUSH4 0x8DA5CB5B GT PUSH2 0x6E JUMPI DUP1 PUSH4 0x8DA5CB5B EQ PUSH2 0x11E JUMPI DUP1 PUSH4 0x92B4C81B EQ PUSH2 0x138 JUMPI DUP1 PUSH4 0xCE2F4F53 EQ PUSH2 0x14B JUMPI DUP1 PUSH4 0xDFE8478B EQ PUSH2 0x16E JUMPI DUP1 PUSH4 0xF0B305EB EQ PUSH2 0x176 JUMPI DUP1 PUSH4 0xF2FDE38B EQ PUSH2 0x189 JUMPI PUSH0 DUP1 REVERT JUMPDEST DUP1 PUSH4 0xDD4F079 EQ PUSH2 0xB5 JUMPI DUP1 PUSH4 0x2C90464D EQ PUSH2 0xDE JUMPI DUP1 PUSH4 0x3DC081B9 EQ PUSH2 0xF1 JUMPI DUP1 PUSH4 0x55F804B3 EQ PUSH2 0xF9 JUMPI DUP1 PUSH4 0x6C0360EB EQ PUSH2 0x10E JUMPI DUP1 PUSH4 0x715018A6 EQ PUSH2 0x116 JUMPI JUMPDEST PUSH0 DUP1 REVERT JUMPDEST PUSH2 0xC8 PUSH2 0xC3 CALLDATASIZE PUSH1 0x4 PUSH2 0x99D JUMP JUMPDEST PUSH2 0x19C JUMP JUMPDEST PUSH1 0x40 MLOAD PUSH2 0xD5 SWAP2 SWAP1 PUSH2 0xA03 JUMP JUMPDEST PUSH1 0x40 MLOAD DUP1 SWAP2 SUB SWAP1 RETURN JUMPDEST PUSH2 0xC8 PUSH2 0xEC CALLDATASIZE PUSH1 0x4 PUSH2 0x99D JUMP JUMPDEST PUSH2 0x1E5 JUMP JUMPDEST PUSH2 0xC8 PUSH2 0x23D JUMP JUMPDEST PUSH2 0x10C PUSH2 0x107 CALLDATASIZE PUSH1 0x4 PUSH2 0xA35 JUMP JUMPDEST PUSH2 0x2C9 JUMP JUMPDEST STOP JUMPDEST PUSH2 0xC8 PUSH2 0x31C JUMP JUMPDEST PUSH2 0x10C PUSH2 0x329 JUMP JUMPDEST PUSH0 SLOAD PUSH1 0x40 MLOAD PUSH1 0x1 PUSH1 0x1 PUSH1 0xA0 SHL SUB SWAP1 SWAP2 AND DUP2 MSTORE PUSH1 0x20 ADD PUSH2 0xD5 JUMP JUMPDEST PUSH2 0xC8 PUSH2 0x146 CALLDATASIZE PUSH1 0x4 PUSH2 0xAA1 JUMP JUMPDEST PUSH2 0x33C JUMP JUMPDEST PUSH0 SLOAD PUSH2 0x15E SWAP1 PUSH1 0x1 PUSH1 0xA0 SHL SWAP1 DIV PUSH1 0xFF AND DUP2 JUMP JUMPDEST PUSH1 0x40 MLOAD SWAP1 ISZERO ISZERO DUP2 MSTORE PUSH1 0x20 ADD PUSH2 0xD5 JUMP JUMPDEST PUSH2 0x10C PUSH2 0x3A6 JUMP JUMPDEST PUSH2 0xC8 PUSH2 0x184 CALLDATASIZE PUSH1 0x4 PUSH2 0xB72 JUMP JUMPDEST PUSH2 0x403 JUMP JUMPDEST PUSH2 0x10C PUSH2 0x197 CALLDATASIZE PUSH1 0x4 PUSH2 0xBC8 JUMP JUMPDEST PUSH2 0x446 JUMP JUMPDEST PUSH1 0x60 PUSH0 PUSH2 0x1A8 DUP5 PUSH2 0x488 JUMP JUMPDEST SWAP1 POP PUSH0 PUSH1 0x2 DUP3 PUSH1 0x40 MLOAD PUSH1 0x20 ADD PUSH2 0x1BF SWAP3 SWAP2 SWAP1 PUSH2 0xC9C JUMP JUMPDEST PUSH1 0x40 MLOAD PUSH1 0x20 DUP2 DUP4 SUB SUB DUP2 MSTORE SWAP1 PUSH1 0x40 MSTORE SWAP1 POP PUSH2 0x1DA DUP2 DUP6 PUSH2 0x403 JUMP JUMPDEST SWAP3 POP POP POP JUMPDEST SWAP3 SWAP2 POP POP JUMP JUMPDEST PUSH0 SLOAD PUSH1 0x60 SWAP1 PUSH1 0x1 PUSH1 0xA0 SHL SWAP1 DIV PUSH1 0xFF AND ISZERO PUSH2 0x20A JUMPI PUSH2 0x203 DUP4 DUP4 PUSH2 0x19C JUMP JUMPDEST SWAP1 POP PUSH2 0x1DF JUMP JUMPDEST PUSH1 0x1 PUSH2 0x215 DUP5 PUSH2 0x488 JUMP JUMPDEST PUSH1 0x40 MLOAD PUSH1 0x20 ADD PUSH2 0x226 SWAP3 SWAP2 SWAP1 PUSH2 0xCCD JUMP JUMPDEST PUSH1 0x40 MLOAD PUSH1 0x20 DUP2 DUP4 SUB SUB DUP2 MSTORE SWAP1 PUSH1 0x40 MSTORE SWAP1 POP SWAP3 SWAP2 POP POP JUMP JUMPDEST PUSH1 0x2 DUP1 SLOAD PUSH2 0x24A SWAP1 PUSH2 0xBF5 JUMP JUMPDEST DUP1 PUSH1 0x1F ADD PUSH1 0x20 DUP1 SWAP2 DIV MUL PUSH1 0x20 ADD PUSH1 0x40 MLOAD SWAP1 DUP2 ADD PUSH1 0x40 MSTORE DUP1 SWAP3 SWAP2 SWAP1 DUP2 DUP2 MSTORE PUSH1 0x20 ADD DUP3 DUP1 SLOAD PUSH2 0x276 SWAP1 PUSH2 0xBF5 JUMP JUMPDEST DUP1 ISZERO PUSH2 0x2C1 JUMPI DUP1 PUSH1 0x1F LT PUSH2 0x298 JUMPI PUSH2 0x100 DUP1 DUP4 SLOAD DIV MUL DUP4 MSTORE SWAP2 PUSH1 0x20 ADD SWAP2 PUSH2 0x2C1 JUMP JUMPDEST DUP3 ADD SWAP2 SWAP1 PUSH0 MSTORE PUSH1 0x20 PUSH0 KECCAK256 SWAP1 JUMPDEST DUP2 SLOAD DUP2 MSTORE SWAP1 PUSH1 0x1 ADD SWAP1 PUSH1 0x20 ADD DUP1 DUP4 GT PUSH2 0x2A4 JUMPI DUP3 SWAP1 SUB PUSH1 0x1F AND DUP3 ADD SWAP2 JUMPDEST POP POP POP POP POP DUP2 JUMP JUMPDEST PUSH2 0x2D1 PUSH2 0x518 JUMP JUMPDEST PUSH1 0x1 PUSH2 0x2DE DUP3 DUP5 DUP4 PUSH2 0xD3D JUMP JUMPDEST POP PUSH32 0x6741B2FC379FAD678116FE3D4D4B9A1A184AB53BA36B86AD0FA66340B1AB41AD DUP3 DUP3 PUSH1 0x40 MLOAD PUSH2 0x310 SWAP3 SWAP2 SWAP1 PUSH2 0xDF7 JUMP JUMPDEST PUSH1 0x40 MLOAD DUP1 SWAP2 SUB SWAP1 LOG1 POP POP JUMP JUMPDEST PUSH1 0x1 DUP1 SLOAD PUSH2 0x24A SWAP1 PUSH2 0xBF5 JUMP JUMPDEST PUSH2 0x331 PUSH2 0x518 JUMP JUMPDEST PUSH2 0x33A PUSH0 PUSH2 0x544 JUMP JUMPDEST JUMP JUMPDEST PUSH1 0x60 PUSH0 DUP3 PUSH0 ADD MLOAD DUP4 PUSH1 0x20 ADD MLOAD DUP5 PUSH1 0x40 ADD MLOAD DUP6 PUSH1 0x60 ADD MLOAD PUSH1 0x40 MLOAD PUSH1 0x20 ADD PUSH2 0x365 SWAP5 SWAP4 SWAP3 SWAP2 SWAP1 PUSH2 0xE25 JUMP JUMPDEST PUSH1 0x40 MLOAD PUSH1 0x20 DUP2 DUP4 SUB SUB DUP2 MSTORE SWAP1 PUSH1 0x40 MSTORE SWAP1 POP PUSH2 0x37F DUP2 PUSH2 0x593 JUMP JUMPDEST PUSH1 0x40 MLOAD PUSH1 0x20 ADD PUSH2 0x38F SWAP2 SWAP1 PUSH2 0xEFC JUMP JUMPDEST PUSH1 0x40 MLOAD PUSH1 0x20 DUP2 DUP4 SUB SUB DUP2 MSTORE SWAP1 PUSH1 0x40 MSTORE SWAP2 POP POP SWAP2 SWAP1 POP JUMP JUMPDEST PUSH2 0x3AE PUSH2 0x518 JUMP JUMPDEST PUSH0 DUP1 SLOAD PUSH1 0xFF PUSH1 0xA0 SHL NOT DUP2 AND PUSH1 0x1 PUSH1 0xA0 SHL SWAP2 DUP3 SWAP1 DIV PUSH1 0xFF AND ISZERO SWAP2 DUP3 MUL OR SWAP1 SWAP2 SSTORE PUSH1 0x40 MLOAD DUP2 DUP2 MSTORE PUSH32 0x360C3D72EE193226275B842F85231C259C934E85459FED80FA68E502FFA9DBDE SWAP1 PUSH1 0x20 ADD PUSH1 0x40 MLOAD DUP1 SWAP2 SUB SWAP1 LOG1 POP JUMP JUMPDEST PUSH1 0x60 PUSH0 PUSH1 0x40 MLOAD DUP1 PUSH1 0x80 ADD PUSH1 0x40 MSTORE DUP1 DUP6 DUP2 MSTORE PUSH1 0x20 ADD DUP5 PUSH1 0x20 ADD MLOAD DUP2 MSTORE PUSH1 0x20 ADD DUP5 PUSH1 0x60 ADD MLOAD DUP2 MSTORE PUSH1 0x20 ADD DUP5 PUSH1 0xA0 ADD MLOAD DUP2 MSTORE POP SWAP1 POP PUSH2 0x43E DUP2 PUSH2 0x33C JUMP JUMPDEST SWAP5 SWAP4 POP POP POP POP JUMP JUMPDEST PUSH2 0x44E PUSH2 0x518 JUMP JUMPDEST PUSH1 0x1 PUSH1 0x1 PUSH1 0xA0 SHL SUB DUP2 AND PUSH2 0x47C JUMPI PUSH1 0x40 MLOAD PUSH4 0x1E4FBDF7 PUSH1 0xE0 SHL DUP2 MSTORE PUSH0 PUSH1 0x4 DUP3 ADD MSTORE PUSH1 0x24 ADD JUMPDEST PUSH1 0x40 MLOAD DUP1 SWAP2 SUB SWAP1 REVERT JUMPDEST PUSH2 0x485 DUP2 PUSH2 0x544 JUMP JUMPDEST POP JUMP JUMPDEST PUSH1 0x60 PUSH0 PUSH2 0x494 DUP4 PUSH2 0x6E2 JUMP JUMPDEST PUSH1 0x1 ADD SWAP1 POP PUSH0 DUP2 PUSH8 0xFFFFFFFFFFFFFFFF DUP2 GT ISZERO PUSH2 0x4B3 JUMPI PUSH2 0x4B3 PUSH2 0x7B9 JUMP JUMPDEST PUSH1 0x40 MLOAD SWAP1 DUP1 DUP3 MSTORE DUP1 PUSH1 0x1F ADD PUSH1 0x1F NOT AND PUSH1 0x20 ADD DUP3 ADD PUSH1 0x40 MSTORE DUP1 ISZERO PUSH2 0x4DD JUMPI PUSH1 0x20 DUP3 ADD DUP2 DUP1 CALLDATASIZE DUP4 CALLDATACOPY ADD SWAP1 POP JUMPDEST POP SWAP1 POP DUP2 DUP2 ADD PUSH1 0x20 ADD JUMPDEST PUSH0 NOT ADD PUSH16 0x181899199A1A9B1B9C1CB0B131B232B3 PUSH1 0x81 SHL PUSH1 0xA DUP7 MOD BYTE DUP2 MSTORE8 PUSH1 0xA DUP6 DIV SWAP5 POP DUP5 PUSH2 0x4E7 JUMPI POP SWAP4 SWAP3 POP POP POP JUMP JUMPDEST PUSH0 SLOAD PUSH1 0x1 PUSH1 0x1 PUSH1 0xA0 SHL SUB AND CALLER EQ PUSH2 0x33A JUMPI PUSH1 0x40 MLOAD PUSH4 0x118CDAA7 PUSH1 0xE0 SHL DUP2 MSTORE CALLER PUSH1 0x4 DUP3 ADD MSTORE PUSH1 0x24 ADD PUSH2 0x473 JUMP JUMPDEST PUSH0 DUP1 SLOAD PUSH1 0x1 PUSH1 0x1 PUSH1 0xA0 SHL SUB DUP4 DUP2 AND PUSH1 0x1 PUSH1 0x1 PUSH1 0xA0 SHL SUB NOT DUP4 AND DUP2 OR DUP5 SSTORE PUSH1 0x40 MLOAD SWAP2 SWAP1 SWAP3 AND SWAP3 DUP4 SWAP2 PUSH32 0x8BE0079C531659141344CD1FD0A4F28419497F9722A3DAAFE3B4186F6B6457E0 SWAP2 SWAP1 LOG3 POP POP JUMP JUMPDEST PUSH1 0x60 DUP2 MLOAD PUSH0 SUB PUSH2 0x5B0 JUMPI POP POP PUSH1 0x40 DUP1 MLOAD PUSH1 0x20 DUP2 ADD SWAP1 SWAP2 MSTORE PUSH0 DUP2 MSTORE SWAP1 JUMP JUMPDEST PUSH0 PUSH1 0x40 MLOAD DUP1 PUSH1 0x60 ADD PUSH1 0x40 MSTORE DUP1 PUSH1 0x40 DUP2 MSTORE PUSH1 0x20 ADD PUSH2 0xF9E PUSH1 0x40 SWAP2 CODECOPY SWAP1 POP PUSH0 PUSH1 0x3 DUP5 MLOAD PUSH1 0x2 PUSH2 0x5DD SWAP2 SWAP1 PUSH2 0xF54 JUMP JUMPDEST PUSH2 0x5E7 SWAP2 SWAP1 PUSH2 0xF67 JUMP JUMPDEST PUSH2 0x5F2 SWAP1 PUSH1 0x4 PUSH2 0xF86 JUMP JUMPDEST PUSH8 0xFFFFFFFFFFFFFFFF DUP2 GT ISZERO PUSH2 0x60A JUMPI PUSH2 0x60A PUSH2 0x7B9 JUMP JUMPDEST PUSH1 0x40 MLOAD SWAP1 DUP1 DUP3 MSTORE DUP1 PUSH1 0x1F ADD PUSH1 0x1F NOT AND PUSH1 0x20 ADD DUP3 ADD PUSH1 0x40 MSTORE DUP1 ISZERO PUSH2 0x634 JUMPI PUSH1 0x20 DUP3 ADD DUP2 DUP1 CALLDATASIZE DUP4 CALLDATACOPY ADD SWAP1 POP JUMPDEST POP SWAP1 POP PUSH1 0x1 DUP3 ADD PUSH1 0x20 DUP3 ADD DUP6 DUP7 MLOAD DUP8 ADD JUMPDEST DUP1 DUP3 LT ISZERO PUSH2 0x6A0 JUMPI PUSH1 0x3 DUP3 ADD SWAP2 POP DUP2 MLOAD PUSH1 0x3F DUP2 PUSH1 0x12 SHR AND DUP6 ADD MLOAD DUP5 MSTORE8 PUSH1 0x1 DUP5 ADD SWAP4 POP PUSH1 0x3F DUP2 PUSH1 0xC SHR AND DUP6 ADD MLOAD DUP5 MSTORE8 PUSH1 0x1 DUP5 ADD SWAP4 POP PUSH1 0x3F DUP2 PUSH1 0x6 SHR AND DUP6 ADD MLOAD DUP5 MSTORE8 PUSH1 0x1 DUP5 ADD SWAP4 POP PUSH1 0x3F DUP2 AND DUP6 ADD MLOAD DUP5 MSTORE8 POP PUSH1 0x1 DUP4 ADD SWAP3 POP PUSH2 0x645 JUMP JUMPDEST POP POP PUSH1 0x3 DUP7 MLOAD MOD PUSH1 0x1 DUP2 EQ PUSH2 0x6BC JUMPI PUSH1 0x2 DUP2 EQ PUSH2 0x6CF JUMPI PUSH2 0x6D7 JUMP JUMPDEST PUSH1 0x3D PUSH1 0x1 DUP4 SUB MSTORE8 PUSH1 0x3D PUSH1 0x2 DUP4 SUB MSTORE8 PUSH2 0x6D7 JUMP JUMPDEST PUSH1 0x3D PUSH1 0x1 DUP4 SUB MSTORE8 JUMPDEST POP SWAP2 SWAP6 SWAP5 POP POP POP POP POP JUMP JUMPDEST PUSH0 DUP1 PUSH19 0x184F03E93FF9F4DAA797ED6E38ED64BF6A1F01 PUSH1 0x40 SHL DUP4 LT PUSH2 0x720 JUMPI PUSH19 0x184F03E93FF9F4DAA797ED6E38ED64BF6A1F01 PUSH1 0x40 SHL DUP4 DIV SWAP3 POP PUSH1 0x40 ADD JUMPDEST PUSH14 0x4EE2D6D415B85ACEF8100000000 DUP4 LT PUSH2 0x74C JUMPI PUSH14 0x4EE2D6D415B85ACEF8100000000 DUP4 DIV SWAP3 POP PUSH1 0x20 ADD JUMPDEST PUSH7 0x2386F26FC10000 DUP4 LT PUSH2 0x76A JUMPI PUSH7 0x2386F26FC10000 DUP4 DIV SWAP3 POP PUSH1 0x10 ADD JUMPDEST PUSH4 0x5F5E100 DUP4 LT PUSH2 0x782 JUMPI PUSH4 0x5F5E100 DUP4 DIV SWAP3 POP PUSH1 0x8 ADD JUMPDEST PUSH2 0x2710 DUP4 LT PUSH2 0x796 JUMPI PUSH2 0x2710 DUP4 DIV SWAP3 POP PUSH1 0x4 ADD JUMPDEST PUSH1 0x64 DUP4 LT PUSH2 0x7A8 JUMPI PUSH1 0x64 DUP4 DIV SWAP3 POP PUSH1 0x2 ADD JUMPDEST PUSH1 0xA DUP4 LT PUSH2 0x1DF JUMPI PUSH1 0x1 ADD SWAP3 SWAP2 POP POP JUMP JUMPDEST PUSH4 0x4E487B71 PUSH1 0xE0 SHL PUSH0 MSTORE PUSH1 0x41 PUSH1 0x4 MSTORE PUSH1 0x24 PUSH0 REVERT JUMPDEST PUSH1 0x40 MLOAD PUSH1 0xC0 DUP2 ADD PUSH8 0xFFFFFFFFFFFFFFFF DUP2 GT DUP3 DUP3 LT OR ISZERO PUSH2 0x7F0 JUMPI PUSH2 0x7F0 PUSH2 0x7B9 JUMP JUMPDEST PUSH1 0x40 MSTORE SWAP1 JUMP JUMPDEST PUSH1 0x40 MLOAD PUSH1 0x80 DUP2 ADD PUSH8 0xFFFFFFFFFFFFFFFF DUP2 GT DUP3 DUP3 LT OR ISZERO PUSH2 0x7F0 JUMPI PUSH2 0x7F0 PUSH2 0x7B9 JUMP JUMPDEST PUSH0 DUP3 PUSH1 0x1F DUP4 ADD SLT PUSH2 0x828 JUMPI PUSH0 DUP1 REVERT JUMPDEST DUP2 CALLDATALOAD PUSH8 0xFFFFFFFFFFFFFFFF DUP1 DUP3 GT ISZERO PUSH2 0x843 JUMPI PUSH2 0x843 PUSH2 0x7B9 JUMP JUMPDEST PUSH1 0x40 MLOAD PUSH1 0x1F DUP4 ADD PUSH1 0x1F NOT SWAP1 DUP2 AND PUSH1 0x3F ADD AND DUP2 ADD SWAP1 DUP3 DUP3 GT DUP2 DUP4 LT OR ISZERO PUSH2 0x86B JUMPI PUSH2 0x86B PUSH2 0x7B9 JUMP JUMPDEST DUP2 PUSH1 0x40 MSTORE DUP4 DUP2 MSTORE DUP7 PUSH1 0x20 DUP6 DUP9 ADD ADD GT ISZERO PUSH2 0x883 JUMPI PUSH0 DUP1 REVERT JUMPDEST DUP4 PUSH1 0x20 DUP8 ADD PUSH1 0x20 DUP4 ADD CALLDATACOPY PUSH0 PUSH1 0x20 DUP6 DUP4 ADD ADD MSTORE DUP1 SWAP5 POP POP POP POP POP SWAP3 SWAP2 POP POP JUMP JUMPDEST DUP1 CALLDATALOAD PUSH1 0x6 DUP2 LT PUSH2 0x8B0 JUMPI PUSH0 DUP1 REVERT JUMPDEST SWAP2 SWAP1 POP JUMP JUMPDEST PUSH0 PUSH1 0xC0 DUP3 DUP5 SUB SLT ISZERO PUSH2 0x8C5 JUMPI PUSH0 DUP1 REVERT JUMPDEST PUSH2 0x8CD PUSH2 0x7CD JUMP JUMPDEST SWAP1 POP DUP2 CALLDATALOAD PUSH8 0xFFFFFFFFFFFFFFFF DUP1 DUP3 GT ISZERO PUSH2 0x8E6 JUMPI PUSH0 DUP1 REVERT JUMPDEST PUSH2 0x8F2 DUP6 DUP4 DUP7 ADD PUSH2 0x819 JUMP JUMPDEST DUP4 MSTORE PUSH1 0x20 DUP5 ADD CALLDATALOAD SWAP2 POP DUP1 DUP3 GT ISZERO PUSH2 0x907 JUMPI PUSH0 DUP1 REVERT JUMPDEST PUSH2 0x913 DUP6 DUP4 DUP7 ADD PUSH2 0x819 JUMP JUMPDEST PUSH1 0x20 DUP5 ADD MSTORE PUSH2 0x924 PUSH1 0x40 DUP6 ADD PUSH2 0x8A2 JUMP JUMPDEST PUSH1 0x40 DUP5 ADD MSTORE PUSH1 0x60 DUP5 ADD CALLDATALOAD SWAP2 POP DUP1 DUP3 GT ISZERO PUSH2 0x93C JUMPI PUSH0 DUP1 REVERT JUMPDEST PUSH2 0x948 DUP6 DUP4 DUP7 ADD PUSH2 0x819 JUMP JUMPDEST PUSH1 0x60 DUP5 ADD MSTORE PUSH1 0x80 DUP5 ADD CALLDATALOAD SWAP2 POP DUP1 DUP3 GT ISZERO PUSH2 0x960 JUMPI PUSH0 DUP1 REVERT JUMPDEST PUSH2 0x96C DUP6 DUP4 DUP7 ADD PUSH2 0x819 JUMP JUMPDEST PUSH1 0x80 DUP5 ADD MSTORE PUSH1 0xA0 DUP5 ADD CALLDATALOAD SWAP2 POP DUP1 DUP3 GT ISZERO PUSH2 0x984 JUMPI PUSH0 DUP1 REVERT JUMPDEST POP PUSH2 0x991 DUP5 DUP3 DUP6 ADD PUSH2 0x819 JUMP JUMPDEST PUSH1 0xA0 DUP4 ADD MSTORE POP SWAP3 SWAP2 POP POP JUMP JUMPDEST PUSH0 DUP1 PUSH1 0x40 DUP4 DUP6 SUB SLT ISZERO PUSH2 0x9AE JUMPI PUSH0 DUP1 REVERT JUMPDEST DUP3 CALLDATALOAD SWAP2 POP PUSH1 0x20 DUP4 ADD CALLDATALOAD PUSH8 0xFFFFFFFFFFFFFFFF DUP2 GT ISZERO PUSH2 0x9CB JUMPI PUSH0 DUP1 REVERT JUMPDEST PUSH2 0x9D7 DUP6 DUP3 DUP7 ADD PUSH2 0x8B5 JUMP JUMPDEST SWAP2 POP POP SWAP3 POP SWAP3 SWAP1 POP JUMP JUMPDEST PUSH0 JUMPDEST DUP4 DUP2 LT ISZERO PUSH2 0x9FB JUMPI DUP2 DUP2 ADD MLOAD DUP4 DUP3 ADD MSTORE PUSH1 0x20 ADD PUSH2 0x9E3 JUMP JUMPDEST POP POP PUSH0 SWAP2 ADD MSTORE JUMP JUMPDEST PUSH1 0x20 DUP2 MSTORE PUSH0 DUP3 MLOAD DUP1 PUSH1 0x20 DUP5 ADD MSTORE PUSH2 0xA21 DUP2 PUSH1 0x40 DUP6 ADD PUSH1 0x20 DUP8 ADD PUSH2 0x9E1 JUMP JUMPDEST PUSH1 0x1F ADD PUSH1 0x1F NOT AND SWAP2 SWAP1 SWAP2 ADD PUSH1 0x40 ADD SWAP3 SWAP2 POP POP JUMP JUMPDEST PUSH0 DUP1 PUSH1 0x20 DUP4 DUP6 SUB SLT ISZERO PUSH2 0xA46 JUMPI PUSH0 DUP1 REVERT JUMPDEST DUP3 CALLDATALOAD PUSH8 0xFFFFFFFFFFFFFFFF DUP1 DUP3 GT ISZERO PUSH2 0xA5D JUMPI PUSH0 DUP1 REVERT JUMPDEST DUP2 DUP6 ADD SWAP2 POP DUP6 PUSH1 0x1F DUP4 ADD SLT PUSH2 0xA70 JUMPI PUSH0 DUP1 REVERT JUMPDEST DUP2 CALLDATALOAD DUP2 DUP2 GT ISZERO PUSH2 0xA7E JUMPI PUSH0 DUP1 REVERT JUMPDEST DUP7 PUSH1 0x20 DUP3 DUP6 ADD ADD GT ISZERO PUSH2 0xA8F JUMPI PUSH0 DUP1 REVERT JUMPDEST PUSH1 0x20 SWAP3 SWAP1 SWAP3 ADD SWAP7 SWAP2 SWAP6 POP SWAP1 SWAP4 POP POP POP POP JUMP JUMPDEST PUSH0 PUSH1 0x20 DUP3 DUP5 SUB SLT ISZERO PUSH2 0xAB1 JUMPI PUSH0 DUP1 REVERT JUMPDEST DUP2 CALLDATALOAD PUSH8 0xFFFFFFFFFFFFFFFF DUP1 DUP3 GT ISZERO PUSH2 0xAC8 JUMPI PUSH0 DUP1 REVERT JUMPDEST SWAP1 DUP4 ADD SWAP1 PUSH1 0x80 DUP3 DUP7 SUB SLT ISZERO PUSH2 0xADB JUMPI PUSH0 DUP1 REVERT JUMPDEST PUSH2 0xAE3 PUSH2 0x7F6 JUMP JUMPDEST DUP3 CALLDATALOAD DUP3 DUP2 GT ISZERO PUSH2 0xAF1 JUMPI PUSH0 DUP1 REVERT JUMPDEST PUSH2 0xAFD DUP8 DUP3 DUP7 ADD PUSH2 0x819 JUMP JUMPDEST DUP3 MSTORE POP PUSH1 0x20 DUP4 ADD CALLDATALOAD DUP3 DUP2 GT ISZERO PUSH2 0xB11 JUMPI PUSH0 DUP1 REVERT JUMPDEST PUSH2 0xB1D DUP8 DUP3 DUP7 ADD PUSH2 0x819 JUMP JUMPDEST PUSH1 0x20 DUP4 ADD MSTORE POP PUSH1 0x40 DUP4 ADD CALLDATALOAD DUP3 DUP2 GT ISZERO PUSH2 0xB34 JUMPI PUSH0 DUP1 REVERT JUMPDEST PUSH2 0xB40 DUP8 DUP3 DUP7 ADD PUSH2 0x819 JUMP JUMPDEST PUSH1 0x40 DUP4 ADD MSTORE POP PUSH1 0x60 DUP4 ADD CALLDATALOAD DUP3 DUP2 GT ISZERO PUSH2 0xB57 JUMPI PUSH0 DUP1 REVERT JUMPDEST PUSH2 0xB63 DUP8 DUP3 DUP7 ADD PUSH2 0x819 JUMP JUMPDEST PUSH1 0x60 DUP4 ADD MSTORE POP SWAP6 SWAP5 POP POP POP POP POP JUMP JUMPDEST PUSH0 DUP1 PUSH1 0x40 DUP4 DUP6 SUB SLT ISZERO PUSH2 0xB83 JUMPI PUSH0 DUP1 REVERT JUMPDEST DUP3 CALLDATALOAD PUSH8 0xFFFFFFFFFFFFFFFF DUP1 DUP3 GT ISZERO PUSH2 0xB9A JUMPI PUSH0 DUP1 REVERT JUMPDEST PUSH2 0xBA6 DUP7 DUP4 DUP8 ADD PUSH2 0x819 JUMP JUMPDEST SWAP4 POP PUSH1 0x20 DUP6 ADD CALLDATALOAD SWAP2 POP DUP1 DUP3 GT ISZERO PUSH2 0xBBB JUMPI PUSH0 DUP1 REVERT JUMPDEST POP PUSH2 0x9D7 DUP6 DUP3 DUP7 ADD PUSH2 0x8B5 JUMP JUMPDEST PUSH0 PUSH1 0x20 DUP3 DUP5 SUB SLT ISZERO PUSH2 0xBD8 JUMPI PUSH0 DUP1 REVERT JUMPDEST DUP2 CALLDATALOAD PUSH1 0x1 PUSH1 0x1 PUSH1 0xA0 SHL SUB DUP2 AND DUP2 EQ PUSH2 0xBEE JUMPI PUSH0 DUP1 REVERT JUMPDEST SWAP4 SWAP3 POP POP POP JUMP JUMPDEST PUSH1 0x1 DUP2 DUP2 SHR SWAP1 DUP3 AND DUP1 PUSH2 0xC09 JUMPI PUSH1 0x7F DUP3 AND SWAP2 POP JUMPDEST PUSH1 0x20 DUP3 LT DUP2 SUB PUSH2 0xC27 JUMPI PUSH4 0x4E487B71 PUSH1 0xE0 SHL PUSH0 MSTORE PUSH1 0x22 PUSH1 0x4 MSTORE PUSH1 0x24 PUSH0 REVERT JUMPDEST POP SWAP2 SWAP1 POP JUMP JUMPDEST PUSH0 DUP2 SLOAD PUSH2 0xC39 DUP2 PUSH2 0xBF5 JUMP JUMPDEST PUSH1 0x1 DUP3 DUP2 AND DUP1 ISZERO PUSH2 0xC51 JUMPI PUSH1 0x1 DUP2 EQ PUSH2 0xC66 JUMPI PUSH2 0xC92 JUMP JUMPDEST PUSH1 0xFF NOT DUP5 AND DUP8 MSTORE DUP3 ISZERO ISZERO DUP4 MUL DUP8 ADD SWAP5 POP PUSH2 0xC92 JUMP JUMPDEST DUP6 PUSH0 MSTORE PUSH1 0x20 DUP1 PUSH0 KECCAK256 PUSH0 JUMPDEST DUP6 DUP2 LT ISZERO PUSH2 0xC89 JUMPI DUP2 SLOAD DUP11 DUP3 ADD MSTORE SWAP1 DUP5 ADD SWAP1 DUP3 ADD PUSH2 0xC70 JUMP JUMPDEST POP POP POP DUP3 DUP8 ADD SWAP5 POP JUMPDEST POP POP POP POP SWAP3 SWAP2 POP POP JUMP JUMPDEST PUSH0 PUSH2 0xCA7 DUP3 DUP6 PUSH2 0xC2D JUMP JUMPDEST PUSH1 0x1 PUSH1 0xFD SHL DUP2 MSTORE DUP4 MLOAD PUSH2 0xCC1 DUP2 PUSH1 0x1 DUP5 ADD PUSH1 0x20 DUP9 ADD PUSH2 0x9E1 JUMP JUMPDEST ADD PUSH1 0x1 ADD SWAP5 SWAP4 POP POP POP POP JUMP JUMPDEST PUSH0 PUSH2 0xCD8 DUP3 DUP6 PUSH2 0xC2D JUMP JUMPDEST DUP4 MLOAD PUSH2 0xCE8 DUP2 DUP4 PUSH1 0x20 DUP9 ADD PUSH2 0x9E1 JUMP JUMPDEST ADD SWAP5 SWAP4 POP POP POP POP JUMP JUMPDEST PUSH1 0x1F DUP3 GT ISZERO PUSH2 0xD38 JUMPI DUP1 PUSH0 MSTORE PUSH1 0x20 PUSH0 KECCAK256 PUSH1 0x1F DUP5 ADD PUSH1 0x5 SHR DUP2 ADD PUSH1 0x20 DUP6 LT ISZERO PUSH2 0xD16 JUMPI POP DUP1 JUMPDEST PUSH1 0x1F DUP5 ADD PUSH1 0x5 SHR DUP3 ADD SWAP2 POP JUMPDEST DUP2 DUP2 LT ISZERO PUSH2 0xD35 JUMPI PUSH0 DUP2 SSTORE PUSH1 0x1 ADD PUSH2 0xD22 JUMP JUMPDEST POP POP JUMPDEST POP POP POP JUMP JUMPDEST PUSH8 0xFFFFFFFFFFFFFFFF DUP4 GT ISZERO PUSH2 0xD55 JUMPI PUSH2 0xD55 PUSH2 0x7B9 JUMP JUMPDEST PUSH2 0xD69 DUP4 PUSH2 0xD63 DUP4 SLOAD PUSH2 0xBF5 JUMP JUMPDEST DUP4 PUSH2 0xCF1 JUMP JUMPDEST PUSH0 PUSH1 0x1F DUP5 GT PUSH1 0x1 DUP2 EQ PUSH2 0xD9A JUMPI PUSH0 DUP6 ISZERO PUSH2 0xD83 JUMPI POP DUP4 DUP3 ADD CALLDATALOAD JUMPDEST PUSH0 NOT PUSH1 0x3 DUP8 SWAP1 SHL SHR NOT AND PUSH1 0x1 DUP7 SWAP1 SHL OR DUP4 SSTORE PUSH2 0xD35 JUMP JUMPDEST PUSH0 DUP4 DUP2 MSTORE PUSH1 0x20 DUP2 KECCAK256 PUSH1 0x1F NOT DUP8 AND SWAP2 JUMPDEST DUP3 DUP2 LT ISZERO PUSH2 0xDC9 JUMPI DUP7 DUP6 ADD CALLDATALOAD DUP3 SSTORE PUSH1 0x20 SWAP5 DUP6 ADD SWAP5 PUSH1 0x1 SWAP1 SWAP3 ADD SWAP2 ADD PUSH2 0xDA9 JUMP JUMPDEST POP DUP7 DUP3 LT ISZERO PUSH2 0xDE5 JUMPI PUSH0 NOT PUSH1 0xF8 DUP9 PUSH1 0x3 SHL AND SHR NOT DUP5 DUP8 ADD CALLDATALOAD AND DUP2 SSTORE JUMPDEST POP POP PUSH1 0x1 DUP6 PUSH1 0x1 SHL ADD DUP4 SSTORE POP POP POP POP POP JUMP JUMPDEST PUSH1 0x20 DUP2 MSTORE DUP2 PUSH1 0x20 DUP3 ADD MSTORE DUP2 DUP4 PUSH1 0x40 DUP4 ADD CALLDATACOPY PUSH0 DUP2 DUP4 ADD PUSH1 0x40 SWAP1 DUP2 ADD SWAP2 SWAP1 SWAP2 MSTORE PUSH1 0x1F SWAP1 SWAP3 ADD PUSH1 0x1F NOT AND ADD ADD SWAP2 SWAP1 POP JUMP JUMPDEST PUSH9 0x3D913730B6B2911D11 PUSH1 0xB9 SHL DUP2 MSTORE DUP5 MLOAD PUSH0 SWAP1 PUSH2 0xE49 DUP2 PUSH1 0x9 DUP6 ADD PUSH1 0x20 DUP11 ADD PUSH2 0x9E1 JUMP JUMPDEST PUSH18 0x111610113232B9B1B934B83A34B7B7111D11 PUSH1 0x71 SHL PUSH1 0x9 SWAP2 DUP5 ADD SWAP2 DUP3 ADD MSTORE DUP6 MLOAD PUSH2 0xE7B DUP2 PUSH1 0x1B DUP5 ADD PUSH1 0x20 DUP11 ADD PUSH2 0x9E1 JUMP JUMPDEST PUSH13 0x1116101134B6B0B3B2911D1011 PUSH1 0x99 SHL PUSH1 0x1B SWAP3 SWAP1 SWAP2 ADD SWAP2 DUP3 ADD MSTORE DUP5 MLOAD PUSH2 0xEA9 DUP2 PUSH1 0x28 DUP5 ADD PUSH1 0x20 DUP10 ADD PUSH2 0x9E1 JUMP JUMPDEST PUSH21 0x1116101130B734B6B0BA34B7B72FBAB936111D1011 PUSH1 0x59 SHL PUSH1 0x28 SWAP3 SWAP1 SWAP2 ADD SWAP2 DUP3 ADD MSTORE DUP4 MLOAD PUSH2 0xEDF DUP2 PUSH1 0x3D DUP5 ADD PUSH1 0x20 DUP9 ADD PUSH2 0x9E1 JUMP JUMPDEST PUSH2 0x227D PUSH1 0xF0 SHL PUSH1 0x3D SWAP3 SWAP1 SWAP2 ADD SWAP2 DUP3 ADD MSTORE PUSH1 0x3F ADD SWAP7 SWAP6 POP POP POP POP POP POP JUMP JUMPDEST PUSH32 0x646174613A6170706C69636174696F6E2F6A736F6E3B6261736536342C000000 DUP2 MSTORE PUSH0 DUP3 MLOAD PUSH2 0xF33 DUP2 PUSH1 0x1D DUP6 ADD PUSH1 0x20 DUP8 ADD PUSH2 0x9E1 JUMP JUMPDEST SWAP2 SWAP1 SWAP2 ADD PUSH1 0x1D ADD SWAP3 SWAP2 POP POP JUMP JUMPDEST PUSH4 0x4E487B71 PUSH1 0xE0 SHL PUSH0 MSTORE PUSH1 0x11 PUSH1 0x4 MSTORE PUSH1 0x24 PUSH0 REVERT JUMPDEST DUP1 DUP3 ADD DUP1 DUP3 GT ISZERO PUSH2 0x1DF JUMPI PUSH2 0x1DF PUSH2 0xF40 JUMP JUMPDEST PUSH0 DUP3 PUSH2 0xF81 JUMPI PUSH4 0x4E487B71 PUSH1 0xE0 SHL PUSH0 MSTORE PUSH1 0x12 PUSH1 0x4 MSTORE PUSH1 0x24 PUSH0 REVERT JUMPDEST POP DIV SWAP1 JUMP JUMPDEST DUP1 DUP3 MUL DUP2 ISZERO DUP3 DUP3 DIV DUP5 EQ OR PUSH2 0x1DF JUMPI PUSH2 0x1DF PUSH2 0xF40 JUMP INVALID COINBASE TIMESTAMP NUMBER PREVRANDAO GASLIMIT CHAINID SELFBALANCE BASEFEE 0x49 0x4A 0x4B 0x4C 0x4D 0x4E 0x4F POP MLOAD MSTORE MSTORE8 SLOAD SSTORE JUMP JUMPI PC MSIZE GAS PUSH2 0x6263 PUSH5 0x6566676869 PUSH11 0x6B6C6D6E6F707172737475 PUSH23 0x7778797A303132333435363738392B2FA2646970667358 0x22 SLT KECCAK256 0xC4 DUP15 CALLVALUE PC 0xDE PUSH14 0x3D01A6872CDC4A6F041BA627AAC8 0xBC 0xAE PUSH8 0x99E277A28F25D32B PUSH17 0x64736F6C63430008160033000000000000 "
				},
				"gasEstimates": {
					"creation": {
						"codeDepositCost": "823000",
						"executionCost": "infinite",
						"totalCost": "infinite"
					},
					"external": {
						"baseURI()": "infinite",
						"constructTokenURI((string,string,string,string))": "infinite",
						"dataURI(uint256,(string,string,uint8,string,string,string))": "infinite",
						"genericDataURI(string,(string,string,uint8,string,string,string))": "infinite",
						"isDataURIEnabled()": "2369",
						"owner()": "2299",
						"renounceOwnership()": "infinite",
						"setBaseURI(string)": "infinite",
						"toggleDataURIEnabled()": "27706",
						"tokenNamePrefix()": "infinite",
						"tokenURI(uint256,(string,string,uint8,string,string,string))": "infinite",
						"transferOwnership(address)": "28404"
					}
				},
				"methodIdentifiers": {
					"baseURI()": "6c0360eb",
					"constructTokenURI((string,string,string,string))": "92b4c81b",
					"dataURI(uint256,(string,string,uint8,string,string,string))": "0dd4f079",
					"genericDataURI(string,(string,string,uint8,string,string,string))": "f0b305eb",
					"isDataURIEnabled()": "ce2f4f53",
					"owner()": "8da5cb5b",
					"renounceOwnership()": "715018a6",
					"setBaseURI(string)": "55f804b3",
					"toggleDataURIEnabled()": "dfe8478b",
					"tokenNamePrefix()": "3dc081b9",
					"tokenURI(uint256,(string,string,uint8,string,string,string))": "2c90464d",
					"transferOwnership(address)": "f2fde38b"
				}
			},
			"storageLayout": {
				"storage": [
					{
						"astId": 8,
						"contract": "packages/revolution-contracts/VerbsDescriptor.sol:VerbsDescriptor",
						"label": "_owner",
						"offset": 0,
						"slot": "0",
						"type": "t_address"
					},
					{
						"astId": 1734,
						"contract": "packages/revolution-contracts/VerbsDescriptor.sol:VerbsDescriptor",
						"label": "isDataURIEnabled",
						"offset": 20,
						"slot": "0",
						"type": "t_bool"
					},
					{
						"astId": 1737,
						"contract": "packages/revolution-contracts/VerbsDescriptor.sol:VerbsDescriptor",
						"label": "baseURI",
						"offset": 0,
						"slot": "1",
						"type": "t_string_storage"
					},
					{
						"astId": 1739,
						"contract": "packages/revolution-contracts/VerbsDescriptor.sol:VerbsDescriptor",
						"label": "tokenNamePrefix",
						"offset": 0,
						"slot": "2",
						"type": "t_string_storage"
					}
				],
				"types": {
					"t_address": {
						"encoding": "inplace",
						"label": "address",
						"numberOfBytes": "20"
					},
					"t_bool": {
						"encoding": "inplace",
						"label": "bool",
						"numberOfBytes": "1"
					},
					"t_string_storage": {
						"encoding": "bytes",
						"label": "string",
						"numberOfBytes": "32"
					}
				}
			},
			"userdoc": {
				"kind": "user",
				"methods": {
					"constructTokenURI((string,string,string,string))": {
						"notice": "Construct an ERC721 token URI."
					},
					"dataURI(uint256,(string,string,uint8,string,string,string))": {
						"notice": "Given a token ID, construct a base64 encoded data URI for an official Vrbs DAO verb."
					},
					"genericDataURI(string,(string,string,uint8,string,string,string))": {
						"notice": "Given a name, and metadata, construct a base64 encoded data URI."
					},
					"setBaseURI(string)": {
						"notice": "Set the base URI for all token IDs. It is automatically added as a prefix to the value returned in {tokenURI}, or to the token ID if {tokenURI} is empty."
					},
					"toggleDataURIEnabled()": {
						"notice": "Toggle a boolean value which determines if `tokenURI` returns a data URI or an HTTP URL."
					},
					"tokenURI(uint256,(string,string,uint8,string,string,string))": {
						"notice": "Given a token ID, construct a token URI for an official Vrbs DAO verb."
					}
				},
				"version": 1
			}
		}
	}
}