{
	"packages/revolution-contracts/TokenEmitter.sol": {
		"TokenEmitter": {
			"abi": [
				{
					"inputs": [
						{
							"internalType": "contract NontransferableERC20",
							"name": "_token",
							"type": "address"
						},
						{
							"internalType": "address",
							"name": "_treasury",
							"type": "address"
						},
						{
							"internalType": "int256",
							"name": "_targetPrice",
							"type": "int256"
						},
						{
							"internalType": "int256",
							"name": "_priceDecayPercent",
							"type": "int256"
						},
						{
							"internalType": "int256",
							"name": "_governancePerTimeUnit",
							"type": "int256"
						}
					],
					"stateMutability": "nonpayable",
					"type": "constructor"
				},
				{
					"inputs": [],
					"name": "ReentrancyGuardReentrantCall",
					"type": "error"
				},
				{
					"anonymous": false,
					"inputs": [
						{
							"indexed": false,
							"internalType": "string",
							"name": "name",
							"type": "string"
						},
						{
							"indexed": false,
							"internalType": "uint256",
							"name": "value",
							"type": "uint256"
						}
					],
					"name": "Log",
					"type": "event"
				},
				{
					"anonymous": false,
					"inputs": [
						{
							"indexed": true,
							"internalType": "address",
							"name": "from",
							"type": "address"
						},
						{
							"indexed": true,
							"internalType": "address",
							"name": "to",
							"type": "address"
						},
						{
							"indexed": false,
							"internalType": "uint256",
							"name": "value",
							"type": "uint256"
						}
					],
					"name": "Transfer",
					"type": "event"
				},
				{
					"inputs": [
						{
							"internalType": "uint256",
							"name": "payment",
							"type": "uint256"
						},
						{
							"internalType": "uint256",
							"name": "supply",
							"type": "uint256"
						}
					],
					"name": "UNSAFE_getOverestimateTokenAmount",
					"outputs": [
						{
							"internalType": "uint256",
							"name": "",
							"type": "uint256"
						}
					],
					"stateMutability": "view",
					"type": "function"
				},
				{
					"inputs": [
						{
							"internalType": "uint256",
							"name": "payment",
							"type": "uint256"
						},
						{
							"internalType": "uint256",
							"name": "supply",
							"type": "uint256"
						}
					],
					"name": "_getTokenAmountForSinglePurchase",
					"outputs": [
						{
							"internalType": "uint256",
							"name": "",
							"type": "uint256"
						}
					],
					"stateMutability": "view",
					"type": "function"
				},
				{
					"inputs": [
						{
							"internalType": "address",
							"name": "_owner",
							"type": "address"
						}
					],
					"name": "balanceOf",
					"outputs": [
						{
							"internalType": "uint256",
							"name": "",
							"type": "uint256"
						}
					],
					"stateMutability": "view",
					"type": "function"
				},
				{
					"inputs": [
						{
							"internalType": "address[]",
							"name": "_addresses",
							"type": "address[]"
						},
						{
							"internalType": "uint256[]",
							"name": "_bps",
							"type": "uint256[]"
						},
						{
							"internalType": "uint256",
							"name": "",
							"type": "uint256"
						}
					],
					"name": "buyToken",
					"outputs": [
						{
							"internalType": "uint256",
							"name": "",
							"type": "uint256"
						}
					],
					"stateMutability": "payable",
					"type": "function"
				},
				{
					"inputs": [
						{
							"internalType": "int256",
							"name": "sold",
							"type": "int256"
						}
					],
					"name": "getTargetSaleTime",
					"outputs": [
						{
							"internalType": "int256",
							"name": "",
							"type": "int256"
						}
					],
					"stateMutability": "view",
					"type": "function"
				},
				{
					"inputs": [
						{
							"internalType": "uint256",
							"name": "payment",
							"type": "uint256"
						}
					],
					"name": "getTokenAmountForMultiPurchase",
					"outputs": [
						{
							"internalType": "uint256",
							"name": "",
							"type": "uint256"
						}
					],
					"stateMutability": "view",
					"type": "function"
				},
				{
					"inputs": [
						{
							"internalType": "uint256",
							"name": "tokensSoldSoFar",
							"type": "uint256"
						}
					],
					"name": "getTokenPrice",
					"outputs": [
						{
							"internalType": "uint256",
							"name": "",
							"type": "uint256"
						}
					],
					"stateMutability": "view",
					"type": "function"
				},
				{
					"inputs": [
						{
							"internalType": "int256",
							"name": "timeSinceStart",
							"type": "int256"
						},
						{
							"internalType": "uint256",
							"name": "sold",
							"type": "uint256"
						}
					],
					"name": "getVRGDAPrice",
					"outputs": [
						{
							"internalType": "uint256",
							"name": "",
							"type": "uint256"
						}
					],
					"stateMutability": "view",
					"type": "function"
				},
				{
					"inputs": [],
					"name": "startTime",
					"outputs": [
						{
							"internalType": "uint256",
							"name": "",
							"type": "uint256"
						}
					],
					"stateMutability": "view",
					"type": "function"
				},
				{
					"inputs": [],
					"name": "targetPrice",
					"outputs": [
						{
							"internalType": "int256",
							"name": "",
							"type": "int256"
						}
					],
					"stateMutability": "view",
					"type": "function"
				},
				{
					"inputs": [],
					"name": "token",
					"outputs": [
						{
							"internalType": "contract NontransferableERC20",
							"name": "",
							"type": "address"
						}
					],
					"stateMutability": "view",
					"type": "function"
				},
				{
					"inputs": [],
					"name": "totalSupply",
					"outputs": [
						{
							"internalType": "uint256",
							"name": "",
							"type": "uint256"
						}
					],
					"stateMutability": "view",
					"type": "function"
				}
			],
			"devdoc": {
				"errors": {
					"ReentrancyGuardReentrantCall()": [
						{
							"details": "Unauthorized reentrant call."
						}
					]
				},
				"kind": "dev",
				"methods": {
					"getTargetSaleTime(int256)": {
						"details": "Given a number of tokens sold, return the target time that number of tokens should be sold by.",
						"params": {
							"sold": "A number of tokens sold, scaled by 1e18, to get the corresponding target sale time for."
						},
						"returns": {
							"_0": "The target time the tokens should be sold by, scaled by 1e18, where the time is relative, such that 0 means the tokens should be sold immediately when the VRGDA begins."
						}
					},
					"getVRGDAPrice(int256,uint256)": {
						"params": {
							"sold": "The total number of tokens that have been sold so far.",
							"timeSinceStart": "Time passed since the VRGDA began, scaled by 1e18."
						},
						"returns": {
							"_0": "The price of a token according to VRGDA, scaled by 1e18."
						}
					}
				},
				"version": 1
			},
			"evm": {
				"assembly": "    /* \"packages/revolution-contracts/TokenEmitter.sol\":536:6074  contract TokenEmitter is LinearVRGDA, ITokenEmitter, ReentrancyGuard {... */\n  mstore(0x40, 0x0100)\n    /* \"packages/revolution-contracts/TokenEmitter.sol\":916:931  block.timestamp */\n  timestamp\n    /* \"packages/revolution-contracts/TokenEmitter.sol\":879:931  uint256 public immutable startTime = block.timestamp */\n  0xe0\n  mstore\n    /* \"packages/revolution-contracts/TokenEmitter.sol\":1001:1666  constructor(... */\n  callvalue\n  dup1\n  iszero\n  tag_1\n  jumpi\n  0x00\n  dup1\n  revert\ntag_1:\n  pop\n  mload(0x40)\n  sub(codesize, bytecodeSize)\n  dup1\n  bytecodeSize\n  dup4\n  codecopy\n  dup2\n  add\n  0x40\n  dup2\n  swap1\n  mstore\n  tag_2\n  swap2\n  tag_3\n  jump\t// in\ntag_2:\n    /* \"packages/revolution-contracts/libs/VRGDA.sol\":1292:1318  targetPrice = _targetPrice */\n  0x80\n  dup4\n  swap1\n  mstore\n    /* \"packages/revolution-contracts/TokenEmitter.sol\":1546:1558  _targetPrice */\n  dup3\n    /* \"packages/revolution-contracts/TokenEmitter.sol\":1560:1578  _priceDecayPercent */\n  dup3\n    /* \"packages/revolution-contracts/TokenEmitter.sol\":1580:1602  _governancePerTimeUnit */\n  dup3\n    /* \"packages/revolution-contracts/TokenEmitter.sol\":1546:1558  _targetPrice */\n  dup3\n    /* \"packages/revolution-contracts/TokenEmitter.sol\":1560:1578  _priceDecayPercent */\n  dup3\n    /* \"packages/revolution-contracts/libs/VRGDA.sol\":1345:1377  wadLn(1e18 - _priceDecayPercent) */\n  tag_9\n    /* \"packages/revolution-contracts/libs/VRGDA.sol\":1351:1376  1e18 - _priceDecayPercent */\n  tag_10\n    /* \"packages/revolution-contracts/TokenEmitter.sol\":1560:1578  _priceDecayPercent */\n  dup3\n    /* \"packages/revolution-contracts/libs/VRGDA.sol\":1351:1355  1e18 */\n  0x0de0b6b3a7640000\n    /* \"packages/revolution-contracts/libs/VRGDA.sol\":1351:1376  1e18 - _priceDecayPercent */\n  tag_11\n  jump\t// in\ntag_10:\n    /* \"packages/revolution-contracts/libs/VRGDA.sol\":1345:1350  wadLn */\n  tag_12\n    /* \"packages/revolution-contracts/libs/VRGDA.sol\":1345:1377  wadLn(1e18 - _priceDecayPercent) */\n  jump\t// in\ntag_9:\n    /* \"packages/revolution-contracts/libs/VRGDA.sol\":1329:1377  decayConstant = wadLn(1e18 - _priceDecayPercent) */\n  0xa0\n  dup2\n  swap1\n  mstore\n    /* \"packages/revolution-contracts/libs/VRGDA.sol\":1479:1480  0 */\n  0x00\n  sgt\n    /* \"packages/revolution-contracts/libs/VRGDA.sol\":1455:1512  require(decayConstant < 0, \"NON_NEGATIVE_DECAY_CONSTANT\") */\n  tag_13\n  jumpi\n  mload(0x40)\n  shl(0xe5, 0x461bcd)\n  dup2\n  mstore\n    /* \"#utility.yul\":1321:1323   */\n  0x20\n    /* \"packages/revolution-contracts/libs/VRGDA.sol\":1455:1512  require(decayConstant < 0, \"NON_NEGATIVE_DECAY_CONSTANT\") */\n  0x04\n  dup3\n  add\n    /* \"#utility.yul\":1303:1324   */\n  mstore\n    /* \"#utility.yul\":1360:1362   */\n  0x1b\n    /* \"#utility.yul\":1340:1358   */\n  0x24\n  dup3\n  add\n    /* \"#utility.yul\":1333:1363   */\n  mstore\n    /* \"#utility.yul\":1399:1428   */\n  0x4e4f4e5f4e454741544956455f44454341595f434f4e5354414e540000000000\n    /* \"#utility.yul\":1379:1397   */\n  0x44\n  dup3\n  add\n    /* \"#utility.yul\":1372:1429   */\n  mstore\n    /* \"#utility.yul\":1446:1464   */\n  0x64\n  add\n    /* \"packages/revolution-contracts/libs/VRGDA.sol\":1455:1512  require(decayConstant < 0, \"NON_NEGATIVE_DECAY_CONSTANT\") */\ntag_14:\n  mload(0x40)\n  dup1\n  swap2\n  sub\n  swap1\n  revert\ntag_13:\n  pop\n  pop\n    /* \"packages/revolution-contracts/libs/LinearVRGDA.sol\":1257:1283  perTimeUnit = _perTimeUnit */\n  0xc0\n  mstore\n  pop\n  pop\n    /* \"@openzeppelin/contracts/utils/ReentrancyGuard.sol\":1713:1714  1 */\n  0x01\n    /* \"@openzeppelin/contracts/utils/ReentrancyGuard.sol\":1917:1924  _status */\n  0x00\n    /* \"@openzeppelin/contracts/utils/ReentrancyGuard.sol\":1917:1938  _status = NOT_ENTERED */\n  dup2\n  swap1\n  sstore\n    /* \"packages/revolution-contracts/TokenEmitter.sol\":1614:1634  treasury = _treasury */\n  dup1\n  sload\n  sub(shl(0xa0, 0x01), 0x01)\n  swap6\n  dup7\n  and\n  not(sub(shl(0xa0, 0x01), 0x01))\n  swap2\n  dup3\n  and\n  or\n  swap1\n  swap2\n  sstore\n    /* \"packages/revolution-contracts/TokenEmitter.sol\":1645:1650  token */\n  0x02\n    /* \"packages/revolution-contracts/TokenEmitter.sol\":1645:1659  token = _token */\n  dup1\n  sload\n  swap7\n  swap1\n  swap6\n  and\n  swap6\n  and\n  swap5\n  swap1\n  swap5\n  or\n  swap1\n  swap3\n  sstore\n  pop\n    /* \"packages/revolution-contracts/TokenEmitter.sol\":536:6074  contract TokenEmitter is LinearVRGDA, ITokenEmitter, ReentrancyGuard {... */\n  tag_25\n  swap2\n  pop\n  pop\n  jump\n    /* \"packages/revolution-contracts/libs/SignedWadMath.sol\":6856:10125  function wadLn(int256 x) pure returns (int256 r) {... */\ntag_12:\n    /* \"packages/revolution-contracts/libs/SignedWadMath.sol\":6895:6903  int256 r */\n  0x00\n    /* \"packages/revolution-contracts/libs/SignedWadMath.sol\":6943:6944  0 */\n  dup1\n    /* \"packages/revolution-contracts/libs/SignedWadMath.sol\":6939:6940  x */\n  dup3\n    /* \"packages/revolution-contracts/libs/SignedWadMath.sol\":6939:6944  x > 0 */\n  sgt\n    /* \"packages/revolution-contracts/libs/SignedWadMath.sol\":6931:6958  require(x > 0, \"UNDEFINED\") */\n  tag_21\n  jumpi\n  mload(0x40)\n  shl(0xe5, 0x461bcd)\n  dup2\n  mstore\n    /* \"#utility.yul\":1677:1679   */\n  0x20\n    /* \"packages/revolution-contracts/libs/SignedWadMath.sol\":6931:6958  require(x > 0, \"UNDEFINED\") */\n  0x04\n  dup3\n  add\n    /* \"#utility.yul\":1659:1680   */\n  mstore\n    /* \"#utility.yul\":1716:1717   */\n  0x09\n    /* \"#utility.yul\":1696:1714   */\n  0x24\n  dup3\n  add\n    /* \"#utility.yul\":1689:1718   */\n  mstore\n  shl(0xba, 0x155391115192539151)\n    /* \"#utility.yul\":1734:1752   */\n  0x44\n  dup3\n  add\n    /* \"#utility.yul\":1727:1766   */\n  mstore\n    /* \"#utility.yul\":1783:1801   */\n  0x64\n  add\n    /* \"packages/revolution-contracts/libs/SignedWadMath.sol\":6931:6958  require(x > 0, \"UNDEFINED\") */\n  tag_14\n    /* \"#utility.yul\":1475:1807   */\n  jump\n    /* \"packages/revolution-contracts/libs/SignedWadMath.sol\":6931:6958  require(x > 0, \"UNDEFINED\") */\ntag_21:\n  pop\n    /* \"packages/revolution-contracts/libs/SignedWadMath.sol\":7852:7854  96 */\n  0x60\n  sub(shl(0x80, 0x01), 0x01)\n  dup3\n  gt\n    /* \"packages/revolution-contracts/libs/SignedWadMath.sol\":7307:7308  7 */\n  0x07\n    /* \"packages/revolution-contracts/libs/SignedWadMath.sol\":7303:7352  shl(7, lt(0xffffffffffffffffffffffffffffffff, x)) */\n  shl\n    /* \"packages/revolution-contracts/libs/SignedWadMath.sol\":7406:7415  shr(r, x) */\n  dup3\n  dup2\n  shr\n  sub(shl(0x40, 0x01), 0x01)\n    /* \"packages/revolution-contracts/libs/SignedWadMath.sol\":7383:7416  lt(0xffffffffffffffff, shr(r, x)) */\n  lt\n    /* \"packages/revolution-contracts/libs/SignedWadMath.sol\":7380:7381  6 */\n  0x06\n    /* \"packages/revolution-contracts/libs/SignedWadMath.sol\":7376:7417  shl(6, lt(0xffffffffffffffff, shr(r, x))) */\n  shl\n    /* \"packages/revolution-contracts/libs/SignedWadMath.sol\":7370:7418  or(r, shl(6, lt(0xffffffffffffffff, shr(r, x)))) */\n  or\n    /* \"packages/revolution-contracts/libs/SignedWadMath.sol\":7464:7473  shr(r, x) */\n  dup3\n  dup2\n  shr\n    /* \"packages/revolution-contracts/libs/SignedWadMath.sol\":7452:7462  0xffffffff */\n  0xffffffff\n    /* \"packages/revolution-contracts/libs/SignedWadMath.sol\":7449:7474  lt(0xffffffff, shr(r, x)) */\n  lt\n    /* \"packages/revolution-contracts/libs/SignedWadMath.sol\":7446:7447  5 */\n  0x05\n    /* \"packages/revolution-contracts/libs/SignedWadMath.sol\":7442:7475  shl(5, lt(0xffffffff, shr(r, x))) */\n  shl\n    /* \"packages/revolution-contracts/libs/SignedWadMath.sol\":7436:7476  or(r, shl(5, lt(0xffffffff, shr(r, x)))) */\n  or\n    /* \"packages/revolution-contracts/libs/SignedWadMath.sol\":7518:7527  shr(r, x) */\n  dup3\n  dup2\n  shr\n    /* \"packages/revolution-contracts/libs/SignedWadMath.sol\":7510:7516  0xffff */\n  0xffff\n    /* \"packages/revolution-contracts/libs/SignedWadMath.sol\":7507:7528  lt(0xffff, shr(r, x)) */\n  lt\n    /* \"packages/revolution-contracts/libs/SignedWadMath.sol\":7504:7505  4 */\n  0x04\n    /* \"packages/revolution-contracts/libs/SignedWadMath.sol\":7500:7529  shl(4, lt(0xffff, shr(r, x))) */\n  shl\n    /* \"packages/revolution-contracts/libs/SignedWadMath.sol\":7494:7530  or(r, shl(4, lt(0xffff, shr(r, x)))) */\n  or\n    /* \"packages/revolution-contracts/libs/SignedWadMath.sol\":7570:7579  shr(r, x) */\n  dup3\n  dup2\n  shr\n    /* \"packages/revolution-contracts/libs/SignedWadMath.sol\":7564:7568  0xff */\n  0xff\n    /* \"packages/revolution-contracts/libs/SignedWadMath.sol\":7561:7580  lt(0xff, shr(r, x)) */\n  lt\n    /* \"packages/revolution-contracts/libs/SignedWadMath.sol\":7558:7559  3 */\n  0x03\n    /* \"packages/revolution-contracts/libs/SignedWadMath.sol\":7554:7581  shl(3, lt(0xff, shr(r, x))) */\n  swap1\n  dup2\n  shl\n    /* \"packages/revolution-contracts/libs/SignedWadMath.sol\":7548:7582  or(r, shl(3, lt(0xff, shr(r, x)))) */\n  swap1\n  swap2\n  or\n    /* \"packages/revolution-contracts/libs/SignedWadMath.sol\":7621:7630  shr(r, x) */\n  dup4\n  dup2\n  shr\n    /* \"packages/revolution-contracts/libs/SignedWadMath.sol\":7616:7619  0xf */\n  0x0f\n    /* \"packages/revolution-contracts/libs/SignedWadMath.sol\":7613:7631  lt(0xf, shr(r, x)) */\n  lt\n    /* \"packages/revolution-contracts/libs/SignedWadMath.sol\":7610:7611  2 */\n  0x02\n    /* \"packages/revolution-contracts/libs/SignedWadMath.sol\":7606:7632  shl(2, lt(0xf, shr(r, x))) */\n  shl\n    /* \"packages/revolution-contracts/libs/SignedWadMath.sol\":7600:7633  or(r, shl(2, lt(0xf, shr(r, x)))) */\n  or\n    /* \"packages/revolution-contracts/libs/SignedWadMath.sol\":7672:7681  shr(r, x) */\n  dup4\n  dup2\n  shr\n    /* \"packages/revolution-contracts/libs/SignedWadMath.sol\":7664:7682  lt(0x3, shr(r, x)) */\n  swap1\n  swap2\n  lt\n    /* \"packages/revolution-contracts/libs/SignedWadMath.sol\":7661:7662  1 */\n  0x01\n    /* \"packages/revolution-contracts/libs/SignedWadMath.sol\":7657:7683  shl(1, lt(0x3, shr(r, x))) */\n  swap1\n  dup2\n  shl\n    /* \"packages/revolution-contracts/libs/SignedWadMath.sol\":7651:7684  or(r, shl(1, lt(0x3, shr(r, x)))) */\n  swap1\n  swap2\n  or\n    /* \"packages/revolution-contracts/libs/SignedWadMath.sol\":7716:7725  shr(r, x) */\n  dup4\n  dup2\n  shr\n    /* \"packages/revolution-contracts/libs/SignedWadMath.sol\":7708:7726  lt(0x1, shr(r, x)) */\n  swap1\n  swap2\n  lt\n    /* \"packages/revolution-contracts/libs/SignedWadMath.sol\":7702:7727  or(r, lt(0x1, shr(r, x))) */\n  or\n    /* \"packages/revolution-contracts/libs/SignedWadMath.sol\":7878:7881  159 */\n  0x9f\n    /* \"packages/revolution-contracts/libs/SignedWadMath.sol\":7878:7885  159 - k */\n  dup2\n  dup2\n  sub\n  dup4\n  add\n    /* \"packages/revolution-contracts/libs/SignedWadMath.sol\":7864:7886  x <<= uint256(159 - k) */\n  swap4\n  swap1\n  swap4\n  shl\n    /* \"packages/revolution-contracts/libs/SignedWadMath.sol\":7907:7924  uint256(x) >> 159 */\n  swap1\n  swap3\n  shr\n    /* \"packages/revolution-contracts/libs/SignedWadMath.sol\":8652:8683  5573035233440673466300451813936 */\n  0x465772b2bbbb5f824b15207a30\n    /* \"packages/revolution-contracts/libs/SignedWadMath.sol\":8648:8683  x + 5573035233440673466300451813936 */\n  dup2\n  add\n    /* \"packages/revolution-contracts/libs/SignedWadMath.sol\":8699:8704  q * x */\n  dup2\n  mul\n    /* \"packages/revolution-contracts/libs/SignedWadMath.sol\":8698:8711  (q * x) >> 96 */\n  dup3\n  sar\n    /* \"packages/revolution-contracts/libs/SignedWadMath.sol\":8715:8747  71694874799317883764090561454958 */\n  0x0388eaa27412d5aca026815d636e\n    /* \"packages/revolution-contracts/libs/SignedWadMath.sol\":8697:8747  ((q * x) >> 96) + 71694874799317883764090561454958 */\n  add\n    /* \"packages/revolution-contracts/libs/SignedWadMath.sol\":8763:8768  q * x */\n  dup2\n  mul\n    /* \"packages/revolution-contracts/libs/SignedWadMath.sol\":8762:8775  (q * x) >> 96 */\n  dup3\n  sar\n    /* \"packages/revolution-contracts/libs/SignedWadMath.sol\":8779:8812  283447036172924575727196451306956 */\n  0x0df99ac502031bf953eff472fdcc\n    /* \"packages/revolution-contracts/libs/SignedWadMath.sol\":8761:8812  ((q * x) >> 96) + 283447036172924575727196451306956 */\n  add\n    /* \"packages/revolution-contracts/libs/SignedWadMath.sol\":8828:8833  q * x */\n  dup2\n  mul\n    /* \"packages/revolution-contracts/libs/SignedWadMath.sol\":8827:8840  (q * x) >> 96 */\n  dup3\n  sar\n    /* \"packages/revolution-contracts/libs/SignedWadMath.sol\":8844:8877  401686690394027663651624208769553 */\n  0x13cdffb29d51d99322bdff5f2211\n    /* \"packages/revolution-contracts/libs/SignedWadMath.sol\":8826:8877  ((q * x) >> 96) + 401686690394027663651624208769553 */\n  add\n    /* \"packages/revolution-contracts/libs/SignedWadMath.sol\":8893:8898  q * x */\n  dup2\n  mul\n    /* \"packages/revolution-contracts/libs/SignedWadMath.sol\":8892:8905  (q * x) >> 96 */\n  dup3\n  sar\n    /* \"packages/revolution-contracts/libs/SignedWadMath.sol\":8909:8942  204048457590392012362485061816622 */\n  0x0a0f742023def783a307a986912e\n    /* \"packages/revolution-contracts/libs/SignedWadMath.sol\":8891:8942  ((q * x) >> 96) + 204048457590392012362485061816622 */\n  add\n    /* \"packages/revolution-contracts/libs/SignedWadMath.sol\":8958:8963  q * x */\n  dup2\n  mul\n    /* \"packages/revolution-contracts/libs/SignedWadMath.sol\":8957:8970  (q * x) >> 96 */\n  dup3\n  sar\n    /* \"packages/revolution-contracts/libs/SignedWadMath.sol\":8974:9006  31853899698501571402653359427138 */\n  0x01920d8043ca89b5239253284e42\n    /* \"packages/revolution-contracts/libs/SignedWadMath.sol\":8956:9006  ((q * x) >> 96) + 31853899698501571402653359427138 */\n  add\n    /* \"packages/revolution-contracts/libs/SignedWadMath.sol\":9022:9027  q * x */\n  dup2\n  mul\n    /* \"packages/revolution-contracts/libs/SignedWadMath.sol\":9021:9034  (q * x) >> 96 */\n  dup3\n  sar\n    /* \"packages/revolution-contracts/libs/SignedWadMath.sol\":9038:9068  909429971244387300277376558375 */\n  0x0b7a86d7375468fac667a0a527\n    /* \"packages/revolution-contracts/libs/SignedWadMath.sol\":9020:9068  ((q * x) >> 96) + 909429971244387300277376558375 */\n  add\n    /* \"packages/revolution-contracts/libs/SignedWadMath.sol\":8085:8116  3273285459638523848632254066296 */\n  0x29508e458543d8aa4df2abee78\n    /* \"packages/revolution-contracts/libs/SignedWadMath.sol\":8081:8116  x + 3273285459638523848632254066296 */\n  dup3\n  add\n    /* \"packages/revolution-contracts/libs/SignedWadMath.sol\":8132:8137  p * x */\n  dup3\n  mul\n    /* \"packages/revolution-contracts/libs/SignedWadMath.sol\":8131:8144  (p * x) >> 96 */\n  dup4\n  sar\n    /* \"packages/revolution-contracts/libs/SignedWadMath.sol\":8148:8180  24828157081833163892658089445524 */\n  0x0139601a2efabe717e604cbb4894\n    /* \"packages/revolution-contracts/libs/SignedWadMath.sol\":8130:8180  ((p * x) >> 96) + 24828157081833163892658089445524 */\n  add\n    /* \"packages/revolution-contracts/libs/SignedWadMath.sol\":8196:8201  p * x */\n  dup3\n  mul\n    /* \"packages/revolution-contracts/libs/SignedWadMath.sol\":8195:8208  (p * x) >> 96 */\n  dup4\n  sar\n    /* \"packages/revolution-contracts/libs/SignedWadMath.sol\":8212:8244  43456485725739037958740375743393 */\n  0x02247f7a7b6594320649aa03aba1\n    /* \"packages/revolution-contracts/libs/SignedWadMath.sol\":8194:8244  ((p * x) >> 96) + 43456485725739037958740375743393 */\n  add\n    /* \"packages/revolution-contracts/libs/SignedWadMath.sol\":8260:8265  p * x */\n  dup3\n  mul\n    /* \"packages/revolution-contracts/libs/SignedWadMath.sol\":8259:8272  (p * x) >> 96 */\n  dup4\n  sar\n  not(0x8c3f38e95a6b1ff2ab1c3b3436)\n    /* \"packages/revolution-contracts/libs/SignedWadMath.sol\":8258:8308  ((p * x) >> 96) - 11111509109440967052023855526967 */\n  add\n    /* \"packages/revolution-contracts/libs/SignedWadMath.sol\":8324:8329  p * x */\n  dup3\n  mul\n    /* \"packages/revolution-contracts/libs/SignedWadMath.sol\":8323:8336  (p * x) >> 96 */\n  dup4\n  sar\n  not(0x02384773bdf1ac5676facced6090)\n    /* \"packages/revolution-contracts/libs/SignedWadMath.sol\":8322:8372  ((p * x) >> 96) - 45023709667254063763336534515857 */\n  add\n    /* \"packages/revolution-contracts/libs/SignedWadMath.sol\":8388:8393  p * x */\n  dup3\n  mul\n    /* \"packages/revolution-contracts/libs/SignedWadMath.sol\":8387:8400  (p * x) >> 96 */\n  swap1\n  swap3\n  sar\n  not(0xb9a025d814b29c212b8b1a07cd)\n    /* \"packages/revolution-contracts/libs/SignedWadMath.sol\":8386:8436  ((p * x) >> 96) - 14706773417378608786704636184526 */\n  add\n    /* \"packages/revolution-contracts/libs/SignedWadMath.sol\":8450:8455  p * x */\n  mul\n  not(sub(shl(0x61, 0x0504a838426634cdd8738f5435), 0x01))\n    /* \"packages/revolution-contracts/libs/SignedWadMath.sol\":8450:8496  p * x - (795164235651350426258249787498 << 96) */\n  add\n    /* \"packages/revolution-contracts/libs/SignedWadMath.sol\":9385:9395  sdiv(p, q) */\n  sdiv\n    /* \"packages/revolution-contracts/libs/SignedWadMath.sol\":9739:9782  1677202110996718588342820967067443963516166 */\n  0x1340daa0d5f769dba1915cef59f0815a5506\n    /* \"packages/revolution-contracts/libs/SignedWadMath.sol\":9734:9782  r *= 1677202110996718588342820967067443963516166 */\n  mul\n  not(0x5f)\n    /* \"packages/revolution-contracts/libs/SignedWadMath.sol\":7848:7854  r - 96 */\n  swap2\n  swap1\n  swap2\n  add\n    /* \"packages/revolution-contracts/libs/SignedWadMath.sol\":9838:9909  16597577552685614221487285958193947469193820559219878177908093499208371 */\n  0x0267a36c0c95b3975ab3ee5b203a7614a3f75373f047d803ae7b6687f2b3\n    /* \"packages/revolution-contracts/libs/SignedWadMath.sol\":9838:9913  16597577552685614221487285958193947469193820559219878177908093499208371 * k */\n  mul\n    /* \"packages/revolution-contracts/libs/SignedWadMath.sol\":9833:9913  r += 16597577552685614221487285958193947469193820559219878177908093499208371 * k */\n  add\n    /* \"packages/revolution-contracts/libs/SignedWadMath.sol\":9978:10050  600920179829731861736702779321621459595472258049074101567377883020018308 */\n  0x57115e47018c7177eebf7cd370a3356a1b7863008a5ae8028c72b8864284\n    /* \"packages/revolution-contracts/libs/SignedWadMath.sol\":9973:10050  r += 600920179829731861736702779321621459595472258049074101567377883020018308 */\n  add\n    /* \"packages/revolution-contracts/libs/SignedWadMath.sol\":10113:10116  174 */\n  0xae\n    /* \"packages/revolution-contracts/libs/SignedWadMath.sol\":10107:10116  r >>= 174 */\n  sar\n  swap1\n    /* \"packages/revolution-contracts/libs/SignedWadMath.sol\":6856:10125  function wadLn(int256 x) pure returns (int256 r) {... */\n  jump\t// out\n    /* \"#utility.yul\":14:167   */\ntag_24:\n  sub(shl(0xa0, 0x01), 0x01)\n    /* \"#utility.yul\":111:142   */\n  dup2\n  and\n    /* \"#utility.yul\":101:143   */\n  dup2\n  eq\n    /* \"#utility.yul\":91:161   */\n  tag_27\n  jumpi\n    /* \"#utility.yul\":157:158   */\n  0x00\n    /* \"#utility.yul\":154:155   */\n  dup1\n    /* \"#utility.yul\":147:159   */\n  revert\n    /* \"#utility.yul\":91:161   */\ntag_27:\n    /* \"#utility.yul\":14:167   */\n  pop\n  jump\t// out\n    /* \"#utility.yul\":172:812   */\ntag_3:\n    /* \"#utility.yul\":304:310   */\n  0x00\n    /* \"#utility.yul\":312:318   */\n  dup1\n    /* \"#utility.yul\":320:326   */\n  0x00\n    /* \"#utility.yul\":328:334   */\n  dup1\n    /* \"#utility.yul\":336:342   */\n  0x00\n    /* \"#utility.yul\":389:392   */\n  0xa0\n    /* \"#utility.yul\":377:386   */\n  dup7\n    /* \"#utility.yul\":368:375   */\n  dup9\n    /* \"#utility.yul\":364:387   */\n  sub\n    /* \"#utility.yul\":360:393   */\n  slt\n    /* \"#utility.yul\":357:410   */\n  iszero\n  tag_29\n  jumpi\n    /* \"#utility.yul\":406:407   */\n  0x00\n    /* \"#utility.yul\":403:404   */\n  dup1\n    /* \"#utility.yul\":396:408   */\n  revert\n    /* \"#utility.yul\":357:410   */\ntag_29:\n    /* \"#utility.yul\":438:447   */\n  dup6\n    /* \"#utility.yul\":432:448   */\n  mload\n    /* \"#utility.yul\":457:510   */\n  tag_30\n    /* \"#utility.yul\":504:509   */\n  dup2\n    /* \"#utility.yul\":457:510   */\n  tag_24\n  jump\t// in\ntag_30:\n    /* \"#utility.yul\":579:581   */\n  0x20\n    /* \"#utility.yul\":564:582   */\n  dup8\n  add\n    /* \"#utility.yul\":558:583   */\n  mload\n    /* \"#utility.yul\":529:534   */\n  swap1\n  swap6\n  pop\n    /* \"#utility.yul\":592:647   */\n  tag_31\n    /* \"#utility.yul\":558:583   */\n  dup2\n    /* \"#utility.yul\":592:647   */\n  tag_24\n  jump\t// in\ntag_31:\n    /* \"#utility.yul\":713:715   */\n  0x40\n    /* \"#utility.yul\":698:716   */\n  dup8\n  add\n    /* \"#utility.yul\":692:717   */\n  mload\n    /* \"#utility.yul\":757:759   */\n  0x60\n    /* \"#utility.yul\":742:760   */\n  dup9\n  add\n    /* \"#utility.yul\":736:761   */\n  mload\n    /* \"#utility.yul\":801:804   */\n  0x80\n    /* \"#utility.yul\":786:805   */\n  swap1\n  swap9\n  add\n    /* \"#utility.yul\":780:806   */\n  mload\n    /* \"#utility.yul\":172:812   */\n  swap7\n  swap10\n    /* \"#utility.yul\":666:673   */\n  swap2\n  swap9\n  pop\n    /* \"#utility.yul\":692:717   */\n  swap7\n    /* \"#utility.yul\":736:761   */\n  swap6\n    /* \"#utility.yul\":780:806   */\n  swap5\n  pop\n    /* \"#utility.yul\":172:812   */\n  swap3\n  pop\n  pop\n  pop\n  jump\t// out\n    /* \"#utility.yul\":817:1114   */\ntag_11:\n    /* \"#utility.yul\":883:892   */\n  dup2\n  dup2\n  sub\n    /* \"#utility.yul\":856:860   */\n  0x00\n    /* \"#utility.yul\":911:920   */\n  dup4\n  slt\n    /* \"#utility.yul\":939:949   */\n  dup1\n  iszero\n    /* \"#utility.yul\":951:963   */\n  dup4\n  dup4\n  sgt\n    /* \"#utility.yul\":935:964   */\n  and\n    /* \"#utility.yul\":974:986   */\n  dup4\n  dup4\n  slt\n    /* \"#utility.yul\":966:987   */\n  dup3\n  and\n    /* \"#utility.yul\":932:988   */\n  or\n    /* \"#utility.yul\":929:1108   */\n  iszero\n  tag_33\n  jumpi\n    /* \"#utility.yul\":1030:1040   */\n  0x4e487b71\n    /* \"#utility.yul\":1025:1028   */\n  0xe0\n    /* \"#utility.yul\":1021:1041   */\n  shl\n    /* \"#utility.yul\":1018:1019   */\n  0x00\n    /* \"#utility.yul\":1011:1042   */\n  mstore\n    /* \"#utility.yul\":1065:1069   */\n  0x11\n    /* \"#utility.yul\":1062:1063   */\n  0x04\n    /* \"#utility.yul\":1055:1070   */\n  mstore\n    /* \"#utility.yul\":1093:1097   */\n  0x24\n    /* \"#utility.yul\":1090:1091   */\n  0x00\n    /* \"#utility.yul\":1083:1098   */\n  revert\n    /* \"#utility.yul\":929:1108   */\ntag_33:\n  pop\n    /* \"#utility.yul\":817:1114   */\n  swap3\n  swap2\n  pop\n  pop\n  jump\t// out\n    /* \"#utility.yul\":1475:1807   */\ntag_25:\n    /* \"packages/revolution-contracts/TokenEmitter.sol\":536:6074  contract TokenEmitter is LinearVRGDA, ITokenEmitter, ReentrancyGuard {... */\n  mload(0x80)\n  mload(0xa0)\n  mload(0xc0)\n  mload(0xe0)\n  codecopy(0x00, dataOffset(sub_0), dataSize(sub_0))\n  0x00\n  assignImmutable(\"0x11e71f01d3621d7090d68d54b26900749cfcc68885b7bc6f2e18d9b762711b42\")\n  0x00\n  assignImmutable(\"0xa8ea1ee9d62307d190bf897e0d0e646fb969abde33eed40ef131c8a19f303559\")\n  0x00\n  assignImmutable(\"0xe152391e880680785b8297811e752bfde3d2926e8154bc2d7749de22b772d25f\")\n  0x00\n  assignImmutable(\"0x5472fdd700a9b2b6613d103095048c92304e97215a2607f73a9d5aa3701f3f09\")\n  return(0x00, dataSize(sub_0))\nstop\n\nsub_0: assembly {\n        /* \"packages/revolution-contracts/TokenEmitter.sol\":536:6074  contract TokenEmitter is LinearVRGDA, ITokenEmitter, ReentrancyGuard {... */\n      mstore(0x40, 0x80)\n      jumpi(tag_1, lt(calldatasize, 0x04))\n      shr(0xe0, calldataload(0x00))\n      dup1\n      0xae9cdbe3\n      gt\n      tag_14\n      jumpi\n      dup1\n      0xae9cdbe3\n      eq\n      tag_8\n      jumpi\n      dup1\n      0xc457fb37\n      eq\n      tag_9\n      jumpi\n      dup1\n      0xdc38679c\n      eq\n      tag_10\n      jumpi\n      dup1\n      0xdec86df1\n      eq\n      tag_11\n      jumpi\n      dup1\n      0xf466d4ab\n      eq\n      tag_12\n      jumpi\n      dup1\n      0xfc0c546a\n      eq\n      tag_13\n      jumpi\n      0x00\n      dup1\n      revert\n    tag_14:\n      dup1\n      0x18160ddd\n      eq\n      tag_2\n      jumpi\n      dup1\n      0x244ec3c8\n      eq\n      tag_3\n      jumpi\n      dup1\n      0x6d9d33b7\n      eq\n      tag_4\n      jumpi\n      dup1\n      0x70a08231\n      eq\n      tag_5\n      jumpi\n      dup1\n      0x78e97925\n      eq\n      tag_6\n      jumpi\n      dup1\n      0x7ba7614f\n      eq\n      tag_7\n      jumpi\n    tag_1:\n      0x00\n      dup1\n      revert\n        /* \"packages/revolution-contracts/TokenEmitter.sol\":1769:1908  function totalSupply() public view returns (uint) {... */\n    tag_2:\n      callvalue\n      dup1\n      iszero\n      tag_15\n      jumpi\n      0x00\n      dup1\n      revert\n    tag_15:\n      pop\n      tag_16\n      tag_17\n      jump\t// in\n    tag_16:\n      mload(0x40)\n        /* \"#utility.yul\":160:185   */\n      swap1\n      dup2\n      mstore\n        /* \"#utility.yul\":148:150   */\n      0x20\n        /* \"#utility.yul\":133:151   */\n      add\n        /* \"packages/revolution-contracts/TokenEmitter.sol\":1769:1908  function totalSupply() public view returns (uint) {... */\n    tag_18:\n      mload(0x40)\n      dup1\n      swap2\n      sub\n      swap1\n      return\n        /* \"packages/revolution-contracts/TokenEmitter.sol\":3152:3911  function _getTokenAmountForSinglePurchase(uint256 payment, uint256 supply) public view returns (uint256) {... */\n    tag_3:\n      callvalue\n      dup1\n      iszero\n      tag_20\n      jumpi\n      0x00\n      dup1\n      revert\n    tag_20:\n      pop\n      tag_16\n      tag_22\n      calldatasize\n      0x04\n      tag_23\n      jump\t// in\n    tag_22:\n      tag_24\n      jump\t// in\n        /* \"packages/revolution-contracts/libs/LinearVRGDA.sol\":1888:2029  function getTargetSaleTime(int256 sold) public view virtual override returns (int256) {... */\n    tag_4:\n      callvalue\n      dup1\n      iszero\n      tag_26\n      jumpi\n      0x00\n      dup1\n      revert\n    tag_26:\n      pop\n      tag_16\n      tag_28\n      calldatasize\n      0x04\n      tag_29\n      jump\t// in\n    tag_28:\n      tag_30\n      jump\t// in\n        /* \"packages/revolution-contracts/TokenEmitter.sol\":1914:2061  function balanceOf(address _owner) public view returns (uint) {... */\n    tag_5:\n      callvalue\n      dup1\n      iszero\n      tag_33\n      jumpi\n      0x00\n      dup1\n      revert\n    tag_33:\n      pop\n      tag_16\n      tag_35\n      calldatasize\n      0x04\n      tag_36\n      jump\t// in\n    tag_35:\n      tag_37\n      jump\t// in\n        /* \"packages/revolution-contracts/TokenEmitter.sol\":879:931  uint256 public immutable startTime = block.timestamp */\n    tag_6:\n      callvalue\n      dup1\n      iszero\n      tag_39\n      jumpi\n      0x00\n      dup1\n      revert\n    tag_39:\n      pop\n      tag_16\n      immutable(\"0x11e71f01d3621d7090d68d54b26900749cfcc68885b7bc6f2e18d9b762711b42\")\n      dup2\n      jump\n        /* \"packages/revolution-contracts/TokenEmitter.sol\":3917:5219  function getTokenAmountForMultiPurchase(uint256 payment) public view returns (uint256) {... */\n    tag_7:\n      callvalue\n      dup1\n      iszero\n      tag_43\n      jumpi\n      0x00\n      dup1\n      revert\n    tag_43:\n      pop\n      tag_16\n      tag_45\n      calldatasize\n      0x04\n      tag_29\n      jump\t// in\n    tag_45:\n      tag_47\n      jump\t// in\n        /* \"packages/revolution-contracts/TokenEmitter.sol\":5396:5679  function UNSAFE_getOverestimateTokenAmount(uint256 payment, uint256 supply) public view returns (uint256) {... */\n    tag_8:\n      callvalue\n      dup1\n      iszero\n      tag_49\n      jumpi\n      0x00\n      dup1\n      revert\n    tag_49:\n      pop\n      tag_16\n      tag_51\n      calldatasize\n      0x04\n      tag_23\n      jump\t// in\n    tag_51:\n      tag_52\n      jump\t// in\n        /* \"packages/revolution-contracts/TokenEmitter.sol\":5685:6072  function getTokenPrice(uint256 tokensSoldSoFar) public view returns (uint256) {... */\n    tag_9:\n      callvalue\n      dup1\n      iszero\n      tag_54\n      jumpi\n      0x00\n      dup1\n      revert\n    tag_54:\n      pop\n      tag_16\n      tag_56\n      calldatasize\n      0x04\n      tag_29\n      jump\t// in\n    tag_56:\n      tag_57\n      jump\t// in\n        /* \"packages/revolution-contracts/libs/VRGDA.sol\":715:750  int256 public immutable targetPrice */\n    tag_10:\n      callvalue\n      dup1\n      iszero\n      tag_59\n      jumpi\n      0x00\n      dup1\n      revert\n    tag_59:\n      pop\n      tag_16\n      immutable(\"0x5472fdd700a9b2b6613d103095048c92304e97215a2607f73a9d5aa3701f3f09\")\n      dup2\n      jump\n        /* \"packages/revolution-contracts/TokenEmitter.sol\":2149:3081  function buyToken(address[] memory _addresses, uint[] memory _bps, uint256) public payable nonReentrant returns (uint256) {... */\n    tag_11:\n      tag_16\n      tag_64\n      calldatasize\n      0x04\n      tag_65\n      jump\t// in\n    tag_64:\n      tag_66\n      jump\t// in\n        /* \"packages/revolution-contracts/libs/VRGDA.sol\":2016:2810  function getVRGDAPrice(int256 timeSinceStart, uint256 sold) public view virtual returns (uint256) {... */\n    tag_12:\n      callvalue\n      dup1\n      iszero\n      tag_68\n      jumpi\n      0x00\n      dup1\n      revert\n    tag_68:\n      pop\n      tag_16\n      tag_70\n      calldatasize\n      0x04\n      tag_23\n      jump\t// in\n    tag_70:\n      tag_72\n      jump\t// in\n        /* \"packages/revolution-contracts/TokenEmitter.sol\":789:822  NontransferableERC20 public token */\n    tag_13:\n      callvalue\n      dup1\n      iszero\n      tag_74\n      jumpi\n      0x00\n      dup1\n      revert\n    tag_74:\n      pop\n      sload(0x02)\n      tag_75\n      swap1\n      sub(shl(0xa0, 0x01), 0x01)\n      and\n      dup2\n      jump\n    tag_75:\n      mload(0x40)\n      sub(shl(0xa0, 0x01), 0x01)\n        /* \"#utility.yul\":4304:4336   */\n      swap1\n      swap2\n      and\n        /* \"#utility.yul\":4286:4337   */\n      dup2\n      mstore\n        /* \"#utility.yul\":4274:4276   */\n      0x20\n        /* \"#utility.yul\":4259:4277   */\n      add\n        /* \"packages/revolution-contracts/TokenEmitter.sol\":789:822  NontransferableERC20 public token */\n      tag_18\n        /* \"#utility.yul\":4111:4343   */\n      jump\n        /* \"packages/revolution-contracts/TokenEmitter.sol\":1769:1908  function totalSupply() public view returns (uint) {... */\n    tag_17:\n        /* \"packages/revolution-contracts/TokenEmitter.sol\":1882:1887  token */\n      sload(0x02)\n        /* \"packages/revolution-contracts/TokenEmitter.sol\":1882:1901  token.totalSupply() */\n      0x40\n      dup1\n      mload\n      shl(0xe0, 0x18160ddd)\n      dup2\n      mstore\n      swap1\n      mload\n        /* \"packages/revolution-contracts/TokenEmitter.sol\":1813:1817  uint */\n      0x00\n      swap3\n      sub(shl(0xa0, 0x01), 0x01)\n        /* \"packages/revolution-contracts/TokenEmitter.sol\":1882:1887  token */\n      and\n      swap2\n        /* \"packages/revolution-contracts/TokenEmitter.sol\":1882:1899  token.totalSupply */\n      0x18160ddd\n      swap2\n        /* \"packages/revolution-contracts/TokenEmitter.sol\":1882:1901  token.totalSupply() */\n      0x04\n      dup1\n      dup4\n      add\n      swap3\n      0x20\n      swap3\n      swap2\n      swap1\n      dup3\n      swap1\n      sub\n      add\n      dup2\n        /* \"packages/revolution-contracts/TokenEmitter.sol\":1882:1887  token */\n      dup7\n        /* \"packages/revolution-contracts/TokenEmitter.sol\":1882:1901  token.totalSupply() */\n      gas\n      staticcall\n      iszero\n      dup1\n      iszero\n      tag_81\n      jumpi\n      returndatasize\n      0x00\n      dup1\n      returndatacopy\n      revert(0x00, returndatasize)\n    tag_81:\n      pop\n      pop\n      pop\n      pop\n      mload(0x40)\n      returndatasize\n      not(0x1f)\n      0x1f\n      dup3\n      add\n      and\n      dup3\n      add\n      dup1\n      0x40\n      mstore\n      pop\n      dup2\n      add\n      swap1\n      tag_82\n      swap2\n      swap1\n      tag_83\n      jump\t// in\n    tag_82:\n        /* \"packages/revolution-contracts/TokenEmitter.sol\":1875:1901  return token.totalSupply() */\n      swap1\n      pop\n        /* \"packages/revolution-contracts/TokenEmitter.sol\":1769:1908  function totalSupply() public view returns (uint) {... */\n      swap1\n      jump\t// out\n        /* \"packages/revolution-contracts/TokenEmitter.sol\":3152:3911  function _getTokenAmountForSinglePurchase(uint256 payment, uint256 supply) public view returns (uint256) {... */\n    tag_24:\n        /* \"packages/revolution-contracts/TokenEmitter.sol\":3248:3255  uint256 */\n      0x00\n        /* \"packages/revolution-contracts/TokenEmitter.sol\":3400:3427  uint256 overestimatedAmount */\n      dup1\n        /* \"packages/revolution-contracts/TokenEmitter.sol\":3430:3480  UNSAFE_getOverestimateTokenAmount(payment, supply) */\n      tag_85\n        /* \"packages/revolution-contracts/TokenEmitter.sol\":3464:3471  payment */\n      dup5\n        /* \"packages/revolution-contracts/TokenEmitter.sol\":3473:3479  supply */\n      dup5\n        /* \"packages/revolution-contracts/TokenEmitter.sol\":3430:3463  UNSAFE_getOverestimateTokenAmount */\n      tag_52\n        /* \"packages/revolution-contracts/TokenEmitter.sol\":3430:3480  UNSAFE_getOverestimateTokenAmount(payment, supply) */\n      jump\t// in\n    tag_85:\n        /* \"packages/revolution-contracts/TokenEmitter.sol\":3400:3480  uint256 overestimatedAmount = UNSAFE_getOverestimateTokenAmount(payment, supply) */\n      swap1\n      pop\n        /* \"packages/revolution-contracts/TokenEmitter.sol\":3609:3635  uint256 overestimatedPrice */\n      0x00\n        /* \"packages/revolution-contracts/TokenEmitter.sol\":3638:3681  getTokenPrice(supply + overestimatedAmount) */\n      tag_86\n        /* \"packages/revolution-contracts/TokenEmitter.sol\":3652:3680  supply + overestimatedAmount */\n      tag_56\n        /* \"packages/revolution-contracts/TokenEmitter.sol\":3400:3480  uint256 overestimatedAmount = UNSAFE_getOverestimateTokenAmount(payment, supply) */\n      dup4\n        /* \"packages/revolution-contracts/TokenEmitter.sol\":3652:3658  supply */\n      dup7\n        /* \"packages/revolution-contracts/TokenEmitter.sol\":3652:3680  supply + overestimatedAmount */\n      tag_88\n      jump\t// in\n        /* \"packages/revolution-contracts/TokenEmitter.sol\":3638:3681  getTokenPrice(supply + overestimatedAmount) */\n    tag_86:\n        /* \"packages/revolution-contracts/TokenEmitter.sol\":3609:3681  uint256 overestimatedPrice = getTokenPrice(supply + overestimatedAmount) */\n      swap1\n      pop\n        /* \"packages/revolution-contracts/TokenEmitter.sol\":3807:3835  uint256 underestimatedAmount */\n      0x00\n        /* \"packages/revolution-contracts/TokenEmitter.sol\":3838:3866  payment / overestimatedPrice */\n      tag_89\n        /* \"packages/revolution-contracts/TokenEmitter.sol\":3609:3681  uint256 overestimatedPrice = getTokenPrice(supply + overestimatedAmount) */\n      dup3\n        /* \"packages/revolution-contracts/TokenEmitter.sol\":3838:3845  payment */\n      dup8\n        /* \"packages/revolution-contracts/TokenEmitter.sol\":3838:3866  payment / overestimatedPrice */\n      tag_90\n      jump\t// in\n    tag_89:\n        /* \"packages/revolution-contracts/TokenEmitter.sol\":3807:3866  uint256 underestimatedAmount = payment / overestimatedPrice */\n      swap4\n      pop\n      pop\n      pop\n      pop\n        /* \"packages/revolution-contracts/TokenEmitter.sol\":3152:3911  function _getTokenAmountForSinglePurchase(uint256 payment, uint256 supply) public view returns (uint256) {... */\n    tag_84:\n      swap3\n      swap2\n      pop\n      pop\n      jump\t// out\n        /* \"packages/revolution-contracts/libs/LinearVRGDA.sol\":1888:2029  function getTargetSaleTime(int256 sold) public view virtual override returns (int256) {... */\n    tag_30:\n        /* \"packages/revolution-contracts/libs/LinearVRGDA.sol\":1966:1972  int256 */\n      0x00\n        /* \"packages/revolution-contracts/libs/LinearVRGDA.sol\":2010:2021  perTimeUnit */\n      immutable(\"0xa8ea1ee9d62307d190bf897e0d0e646fb969abde33eed40ef131c8a19f303559\")\n        /* \"packages/revolution-contracts/libs/SignedWadMath.sol\":2175:2194  1000000000000000000 */\n      0x0de0b6b3a7640000\n        /* \"packages/revolution-contracts/libs/SignedWadMath.sol\":2168:2195  mul(x, 1000000000000000000) */\n      dup4\n      mul\n        /* \"packages/revolution-contracts/libs/SignedWadMath.sol\":2163:2199  sdiv(mul(x, 1000000000000000000), y) */\n      sdiv\n        /* \"packages/revolution-contracts/libs/LinearVRGDA.sol\":1991:2022  unsafeWadDiv(sold, perTimeUnit) */\n      tag_84\n        /* \"packages/revolution-contracts/libs/SignedWadMath.sol\":1978:2207  function unsafeWadDiv(int256 x, int256 y) pure returns (int256 r) {... */\n      jump\n        /* \"packages/revolution-contracts/TokenEmitter.sol\":1914:2061  function balanceOf(address _owner) public view returns (uint) {... */\n    tag_37:\n        /* \"packages/revolution-contracts/TokenEmitter.sol\":2031:2036  token */\n      sload(0x02)\n        /* \"packages/revolution-contracts/TokenEmitter.sol\":2031:2054  token.balanceOf(_owner) */\n      mload(0x40)\n      shl(0xe0, 0x70a08231)\n      dup2\n      mstore\n      sub(shl(0xa0, 0x01), 0x01)\n        /* \"#utility.yul\":4304:4336   */\n      dup4\n      dup2\n      and\n        /* \"packages/revolution-contracts/TokenEmitter.sol\":2031:2054  token.balanceOf(_owner) */\n      0x04\n      dup4\n      add\n        /* \"#utility.yul\":4286:4337   */\n      mstore\n        /* \"packages/revolution-contracts/TokenEmitter.sol\":1970:1974  uint */\n      0x00\n      swap3\n        /* \"packages/revolution-contracts/TokenEmitter.sol\":2031:2036  token */\n      and\n      swap1\n        /* \"packages/revolution-contracts/TokenEmitter.sol\":2031:2046  token.balanceOf */\n      0x70a08231\n      swap1\n        /* \"#utility.yul\":4259:4277   */\n      0x24\n      add\n        /* \"packages/revolution-contracts/TokenEmitter.sol\":2031:2054  token.balanceOf(_owner) */\n      0x20\n      mload(0x40)\n      dup1\n      dup4\n      sub\n      dup2\n      dup7\n      gas\n      staticcall\n      iszero\n      dup1\n      iszero\n      tag_98\n      jumpi\n      returndatasize\n      0x00\n      dup1\n      returndatacopy\n      revert(0x00, returndatasize)\n    tag_98:\n      pop\n      pop\n      pop\n      pop\n      mload(0x40)\n      returndatasize\n      not(0x1f)\n      0x1f\n      dup3\n      add\n      and\n      dup3\n      add\n      dup1\n      0x40\n      mstore\n      pop\n      dup2\n      add\n      swap1\n      tag_84\n      swap2\n      swap1\n      tag_83\n      jump\t// in\n        /* \"packages/revolution-contracts/TokenEmitter.sol\":3917:5219  function getTokenAmountForMultiPurchase(uint256 payment) public view returns (uint256) {... */\n    tag_47:\n        /* \"packages/revolution-contracts/TokenEmitter.sol\":3995:4002  uint256 */\n      0x00\n        /* \"packages/revolution-contracts/TokenEmitter.sol\":4281:4288  payment */\n      dup2\n        /* \"packages/revolution-contracts/TokenEmitter.sol\":3995:4002  uint256 */\n      dup2\n        /* \"packages/revolution-contracts/TokenEmitter.sol\":4462:4466  1e15 */\n      0x038d7ea4c68000\n        /* \"packages/revolution-contracts/TokenEmitter.sol\":4565:5185  while (remainingEth > 0) {... */\n    tag_101:\n        /* \"packages/revolution-contracts/TokenEmitter.sol\":4572:4588  remainingEth > 0 */\n      dup3\n      iszero\n        /* \"packages/revolution-contracts/TokenEmitter.sol\":4565:5185  while (remainingEth > 0) {... */\n      tag_102\n      jumpi\n        /* \"packages/revolution-contracts/TokenEmitter.sol\":4740:4754  INCREMENT_SIZE */\n      dup1\n        /* \"packages/revolution-contracts/TokenEmitter.sol\":4725:4737  remainingEth */\n      dup4\n        /* \"packages/revolution-contracts/TokenEmitter.sol\":4725:4754  remainingEth < INCREMENT_SIZE */\n      lt\n        /* \"packages/revolution-contracts/TokenEmitter.sol\":4721:5175  if (remainingEth < INCREMENT_SIZE) {... */\n      iszero\n      tag_103\n      jumpi\n        /* \"packages/revolution-contracts/TokenEmitter.sol\":4789:4864  _getTokenAmountForSinglePurchase(remainingEth, totalSupply() + tokenAmount) */\n      tag_104\n        /* \"packages/revolution-contracts/TokenEmitter.sol\":4822:4834  remainingEth */\n      dup4\n        /* \"packages/revolution-contracts/TokenEmitter.sol\":4852:4863  tokenAmount */\n      dup4\n        /* \"packages/revolution-contracts/TokenEmitter.sol\":4836:4849  totalSupply() */\n      tag_105\n        /* \"packages/revolution-contracts/TokenEmitter.sol\":4836:4847  totalSupply */\n      tag_17\n        /* \"packages/revolution-contracts/TokenEmitter.sol\":4836:4849  totalSupply() */\n      jump\t// in\n    tag_105:\n        /* \"packages/revolution-contracts/TokenEmitter.sol\":4836:4863  totalSupply() + tokenAmount */\n      tag_22\n      swap2\n      swap1\n      tag_88\n      jump\t// in\n        /* \"packages/revolution-contracts/TokenEmitter.sol\":4789:4864  _getTokenAmountForSinglePurchase(remainingEth, totalSupply() + tokenAmount) */\n    tag_104:\n        /* \"packages/revolution-contracts/TokenEmitter.sol\":4774:4864  tokenAmount += _getTokenAmountForSinglePurchase(remainingEth, totalSupply() + tokenAmount) */\n      tag_107\n      swap1\n      dup4\n      tag_88\n      jump\t// in\n    tag_107:\n      swap2\n      pop\n        /* \"packages/revolution-contracts/TokenEmitter.sol\":4897:4898  0 */\n      0x00\n        /* \"packages/revolution-contracts/TokenEmitter.sol\":4882:4898  remainingEth = 0 */\n      swap3\n      pop\n        /* \"packages/revolution-contracts/TokenEmitter.sol\":4565:5185  while (remainingEth > 0) {... */\n      jump(tag_101)\n        /* \"packages/revolution-contracts/TokenEmitter.sol\":4721:5175  if (remainingEth < INCREMENT_SIZE) {... */\n    tag_103:\n        /* \"packages/revolution-contracts/TokenEmitter.sol\":5035:5112  _getTokenAmountForSinglePurchase(INCREMENT_SIZE, totalSupply() + tokenAmount) */\n      tag_109\n        /* \"packages/revolution-contracts/TokenEmitter.sol\":5068:5082  INCREMENT_SIZE */\n      dup2\n        /* \"packages/revolution-contracts/TokenEmitter.sol\":5100:5111  tokenAmount */\n      dup4\n        /* \"packages/revolution-contracts/TokenEmitter.sol\":5084:5097  totalSupply() */\n      tag_105\n        /* \"packages/revolution-contracts/TokenEmitter.sol\":5084:5095  totalSupply */\n      tag_17\n        /* \"packages/revolution-contracts/TokenEmitter.sol\":5084:5097  totalSupply() */\n      jump\t// in\n        /* \"packages/revolution-contracts/TokenEmitter.sol\":5035:5112  _getTokenAmountForSinglePurchase(INCREMENT_SIZE, totalSupply() + tokenAmount) */\n    tag_109:\n        /* \"packages/revolution-contracts/TokenEmitter.sol\":5020:5112  tokenAmount += _getTokenAmountForSinglePurchase(INCREMENT_SIZE, totalSupply() + tokenAmount) */\n      tag_112\n      swap1\n      dup4\n      tag_88\n      jump\t// in\n    tag_112:\n      swap2\n      pop\n        /* \"packages/revolution-contracts/TokenEmitter.sol\":5130:5160  remainingEth -= INCREMENT_SIZE */\n      tag_113\n        /* \"packages/revolution-contracts/TokenEmitter.sol\":5146:5160  INCREMENT_SIZE */\n      dup2\n        /* \"packages/revolution-contracts/TokenEmitter.sol\":5130:5160  remainingEth -= INCREMENT_SIZE */\n      dup5\n      tag_114\n      jump\t// in\n    tag_113:\n      swap3\n      pop\n        /* \"packages/revolution-contracts/TokenEmitter.sol\":4565:5185  while (remainingEth > 0) {... */\n      jump(tag_101)\n    tag_102:\n      pop\n        /* \"packages/revolution-contracts/TokenEmitter.sol\":5201:5212  tokenAmount */\n      swap4\n        /* \"packages/revolution-contracts/TokenEmitter.sol\":3917:5219  function getTokenAmountForMultiPurchase(uint256 payment) public view returns (uint256) {... */\n      swap3\n      pop\n      pop\n      pop\n      jump\t// out\n        /* \"packages/revolution-contracts/TokenEmitter.sol\":5396:5679  function UNSAFE_getOverestimateTokenAmount(uint256 payment, uint256 supply) public view returns (uint256) {... */\n    tag_52:\n        /* \"packages/revolution-contracts/TokenEmitter.sol\":5493:5500  uint256 */\n      0x00\n        /* \"packages/revolution-contracts/TokenEmitter.sol\":5512:5538  uint256 priceForFirstToken */\n      dup1\n        /* \"packages/revolution-contracts/TokenEmitter.sol\":5541:5562  getTokenPrice(supply) */\n      tag_116\n        /* \"packages/revolution-contracts/TokenEmitter.sol\":5555:5561  supply */\n      dup4\n        /* \"packages/revolution-contracts/TokenEmitter.sol\":5541:5554  getTokenPrice */\n      tag_57\n        /* \"packages/revolution-contracts/TokenEmitter.sol\":5541:5562  getTokenPrice(supply) */\n      jump\t// in\n    tag_116:\n        /* \"packages/revolution-contracts/TokenEmitter.sol\":5512:5562  uint256 priceForFirstToken = getTokenPrice(supply) */\n      swap1\n      pop\n        /* \"packages/revolution-contracts/TokenEmitter.sol\":5572:5602  uint256 initialEstimatedAmount */\n      0x00\n        /* \"packages/revolution-contracts/TokenEmitter.sol\":5605:5633  payment / priceForFirstToken */\n      tag_117\n        /* \"packages/revolution-contracts/TokenEmitter.sol\":5512:5562  uint256 priceForFirstToken = getTokenPrice(supply) */\n      dup3\n        /* \"packages/revolution-contracts/TokenEmitter.sol\":5605:5612  payment */\n      dup7\n        /* \"packages/revolution-contracts/TokenEmitter.sol\":5605:5633  payment / priceForFirstToken */\n      tag_90\n      jump\t// in\n    tag_117:\n        /* \"packages/revolution-contracts/TokenEmitter.sol\":5572:5633  uint256 initialEstimatedAmount = payment / priceForFirstToken */\n      swap6\n        /* \"packages/revolution-contracts/TokenEmitter.sol\":5396:5679  function UNSAFE_getOverestimateTokenAmount(uint256 payment, uint256 supply) public view returns (uint256) {... */\n      swap5\n      pop\n      pop\n      pop\n      pop\n      pop\n      jump\t// out\n        /* \"packages/revolution-contracts/TokenEmitter.sol\":5685:6072  function getTokenPrice(uint256 tokensSoldSoFar) public view returns (uint256) {... */\n    tag_57:\n        /* \"packages/revolution-contracts/TokenEmitter.sol\":5754:5761  uint256 */\n      0x00\n      dup1\n        /* \"packages/revolution-contracts/TokenEmitter.sol\":5966:6042  getVRGDAPrice(toDaysWadUnsafe(block.timestamp - startTime), tokensSoldSoFar) */\n      tag_119\n        /* \"packages/revolution-contracts/TokenEmitter.sol\":5980:6024  toDaysWadUnsafe(block.timestamp - startTime) */\n      tag_120\n        /* \"packages/revolution-contracts/TokenEmitter.sol\":5996:6023  block.timestamp - startTime */\n      tag_121\n        /* \"packages/revolution-contracts/TokenEmitter.sol\":6014:6023  startTime */\n      immutable(\"0x11e71f01d3621d7090d68d54b26900749cfcc68885b7bc6f2e18d9b762711b42\")\n        /* \"packages/revolution-contracts/TokenEmitter.sol\":5996:6011  block.timestamp */\n      timestamp\n        /* \"packages/revolution-contracts/TokenEmitter.sol\":5996:6023  block.timestamp - startTime */\n      tag_114\n      jump\t// in\n    tag_121:\n        /* \"packages/revolution-contracts/libs/SignedWadMath.sol\":1046:1051  86400 */\n      0x015180\n        /* \"packages/revolution-contracts/libs/SignedWadMath.sol\":1024:1043  1000000000000000000 */\n      0x0de0b6b3a7640000\n        /* \"packages/revolution-contracts/libs/SignedWadMath.sol\":1017:1044  mul(x, 1000000000000000000) */\n      swap2\n      swap1\n      swap2\n      mul\n        /* \"packages/revolution-contracts/libs/SignedWadMath.sol\":1013:1052  div(mul(x, 1000000000000000000), 86400) */\n      div\n      swap1\n        /* \"packages/revolution-contracts/libs/SignedWadMath.sol\":825:1060  function toDaysWadUnsafe(uint256 x) pure returns (int256 r) {... */\n      jump\n        /* \"packages/revolution-contracts/TokenEmitter.sol\":5980:6024  toDaysWadUnsafe(block.timestamp - startTime) */\n    tag_120:\n        /* \"packages/revolution-contracts/TokenEmitter.sol\":6026:6041  tokensSoldSoFar */\n      dup5\n        /* \"packages/revolution-contracts/TokenEmitter.sol\":5966:5979  getVRGDAPrice */\n      tag_72\n        /* \"packages/revolution-contracts/TokenEmitter.sol\":5966:6042  getVRGDAPrice(toDaysWadUnsafe(block.timestamp - startTime), tokensSoldSoFar) */\n      jump\t// in\n    tag_119:\n        /* \"packages/revolution-contracts/TokenEmitter.sol\":5950:6042  uint256 price = getVRGDAPrice(toDaysWadUnsafe(block.timestamp - startTime), tokensSoldSoFar) */\n      swap4\n        /* \"packages/revolution-contracts/TokenEmitter.sol\":5685:6072  function getTokenPrice(uint256 tokensSoldSoFar) public view returns (uint256) {... */\n      swap3\n      pop\n      pop\n      pop\n      jump\t// out\n        /* \"packages/revolution-contracts/TokenEmitter.sol\":2149:3081  function buyToken(address[] memory _addresses, uint[] memory _bps, uint256) public payable nonReentrant returns (uint256) {... */\n    tag_66:\n        /* \"packages/revolution-contracts/TokenEmitter.sol\":2262:2269  uint256 */\n      0x00\n        /* \"@openzeppelin/contracts/utils/ReentrancyGuard.sol\":2356:2377  _nonReentrantBefore() */\n      tag_124\n        /* \"@openzeppelin/contracts/utils/ReentrancyGuard.sol\":2356:2375  _nonReentrantBefore */\n      tag_125\n        /* \"@openzeppelin/contracts/utils/ReentrancyGuard.sol\":2356:2377  _nonReentrantBefore() */\n      jump\t// in\n    tag_124:\n        /* \"packages/revolution-contracts/TokenEmitter.sol\":2366:2370  _bps */\n      dup3\n        /* \"packages/revolution-contracts/TokenEmitter.sol\":2366:2377  _bps.length */\n      mload\n        /* \"packages/revolution-contracts/TokenEmitter.sol\":2345:2355  _addresses */\n      dup5\n        /* \"packages/revolution-contracts/TokenEmitter.sol\":2345:2362  _addresses.length */\n      mload\n        /* \"packages/revolution-contracts/TokenEmitter.sol\":2345:2377  _addresses.length == _bps.length */\n      eq\n        /* \"packages/revolution-contracts/TokenEmitter.sol\":2337:2406  require(_addresses.length == _bps.length, \"Parallel arrays required\") */\n      tag_127\n      jumpi\n      mload(0x40)\n      shl(0xe5, 0x461bcd)\n      dup2\n      mstore\n        /* \"#utility.yul\":5696:5698   */\n      0x20\n        /* \"packages/revolution-contracts/TokenEmitter.sol\":2337:2406  require(_addresses.length == _bps.length, \"Parallel arrays required\") */\n      0x04\n      dup3\n      add\n        /* \"#utility.yul\":5678:5699   */\n      mstore\n        /* \"#utility.yul\":5735:5737   */\n      0x18\n        /* \"#utility.yul\":5715:5733   */\n      0x24\n      dup3\n      add\n        /* \"#utility.yul\":5708:5738   */\n      mstore\n        /* \"#utility.yul\":5774:5800   */\n      0x506172616c6c656c206172726179732072657175697265640000000000000000\n        /* \"#utility.yul\":5754:5772   */\n      0x44\n      dup3\n      add\n        /* \"#utility.yul\":5747:5801   */\n      mstore\n        /* \"#utility.yul\":5818:5836   */\n      0x64\n      add\n        /* \"packages/revolution-contracts/TokenEmitter.sol\":2337:2406  require(_addresses.length == _bps.length, \"Parallel arrays required\") */\n    tag_128:\n      mload(0x40)\n      dup1\n      swap2\n      sub\n      swap1\n      revert\n    tag_127:\n        /* \"packages/revolution-contracts/TokenEmitter.sol\":2417:2433  uint totalTokens */\n      0x00\n        /* \"packages/revolution-contracts/TokenEmitter.sol\":2436:2477  getTokenAmountForMultiPurchase(msg.value) */\n      tag_130\n        /* \"packages/revolution-contracts/TokenEmitter.sol\":2467:2476  msg.value */\n      callvalue\n        /* \"packages/revolution-contracts/TokenEmitter.sol\":2436:2466  getTokenAmountForMultiPurchase */\n      tag_47\n        /* \"packages/revolution-contracts/TokenEmitter.sol\":2436:2477  getTokenAmountForMultiPurchase(msg.value) */\n      jump\t// in\n    tag_130:\n        /* \"packages/revolution-contracts/TokenEmitter.sol\":2506:2514  treasury */\n      sload(0x01)\n        /* \"packages/revolution-contracts/TokenEmitter.sol\":2540:2552  new bytes(0) */\n      0x40\n      dup1\n      mload\n        /* \"packages/revolution-contracts/TokenEmitter.sol\":2488:2500  bool success */\n      0x00\n        /* \"packages/revolution-contracts/TokenEmitter.sol\":2540:2552  new bytes(0) */\n      dup1\n      dup3\n      mstore\n      0x20\n      dup3\n      add\n      swap3\n      dup4\n      swap1\n      mstore\n        /* \"packages/revolution-contracts/TokenEmitter.sol\":2417:2477  uint totalTokens = getTokenAmountForMultiPurchase(msg.value) */\n      swap4\n      swap5\n      pop\n      sub(shl(0xa0, 0x01), 0x01)\n        /* \"packages/revolution-contracts/TokenEmitter.sol\":2506:2514  treasury */\n      swap1\n      swap3\n      and\n      swap2\n        /* \"packages/revolution-contracts/TokenEmitter.sol\":2528:2537  msg.value */\n      callvalue\n      swap2\n        /* \"packages/revolution-contracts/TokenEmitter.sol\":2506:2553  treasury.call{ value: msg.value }(new bytes(0)) */\n      tag_135\n      swap2\n        /* \"packages/revolution-contracts/TokenEmitter.sol\":2540:2552  new bytes(0) */\n      swap1\n        /* \"packages/revolution-contracts/TokenEmitter.sol\":2506:2553  treasury.call{ value: msg.value }(new bytes(0)) */\n      tag_136\n      jump\t// in\n    tag_135:\n      0x00\n      mload(0x40)\n      dup1\n      dup4\n      sub\n      dup2\n      dup6\n      dup8\n      gas\n      call\n      swap3\n      pop\n      pop\n      pop\n      returndatasize\n      dup1\n      0x00\n      dup2\n      eq\n      tag_139\n      jumpi\n      mload(0x40)\n      swap2\n      pop\n      and(add(returndatasize, 0x3f), not(0x1f))\n      dup3\n      add\n      0x40\n      mstore\n      returndatasize\n      dup3\n      mstore\n      returndatasize\n      0x00\n      0x20\n      dup5\n      add\n      returndatacopy\n      jump(tag_138)\n    tag_139:\n      0x60\n      swap2\n      pop\n    tag_138:\n      pop\n        /* \"packages/revolution-contracts/TokenEmitter.sol\":2487:2553  (bool success, ) = treasury.call{ value: msg.value }(new bytes(0)) */\n      pop\n      swap1\n      pop\n        /* \"packages/revolution-contracts/TokenEmitter.sol\":2571:2578  success */\n      dup1\n        /* \"packages/revolution-contracts/TokenEmitter.sol\":2563:2599  require(success, \"Transfer failed.\") */\n      tag_140\n      jumpi\n      mload(0x40)\n      shl(0xe5, 0x461bcd)\n      dup2\n      mstore\n        /* \"#utility.yul\":6466:6468   */\n      0x20\n        /* \"packages/revolution-contracts/TokenEmitter.sol\":2563:2599  require(success, \"Transfer failed.\") */\n      0x04\n      dup3\n      add\n        /* \"#utility.yul\":6448:6469   */\n      mstore\n        /* \"#utility.yul\":6505:6507   */\n      0x10\n        /* \"#utility.yul\":6485:6503   */\n      0x24\n      dup3\n      add\n        /* \"#utility.yul\":6478:6508   */\n      mstore\n      shl(0x81, 0x2a3930b739b332b9103330b4b632b217)\n        /* \"#utility.yul\":6524:6542   */\n      0x44\n      dup3\n      add\n        /* \"#utility.yul\":6517:6563   */\n      mstore\n        /* \"#utility.yul\":6580:6598   */\n      0x64\n      add\n        /* \"packages/revolution-contracts/TokenEmitter.sol\":2563:2599  require(success, \"Transfer failed.\") */\n      tag_128\n        /* \"#utility.yul\":6264:6604   */\n      jump\n        /* \"packages/revolution-contracts/TokenEmitter.sol\":2563:2599  require(success, \"Transfer failed.\") */\n    tag_140:\n        /* \"packages/revolution-contracts/TokenEmitter.sol\":2667:2675  uint sum */\n      0x00\n        /* \"packages/revolution-contracts/TokenEmitter.sol\":2758:2764  uint i */\n      dup1\n        /* \"packages/revolution-contracts/TokenEmitter.sol\":2753:2985  for (uint i = 0; i < _addresses.length; i++) {... */\n    tag_143:\n        /* \"packages/revolution-contracts/TokenEmitter.sol\":2774:2784  _addresses */\n      dup8\n        /* \"packages/revolution-contracts/TokenEmitter.sol\":2774:2791  _addresses.length */\n      mload\n        /* \"packages/revolution-contracts/TokenEmitter.sol\":2770:2771  i */\n      dup2\n        /* \"packages/revolution-contracts/TokenEmitter.sol\":2770:2791  i < _addresses.length */\n      lt\n        /* \"packages/revolution-contracts/TokenEmitter.sol\":2753:2985  for (uint i = 0; i < _addresses.length; i++) {... */\n      iszero\n      tag_144\n      jumpi\n        /* \"packages/revolution-contracts/TokenEmitter.sol\":2812:2823  uint tokens */\n      0x00\n        /* \"packages/revolution-contracts/TokenEmitter.sol\":2852:2858  10_000 */\n      0x2710\n        /* \"packages/revolution-contracts/TokenEmitter.sol\":2841:2845  _bps */\n      dup9\n        /* \"packages/revolution-contracts/TokenEmitter.sol\":2846:2847  i */\n      dup4\n        /* \"packages/revolution-contracts/TokenEmitter.sol\":2841:2848  _bps[i] */\n      dup2\n      mload\n      dup2\n      lt\n      tag_147\n      jumpi\n      tag_147\n      tag_148\n      jump\t// in\n    tag_147:\n      0x20\n      mul\n      0x20\n      add\n      add\n      mload\n        /* \"packages/revolution-contracts/TokenEmitter.sol\":2827:2838  totalTokens */\n      dup7\n        /* \"packages/revolution-contracts/TokenEmitter.sol\":2827:2848  totalTokens * _bps[i] */\n      tag_149\n      swap2\n      swap1\n      tag_150\n      jump\t// in\n    tag_149:\n        /* \"packages/revolution-contracts/TokenEmitter.sol\":2826:2858  (totalTokens * _bps[i]) / 10_000 */\n      tag_151\n      swap2\n      swap1\n      tag_90\n      jump\t// in\n    tag_151:\n        /* \"packages/revolution-contracts/TokenEmitter.sol\":2812:2858  uint tokens = (totalTokens * _bps[i]) / 10_000 */\n      swap1\n      pop\n        /* \"packages/revolution-contracts/TokenEmitter.sol\":2918:2946  _mint(_addresses[i], tokens) */\n      tag_152\n        /* \"packages/revolution-contracts/TokenEmitter.sol\":2924:2934  _addresses */\n      dup10\n        /* \"packages/revolution-contracts/TokenEmitter.sol\":2935:2936  i */\n      dup4\n        /* \"packages/revolution-contracts/TokenEmitter.sol\":2924:2937  _addresses[i] */\n      dup2\n      mload\n      dup2\n      lt\n      tag_154\n      jumpi\n      tag_154\n      tag_148\n      jump\t// in\n    tag_154:\n      0x20\n      mul\n      0x20\n      add\n      add\n      mload\n        /* \"packages/revolution-contracts/TokenEmitter.sol\":2939:2945  tokens */\n      dup3\n        /* \"packages/revolution-contracts/TokenEmitter.sol\":2918:2923  _mint */\n      tag_155\n        /* \"packages/revolution-contracts/TokenEmitter.sol\":2918:2946  _mint(_addresses[i], tokens) */\n      jump\t// in\n    tag_152:\n        /* \"packages/revolution-contracts/TokenEmitter.sol\":2967:2971  _bps */\n      dup8\n        /* \"packages/revolution-contracts/TokenEmitter.sol\":2972:2973  i */\n      dup3\n        /* \"packages/revolution-contracts/TokenEmitter.sol\":2967:2974  _bps[i] */\n      dup2\n      mload\n      dup2\n      lt\n      tag_157\n      jumpi\n      tag_157\n      tag_148\n      jump\t// in\n    tag_157:\n      0x20\n      mul\n      0x20\n      add\n      add\n      mload\n        /* \"packages/revolution-contracts/TokenEmitter.sol\":2960:2974  sum += _bps[i] */\n      dup4\n      tag_158\n      swap2\n      swap1\n      tag_88\n      jump\t// in\n    tag_158:\n      swap3\n      pop\n      pop\n        /* \"packages/revolution-contracts/TokenEmitter.sol\":2793:2796  i++ */\n      0x01\n      add\n        /* \"packages/revolution-contracts/TokenEmitter.sol\":2753:2985  for (uint i = 0; i < _addresses.length; i++) {... */\n      jump(tag_143)\n    tag_144:\n      pop\n        /* \"packages/revolution-contracts/TokenEmitter.sol\":3003:3006  sum */\n      dup1\n        /* \"packages/revolution-contracts/TokenEmitter.sol\":3010:3016  10_000 */\n      0x2710\n        /* \"packages/revolution-contracts/TokenEmitter.sol\":3003:3016  sum == 10_000 */\n      eq\n        /* \"packages/revolution-contracts/TokenEmitter.sol\":2995:3046  require(sum == 10_000, \"bps must add up to 10_000\") */\n      tag_159\n      jumpi\n      mload(0x40)\n      shl(0xe5, 0x461bcd)\n      dup2\n      mstore\n        /* \"#utility.yul\":7116:7118   */\n      0x20\n        /* \"packages/revolution-contracts/TokenEmitter.sol\":2995:3046  require(sum == 10_000, \"bps must add up to 10_000\") */\n      0x04\n      dup3\n      add\n        /* \"#utility.yul\":7098:7119   */\n      mstore\n        /* \"#utility.yul\":7155:7157   */\n      0x19\n        /* \"#utility.yul\":7135:7153   */\n      0x24\n      dup3\n      add\n        /* \"#utility.yul\":7128:7158   */\n      mstore\n        /* \"#utility.yul\":7194:7221   */\n      0x627073206d7573742061646420757020746f2031305f30303000000000000000\n        /* \"#utility.yul\":7174:7192   */\n      0x44\n      dup3\n      add\n        /* \"#utility.yul\":7167:7222   */\n      mstore\n        /* \"#utility.yul\":7239:7257   */\n      0x64\n      add\n        /* \"packages/revolution-contracts/TokenEmitter.sol\":2995:3046  require(sum == 10_000, \"bps must add up to 10_000\") */\n      tag_128\n        /* \"#utility.yul\":6914:7263   */\n      jump\n        /* \"packages/revolution-contracts/TokenEmitter.sol\":2995:3046  require(sum == 10_000, \"bps must add up to 10_000\") */\n    tag_159:\n      pop\n      pop\n        /* \"@openzeppelin/contracts/utils/ReentrancyGuard.sol\":1713:1714  1 */\n      0x01\n        /* \"@openzeppelin/contracts/utils/ReentrancyGuard.sol\":2924:2931  _status */\n      0x00\n        /* \"@openzeppelin/contracts/utils/ReentrancyGuard.sol\":2924:2945  _status = NOT_ENTERED */\n      sstore\n        /* \"packages/revolution-contracts/TokenEmitter.sol\":3063:3074  totalTokens */\n      swap1\n      pop\n        /* \"@openzeppelin/contracts/utils/ReentrancyGuard.sol\":2398:2418  _nonReentrantAfter() */\n      tag_119\n        /* \"@openzeppelin/contracts/utils/ReentrancyGuard.sol\":2744:2952  function _nonReentrantAfter() private {... */\n      jump\n        /* \"packages/revolution-contracts/libs/VRGDA.sol\":2016:2810  function getVRGDAPrice(int256 timeSinceStart, uint256 sold) public view virtual returns (uint256) {... */\n    tag_72:\n        /* \"packages/revolution-contracts/libs/VRGDA.sol\":2105:2112  uint256 */\n      0x00\n      dup1\n        /* \"packages/revolution-contracts/libs/VRGDA.sol\":2203:2640  wadMul(targetPrice, wadExp(unsafeWadMul(decayConstant,... */\n      tag_165\n        /* \"packages/revolution-contracts/libs/VRGDA.sol\":2210:2221  targetPrice */\n      immutable(\"0x5472fdd700a9b2b6613d103095048c92304e97215a2607f73a9d5aa3701f3f09\")\n        /* \"packages/revolution-contracts/libs/VRGDA.sol\":2223:2639  wadExp(unsafeWadMul(decayConstant,... */\n      tag_166\n        /* \"packages/revolution-contracts/libs/VRGDA.sol\":2230:2638  unsafeWadMul(decayConstant,... */\n      tag_167\n        /* \"packages/revolution-contracts/libs/VRGDA.sol\":2243:2256  decayConstant */\n      immutable(\"0xe152391e880680785b8297811e752bfde3d2926e8154bc2d7749de22b772d25f\")\n        /* \"packages/revolution-contracts/libs/VRGDA.sol\":2584:2624  getTargetSaleTime(toWadUnsafe(sold + 1)) */\n      tag_168\n        /* \"packages/revolution-contracts/libs/SignedWadMath.sol\":557:576  1000000000000000000 */\n      0x0de0b6b3a7640000\n        /* \"packages/revolution-contracts/libs/VRGDA.sol\":2621:2622  1 */\n      0x01\n        /* \"packages/revolution-contracts/libs/VRGDA.sol\":2614:2622  sold + 1 */\n      dup11\n      add\n        /* \"packages/revolution-contracts/libs/SignedWadMath.sol\":550:577  mul(x, 1000000000000000000) */\n      mul\n        /* \"packages/revolution-contracts/libs/LinearVRGDA.sol\":1888:2029  function getTargetSaleTime(int256 sold) public view virtual override returns (int256) {... */\n      tag_30\n      jump\t// in\n        /* \"packages/revolution-contracts/libs/VRGDA.sol\":2584:2624  getTargetSaleTime(toWadUnsafe(sold + 1)) */\n    tag_168:\n        /* \"packages/revolution-contracts/libs/VRGDA.sol\":2567:2581  timeSinceStart */\n      dup10\n        /* \"packages/revolution-contracts/libs/VRGDA.sol\":2567:2624  timeSinceStart - getTargetSaleTime(toWadUnsafe(sold + 1)) */\n      sub\n        /* \"packages/revolution-contracts/libs/SignedWadMath.sol\":1813:1832  1000000000000000000 */\n      0x0de0b6b3a7640000\n        /* \"packages/revolution-contracts/libs/SignedWadMath.sol\":1802:1811  mul(x, y) */\n      swap2\n      mul\n        /* \"packages/revolution-contracts/libs/SignedWadMath.sol\":1797:1833  sdiv(mul(x, y), 1000000000000000000) */\n      sdiv\n      swap1\n        /* \"packages/revolution-contracts/libs/SignedWadMath.sol\":1615:1841  function unsafeWadMul(int256 x, int256 y) pure returns (int256 r) {... */\n      jump\n        /* \"packages/revolution-contracts/libs/VRGDA.sol\":2230:2638  unsafeWadMul(decayConstant,... */\n    tag_167:\n        /* \"packages/revolution-contracts/libs/VRGDA.sol\":2223:2229  wadExp */\n      tag_172\n        /* \"packages/revolution-contracts/libs/VRGDA.sol\":2223:2639  wadExp(unsafeWadMul(decayConstant,... */\n      jump\t// in\n    tag_166:\n        /* \"packages/revolution-contracts/libs/VRGDA.sol\":2203:2209  wadMul */\n      tag_173\n        /* \"packages/revolution-contracts/libs/VRGDA.sol\":2203:2640  wadMul(targetPrice, wadExp(unsafeWadMul(decayConstant,... */\n      jump\t// in\n    tag_165:\n        /* \"packages/revolution-contracts/libs/VRGDA.sol\":2179:2641  uint256 price = uint256(wadMul(targetPrice, wadExp(unsafeWadMul(decayConstant,... */\n      swap1\n      pop\n        /* \"packages/revolution-contracts/libs/VRGDA.sol\":2677:2678  1 */\n      0x01\n        /* \"packages/revolution-contracts/libs/VRGDA.sol\":2697:2715  price < priceFloor */\n      dup1\n      dup3\n      lt\n        /* \"packages/revolution-contracts/libs/VRGDA.sol\":2693:2767  if (price < priceFloor) {... */\n      iszero\n      tag_102\n      jumpi\n        /* \"packages/revolution-contracts/libs/VRGDA.sol\":2742:2752  priceFloor */\n      swap2\n      pop\n        /* \"packages/revolution-contracts/libs/VRGDA.sol\":2735:2752  return priceFloor */\n      tag_84\n      swap1\n      pop\n      jump\n        /* \"@openzeppelin/contracts/utils/ReentrancyGuard.sol\":2431:2738  function _nonReentrantBefore() private {... */\n    tag_125:\n        /* \"@openzeppelin/contracts/utils/ReentrancyGuard.sol\":1755:1756  2 */\n      0x02\n        /* \"@openzeppelin/contracts/utils/ReentrancyGuard.sol\":2558:2565  _status */\n      sload(0x00)\n        /* \"@openzeppelin/contracts/utils/ReentrancyGuard.sol\":2558:2576  _status == ENTERED */\n      sub\n        /* \"@openzeppelin/contracts/utils/ReentrancyGuard.sol\":2554:2640  if (_status == ENTERED) {... */\n      tag_178\n      jumpi\n        /* \"@openzeppelin/contracts/utils/ReentrancyGuard.sol\":2599:2629  ReentrancyGuardReentrantCall() */\n      mload(0x40)\n      shl(0xe0, 0x3ee5aeb5)\n      dup2\n      mstore\n      0x04\n      add\n      mload(0x40)\n      dup1\n      swap2\n      sub\n      swap1\n      revert\n        /* \"@openzeppelin/contracts/utils/ReentrancyGuard.sol\":2554:2640  if (_status == ENTERED) {... */\n    tag_178:\n        /* \"@openzeppelin/contracts/utils/ReentrancyGuard.sol\":1755:1756  2 */\n      0x02\n        /* \"@openzeppelin/contracts/utils/ReentrancyGuard.sol\":2714:2721  _status */\n      0x00\n        /* \"@openzeppelin/contracts/utils/ReentrancyGuard.sol\":2714:2731  _status = ENTERED */\n      sstore\n        /* \"@openzeppelin/contracts/utils/ReentrancyGuard.sol\":2431:2738  function _nonReentrantBefore() private {... */\n      jump\t// out\n        /* \"packages/revolution-contracts/TokenEmitter.sol\":1672:1763  function _mint(address _to, uint _amount) private {... */\n    tag_155:\n        /* \"packages/revolution-contracts/TokenEmitter.sol\":1732:1737  token */\n      sload(0x02)\n        /* \"packages/revolution-contracts/TokenEmitter.sol\":1732:1756  token.mint(_to, _amount) */\n      mload(0x40)\n      shl(0xe0, 0x40c10f19)\n      dup2\n      mstore\n      sub(shl(0xa0, 0x01), 0x01)\n        /* \"#utility.yul\":7460:7492   */\n      dup5\n      dup2\n      and\n        /* \"packages/revolution-contracts/TokenEmitter.sol\":1732:1756  token.mint(_to, _amount) */\n      0x04\n      dup4\n      add\n        /* \"#utility.yul\":7442:7493   */\n      mstore\n        /* \"#utility.yul\":7509:7527   */\n      0x24\n      dup3\n      add\n        /* \"#utility.yul\":7502:7536   */\n      dup5\n      swap1\n      mstore\n        /* \"packages/revolution-contracts/TokenEmitter.sol\":1732:1737  token */\n      swap1\n      swap2\n      and\n      swap1\n        /* \"packages/revolution-contracts/TokenEmitter.sol\":1732:1742  token.mint */\n      0x40c10f19\n      swap1\n        /* \"#utility.yul\":7415:7433   */\n      0x44\n      add\n        /* \"packages/revolution-contracts/TokenEmitter.sol\":1732:1756  token.mint(_to, _amount) */\n      0x00\n      mload(0x40)\n      dup1\n      dup4\n      sub\n      dup2\n      0x00\n      dup8\n      dup1\n      extcodesize\n      iszero\n      dup1\n      iszero\n      tag_182\n      jumpi\n      0x00\n      dup1\n      revert\n    tag_182:\n      pop\n      gas\n      call\n      iszero\n      dup1\n      iszero\n      tag_184\n      jumpi\n      returndatasize\n      0x00\n      dup1\n      returndatacopy\n      revert(0x00, returndatasize)\n    tag_184:\n      pop\n      pop\n      pop\n      pop\n        /* \"packages/revolution-contracts/TokenEmitter.sol\":1672:1763  function _mint(address _to, uint _amount) private {... */\n      pop\n      pop\n      jump\t// out\n        /* \"packages/revolution-contracts/libs/SignedWadMath.sol\":3901:6854  function wadExp(int256 x) pure returns (int256 r) {... */\n    tag_172:\n        /* \"packages/revolution-contracts/libs/SignedWadMath.sol\":3941:3949  int256 r */\n      0x00\n      not(0x0248ce36a70cb26b3e)\n        /* \"packages/revolution-contracts/libs/SignedWadMath.sol\":4102:4103  x */\n      dup3\n        /* \"packages/revolution-contracts/libs/SignedWadMath.sol\":4102:4128  x <= -42139678854452767551 */\n      sgt\n        /* \"packages/revolution-contracts/libs/SignedWadMath.sol\":4098:4138  if (x <= -42139678854452767551) return 0 */\n      tag_189\n      jumpi\n      pop\n        /* \"packages/revolution-contracts/libs/SignedWadMath.sol\":4137:4138  0 */\n      0x00\n      swap2\n        /* \"packages/revolution-contracts/libs/SignedWadMath.sol\":3901:6854  function wadExp(int256 x) pure returns (int256 r) {... */\n      swap1\n      pop\n      jump\t// out\n        /* \"packages/revolution-contracts/libs/SignedWadMath.sol\":4098:4138  if (x <= -42139678854452767551) return 0 */\n    tag_189:\n        /* \"packages/revolution-contracts/libs/SignedWadMath.sol\":4325:4346  135305999368893231589 */\n      0x0755bf798b4a1bf1e5\n        /* \"packages/revolution-contracts/libs/SignedWadMath.sol\":4320:4321  x */\n      dup3\n        /* \"packages/revolution-contracts/libs/SignedWadMath.sol\":4320:4346  x >= 135305999368893231589 */\n      slt\n        /* \"packages/revolution-contracts/libs/SignedWadMath.sol\":4316:4370  if (x >= 135305999368893231589) revert(\"EXP_OVERFLOW\") */\n      tag_190\n      jumpi\n        /* \"packages/revolution-contracts/libs/SignedWadMath.sol\":4348:4370  revert(\"EXP_OVERFLOW\") */\n      mload(0x40)\n      shl(0xe5, 0x461bcd)\n      dup2\n      mstore\n        /* \"#utility.yul\":7749:7751   */\n      0x20\n        /* \"packages/revolution-contracts/libs/SignedWadMath.sol\":4348:4370  revert(\"EXP_OVERFLOW\") */\n      0x04\n      dup3\n      add\n        /* \"#utility.yul\":7731:7752   */\n      mstore\n        /* \"#utility.yul\":7788:7790   */\n      0x0c\n        /* \"#utility.yul\":7768:7786   */\n      0x24\n      dup3\n      add\n        /* \"#utility.yul\":7761:7791   */\n      mstore\n      shl(0xa0, 0x4558505f4f564552464c4f57)\n        /* \"#utility.yul\":7807:7825   */\n      0x44\n      dup3\n      add\n        /* \"#utility.yul\":7800:7842   */\n      mstore\n        /* \"#utility.yul\":7859:7877   */\n      0x64\n      add\n        /* \"packages/revolution-contracts/libs/SignedWadMath.sol\":4348:4370  revert(\"EXP_OVERFLOW\") */\n      tag_128\n        /* \"#utility.yul\":7547:7883   */\n      jump\n        /* \"packages/revolution-contracts/libs/SignedWadMath.sol\":4316:4370  if (x >= 135305999368893231589) revert(\"EXP_OVERFLOW\") */\n    tag_190:\n        /* \"packages/revolution-contracts/libs/SignedWadMath.sol\":4627:4634  5 ** 18 */\n      0x03782dace9d9\n        /* \"packages/revolution-contracts/libs/SignedWadMath.sol\":4621:4623  78 */\n      0x4e\n        /* \"packages/revolution-contracts/libs/SignedWadMath.sol\":4616:4623  x << 78 */\n      dup4\n      swap1\n      shl\n        /* \"packages/revolution-contracts/libs/SignedWadMath.sol\":4615:4634  (x << 78) / 5 ** 18 */\n      sdiv\n      swap2\n      pop\n        /* \"packages/revolution-contracts/libs/SignedWadMath.sol\":4882:4890  int256 k */\n      0x00\n        /* \"packages/revolution-contracts/libs/SignedWadMath.sol\":4950:4952  96 */\n      0x60\n        /* \"packages/revolution-contracts/libs/SignedWadMath.sol\":4906:4935  54916777467707473351141471128 */\n      0xb17217f7d1cf79abc9e3b398\n        /* \"packages/revolution-contracts/libs/SignedWadMath.sol\":4895:4902  x << 96 */\n      dup5\n      dup3\n      shl\n        /* \"packages/revolution-contracts/libs/SignedWadMath.sol\":4894:4935  (x << 96) / 54916777467707473351141471128 */\n      sdiv\n      shl(0x5f, 0x01)\n        /* \"packages/revolution-contracts/libs/SignedWadMath.sol\":4894:4945  (x << 96) / 54916777467707473351141471128 + 2 ** 95 */\n      add\n        /* \"packages/revolution-contracts/libs/SignedWadMath.sol\":4893:4952  ((x << 96) / 54916777467707473351141471128 + 2 ** 95) >> 96 */\n      swap1\n      sar\n        /* \"packages/revolution-contracts/libs/SignedWadMath.sol\":4974:5003  54916777467707473351141471128 */\n      0xb17217f7d1cf79abc9e3b398\n        /* \"packages/revolution-contracts/libs/SignedWadMath.sol\":4970:5003  k * 54916777467707473351141471128 */\n      dup2\n      mul\n        /* \"packages/revolution-contracts/libs/SignedWadMath.sol\":4966:5003  x - k * 54916777467707473351141471128 */\n      swap1\n      swap4\n      sub\n      not(0x240c330e9fb2d9cbaf0fd5aafb)\n        /* \"packages/revolution-contracts/libs/SignedWadMath.sol\":5605:5640  x - 2855989394907223263936484059900 */\n      dup2\n      add\n        /* \"packages/revolution-contracts/libs/SignedWadMath.sol\":5656:5661  q * x */\n      dup2\n      mul\n        /* \"packages/revolution-contracts/libs/SignedWadMath.sol\":5260:5262  96 */\n      0x60\n        /* \"packages/revolution-contracts/libs/SignedWadMath.sol\":5655:5668  (q * x) >> 96 */\n      swap1\n      dup2\n      sar\n        /* \"packages/revolution-contracts/libs/SignedWadMath.sol\":5672:5704  50020603652535783019961831881945 */\n      0x0277594991cfc85f6e2461837cd9\n        /* \"packages/revolution-contracts/libs/SignedWadMath.sol\":5654:5704  ((q * x) >> 96) + 50020603652535783019961831881945 */\n      add\n        /* \"packages/revolution-contracts/libs/SignedWadMath.sol\":5720:5725  q * x */\n      dup3\n      mul\n        /* \"packages/revolution-contracts/libs/SignedWadMath.sol\":5719:5732  (q * x) >> 96 */\n      dup2\n      sar\n      not(0x1a521255e34f6a5061b25ef1c9c3)\n        /* \"packages/revolution-contracts/libs/SignedWadMath.sol\":5718:5769  ((q * x) >> 96) - 533845033583426703283633433725380 */\n      add\n        /* \"packages/revolution-contracts/libs/SignedWadMath.sol\":5785:5790  q * x */\n      dup3\n      mul\n        /* \"packages/revolution-contracts/libs/SignedWadMath.sol\":5784:5797  (q * x) >> 96 */\n      dup2\n      sar\n        /* \"packages/revolution-contracts/libs/SignedWadMath.sol\":5801:5835  3604857256930695427073651918091429 */\n      0xb1bbb201f443cf962f1a1d3db4a5\n        /* \"packages/revolution-contracts/libs/SignedWadMath.sol\":5783:5835  ((q * x) >> 96) + 3604857256930695427073651918091429 */\n      add\n        /* \"packages/revolution-contracts/libs/SignedWadMath.sol\":5851:5856  q * x */\n      dup3\n      mul\n        /* \"packages/revolution-contracts/libs/SignedWadMath.sol\":5850:5863  (q * x) >> 96 */\n      dup2\n      sar\n      not(0x02c72388d9f74f51a9331fed693f14)\n        /* \"packages/revolution-contracts/libs/SignedWadMath.sol\":5849:5902  ((q * x) >> 96) - 14423608567350463180887372962807573 */\n      add\n        /* \"packages/revolution-contracts/libs/SignedWadMath.sol\":5918:5923  q * x */\n      dup3\n      mul\n        /* \"packages/revolution-contracts/libs/SignedWadMath.sol\":5917:5930  (q * x) >> 96 */\n      dup2\n      sar\n        /* \"packages/revolution-contracts/libs/SignedWadMath.sol\":5934:5969  26449188498355588339934803723976023 */\n      0x05180bb14799ab47a8a8cb2a527d57\n        /* \"packages/revolution-contracts/libs/SignedWadMath.sol\":5916:5969  ((q * x) >> 96) + 26449188498355588339934803723976023 */\n      add\n        /* \"packages/revolution-contracts/libs/SignedWadMath.sol\":5266:5298  57155421227552351082224309758442 */\n      0x02d16720577bd19bf614176fe9ea\n        /* \"packages/revolution-contracts/libs/SignedWadMath.sol\":5203:5234  1346386616545796478920950773328 */\n      0x10fe68e7fd37d0007b713f7650\n        /* \"packages/revolution-contracts/libs/SignedWadMath.sol\":5199:5234  x + 1346386616545796478920950773328 */\n      dup5\n      add\n        /* \"packages/revolution-contracts/libs/SignedWadMath.sol\":5250:5255  y * x */\n      dup5\n      mul\n        /* \"packages/revolution-contracts/libs/SignedWadMath.sol\":5249:5262  (y * x) >> 96 */\n      dup4\n      sar\n        /* \"packages/revolution-contracts/libs/SignedWadMath.sol\":5248:5298  ((y * x) >> 96) + 57155421227552351082224309758442 */\n      swap1\n      dup2\n      add\n        /* \"packages/revolution-contracts/libs/SignedWadMath.sol\":5319:5324  y + x */\n      swap1\n      dup5\n      add\n      not(0x01d3967ed30fc4f89c02bab57081)\n        /* \"packages/revolution-contracts/libs/SignedWadMath.sol\":5319:5359  y + x - 94201549194550492254356042504812 */\n      add\n        /* \"packages/revolution-contracts/libs/SignedWadMath.sol\":5375:5380  p * y */\n      mul\n        /* \"packages/revolution-contracts/libs/SignedWadMath.sol\":5374:5387  (p * y) >> 96 */\n      swap1\n      swap2\n      sar\n        /* \"packages/revolution-contracts/libs/SignedWadMath.sol\":5391:5426  28719021644029726153956944680412240 */\n      0x0587f503bb6ea29d25fcb740196450\n        /* \"packages/revolution-contracts/libs/SignedWadMath.sol\":5373:5426  ((p * y) >> 96) + 28719021644029726153956944680412240 */\n      add\n        /* \"packages/revolution-contracts/libs/SignedWadMath.sol\":5440:5445  p * x */\n      swap1\n      swap2\n      mul\n      shl(0x62, 0x360d7aeea093263ecc6e0ecb2917)\n        /* \"packages/revolution-contracts/libs/SignedWadMath.sol\":5440:5490  p * x + (4385272521454847904659076985693276 << 96) */\n      add\n        /* \"packages/revolution-contracts/libs/SignedWadMath.sol\":6310:6320  sdiv(p, q) */\n      sdiv\n        /* \"packages/revolution-contracts/libs/SignedWadMath.sol\":6774:6823  3822833074963236453042738258902158003155416615667 */\n      0x029d9dc38563c32e5c2f6dc192ee70ef65f9978af3\n        /* \"packages/revolution-contracts/libs/SignedWadMath.sol\":6761:6823  uint256(r) * 3822833074963236453042738258902158003155416615667 */\n      mul\n        /* \"packages/revolution-contracts/libs/SignedWadMath.sol\":6836:6839  195 */\n      0xc3\n        /* \"packages/revolution-contracts/libs/SignedWadMath.sol\":6836:6843  195 - k */\n      swap4\n      swap1\n      swap4\n      sub\n        /* \"packages/revolution-contracts/libs/SignedWadMath.sol\":6760:6844  (uint256(r) * 3822833074963236453042738258902158003155416615667) >> uint256(195 - k) */\n      swap3\n      swap1\n      swap3\n      shr\n      swap3\n      swap2\n      pop\n      pop\n        /* \"packages/revolution-contracts/libs/SignedWadMath.sol\":3901:6854  function wadExp(int256 x) pure returns (int256 r) {... */\n      jump\t// out\n        /* \"packages/revolution-contracts/libs/SignedWadMath.sol\":2209:3136  function wadMul(int256 x, int256 y) pure returns (int256 r) {... */\n    tag_173:\n        /* \"packages/revolution-contracts/libs/SignedWadMath.sol\":2375:2384  mul(x, y) */\n      dup2\n      dup2\n      mul\n        /* \"packages/revolution-contracts/libs/SignedWadMath.sol\":2880:2889  iszero(x) */\n      dup3\n      iszero\n        /* \"packages/revolution-contracts/libs/SignedWadMath.sol\":2894:2904  sdiv(r, x) */\n      dup4\n      dup3\n      sdiv\n        /* \"packages/revolution-contracts/libs/SignedWadMath.sol\":2891:2908  eq(sdiv(r, x), y) */\n      dup4\n      eq\n        /* \"packages/revolution-contracts/libs/SignedWadMath.sol\":2877:2909  or(iszero(x), eq(sdiv(r, x), y)) */\n      or\n      not(0x00)\n        /* \"packages/revolution-contracts/libs/SignedWadMath.sol\":2914:2927  lt(x, not(0)) */\n      dup5\n      lt\n      shl(0xff, 0x01)\n        /* \"packages/revolution-contracts/libs/SignedWadMath.sol\":2929:3003  sgt(y, 0x8000000000000000000000000000000000000000000000000000000000000000) */\n      dup5\n      sgt\n        /* \"packages/revolution-contracts/libs/SignedWadMath.sol\":2911:3004  or(lt(x, not(0)), sgt(y, 0x8000000000000000000000000000000000000000000000000000000000000000)) */\n      or\n        /* \"packages/revolution-contracts/libs/SignedWadMath.sol\":2873:3005  and(or(iszero(x), eq(sdiv(r, x), y)), or(lt(x, not(0)), sgt(y, 0x8000000000000000000000000000000000000000000000000000000000000000))) */\n      and\n        /* \"packages/revolution-contracts/libs/SignedWadMath.sol\":2863:3043  if iszero(and(or(iszero(x), eq(sdiv(r, x), y)), or(lt(x, not(0)), sgt(y, 0x8000000000000000000000000000000000000000000000000000000000000000)))) {... */\n      tag_199\n      jumpi\n        /* \"packages/revolution-contracts/libs/SignedWadMath.sol\":3031:3032  0 */\n      0x00\n        /* \"packages/revolution-contracts/libs/SignedWadMath.sol\":3028:3029  0 */\n      dup1\n        /* \"packages/revolution-contracts/libs/SignedWadMath.sol\":3021:3033  revert(0, 0) */\n      revert\n        /* \"packages/revolution-contracts/libs/SignedWadMath.sol\":2863:3043  if iszero(and(or(iszero(x), eq(sdiv(r, x), y)), or(lt(x, not(0)), sgt(y, 0x8000000000000000000000000000000000000000000000000000000000000000)))) {... */\n    tag_199:\n        /* \"packages/revolution-contracts/libs/SignedWadMath.sol\":3108:3127  1000000000000000000 */\n      0x0de0b6b3a7640000\n        /* \"packages/revolution-contracts/libs/SignedWadMath.sol\":3100:3128  sdiv(r, 1000000000000000000) */\n      swap1\n      sdiv\n      swap3\n        /* \"packages/revolution-contracts/libs/SignedWadMath.sol\":2209:3136  function wadMul(int256 x, int256 y) pure returns (int256 r) {... */\n      swap2\n      pop\n      pop\n      jump\t// out\n        /* \"#utility.yul\":196:444   */\n    tag_23:\n        /* \"#utility.yul\":264:270   */\n      0x00\n        /* \"#utility.yul\":272:278   */\n      dup1\n        /* \"#utility.yul\":325:327   */\n      0x40\n        /* \"#utility.yul\":313:322   */\n      dup4\n        /* \"#utility.yul\":304:311   */\n      dup6\n        /* \"#utility.yul\":300:323   */\n      sub\n        /* \"#utility.yul\":296:328   */\n      slt\n        /* \"#utility.yul\":293:345   */\n      iszero\n      tag_208\n      jumpi\n        /* \"#utility.yul\":341:342   */\n      0x00\n        /* \"#utility.yul\":338:339   */\n      dup1\n        /* \"#utility.yul\":331:343   */\n      revert\n        /* \"#utility.yul\":293:345   */\n    tag_208:\n      pop\n      pop\n        /* \"#utility.yul\":364:387   */\n      dup1\n      calldataload\n      swap3\n        /* \"#utility.yul\":434:436   */\n      0x20\n        /* \"#utility.yul\":419:437   */\n      swap1\n      swap2\n      add\n        /* \"#utility.yul\":406:438   */\n      calldataload\n      swap2\n      pop\n        /* \"#utility.yul\":196:444   */\n      jump\t// out\n        /* \"#utility.yul\":449:628   */\n    tag_29:\n        /* \"#utility.yul\":507:513   */\n      0x00\n        /* \"#utility.yul\":560:562   */\n      0x20\n        /* \"#utility.yul\":548:557   */\n      dup3\n        /* \"#utility.yul\":539:546   */\n      dup5\n        /* \"#utility.yul\":535:558   */\n      sub\n        /* \"#utility.yul\":531:563   */\n      slt\n        /* \"#utility.yul\":528:580   */\n      iszero\n      tag_210\n      jumpi\n        /* \"#utility.yul\":576:577   */\n      0x00\n        /* \"#utility.yul\":573:574   */\n      dup1\n        /* \"#utility.yul\":566:578   */\n      revert\n        /* \"#utility.yul\":528:580   */\n    tag_210:\n      pop\n        /* \"#utility.yul\":599:622   */\n      calldataload\n      swap2\n        /* \"#utility.yul\":449:628   */\n      swap1\n      pop\n      jump\t// out\n        /* \"#utility.yul\":813:986   */\n    tag_200:\n        /* \"#utility.yul\":881:901   */\n      dup1\n      calldataload\n      sub(shl(0xa0, 0x01), 0x01)\n        /* \"#utility.yul\":930:961   */\n      dup2\n      and\n        /* \"#utility.yul\":920:962   */\n      dup2\n      eq\n        /* \"#utility.yul\":910:980   */\n      tag_213\n      jumpi\n        /* \"#utility.yul\":976:977   */\n      0x00\n        /* \"#utility.yul\":973:974   */\n      dup1\n        /* \"#utility.yul\":966:978   */\n      revert\n        /* \"#utility.yul\":910:980   */\n    tag_213:\n        /* \"#utility.yul\":813:986   */\n      swap2\n      swap1\n      pop\n      jump\t// out\n        /* \"#utility.yul\":991:1177   */\n    tag_36:\n        /* \"#utility.yul\":1050:1056   */\n      0x00\n        /* \"#utility.yul\":1103:1105   */\n      0x20\n        /* \"#utility.yul\":1091:1100   */\n      dup3\n        /* \"#utility.yul\":1082:1089   */\n      dup5\n        /* \"#utility.yul\":1078:1101   */\n      sub\n        /* \"#utility.yul\":1074:1106   */\n      slt\n        /* \"#utility.yul\":1071:1123   */\n      iszero\n      tag_215\n      jumpi\n        /* \"#utility.yul\":1119:1120   */\n      0x00\n        /* \"#utility.yul\":1116:1117   */\n      dup1\n        /* \"#utility.yul\":1109:1121   */\n      revert\n        /* \"#utility.yul\":1071:1123   */\n    tag_215:\n        /* \"#utility.yul\":1142:1171   */\n      tag_119\n        /* \"#utility.yul\":1161:1170   */\n      dup3\n        /* \"#utility.yul\":1142:1171   */\n      tag_200\n      jump\t// in\n        /* \"#utility.yul\":1367:1494   */\n    tag_133:\n        /* \"#utility.yul\":1428:1438   */\n      0x4e487b71\n        /* \"#utility.yul\":1423:1426   */\n      0xe0\n        /* \"#utility.yul\":1419:1439   */\n      shl\n        /* \"#utility.yul\":1416:1417   */\n      0x00\n        /* \"#utility.yul\":1409:1440   */\n      mstore\n        /* \"#utility.yul\":1459:1463   */\n      0x41\n        /* \"#utility.yul\":1456:1457   */\n      0x04\n        /* \"#utility.yul\":1449:1464   */\n      mstore\n        /* \"#utility.yul\":1483:1487   */\n      0x24\n        /* \"#utility.yul\":1480:1481   */\n      0x00\n        /* \"#utility.yul\":1473:1488   */\n      revert\n        /* \"#utility.yul\":1499:1774   */\n    tag_201:\n        /* \"#utility.yul\":1570:1572   */\n      0x40\n        /* \"#utility.yul\":1564:1573   */\n      mload\n        /* \"#utility.yul\":1635:1637   */\n      0x1f\n        /* \"#utility.yul\":1616:1629   */\n      dup3\n      add\n      not(0x1f)\n        /* \"#utility.yul\":1612:1639   */\n      and\n        /* \"#utility.yul\":1600:1640   */\n      dup2\n      add\n        /* \"#utility.yul\":1670:1688   */\n      0xffffffffffffffff\n        /* \"#utility.yul\":1655:1689   */\n      dup2\n      gt\n        /* \"#utility.yul\":1691:1713   */\n      dup3\n      dup3\n      lt\n        /* \"#utility.yul\":1652:1714   */\n      or\n        /* \"#utility.yul\":1649:1737   */\n      iszero\n      tag_222\n      jumpi\n        /* \"#utility.yul\":1717:1735   */\n      tag_222\n      tag_133\n      jump\t// in\n    tag_222:\n        /* \"#utility.yul\":1753:1755   */\n      0x40\n        /* \"#utility.yul\":1746:1768   */\n      mstore\n        /* \"#utility.yul\":1499:1774   */\n      swap2\n      swap1\n      pop\n      jump\t// out\n        /* \"#utility.yul\":1779:1962   */\n    tag_202:\n        /* \"#utility.yul\":1839:1843   */\n      0x00\n        /* \"#utility.yul\":1872:1890   */\n      0xffffffffffffffff\n        /* \"#utility.yul\":1864:1870   */\n      dup3\n        /* \"#utility.yul\":1861:1891   */\n      gt\n        /* \"#utility.yul\":1858:1914   */\n      iszero\n      tag_225\n      jumpi\n        /* \"#utility.yul\":1894:1912   */\n      tag_225\n      tag_133\n      jump\t// in\n    tag_225:\n      pop\n        /* \"#utility.yul\":1939:1940   */\n      0x05\n        /* \"#utility.yul\":1935:1949   */\n      shl\n        /* \"#utility.yul\":1951:1955   */\n      0x20\n        /* \"#utility.yul\":1931:1956   */\n      add\n      swap1\n        /* \"#utility.yul\":1779:1962   */\n      jump\t// out\n        /* \"#utility.yul\":1967:2635   */\n    tag_203:\n        /* \"#utility.yul\":2021:2026   */\n      0x00\n        /* \"#utility.yul\":2074:2077   */\n      dup3\n        /* \"#utility.yul\":2067:2071   */\n      0x1f\n        /* \"#utility.yul\":2059:2065   */\n      dup4\n        /* \"#utility.yul\":2055:2072   */\n      add\n        /* \"#utility.yul\":2051:2078   */\n      slt\n        /* \"#utility.yul\":2041:2096   */\n      tag_227\n      jumpi\n        /* \"#utility.yul\":2092:2093   */\n      0x00\n        /* \"#utility.yul\":2089:2090   */\n      dup1\n        /* \"#utility.yul\":2082:2094   */\n      revert\n        /* \"#utility.yul\":2041:2096   */\n    tag_227:\n        /* \"#utility.yul\":2128:2134   */\n      dup2\n        /* \"#utility.yul\":2115:2135   */\n      calldataload\n        /* \"#utility.yul\":2154:2158   */\n      0x20\n        /* \"#utility.yul\":2178:2238   */\n      tag_228\n        /* \"#utility.yul\":2194:2237   */\n      tag_229\n        /* \"#utility.yul\":2234:2236   */\n      dup4\n        /* \"#utility.yul\":2194:2237   */\n      tag_202\n      jump\t// in\n    tag_229:\n        /* \"#utility.yul\":2178:2238   */\n      tag_201\n      jump\t// in\n    tag_228:\n        /* \"#utility.yul\":2260:2263   */\n      dup1\n        /* \"#utility.yul\":2284:2286   */\n      dup4\n        /* \"#utility.yul\":2279:2282   */\n      dup3\n        /* \"#utility.yul\":2272:2287   */\n      mstore\n        /* \"#utility.yul\":2312:2316   */\n      0x20\n        /* \"#utility.yul\":2307:2310   */\n      dup3\n        /* \"#utility.yul\":2303:2317   */\n      add\n        /* \"#utility.yul\":2296:2317   */\n      swap2\n      pop\n        /* \"#utility.yul\":2369:2373   */\n      0x20\n        /* \"#utility.yul\":2363:2365   */\n      dup5\n        /* \"#utility.yul\":2360:2361   */\n      0x05\n        /* \"#utility.yul\":2356:2366   */\n      shl\n        /* \"#utility.yul\":2348:2354   */\n      dup8\n        /* \"#utility.yul\":2344:2367   */\n      add\n        /* \"#utility.yul\":2340:2374   */\n      add\n        /* \"#utility.yul\":2326:2374   */\n      swap4\n      pop\n        /* \"#utility.yul\":2397:2400   */\n      dup7\n        /* \"#utility.yul\":2389:2395   */\n      dup5\n        /* \"#utility.yul\":2386:2401   */\n      gt\n        /* \"#utility.yul\":2383:2418   */\n      iszero\n      tag_230\n      jumpi\n        /* \"#utility.yul\":2414:2415   */\n      0x00\n        /* \"#utility.yul\":2411:2412   */\n      dup1\n        /* \"#utility.yul\":2404:2416   */\n      revert\n        /* \"#utility.yul\":2383:2418   */\n    tag_230:\n        /* \"#utility.yul\":2450:2454   */\n      0x20\n        /* \"#utility.yul\":2442:2448   */\n      dup7\n        /* \"#utility.yul\":2438:2455   */\n      add\n        /* \"#utility.yul\":2464:2606   */\n    tag_231:\n        /* \"#utility.yul\":2480:2486   */\n      dup5\n        /* \"#utility.yul\":2475:2478   */\n      dup2\n        /* \"#utility.yul\":2472:2487   */\n      lt\n        /* \"#utility.yul\":2464:2606   */\n      iszero\n      tag_233\n      jumpi\n        /* \"#utility.yul\":2546:2563   */\n      dup1\n      calldataload\n        /* \"#utility.yul\":2534:2564   */\n      dup4\n      mstore\n        /* \"#utility.yul\":2584:2596   */\n      swap2\n      dup4\n      add\n      swap2\n        /* \"#utility.yul\":2497:2509   */\n      dup4\n      add\n        /* \"#utility.yul\":2464:2606   */\n      jump(tag_231)\n    tag_233:\n      pop\n        /* \"#utility.yul\":2624:2629   */\n      swap7\n        /* \"#utility.yul\":1967:2635   */\n      swap6\n      pop\n      pop\n      pop\n      pop\n      pop\n      pop\n      jump\t// out\n        /* \"#utility.yul\":2640:3854   */\n    tag_65:\n        /* \"#utility.yul\":2767:2773   */\n      0x00\n        /* \"#utility.yul\":2775:2781   */\n      dup1\n        /* \"#utility.yul\":2783:2789   */\n      0x00\n        /* \"#utility.yul\":2836:2838   */\n      0x60\n        /* \"#utility.yul\":2824:2833   */\n      dup5\n        /* \"#utility.yul\":2815:2822   */\n      dup7\n        /* \"#utility.yul\":2811:2834   */\n      sub\n        /* \"#utility.yul\":2807:2839   */\n      slt\n        /* \"#utility.yul\":2804:2856   */\n      iszero\n      tag_235\n      jumpi\n        /* \"#utility.yul\":2852:2853   */\n      0x00\n        /* \"#utility.yul\":2849:2850   */\n      dup1\n        /* \"#utility.yul\":2842:2854   */\n      revert\n        /* \"#utility.yul\":2804:2856   */\n    tag_235:\n        /* \"#utility.yul\":2892:2901   */\n      dup4\n        /* \"#utility.yul\":2879:2902   */\n      calldataload\n        /* \"#utility.yul\":2921:2939   */\n      0xffffffffffffffff\n        /* \"#utility.yul\":2962:2964   */\n      dup1\n        /* \"#utility.yul\":2954:2960   */\n      dup3\n        /* \"#utility.yul\":2951:2965   */\n      gt\n        /* \"#utility.yul\":2948:2982   */\n      iszero\n      tag_236\n      jumpi\n        /* \"#utility.yul\":2978:2979   */\n      0x00\n        /* \"#utility.yul\":2975:2976   */\n      dup1\n        /* \"#utility.yul\":2968:2980   */\n      revert\n        /* \"#utility.yul\":2948:2982   */\n    tag_236:\n        /* \"#utility.yul\":3016:3022   */\n      dup2\n        /* \"#utility.yul\":3005:3014   */\n      dup7\n        /* \"#utility.yul\":3001:3023   */\n      add\n        /* \"#utility.yul\":2991:3023   */\n      swap2\n      pop\n        /* \"#utility.yul\":3061:3068   */\n      dup7\n        /* \"#utility.yul\":3054:3058   */\n      0x1f\n        /* \"#utility.yul\":3050:3052   */\n      dup4\n        /* \"#utility.yul\":3046:3059   */\n      add\n        /* \"#utility.yul\":3042:3069   */\n      slt\n        /* \"#utility.yul\":3032:3087   */\n      tag_237\n      jumpi\n        /* \"#utility.yul\":3083:3084   */\n      0x00\n        /* \"#utility.yul\":3080:3081   */\n      dup1\n        /* \"#utility.yul\":3073:3085   */\n      revert\n        /* \"#utility.yul\":3032:3087   */\n    tag_237:\n        /* \"#utility.yul\":3119:3121   */\n      dup2\n        /* \"#utility.yul\":3106:3122   */\n      calldataload\n        /* \"#utility.yul\":3141:3145   */\n      0x20\n        /* \"#utility.yul\":3165:3225   */\n      tag_238\n        /* \"#utility.yul\":3181:3224   */\n      tag_229\n        /* \"#utility.yul\":3221:3223   */\n      dup4\n        /* \"#utility.yul\":3181:3224   */\n      tag_202\n      jump\t// in\n        /* \"#utility.yul\":3165:3225   */\n    tag_238:\n        /* \"#utility.yul\":3259:3274   */\n      dup3\n      dup2\n      mstore\n        /* \"#utility.yul\":3341:3342   */\n      0x05\n        /* \"#utility.yul\":3337:3347   */\n      swap3\n      swap1\n      swap3\n      shl\n        /* \"#utility.yul\":3329:3348   */\n      dup5\n      add\n        /* \"#utility.yul\":3325:3353   */\n      dup2\n      add\n      swap2\n        /* \"#utility.yul\":3290:3302   */\n      dup2\n      dup2\n      add\n      swap1\n        /* \"#utility.yul\":3365:3384   */\n      dup11\n      dup5\n      gt\n        /* \"#utility.yul\":3362:3401   */\n      iszero\n      tag_240\n      jumpi\n        /* \"#utility.yul\":3397:3398   */\n      0x00\n        /* \"#utility.yul\":3394:3395   */\n      dup1\n        /* \"#utility.yul\":3387:3399   */\n      revert\n        /* \"#utility.yul\":3362:3401   */\n    tag_240:\n        /* \"#utility.yul\":3421:3432   */\n      swap5\n      dup3\n      add\n      swap5\n        /* \"#utility.yul\":3441:3589   */\n    tag_241:\n        /* \"#utility.yul\":3457:3463   */\n      dup4\n        /* \"#utility.yul\":3452:3455   */\n      dup7\n        /* \"#utility.yul\":3449:3464   */\n      lt\n        /* \"#utility.yul\":3441:3589   */\n      iszero\n      tag_243\n      jumpi\n        /* \"#utility.yul\":3523:3546   */\n      tag_244\n        /* \"#utility.yul\":3542:3545   */\n      dup7\n        /* \"#utility.yul\":3523:3546   */\n      tag_200\n      jump\t// in\n    tag_244:\n        /* \"#utility.yul\":3511:3547   */\n      dup3\n      mstore\n        /* \"#utility.yul\":3474:3486   */\n      swap5\n      dup3\n      add\n      swap5\n        /* \"#utility.yul\":3567:3579   */\n      swap1\n      dup3\n      add\n      swap1\n        /* \"#utility.yul\":3441:3589   */\n      jump(tag_241)\n    tag_243:\n        /* \"#utility.yul\":3608:3613   */\n      swap8\n      pop\n      pop\n        /* \"#utility.yul\":3651:3669   */\n      dup8\n      add\n        /* \"#utility.yul\":3638:3670   */\n      calldataload\n      swap3\n      pop\n      pop\n        /* \"#utility.yul\":3682:3698   */\n      dup1\n      dup3\n      gt\n        /* \"#utility.yul\":3679:3715   */\n      iszero\n      tag_245\n      jumpi\n        /* \"#utility.yul\":3711:3712   */\n      0x00\n        /* \"#utility.yul\":3708:3709   */\n      dup1\n        /* \"#utility.yul\":3701:3713   */\n      revert\n        /* \"#utility.yul\":3679:3715   */\n    tag_245:\n      pop\n        /* \"#utility.yul\":3734:3797   */\n      tag_246\n        /* \"#utility.yul\":3789:3796   */\n      dup7\n        /* \"#utility.yul\":3778:3786   */\n      dup3\n        /* \"#utility.yul\":3767:3776   */\n      dup8\n        /* \"#utility.yul\":3763:3787   */\n      add\n        /* \"#utility.yul\":3734:3797   */\n      tag_203\n      jump\t// in\n    tag_246:\n        /* \"#utility.yul\":3724:3797   */\n      swap3\n      pop\n      pop\n        /* \"#utility.yul\":3844:3846   */\n      0x40\n        /* \"#utility.yul\":3833:3842   */\n      dup5\n        /* \"#utility.yul\":3829:3847   */\n      add\n        /* \"#utility.yul\":3816:3848   */\n      calldataload\n        /* \"#utility.yul\":3806:3848   */\n      swap1\n      pop\n        /* \"#utility.yul\":2640:3854   */\n      swap3\n      pop\n      swap3\n      pop\n      swap3\n      jump\t// out\n        /* \"#utility.yul\":4348:4532   */\n    tag_83:\n        /* \"#utility.yul\":4418:4424   */\n      0x00\n        /* \"#utility.yul\":4471:4473   */\n      0x20\n        /* \"#utility.yul\":4459:4468   */\n      dup3\n        /* \"#utility.yul\":4450:4457   */\n      dup5\n        /* \"#utility.yul\":4446:4469   */\n      sub\n        /* \"#utility.yul\":4442:4474   */\n      slt\n        /* \"#utility.yul\":4439:4491   */\n      iszero\n      tag_251\n      jumpi\n        /* \"#utility.yul\":4487:4488   */\n      0x00\n        /* \"#utility.yul\":4484:4485   */\n      dup1\n        /* \"#utility.yul\":4477:4489   */\n      revert\n        /* \"#utility.yul\":4439:4491   */\n    tag_251:\n      pop\n        /* \"#utility.yul\":4510:4526   */\n      mload\n      swap2\n        /* \"#utility.yul\":4348:4532   */\n      swap1\n      pop\n      jump\t// out\n        /* \"#utility.yul\":4537:4664   */\n    tag_204:\n        /* \"#utility.yul\":4598:4608   */\n      0x4e487b71\n        /* \"#utility.yul\":4593:4596   */\n      0xe0\n        /* \"#utility.yul\":4589:4609   */\n      shl\n        /* \"#utility.yul\":4586:4587   */\n      0x00\n        /* \"#utility.yul\":4579:4610   */\n      mstore\n        /* \"#utility.yul\":4629:4633   */\n      0x11\n        /* \"#utility.yul\":4626:4627   */\n      0x04\n        /* \"#utility.yul\":4619:4634   */\n      mstore\n        /* \"#utility.yul\":4653:4657   */\n      0x24\n        /* \"#utility.yul\":4650:4651   */\n      0x00\n        /* \"#utility.yul\":4643:4658   */\n      revert\n        /* \"#utility.yul\":4669:4794   */\n    tag_88:\n        /* \"#utility.yul\":4734:4743   */\n      dup1\n      dup3\n      add\n        /* \"#utility.yul\":4755:4765   */\n      dup1\n      dup3\n      gt\n        /* \"#utility.yul\":4752:4788   */\n      iszero\n      tag_84\n      jumpi\n        /* \"#utility.yul\":4768:4786   */\n      tag_84\n      tag_204\n      jump\t// in\n        /* \"#utility.yul\":4931:5148   */\n    tag_90:\n        /* \"#utility.yul\":4971:4972   */\n      0x00\n        /* \"#utility.yul\":4997:4998   */\n      dup3\n        /* \"#utility.yul\":4987:5119   */\n      tag_258\n      jumpi\n        /* \"#utility.yul\":5041:5051   */\n      0x4e487b71\n        /* \"#utility.yul\":5036:5039   */\n      0xe0\n        /* \"#utility.yul\":5032:5052   */\n      shl\n        /* \"#utility.yul\":5029:5030   */\n      0x00\n        /* \"#utility.yul\":5022:5053   */\n      mstore\n        /* \"#utility.yul\":5076:5080   */\n      0x12\n        /* \"#utility.yul\":5073:5074   */\n      0x04\n        /* \"#utility.yul\":5066:5081   */\n      mstore\n        /* \"#utility.yul\":5104:5108   */\n      0x24\n        /* \"#utility.yul\":5101:5102   */\n      0x00\n        /* \"#utility.yul\":5094:5109   */\n      revert\n        /* \"#utility.yul\":4987:5119   */\n    tag_258:\n      pop\n        /* \"#utility.yul\":5133:5142   */\n      div\n      swap1\n        /* \"#utility.yul\":4931:5148   */\n      jump\t// out\n        /* \"#utility.yul\":5361:5489   */\n    tag_114:\n        /* \"#utility.yul\":5428:5437   */\n      dup2\n      dup2\n      sub\n        /* \"#utility.yul\":5449:5460   */\n      dup2\n      dup2\n      gt\n        /* \"#utility.yul\":5446:5483   */\n      iszero\n      tag_84\n      jumpi\n        /* \"#utility.yul\":5463:5481   */\n      tag_84\n      tag_204\n      jump\t// in\n        /* \"#utility.yul\":5847:6259   */\n    tag_136:\n        /* \"#utility.yul\":5976:5979   */\n      0x00\n        /* \"#utility.yul\":6014:6020   */\n      dup3\n        /* \"#utility.yul\":6008:6021   */\n      mload\n        /* \"#utility.yul\":6039:6040   */\n      0x00\n        /* \"#utility.yul\":6049:6178   */\n    tag_265:\n        /* \"#utility.yul\":6063:6069   */\n      dup2\n        /* \"#utility.yul\":6060:6061   */\n      dup2\n        /* \"#utility.yul\":6057:6070   */\n      lt\n        /* \"#utility.yul\":6049:6178   */\n      iszero\n      tag_267\n      jumpi\n        /* \"#utility.yul\":6161:6165   */\n      0x20\n        /* \"#utility.yul\":6145:6159   */\n      dup2\n      dup7\n      add\n        /* \"#utility.yul\":6141:6166   */\n      dup2\n      add\n        /* \"#utility.yul\":6135:6167   */\n      mload\n        /* \"#utility.yul\":6122:6133   */\n      dup6\n      dup4\n      add\n        /* \"#utility.yul\":6115:6168   */\n      mstore\n        /* \"#utility.yul\":6078:6090   */\n      add\n        /* \"#utility.yul\":6049:6178   */\n      jump(tag_265)\n    tag_267:\n      pop\n        /* \"#utility.yul\":6233:6234   */\n      0x00\n        /* \"#utility.yul\":6197:6213   */\n      swap3\n      add\n        /* \"#utility.yul\":6222:6235   */\n      swap2\n      dup3\n      mstore\n      pop\n        /* \"#utility.yul\":6197:6213   */\n      swap2\n        /* \"#utility.yul\":5847:6259   */\n      swap1\n      pop\n      jump\t// out\n        /* \"#utility.yul\":6609:6736   */\n    tag_148:\n        /* \"#utility.yul\":6670:6680   */\n      0x4e487b71\n        /* \"#utility.yul\":6665:6668   */\n      0xe0\n        /* \"#utility.yul\":6661:6681   */\n      shl\n        /* \"#utility.yul\":6658:6659   */\n      0x00\n        /* \"#utility.yul\":6651:6682   */\n      mstore\n        /* \"#utility.yul\":6701:6705   */\n      0x32\n        /* \"#utility.yul\":6698:6699   */\n      0x04\n        /* \"#utility.yul\":6691:6706   */\n      mstore\n        /* \"#utility.yul\":6725:6729   */\n      0x24\n        /* \"#utility.yul\":6722:6723   */\n      0x00\n        /* \"#utility.yul\":6715:6730   */\n      revert\n        /* \"#utility.yul\":6741:6909   */\n    tag_150:\n        /* \"#utility.yul\":6814:6823   */\n      dup1\n      dup3\n      mul\n        /* \"#utility.yul\":6845:6854   */\n      dup2\n      iszero\n        /* \"#utility.yul\":6862:6877   */\n      dup3\n      dup3\n      div\n        /* \"#utility.yul\":6856:6878   */\n      dup5\n      eq\n        /* \"#utility.yul\":6842:6879   */\n      or\n        /* \"#utility.yul\":6832:6903   */\n      tag_84\n      jumpi\n        /* \"#utility.yul\":6883:6901   */\n      tag_84\n      tag_204\n      jump\t// in\n\n    auxdata: 0xa2646970667358221220e6e2f61604cd4d160ab899967c69c423acfe0c1139a27b238eb96d7f1a8c000864736f6c63430008160033\n}\n",
				"bytecode": {
					"linkReferences": {},
					"object": "6101006040524260e052348015610014575f80fd5b5060405161107d38038061107d83398101604081905261003391610330565b6080839052828282828261005761005282670de0b6b3a764000061037f565b6100f3565b60a08190525f136100af5760405162461bcd60e51b815260206004820152601b60248201527f4e4f4e5f4e454741544956455f44454341595f434f4e5354414e54000000000060448201526064015b60405180910390fd5b505060c052505060015f81905580546001600160a01b039586166001600160a01b0319918216179091556002805496909516951694909417909255506103b1915050565b5f80821361012f5760405162461bcd60e51b815260206004820152600960248201526815539111519253915160ba1b60448201526064016100a6565b5060606001600160801b03821160071b82811c6001600160401b031060061b1782811c63ffffffff1060051b1782811c61ffff1060041b1782811c60ff10600390811b90911783811c600f1060021b1783811c909110600190811b90911783811c90911017609f81810383019390931b90921c6c465772b2bbbb5f824b15207a3081018102821d6d0388eaa27412d5aca026815d636e018102821d6d0df99ac502031bf953eff472fdcc018102821d6d13cdffb29d51d99322bdff5f2211018102821d6d0a0f742023def783a307a986912e018102821d6d01920d8043ca89b5239253284e42018102821d6c0b7a86d7375468fac667a0a527016c29508e458543d8aa4df2abee7882018202831d6d0139601a2efabe717e604cbb4894018202831d6d02247f7a7b6594320649aa03aba1018202831d6c8c3f38e95a6b1ff2ab1c3b343619018202831d6d02384773bdf1ac5676facced60901901820290921d6cb9a025d814b29c212b8b1a07cd19010260016c0504a838426634cdd8738f543560611b03190105711340daa0d5f769dba1915cef59f0815a550602605f19919091017d0267a36c0c95b3975ab3ee5b203a7614a3f75373f047d803ae7b6687f2b302017d57115e47018c7177eebf7cd370a3356a1b7863008a5ae8028c72b88642840160ae1d90565b6001600160a01b038116811461032d575f80fd5b50565b5f805f805f60a08688031215610344575f80fd5b855161034f81610319565b602087015190955061036081610319565b6040870151606088015160809098015196999198509695945092505050565b8181035f8312801583831316838312821617156103aa57634e487b7160e01b5f52601160045260245ffd5b5092915050565b60805160a05160c05160e051610c8b6103f25f395f818161013e015261044201525f61030101525f6106c401525f81816101ce015261069d0152610c8b5ff3fe6080604052600436106100a5575f3560e01c8063ae9cdbe311610062578063ae9cdbe31461017f578063c457fb371461019e578063dc38679c146101bd578063dec86df1146101f0578063f466d4ab14610203578063fc0c546a14610222575f80fd5b806318160ddd146100a9578063244ec3c8146100d05780636d9d33b7146100ef57806370a082311461010e57806378e979251461012d5780637ba7614f14610160575b5f80fd5b3480156100b4575f80fd5b506100bd610259565b6040519081526020015b60405180910390f35b3480156100db575f80fd5b506100bd6100ea36600461098d565b6102c9565b3480156100fa575f80fd5b506100bd6101093660046109ad565b6102fe565b348015610119575f80fd5b506100bd6101283660046109df565b610331565b348015610138575f80fd5b506100bd7f000000000000000000000000000000000000000000000000000000000000000081565b34801561016b575f80fd5b506100bd61017a3660046109ad565b61039d565b34801561018a575f80fd5b506100bd61019936600461098d565b610414565b3480156101a9575f80fd5b506100bd6101b83660046109ad565b610435565b3480156101c8575f80fd5b506100bd7f000000000000000000000000000000000000000000000000000000000000000081565b6100bd6101fe366004610acc565b610489565b34801561020e575f80fd5b506100bd61021d36600461098d565b610696565b34801561022d575f80fd5b50600254610241906001600160a01b031681565b6040516001600160a01b0390911681526020016100c7565b600254604080516318160ddd60e01b815290515f926001600160a01b0316916318160ddd9160048083019260209291908290030181865afa1580156102a0573d5f803e3d5ffd5b505050506040513d601f19601f820116820180604052508101906102c49190610b8e565b905090565b5f806102d58484610414565b90505f6102e56101b88386610bb9565b90505f6102f28287610bcc565b93505050505b92915050565b5f7f0000000000000000000000000000000000000000000000000000000000000000670de0b6b3a76400008302056102f8565b6002546040516370a0823160e01b81526001600160a01b0383811660048301525f9216906370a0823190602401602060405180830381865afa158015610379573d5f803e3d5ffd5b505050506040513d601f19601f820116820180604052508101906102f89190610b8e565b5f818166038d7ea4c680005b821561040c57808310156103e2576103ce83836103c4610259565b6100ea9190610bb9565b6103d89083610bb9565b91505f92506103a9565b6103ef81836103c4610259565b6103f99083610bb9565b91506104058184610beb565b92506103a9565b509392505050565b5f8061041f83610435565b90505f61042c8286610bcc565b95945050505050565b5f8061048261047c6104677f000000000000000000000000000000000000000000000000000000000000000042610beb565b62015180670de0b6b3a7640000919091020490565b84610696565b9392505050565b5f610492610729565b82518451146104e85760405162461bcd60e51b815260206004820152601860248201527f506172616c6c656c20617272617973207265717569726564000000000000000060448201526064015b60405180910390fd5b5f6104f23461039d565b600154604080515f80825260208201928390529394506001600160a01b039092169134916105209190610bfe565b5f6040518083038185875af1925050503d805f811461055a576040519150601f19603f3d011682016040523d82523d5f602084013e61055f565b606091505b50509050806105a35760405162461bcd60e51b815260206004820152601060248201526f2a3930b739b332b9103330b4b632b21760811b60448201526064016104df565b5f805b8751811015610637575f6127108883815181106105c5576105c5610c2a565b6020026020010151866105d89190610c3e565b6105e29190610bcc565b90506106078983815181106105f9576105f9610c2a565b602002602001015182610751565b87828151811061061957610619610c2a565b60200260200101518361062c9190610bb9565b9250506001016105a6565b5080612710146106895760405162461bcd60e51b815260206004820152601960248201527f627073206d7573742061646420757020746f2031305f3030300000000000000060448201526064016104df565b505060015f559050610482565b5f806107147f000000000000000000000000000000000000000000000000000000000000000061070f61070a7f00000000000000000000000000000000000000000000000000000000000000006106f9670de0b6b3a764000060018a01026102fe565b8903670de0b6b3a764000091020590565b6107b6565b61095c565b905060018082101561040c5791506102f89050565b60025f540361074b57604051633ee5aeb560e01b815260040160405180910390fd5b60025f55565b6002546040516340c10f1960e01b81526001600160a01b03848116600483015260248201849052909116906340c10f19906044015f604051808303815f87803b15801561079c575f80fd5b505af11580156107ae573d5f803e3d5ffd5b505050505050565b5f680248ce36a70cb26b3e1982136107cf57505f919050565b680755bf798b4a1bf1e582126108165760405162461bcd60e51b815260206004820152600c60248201526b4558505f4f564552464c4f5760a01b60448201526064016104df565b6503782dace9d9604e83901b0591505f60606bb17217f7d1cf79abc9e3b39884821b056001605f1b01901d6bb17217f7d1cf79abc9e3b39881029093036c240c330e9fb2d9cbaf0fd5aafb1981018102606090811d6d0277594991cfc85f6e2461837cd9018202811d6d1a521255e34f6a5061b25ef1c9c319018202811d6db1bbb201f443cf962f1a1d3db4a5018202811d6e02c72388d9f74f51a9331fed693f1419018202811d6e05180bb14799ab47a8a8cb2a527d57016d02d16720577bd19bf614176fe9ea6c10fe68e7fd37d0007b713f765084018402831d9081019084016d01d3967ed30fc4f89c02bab5708119010290911d6e0587f503bb6ea29d25fcb740196450019091026d360d7aeea093263ecc6e0ecb291760621b010574029d9dc38563c32e5c2f6dc192ee70ef65f9978af30260c3939093039290921c92915050565b81810282158382058314175f198410600160ff1b8413171661097c575f80fd5b670de0b6b3a7640000900592915050565b5f806040838503121561099e575f80fd5b50508035926020909101359150565b5f602082840312156109bd575f80fd5b5035919050565b80356001600160a01b03811681146109da575f80fd5b919050565b5f602082840312156109ef575f80fd5b610482826109c4565b634e487b7160e01b5f52604160045260245ffd5b604051601f8201601f1916810167ffffffffffffffff81118282101715610a3557610a356109f8565b604052919050565b5f67ffffffffffffffff821115610a5657610a566109f8565b5060051b60200190565b5f82601f830112610a6f575f80fd5b81356020610a84610a7f83610a3d565b610a0c565b8083825260208201915060208460051b870101935086841115610aa5575f80fd5b602086015b84811015610ac15780358352918301918301610aaa565b509695505050505050565b5f805f60608486031215610ade575f80fd5b833567ffffffffffffffff80821115610af5575f80fd5b818601915086601f830112610b08575f80fd5b81356020610b18610a7f83610a3d565b82815260059290921b8401810191818101908a841115610b36575f80fd5b948201945b83861015610b5b57610b4c866109c4565b82529482019490820190610b3b565b97505087013592505080821115610b70575f80fd5b50610b7d86828701610a60565b925050604084013590509250925092565b5f60208284031215610b9e575f80fd5b5051919050565b634e487b7160e01b5f52601160045260245ffd5b808201808211156102f8576102f8610ba5565b5f82610be657634e487b7160e01b5f52601260045260245ffd5b500490565b818103818111156102f8576102f8610ba5565b5f82515f5b81811015610c1d5760208186018101518583015201610c03565b505f920191825250919050565b634e487b7160e01b5f52603260045260245ffd5b80820281158282048414176102f8576102f8610ba556fea2646970667358221220e6e2f61604cd4d160ab899967c69c423acfe0c1139a27b238eb96d7f1a8c000864736f6c63430008160033",
					"opcodes": "PUSH2 0x100 PUSH1 0x40 MSTORE TIMESTAMP PUSH1 0xE0 MSTORE CALLVALUE DUP1 ISZERO PUSH2 0x14 JUMPI PUSH0 DUP1 REVERT JUMPDEST POP PUSH1 0x40 MLOAD PUSH2 0x107D CODESIZE SUB DUP1 PUSH2 0x107D DUP4 CODECOPY DUP2 ADD PUSH1 0x40 DUP2 SWAP1 MSTORE PUSH2 0x33 SWAP2 PUSH2 0x330 JUMP JUMPDEST PUSH1 0x80 DUP4 SWAP1 MSTORE DUP3 DUP3 DUP3 DUP3 DUP3 PUSH2 0x57 PUSH2 0x52 DUP3 PUSH8 0xDE0B6B3A7640000 PUSH2 0x37F JUMP JUMPDEST PUSH2 0xF3 JUMP JUMPDEST PUSH1 0xA0 DUP2 SWAP1 MSTORE PUSH0 SGT PUSH2 0xAF JUMPI PUSH1 0x40 MLOAD PUSH3 0x461BCD PUSH1 0xE5 SHL DUP2 MSTORE PUSH1 0x20 PUSH1 0x4 DUP3 ADD MSTORE PUSH1 0x1B PUSH1 0x24 DUP3 ADD MSTORE PUSH32 0x4E4F4E5F4E454741544956455F44454341595F434F4E5354414E540000000000 PUSH1 0x44 DUP3 ADD MSTORE PUSH1 0x64 ADD JUMPDEST PUSH1 0x40 MLOAD DUP1 SWAP2 SUB SWAP1 REVERT JUMPDEST POP POP PUSH1 0xC0 MSTORE POP POP PUSH1 0x1 PUSH0 DUP2 SWAP1 SSTORE DUP1 SLOAD PUSH1 0x1 PUSH1 0x1 PUSH1 0xA0 SHL SUB SWAP6 DUP7 AND PUSH1 0x1 PUSH1 0x1 PUSH1 0xA0 SHL SUB NOT SWAP2 DUP3 AND OR SWAP1 SWAP2 SSTORE PUSH1 0x2 DUP1 SLOAD SWAP7 SWAP1 SWAP6 AND SWAP6 AND SWAP5 SWAP1 SWAP5 OR SWAP1 SWAP3 SSTORE POP PUSH2 0x3B1 SWAP2 POP POP JUMP JUMPDEST PUSH0 DUP1 DUP3 SGT PUSH2 0x12F JUMPI PUSH1 0x40 MLOAD PUSH3 0x461BCD PUSH1 0xE5 SHL DUP2 MSTORE PUSH1 0x20 PUSH1 0x4 DUP3 ADD MSTORE PUSH1 0x9 PUSH1 0x24 DUP3 ADD MSTORE PUSH9 0x155391115192539151 PUSH1 0xBA SHL PUSH1 0x44 DUP3 ADD MSTORE PUSH1 0x64 ADD PUSH2 0xA6 JUMP JUMPDEST POP PUSH1 0x60 PUSH1 0x1 PUSH1 0x1 PUSH1 0x80 SHL SUB DUP3 GT PUSH1 0x7 SHL DUP3 DUP2 SHR PUSH1 0x1 PUSH1 0x1 PUSH1 0x40 SHL SUB LT PUSH1 0x6 SHL OR DUP3 DUP2 SHR PUSH4 0xFFFFFFFF LT PUSH1 0x5 SHL OR DUP3 DUP2 SHR PUSH2 0xFFFF LT PUSH1 0x4 SHL OR DUP3 DUP2 SHR PUSH1 0xFF LT PUSH1 0x3 SWAP1 DUP2 SHL SWAP1 SWAP2 OR DUP4 DUP2 SHR PUSH1 0xF LT PUSH1 0x2 SHL OR DUP4 DUP2 SHR SWAP1 SWAP2 LT PUSH1 0x1 SWAP1 DUP2 SHL SWAP1 SWAP2 OR DUP4 DUP2 SHR SWAP1 SWAP2 LT OR PUSH1 0x9F DUP2 DUP2 SUB DUP4 ADD SWAP4 SWAP1 SWAP4 SHL SWAP1 SWAP3 SHR PUSH13 0x465772B2BBBB5F824B15207A30 DUP2 ADD DUP2 MUL DUP3 SAR PUSH14 0x388EAA27412D5ACA026815D636E ADD DUP2 MUL DUP3 SAR PUSH14 0xDF99AC502031BF953EFF472FDCC ADD DUP2 MUL DUP3 SAR PUSH14 0x13CDFFB29D51D99322BDFF5F2211 ADD DUP2 MUL DUP3 SAR PUSH14 0xA0F742023DEF783A307A986912E ADD DUP2 MUL DUP3 SAR PUSH14 0x1920D8043CA89B5239253284E42 ADD DUP2 MUL DUP3 SAR PUSH13 0xB7A86D7375468FAC667A0A527 ADD PUSH13 0x29508E458543D8AA4DF2ABEE78 DUP3 ADD DUP3 MUL DUP4 SAR PUSH14 0x139601A2EFABE717E604CBB4894 ADD DUP3 MUL DUP4 SAR PUSH14 0x2247F7A7B6594320649AA03ABA1 ADD DUP3 MUL DUP4 SAR PUSH13 0x8C3F38E95A6B1FF2AB1C3B3436 NOT ADD DUP3 MUL DUP4 SAR PUSH14 0x2384773BDF1AC5676FACCED6090 NOT ADD DUP3 MUL SWAP1 SWAP3 SAR PUSH13 0xB9A025D814B29C212B8B1A07CD NOT ADD MUL PUSH1 0x1 PUSH13 0x504A838426634CDD8738F5435 PUSH1 0x61 SHL SUB NOT ADD SDIV PUSH18 0x1340DAA0D5F769DBA1915CEF59F0815A5506 MUL PUSH1 0x5F NOT SWAP2 SWAP1 SWAP2 ADD PUSH30 0x267A36C0C95B3975AB3EE5B203A7614A3F75373F047D803AE7B6687F2B3 MUL ADD PUSH30 0x57115E47018C7177EEBF7CD370A3356A1B7863008A5AE8028C72B8864284 ADD PUSH1 0xAE SAR SWAP1 JUMP JUMPDEST PUSH1 0x1 PUSH1 0x1 PUSH1 0xA0 SHL SUB DUP2 AND DUP2 EQ PUSH2 0x32D JUMPI PUSH0 DUP1 REVERT JUMPDEST POP JUMP JUMPDEST PUSH0 DUP1 PUSH0 DUP1 PUSH0 PUSH1 0xA0 DUP7 DUP9 SUB SLT ISZERO PUSH2 0x344 JUMPI PUSH0 DUP1 REVERT JUMPDEST DUP6 MLOAD PUSH2 0x34F DUP2 PUSH2 0x319 JUMP JUMPDEST PUSH1 0x20 DUP8 ADD MLOAD SWAP1 SWAP6 POP PUSH2 0x360 DUP2 PUSH2 0x319 JUMP JUMPDEST PUSH1 0x40 DUP8 ADD MLOAD PUSH1 0x60 DUP9 ADD MLOAD PUSH1 0x80 SWAP1 SWAP9 ADD MLOAD SWAP7 SWAP10 SWAP2 SWAP9 POP SWAP7 SWAP6 SWAP5 POP SWAP3 POP POP POP JUMP JUMPDEST DUP2 DUP2 SUB PUSH0 DUP4 SLT DUP1 ISZERO DUP4 DUP4 SGT AND DUP4 DUP4 SLT DUP3 AND OR ISZERO PUSH2 0x3AA JUMPI PUSH4 0x4E487B71 PUSH1 0xE0 SHL PUSH0 MSTORE PUSH1 0x11 PUSH1 0x4 MSTORE PUSH1 0x24 PUSH0 REVERT JUMPDEST POP SWAP3 SWAP2 POP POP JUMP JUMPDEST PUSH1 0x80 MLOAD PUSH1 0xA0 MLOAD PUSH1 0xC0 MLOAD PUSH1 0xE0 MLOAD PUSH2 0xC8B PUSH2 0x3F2 PUSH0 CODECOPY PUSH0 DUP2 DUP2 PUSH2 0x13E ADD MSTORE PUSH2 0x442 ADD MSTORE PUSH0 PUSH2 0x301 ADD MSTORE PUSH0 PUSH2 0x6C4 ADD MSTORE PUSH0 DUP2 DUP2 PUSH2 0x1CE ADD MSTORE PUSH2 0x69D ADD MSTORE PUSH2 0xC8B PUSH0 RETURN INVALID PUSH1 0x80 PUSH1 0x40 MSTORE PUSH1 0x4 CALLDATASIZE LT PUSH2 0xA5 JUMPI PUSH0 CALLDATALOAD PUSH1 0xE0 SHR DUP1 PUSH4 0xAE9CDBE3 GT PUSH2 0x62 JUMPI DUP1 PUSH4 0xAE9CDBE3 EQ PUSH2 0x17F JUMPI DUP1 PUSH4 0xC457FB37 EQ PUSH2 0x19E JUMPI DUP1 PUSH4 0xDC38679C EQ PUSH2 0x1BD JUMPI DUP1 PUSH4 0xDEC86DF1 EQ PUSH2 0x1F0 JUMPI DUP1 PUSH4 0xF466D4AB EQ PUSH2 0x203 JUMPI DUP1 PUSH4 0xFC0C546A EQ PUSH2 0x222 JUMPI PUSH0 DUP1 REVERT JUMPDEST DUP1 PUSH4 0x18160DDD EQ PUSH2 0xA9 JUMPI DUP1 PUSH4 0x244EC3C8 EQ PUSH2 0xD0 JUMPI DUP1 PUSH4 0x6D9D33B7 EQ PUSH2 0xEF JUMPI DUP1 PUSH4 0x70A08231 EQ PUSH2 0x10E JUMPI DUP1 PUSH4 0x78E97925 EQ PUSH2 0x12D JUMPI DUP1 PUSH4 0x7BA7614F EQ PUSH2 0x160 JUMPI JUMPDEST PUSH0 DUP1 REVERT JUMPDEST CALLVALUE DUP1 ISZERO PUSH2 0xB4 JUMPI PUSH0 DUP1 REVERT JUMPDEST POP PUSH2 0xBD PUSH2 0x259 JUMP JUMPDEST PUSH1 0x40 MLOAD SWAP1 DUP2 MSTORE PUSH1 0x20 ADD JUMPDEST PUSH1 0x40 MLOAD DUP1 SWAP2 SUB SWAP1 RETURN JUMPDEST CALLVALUE DUP1 ISZERO PUSH2 0xDB JUMPI PUSH0 DUP1 REVERT JUMPDEST POP PUSH2 0xBD PUSH2 0xEA CALLDATASIZE PUSH1 0x4 PUSH2 0x98D JUMP JUMPDEST PUSH2 0x2C9 JUMP JUMPDEST CALLVALUE DUP1 ISZERO PUSH2 0xFA JUMPI PUSH0 DUP1 REVERT JUMPDEST POP PUSH2 0xBD PUSH2 0x109 CALLDATASIZE PUSH1 0x4 PUSH2 0x9AD JUMP JUMPDEST PUSH2 0x2FE JUMP JUMPDEST CALLVALUE DUP1 ISZERO PUSH2 0x119 JUMPI PUSH0 DUP1 REVERT JUMPDEST POP PUSH2 0xBD PUSH2 0x128 CALLDATASIZE PUSH1 0x4 PUSH2 0x9DF JUMP JUMPDEST PUSH2 0x331 JUMP JUMPDEST CALLVALUE DUP1 ISZERO PUSH2 0x138 JUMPI PUSH0 DUP1 REVERT JUMPDEST POP PUSH2 0xBD PUSH32 0x0 DUP2 JUMP JUMPDEST CALLVALUE DUP1 ISZERO PUSH2 0x16B JUMPI PUSH0 DUP1 REVERT JUMPDEST POP PUSH2 0xBD PUSH2 0x17A CALLDATASIZE PUSH1 0x4 PUSH2 0x9AD JUMP JUMPDEST PUSH2 0x39D JUMP JUMPDEST CALLVALUE DUP1 ISZERO PUSH2 0x18A JUMPI PUSH0 DUP1 REVERT JUMPDEST POP PUSH2 0xBD PUSH2 0x199 CALLDATASIZE PUSH1 0x4 PUSH2 0x98D JUMP JUMPDEST PUSH2 0x414 JUMP JUMPDEST CALLVALUE DUP1 ISZERO PUSH2 0x1A9 JUMPI PUSH0 DUP1 REVERT JUMPDEST POP PUSH2 0xBD PUSH2 0x1B8 CALLDATASIZE PUSH1 0x4 PUSH2 0x9AD JUMP JUMPDEST PUSH2 0x435 JUMP JUMPDEST CALLVALUE DUP1 ISZERO PUSH2 0x1C8 JUMPI PUSH0 DUP1 REVERT JUMPDEST POP PUSH2 0xBD PUSH32 0x0 DUP2 JUMP JUMPDEST PUSH2 0xBD PUSH2 0x1FE CALLDATASIZE PUSH1 0x4 PUSH2 0xACC JUMP JUMPDEST PUSH2 0x489 JUMP JUMPDEST CALLVALUE DUP1 ISZERO PUSH2 0x20E JUMPI PUSH0 DUP1 REVERT JUMPDEST POP PUSH2 0xBD PUSH2 0x21D CALLDATASIZE PUSH1 0x4 PUSH2 0x98D JUMP JUMPDEST PUSH2 0x696 JUMP JUMPDEST CALLVALUE DUP1 ISZERO PUSH2 0x22D JUMPI PUSH0 DUP1 REVERT JUMPDEST POP PUSH1 0x2 SLOAD PUSH2 0x241 SWAP1 PUSH1 0x1 PUSH1 0x1 PUSH1 0xA0 SHL SUB AND DUP2 JUMP JUMPDEST PUSH1 0x40 MLOAD PUSH1 0x1 PUSH1 0x1 PUSH1 0xA0 SHL SUB SWAP1 SWAP2 AND DUP2 MSTORE PUSH1 0x20 ADD PUSH2 0xC7 JUMP JUMPDEST PUSH1 0x2 SLOAD PUSH1 0x40 DUP1 MLOAD PUSH4 0x18160DDD PUSH1 0xE0 SHL DUP2 MSTORE SWAP1 MLOAD PUSH0 SWAP3 PUSH1 0x1 PUSH1 0x1 PUSH1 0xA0 SHL SUB AND SWAP2 PUSH4 0x18160DDD SWAP2 PUSH1 0x4 DUP1 DUP4 ADD SWAP3 PUSH1 0x20 SWAP3 SWAP2 SWAP1 DUP3 SWAP1 SUB ADD DUP2 DUP7 GAS STATICCALL ISZERO DUP1 ISZERO PUSH2 0x2A0 JUMPI RETURNDATASIZE PUSH0 DUP1 RETURNDATACOPY RETURNDATASIZE PUSH0 REVERT JUMPDEST POP POP POP POP PUSH1 0x40 MLOAD RETURNDATASIZE PUSH1 0x1F NOT PUSH1 0x1F DUP3 ADD AND DUP3 ADD DUP1 PUSH1 0x40 MSTORE POP DUP2 ADD SWAP1 PUSH2 0x2C4 SWAP2 SWAP1 PUSH2 0xB8E JUMP JUMPDEST SWAP1 POP SWAP1 JUMP JUMPDEST PUSH0 DUP1 PUSH2 0x2D5 DUP5 DUP5 PUSH2 0x414 JUMP JUMPDEST SWAP1 POP PUSH0 PUSH2 0x2E5 PUSH2 0x1B8 DUP4 DUP7 PUSH2 0xBB9 JUMP JUMPDEST SWAP1 POP PUSH0 PUSH2 0x2F2 DUP3 DUP8 PUSH2 0xBCC JUMP JUMPDEST SWAP4 POP POP POP POP JUMPDEST SWAP3 SWAP2 POP POP JUMP JUMPDEST PUSH0 PUSH32 0x0 PUSH8 0xDE0B6B3A7640000 DUP4 MUL SDIV PUSH2 0x2F8 JUMP JUMPDEST PUSH1 0x2 SLOAD PUSH1 0x40 MLOAD PUSH4 0x70A08231 PUSH1 0xE0 SHL DUP2 MSTORE PUSH1 0x1 PUSH1 0x1 PUSH1 0xA0 SHL SUB DUP4 DUP2 AND PUSH1 0x4 DUP4 ADD MSTORE PUSH0 SWAP3 AND SWAP1 PUSH4 0x70A08231 SWAP1 PUSH1 0x24 ADD PUSH1 0x20 PUSH1 0x40 MLOAD DUP1 DUP4 SUB DUP2 DUP7 GAS STATICCALL ISZERO DUP1 ISZERO PUSH2 0x379 JUMPI RETURNDATASIZE PUSH0 DUP1 RETURNDATACOPY RETURNDATASIZE PUSH0 REVERT JUMPDEST POP POP POP POP PUSH1 0x40 MLOAD RETURNDATASIZE PUSH1 0x1F NOT PUSH1 0x1F DUP3 ADD AND DUP3 ADD DUP1 PUSH1 0x40 MSTORE POP DUP2 ADD SWAP1 PUSH2 0x2F8 SWAP2 SWAP1 PUSH2 0xB8E JUMP JUMPDEST PUSH0 DUP2 DUP2 PUSH7 0x38D7EA4C68000 JUMPDEST DUP3 ISZERO PUSH2 0x40C JUMPI DUP1 DUP4 LT ISZERO PUSH2 0x3E2 JUMPI PUSH2 0x3CE DUP4 DUP4 PUSH2 0x3C4 PUSH2 0x259 JUMP JUMPDEST PUSH2 0xEA SWAP2 SWAP1 PUSH2 0xBB9 JUMP JUMPDEST PUSH2 0x3D8 SWAP1 DUP4 PUSH2 0xBB9 JUMP JUMPDEST SWAP2 POP PUSH0 SWAP3 POP PUSH2 0x3A9 JUMP JUMPDEST PUSH2 0x3EF DUP2 DUP4 PUSH2 0x3C4 PUSH2 0x259 JUMP JUMPDEST PUSH2 0x3F9 SWAP1 DUP4 PUSH2 0xBB9 JUMP JUMPDEST SWAP2 POP PUSH2 0x405 DUP2 DUP5 PUSH2 0xBEB JUMP JUMPDEST SWAP3 POP PUSH2 0x3A9 JUMP JUMPDEST POP SWAP4 SWAP3 POP POP POP JUMP JUMPDEST PUSH0 DUP1 PUSH2 0x41F DUP4 PUSH2 0x435 JUMP JUMPDEST SWAP1 POP PUSH0 PUSH2 0x42C DUP3 DUP7 PUSH2 0xBCC JUMP JUMPDEST SWAP6 SWAP5 POP POP POP POP POP JUMP JUMPDEST PUSH0 DUP1 PUSH2 0x482 PUSH2 0x47C PUSH2 0x467 PUSH32 0x0 TIMESTAMP PUSH2 0xBEB JUMP JUMPDEST PUSH3 0x15180 PUSH8 0xDE0B6B3A7640000 SWAP2 SWAP1 SWAP2 MUL DIV SWAP1 JUMP JUMPDEST DUP5 PUSH2 0x696 JUMP JUMPDEST SWAP4 SWAP3 POP POP POP JUMP JUMPDEST PUSH0 PUSH2 0x492 PUSH2 0x729 JUMP JUMPDEST DUP3 MLOAD DUP5 MLOAD EQ PUSH2 0x4E8 JUMPI PUSH1 0x40 MLOAD PUSH3 0x461BCD PUSH1 0xE5 SHL DUP2 MSTORE PUSH1 0x20 PUSH1 0x4 DUP3 ADD MSTORE PUSH1 0x18 PUSH1 0x24 DUP3 ADD MSTORE PUSH32 0x506172616C6C656C206172726179732072657175697265640000000000000000 PUSH1 0x44 DUP3 ADD MSTORE PUSH1 0x64 ADD JUMPDEST PUSH1 0x40 MLOAD DUP1 SWAP2 SUB SWAP1 REVERT JUMPDEST PUSH0 PUSH2 0x4F2 CALLVALUE PUSH2 0x39D JUMP JUMPDEST PUSH1 0x1 SLOAD PUSH1 0x40 DUP1 MLOAD PUSH0 DUP1 DUP3 MSTORE PUSH1 0x20 DUP3 ADD SWAP3 DUP4 SWAP1 MSTORE SWAP4 SWAP5 POP PUSH1 0x1 PUSH1 0x1 PUSH1 0xA0 SHL SUB SWAP1 SWAP3 AND SWAP2 CALLVALUE SWAP2 PUSH2 0x520 SWAP2 SWAP1 PUSH2 0xBFE JUMP JUMPDEST PUSH0 PUSH1 0x40 MLOAD DUP1 DUP4 SUB DUP2 DUP6 DUP8 GAS CALL SWAP3 POP POP POP RETURNDATASIZE DUP1 PUSH0 DUP2 EQ PUSH2 0x55A JUMPI PUSH1 0x40 MLOAD SWAP2 POP PUSH1 0x1F NOT PUSH1 0x3F RETURNDATASIZE ADD AND DUP3 ADD PUSH1 0x40 MSTORE RETURNDATASIZE DUP3 MSTORE RETURNDATASIZE PUSH0 PUSH1 0x20 DUP5 ADD RETURNDATACOPY PUSH2 0x55F JUMP JUMPDEST PUSH1 0x60 SWAP2 POP JUMPDEST POP POP SWAP1 POP DUP1 PUSH2 0x5A3 JUMPI PUSH1 0x40 MLOAD PUSH3 0x461BCD PUSH1 0xE5 SHL DUP2 MSTORE PUSH1 0x20 PUSH1 0x4 DUP3 ADD MSTORE PUSH1 0x10 PUSH1 0x24 DUP3 ADD MSTORE PUSH16 0x2A3930B739B332B9103330B4B632B217 PUSH1 0x81 SHL PUSH1 0x44 DUP3 ADD MSTORE PUSH1 0x64 ADD PUSH2 0x4DF JUMP JUMPDEST PUSH0 DUP1 JUMPDEST DUP8 MLOAD DUP2 LT ISZERO PUSH2 0x637 JUMPI PUSH0 PUSH2 0x2710 DUP9 DUP4 DUP2 MLOAD DUP2 LT PUSH2 0x5C5 JUMPI PUSH2 0x5C5 PUSH2 0xC2A JUMP JUMPDEST PUSH1 0x20 MUL PUSH1 0x20 ADD ADD MLOAD DUP7 PUSH2 0x5D8 SWAP2 SWAP1 PUSH2 0xC3E JUMP JUMPDEST PUSH2 0x5E2 SWAP2 SWAP1 PUSH2 0xBCC JUMP JUMPDEST SWAP1 POP PUSH2 0x607 DUP10 DUP4 DUP2 MLOAD DUP2 LT PUSH2 0x5F9 JUMPI PUSH2 0x5F9 PUSH2 0xC2A JUMP JUMPDEST PUSH1 0x20 MUL PUSH1 0x20 ADD ADD MLOAD DUP3 PUSH2 0x751 JUMP JUMPDEST DUP8 DUP3 DUP2 MLOAD DUP2 LT PUSH2 0x619 JUMPI PUSH2 0x619 PUSH2 0xC2A JUMP JUMPDEST PUSH1 0x20 MUL PUSH1 0x20 ADD ADD MLOAD DUP4 PUSH2 0x62C SWAP2 SWAP1 PUSH2 0xBB9 JUMP JUMPDEST SWAP3 POP POP PUSH1 0x1 ADD PUSH2 0x5A6 JUMP JUMPDEST POP DUP1 PUSH2 0x2710 EQ PUSH2 0x689 JUMPI PUSH1 0x40 MLOAD PUSH3 0x461BCD PUSH1 0xE5 SHL DUP2 MSTORE PUSH1 0x20 PUSH1 0x4 DUP3 ADD MSTORE PUSH1 0x19 PUSH1 0x24 DUP3 ADD MSTORE PUSH32 0x627073206D7573742061646420757020746F2031305F30303000000000000000 PUSH1 0x44 DUP3 ADD MSTORE PUSH1 0x64 ADD PUSH2 0x4DF JUMP JUMPDEST POP POP PUSH1 0x1 PUSH0 SSTORE SWAP1 POP PUSH2 0x482 JUMP JUMPDEST PUSH0 DUP1 PUSH2 0x714 PUSH32 0x0 PUSH2 0x70F PUSH2 0x70A PUSH32 0x0 PUSH2 0x6F9 PUSH8 0xDE0B6B3A7640000 PUSH1 0x1 DUP11 ADD MUL PUSH2 0x2FE JUMP JUMPDEST DUP10 SUB PUSH8 0xDE0B6B3A7640000 SWAP2 MUL SDIV SWAP1 JUMP JUMPDEST PUSH2 0x7B6 JUMP JUMPDEST PUSH2 0x95C JUMP JUMPDEST SWAP1 POP PUSH1 0x1 DUP1 DUP3 LT ISZERO PUSH2 0x40C JUMPI SWAP2 POP PUSH2 0x2F8 SWAP1 POP JUMP JUMPDEST PUSH1 0x2 PUSH0 SLOAD SUB PUSH2 0x74B JUMPI PUSH1 0x40 MLOAD PUSH4 0x3EE5AEB5 PUSH1 0xE0 SHL DUP2 MSTORE PUSH1 0x4 ADD PUSH1 0x40 MLOAD DUP1 SWAP2 SUB SWAP1 REVERT JUMPDEST PUSH1 0x2 PUSH0 SSTORE JUMP JUMPDEST PUSH1 0x2 SLOAD PUSH1 0x40 MLOAD PUSH4 0x40C10F19 PUSH1 0xE0 SHL DUP2 MSTORE PUSH1 0x1 PUSH1 0x1 PUSH1 0xA0 SHL SUB DUP5 DUP2 AND PUSH1 0x4 DUP4 ADD MSTORE PUSH1 0x24 DUP3 ADD DUP5 SWAP1 MSTORE SWAP1 SWAP2 AND SWAP1 PUSH4 0x40C10F19 SWAP1 PUSH1 0x44 ADD PUSH0 PUSH1 0x40 MLOAD DUP1 DUP4 SUB DUP2 PUSH0 DUP8 DUP1 EXTCODESIZE ISZERO DUP1 ISZERO PUSH2 0x79C JUMPI PUSH0 DUP1 REVERT JUMPDEST POP GAS CALL ISZERO DUP1 ISZERO PUSH2 0x7AE JUMPI RETURNDATASIZE PUSH0 DUP1 RETURNDATACOPY RETURNDATASIZE PUSH0 REVERT JUMPDEST POP POP POP POP POP POP JUMP JUMPDEST PUSH0 PUSH9 0x248CE36A70CB26B3E NOT DUP3 SGT PUSH2 0x7CF JUMPI POP PUSH0 SWAP2 SWAP1 POP JUMP JUMPDEST PUSH9 0x755BF798B4A1BF1E5 DUP3 SLT PUSH2 0x816 JUMPI PUSH1 0x40 MLOAD PUSH3 0x461BCD PUSH1 0xE5 SHL DUP2 MSTORE PUSH1 0x20 PUSH1 0x4 DUP3 ADD MSTORE PUSH1 0xC PUSH1 0x24 DUP3 ADD MSTORE PUSH12 0x4558505F4F564552464C4F57 PUSH1 0xA0 SHL PUSH1 0x44 DUP3 ADD MSTORE PUSH1 0x64 ADD PUSH2 0x4DF JUMP JUMPDEST PUSH6 0x3782DACE9D9 PUSH1 0x4E DUP4 SWAP1 SHL SDIV SWAP2 POP PUSH0 PUSH1 0x60 PUSH12 0xB17217F7D1CF79ABC9E3B398 DUP5 DUP3 SHL SDIV PUSH1 0x1 PUSH1 0x5F SHL ADD SWAP1 SAR PUSH12 0xB17217F7D1CF79ABC9E3B398 DUP2 MUL SWAP1 SWAP4 SUB PUSH13 0x240C330E9FB2D9CBAF0FD5AAFB NOT DUP2 ADD DUP2 MUL PUSH1 0x60 SWAP1 DUP2 SAR PUSH14 0x277594991CFC85F6E2461837CD9 ADD DUP3 MUL DUP2 SAR PUSH14 0x1A521255E34F6A5061B25EF1C9C3 NOT ADD DUP3 MUL DUP2 SAR PUSH14 0xB1BBB201F443CF962F1A1D3DB4A5 ADD DUP3 MUL DUP2 SAR PUSH15 0x2C72388D9F74F51A9331FED693F14 NOT ADD DUP3 MUL DUP2 SAR PUSH15 0x5180BB14799AB47A8A8CB2A527D57 ADD PUSH14 0x2D16720577BD19BF614176FE9EA PUSH13 0x10FE68E7FD37D0007B713F7650 DUP5 ADD DUP5 MUL DUP4 SAR SWAP1 DUP2 ADD SWAP1 DUP5 ADD PUSH14 0x1D3967ED30FC4F89C02BAB57081 NOT ADD MUL SWAP1 SWAP2 SAR PUSH15 0x587F503BB6EA29D25FCB740196450 ADD SWAP1 SWAP2 MUL PUSH14 0x360D7AEEA093263ECC6E0ECB2917 PUSH1 0x62 SHL ADD SDIV PUSH21 0x29D9DC38563C32E5C2F6DC192EE70EF65F9978AF3 MUL PUSH1 0xC3 SWAP4 SWAP1 SWAP4 SUB SWAP3 SWAP1 SWAP3 SHR SWAP3 SWAP2 POP POP JUMP JUMPDEST DUP2 DUP2 MUL DUP3 ISZERO DUP4 DUP3 SDIV DUP4 EQ OR PUSH0 NOT DUP5 LT PUSH1 0x1 PUSH1 0xFF SHL DUP5 SGT OR AND PUSH2 0x97C JUMPI PUSH0 DUP1 REVERT JUMPDEST PUSH8 0xDE0B6B3A7640000 SWAP1 SDIV SWAP3 SWAP2 POP POP JUMP JUMPDEST PUSH0 DUP1 PUSH1 0x40 DUP4 DUP6 SUB SLT ISZERO PUSH2 0x99E JUMPI PUSH0 DUP1 REVERT JUMPDEST POP POP DUP1 CALLDATALOAD SWAP3 PUSH1 0x20 SWAP1 SWAP2 ADD CALLDATALOAD SWAP2 POP JUMP JUMPDEST PUSH0 PUSH1 0x20 DUP3 DUP5 SUB SLT ISZERO PUSH2 0x9BD JUMPI PUSH0 DUP1 REVERT JUMPDEST POP CALLDATALOAD SWAP2 SWAP1 POP JUMP JUMPDEST DUP1 CALLDATALOAD PUSH1 0x1 PUSH1 0x1 PUSH1 0xA0 SHL SUB DUP2 AND DUP2 EQ PUSH2 0x9DA JUMPI PUSH0 DUP1 REVERT JUMPDEST SWAP2 SWAP1 POP JUMP JUMPDEST PUSH0 PUSH1 0x20 DUP3 DUP5 SUB SLT ISZERO PUSH2 0x9EF JUMPI PUSH0 DUP1 REVERT JUMPDEST PUSH2 0x482 DUP3 PUSH2 0x9C4 JUMP JUMPDEST PUSH4 0x4E487B71 PUSH1 0xE0 SHL PUSH0 MSTORE PUSH1 0x41 PUSH1 0x4 MSTORE PUSH1 0x24 PUSH0 REVERT JUMPDEST PUSH1 0x40 MLOAD PUSH1 0x1F DUP3 ADD PUSH1 0x1F NOT AND DUP2 ADD PUSH8 0xFFFFFFFFFFFFFFFF DUP2 GT DUP3 DUP3 LT OR ISZERO PUSH2 0xA35 JUMPI PUSH2 0xA35 PUSH2 0x9F8 JUMP JUMPDEST PUSH1 0x40 MSTORE SWAP2 SWAP1 POP JUMP JUMPDEST PUSH0 PUSH8 0xFFFFFFFFFFFFFFFF DUP3 GT ISZERO PUSH2 0xA56 JUMPI PUSH2 0xA56 PUSH2 0x9F8 JUMP JUMPDEST POP PUSH1 0x5 SHL PUSH1 0x20 ADD SWAP1 JUMP JUMPDEST PUSH0 DUP3 PUSH1 0x1F DUP4 ADD SLT PUSH2 0xA6F JUMPI PUSH0 DUP1 REVERT JUMPDEST DUP2 CALLDATALOAD PUSH1 0x20 PUSH2 0xA84 PUSH2 0xA7F DUP4 PUSH2 0xA3D JUMP JUMPDEST PUSH2 0xA0C JUMP JUMPDEST DUP1 DUP4 DUP3 MSTORE PUSH1 0x20 DUP3 ADD SWAP2 POP PUSH1 0x20 DUP5 PUSH1 0x5 SHL DUP8 ADD ADD SWAP4 POP DUP7 DUP5 GT ISZERO PUSH2 0xAA5 JUMPI PUSH0 DUP1 REVERT JUMPDEST PUSH1 0x20 DUP7 ADD JUMPDEST DUP5 DUP2 LT ISZERO PUSH2 0xAC1 JUMPI DUP1 CALLDATALOAD DUP4 MSTORE SWAP2 DUP4 ADD SWAP2 DUP4 ADD PUSH2 0xAAA JUMP JUMPDEST POP SWAP7 SWAP6 POP POP POP POP POP POP JUMP JUMPDEST PUSH0 DUP1 PUSH0 PUSH1 0x60 DUP5 DUP7 SUB SLT ISZERO PUSH2 0xADE JUMPI PUSH0 DUP1 REVERT JUMPDEST DUP4 CALLDATALOAD PUSH8 0xFFFFFFFFFFFFFFFF DUP1 DUP3 GT ISZERO PUSH2 0xAF5 JUMPI PUSH0 DUP1 REVERT JUMPDEST DUP2 DUP7 ADD SWAP2 POP DUP7 PUSH1 0x1F DUP4 ADD SLT PUSH2 0xB08 JUMPI PUSH0 DUP1 REVERT JUMPDEST DUP2 CALLDATALOAD PUSH1 0x20 PUSH2 0xB18 PUSH2 0xA7F DUP4 PUSH2 0xA3D JUMP JUMPDEST DUP3 DUP2 MSTORE PUSH1 0x5 SWAP3 SWAP1 SWAP3 SHL DUP5 ADD DUP2 ADD SWAP2 DUP2 DUP2 ADD SWAP1 DUP11 DUP5 GT ISZERO PUSH2 0xB36 JUMPI PUSH0 DUP1 REVERT JUMPDEST SWAP5 DUP3 ADD SWAP5 JUMPDEST DUP4 DUP7 LT ISZERO PUSH2 0xB5B JUMPI PUSH2 0xB4C DUP7 PUSH2 0x9C4 JUMP JUMPDEST DUP3 MSTORE SWAP5 DUP3 ADD SWAP5 SWAP1 DUP3 ADD SWAP1 PUSH2 0xB3B JUMP JUMPDEST SWAP8 POP POP DUP8 ADD CALLDATALOAD SWAP3 POP POP DUP1 DUP3 GT ISZERO PUSH2 0xB70 JUMPI PUSH0 DUP1 REVERT JUMPDEST POP PUSH2 0xB7D DUP7 DUP3 DUP8 ADD PUSH2 0xA60 JUMP JUMPDEST SWAP3 POP POP PUSH1 0x40 DUP5 ADD CALLDATALOAD SWAP1 POP SWAP3 POP SWAP3 POP SWAP3 JUMP JUMPDEST PUSH0 PUSH1 0x20 DUP3 DUP5 SUB SLT ISZERO PUSH2 0xB9E JUMPI PUSH0 DUP1 REVERT JUMPDEST POP MLOAD SWAP2 SWAP1 POP JUMP JUMPDEST PUSH4 0x4E487B71 PUSH1 0xE0 SHL PUSH0 MSTORE PUSH1 0x11 PUSH1 0x4 MSTORE PUSH1 0x24 PUSH0 REVERT JUMPDEST DUP1 DUP3 ADD DUP1 DUP3 GT ISZERO PUSH2 0x2F8 JUMPI PUSH2 0x2F8 PUSH2 0xBA5 JUMP JUMPDEST PUSH0 DUP3 PUSH2 0xBE6 JUMPI PUSH4 0x4E487B71 PUSH1 0xE0 SHL PUSH0 MSTORE PUSH1 0x12 PUSH1 0x4 MSTORE PUSH1 0x24 PUSH0 REVERT JUMPDEST POP DIV SWAP1 JUMP JUMPDEST DUP2 DUP2 SUB DUP2 DUP2 GT ISZERO PUSH2 0x2F8 JUMPI PUSH2 0x2F8 PUSH2 0xBA5 JUMP JUMPDEST PUSH0 DUP3 MLOAD PUSH0 JUMPDEST DUP2 DUP2 LT ISZERO PUSH2 0xC1D JUMPI PUSH1 0x20 DUP2 DUP7 ADD DUP2 ADD MLOAD DUP6 DUP4 ADD MSTORE ADD PUSH2 0xC03 JUMP JUMPDEST POP PUSH0 SWAP3 ADD SWAP2 DUP3 MSTORE POP SWAP2 SWAP1 POP JUMP JUMPDEST PUSH4 0x4E487B71 PUSH1 0xE0 SHL PUSH0 MSTORE PUSH1 0x32 PUSH1 0x4 MSTORE PUSH1 0x24 PUSH0 REVERT JUMPDEST DUP1 DUP3 MUL DUP2 ISZERO DUP3 DUP3 DIV DUP5 EQ OR PUSH2 0x2F8 JUMPI PUSH2 0x2F8 PUSH2 0xBA5 JUMP INVALID LOG2 PUSH5 0x6970667358 0x22 SLT KECCAK256 0xE6 0xE2 0xF6 AND DIV 0xCD 0x4D AND EXP 0xB8 SWAP10 SWAP7 PUSH29 0x69C423ACFE0C1139A27B238EB96D7F1A8C000864736F6C634300081600 CALLER "
				},
				"gasEstimates": {
					"creation": {
						"codeDepositCost": "642200",
						"executionCost": "infinite",
						"totalCost": "infinite"
					},
					"external": {
						"UNSAFE_getOverestimateTokenAmount(uint256,uint256)": "infinite",
						"_getTokenAmountForSinglePurchase(uint256,uint256)": "infinite",
						"balanceOf(address)": "infinite",
						"buyToken(address[],uint256[],uint256)": "infinite",
						"getTargetSaleTime(int256)": "infinite",
						"getTokenAmountForMultiPurchase(uint256)": "infinite",
						"getTokenPrice(uint256)": "infinite",
						"getVRGDAPrice(int256,uint256)": "infinite",
						"startTime()": "infinite",
						"targetPrice()": "infinite",
						"token()": "2446",
						"totalSupply()": "infinite"
					},
					"internal": {
						"_mint(address,uint256)": "infinite"
					}
				},
				"methodIdentifiers": {
					"UNSAFE_getOverestimateTokenAmount(uint256,uint256)": "ae9cdbe3",
					"_getTokenAmountForSinglePurchase(uint256,uint256)": "244ec3c8",
					"balanceOf(address)": "70a08231",
					"buyToken(address[],uint256[],uint256)": "dec86df1",
					"getTargetSaleTime(int256)": "6d9d33b7",
					"getTokenAmountForMultiPurchase(uint256)": "7ba7614f",
					"getTokenPrice(uint256)": "c457fb37",
					"getVRGDAPrice(int256,uint256)": "f466d4ab",
					"startTime()": "78e97925",
					"targetPrice()": "dc38679c",
					"token()": "fc0c546a",
					"totalSupply()": "18160ddd"
				}
			},
			"storageLayout": {
				"storage": [
					{
						"astId": 936,
						"contract": "packages/revolution-contracts/TokenEmitter.sol:TokenEmitter",
						"label": "_status",
						"offset": 0,
						"slot": "0",
						"type": "t_uint256"
					},
					{
						"astId": 2747,
						"contract": "packages/revolution-contracts/TokenEmitter.sol:TokenEmitter",
						"label": "treasury",
						"offset": 0,
						"slot": "1",
						"type": "t_address"
					},
					{
						"astId": 2750,
						"contract": "packages/revolution-contracts/TokenEmitter.sol:TokenEmitter",
						"label": "token",
						"offset": 0,
						"slot": "2",
						"type": "t_contract(NontransferableERC20)2709"
					}
				],
				"types": {
					"t_address": {
						"encoding": "inplace",
						"label": "address",
						"numberOfBytes": "20"
					},
					"t_contract(NontransferableERC20)2709": {
						"encoding": "inplace",
						"label": "contract NontransferableERC20",
						"numberOfBytes": "20"
					},
					"t_uint256": {
						"encoding": "inplace",
						"label": "uint256",
						"numberOfBytes": "32"
					}
				}
			},
			"userdoc": {
				"kind": "user",
				"methods": {
					"getVRGDAPrice(int256,uint256)": {
						"notice": "Calculate the price of a token according to the VRGDA formula."
					},
					"targetPrice()": {
						"notice": "Target price for a token, to be scaled according to sales pace."
					}
				},
				"version": 1
			}
		}
	}
}