{
	"packages/revolution-contracts/NontransferableERC20.sol": {
		"NontransferableERC20": {
			"abi": [
				{
					"inputs": [
						{
							"internalType": "address",
							"name": "_initialOwner",
							"type": "address"
						},
						{
							"internalType": "string",
							"name": "name_",
							"type": "string"
						},
						{
							"internalType": "string",
							"name": "symbol_",
							"type": "string"
						},
						{
							"internalType": "uint8",
							"name": "decimals_",
							"type": "uint8"
						}
					],
					"stateMutability": "nonpayable",
					"type": "constructor"
				},
				{
					"inputs": [
						{
							"internalType": "address",
							"name": "owner",
							"type": "address"
						}
					],
					"name": "OwnableInvalidOwner",
					"type": "error"
				},
				{
					"inputs": [
						{
							"internalType": "address",
							"name": "account",
							"type": "address"
						}
					],
					"name": "OwnableUnauthorizedAccount",
					"type": "error"
				},
				{
					"anonymous": false,
					"inputs": [
						{
							"indexed": true,
							"internalType": "address",
							"name": "previousOwner",
							"type": "address"
						},
						{
							"indexed": true,
							"internalType": "address",
							"name": "newOwner",
							"type": "address"
						}
					],
					"name": "OwnershipTransferred",
					"type": "event"
				},
				{
					"anonymous": false,
					"inputs": [
						{
							"indexed": true,
							"internalType": "address",
							"name": "from",
							"type": "address"
						},
						{
							"indexed": true,
							"internalType": "address",
							"name": "to",
							"type": "address"
						},
						{
							"indexed": false,
							"internalType": "uint256",
							"name": "value",
							"type": "uint256"
						}
					],
					"name": "Transfer",
					"type": "event"
				},
				{
					"inputs": [
						{
							"internalType": "address",
							"name": "",
							"type": "address"
						},
						{
							"internalType": "uint256",
							"name": "",
							"type": "uint256"
						}
					],
					"name": "approve",
					"outputs": [
						{
							"internalType": "bool",
							"name": "",
							"type": "bool"
						}
					],
					"stateMutability": "nonpayable",
					"type": "function"
				},
				{
					"inputs": [
						{
							"internalType": "address",
							"name": "account",
							"type": "address"
						}
					],
					"name": "balanceOf",
					"outputs": [
						{
							"internalType": "uint256",
							"name": "",
							"type": "uint256"
						}
					],
					"stateMutability": "view",
					"type": "function"
				},
				{
					"inputs": [],
					"name": "decimals",
					"outputs": [
						{
							"internalType": "uint8",
							"name": "",
							"type": "uint8"
						}
					],
					"stateMutability": "view",
					"type": "function"
				},
				{
					"inputs": [
						{
							"internalType": "address",
							"name": "account",
							"type": "address"
						},
						{
							"internalType": "uint256",
							"name": "amount",
							"type": "uint256"
						}
					],
					"name": "mint",
					"outputs": [],
					"stateMutability": "nonpayable",
					"type": "function"
				},
				{
					"inputs": [],
					"name": "name",
					"outputs": [
						{
							"internalType": "string",
							"name": "",
							"type": "string"
						}
					],
					"stateMutability": "view",
					"type": "function"
				},
				{
					"inputs": [],
					"name": "owner",
					"outputs": [
						{
							"internalType": "address",
							"name": "",
							"type": "address"
						}
					],
					"stateMutability": "view",
					"type": "function"
				},
				{
					"inputs": [],
					"name": "renounceOwnership",
					"outputs": [],
					"stateMutability": "nonpayable",
					"type": "function"
				},
				{
					"inputs": [],
					"name": "symbol",
					"outputs": [
						{
							"internalType": "string",
							"name": "",
							"type": "string"
						}
					],
					"stateMutability": "view",
					"type": "function"
				},
				{
					"inputs": [],
					"name": "totalSupply",
					"outputs": [
						{
							"internalType": "uint256",
							"name": "",
							"type": "uint256"
						}
					],
					"stateMutability": "view",
					"type": "function"
				},
				{
					"inputs": [
						{
							"internalType": "address",
							"name": "",
							"type": "address"
						},
						{
							"internalType": "uint256",
							"name": "",
							"type": "uint256"
						}
					],
					"name": "transfer",
					"outputs": [
						{
							"internalType": "bool",
							"name": "",
							"type": "bool"
						}
					],
					"stateMutability": "nonpayable",
					"type": "function"
				},
				{
					"inputs": [
						{
							"internalType": "address",
							"name": "",
							"type": "address"
						},
						{
							"internalType": "address",
							"name": "",
							"type": "address"
						},
						{
							"internalType": "uint256",
							"name": "",
							"type": "uint256"
						}
					],
					"name": "transferFrom",
					"outputs": [
						{
							"internalType": "bool",
							"name": "",
							"type": "bool"
						}
					],
					"stateMutability": "nonpayable",
					"type": "function"
				},
				{
					"inputs": [
						{
							"internalType": "address",
							"name": "newOwner",
							"type": "address"
						}
					],
					"name": "transferOwnership",
					"outputs": [],
					"stateMutability": "nonpayable",
					"type": "function"
				}
			],
			"devdoc": {
				"errors": {
					"OwnableInvalidOwner(address)": [
						{
							"details": "The owner is not a valid owner account. (eg. `address(0)`)"
						}
					],
					"OwnableUnauthorizedAccount(address)": [
						{
							"details": "The caller account is not authorized to perform an operation."
						}
					]
				},
				"kind": "dev",
				"methods": {
					"approve(address,uint256)": {
						"details": "See {IERC20-approve}. NOTE: If `amount` is the maximum `uint256`, the allowance is not updated on `transferFrom`. This is semantically equivalent to an infinite approval. Requirements: - `spender` cannot be the zero address."
					},
					"balanceOf(address)": {
						"details": "See {IERC20-balanceOf}."
					},
					"constructor": {
						"details": "Sets the values for {name} and {symbol}. All two of these values are immutable: they can only be set once during construction."
					},
					"decimals()": {
						"details": "Returns the number of decimals used to get its user representation. For example, if `decimals` equals `2`, a balance of `505` tokens should be displayed to a user as `5.05` (`505 / 10 ** 2`). Tokens usually opt for a value of 18, imitating the relationship between Ether and Wei. This is the default value returned by this function, unless it's overridden. NOTE: This information is only used for _display_ purposes: it in no way affects any of the arithmetic of the contract, including {IERC20-balanceOf} and {IERC20-transfer}."
					},
					"name()": {
						"details": "Returns the name of the token."
					},
					"owner()": {
						"details": "Returns the address of the current owner."
					},
					"renounceOwnership()": {
						"details": "Leaves the contract without owner. It will not be possible to call `onlyOwner` functions. Can only be called by the current owner. NOTE: Renouncing ownership will leave the contract without an owner, thereby disabling any functionality that is only available to the owner."
					},
					"symbol()": {
						"details": "Returns the symbol of the token, usually a shorter version of the name."
					},
					"totalSupply()": {
						"details": "See {IERC20-totalSupply}."
					},
					"transfer(address,uint256)": {
						"details": "See {IERC20-transfer}. Requirements: - `to` cannot be the zero address. - the caller must have a balance of at least `amount`."
					},
					"transferFrom(address,address,uint256)": {
						"details": "See {IERC20-transferFrom}. Emits an {Approval} event indicating the updated allowance. This is not required by the EIP. See the note at the beginning of {ERC20}. NOTE: Does not update the allowance if the current allowance is the maximum `uint256`. Requirements: - `from` and `to` cannot be the zero address. - `from` must have a balance of at least `amount`. - the caller must have allowance for ``from``'s tokens of at least `amount`."
					},
					"transferOwnership(address)": {
						"details": "Transfers ownership of the contract to a new account (`newOwner`). Can only be called by the current owner."
					}
				},
				"version": 1
			},
			"evm": {
				"assembly": "    /* \"packages/revolution-contracts/NontransferableERC20.sol\":1505:8273  contract NontransferableERC20 is Ownable {... */\n  mstore(0x40, 0xa0)\n    /* \"packages/revolution-contracts/NontransferableERC20.sol\":1987:2194  constructor(address _initialOwner, string memory name_, string memory symbol_, uint8 decimals_) Ownable(_initialOwner) {... */\n  callvalue\n  dup1\n  iszero\n  tag_1\n  jumpi\n  0x00\n  dup1\n  revert\ntag_1:\n  pop\n  mload(0x40)\n  sub(codesize, bytecodeSize)\n  dup1\n  bytecodeSize\n  dup4\n  codecopy\n  dup2\n  add\n  0x40\n  dup2\n  swap1\n  mstore\n  tag_2\n  swap2\n  tag_3\n  jump\t// in\ntag_2:\n    /* \"packages/revolution-contracts/NontransferableERC20.sol\":2091:2104  _initialOwner */\n  dup4\n  sub(shl(0xa0, 0x01), 0x01)\n    /* \"@openzeppelin/contracts/access/Ownable.sol\":1273:1299  initialOwner == address(0) */\n  dup2\n  and\n    /* \"@openzeppelin/contracts/access/Ownable.sol\":1269:1364  if (initialOwner == address(0)) {... */\n  tag_7\n  jumpi\n    /* \"@openzeppelin/contracts/access/Ownable.sol\":1322:1353  OwnableInvalidOwner(address(0)) */\n  mload(0x40)\n  shl(0xe0, 0x1e4fbdf7)\n  dup2\n  mstore\n    /* \"@openzeppelin/contracts/access/Ownable.sol\":1350:1351  0 */\n  0x00\n    /* \"@openzeppelin/contracts/access/Ownable.sol\":1322:1353  OwnableInvalidOwner(address(0)) */\n  0x04\n  dup3\n  add\n    /* \"#utility.yul\":2034:2085   */\n  mstore\n    /* \"#utility.yul\":2007:2025   */\n  0x24\n  add\n    /* \"@openzeppelin/contracts/access/Ownable.sol\":1322:1353  OwnableInvalidOwner(address(0)) */\n  mload(0x40)\n  dup1\n  swap2\n  sub\n  swap1\n  revert\n    /* \"@openzeppelin/contracts/access/Ownable.sol\":1269:1364  if (initialOwner == address(0)) {... */\ntag_7:\n    /* \"@openzeppelin/contracts/access/Ownable.sol\":1373:1405  _transferOwnership(initialOwner) */\n  tag_10\n    /* \"@openzeppelin/contracts/access/Ownable.sol\":1392:1404  initialOwner */\n  dup2\n    /* \"@openzeppelin/contracts/access/Ownable.sol\":1373:1391  _transferOwnership */\n  tag_11\n    /* \"@openzeppelin/contracts/access/Ownable.sol\":1373:1405  _transferOwnership(initialOwner) */\n  jump\t// in\ntag_10:\n  pop\n    /* \"packages/revolution-contracts/NontransferableERC20.sol\":2116:2121  _name */\n  0x03\n    /* \"packages/revolution-contracts/NontransferableERC20.sol\":2116:2129  _name = name_ */\n  tag_13\n    /* \"packages/revolution-contracts/NontransferableERC20.sol\":2124:2129  name_ */\n  dup5\n    /* \"packages/revolution-contracts/NontransferableERC20.sol\":2116:2121  _name */\n  dup3\n    /* \"packages/revolution-contracts/NontransferableERC20.sol\":2116:2129  _name = name_ */\n  tag_14\n  jump\t// in\ntag_13:\n  pop\n    /* \"packages/revolution-contracts/NontransferableERC20.sol\":2139:2146  _symbol */\n  0x04\n    /* \"packages/revolution-contracts/NontransferableERC20.sol\":2139:2156  _symbol = symbol_ */\n  tag_15\n    /* \"packages/revolution-contracts/NontransferableERC20.sol\":2149:2156  symbol_ */\n  dup4\n    /* \"packages/revolution-contracts/NontransferableERC20.sol\":2139:2146  _symbol */\n  dup3\n    /* \"packages/revolution-contracts/NontransferableERC20.sol\":2139:2156  _symbol = symbol_ */\n  tag_14\n  jump\t// in\ntag_15:\n  pop\n    /* \"packages/revolution-contracts/NontransferableERC20.sol\":2166:2187  _decimals = decimals_ */\n  0xff\n  and\n  0x80\n  mstore\n  pop\n    /* \"packages/revolution-contracts/NontransferableERC20.sol\":1505:8273  contract NontransferableERC20 is Ownable {... */\n  tag_24\n  swap2\n  pop\n  pop\n  jump\n    /* \"@openzeppelin/contracts/access/Ownable.sol\":2912:3099  function _transferOwnership(address newOwner) internal virtual {... */\ntag_11:\n    /* \"@openzeppelin/contracts/access/Ownable.sol\":2985:3001  address oldOwner */\n  0x00\n    /* \"@openzeppelin/contracts/access/Ownable.sol\":3004:3010  _owner */\n  dup1\n  sload\n  sub(shl(0xa0, 0x01), 0x01)\n    /* \"@openzeppelin/contracts/access/Ownable.sol\":3020:3037  _owner = newOwner */\n  dup4\n  dup2\n  and\n  not(sub(shl(0xa0, 0x01), 0x01))\n  dup4\n  and\n  dup2\n  or\n  dup5\n  sstore\n    /* \"@openzeppelin/contracts/access/Ownable.sol\":3052:3092  OwnershipTransferred(oldOwner, newOwner) */\n  mload(0x40)\n    /* \"@openzeppelin/contracts/access/Ownable.sol\":3004:3010  _owner */\n  swap2\n  swap1\n  swap3\n  and\n  swap3\n  dup4\n  swap2\n    /* \"@openzeppelin/contracts/access/Ownable.sol\":3052:3092  OwnershipTransferred(oldOwner, newOwner) */\n  0x8be0079c531659141344cd1fd0a4f28419497f9722a3daafe3b4186f6b6457e0\n  swap2\n    /* \"@openzeppelin/contracts/access/Ownable.sol\":2985:3001  address oldOwner */\n  swap1\n    /* \"@openzeppelin/contracts/access/Ownable.sol\":3052:3092  OwnershipTransferred(oldOwner, newOwner) */\n  log3\n    /* \"@openzeppelin/contracts/access/Ownable.sol\":2975:3099  {... */\n  pop\n    /* \"@openzeppelin/contracts/access/Ownable.sol\":2912:3099  function _transferOwnership(address newOwner) internal virtual {... */\n  pop\n  jump\t// out\n    /* \"#utility.yul\":14:141   */\ntag_18:\n    /* \"#utility.yul\":75:85   */\n  0x4e487b71\n    /* \"#utility.yul\":70:73   */\n  0xe0\n    /* \"#utility.yul\":66:86   */\n  shl\n    /* \"#utility.yul\":63:64   */\n  0x00\n    /* \"#utility.yul\":56:87   */\n  mstore\n    /* \"#utility.yul\":106:110   */\n  0x41\n    /* \"#utility.yul\":103:104   */\n  0x04\n    /* \"#utility.yul\":96:111   */\n  mstore\n    /* \"#utility.yul\":130:134   */\n  0x24\n    /* \"#utility.yul\":127:128   */\n  0x00\n    /* \"#utility.yul\":120:135   */\n  revert\n    /* \"#utility.yul\":146:990   */\ntag_19:\n    /* \"#utility.yul\":200:205   */\n  0x00\n    /* \"#utility.yul\":253:256   */\n  dup3\n    /* \"#utility.yul\":246:250   */\n  0x1f\n    /* \"#utility.yul\":238:244   */\n  dup4\n    /* \"#utility.yul\":234:251   */\n  add\n    /* \"#utility.yul\":230:257   */\n  slt\n    /* \"#utility.yul\":220:275   */\n  tag_27\n  jumpi\n    /* \"#utility.yul\":271:272   */\n  0x00\n    /* \"#utility.yul\":268:269   */\n  dup1\n    /* \"#utility.yul\":261:273   */\n  revert\n    /* \"#utility.yul\":220:275   */\ntag_27:\n    /* \"#utility.yul\":294:307   */\n  dup2\n  mload\n  sub(shl(0x40, 0x01), 0x01)\n    /* \"#utility.yul\":356:366   */\n  dup1\n  dup3\n  gt\n    /* \"#utility.yul\":353:389   */\n  iszero\n  tag_29\n  jumpi\n    /* \"#utility.yul\":369:387   */\n  tag_29\n  tag_18\n  jump\t// in\ntag_29:\n    /* \"#utility.yul\":444:446   */\n  0x40\n    /* \"#utility.yul\":438:447   */\n  mload\n    /* \"#utility.yul\":412:414   */\n  0x1f\n    /* \"#utility.yul\":498:511   */\n  dup4\n  add\n  not(0x1f)\n    /* \"#utility.yul\":494:516   */\n  swap1\n  dup2\n  and\n    /* \"#utility.yul\":518:520   */\n  0x3f\n    /* \"#utility.yul\":490:521   */\n  add\n    /* \"#utility.yul\":486:526   */\n  and\n    /* \"#utility.yul\":474:527   */\n  dup2\n  add\n  swap1\n    /* \"#utility.yul\":542:560   */\n  dup3\n  dup3\n  gt\n    /* \"#utility.yul\":562:584   */\n  dup2\n  dup4\n  lt\n    /* \"#utility.yul\":539:585   */\n  or\n    /* \"#utility.yul\":536:608   */\n  iszero\n  tag_31\n  jumpi\n    /* \"#utility.yul\":588:606   */\n  tag_31\n  tag_18\n  jump\t// in\ntag_31:\n    /* \"#utility.yul\":628:638   */\n  dup2\n    /* \"#utility.yul\":624:626   */\n  0x40\n    /* \"#utility.yul\":617:639   */\n  mstore\n    /* \"#utility.yul\":663:665   */\n  dup4\n    /* \"#utility.yul\":655:661   */\n  dup2\n    /* \"#utility.yul\":648:666   */\n  mstore\n    /* \"#utility.yul\":685:689   */\n  0x20\n    /* \"#utility.yul\":675:689   */\n  swap3\n  pop\n    /* \"#utility.yul\":732:735   */\n  dup7\n    /* \"#utility.yul\":725:729   */\n  0x20\n    /* \"#utility.yul\":720:722   */\n  dup6\n    /* \"#utility.yul\":712:718   */\n  dup9\n    /* \"#utility.yul\":708:723   */\n  add\n    /* \"#utility.yul\":704:730   */\n  add\n    /* \"#utility.yul\":701:736   */\n  gt\n    /* \"#utility.yul\":698:753   */\n  iszero\n  tag_32\n  jumpi\n    /* \"#utility.yul\":749:750   */\n  0x00\n    /* \"#utility.yul\":746:747   */\n  dup1\n    /* \"#utility.yul\":739:751   */\n  revert\n    /* \"#utility.yul\":698:753   */\ntag_32:\n    /* \"#utility.yul\":771:772   */\n  0x00\n    /* \"#utility.yul\":762:772   */\n  swap2\n  pop\n    /* \"#utility.yul\":781:914   */\ntag_33:\n    /* \"#utility.yul\":795:797   */\n  dup4\n    /* \"#utility.yul\":792:793   */\n  dup3\n    /* \"#utility.yul\":789:798   */\n  lt\n    /* \"#utility.yul\":781:914   */\n  iszero\n  tag_35\n  jumpi\n    /* \"#utility.yul\":883:897   */\n  dup6\n  dup3\n  add\n    /* \"#utility.yul\":879:902   */\n  dup4\n  add\n    /* \"#utility.yul\":873:903   */\n  mload\n    /* \"#utility.yul\":852:866   */\n  dup2\n  dup4\n  add\n    /* \"#utility.yul\":848:871   */\n  dup5\n  add\n    /* \"#utility.yul\":841:904   */\n  mstore\n    /* \"#utility.yul\":806:816   */\n  swap1\n  dup3\n  add\n  swap1\n    /* \"#utility.yul\":781:914   */\n  jump(tag_33)\ntag_35:\n    /* \"#utility.yul\":958:959   */\n  0x00\n    /* \"#utility.yul\":951:955   */\n  0x20\n    /* \"#utility.yul\":946:948   */\n  dup6\n    /* \"#utility.yul\":938:944   */\n  dup4\n    /* \"#utility.yul\":934:949   */\n  add\n    /* \"#utility.yul\":930:956   */\n  add\n    /* \"#utility.yul\":923:960   */\n  mstore\n    /* \"#utility.yul\":978:984   */\n  dup1\n    /* \"#utility.yul\":969:984   */\n  swap5\n  pop\n  pop\n  pop\n  pop\n  pop\n    /* \"#utility.yul\":146:990   */\n  swap3\n  swap2\n  pop\n  pop\n  jump\t// out\n    /* \"#utility.yul\":995:1883   */\ntag_3:\n    /* \"#utility.yul\":1110:1116   */\n  0x00\n    /* \"#utility.yul\":1118:1124   */\n  dup1\n    /* \"#utility.yul\":1126:1132   */\n  0x00\n    /* \"#utility.yul\":1134:1140   */\n  dup1\n    /* \"#utility.yul\":1187:1190   */\n  0x80\n    /* \"#utility.yul\":1175:1184   */\n  dup6\n    /* \"#utility.yul\":1166:1173   */\n  dup8\n    /* \"#utility.yul\":1162:1185   */\n  sub\n    /* \"#utility.yul\":1158:1191   */\n  slt\n    /* \"#utility.yul\":1155:1208   */\n  iszero\n  tag_37\n  jumpi\n    /* \"#utility.yul\":1204:1205   */\n  0x00\n    /* \"#utility.yul\":1201:1202   */\n  dup1\n    /* \"#utility.yul\":1194:1206   */\n  revert\n    /* \"#utility.yul\":1155:1208   */\ntag_37:\n    /* \"#utility.yul\":1230:1246   */\n  dup5\n  mload\n  sub(shl(0xa0, 0x01), 0x01)\n    /* \"#utility.yul\":1275:1306   */\n  dup2\n  and\n    /* \"#utility.yul\":1265:1307   */\n  dup2\n  eq\n    /* \"#utility.yul\":1255:1325   */\n  tag_38\n  jumpi\n    /* \"#utility.yul\":1321:1322   */\n  0x00\n    /* \"#utility.yul\":1318:1319   */\n  dup1\n    /* \"#utility.yul\":1311:1323   */\n  revert\n    /* \"#utility.yul\":1255:1325   */\ntag_38:\n    /* \"#utility.yul\":1393:1395   */\n  0x20\n    /* \"#utility.yul\":1378:1396   */\n  dup7\n  add\n    /* \"#utility.yul\":1372:1397   */\n  mload\n    /* \"#utility.yul\":1344:1349   */\n  swap1\n  swap5\n  pop\n  sub(shl(0x40, 0x01), 0x01)\n    /* \"#utility.yul\":1446:1460   */\n  dup1\n  dup3\n  gt\n    /* \"#utility.yul\":1443:1477   */\n  iszero\n  tag_39\n  jumpi\n    /* \"#utility.yul\":1473:1474   */\n  0x00\n    /* \"#utility.yul\":1470:1471   */\n  dup1\n    /* \"#utility.yul\":1463:1475   */\n  revert\n    /* \"#utility.yul\":1443:1477   */\ntag_39:\n    /* \"#utility.yul\":1496:1557   */\n  tag_40\n    /* \"#utility.yul\":1549:1556   */\n  dup9\n    /* \"#utility.yul\":1540:1546   */\n  dup4\n    /* \"#utility.yul\":1529:1538   */\n  dup10\n    /* \"#utility.yul\":1525:1547   */\n  add\n    /* \"#utility.yul\":1496:1557   */\n  tag_19\n  jump\t// in\ntag_40:\n    /* \"#utility.yul\":1486:1557   */\n  swap5\n  pop\n    /* \"#utility.yul\":1603:1605   */\n  0x40\n    /* \"#utility.yul\":1592:1601   */\n  dup8\n    /* \"#utility.yul\":1588:1606   */\n  add\n    /* \"#utility.yul\":1582:1607   */\n  mload\n    /* \"#utility.yul\":1566:1607   */\n  swap2\n  pop\n    /* \"#utility.yul\":1632:1634   */\n  dup1\n    /* \"#utility.yul\":1622:1630   */\n  dup3\n    /* \"#utility.yul\":1619:1635   */\n  gt\n    /* \"#utility.yul\":1616:1652   */\n  iszero\n  tag_41\n  jumpi\n    /* \"#utility.yul\":1648:1649   */\n  0x00\n    /* \"#utility.yul\":1645:1646   */\n  dup1\n    /* \"#utility.yul\":1638:1650   */\n  revert\n    /* \"#utility.yul\":1616:1652   */\ntag_41:\n  pop\n    /* \"#utility.yul\":1671:1734   */\n  tag_42\n    /* \"#utility.yul\":1726:1733   */\n  dup8\n    /* \"#utility.yul\":1715:1723   */\n  dup3\n    /* \"#utility.yul\":1704:1713   */\n  dup9\n    /* \"#utility.yul\":1700:1724   */\n  add\n    /* \"#utility.yul\":1671:1734   */\n  tag_19\n  jump\t// in\ntag_42:\n    /* \"#utility.yul\":1661:1734   */\n  swap3\n  pop\n  pop\n    /* \"#utility.yul\":1779:1781   */\n  0x60\n    /* \"#utility.yul\":1768:1777   */\n  dup6\n    /* \"#utility.yul\":1764:1782   */\n  add\n    /* \"#utility.yul\":1758:1783   */\n  mload\n    /* \"#utility.yul\":1827:1831   */\n  0xff\n    /* \"#utility.yul\":1818:1825   */\n  dup2\n    /* \"#utility.yul\":1814:1832   */\n  and\n    /* \"#utility.yul\":1805:1812   */\n  dup2\n    /* \"#utility.yul\":1802:1833   */\n  eq\n    /* \"#utility.yul\":1792:1851   */\n  tag_43\n  jumpi\n    /* \"#utility.yul\":1847:1848   */\n  0x00\n    /* \"#utility.yul\":1844:1845   */\n  dup1\n    /* \"#utility.yul\":1837:1849   */\n  revert\n    /* \"#utility.yul\":1792:1851   */\ntag_43:\n    /* \"#utility.yul\":995:1883   */\n  swap4\n  swap7\n  swap3\n  swap6\n  pop\n  swap1\n  swap4\n  pop\n  pop\n  jump\t// out\n    /* \"#utility.yul\":2096:2476   */\ntag_20:\n    /* \"#utility.yul\":2175:2176   */\n  0x01\n    /* \"#utility.yul\":2171:2183   */\n  dup2\n  dup2\n  shr\n  swap1\n    /* \"#utility.yul\":2218:2230   */\n  dup3\n  and\n  dup1\n    /* \"#utility.yul\":2239:2300   */\n  tag_46\n  jumpi\n    /* \"#utility.yul\":2293:2297   */\n  0x7f\n    /* \"#utility.yul\":2285:2291   */\n  dup3\n    /* \"#utility.yul\":2281:2298   */\n  and\n    /* \"#utility.yul\":2271:2298   */\n  swap2\n  pop\n    /* \"#utility.yul\":2239:2300   */\ntag_46:\n    /* \"#utility.yul\":2346:2348   */\n  0x20\n    /* \"#utility.yul\":2338:2344   */\n  dup3\n    /* \"#utility.yul\":2335:2349   */\n  lt\n    /* \"#utility.yul\":2315:2333   */\n  dup2\n    /* \"#utility.yul\":2312:2350   */\n  sub\n    /* \"#utility.yul\":2309:2470   */\n  tag_47\n  jumpi\n    /* \"#utility.yul\":2392:2402   */\n  0x4e487b71\n    /* \"#utility.yul\":2387:2390   */\n  0xe0\n    /* \"#utility.yul\":2383:2403   */\n  shl\n    /* \"#utility.yul\":2380:2381   */\n  0x00\n    /* \"#utility.yul\":2373:2404   */\n  mstore\n    /* \"#utility.yul\":2427:2431   */\n  0x22\n    /* \"#utility.yul\":2424:2425   */\n  0x04\n    /* \"#utility.yul\":2417:2432   */\n  mstore\n    /* \"#utility.yul\":2455:2459   */\n  0x24\n    /* \"#utility.yul\":2452:2453   */\n  0x00\n    /* \"#utility.yul\":2445:2460   */\n  revert\n    /* \"#utility.yul\":2309:2470   */\ntag_47:\n  pop\n    /* \"#utility.yul\":2096:2476   */\n  swap2\n  swap1\n  pop\n  jump\t// out\n    /* \"#utility.yul\":2607:3125   */\ntag_22:\n    /* \"#utility.yul\":2709:2711   */\n  0x1f\n    /* \"#utility.yul\":2704:2707   */\n  dup3\n    /* \"#utility.yul\":2701:2712   */\n  gt\n    /* \"#utility.yul\":2698:3119   */\n  iszero\n  tag_50\n  jumpi\n    /* \"#utility.yul\":2745:2750   */\n  dup1\n    /* \"#utility.yul\":2742:2743   */\n  0x00\n    /* \"#utility.yul\":2735:2751   */\n  mstore\n    /* \"#utility.yul\":2789:2793   */\n  0x20\n    /* \"#utility.yul\":2786:2787   */\n  0x00\n    /* \"#utility.yul\":2776:2794   */\n  keccak256\n    /* \"#utility.yul\":2859:2861   */\n  0x1f\n    /* \"#utility.yul\":2847:2857   */\n  dup5\n    /* \"#utility.yul\":2843:2862   */\n  add\n    /* \"#utility.yul\":2840:2841   */\n  0x05\n    /* \"#utility.yul\":2836:2863   */\n  shr\n    /* \"#utility.yul\":2830:2834   */\n  dup2\n    /* \"#utility.yul\":2826:2864   */\n  add\n    /* \"#utility.yul\":2895:2899   */\n  0x20\n    /* \"#utility.yul\":2883:2893   */\n  dup6\n    /* \"#utility.yul\":2880:2900   */\n  lt\n    /* \"#utility.yul\":2877:2924   */\n  iszero\n  tag_51\n  jumpi\n  pop\n    /* \"#utility.yul\":2918:2922   */\n  dup1\n    /* \"#utility.yul\":2877:2924   */\ntag_51:\n    /* \"#utility.yul\":2973:2975   */\n  0x1f\n    /* \"#utility.yul\":2968:2971   */\n  dup5\n    /* \"#utility.yul\":2964:2976   */\n  add\n    /* \"#utility.yul\":2961:2962   */\n  0x05\n    /* \"#utility.yul\":2957:2977   */\n  shr\n    /* \"#utility.yul\":2951:2955   */\n  dup3\n    /* \"#utility.yul\":2947:2978   */\n  add\n    /* \"#utility.yul\":2937:2978   */\n  swap2\n  pop\n    /* \"#utility.yul\":3028:3109   */\ntag_52:\n    /* \"#utility.yul\":3046:3048   */\n  dup2\n    /* \"#utility.yul\":3039:3044   */\n  dup2\n    /* \"#utility.yul\":3036:3049   */\n  lt\n    /* \"#utility.yul\":3028:3109   */\n  iszero\n  tag_54\n  jumpi\n    /* \"#utility.yul\":3105:3106   */\n  0x00\n    /* \"#utility.yul\":3091:3107   */\n  dup2\n  sstore\n    /* \"#utility.yul\":3072:3073   */\n  0x01\n    /* \"#utility.yul\":3061:3074   */\n  add\n    /* \"#utility.yul\":3028:3109   */\n  jump(tag_52)\ntag_54:\n    /* \"#utility.yul\":3032:3035   */\n  pop\n  pop\n    /* \"#utility.yul\":2698:3119   */\ntag_50:\n    /* \"#utility.yul\":2607:3125   */\n  pop\n  pop\n  pop\n  jump\t// out\n    /* \"#utility.yul\":3301:4646   */\ntag_14:\n    /* \"#utility.yul\":3421:3431   */\n  dup2\n  mload\n  sub(shl(0x40, 0x01), 0x01)\n    /* \"#utility.yul\":3443:3473   */\n  dup2\n  gt\n    /* \"#utility.yul\":3440:3496   */\n  iszero\n  tag_58\n  jumpi\n    /* \"#utility.yul\":3476:3494   */\n  tag_58\n  tag_18\n  jump\t// in\ntag_58:\n    /* \"#utility.yul\":3505:3602   */\n  tag_59\n    /* \"#utility.yul\":3595:3601   */\n  dup2\n    /* \"#utility.yul\":3555:3593   */\n  tag_60\n    /* \"#utility.yul\":3587:3591   */\n  dup5\n    /* \"#utility.yul\":3581:3592   */\n  sload\n    /* \"#utility.yul\":3555:3593   */\n  tag_20\n  jump\t// in\ntag_60:\n    /* \"#utility.yul\":3549:3553   */\n  dup5\n    /* \"#utility.yul\":3505:3602   */\n  tag_22\n  jump\t// in\ntag_59:\n    /* \"#utility.yul\":3657:3661   */\n  0x20\n  dup1\n    /* \"#utility.yul\":3714:3716   */\n  0x1f\n    /* \"#utility.yul\":3703:3717   */\n  dup4\n  gt\n    /* \"#utility.yul\":3731:3732   */\n  0x01\n    /* \"#utility.yul\":3726:4389   */\n  dup2\n  eq\n  tag_62\n  jumpi\n    /* \"#utility.yul\":4433:4434   */\n  0x00\n    /* \"#utility.yul\":4450:4456   */\n  dup5\n    /* \"#utility.yul\":4447:4536   */\n  iszero\n  tag_63\n  jumpi\n  pop\n    /* \"#utility.yul\":4502:4521   */\n  dup6\n  dup4\n  add\n    /* \"#utility.yul\":4496:4522   */\n  mload\n    /* \"#utility.yul\":4447:4536   */\ntag_63:\n  not(0x00)\n    /* \"#utility.yul\":3258:3259   */\n  0x03\n    /* \"#utility.yul\":3254:3265   */\n  dup7\n  swap1\n  shl\n    /* \"#utility.yul\":3250:3274   */\n  shr\n    /* \"#utility.yul\":3246:3275   */\n  not\n    /* \"#utility.yul\":3236:3276   */\n  and\n    /* \"#utility.yul\":3282:3283   */\n  0x01\n    /* \"#utility.yul\":3278:3289   */\n  dup6\n  swap1\n  shl\n    /* \"#utility.yul\":3233:3290   */\n  or\n    /* \"#utility.yul\":4549:4630   */\n  dup6\n  sstore\n    /* \"#utility.yul\":3696:4640   */\n  jump(tag_61)\n    /* \"#utility.yul\":3726:4389   */\ntag_62:\n    /* \"#utility.yul\":2554:2555   */\n  0x00\n    /* \"#utility.yul\":2547:2561   */\n  dup6\n  dup2\n  mstore\n    /* \"#utility.yul\":2591:2595   */\n  0x20\n    /* \"#utility.yul\":2578:2596   */\n  dup2\n  keccak256\n  not(0x1f)\n    /* \"#utility.yul\":3762:3782   */\n  dup7\n  and\n  swap2\n    /* \"#utility.yul\":3880:4116   */\ntag_66:\n    /* \"#utility.yul\":3894:3901   */\n  dup3\n    /* \"#utility.yul\":3891:3892   */\n  dup2\n    /* \"#utility.yul\":3888:3902   */\n  lt\n    /* \"#utility.yul\":3880:4116   */\n  iszero\n  tag_68\n  jumpi\n    /* \"#utility.yul\":3983:4002   */\n  dup9\n  dup7\n  add\n    /* \"#utility.yul\":3977:4003   */\n  mload\n    /* \"#utility.yul\":3962:4004   */\n  dup3\n  sstore\n    /* \"#utility.yul\":4075:4102   */\n  swap5\n  dup5\n  add\n  swap5\n    /* \"#utility.yul\":4043:4044   */\n  0x01\n    /* \"#utility.yul\":4031:4045   */\n  swap1\n  swap2\n  add\n  swap1\n    /* \"#utility.yul\":3910:3929   */\n  dup5\n  add\n    /* \"#utility.yul\":3880:4116   */\n  jump(tag_66)\ntag_68:\n    /* \"#utility.yul\":3884:3887   */\n  pop\n    /* \"#utility.yul\":4144:4150   */\n  dup6\n    /* \"#utility.yul\":4135:4142   */\n  dup3\n    /* \"#utility.yul\":4132:4151   */\n  lt\n    /* \"#utility.yul\":4129:4330   */\n  iszero\n  tag_69\n  jumpi\n    /* \"#utility.yul\":4205:4224   */\n  dup8\n  dup6\n  add\n    /* \"#utility.yul\":4199:4225   */\n  mload\n  not(0x00)\n    /* \"#utility.yul\":4288:4289   */\n  0x03\n    /* \"#utility.yul\":4284:4298   */\n  dup9\n  swap1\n  shl\n    /* \"#utility.yul\":4300:4303   */\n  0xf8\n    /* \"#utility.yul\":4280:4304   */\n  and\n    /* \"#utility.yul\":4276:4313   */\n  shr\n    /* \"#utility.yul\":4272:4314   */\n  not\n    /* \"#utility.yul\":4257:4315   */\n  and\n    /* \"#utility.yul\":4242:4316   */\n  dup2\n  sstore\n    /* \"#utility.yul\":4129:4330   */\ntag_69:\n  pop\n  pop\n    /* \"#utility.yul\":4376:4377   */\n  0x01\n    /* \"#utility.yul\":4367:4373   */\n  dup5\n    /* \"#utility.yul\":4364:4365   */\n  0x01\n    /* \"#utility.yul\":4360:4374   */\n  shl\n    /* \"#utility.yul\":4356:4378   */\n  add\n    /* \"#utility.yul\":4350:4354   */\n  dup6\n    /* \"#utility.yul\":4343:4379   */\n  sstore\n    /* \"#utility.yul\":3696:4640   */\ntag_61:\n  pop\n  pop\n  pop\n  pop\n    /* \"#utility.yul\":3301:4646   */\n  pop\n  pop\n  jump\t// out\ntag_24:\n    /* \"packages/revolution-contracts/NontransferableERC20.sol\":1505:8273  contract NontransferableERC20 is Ownable {... */\n  mload(0x80)\n  codecopy(0x00, dataOffset(sub_0), dataSize(sub_0))\n  0x00\n  assignImmutable(\"0xdd5c0e85d12671451a2813ab72960178ae895d157199d23818aec59b00ee9e8b\")\n  return(0x00, dataSize(sub_0))\nstop\n\nsub_0: assembly {\n        /* \"packages/revolution-contracts/NontransferableERC20.sol\":1505:8273  contract NontransferableERC20 is Ownable {... */\n      mstore(0x40, 0x80)\n      callvalue\n      dup1\n      iszero\n      tag_1\n      jumpi\n      0x00\n      dup1\n      revert\n    tag_1:\n      pop\n      jumpi(tag_2, lt(calldatasize, 0x04))\n      shr(0xe0, calldataload(0x00))\n      dup1\n      0x70a08231\n      gt\n      tag_15\n      jumpi\n      dup1\n      0x70a08231\n      eq\n      tag_9\n      jumpi\n      dup1\n      0x715018a6\n      eq\n      tag_10\n      jumpi\n      dup1\n      0x8da5cb5b\n      eq\n      tag_11\n      jumpi\n      dup1\n      0x95d89b41\n      eq\n      tag_12\n      jumpi\n      dup1\n      0xa9059cbb\n      eq\n      tag_4\n      jumpi\n      dup1\n      0xf2fde38b\n      eq\n      tag_14\n      jumpi\n      0x00\n      dup1\n      revert\n    tag_15:\n      dup1\n      0x06fdde03\n      eq\n      tag_3\n      jumpi\n      dup1\n      0x095ea7b3\n      eq\n      tag_4\n      jumpi\n      dup1\n      0x18160ddd\n      eq\n      tag_5\n      jumpi\n      dup1\n      0x23b872dd\n      eq\n      tag_6\n      jumpi\n      dup1\n      0x313ce567\n      eq\n      tag_7\n      jumpi\n      dup1\n      0x40c10f19\n      eq\n      tag_8\n      jumpi\n    tag_2:\n      0x00\n      dup1\n      revert\n        /* \"packages/revolution-contracts/NontransferableERC20.sol\":2259:2348  function name() public view virtual returns (string memory) {... */\n    tag_3:\n      tag_16\n      tag_17\n      jump\t// in\n    tag_16:\n      mload(0x40)\n      tag_18\n      swap2\n      swap1\n      tag_19\n      jump\t// in\n    tag_18:\n      mload(0x40)\n      dup1\n      swap2\n      sub\n      swap1\n      return\n        /* \"packages/revolution-contracts/NontransferableERC20.sol\":4206:4300  function approve(address, uint256) public virtual returns (bool) {... */\n    tag_4:\n      tag_20\n      tag_21\n      calldatasize\n      0x04\n      tag_22\n      jump\t// in\n    tag_21:\n      tag_23\n      jump\t// in\n    tag_20:\n      mload(0x40)\n        /* \"#utility.yul\":1169:1183   */\n      swap1\n      iszero\n        /* \"#utility.yul\":1162:1184   */\n      iszero\n        /* \"#utility.yul\":1144:1185   */\n      dup2\n      mstore\n        /* \"#utility.yul\":1132:1134   */\n      0x20\n        /* \"#utility.yul\":1117:1135   */\n      add\n        /* \"packages/revolution-contracts/NontransferableERC20.sol\":4206:4300  function approve(address, uint256) public virtual returns (bool) {... */\n      tag_18\n        /* \"#utility.yul\":1004:1191   */\n      jump\n        /* \"packages/revolution-contracts/NontransferableERC20.sol\":3336:3433  function totalSupply() public view virtual returns (uint256) {... */\n    tag_5:\n        /* \"packages/revolution-contracts/NontransferableERC20.sol\":3414:3426  _totalSupply */\n      sload(0x02)\n        /* \"packages/revolution-contracts/NontransferableERC20.sol\":3336:3433  function totalSupply() public view virtual returns (uint256) {... */\n    tag_26:\n      mload(0x40)\n        /* \"#utility.yul\":1342:1367   */\n      swap1\n      dup2\n      mstore\n        /* \"#utility.yul\":1330:1332   */\n      0x20\n        /* \"#utility.yul\":1315:1333   */\n      add\n        /* \"packages/revolution-contracts/NontransferableERC20.sol\":3336:3433  function totalSupply() public view virtual returns (uint256) {... */\n      tag_18\n        /* \"#utility.yul\":1196:1373   */\n      jump\n        /* \"packages/revolution-contracts/NontransferableERC20.sol\":4862:4970  function transferFrom(address, address, uint256) public virtual returns (bool) {... */\n    tag_6:\n      tag_20\n      tag_31\n      calldatasize\n      0x04\n      tag_32\n      jump\t// in\n    tag_31:\n        /* \"packages/revolution-contracts/NontransferableERC20.sol\":4935:4939  bool */\n      0x00\n        /* \"packages/revolution-contracts/NontransferableERC20.sol\":4862:4970  function transferFrom(address, address, uint256) public virtual returns (bool) {... */\n      swap4\n      swap3\n      pop\n      pop\n      pop\n      jump\n        /* \"packages/revolution-contracts/NontransferableERC20.sol\":3187:3276  function decimals() public view virtual returns (uint8) {... */\n    tag_7:\n      mload(0x40)\n        /* \"#utility.yul\":1883:1887   */\n      0xff\n        /* \"packages/revolution-contracts/NontransferableERC20.sol\":3260:3269  _decimals */\n      immutable(\"0xdd5c0e85d12671451a2813ab72960178ae895d157199d23818aec59b00ee9e8b\")\n        /* \"#utility.yul\":1871:1888   */\n      and\n        /* \"#utility.yul\":1853:1889   */\n      dup2\n      mstore\n        /* \"#utility.yul\":1841:1843   */\n      0x20\n        /* \"#utility.yul\":1826:1844   */\n      add\n        /* \"packages/revolution-contracts/NontransferableERC20.sol\":3187:3276  function decimals() public view virtual returns (uint8) {... */\n      tag_18\n        /* \"#utility.yul\":1711:1895   */\n      jump\n        /* \"packages/revolution-contracts/NontransferableERC20.sol\":5759:5862  function mint(address account, uint256 amount) public onlyOwner {... */\n    tag_8:\n      tag_39\n      tag_40\n      calldatasize\n      0x04\n      tag_22\n      jump\t// in\n    tag_40:\n      tag_41\n      jump\t// in\n    tag_39:\n      stop\n        /* \"packages/revolution-contracts/NontransferableERC20.sol\":3491:3607  function balanceOf(address account) public view virtual returns (uint256) {... */\n    tag_9:\n      tag_26\n      tag_43\n      calldatasize\n      0x04\n      tag_44\n      jump\t// in\n    tag_43:\n      sub(shl(0xa0, 0x01), 0x01)\n        /* \"packages/revolution-contracts/NontransferableERC20.sol\":3582:3600  _balances[account] */\n      and\n        /* \"packages/revolution-contracts/NontransferableERC20.sol\":3556:3563  uint256 */\n      0x00\n        /* \"packages/revolution-contracts/NontransferableERC20.sol\":3582:3600  _balances[account] */\n      swap1\n      dup2\n      mstore\n        /* \"packages/revolution-contracts/NontransferableERC20.sol\":3582:3591  _balances */\n      0x01\n        /* \"packages/revolution-contracts/NontransferableERC20.sol\":3582:3600  _balances[account] */\n      0x20\n      mstore\n      0x40\n      swap1\n      keccak256\n      sload\n      swap1\n        /* \"packages/revolution-contracts/NontransferableERC20.sol\":3491:3607  function balanceOf(address account) public view virtual returns (uint256) {... */\n      jump\n        /* \"@openzeppelin/contracts/access/Ownable.sol\":2293:2394  function renounceOwnership() public virtual onlyOwner {... */\n    tag_10:\n      tag_39\n      tag_48\n      jump\t// in\n        /* \"@openzeppelin/contracts/access/Ownable.sol\":1638:1723  function owner() public view virtual returns (address) {... */\n    tag_11:\n        /* \"@openzeppelin/contracts/access/Ownable.sol\":1684:1691  address */\n      0x00\n        /* \"@openzeppelin/contracts/access/Ownable.sol\":1710:1716  _owner */\n      sload\n        /* \"@openzeppelin/contracts/access/Ownable.sol\":1638:1723  function owner() public view virtual returns (address) {... */\n      mload(0x40)\n      sub(shl(0xa0, 0x01), 0x01)\n        /* \"@openzeppelin/contracts/access/Ownable.sol\":1710:1716  _owner */\n      swap1\n      swap2\n      and\n        /* \"#utility.yul\":2237:2288   */\n      dup2\n      mstore\n        /* \"#utility.yul\":2225:2227   */\n      0x20\n        /* \"#utility.yul\":2210:2228   */\n      add\n        /* \"@openzeppelin/contracts/access/Ownable.sol\":1638:1723  function owner() public view virtual returns (address) {... */\n      tag_18\n        /* \"#utility.yul\":2091:2294   */\n      jump\n        /* \"packages/revolution-contracts/NontransferableERC20.sol\":2461:2554  function symbol() public view virtual returns (string memory) {... */\n    tag_12:\n      tag_16\n      tag_54\n      jump\t// in\n        /* \"@openzeppelin/contracts/access/Ownable.sol\":2543:2758  function transferOwnership(address newOwner) public virtual onlyOwner {... */\n    tag_14:\n      tag_39\n      tag_61\n      calldatasize\n      0x04\n      tag_44\n      jump\t// in\n    tag_61:\n      tag_62\n      jump\t// in\n        /* \"packages/revolution-contracts/NontransferableERC20.sol\":2259:2348  function name() public view virtual returns (string memory) {... */\n    tag_17:\n        /* \"packages/revolution-contracts/NontransferableERC20.sol\":2304:2317  string memory */\n      0x60\n        /* \"packages/revolution-contracts/NontransferableERC20.sol\":2336:2341  _name */\n      0x03\n        /* \"packages/revolution-contracts/NontransferableERC20.sol\":2329:2341  return _name */\n      dup1\n      sload\n      tag_64\n      swap1\n      tag_65\n      jump\t// in\n    tag_64:\n      dup1\n      0x1f\n      add\n      0x20\n      dup1\n      swap2\n      div\n      mul\n      0x20\n      add\n      mload(0x40)\n      swap1\n      dup2\n      add\n      0x40\n      mstore\n      dup1\n      swap3\n      swap2\n      swap1\n      dup2\n      dup2\n      mstore\n      0x20\n      add\n      dup3\n      dup1\n      sload\n      tag_66\n      swap1\n      tag_65\n      jump\t// in\n    tag_66:\n      dup1\n      iszero\n      tag_67\n      jumpi\n      dup1\n      0x1f\n      lt\n      tag_68\n      jumpi\n      0x0100\n      dup1\n      dup4\n      sload\n      div\n      mul\n      dup4\n      mstore\n      swap2\n      0x20\n      add\n      swap2\n      jump(tag_67)\n    tag_68:\n      dup3\n      add\n      swap2\n      swap1\n      0x00\n      mstore\n      keccak256(0x00, 0x20)\n      swap1\n    tag_69:\n      dup2\n      sload\n      dup2\n      mstore\n      swap1\n      0x01\n      add\n      swap1\n      0x20\n      add\n      dup1\n      dup4\n      gt\n      tag_69\n      jumpi\n      dup3\n      swap1\n      sub\n      0x1f\n      and\n      dup3\n      add\n      swap2\n    tag_67:\n      pop\n      pop\n      pop\n      pop\n      pop\n      swap1\n      pop\n        /* \"packages/revolution-contracts/NontransferableERC20.sol\":2259:2348  function name() public view virtual returns (string memory) {... */\n      swap1\n      jump\t// out\n        /* \"packages/revolution-contracts/NontransferableERC20.sol\":4206:4300  function approve(address, uint256) public virtual returns (bool) {... */\n    tag_23:\n        /* \"packages/revolution-contracts/NontransferableERC20.sol\":4265:4269  bool */\n      0x00\n        /* \"packages/revolution-contracts/NontransferableERC20.sol\":4206:4300  function approve(address, uint256) public virtual returns (bool) {... */\n    tag_70:\n      swap3\n      swap2\n      pop\n      pop\n      jump\t// out\n        /* \"packages/revolution-contracts/NontransferableERC20.sol\":5759:5862  function mint(address account, uint256 amount) public onlyOwner {... */\n    tag_41:\n        /* \"@openzeppelin/contracts/access/Ownable.sol\":1531:1544  _checkOwner() */\n      tag_75\n        /* \"@openzeppelin/contracts/access/Ownable.sol\":1531:1542  _checkOwner */\n      tag_76\n        /* \"@openzeppelin/contracts/access/Ownable.sol\":1531:1544  _checkOwner() */\n      jump\t// in\n    tag_75:\n        /* \"packages/revolution-contracts/NontransferableERC20.sol\":5833:5855  _mint(account, amount) */\n      tag_78\n        /* \"packages/revolution-contracts/NontransferableERC20.sol\":5839:5846  account */\n      dup3\n        /* \"packages/revolution-contracts/NontransferableERC20.sol\":5848:5854  amount */\n      dup3\n        /* \"packages/revolution-contracts/NontransferableERC20.sol\":5833:5838  _mint */\n      tag_79\n        /* \"packages/revolution-contracts/NontransferableERC20.sol\":5833:5855  _mint(account, amount) */\n      jump\t// in\n    tag_78:\n        /* \"packages/revolution-contracts/NontransferableERC20.sol\":5759:5862  function mint(address account, uint256 amount) public onlyOwner {... */\n      pop\n      pop\n      jump\t// out\n        /* \"@openzeppelin/contracts/access/Ownable.sol\":2293:2394  function renounceOwnership() public virtual onlyOwner {... */\n    tag_48:\n        /* \"@openzeppelin/contracts/access/Ownable.sol\":1531:1544  _checkOwner() */\n      tag_82\n        /* \"@openzeppelin/contracts/access/Ownable.sol\":1531:1542  _checkOwner */\n      tag_76\n        /* \"@openzeppelin/contracts/access/Ownable.sol\":1531:1544  _checkOwner() */\n      jump\t// in\n    tag_82:\n        /* \"@openzeppelin/contracts/access/Ownable.sol\":2357:2387  _transferOwnership(address(0)) */\n      tag_84\n        /* \"@openzeppelin/contracts/access/Ownable.sol\":2384:2385  0 */\n      0x00\n        /* \"@openzeppelin/contracts/access/Ownable.sol\":2357:2375  _transferOwnership */\n      tag_85\n        /* \"@openzeppelin/contracts/access/Ownable.sol\":2357:2387  _transferOwnership(address(0)) */\n      jump\t// in\n    tag_84:\n        /* \"@openzeppelin/contracts/access/Ownable.sol\":2293:2394  function renounceOwnership() public virtual onlyOwner {... */\n      jump\t// out\n        /* \"packages/revolution-contracts/NontransferableERC20.sol\":2461:2554  function symbol() public view virtual returns (string memory) {... */\n    tag_54:\n        /* \"packages/revolution-contracts/NontransferableERC20.sol\":2508:2521  string memory */\n      0x60\n        /* \"packages/revolution-contracts/NontransferableERC20.sol\":2540:2547  _symbol */\n      0x04\n        /* \"packages/revolution-contracts/NontransferableERC20.sol\":2533:2547  return _symbol */\n      dup1\n      sload\n      tag_64\n      swap1\n      tag_65\n      jump\t// in\n        /* \"@openzeppelin/contracts/access/Ownable.sol\":2543:2758  function transferOwnership(address newOwner) public virtual onlyOwner {... */\n    tag_62:\n        /* \"@openzeppelin/contracts/access/Ownable.sol\":1531:1544  _checkOwner() */\n      tag_95\n        /* \"@openzeppelin/contracts/access/Ownable.sol\":1531:1542  _checkOwner */\n      tag_76\n        /* \"@openzeppelin/contracts/access/Ownable.sol\":1531:1544  _checkOwner() */\n      jump\t// in\n    tag_95:\n      sub(shl(0xa0, 0x01), 0x01)\n        /* \"@openzeppelin/contracts/access/Ownable.sol\":2627:2649  newOwner == address(0) */\n      dup2\n      and\n        /* \"@openzeppelin/contracts/access/Ownable.sol\":2623:2714  if (newOwner == address(0)) {... */\n      tag_97\n      jumpi\n        /* \"@openzeppelin/contracts/access/Ownable.sol\":2672:2703  OwnableInvalidOwner(address(0)) */\n      mload(0x40)\n      shl(0xe0, 0x1e4fbdf7)\n      dup2\n      mstore\n        /* \"@openzeppelin/contracts/access/Ownable.sol\":2700:2701  0 */\n      0x00\n        /* \"@openzeppelin/contracts/access/Ownable.sol\":2672:2703  OwnableInvalidOwner(address(0)) */\n      0x04\n      dup3\n      add\n        /* \"#utility.yul\":2237:2288   */\n      mstore\n        /* \"#utility.yul\":2210:2228   */\n      0x24\n      add\n        /* \"@openzeppelin/contracts/access/Ownable.sol\":2672:2703  OwnableInvalidOwner(address(0)) */\n    tag_98:\n      mload(0x40)\n      dup1\n      swap2\n      sub\n      swap1\n      revert\n        /* \"@openzeppelin/contracts/access/Ownable.sol\":2623:2714  if (newOwner == address(0)) {... */\n    tag_97:\n        /* \"@openzeppelin/contracts/access/Ownable.sol\":2723:2751  _transferOwnership(newOwner) */\n      tag_99\n        /* \"@openzeppelin/contracts/access/Ownable.sol\":2742:2750  newOwner */\n      dup2\n        /* \"@openzeppelin/contracts/access/Ownable.sol\":2723:2741  _transferOwnership */\n      tag_85\n        /* \"@openzeppelin/contracts/access/Ownable.sol\":2723:2751  _transferOwnership(newOwner) */\n      jump\t// in\n    tag_99:\n        /* \"@openzeppelin/contracts/access/Ownable.sol\":2543:2758  function transferOwnership(address newOwner) public virtual onlyOwner {... */\n      pop\n      jump\t// out\n        /* \"@openzeppelin/contracts/access/Ownable.sol\":1796:1958  function _checkOwner() internal view virtual {... */\n    tag_76:\n        /* \"@openzeppelin/contracts/access/Ownable.sol\":1684:1691  address */\n      0x00\n        /* \"@openzeppelin/contracts/access/Ownable.sol\":1710:1716  _owner */\n      sload\n      sub(shl(0xa0, 0x01), 0x01)\n      and\n        /* \"@openzeppelin/contracts/utils/Context.sol\":735:745  msg.sender */\n      caller\n        /* \"@openzeppelin/contracts/access/Ownable.sol\":1855:1878  owner() != _msgSender() */\n      eq\n        /* \"@openzeppelin/contracts/access/Ownable.sol\":1851:1952  if (owner() != _msgSender()) {... */\n      tag_84\n      jumpi\n        /* \"@openzeppelin/contracts/access/Ownable.sol\":1901:1941  OwnableUnauthorizedAccount(_msgSender()) */\n      mload(0x40)\n      shl(0xe0, 0x118cdaa7)\n      dup2\n      mstore\n        /* \"@openzeppelin/contracts/utils/Context.sol\":735:745  msg.sender */\n      caller\n        /* \"@openzeppelin/contracts/access/Ownable.sol\":1901:1941  OwnableUnauthorizedAccount(_msgSender()) */\n      0x04\n      dup3\n      add\n        /* \"#utility.yul\":2237:2288   */\n      mstore\n        /* \"#utility.yul\":2210:2228   */\n      0x24\n      add\n        /* \"@openzeppelin/contracts/access/Ownable.sol\":1901:1941  OwnableUnauthorizedAccount(_msgSender()) */\n      tag_98\n        /* \"#utility.yul\":2091:2294   */\n      jump\n        /* \"packages/revolution-contracts/NontransferableERC20.sol\":5246:5753  function _mint(address account, uint256 amount) internal virtual {... */\n    tag_79:\n        /* \"packages/revolution-contracts/NontransferableERC20.sol\":5445:5451  amount */\n      dup1\n        /* \"packages/revolution-contracts/NontransferableERC20.sol\":5429:5441  _totalSupply */\n      0x02\n      0x00\n        /* \"packages/revolution-contracts/NontransferableERC20.sol\":5429:5451  _totalSupply += amount */\n      dup3\n      dup3\n      sload\n      tag_110\n      swap2\n      swap1\n      tag_111\n      jump\t// in\n    tag_110:\n      swap1\n      swap2\n      sstore\n      pop\n      pop\n      sub(shl(0xa0, 0x01), 0x01)\n        /* \"packages/revolution-contracts/NontransferableERC20.sol\":5597:5615  _balances[account] */\n      dup3\n      and\n      0x00\n      dup2\n      dup2\n      mstore\n        /* \"packages/revolution-contracts/NontransferableERC20.sol\":5597:5606  _balances */\n      0x01\n        /* \"packages/revolution-contracts/NontransferableERC20.sol\":5597:5615  _balances[account] */\n      0x20\n      swap1\n      dup2\n      mstore\n      0x40\n      dup1\n      dup4\n      keccak256\n        /* \"packages/revolution-contracts/NontransferableERC20.sol\":5597:5625  _balances[account] += amount */\n      dup1\n      sload\n      dup7\n      add\n      swap1\n      sstore\n        /* \"packages/revolution-contracts/NontransferableERC20.sol\":5650:5687  Transfer(address(0), account, amount) */\n      mload\n        /* \"#utility.yul\":1342:1367   */\n      dup5\n      dup2\n      mstore\n        /* \"packages/revolution-contracts/NontransferableERC20.sol\":5650:5687  Transfer(address(0), account, amount) */\n      0xddf252ad1be2c89b69c2b068fc378daa952ba7f163c4a11628f55a4df523b3ef\n      swap2\n        /* \"#utility.yul\":1315:1333   */\n      add\n        /* \"packages/revolution-contracts/NontransferableERC20.sol\":5650:5687  Transfer(address(0), account, amount) */\n      mload(0x40)\n      dup1\n      swap2\n      sub\n      swap1\n      log3\n        /* \"packages/revolution-contracts/NontransferableERC20.sol\":5759:5862  function mint(address account, uint256 amount) public onlyOwner {... */\n      pop\n      pop\n      jump\t// out\n        /* \"@openzeppelin/contracts/access/Ownable.sol\":2912:3099  function _transferOwnership(address newOwner) internal virtual {... */\n    tag_85:\n        /* \"@openzeppelin/contracts/access/Ownable.sol\":2985:3001  address oldOwner */\n      0x00\n        /* \"@openzeppelin/contracts/access/Ownable.sol\":3004:3010  _owner */\n      dup1\n      sload\n      sub(shl(0xa0, 0x01), 0x01)\n        /* \"@openzeppelin/contracts/access/Ownable.sol\":3020:3037  _owner = newOwner */\n      dup4\n      dup2\n      and\n      not(sub(shl(0xa0, 0x01), 0x01))\n      dup4\n      and\n      dup2\n      or\n      dup5\n      sstore\n        /* \"@openzeppelin/contracts/access/Ownable.sol\":3052:3092  OwnershipTransferred(oldOwner, newOwner) */\n      mload(0x40)\n        /* \"@openzeppelin/contracts/access/Ownable.sol\":3004:3010  _owner */\n      swap2\n      swap1\n      swap3\n      and\n      swap3\n      dup4\n      swap2\n        /* \"@openzeppelin/contracts/access/Ownable.sol\":3052:3092  OwnershipTransferred(oldOwner, newOwner) */\n      0x8be0079c531659141344cd1fd0a4f28419497f9722a3daafe3b4186f6b6457e0\n      swap2\n        /* \"@openzeppelin/contracts/access/Ownable.sol\":2985:3001  address oldOwner */\n      swap1\n        /* \"@openzeppelin/contracts/access/Ownable.sol\":3052:3092  OwnershipTransferred(oldOwner, newOwner) */\n      log3\n        /* \"@openzeppelin/contracts/access/Ownable.sol\":2975:3099  {... */\n      pop\n        /* \"@openzeppelin/contracts/access/Ownable.sol\":2912:3099  function _transferOwnership(address newOwner) internal virtual {... */\n      pop\n      jump\t// out\n        /* \"#utility.yul\":14:562   */\n    tag_19:\n        /* \"#utility.yul\":126:130   */\n      0x00\n        /* \"#utility.yul\":155:157   */\n      0x20\n        /* \"#utility.yul\":184:186   */\n      dup1\n        /* \"#utility.yul\":173:182   */\n      dup4\n        /* \"#utility.yul\":166:187   */\n      mstore\n        /* \"#utility.yul\":216:222   */\n      dup4\n        /* \"#utility.yul\":210:223   */\n      mload\n        /* \"#utility.yul\":259:265   */\n      dup1\n        /* \"#utility.yul\":254:256   */\n      0x20\n        /* \"#utility.yul\":243:252   */\n      dup6\n        /* \"#utility.yul\":239:257   */\n      add\n        /* \"#utility.yul\":232:266   */\n      mstore\n        /* \"#utility.yul\":284:285   */\n      0x00\n        /* \"#utility.yul\":294:434   */\n    tag_122:\n        /* \"#utility.yul\":308:314   */\n      dup2\n        /* \"#utility.yul\":305:306   */\n      dup2\n        /* \"#utility.yul\":302:315   */\n      lt\n        /* \"#utility.yul\":294:434   */\n      iszero\n      tag_124\n      jumpi\n        /* \"#utility.yul\":403:417   */\n      dup6\n      dup2\n      add\n        /* \"#utility.yul\":399:422   */\n      dup4\n      add\n        /* \"#utility.yul\":393:423   */\n      mload\n        /* \"#utility.yul\":369:386   */\n      dup6\n      dup3\n      add\n        /* \"#utility.yul\":388:390   */\n      0x40\n        /* \"#utility.yul\":365:391   */\n      add\n        /* \"#utility.yul\":358:424   */\n      mstore\n        /* \"#utility.yul\":323:333   */\n      dup3\n      add\n        /* \"#utility.yul\":294:434   */\n      jump(tag_122)\n    tag_124:\n        /* \"#utility.yul\":298:301   */\n      pop\n        /* \"#utility.yul\":483:484   */\n      0x00\n        /* \"#utility.yul\":478:480   */\n      0x40\n        /* \"#utility.yul\":469:475   */\n      dup3\n        /* \"#utility.yul\":458:467   */\n      dup7\n        /* \"#utility.yul\":454:476   */\n      add\n        /* \"#utility.yul\":450:481   */\n      add\n        /* \"#utility.yul\":443:485   */\n      mstore\n        /* \"#utility.yul\":553:555   */\n      0x40\n        /* \"#utility.yul\":546:548   */\n      0x1f\n        /* \"#utility.yul\":542:549   */\n      not\n        /* \"#utility.yul\":537:539   */\n      0x1f\n        /* \"#utility.yul\":529:535   */\n      dup4\n        /* \"#utility.yul\":525:540   */\n      add\n        /* \"#utility.yul\":521:550   */\n      and\n        /* \"#utility.yul\":510:519   */\n      dup6\n        /* \"#utility.yul\":506:551   */\n      add\n        /* \"#utility.yul\":502:556   */\n      add\n        /* \"#utility.yul\":494:556   */\n      swap3\n      pop\n      pop\n      pop\n        /* \"#utility.yul\":14:562   */\n      swap3\n      swap2\n      pop\n      pop\n      jump\t// out\n        /* \"#utility.yul\":567:740   */\n    tag_119:\n        /* \"#utility.yul\":635:655   */\n      dup1\n      calldataload\n      sub(shl(0xa0, 0x01), 0x01)\n        /* \"#utility.yul\":684:715   */\n      dup2\n      and\n        /* \"#utility.yul\":674:716   */\n      dup2\n      eq\n        /* \"#utility.yul\":664:734   */\n      tag_126\n      jumpi\n        /* \"#utility.yul\":730:731   */\n      0x00\n        /* \"#utility.yul\":727:728   */\n      dup1\n        /* \"#utility.yul\":720:732   */\n      revert\n        /* \"#utility.yul\":664:734   */\n    tag_126:\n        /* \"#utility.yul\":567:740   */\n      swap2\n      swap1\n      pop\n      jump\t// out\n        /* \"#utility.yul\":745:999   */\n    tag_22:\n        /* \"#utility.yul\":813:819   */\n      0x00\n        /* \"#utility.yul\":821:827   */\n      dup1\n        /* \"#utility.yul\":874:876   */\n      0x40\n        /* \"#utility.yul\":862:871   */\n      dup4\n        /* \"#utility.yul\":853:860   */\n      dup6\n        /* \"#utility.yul\":849:872   */\n      sub\n        /* \"#utility.yul\":845:877   */\n      slt\n        /* \"#utility.yul\":842:894   */\n      iszero\n      tag_128\n      jumpi\n        /* \"#utility.yul\":890:891   */\n      0x00\n        /* \"#utility.yul\":887:888   */\n      dup1\n        /* \"#utility.yul\":880:892   */\n      revert\n        /* \"#utility.yul\":842:894   */\n    tag_128:\n        /* \"#utility.yul\":913:942   */\n      tag_129\n        /* \"#utility.yul\":932:941   */\n      dup4\n        /* \"#utility.yul\":913:942   */\n      tag_119\n      jump\t// in\n    tag_129:\n        /* \"#utility.yul\":903:942   */\n      swap5\n        /* \"#utility.yul\":989:991   */\n      0x20\n        /* \"#utility.yul\":974:992   */\n      swap4\n      swap1\n      swap4\n      add\n        /* \"#utility.yul\":961:993   */\n      calldataload\n      swap4\n      pop\n      pop\n      pop\n        /* \"#utility.yul\":745:999   */\n      jump\t// out\n        /* \"#utility.yul\":1378:1706   */\n    tag_32:\n        /* \"#utility.yul\":1455:1461   */\n      0x00\n        /* \"#utility.yul\":1463:1469   */\n      dup1\n        /* \"#utility.yul\":1471:1477   */\n      0x00\n        /* \"#utility.yul\":1524:1526   */\n      0x60\n        /* \"#utility.yul\":1512:1521   */\n      dup5\n        /* \"#utility.yul\":1503:1510   */\n      dup7\n        /* \"#utility.yul\":1499:1522   */\n      sub\n        /* \"#utility.yul\":1495:1527   */\n      slt\n        /* \"#utility.yul\":1492:1544   */\n      iszero\n      tag_133\n      jumpi\n        /* \"#utility.yul\":1540:1541   */\n      0x00\n        /* \"#utility.yul\":1537:1538   */\n      dup1\n        /* \"#utility.yul\":1530:1542   */\n      revert\n        /* \"#utility.yul\":1492:1544   */\n    tag_133:\n        /* \"#utility.yul\":1563:1592   */\n      tag_134\n        /* \"#utility.yul\":1582:1591   */\n      dup5\n        /* \"#utility.yul\":1563:1592   */\n      tag_119\n      jump\t// in\n    tag_134:\n        /* \"#utility.yul\":1553:1592   */\n      swap3\n      pop\n        /* \"#utility.yul\":1611:1649   */\n      tag_135\n        /* \"#utility.yul\":1645:1647   */\n      0x20\n        /* \"#utility.yul\":1634:1643   */\n      dup6\n        /* \"#utility.yul\":1630:1648   */\n      add\n        /* \"#utility.yul\":1611:1649   */\n      tag_119\n      jump\t// in\n    tag_135:\n        /* \"#utility.yul\":1601:1649   */\n      swap2\n      pop\n        /* \"#utility.yul\":1696:1698   */\n      0x40\n        /* \"#utility.yul\":1685:1694   */\n      dup5\n        /* \"#utility.yul\":1681:1699   */\n      add\n        /* \"#utility.yul\":1668:1700   */\n      calldataload\n        /* \"#utility.yul\":1658:1700   */\n      swap1\n      pop\n        /* \"#utility.yul\":1378:1706   */\n      swap3\n      pop\n      swap3\n      pop\n      swap3\n      jump\t// out\n        /* \"#utility.yul\":1900:2086   */\n    tag_44:\n        /* \"#utility.yul\":1959:1965   */\n      0x00\n        /* \"#utility.yul\":2012:2014   */\n      0x20\n        /* \"#utility.yul\":2000:2009   */\n      dup3\n        /* \"#utility.yul\":1991:1998   */\n      dup5\n        /* \"#utility.yul\":1987:2010   */\n      sub\n        /* \"#utility.yul\":1983:2015   */\n      slt\n        /* \"#utility.yul\":1980:2032   */\n      iszero\n      tag_138\n      jumpi\n        /* \"#utility.yul\":2028:2029   */\n      0x00\n        /* \"#utility.yul\":2025:2026   */\n      dup1\n        /* \"#utility.yul\":2018:2030   */\n      revert\n        /* \"#utility.yul\":1980:2032   */\n    tag_138:\n        /* \"#utility.yul\":2051:2080   */\n      tag_139\n        /* \"#utility.yul\":2070:2079   */\n      dup3\n        /* \"#utility.yul\":2051:2080   */\n      tag_119\n      jump\t// in\n    tag_139:\n        /* \"#utility.yul\":2041:2080   */\n      swap4\n        /* \"#utility.yul\":1900:2086   */\n      swap3\n      pop\n      pop\n      pop\n      jump\t// out\n        /* \"#utility.yul\":2299:2679   */\n    tag_65:\n        /* \"#utility.yul\":2378:2379   */\n      0x01\n        /* \"#utility.yul\":2374:2386   */\n      dup2\n      dup2\n      shr\n      swap1\n        /* \"#utility.yul\":2421:2433   */\n      dup3\n      and\n      dup1\n        /* \"#utility.yul\":2442:2503   */\n      tag_142\n      jumpi\n        /* \"#utility.yul\":2496:2500   */\n      0x7f\n        /* \"#utility.yul\":2488:2494   */\n      dup3\n        /* \"#utility.yul\":2484:2501   */\n      and\n        /* \"#utility.yul\":2474:2501   */\n      swap2\n      pop\n        /* \"#utility.yul\":2442:2503   */\n    tag_142:\n        /* \"#utility.yul\":2549:2551   */\n      0x20\n        /* \"#utility.yul\":2541:2547   */\n      dup3\n        /* \"#utility.yul\":2538:2552   */\n      lt\n        /* \"#utility.yul\":2518:2536   */\n      dup2\n        /* \"#utility.yul\":2515:2553   */\n      sub\n        /* \"#utility.yul\":2512:2673   */\n      tag_143\n      jumpi\n        /* \"#utility.yul\":2595:2605   */\n      0x4e487b71\n        /* \"#utility.yul\":2590:2593   */\n      0xe0\n        /* \"#utility.yul\":2586:2606   */\n      shl\n        /* \"#utility.yul\":2583:2584   */\n      0x00\n        /* \"#utility.yul\":2576:2607   */\n      mstore\n        /* \"#utility.yul\":2630:2634   */\n      0x22\n        /* \"#utility.yul\":2627:2628   */\n      0x04\n        /* \"#utility.yul\":2620:2635   */\n      mstore\n        /* \"#utility.yul\":2658:2662   */\n      0x24\n        /* \"#utility.yul\":2655:2656   */\n      0x00\n        /* \"#utility.yul\":2648:2663   */\n      revert\n        /* \"#utility.yul\":2512:2673   */\n    tag_143:\n      pop\n        /* \"#utility.yul\":2299:2679   */\n      swap2\n      swap1\n      pop\n      jump\t// out\n        /* \"#utility.yul\":2684:2906   */\n    tag_111:\n        /* \"#utility.yul\":2749:2758   */\n      dup1\n      dup3\n      add\n        /* \"#utility.yul\":2770:2780   */\n      dup1\n      dup3\n      gt\n        /* \"#utility.yul\":2767:2900   */\n      iszero\n      tag_70\n      jumpi\n        /* \"#utility.yul\":2822:2832   */\n      0x4e487b71\n        /* \"#utility.yul\":2817:2820   */\n      0xe0\n        /* \"#utility.yul\":2813:2833   */\n      shl\n        /* \"#utility.yul\":2810:2811   */\n      0x00\n        /* \"#utility.yul\":2803:2834   */\n      mstore\n        /* \"#utility.yul\":2857:2861   */\n      0x11\n        /* \"#utility.yul\":2854:2855   */\n      0x04\n        /* \"#utility.yul\":2847:2862   */\n      mstore\n        /* \"#utility.yul\":2885:2889   */\n      0x24\n        /* \"#utility.yul\":2882:2883   */\n      0x00\n        /* \"#utility.yul\":2875:2890   */\n      revert\n\n    auxdata: 0xa2646970667358221220e66871006899e4bf01d97832268ed0e00aa7aca6d09bb4af2ec16f3923a1ac7064736f6c63430008160033\n}\n",
				"bytecode": {
					"linkReferences": {},
					"object": "60a060405234801561000f575f80fd5b506040516108b83803806108b883398101604081905261002e91610195565b836001600160a01b03811661005c57604051631e4fbdf760e01b81525f600482015260240160405180910390fd5b6100658161008f565b50600361007284826102ad565b50600461007f83826102ad565b5060ff166080525061036c915050565b5f80546001600160a01b038381166001600160a01b0319831681178455604051919092169283917f8be0079c531659141344cd1fd0a4f28419497f9722a3daafe3b4186f6b6457e09190a35050565b634e487b7160e01b5f52604160045260245ffd5b5f82601f830112610101575f80fd5b81516001600160401b038082111561011b5761011b6100de565b604051601f8301601f19908116603f01168101908282118183101715610143576101436100de565b816040528381526020925086602085880101111561015f575f80fd5b5f91505b838210156101805785820183015181830184015290820190610163565b5f602085830101528094505050505092915050565b5f805f80608085870312156101a8575f80fd5b84516001600160a01b03811681146101be575f80fd5b60208601519094506001600160401b03808211156101da575f80fd5b6101e6888389016100f2565b945060408701519150808211156101fb575f80fd5b50610208878288016100f2565b925050606085015160ff8116811461021e575f80fd5b939692955090935050565b600181811c9082168061023d57607f821691505b60208210810361025b57634e487b7160e01b5f52602260045260245ffd5b50919050565b601f8211156102a857805f5260205f20601f840160051c810160208510156102865750805b601f840160051c820191505b818110156102a5575f8155600101610292565b50505b505050565b81516001600160401b038111156102c6576102c66100de565b6102da816102d48454610229565b84610261565b602080601f83116001811461030d575f84156102f65750858301515b5f19600386901b1c1916600185901b178555610364565b5f85815260208120601f198616915b8281101561033b5788860151825594840194600190910190840161031c565b508582101561035857878501515f19600388901b60f8161c191681555b505060018460011b0185555b505050505050565b6080516105346103845f395f61012501526105345ff3fe608060405234801561000f575f80fd5b50600436106100b1575f3560e01c806370a082311161006e57806370a0823114610164578063715018a61461018c5780638da5cb5b1461019457806395d89b41146101ae578063a9059cbb146100d3578063f2fde38b146101b6575f80fd5b806306fdde03146100b5578063095ea7b3146100d357806318160ddd146100f657806323b872dd14610108578063313ce5671461011e57806340c10f191461014f575b5f80fd5b6100bd6101c9565b6040516100ca91906103bf565b60405180910390f35b6100e66100e1366004610426565b610259565b60405190151581526020016100ca565b6002545b6040519081526020016100ca565b6100e661011636600461044e565b5f9392505050565b60405160ff7f00000000000000000000000000000000000000000000000000000000000000001681526020016100ca565b61016261015d366004610426565b610261565b005b6100fa610172366004610487565b6001600160a01b03165f9081526001602052604090205490565b610162610277565b5f546040516001600160a01b0390911681526020016100ca565b6100bd61028a565b6101626101c4366004610487565b610299565b6060600380546101d8906104a7565b80601f0160208091040260200160405190810160405280929190818152602001828054610204906104a7565b801561024f5780601f106102265761010080835404028352916020019161024f565b820191905f5260205f20905b81548152906001019060200180831161023257829003601f168201915b5050505050905090565b5f5b92915050565b6102696102db565b6102738282610307565b5050565b61027f6102db565b6102885f610370565b565b6060600480546101d8906104a7565b6102a16102db565b6001600160a01b0381166102cf57604051631e4fbdf760e01b81525f60048201526024015b60405180910390fd5b6102d881610370565b50565b5f546001600160a01b031633146102885760405163118cdaa760e01b81523360048201526024016102c6565b8060025f82825461031891906104df565b90915550506001600160a01b0382165f818152600160209081526040808320805486019055518481527fddf252ad1be2c89b69c2b068fc378daa952ba7f163c4a11628f55a4df523b3ef910160405180910390a35050565b5f80546001600160a01b038381166001600160a01b0319831681178455604051919092169283917f8be0079c531659141344cd1fd0a4f28419497f9722a3daafe3b4186f6b6457e09190a35050565b5f602080835283518060208501525f5b818110156103eb578581018301518582016040015282016103cf565b505f604082860101526040601f19601f8301168501019250505092915050565b80356001600160a01b0381168114610421575f80fd5b919050565b5f8060408385031215610437575f80fd5b6104408361040b565b946020939093013593505050565b5f805f60608486031215610460575f80fd5b6104698461040b565b92506104776020850161040b565b9150604084013590509250925092565b5f60208284031215610497575f80fd5b6104a08261040b565b9392505050565b600181811c908216806104bb57607f821691505b6020821081036104d957634e487b7160e01b5f52602260045260245ffd5b50919050565b8082018082111561025b57634e487b7160e01b5f52601160045260245ffdfea2646970667358221220e66871006899e4bf01d97832268ed0e00aa7aca6d09bb4af2ec16f3923a1ac7064736f6c63430008160033",
					"opcodes": "PUSH1 0xA0 PUSH1 0x40 MSTORE CALLVALUE DUP1 ISZERO PUSH2 0xF JUMPI PUSH0 DUP1 REVERT JUMPDEST POP PUSH1 0x40 MLOAD PUSH2 0x8B8 CODESIZE SUB DUP1 PUSH2 0x8B8 DUP4 CODECOPY DUP2 ADD PUSH1 0x40 DUP2 SWAP1 MSTORE PUSH2 0x2E SWAP2 PUSH2 0x195 JUMP JUMPDEST DUP4 PUSH1 0x1 PUSH1 0x1 PUSH1 0xA0 SHL SUB DUP2 AND PUSH2 0x5C JUMPI PUSH1 0x40 MLOAD PUSH4 0x1E4FBDF7 PUSH1 0xE0 SHL DUP2 MSTORE PUSH0 PUSH1 0x4 DUP3 ADD MSTORE PUSH1 0x24 ADD PUSH1 0x40 MLOAD DUP1 SWAP2 SUB SWAP1 REVERT JUMPDEST PUSH2 0x65 DUP2 PUSH2 0x8F JUMP JUMPDEST POP PUSH1 0x3 PUSH2 0x72 DUP5 DUP3 PUSH2 0x2AD JUMP JUMPDEST POP PUSH1 0x4 PUSH2 0x7F DUP4 DUP3 PUSH2 0x2AD JUMP JUMPDEST POP PUSH1 0xFF AND PUSH1 0x80 MSTORE POP PUSH2 0x36C SWAP2 POP POP JUMP JUMPDEST PUSH0 DUP1 SLOAD PUSH1 0x1 PUSH1 0x1 PUSH1 0xA0 SHL SUB DUP4 DUP2 AND PUSH1 0x1 PUSH1 0x1 PUSH1 0xA0 SHL SUB NOT DUP4 AND DUP2 OR DUP5 SSTORE PUSH1 0x40 MLOAD SWAP2 SWAP1 SWAP3 AND SWAP3 DUP4 SWAP2 PUSH32 0x8BE0079C531659141344CD1FD0A4F28419497F9722A3DAAFE3B4186F6B6457E0 SWAP2 SWAP1 LOG3 POP POP JUMP JUMPDEST PUSH4 0x4E487B71 PUSH1 0xE0 SHL PUSH0 MSTORE PUSH1 0x41 PUSH1 0x4 MSTORE PUSH1 0x24 PUSH0 REVERT JUMPDEST PUSH0 DUP3 PUSH1 0x1F DUP4 ADD SLT PUSH2 0x101 JUMPI PUSH0 DUP1 REVERT JUMPDEST DUP2 MLOAD PUSH1 0x1 PUSH1 0x1 PUSH1 0x40 SHL SUB DUP1 DUP3 GT ISZERO PUSH2 0x11B JUMPI PUSH2 0x11B PUSH2 0xDE JUMP JUMPDEST PUSH1 0x40 MLOAD PUSH1 0x1F DUP4 ADD PUSH1 0x1F NOT SWAP1 DUP2 AND PUSH1 0x3F ADD AND DUP2 ADD SWAP1 DUP3 DUP3 GT DUP2 DUP4 LT OR ISZERO PUSH2 0x143 JUMPI PUSH2 0x143 PUSH2 0xDE JUMP JUMPDEST DUP2 PUSH1 0x40 MSTORE DUP4 DUP2 MSTORE PUSH1 0x20 SWAP3 POP DUP7 PUSH1 0x20 DUP6 DUP9 ADD ADD GT ISZERO PUSH2 0x15F JUMPI PUSH0 DUP1 REVERT JUMPDEST PUSH0 SWAP2 POP JUMPDEST DUP4 DUP3 LT ISZERO PUSH2 0x180 JUMPI DUP6 DUP3 ADD DUP4 ADD MLOAD DUP2 DUP4 ADD DUP5 ADD MSTORE SWAP1 DUP3 ADD SWAP1 PUSH2 0x163 JUMP JUMPDEST PUSH0 PUSH1 0x20 DUP6 DUP4 ADD ADD MSTORE DUP1 SWAP5 POP POP POP POP POP SWAP3 SWAP2 POP POP JUMP JUMPDEST PUSH0 DUP1 PUSH0 DUP1 PUSH1 0x80 DUP6 DUP8 SUB SLT ISZERO PUSH2 0x1A8 JUMPI PUSH0 DUP1 REVERT JUMPDEST DUP5 MLOAD PUSH1 0x1 PUSH1 0x1 PUSH1 0xA0 SHL SUB DUP2 AND DUP2 EQ PUSH2 0x1BE JUMPI PUSH0 DUP1 REVERT JUMPDEST PUSH1 0x20 DUP7 ADD MLOAD SWAP1 SWAP5 POP PUSH1 0x1 PUSH1 0x1 PUSH1 0x40 SHL SUB DUP1 DUP3 GT ISZERO PUSH2 0x1DA JUMPI PUSH0 DUP1 REVERT JUMPDEST PUSH2 0x1E6 DUP9 DUP4 DUP10 ADD PUSH2 0xF2 JUMP JUMPDEST SWAP5 POP PUSH1 0x40 DUP8 ADD MLOAD SWAP2 POP DUP1 DUP3 GT ISZERO PUSH2 0x1FB JUMPI PUSH0 DUP1 REVERT JUMPDEST POP PUSH2 0x208 DUP8 DUP3 DUP9 ADD PUSH2 0xF2 JUMP JUMPDEST SWAP3 POP POP PUSH1 0x60 DUP6 ADD MLOAD PUSH1 0xFF DUP2 AND DUP2 EQ PUSH2 0x21E JUMPI PUSH0 DUP1 REVERT JUMPDEST SWAP4 SWAP7 SWAP3 SWAP6 POP SWAP1 SWAP4 POP POP JUMP JUMPDEST PUSH1 0x1 DUP2 DUP2 SHR SWAP1 DUP3 AND DUP1 PUSH2 0x23D JUMPI PUSH1 0x7F DUP3 AND SWAP2 POP JUMPDEST PUSH1 0x20 DUP3 LT DUP2 SUB PUSH2 0x25B JUMPI PUSH4 0x4E487B71 PUSH1 0xE0 SHL PUSH0 MSTORE PUSH1 0x22 PUSH1 0x4 MSTORE PUSH1 0x24 PUSH0 REVERT JUMPDEST POP SWAP2 SWAP1 POP JUMP JUMPDEST PUSH1 0x1F DUP3 GT ISZERO PUSH2 0x2A8 JUMPI DUP1 PUSH0 MSTORE PUSH1 0x20 PUSH0 KECCAK256 PUSH1 0x1F DUP5 ADD PUSH1 0x5 SHR DUP2 ADD PUSH1 0x20 DUP6 LT ISZERO PUSH2 0x286 JUMPI POP DUP1 JUMPDEST PUSH1 0x1F DUP5 ADD PUSH1 0x5 SHR DUP3 ADD SWAP2 POP JUMPDEST DUP2 DUP2 LT ISZERO PUSH2 0x2A5 JUMPI PUSH0 DUP2 SSTORE PUSH1 0x1 ADD PUSH2 0x292 JUMP JUMPDEST POP POP JUMPDEST POP POP POP JUMP JUMPDEST DUP2 MLOAD PUSH1 0x1 PUSH1 0x1 PUSH1 0x40 SHL SUB DUP2 GT ISZERO PUSH2 0x2C6 JUMPI PUSH2 0x2C6 PUSH2 0xDE JUMP JUMPDEST PUSH2 0x2DA DUP2 PUSH2 0x2D4 DUP5 SLOAD PUSH2 0x229 JUMP JUMPDEST DUP5 PUSH2 0x261 JUMP JUMPDEST PUSH1 0x20 DUP1 PUSH1 0x1F DUP4 GT PUSH1 0x1 DUP2 EQ PUSH2 0x30D JUMPI PUSH0 DUP5 ISZERO PUSH2 0x2F6 JUMPI POP DUP6 DUP4 ADD MLOAD JUMPDEST PUSH0 NOT PUSH1 0x3 DUP7 SWAP1 SHL SHR NOT AND PUSH1 0x1 DUP6 SWAP1 SHL OR DUP6 SSTORE PUSH2 0x364 JUMP JUMPDEST PUSH0 DUP6 DUP2 MSTORE PUSH1 0x20 DUP2 KECCAK256 PUSH1 0x1F NOT DUP7 AND SWAP2 JUMPDEST DUP3 DUP2 LT ISZERO PUSH2 0x33B JUMPI DUP9 DUP7 ADD MLOAD DUP3 SSTORE SWAP5 DUP5 ADD SWAP5 PUSH1 0x1 SWAP1 SWAP2 ADD SWAP1 DUP5 ADD PUSH2 0x31C JUMP JUMPDEST POP DUP6 DUP3 LT ISZERO PUSH2 0x358 JUMPI DUP8 DUP6 ADD MLOAD PUSH0 NOT PUSH1 0x3 DUP9 SWAP1 SHL PUSH1 0xF8 AND SHR NOT AND DUP2 SSTORE JUMPDEST POP POP PUSH1 0x1 DUP5 PUSH1 0x1 SHL ADD DUP6 SSTORE JUMPDEST POP POP POP POP POP POP JUMP JUMPDEST PUSH1 0x80 MLOAD PUSH2 0x534 PUSH2 0x384 PUSH0 CODECOPY PUSH0 PUSH2 0x125 ADD MSTORE PUSH2 0x534 PUSH0 RETURN INVALID PUSH1 0x80 PUSH1 0x40 MSTORE CALLVALUE DUP1 ISZERO PUSH2 0xF JUMPI PUSH0 DUP1 REVERT JUMPDEST POP PUSH1 0x4 CALLDATASIZE LT PUSH2 0xB1 JUMPI PUSH0 CALLDATALOAD PUSH1 0xE0 SHR DUP1 PUSH4 0x70A08231 GT PUSH2 0x6E JUMPI DUP1 PUSH4 0x70A08231 EQ PUSH2 0x164 JUMPI DUP1 PUSH4 0x715018A6 EQ PUSH2 0x18C JUMPI DUP1 PUSH4 0x8DA5CB5B EQ PUSH2 0x194 JUMPI DUP1 PUSH4 0x95D89B41 EQ PUSH2 0x1AE JUMPI DUP1 PUSH4 0xA9059CBB EQ PUSH2 0xD3 JUMPI DUP1 PUSH4 0xF2FDE38B EQ PUSH2 0x1B6 JUMPI PUSH0 DUP1 REVERT JUMPDEST DUP1 PUSH4 0x6FDDE03 EQ PUSH2 0xB5 JUMPI DUP1 PUSH4 0x95EA7B3 EQ PUSH2 0xD3 JUMPI DUP1 PUSH4 0x18160DDD EQ PUSH2 0xF6 JUMPI DUP1 PUSH4 0x23B872DD EQ PUSH2 0x108 JUMPI DUP1 PUSH4 0x313CE567 EQ PUSH2 0x11E JUMPI DUP1 PUSH4 0x40C10F19 EQ PUSH2 0x14F JUMPI JUMPDEST PUSH0 DUP1 REVERT JUMPDEST PUSH2 0xBD PUSH2 0x1C9 JUMP JUMPDEST PUSH1 0x40 MLOAD PUSH2 0xCA SWAP2 SWAP1 PUSH2 0x3BF JUMP JUMPDEST PUSH1 0x40 MLOAD DUP1 SWAP2 SUB SWAP1 RETURN JUMPDEST PUSH2 0xE6 PUSH2 0xE1 CALLDATASIZE PUSH1 0x4 PUSH2 0x426 JUMP JUMPDEST PUSH2 0x259 JUMP JUMPDEST PUSH1 0x40 MLOAD SWAP1 ISZERO ISZERO DUP2 MSTORE PUSH1 0x20 ADD PUSH2 0xCA JUMP JUMPDEST PUSH1 0x2 SLOAD JUMPDEST PUSH1 0x40 MLOAD SWAP1 DUP2 MSTORE PUSH1 0x20 ADD PUSH2 0xCA JUMP JUMPDEST PUSH2 0xE6 PUSH2 0x116 CALLDATASIZE PUSH1 0x4 PUSH2 0x44E JUMP JUMPDEST PUSH0 SWAP4 SWAP3 POP POP POP JUMP JUMPDEST PUSH1 0x40 MLOAD PUSH1 0xFF PUSH32 0x0 AND DUP2 MSTORE PUSH1 0x20 ADD PUSH2 0xCA JUMP JUMPDEST PUSH2 0x162 PUSH2 0x15D CALLDATASIZE PUSH1 0x4 PUSH2 0x426 JUMP JUMPDEST PUSH2 0x261 JUMP JUMPDEST STOP JUMPDEST PUSH2 0xFA PUSH2 0x172 CALLDATASIZE PUSH1 0x4 PUSH2 0x487 JUMP JUMPDEST PUSH1 0x1 PUSH1 0x1 PUSH1 0xA0 SHL SUB AND PUSH0 SWAP1 DUP2 MSTORE PUSH1 0x1 PUSH1 0x20 MSTORE PUSH1 0x40 SWAP1 KECCAK256 SLOAD SWAP1 JUMP JUMPDEST PUSH2 0x162 PUSH2 0x277 JUMP JUMPDEST PUSH0 SLOAD PUSH1 0x40 MLOAD PUSH1 0x1 PUSH1 0x1 PUSH1 0xA0 SHL SUB SWAP1 SWAP2 AND DUP2 MSTORE PUSH1 0x20 ADD PUSH2 0xCA JUMP JUMPDEST PUSH2 0xBD PUSH2 0x28A JUMP JUMPDEST PUSH2 0x162 PUSH2 0x1C4 CALLDATASIZE PUSH1 0x4 PUSH2 0x487 JUMP JUMPDEST PUSH2 0x299 JUMP JUMPDEST PUSH1 0x60 PUSH1 0x3 DUP1 SLOAD PUSH2 0x1D8 SWAP1 PUSH2 0x4A7 JUMP JUMPDEST DUP1 PUSH1 0x1F ADD PUSH1 0x20 DUP1 SWAP2 DIV MUL PUSH1 0x20 ADD PUSH1 0x40 MLOAD SWAP1 DUP2 ADD PUSH1 0x40 MSTORE DUP1 SWAP3 SWAP2 SWAP1 DUP2 DUP2 MSTORE PUSH1 0x20 ADD DUP3 DUP1 SLOAD PUSH2 0x204 SWAP1 PUSH2 0x4A7 JUMP JUMPDEST DUP1 ISZERO PUSH2 0x24F JUMPI DUP1 PUSH1 0x1F LT PUSH2 0x226 JUMPI PUSH2 0x100 DUP1 DUP4 SLOAD DIV MUL DUP4 MSTORE SWAP2 PUSH1 0x20 ADD SWAP2 PUSH2 0x24F JUMP JUMPDEST DUP3 ADD SWAP2 SWAP1 PUSH0 MSTORE PUSH1 0x20 PUSH0 KECCAK256 SWAP1 JUMPDEST DUP2 SLOAD DUP2 MSTORE SWAP1 PUSH1 0x1 ADD SWAP1 PUSH1 0x20 ADD DUP1 DUP4 GT PUSH2 0x232 JUMPI DUP3 SWAP1 SUB PUSH1 0x1F AND DUP3 ADD SWAP2 JUMPDEST POP POP POP POP POP SWAP1 POP SWAP1 JUMP JUMPDEST PUSH0 JUMPDEST SWAP3 SWAP2 POP POP JUMP JUMPDEST PUSH2 0x269 PUSH2 0x2DB JUMP JUMPDEST PUSH2 0x273 DUP3 DUP3 PUSH2 0x307 JUMP JUMPDEST POP POP JUMP JUMPDEST PUSH2 0x27F PUSH2 0x2DB JUMP JUMPDEST PUSH2 0x288 PUSH0 PUSH2 0x370 JUMP JUMPDEST JUMP JUMPDEST PUSH1 0x60 PUSH1 0x4 DUP1 SLOAD PUSH2 0x1D8 SWAP1 PUSH2 0x4A7 JUMP JUMPDEST PUSH2 0x2A1 PUSH2 0x2DB JUMP JUMPDEST PUSH1 0x1 PUSH1 0x1 PUSH1 0xA0 SHL SUB DUP2 AND PUSH2 0x2CF JUMPI PUSH1 0x40 MLOAD PUSH4 0x1E4FBDF7 PUSH1 0xE0 SHL DUP2 MSTORE PUSH0 PUSH1 0x4 DUP3 ADD MSTORE PUSH1 0x24 ADD JUMPDEST PUSH1 0x40 MLOAD DUP1 SWAP2 SUB SWAP1 REVERT JUMPDEST PUSH2 0x2D8 DUP2 PUSH2 0x370 JUMP JUMPDEST POP JUMP JUMPDEST PUSH0 SLOAD PUSH1 0x1 PUSH1 0x1 PUSH1 0xA0 SHL SUB AND CALLER EQ PUSH2 0x288 JUMPI PUSH1 0x40 MLOAD PUSH4 0x118CDAA7 PUSH1 0xE0 SHL DUP2 MSTORE CALLER PUSH1 0x4 DUP3 ADD MSTORE PUSH1 0x24 ADD PUSH2 0x2C6 JUMP JUMPDEST DUP1 PUSH1 0x2 PUSH0 DUP3 DUP3 SLOAD PUSH2 0x318 SWAP2 SWAP1 PUSH2 0x4DF JUMP JUMPDEST SWAP1 SWAP2 SSTORE POP POP PUSH1 0x1 PUSH1 0x1 PUSH1 0xA0 SHL SUB DUP3 AND PUSH0 DUP2 DUP2 MSTORE PUSH1 0x1 PUSH1 0x20 SWAP1 DUP2 MSTORE PUSH1 0x40 DUP1 DUP4 KECCAK256 DUP1 SLOAD DUP7 ADD SWAP1 SSTORE MLOAD DUP5 DUP2 MSTORE PUSH32 0xDDF252AD1BE2C89B69C2B068FC378DAA952BA7F163C4A11628F55A4DF523B3EF SWAP2 ADD PUSH1 0x40 MLOAD DUP1 SWAP2 SUB SWAP1 LOG3 POP POP JUMP JUMPDEST PUSH0 DUP1 SLOAD PUSH1 0x1 PUSH1 0x1 PUSH1 0xA0 SHL SUB DUP4 DUP2 AND PUSH1 0x1 PUSH1 0x1 PUSH1 0xA0 SHL SUB NOT DUP4 AND DUP2 OR DUP5 SSTORE PUSH1 0x40 MLOAD SWAP2 SWAP1 SWAP3 AND SWAP3 DUP4 SWAP2 PUSH32 0x8BE0079C531659141344CD1FD0A4F28419497F9722A3DAAFE3B4186F6B6457E0 SWAP2 SWAP1 LOG3 POP POP JUMP JUMPDEST PUSH0 PUSH1 0x20 DUP1 DUP4 MSTORE DUP4 MLOAD DUP1 PUSH1 0x20 DUP6 ADD MSTORE PUSH0 JUMPDEST DUP2 DUP2 LT ISZERO PUSH2 0x3EB JUMPI DUP6 DUP2 ADD DUP4 ADD MLOAD DUP6 DUP3 ADD PUSH1 0x40 ADD MSTORE DUP3 ADD PUSH2 0x3CF JUMP JUMPDEST POP PUSH0 PUSH1 0x40 DUP3 DUP7 ADD ADD MSTORE PUSH1 0x40 PUSH1 0x1F NOT PUSH1 0x1F DUP4 ADD AND DUP6 ADD ADD SWAP3 POP POP POP SWAP3 SWAP2 POP POP JUMP JUMPDEST DUP1 CALLDATALOAD PUSH1 0x1 PUSH1 0x1 PUSH1 0xA0 SHL SUB DUP2 AND DUP2 EQ PUSH2 0x421 JUMPI PUSH0 DUP1 REVERT JUMPDEST SWAP2 SWAP1 POP JUMP JUMPDEST PUSH0 DUP1 PUSH1 0x40 DUP4 DUP6 SUB SLT ISZERO PUSH2 0x437 JUMPI PUSH0 DUP1 REVERT JUMPDEST PUSH2 0x440 DUP4 PUSH2 0x40B JUMP JUMPDEST SWAP5 PUSH1 0x20 SWAP4 SWAP1 SWAP4 ADD CALLDATALOAD SWAP4 POP POP POP JUMP JUMPDEST PUSH0 DUP1 PUSH0 PUSH1 0x60 DUP5 DUP7 SUB SLT ISZERO PUSH2 0x460 JUMPI PUSH0 DUP1 REVERT JUMPDEST PUSH2 0x469 DUP5 PUSH2 0x40B JUMP JUMPDEST SWAP3 POP PUSH2 0x477 PUSH1 0x20 DUP6 ADD PUSH2 0x40B JUMP JUMPDEST SWAP2 POP PUSH1 0x40 DUP5 ADD CALLDATALOAD SWAP1 POP SWAP3 POP SWAP3 POP SWAP3 JUMP JUMPDEST PUSH0 PUSH1 0x20 DUP3 DUP5 SUB SLT ISZERO PUSH2 0x497 JUMPI PUSH0 DUP1 REVERT JUMPDEST PUSH2 0x4A0 DUP3 PUSH2 0x40B JUMP JUMPDEST SWAP4 SWAP3 POP POP POP JUMP JUMPDEST PUSH1 0x1 DUP2 DUP2 SHR SWAP1 DUP3 AND DUP1 PUSH2 0x4BB JUMPI PUSH1 0x7F DUP3 AND SWAP2 POP JUMPDEST PUSH1 0x20 DUP3 LT DUP2 SUB PUSH2 0x4D9 JUMPI PUSH4 0x4E487B71 PUSH1 0xE0 SHL PUSH0 MSTORE PUSH1 0x22 PUSH1 0x4 MSTORE PUSH1 0x24 PUSH0 REVERT JUMPDEST POP SWAP2 SWAP1 POP JUMP JUMPDEST DUP1 DUP3 ADD DUP1 DUP3 GT ISZERO PUSH2 0x25B JUMPI PUSH4 0x4E487B71 PUSH1 0xE0 SHL PUSH0 MSTORE PUSH1 0x11 PUSH1 0x4 MSTORE PUSH1 0x24 PUSH0 REVERT INVALID LOG2 PUSH5 0x6970667358 0x22 SLT KECCAK256 0xE6 PUSH9 0x71006899E4BF01D978 ORIGIN 0x26 DUP15 0xD0 0xE0 EXP 0xA7 0xAC 0xA6 0xD0 SWAP12 0xB4 0xAF 0x2E 0xC1 PUSH16 0x3923A1AC7064736F6C63430008160033 "
				},
				"gasEstimates": {
					"creation": {
						"codeDepositCost": "266400",
						"executionCost": "infinite",
						"totalCost": "infinite"
					},
					"external": {
						"approve(address,uint256)": "420",
						"balanceOf(address)": "2534",
						"decimals()": "infinite",
						"mint(address,uint256)": "53043",
						"name()": "infinite",
						"owner()": "2343",
						"renounceOwnership()": "infinite",
						"symbol()": "infinite",
						"totalSupply()": "2325",
						"transfer(address,uint256)": "485",
						"transferFrom(address,address,uint256)": "infinite",
						"transferOwnership(address)": "28439"
					},
					"internal": {
						"_afterTokenTransfer(address,address,uint256)": "infinite",
						"_beforeTokenTransfer(address,address,uint256)": "infinite",
						"_burn(address,uint256)": "infinite",
						"_mint(address,uint256)": "infinite"
					}
				},
				"methodIdentifiers": {
					"approve(address,uint256)": "095ea7b3",
					"balanceOf(address)": "70a08231",
					"decimals()": "313ce567",
					"mint(address,uint256)": "40c10f19",
					"name()": "06fdde03",
					"owner()": "8da5cb5b",
					"renounceOwnership()": "715018a6",
					"symbol()": "95d89b41",
					"totalSupply()": "18160ddd",
					"transfer(address,uint256)": "a9059cbb",
					"transferFrom(address,address,uint256)": "23b872dd",
					"transferOwnership(address)": "f2fde38b"
				}
			},
			"storageLayout": {
				"storage": [
					{
						"astId": 8,
						"contract": "packages/revolution-contracts/NontransferableERC20.sol:NontransferableERC20",
						"label": "_owner",
						"offset": 0,
						"slot": "0",
						"type": "t_address"
					},
					{
						"astId": 179,
						"contract": "packages/revolution-contracts/NontransferableERC20.sol:NontransferableERC20",
						"label": "_balances",
						"offset": 0,
						"slot": "1",
						"type": "t_mapping(t_address,t_uint256)"
					},
					{
						"astId": 189,
						"contract": "packages/revolution-contracts/NontransferableERC20.sol:NontransferableERC20",
						"label": "_totalSupply",
						"offset": 0,
						"slot": "2",
						"type": "t_uint256"
					},
					{
						"astId": 191,
						"contract": "packages/revolution-contracts/NontransferableERC20.sol:NontransferableERC20",
						"label": "_name",
						"offset": 0,
						"slot": "3",
						"type": "t_string_storage"
					},
					{
						"astId": 193,
						"contract": "packages/revolution-contracts/NontransferableERC20.sol:NontransferableERC20",
						"label": "_symbol",
						"offset": 0,
						"slot": "4",
						"type": "t_string_storage"
					}
				],
				"types": {
					"t_address": {
						"encoding": "inplace",
						"label": "address",
						"numberOfBytes": "20"
					},
					"t_mapping(t_address,t_uint256)": {
						"encoding": "mapping",
						"key": "t_address",
						"label": "mapping(address => uint256)",
						"numberOfBytes": "32",
						"value": "t_uint256"
					},
					"t_string_storage": {
						"encoding": "bytes",
						"label": "string",
						"numberOfBytes": "32"
					},
					"t_uint256": {
						"encoding": "inplace",
						"label": "uint256",
						"numberOfBytes": "32"
					}
				}
			},
			"userdoc": {
				"kind": "user",
				"methods": {},
				"version": 1
			}
		}
	}
}