{
	"packages/revolution-contracts/VerbsAuctionHouse.sol": {
		"VerbsAuctionHouse": {
			"abi": [
				{
					"inputs": [],
					"name": "EnforcedPause",
					"type": "error"
				},
				{
					"inputs": [],
					"name": "ExpectedPause",
					"type": "error"
				},
				{
					"inputs": [],
					"name": "InvalidInitialization",
					"type": "error"
				},
				{
					"inputs": [],
					"name": "NotInitializing",
					"type": "error"
				},
				{
					"inputs": [
						{
							"internalType": "address",
							"name": "owner",
							"type": "address"
						}
					],
					"name": "OwnableInvalidOwner",
					"type": "error"
				},
				{
					"inputs": [
						{
							"internalType": "address",
							"name": "account",
							"type": "address"
						}
					],
					"name": "OwnableUnauthorizedAccount",
					"type": "error"
				},
				{
					"inputs": [],
					"name": "ReentrancyGuardReentrantCall",
					"type": "error"
				},
				{
					"anonymous": false,
					"inputs": [
						{
							"indexed": true,
							"internalType": "uint256",
							"name": "verbId",
							"type": "uint256"
						},
						{
							"indexed": false,
							"internalType": "address",
							"name": "sender",
							"type": "address"
						},
						{
							"indexed": false,
							"internalType": "uint256",
							"name": "value",
							"type": "uint256"
						},
						{
							"indexed": false,
							"internalType": "bool",
							"name": "extended",
							"type": "bool"
						}
					],
					"name": "AuctionBid",
					"type": "event"
				},
				{
					"anonymous": false,
					"inputs": [
						{
							"indexed": true,
							"internalType": "uint256",
							"name": "verbId",
							"type": "uint256"
						},
						{
							"indexed": false,
							"internalType": "uint256",
							"name": "startTime",
							"type": "uint256"
						},
						{
							"indexed": false,
							"internalType": "uint256",
							"name": "endTime",
							"type": "uint256"
						}
					],
					"name": "AuctionCreated",
					"type": "event"
				},
				{
					"anonymous": false,
					"inputs": [
						{
							"indexed": true,
							"internalType": "uint256",
							"name": "verbId",
							"type": "uint256"
						},
						{
							"indexed": false,
							"internalType": "uint256",
							"name": "endTime",
							"type": "uint256"
						}
					],
					"name": "AuctionExtended",
					"type": "event"
				},
				{
					"anonymous": false,
					"inputs": [
						{
							"indexed": false,
							"internalType": "uint256",
							"name": "minBidIncrementPercentage",
							"type": "uint256"
						}
					],
					"name": "AuctionMinBidIncrementPercentageUpdated",
					"type": "event"
				},
				{
					"anonymous": false,
					"inputs": [
						{
							"indexed": false,
							"internalType": "uint256",
							"name": "reservePrice",
							"type": "uint256"
						}
					],
					"name": "AuctionReservePriceUpdated",
					"type": "event"
				},
				{
					"anonymous": false,
					"inputs": [
						{
							"indexed": true,
							"internalType": "uint256",
							"name": "verbId",
							"type": "uint256"
						},
						{
							"indexed": false,
							"internalType": "address",
							"name": "winner",
							"type": "address"
						},
						{
							"indexed": false,
							"internalType": "uint256",
							"name": "amount",
							"type": "uint256"
						}
					],
					"name": "AuctionSettled",
					"type": "event"
				},
				{
					"anonymous": false,
					"inputs": [
						{
							"indexed": false,
							"internalType": "uint256",
							"name": "timeBuffer",
							"type": "uint256"
						}
					],
					"name": "AuctionTimeBufferUpdated",
					"type": "event"
				},
				{
					"anonymous": false,
					"inputs": [
						{
							"indexed": false,
							"internalType": "uint64",
							"name": "version",
							"type": "uint64"
						}
					],
					"name": "Initialized",
					"type": "event"
				},
				{
					"anonymous": false,
					"inputs": [
						{
							"indexed": true,
							"internalType": "address",
							"name": "previousOwner",
							"type": "address"
						},
						{
							"indexed": true,
							"internalType": "address",
							"name": "newOwner",
							"type": "address"
						}
					],
					"name": "OwnershipTransferred",
					"type": "event"
				},
				{
					"anonymous": false,
					"inputs": [
						{
							"indexed": false,
							"internalType": "address",
							"name": "account",
							"type": "address"
						}
					],
					"name": "Paused",
					"type": "event"
				},
				{
					"anonymous": false,
					"inputs": [
						{
							"indexed": false,
							"internalType": "address",
							"name": "account",
							"type": "address"
						}
					],
					"name": "Unpaused",
					"type": "event"
				},
				{
					"inputs": [],
					"name": "auction",
					"outputs": [
						{
							"internalType": "uint256",
							"name": "verbId",
							"type": "uint256"
						},
						{
							"internalType": "uint256",
							"name": "amount",
							"type": "uint256"
						},
						{
							"internalType": "uint256",
							"name": "startTime",
							"type": "uint256"
						},
						{
							"internalType": "uint256",
							"name": "endTime",
							"type": "uint256"
						},
						{
							"internalType": "address payable",
							"name": "bidder",
							"type": "address"
						},
						{
							"internalType": "bool",
							"name": "settled",
							"type": "bool"
						}
					],
					"stateMutability": "view",
					"type": "function"
				},
				{
					"inputs": [
						{
							"internalType": "uint256",
							"name": "verbId",
							"type": "uint256"
						}
					],
					"name": "createBid",
					"outputs": [],
					"stateMutability": "payable",
					"type": "function"
				},
				{
					"inputs": [],
					"name": "creatorRateBps",
					"outputs": [
						{
							"internalType": "uint256",
							"name": "",
							"type": "uint256"
						}
					],
					"stateMutability": "view",
					"type": "function"
				},
				{
					"inputs": [],
					"name": "duration",
					"outputs": [
						{
							"internalType": "uint256",
							"name": "",
							"type": "uint256"
						}
					],
					"stateMutability": "view",
					"type": "function"
				},
				{
					"inputs": [],
					"name": "entropyRateBps",
					"outputs": [
						{
							"internalType": "uint256",
							"name": "",
							"type": "uint256"
						}
					],
					"stateMutability": "view",
					"type": "function"
				},
				{
					"inputs": [
						{
							"internalType": "contract IVerbsToken",
							"name": "_verbs",
							"type": "address"
						},
						{
							"internalType": "contract ITokenEmitter",
							"name": "_tokenEmitter",
							"type": "address"
						},
						{
							"internalType": "address",
							"name": "_weth",
							"type": "address"
						},
						{
							"internalType": "address",
							"name": "_founder",
							"type": "address"
						},
						{
							"internalType": "uint256",
							"name": "_timeBuffer",
							"type": "uint256"
						},
						{
							"internalType": "uint256",
							"name": "_reservePrice",
							"type": "uint256"
						},
						{
							"internalType": "uint8",
							"name": "_minBidIncrementPercentage",
							"type": "uint8"
						},
						{
							"internalType": "uint256",
							"name": "_duration",
							"type": "uint256"
						},
						{
							"internalType": "uint256",
							"name": "_creatorRateBps",
							"type": "uint256"
						},
						{
							"internalType": "uint256",
							"name": "_entropyRateBps",
							"type": "uint256"
						}
					],
					"name": "initialize",
					"outputs": [],
					"stateMutability": "nonpayable",
					"type": "function"
				},
				{
					"inputs": [],
					"name": "minBidIncrementPercentage",
					"outputs": [
						{
							"internalType": "uint8",
							"name": "",
							"type": "uint8"
						}
					],
					"stateMutability": "view",
					"type": "function"
				},
				{
					"inputs": [],
					"name": "owner",
					"outputs": [
						{
							"internalType": "address",
							"name": "",
							"type": "address"
						}
					],
					"stateMutability": "view",
					"type": "function"
				},
				{
					"inputs": [],
					"name": "pause",
					"outputs": [],
					"stateMutability": "nonpayable",
					"type": "function"
				},
				{
					"inputs": [],
					"name": "paused",
					"outputs": [
						{
							"internalType": "bool",
							"name": "",
							"type": "bool"
						}
					],
					"stateMutability": "view",
					"type": "function"
				},
				{
					"inputs": [],
					"name": "renounceOwnership",
					"outputs": [],
					"stateMutability": "nonpayable",
					"type": "function"
				},
				{
					"inputs": [],
					"name": "reservePrice",
					"outputs": [
						{
							"internalType": "uint256",
							"name": "",
							"type": "uint256"
						}
					],
					"stateMutability": "view",
					"type": "function"
				},
				{
					"inputs": [
						{
							"internalType": "uint8",
							"name": "_minBidIncrementPercentage",
							"type": "uint8"
						}
					],
					"name": "setMinBidIncrementPercentage",
					"outputs": [],
					"stateMutability": "nonpayable",
					"type": "function"
				},
				{
					"inputs": [
						{
							"internalType": "uint256",
							"name": "_reservePrice",
							"type": "uint256"
						}
					],
					"name": "setReservePrice",
					"outputs": [],
					"stateMutability": "nonpayable",
					"type": "function"
				},
				{
					"inputs": [
						{
							"internalType": "uint256",
							"name": "_timeBuffer",
							"type": "uint256"
						}
					],
					"name": "setTimeBuffer",
					"outputs": [],
					"stateMutability": "nonpayable",
					"type": "function"
				},
				{
					"inputs": [],
					"name": "settleAuction",
					"outputs": [],
					"stateMutability": "nonpayable",
					"type": "function"
				},
				{
					"inputs": [],
					"name": "settleCurrentAndCreateNewAuction",
					"outputs": [],
					"stateMutability": "nonpayable",
					"type": "function"
				},
				{
					"inputs": [],
					"name": "timeBuffer",
					"outputs": [
						{
							"internalType": "uint256",
							"name": "",
							"type": "uint256"
						}
					],
					"stateMutability": "view",
					"type": "function"
				},
				{
					"inputs": [],
					"name": "tokenEmitter",
					"outputs": [
						{
							"internalType": "contract ITokenEmitter",
							"name": "",
							"type": "address"
						}
					],
					"stateMutability": "view",
					"type": "function"
				},
				{
					"inputs": [
						{
							"internalType": "address",
							"name": "newOwner",
							"type": "address"
						}
					],
					"name": "transferOwnership",
					"outputs": [],
					"stateMutability": "nonpayable",
					"type": "function"
				},
				{
					"inputs": [],
					"name": "unpause",
					"outputs": [],
					"stateMutability": "nonpayable",
					"type": "function"
				},
				{
					"inputs": [],
					"name": "verbs",
					"outputs": [
						{
							"internalType": "contract IVerbsToken",
							"name": "",
							"type": "address"
						}
					],
					"stateMutability": "view",
					"type": "function"
				},
				{
					"inputs": [],
					"name": "weth",
					"outputs": [
						{
							"internalType": "address",
							"name": "",
							"type": "address"
						}
					],
					"stateMutability": "view",
					"type": "function"
				}
			],
			"devdoc": {
				"errors": {
					"EnforcedPause()": [
						{
							"details": "The operation failed because the contract is paused."
						}
					],
					"ExpectedPause()": [
						{
							"details": "The operation failed because the contract is not paused."
						}
					],
					"InvalidInitialization()": [
						{
							"details": "The contract is already initialized."
						}
					],
					"NotInitializing()": [
						{
							"details": "The contract is not initializing."
						}
					],
					"OwnableInvalidOwner(address)": [
						{
							"details": "The owner is not a valid owner account. (eg. `address(0)`)"
						}
					],
					"OwnableUnauthorizedAccount(address)": [
						{
							"details": "The caller account is not authorized to perform an operation."
						}
					],
					"ReentrancyGuardReentrantCall()": [
						{
							"details": "Unauthorized reentrant call."
						}
					]
				},
				"events": {
					"Initialized(uint64)": {
						"details": "Triggered when the contract has been initialized or reinitialized."
					},
					"Paused(address)": {
						"details": "Emitted when the pause is triggered by `account`."
					},
					"Unpaused(address)": {
						"details": "Emitted when the pause is lifted by `account`."
					}
				},
				"kind": "dev",
				"methods": {
					"createBid(uint256)": {
						"details": "This contract only accepts payment in ETH."
					},
					"initialize(address,address,address,address,uint256,uint256,uint8,uint256,uint256,uint256)": {
						"details": "This function can only be called once."
					},
					"owner()": {
						"details": "Returns the address of the current owner."
					},
					"pause()": {
						"details": "This function can only be called by the owner when the contract is unpaused. While no new auctions can be started when paused, anyone can settle an ongoing auction."
					},
					"paused()": {
						"details": "Returns true if the contract is paused, and false otherwise."
					},
					"renounceOwnership()": {
						"details": "Leaves the contract without owner. It will not be possible to call `onlyOwner` functions. Can only be called by the current owner. NOTE: Renouncing ownership will leave the contract without an owner, thereby disabling any functionality that is only available to the owner."
					},
					"setMinBidIncrementPercentage(uint8)": {
						"details": "Only callable by the owner."
					},
					"setReservePrice(uint256)": {
						"details": "Only callable by the owner."
					},
					"setTimeBuffer(uint256)": {
						"details": "Only callable by the owner."
					},
					"settleAuction()": {
						"details": "This function can only be called when the contract is paused."
					},
					"transferOwnership(address)": {
						"details": "Transfers ownership of the contract to a new account (`newOwner`). Can only be called by the current owner."
					},
					"unpause()": {
						"details": "This function can only be called by the owner when the contract is paused. If required, this function will start a new auction."
					}
				},
				"version": 1
			},
			"evm": {
				"assembly": "    /* \"packages/revolution-contracts/VerbsAuctionHouse.sol\":2166:12132  contract VerbsAuctionHouse is IVerbsAuctionHouse, PausableUpgradeable, ReentrancyGuardUpgradeable, OwnableUpgradeable {... */\n  mstore(0x40, 0x80)\n  callvalue\n  dup1\n  iszero\n  tag_1\n  jumpi\n  0x00\n  dup1\n  revert\ntag_1:\n  pop\n  dataSize(sub_0)\n  dup1\n  dataOffset(sub_0)\n  0x00\n  codecopy\n  0x00\n  return\nstop\n\nsub_0: assembly {\n        /* \"packages/revolution-contracts/VerbsAuctionHouse.sol\":2166:12132  contract VerbsAuctionHouse is IVerbsAuctionHouse, PausableUpgradeable, ReentrancyGuardUpgradeable, OwnableUpgradeable {... */\n      mstore(0x40, 0x80)\n      jumpi(tag_1, lt(calldatasize, 0x04))\n      shr(0xe0, calldataload(0x00))\n      dup1\n      0x7d9f6db5\n      gt\n      tag_25\n      jumpi\n      dup1\n      0xce9c7c0d\n      gt\n      tag_26\n      jumpi\n      dup1\n      0xce9c7c0d\n      eq\n      tag_19\n      jumpi\n      dup1\n      0xdb2e1eed\n      eq\n      tag_20\n      jumpi\n      dup1\n      0xec91f2a4\n      eq\n      tag_21\n      jumpi\n      dup1\n      0xf25efffc\n      eq\n      tag_22\n      jumpi\n      dup1\n      0xf2fde38b\n      eq\n      tag_23\n      jumpi\n      dup1\n      0xfe95233b\n      eq\n      tag_24\n      jumpi\n      0x00\n      dup1\n      revert\n    tag_26:\n      dup1\n      0x7d9f6db5\n      eq\n      tag_13\n      jumpi\n      dup1\n      0x8456cb59\n      eq\n      tag_14\n      jumpi\n      dup1\n      0x8da5cb5b\n      eq\n      tag_15\n      jumpi\n      dup1\n      0xa4d0a17e\n      eq\n      tag_16\n      jumpi\n      dup1\n      0xa910d318\n      eq\n      tag_17\n      jumpi\n      dup1\n      0xb296024d\n      eq\n      tag_18\n      jumpi\n      0x00\n      dup1\n      revert\n    tag_25:\n      dup1\n      0x3f4ba83a\n      gt\n      tag_27\n      jumpi\n      dup1\n      0x3f4ba83a\n      eq\n      tag_7\n      jumpi\n      dup1\n      0x3fc8cef3\n      eq\n      tag_8\n      jumpi\n      dup1\n      0x5c975abb\n      eq\n      tag_9\n      jumpi\n      dup1\n      0x659dd2b4\n      eq\n      tag_10\n      jumpi\n      dup1\n      0x7120334b\n      eq\n      tag_11\n      jumpi\n      dup1\n      0x715018a6\n      eq\n      tag_12\n      jumpi\n      0x00\n      dup1\n      revert\n    tag_27:\n      dup1\n      0x0284464a\n      eq\n      tag_2\n      jumpi\n      dup1\n      0x0802be0a\n      eq\n      tag_3\n      jumpi\n      dup1\n      0x0fb5a6b4\n      eq\n      tag_4\n      jumpi\n      dup1\n      0x36ebdb38\n      eq\n      tag_5\n      jumpi\n      dup1\n      0x3d64baf1\n      eq\n      tag_6\n      jumpi\n    tag_1:\n      0x00\n      dup1\n      revert\n        /* \"packages/revolution-contracts/VerbsAuctionHouse.sol\":2329:2353  IVerbsToken public verbs */\n    tag_2:\n      callvalue\n      dup1\n      iszero\n      tag_28\n      jumpi\n      0x00\n      dup1\n      revert\n    tag_28:\n      pop\n      sload(0x00)\n      tag_29\n      swap1\n      sub(shl(0xa0, 0x01), 0x01)\n      and\n      dup2\n      jump\n    tag_29:\n      mload(0x40)\n      sub(shl(0xa0, 0x01), 0x01)\n        /* \"#utility.yul\":198:230   */\n      swap1\n      swap2\n      and\n        /* \"#utility.yul\":180:231   */\n      dup2\n      mstore\n        /* \"#utility.yul\":168:170   */\n      0x20\n        /* \"#utility.yul\":153:171   */\n      add\n        /* \"packages/revolution-contracts/VerbsAuctionHouse.sol\":2329:2353  IVerbsToken public verbs */\n    tag_31:\n      mload(0x40)\n      dup1\n      swap2\n      sub\n      swap1\n      return\n        /* \"packages/revolution-contracts/VerbsAuctionHouse.sol\":2925:2954  uint256 public creatorRateBps */\n    tag_3:\n      callvalue\n      dup1\n      iszero\n      tag_33\n      jumpi\n      0x00\n      dup1\n      revert\n    tag_33:\n      pop\n      tag_34\n      sload(0x06)\n      dup2\n      jump\n    tag_34:\n      mload(0x40)\n        /* \"#utility.yul\":388:413   */\n      swap1\n      dup2\n      mstore\n        /* \"#utility.yul\":376:378   */\n      0x20\n        /* \"#utility.yul\":361:379   */\n      add\n        /* \"packages/revolution-contracts/VerbsAuctionHouse.sol\":2925:2954  uint256 public creatorRateBps */\n      tag_31\n        /* \"#utility.yul\":242:419   */\n      jump\n        /* \"packages/revolution-contracts/VerbsAuctionHouse.sol\":3143:3166  uint256 public duration */\n    tag_4:\n      callvalue\n      dup1\n      iszero\n      tag_38\n      jumpi\n      0x00\n      dup1\n      revert\n    tag_38:\n      pop\n      tag_34\n      sload(0x08)\n      dup2\n      jump\n        /* \"packages/revolution-contracts/VerbsAuctionHouse.sol\":7600:7854  function setMinBidIncrementPercentage(uint8 _minBidIncrementPercentage) external override onlyOwner {... */\n    tag_5:\n      callvalue\n      dup1\n      iszero\n      tag_42\n      jumpi\n      0x00\n      dup1\n      revert\n    tag_42:\n      pop\n      tag_43\n      tag_44\n      calldatasize\n      0x04\n      tag_45\n      jump\t// in\n    tag_44:\n      tag_46\n      jump\t// in\n    tag_43:\n      stop\n        /* \"packages/revolution-contracts/VerbsAuctionHouse.sol\":2394:2427  ITokenEmitter public tokenEmitter */\n    tag_6:\n      callvalue\n      dup1\n      iszero\n      tag_47\n      jumpi\n      0x00\n      dup1\n      revert\n    tag_47:\n      pop\n      sload(0x01)\n      tag_29\n      swap1\n      sub(shl(0xa0, 0x01), 0x01)\n      and\n      dup2\n      jump\n        /* \"packages/revolution-contracts/VerbsAuctionHouse.sol\":6743:6915  function unpause() external override onlyOwner {... */\n    tag_7:\n      callvalue\n      dup1\n      iszero\n      tag_52\n      jumpi\n      0x00\n      dup1\n      revert\n    tag_52:\n      pop\n      tag_43\n      tag_54\n      jump\t// in\n        /* \"packages/revolution-contracts/VerbsAuctionHouse.sol\":2474:2493  address public weth */\n    tag_8:\n      callvalue\n      dup1\n      iszero\n      tag_55\n      jumpi\n      0x00\n      dup1\n      revert\n    tag_55:\n      pop\n      sload(0x02)\n      tag_29\n      swap1\n      sub(shl(0xa0, 0x01), 0x01)\n      and\n      dup2\n      jump\n        /* \"@openzeppelin/contracts-upgradeable/utils/PausableUpgradeable.sol\":2692:2837  function paused() public view virtual returns (bool) {... */\n    tag_9:\n      callvalue\n      dup1\n      iszero\n      tag_60\n      jumpi\n      0x00\n      dup1\n      revert\n    tag_60:\n      pop\n      0x00\n      dup1\n      mload\n      0x20\n      data_c0c65a3718f3702d917c44106b91645b509d2e2d0979b70495c3babce192339f\n      dup4\n      codecopy\n      dup2\n      mload\n      swap2\n      mstore\n        /* \"@openzeppelin/contracts-upgradeable/utils/PausableUpgradeable.sol\":2821:2830  $._paused */\n      sload\n      0xff\n      and\n        /* \"@openzeppelin/contracts-upgradeable/utils/PausableUpgradeable.sol\":2692:2837  function paused() public view virtual returns (bool) {... */\n      mload(0x40)\n        /* \"#utility.yul\":1375:1389   */\n      swap1\n      iszero\n        /* \"#utility.yul\":1368:1390   */\n      iszero\n        /* \"#utility.yul\":1350:1391   */\n      dup2\n      mstore\n        /* \"#utility.yul\":1338:1340   */\n      0x20\n        /* \"#utility.yul\":1323:1341   */\n      add\n        /* \"@openzeppelin/contracts-upgradeable/utils/PausableUpgradeable.sol\":2692:2837  function paused() public view virtual returns (bool) {... */\n      tag_31\n        /* \"#utility.yul\":1210:1397   */\n      jump\n        /* \"packages/revolution-contracts/VerbsAuctionHouse.sol\":4886:6197  function createBid(uint256 verbId) external payable override nonReentrant {... */\n    tag_10:\n      tag_43\n      tag_66\n      calldatasize\n      0x04\n      tag_67\n      jump\t// in\n    tag_66:\n      tag_68\n      jump\t// in\n        /* \"packages/revolution-contracts/VerbsAuctionHouse.sol\":7021:7187  function setTimeBuffer(uint256 _timeBuffer) external override onlyOwner {... */\n    tag_11:\n      callvalue\n      dup1\n      iszero\n      tag_69\n      jumpi\n      0x00\n      dup1\n      revert\n    tag_69:\n      pop\n      tag_43\n      tag_71\n      calldatasize\n      0x04\n      tag_67\n      jump\t// in\n    tag_71:\n      tag_72\n      jump\t// in\n        /* \"@openzeppelin/contracts-upgradeable/access/OwnableUpgradeable.sol\":3155:3256  function renounceOwnership() public virtual onlyOwner {... */\n    tag_12:\n      callvalue\n      dup1\n      iszero\n      tag_73\n      jumpi\n      0x00\n      dup1\n      revert\n    tag_73:\n      pop\n      tag_43\n      tag_75\n      jump\t// in\n        /* \"packages/revolution-contracts/VerbsAuctionHouse.sol\":3199:3240  IVerbsAuctionHouse.Auction public auction */\n    tag_13:\n      callvalue\n      dup1\n      iszero\n      tag_76\n      jumpi\n      0x00\n      dup1\n      revert\n    tag_76:\n      pop\n      sload(0x09)\n      sload(0x0a)\n      sload(0x0b)\n      sload(0x0c)\n      sload(0x0d)\n      tag_77\n      swap5\n      swap4\n      swap3\n      swap2\n      swap1\n      sub(shl(0xa0, 0x01), 0x01)\n      dup2\n      and\n      swap1\n      shl(0xa0, 0x01)\n      swap1\n      div\n      0xff\n      and\n      dup7\n      jump\n    tag_77:\n      0x40\n      dup1\n      mload\n        /* \"#utility.yul\":1884:1909   */\n      swap7\n      dup8\n      mstore\n        /* \"#utility.yul\":1940:1942   */\n      0x20\n        /* \"#utility.yul\":1925:1943   */\n      dup8\n      add\n        /* \"#utility.yul\":1918:1952   */\n      swap6\n      swap1\n      swap6\n      mstore\n        /* \"#utility.yul\":1968:1986   */\n      swap4\n      dup6\n      add\n        /* \"#utility.yul\":1961:1995   */\n      swap3\n      swap1\n      swap3\n      mstore\n        /* \"#utility.yul\":2026:2028   */\n      0x60\n        /* \"#utility.yul\":2011:2029   */\n      dup5\n      add\n        /* \"#utility.yul\":2004:2038   */\n      mstore\n      sub(shl(0xa0, 0x01), 0x01)\n        /* \"#utility.yul\":2075:2107   */\n      and\n        /* \"#utility.yul\":2069:2072   */\n      0x80\n        /* \"#utility.yul\":2054:2073   */\n      dup4\n      add\n        /* \"#utility.yul\":2047:2108   */\n      mstore\n        /* \"#utility.yul\":2152:2166   */\n      iszero\n        /* \"#utility.yul\":2145:2167   */\n      iszero\n        /* \"#utility.yul\":2095:2098   */\n      0xa0\n        /* \"#utility.yul\":2124:2143   */\n      dup3\n      add\n        /* \"#utility.yul\":2117:2168   */\n      mstore\n        /* \"#utility.yul\":1871:1874   */\n      0xc0\n        /* \"#utility.yul\":1856:1875   */\n      add\n        /* \"packages/revolution-contracts/VerbsAuctionHouse.sol\":3199:3240  IVerbsAuctionHouse.Auction public auction */\n      tag_31\n        /* \"#utility.yul\":1587:2174   */\n      jump\n        /* \"packages/revolution-contracts/VerbsAuctionHouse.sol\":6456:6526  function pause() external override onlyOwner {... */\n    tag_14:\n      callvalue\n      dup1\n      iszero\n      tag_81\n      jumpi\n      0x00\n      dup1\n      revert\n    tag_81:\n      pop\n      tag_43\n      tag_83\n      jump\t// in\n        /* \"@openzeppelin/contracts-upgradeable/access/OwnableUpgradeable.sol\":2441:2585  function owner() public view virtual returns (address) {... */\n    tag_15:\n      callvalue\n      dup1\n      iszero\n      tag_84\n      jumpi\n      0x00\n      dup1\n      revert\n    tag_84:\n      pop\n      tag_29\n      tag_86\n      jump\t// in\n        /* \"packages/revolution-contracts/VerbsAuctionHouse.sol\":4648:4748  function settleAuction() external override whenPaused nonReentrant {... */\n    tag_16:\n      callvalue\n      dup1\n      iszero\n      tag_88\n      jumpi\n      0x00\n      dup1\n      revert\n    tag_88:\n      pop\n      tag_43\n      tag_90\n      jump\t// in\n        /* \"packages/revolution-contracts/VerbsAuctionHouse.sol\":3440:4252  function initialize(... */\n    tag_17:\n      callvalue\n      dup1\n      iszero\n      tag_91\n      jumpi\n      0x00\n      dup1\n      revert\n    tag_91:\n      pop\n      tag_43\n      tag_93\n      calldatasize\n      0x04\n      tag_94\n      jump\t// in\n    tag_93:\n      tag_95\n      jump\t// in\n        /* \"packages/revolution-contracts/VerbsAuctionHouse.sol\":2783:2821  uint8 public minBidIncrementPercentage */\n    tag_18:\n      callvalue\n      dup1\n      iszero\n      tag_96\n      jumpi\n      0x00\n      dup1\n      revert\n    tag_96:\n      pop\n      sload(0x05)\n      tag_97\n      swap1\n      0xff\n      and\n      dup2\n      jump\n    tag_97:\n      mload(0x40)\n        /* \"#utility.yul\":3686:3690   */\n      0xff\n        /* \"#utility.yul\":3674:3691   */\n      swap1\n      swap2\n      and\n        /* \"#utility.yul\":3656:3692   */\n      dup2\n      mstore\n        /* \"#utility.yul\":3644:3646   */\n      0x20\n        /* \"#utility.yul\":3629:3647   */\n      add\n        /* \"packages/revolution-contracts/VerbsAuctionHouse.sol\":2783:2821  uint8 public minBidIncrementPercentage */\n      tag_31\n        /* \"#utility.yul\":3514:3698   */\n      jump\n        /* \"packages/revolution-contracts/VerbsAuctionHouse.sol\":7295:7473  function setReservePrice(uint256 _reservePrice) external override onlyOwner {... */\n    tag_19:\n      callvalue\n      dup1\n      iszero\n      tag_101\n      jumpi\n      0x00\n      dup1\n      revert\n    tag_101:\n      pop\n      tag_43\n      tag_103\n      calldatasize\n      0x04\n      tag_67\n      jump\t// in\n    tag_103:\n      tag_104\n      jump\t// in\n        /* \"packages/revolution-contracts/VerbsAuctionHouse.sol\":2660:2687  uint256 public reservePrice */\n    tag_20:\n      callvalue\n      dup1\n      iszero\n      tag_105\n      jumpi\n      0x00\n      dup1\n      revert\n    tag_105:\n      pop\n      tag_34\n      sload(0x04)\n      dup2\n      jump\n        /* \"packages/revolution-contracts/VerbsAuctionHouse.sol\":2580:2605  uint256 public timeBuffer */\n    tag_21:\n      callvalue\n      dup1\n      iszero\n      tag_109\n      jumpi\n      0x00\n      dup1\n      revert\n    tag_109:\n      pop\n      tag_34\n      sload(0x03)\n      dup2\n      jump\n        /* \"packages/revolution-contracts/VerbsAuctionHouse.sol\":4361:4509  function settleCurrentAndCreateNewAuction() external override nonReentrant whenNotPaused {... */\n    tag_22:\n      callvalue\n      dup1\n      iszero\n      tag_113\n      jumpi\n      0x00\n      dup1\n      revert\n    tag_113:\n      pop\n      tag_43\n      tag_115\n      jump\t// in\n        /* \"@openzeppelin/contracts-upgradeable/access/OwnableUpgradeable.sol\":3405:3620  function transferOwnership(address newOwner) public virtual onlyOwner {... */\n    tag_23:\n      callvalue\n      dup1\n      iszero\n      tag_116\n      jumpi\n      0x00\n      dup1\n      revert\n    tag_116:\n      pop\n      tag_43\n      tag_118\n      calldatasize\n      0x04\n      tag_119\n      jump\t// in\n    tag_118:\n      tag_120\n      jump\t// in\n        /* \"packages/revolution-contracts/VerbsAuctionHouse.sol\":3067:3096  uint256 public entropyRateBps */\n    tag_24:\n      callvalue\n      dup1\n      iszero\n      tag_121\n      jumpi\n      0x00\n      dup1\n      revert\n    tag_121:\n      pop\n      tag_34\n      sload(0x07)\n      dup2\n      jump\n        /* \"packages/revolution-contracts/VerbsAuctionHouse.sol\":7600:7854  function setMinBidIncrementPercentage(uint8 _minBidIncrementPercentage) external override onlyOwner {... */\n    tag_46:\n        /* \"@openzeppelin/contracts-upgradeable/access/OwnableUpgradeable.sol\":2334:2347  _checkOwner() */\n      tag_126\n        /* \"@openzeppelin/contracts-upgradeable/access/OwnableUpgradeable.sol\":2334:2345  _checkOwner */\n      tag_127\n        /* \"@openzeppelin/contracts-upgradeable/access/OwnableUpgradeable.sol\":2334:2347  _checkOwner() */\n      jump\t// in\n    tag_126:\n        /* \"packages/revolution-contracts/VerbsAuctionHouse.sol\":7710:7735  minBidIncrementPercentage */\n      0x05\n        /* \"packages/revolution-contracts/VerbsAuctionHouse.sol\":7710:7764  minBidIncrementPercentage = _minBidIncrementPercentage */\n      dup1\n      sload\n      not(0xff)\n      and\n      0xff\n      dup4\n      and\n      swap1\n      dup2\n      or\n      swap1\n      swap2\n      sstore\n        /* \"packages/revolution-contracts/VerbsAuctionHouse.sol\":7780:7847  AuctionMinBidIncrementPercentageUpdated(_minBidIncrementPercentage) */\n      mload(0x40)\n        /* \"#utility.yul\":3656:3692   */\n      swap1\n      dup2\n      mstore\n        /* \"packages/revolution-contracts/VerbsAuctionHouse.sol\":7780:7847  AuctionMinBidIncrementPercentageUpdated(_minBidIncrementPercentage) */\n      0xec5ccd96cc77b6219e9d44143df916af68fc169339ea7de5008ff15eae13450d\n      swap1\n        /* \"#utility.yul\":3644:3646   */\n      0x20\n        /* \"#utility.yul\":3629:3647   */\n      add\n        /* \"packages/revolution-contracts/VerbsAuctionHouse.sol\":7780:7847  AuctionMinBidIncrementPercentageUpdated(_minBidIncrementPercentage) */\n    tag_129:\n      mload(0x40)\n      dup1\n      swap2\n      sub\n      swap1\n      log1\n        /* \"packages/revolution-contracts/VerbsAuctionHouse.sol\":7600:7854  function setMinBidIncrementPercentage(uint8 _minBidIncrementPercentage) external override onlyOwner {... */\n      pop\n      jump\t// out\n        /* \"packages/revolution-contracts/VerbsAuctionHouse.sol\":6743:6915  function unpause() external override onlyOwner {... */\n    tag_54:\n        /* \"@openzeppelin/contracts-upgradeable/access/OwnableUpgradeable.sol\":2334:2347  _checkOwner() */\n      tag_132\n        /* \"@openzeppelin/contracts-upgradeable/access/OwnableUpgradeable.sol\":2334:2345  _checkOwner */\n      tag_127\n        /* \"@openzeppelin/contracts-upgradeable/access/OwnableUpgradeable.sol\":2334:2347  _checkOwner() */\n      jump\t// in\n    tag_132:\n        /* \"packages/revolution-contracts/VerbsAuctionHouse.sol\":6800:6810  _unpause() */\n      tag_134\n        /* \"packages/revolution-contracts/VerbsAuctionHouse.sol\":6800:6808  _unpause */\n      tag_135\n        /* \"packages/revolution-contracts/VerbsAuctionHouse.sol\":6800:6810  _unpause() */\n      jump\t// in\n    tag_134:\n        /* \"packages/revolution-contracts/VerbsAuctionHouse.sol\":6825:6842  auction.startTime */\n      sload(0x0b)\n        /* \"packages/revolution-contracts/VerbsAuctionHouse.sol\":6825:6847  auction.startTime == 0 */\n      iszero\n      dup1\n        /* \"packages/revolution-contracts/VerbsAuctionHouse.sol\":6825:6866  auction.startTime == 0 || auction.settled */\n      tag_136\n      jumpi\n      pop\n        /* \"packages/revolution-contracts/VerbsAuctionHouse.sol\":6851:6866  auction.settled */\n      sload(0x0d)\n      shl(0xa0, 0x01)\n      swap1\n      div\n      0xff\n      and\n        /* \"packages/revolution-contracts/VerbsAuctionHouse.sol\":6825:6866  auction.startTime == 0 || auction.settled */\n    tag_136:\n        /* \"packages/revolution-contracts/VerbsAuctionHouse.sol\":6821:6909  if (auction.startTime == 0 || auction.settled) {... */\n      iszero\n      tag_138\n      jumpi\n        /* \"packages/revolution-contracts/VerbsAuctionHouse.sol\":6882:6898  _createAuction() */\n      tag_138\n        /* \"packages/revolution-contracts/VerbsAuctionHouse.sol\":6882:6896  _createAuction */\n      tag_139\n        /* \"packages/revolution-contracts/VerbsAuctionHouse.sol\":6882:6898  _createAuction() */\n      jump\t// in\n    tag_138:\n        /* \"packages/revolution-contracts/VerbsAuctionHouse.sol\":6743:6915  function unpause() external override onlyOwner {... */\n      jump\t// out\n        /* \"packages/revolution-contracts/VerbsAuctionHouse.sol\":4886:6197  function createBid(uint256 verbId) external payable override nonReentrant {... */\n    tag_68:\n        /* \"@openzeppelin/contracts-upgradeable/utils/ReentrancyGuardUpgradeable.sol\":3251:3272  _nonReentrantBefore() */\n      tag_144\n        /* \"@openzeppelin/contracts-upgradeable/utils/ReentrancyGuardUpgradeable.sol\":3251:3270  _nonReentrantBefore */\n      tag_145\n        /* \"@openzeppelin/contracts-upgradeable/utils/ReentrancyGuardUpgradeable.sol\":3251:3272  _nonReentrantBefore() */\n      jump\t// in\n    tag_144:\n        /* \"packages/revolution-contracts/VerbsAuctionHouse.sol\":4970:5022  IVerbsAuctionHouse.Auction memory _auction = auction */\n      0x40\n      dup1\n      mload\n      0xc0\n      dup2\n      add\n      dup3\n      mstore\n        /* \"packages/revolution-contracts/VerbsAuctionHouse.sol\":5015:5022  auction */\n      0x09\n        /* \"packages/revolution-contracts/VerbsAuctionHouse.sol\":4970:5022  IVerbsAuctionHouse.Auction memory _auction = auction */\n      sload\n      dup1\n      dup3\n      mstore\n      sload(0x0a)\n      0x20\n      dup4\n      add\n      mstore\n      sload(0x0b)\n      swap3\n      dup3\n      add\n      swap3\n      swap1\n      swap3\n      mstore\n      sload(0x0c)\n      0x60\n      dup3\n      add\n      mstore\n      sload(0x0d)\n      sub(shl(0xa0, 0x01), 0x01)\n      dup2\n      and\n      0x80\n      dup4\n      add\n      mstore\n      shl(0xa0, 0x01)\n      swap1\n      div\n      0xff\n      and\n      iszero\n      iszero\n      0xa0\n      dup3\n      add\n      mstore\n      swap1\n        /* \"packages/revolution-contracts/VerbsAuctionHouse.sol\":5041:5066  _auction.verbId == verbId */\n      dup3\n      eq\n        /* \"packages/revolution-contracts/VerbsAuctionHouse.sol\":5033:5094  require(_auction.verbId == verbId, \"Verb not up for auction\") */\n      tag_147\n      jumpi\n      mload(0x40)\n      shl(0xe5, 0x461bcd)\n      dup2\n      mstore\n        /* \"#utility.yul\":4361:4363   */\n      0x20\n        /* \"packages/revolution-contracts/VerbsAuctionHouse.sol\":5033:5094  require(_auction.verbId == verbId, \"Verb not up for auction\") */\n      0x04\n      dup3\n      add\n        /* \"#utility.yul\":4343:4364   */\n      mstore\n        /* \"#utility.yul\":4400:4402   */\n      0x17\n        /* \"#utility.yul\":4380:4398   */\n      0x24\n      dup3\n      add\n        /* \"#utility.yul\":4373:4403   */\n      mstore\n        /* \"#utility.yul\":4439:4464   */\n      0x56657262206e6f7420757020666f722061756374696f6e000000000000000000\n        /* \"#utility.yul\":4419:4437   */\n      0x44\n      dup3\n      add\n        /* \"#utility.yul\":4412:4465   */\n      mstore\n        /* \"#utility.yul\":4482:4500   */\n      0x64\n      add\n        /* \"packages/revolution-contracts/VerbsAuctionHouse.sol\":5033:5094  require(_auction.verbId == verbId, \"Verb not up for auction\") */\n    tag_148:\n      mload(0x40)\n      dup1\n      swap2\n      sub\n      swap1\n      revert\n    tag_147:\n        /* \"packages/revolution-contracts/VerbsAuctionHouse.sol\":5130:5138  _auction */\n      dup1\n        /* \"packages/revolution-contracts/VerbsAuctionHouse.sol\":5130:5146  _auction.endTime */\n      0x60\n      add\n      mload\n        /* \"packages/revolution-contracts/VerbsAuctionHouse.sol\":5112:5127  block.timestamp */\n      timestamp\n        /* \"packages/revolution-contracts/VerbsAuctionHouse.sol\":5112:5146  block.timestamp < _auction.endTime */\n      lt\n        /* \"packages/revolution-contracts/VerbsAuctionHouse.sol\":5104:5166  require(block.timestamp < _auction.endTime, \"Auction expired\") */\n      tag_150\n      jumpi\n      mload(0x40)\n      shl(0xe5, 0x461bcd)\n      dup2\n      mstore\n        /* \"#utility.yul\":4713:4715   */\n      0x20\n        /* \"packages/revolution-contracts/VerbsAuctionHouse.sol\":5104:5166  require(block.timestamp < _auction.endTime, \"Auction expired\") */\n      0x04\n      dup3\n      add\n        /* \"#utility.yul\":4695:4716   */\n      mstore\n        /* \"#utility.yul\":4752:4754   */\n      0x0f\n        /* \"#utility.yul\":4732:4750   */\n      0x24\n      dup3\n      add\n        /* \"#utility.yul\":4725:4755   */\n      mstore\n      shl(0x8a, 0x105d58dd1a5bdb88195e1c1a5c9959)\n        /* \"#utility.yul\":4771:4789   */\n      0x44\n      dup3\n      add\n        /* \"#utility.yul\":4764:4809   */\n      mstore\n        /* \"#utility.yul\":4826:4844   */\n      0x64\n      add\n        /* \"packages/revolution-contracts/VerbsAuctionHouse.sol\":5104:5166  require(block.timestamp < _auction.endTime, \"Auction expired\") */\n      tag_148\n        /* \"#utility.yul\":4511:4850   */\n      jump\n        /* \"packages/revolution-contracts/VerbsAuctionHouse.sol\":5104:5166  require(block.timestamp < _auction.endTime, \"Auction expired\") */\n    tag_150:\n        /* \"packages/revolution-contracts/VerbsAuctionHouse.sol\":5197:5209  reservePrice */\n      sload(0x04)\n        /* \"packages/revolution-contracts/VerbsAuctionHouse.sol\":5184:5193  msg.value */\n      callvalue\n        /* \"packages/revolution-contracts/VerbsAuctionHouse.sol\":5184:5209  msg.value >= reservePrice */\n      lt\n      iszero\n        /* \"packages/revolution-contracts/VerbsAuctionHouse.sol\":5176:5245  require(msg.value >= reservePrice, \"Must send at least reservePrice\") */\n      tag_153\n      jumpi\n      mload(0x40)\n      shl(0xe5, 0x461bcd)\n      dup2\n      mstore\n        /* \"#utility.yul\":5057:5059   */\n      0x20\n        /* \"packages/revolution-contracts/VerbsAuctionHouse.sol\":5176:5245  require(msg.value >= reservePrice, \"Must send at least reservePrice\") */\n      0x04\n      dup3\n      add\n        /* \"#utility.yul\":5039:5060   */\n      mstore\n        /* \"#utility.yul\":5096:5098   */\n      0x1f\n        /* \"#utility.yul\":5076:5094   */\n      0x24\n      dup3\n      add\n        /* \"#utility.yul\":5069:5099   */\n      mstore\n        /* \"#utility.yul\":5135:5168   */\n      0x4d7573742073656e64206174206c656173742072657365727665507269636500\n        /* \"#utility.yul\":5115:5133   */\n      0x44\n      dup3\n      add\n        /* \"#utility.yul\":5108:5169   */\n      mstore\n        /* \"#utility.yul\":5186:5204   */\n      0x64\n      add\n        /* \"packages/revolution-contracts/VerbsAuctionHouse.sol\":5176:5245  require(msg.value >= reservePrice, \"Must send at least reservePrice\") */\n      tag_148\n        /* \"#utility.yul\":4855:5210   */\n      jump\n        /* \"packages/revolution-contracts/VerbsAuctionHouse.sol\":5176:5245  require(msg.value >= reservePrice, \"Must send at least reservePrice\") */\n    tag_153:\n        /* \"packages/revolution-contracts/VerbsAuctionHouse.sol\":5314:5339  minBidIncrementPercentage */\n      sload(0x05)\n        /* \"packages/revolution-contracts/VerbsAuctionHouse.sol\":5296:5311  _auction.amount */\n      0x20\n      dup3\n      add\n      mload\n        /* \"packages/revolution-contracts/VerbsAuctionHouse.sol\":5343:5346  100 */\n      0x64\n      swap2\n        /* \"packages/revolution-contracts/VerbsAuctionHouse.sol\":5296:5339  _auction.amount * minBidIncrementPercentage */\n      tag_156\n      swap2\n        /* \"packages/revolution-contracts/VerbsAuctionHouse.sol\":5314:5339  minBidIncrementPercentage */\n      0xff\n      swap1\n      swap2\n      and\n      swap1\n        /* \"packages/revolution-contracts/VerbsAuctionHouse.sol\":5296:5339  _auction.amount * minBidIncrementPercentage */\n      tag_157\n      jump\t// in\n    tag_156:\n        /* \"packages/revolution-contracts/VerbsAuctionHouse.sol\":5295:5346  (_auction.amount * minBidIncrementPercentage) / 100 */\n      tag_158\n      swap2\n      swap1\n      tag_159\n      jump\t// in\n    tag_158:\n        /* \"packages/revolution-contracts/VerbsAuctionHouse.sol\":5276:5284  _auction */\n      dup2\n        /* \"packages/revolution-contracts/VerbsAuctionHouse.sol\":5276:5291  _auction.amount */\n      0x20\n      add\n      mload\n        /* \"packages/revolution-contracts/VerbsAuctionHouse.sol\":5276:5347  _auction.amount + ((_auction.amount * minBidIncrementPercentage) / 100) */\n      tag_160\n      swap2\n      swap1\n      tag_161\n      jump\t// in\n    tag_160:\n        /* \"packages/revolution-contracts/VerbsAuctionHouse.sol\":5263:5272  msg.value */\n      callvalue\n        /* \"packages/revolution-contracts/VerbsAuctionHouse.sol\":5263:5347  msg.value >= _auction.amount + ((_auction.amount * minBidIncrementPercentage) / 100) */\n      lt\n      iszero\n        /* \"packages/revolution-contracts/VerbsAuctionHouse.sol\":5255:5416  require(msg.value >= _auction.amount + ((_auction.amount * minBidIncrementPercentage) / 100), \"Must send more than last bid by minBidIncrementPercentage amount\") */\n      tag_162\n      jumpi\n      0x40\n      dup1\n      mload\n      shl(0xe5, 0x461bcd)\n      dup2\n      mstore\n        /* \"#utility.yul\":6074:6076   */\n      0x20\n        /* \"packages/revolution-contracts/VerbsAuctionHouse.sol\":5255:5416  require(msg.value >= _auction.amount + ((_auction.amount * minBidIncrementPercentage) / 100), \"Must send more than last bid by minBidIncrementPercentage amount\") */\n      0x04\n      dup3\n      add\n        /* \"#utility.yul\":6056:6077   */\n      mstore\n        /* \"#utility.yul\":6093:6111   */\n      0x24\n      dup2\n      add\n        /* \"#utility.yul\":6086:6116   */\n      swap2\n      swap1\n      swap2\n      mstore\n        /* \"#utility.yul\":6152:6186   */\n      0x4d7573742073656e64206d6f7265207468616e206c6173742062696420627920\n        /* \"#utility.yul\":6132:6150   */\n      0x44\n      dup3\n      add\n        /* \"#utility.yul\":6125:6187   */\n      mstore\n        /* \"#utility.yul\":6223:6257   */\n      0x6d696e426964496e6372656d656e7450657263656e7461676520616d6f756e74\n        /* \"#utility.yul\":6203:6221   */\n      0x64\n      dup3\n      add\n        /* \"#utility.yul\":6196:6258   */\n      mstore\n        /* \"#utility.yul\":6275:6294   */\n      0x84\n      add\n        /* \"packages/revolution-contracts/VerbsAuctionHouse.sol\":5255:5416  require(msg.value >= _auction.amount + ((_auction.amount * minBidIncrementPercentage) / 100), \"Must send more than last bid by minBidIncrementPercentage amount\") */\n      tag_148\n        /* \"#utility.yul\":5872:6300   */\n      jump\n        /* \"packages/revolution-contracts/VerbsAuctionHouse.sol\":5255:5416  require(msg.value >= _auction.amount + ((_auction.amount * minBidIncrementPercentage) / 100), \"Must send more than last bid by minBidIncrementPercentage amount\") */\n    tag_162:\n        /* \"packages/revolution-contracts/VerbsAuctionHouse.sol\":5456:5471  _auction.bidder */\n      0x80\n      dup2\n      add\n      mload\n      sub(shl(0xa0, 0x01), 0x01)\n        /* \"packages/revolution-contracts/VerbsAuctionHouse.sol\":5535:5559  lastBidder != address(0) */\n      dup2\n      and\n      iszero\n        /* \"packages/revolution-contracts/VerbsAuctionHouse.sol\":5531:5643  if (lastBidder != address(0)) {... */\n      tag_166\n      jumpi\n        /* \"packages/revolution-contracts/VerbsAuctionHouse.sol\":5575:5632  _safeTransferETHWithFallback(lastBidder, _auction.amount) */\n      tag_166\n        /* \"packages/revolution-contracts/VerbsAuctionHouse.sol\":5604:5614  lastBidder */\n      dup2\n        /* \"packages/revolution-contracts/VerbsAuctionHouse.sol\":5616:5624  _auction */\n      dup4\n        /* \"packages/revolution-contracts/VerbsAuctionHouse.sol\":5616:5631  _auction.amount */\n      0x20\n      add\n      mload\n        /* \"packages/revolution-contracts/VerbsAuctionHouse.sol\":5575:5603  _safeTransferETHWithFallback */\n      tag_167\n        /* \"packages/revolution-contracts/VerbsAuctionHouse.sol\":5575:5632  _safeTransferETHWithFallback(lastBidder, _auction.amount) */\n      jump\t// in\n    tag_166:\n        /* \"packages/revolution-contracts/VerbsAuctionHouse.sol\":5670:5679  msg.value */\n      callvalue\n        /* \"packages/revolution-contracts/VerbsAuctionHouse.sol\":5653:5667  auction.amount */\n      0x0a\n        /* \"packages/revolution-contracts/VerbsAuctionHouse.sol\":5653:5679  auction.amount = msg.value */\n      sstore\n        /* \"packages/revolution-contracts/VerbsAuctionHouse.sol\":5689:5703  auction.bidder */\n      0x0d\n        /* \"packages/revolution-contracts/VerbsAuctionHouse.sol\":5689:5725  auction.bidder = payable(msg.sender) */\n      dup1\n      sload\n      not(sub(shl(0xa0, 0x01), 0x01))\n      and\n        /* \"packages/revolution-contracts/VerbsAuctionHouse.sol\":5714:5724  msg.sender */\n      caller\n        /* \"packages/revolution-contracts/VerbsAuctionHouse.sol\":5689:5725  auction.bidder = payable(msg.sender) */\n      or\n      swap1\n      sstore\n        /* \"packages/revolution-contracts/VerbsAuctionHouse.sol\":5887:5897  timeBuffer */\n      sload(0x03)\n        /* \"packages/revolution-contracts/VerbsAuctionHouse.sol\":5850:5866  _auction.endTime */\n      0x60\n      dup4\n      add\n      mload\n        /* \"packages/revolution-contracts/VerbsAuctionHouse.sol\":5689:5703  auction.bidder */\n      0x00\n      swap2\n        /* \"packages/revolution-contracts/VerbsAuctionHouse.sol\":5887:5897  timeBuffer */\n      swap1\n        /* \"packages/revolution-contracts/VerbsAuctionHouse.sol\":5850:5884  _auction.endTime - block.timestamp */\n      tag_168\n      swap1\n        /* \"packages/revolution-contracts/VerbsAuctionHouse.sol\":5869:5884  block.timestamp */\n      timestamp\n      swap1\n        /* \"packages/revolution-contracts/VerbsAuctionHouse.sol\":5850:5884  _auction.endTime - block.timestamp */\n      tag_169\n      jump\t// in\n    tag_168:\n        /* \"packages/revolution-contracts/VerbsAuctionHouse.sol\":5850:5897  _auction.endTime - block.timestamp < timeBuffer */\n      lt\n        /* \"packages/revolution-contracts/VerbsAuctionHouse.sol\":5834:5897  bool extended = _auction.endTime - block.timestamp < timeBuffer */\n      swap1\n      pop\n        /* \"packages/revolution-contracts/VerbsAuctionHouse.sol\":5911:5919  extended */\n      dup1\n        /* \"packages/revolution-contracts/VerbsAuctionHouse.sol\":5907:6011  if (extended) {... */\n      iszero\n      tag_170\n      jumpi\n        /* \"packages/revolution-contracts/VerbsAuctionHouse.sol\":5990:6000  timeBuffer */\n      sload(0x03)\n        /* \"packages/revolution-contracts/VerbsAuctionHouse.sol\":5972:6000  block.timestamp + timeBuffer */\n      tag_171\n      swap1\n        /* \"packages/revolution-contracts/VerbsAuctionHouse.sol\":5972:5987  block.timestamp */\n      timestamp\n        /* \"packages/revolution-contracts/VerbsAuctionHouse.sol\":5972:6000  block.timestamp + timeBuffer */\n      tag_161\n      jump\t// in\n    tag_171:\n        /* \"packages/revolution-contracts/VerbsAuctionHouse.sol\":5953:5969  _auction.endTime */\n      0x60\n      dup5\n      add\n        /* \"packages/revolution-contracts/VerbsAuctionHouse.sol\":5953:6000  _auction.endTime = block.timestamp + timeBuffer */\n      dup2\n      swap1\n      mstore\n        /* \"packages/revolution-contracts/VerbsAuctionHouse.sol\":5935:5950  auction.endTime */\n      0x0c\n        /* \"packages/revolution-contracts/VerbsAuctionHouse.sol\":5935:6000  auction.endTime = _auction.endTime = block.timestamp + timeBuffer */\n      sstore\n        /* \"packages/revolution-contracts/VerbsAuctionHouse.sol\":5907:6011  if (extended) {... */\n    tag_170:\n        /* \"packages/revolution-contracts/VerbsAuctionHouse.sol\":6037:6052  _auction.verbId */\n      dup3\n      mload\n        /* \"packages/revolution-contracts/VerbsAuctionHouse.sol\":6026:6086  AuctionBid(_auction.verbId, msg.sender, msg.value, extended) */\n      0x40\n      dup1\n      mload\n        /* \"packages/revolution-contracts/VerbsAuctionHouse.sol\":6054:6064  msg.sender */\n      caller\n        /* \"#utility.yul\":6634:6685   */\n      dup2\n      mstore\n        /* \"packages/revolution-contracts/VerbsAuctionHouse.sol\":6066:6075  msg.value */\n      callvalue\n        /* \"#utility.yul\":6716:6718   */\n      0x20\n        /* \"#utility.yul\":6701:6719   */\n      dup3\n      add\n        /* \"#utility.yul\":6694:6728   */\n      mstore\n        /* \"#utility.yul\":6771:6785   */\n      dup4\n      iszero\n        /* \"#utility.yul\":6764:6786   */\n      iszero\n        /* \"#utility.yul\":6744:6762   */\n      dup2\n      dup4\n      add\n        /* \"#utility.yul\":6737:6787   */\n      mstore\n        /* \"packages/revolution-contracts/VerbsAuctionHouse.sol\":6026:6086  AuctionBid(_auction.verbId, msg.sender, msg.value, extended) */\n      swap1\n      mload\n      0x1159164c56f277e6fc99c11731bd380e0347deb969b75523398734c252706ea3\n      swap2\n      dup2\n      swap1\n      sub\n        /* \"#utility.yul\":6622:6624   */\n      0x60\n        /* \"packages/revolution-contracts/VerbsAuctionHouse.sol\":6026:6086  AuctionBid(_auction.verbId, msg.sender, msg.value, extended) */\n      add\n      swap1\n      log2\n        /* \"packages/revolution-contracts/VerbsAuctionHouse.sol\":6101:6109  extended */\n      dup1\n        /* \"packages/revolution-contracts/VerbsAuctionHouse.sol\":6097:6191  if (extended) {... */\n      iszero\n      tag_174\n      jumpi\n        /* \"packages/revolution-contracts/VerbsAuctionHouse.sol\":6146:6161  _auction.verbId */\n      dup3\n      mload\n        /* \"packages/revolution-contracts/VerbsAuctionHouse.sol\":6163:6179  _auction.endTime */\n      0x60\n      dup5\n      add\n      mload\n        /* \"packages/revolution-contracts/VerbsAuctionHouse.sol\":6130:6180  AuctionExtended(_auction.verbId, _auction.endTime) */\n      mload(0x40)\n        /* \"#utility.yul\":388:413   */\n      swap1\n      dup2\n      mstore\n        /* \"packages/revolution-contracts/VerbsAuctionHouse.sol\":6130:6180  AuctionExtended(_auction.verbId, _auction.endTime) */\n      0x6e912a3a9105bdd2af817ba5adc14e6c127c1035b5b648faa29ca0d58ab8ff4e\n      swap1\n        /* \"#utility.yul\":376:378   */\n      0x20\n        /* \"#utility.yul\":361:379   */\n      add\n        /* \"packages/revolution-contracts/VerbsAuctionHouse.sol\":6130:6180  AuctionExtended(_auction.verbId, _auction.endTime) */\n      mload(0x40)\n      dup1\n      swap2\n      sub\n      swap1\n      log2\n        /* \"packages/revolution-contracts/VerbsAuctionHouse.sol\":6097:6191  if (extended) {... */\n    tag_174:\n        /* \"packages/revolution-contracts/VerbsAuctionHouse.sol\":4960:6197  {... */\n      pop\n      pop\n      pop\n        /* \"@openzeppelin/contracts-upgradeable/utils/ReentrancyGuardUpgradeable.sol\":3293:3313  _nonReentrantAfter() */\n      tag_176\n        /* \"@openzeppelin/contracts-upgradeable/utils/ReentrancyGuardUpgradeable.sol\":1805:1806  1 */\n      0x01\n      0x00\n      dup1\n      mload\n      0x20\n      data_c8669cf8eaf883002b9f48e28846a8d408c9b58ea6613bace374265e43c9bc43\n      dup4\n      codecopy\n      dup2\n      mload\n      swap2\n      mstore\n        /* \"@openzeppelin/contracts-upgradeable/utils/ReentrancyGuardUpgradeable.sol\":3969:3992  $._status = NOT_ENTERED */\n      sstore\n        /* \"@openzeppelin/contracts-upgradeable/utils/ReentrancyGuardUpgradeable.sol\":3716:3999  function _nonReentrantAfter() private {... */\n      jump\n        /* \"@openzeppelin/contracts-upgradeable/utils/ReentrancyGuardUpgradeable.sol\":3293:3313  _nonReentrantAfter() */\n    tag_176:\n        /* \"packages/revolution-contracts/VerbsAuctionHouse.sol\":4886:6197  function createBid(uint256 verbId) external payable override nonReentrant {... */\n      pop\n      jump\t// out\n        /* \"packages/revolution-contracts/VerbsAuctionHouse.sol\":7021:7187  function setTimeBuffer(uint256 _timeBuffer) external override onlyOwner {... */\n    tag_72:\n        /* \"@openzeppelin/contracts-upgradeable/access/OwnableUpgradeable.sol\":2334:2347  _checkOwner() */\n      tag_179\n        /* \"@openzeppelin/contracts-upgradeable/access/OwnableUpgradeable.sol\":2334:2345  _checkOwner */\n      tag_127\n        /* \"@openzeppelin/contracts-upgradeable/access/OwnableUpgradeable.sol\":2334:2347  _checkOwner() */\n      jump\t// in\n    tag_179:\n        /* \"packages/revolution-contracts/VerbsAuctionHouse.sol\":7103:7113  timeBuffer */\n      0x03\n        /* \"packages/revolution-contracts/VerbsAuctionHouse.sol\":7103:7127  timeBuffer = _timeBuffer */\n      dup2\n      swap1\n      sstore\n        /* \"packages/revolution-contracts/VerbsAuctionHouse.sol\":7143:7180  AuctionTimeBufferUpdated(_timeBuffer) */\n      mload(0x40)\n        /* \"#utility.yul\":388:413   */\n      dup2\n      dup2\n      mstore\n        /* \"packages/revolution-contracts/VerbsAuctionHouse.sol\":7143:7180  AuctionTimeBufferUpdated(_timeBuffer) */\n      0x1b55d9f7002bda4490f467e326f22a4a847629c0f2d1ed421607d318d25b410d\n      swap1\n        /* \"#utility.yul\":376:378   */\n      0x20\n        /* \"#utility.yul\":361:379   */\n      add\n        /* \"packages/revolution-contracts/VerbsAuctionHouse.sol\":7143:7180  AuctionTimeBufferUpdated(_timeBuffer) */\n      tag_129\n        /* \"#utility.yul\":242:419   */\n      jump\n        /* \"@openzeppelin/contracts-upgradeable/access/OwnableUpgradeable.sol\":3155:3256  function renounceOwnership() public virtual onlyOwner {... */\n    tag_75:\n        /* \"@openzeppelin/contracts-upgradeable/access/OwnableUpgradeable.sol\":2334:2347  _checkOwner() */\n      tag_183\n        /* \"@openzeppelin/contracts-upgradeable/access/OwnableUpgradeable.sol\":2334:2345  _checkOwner */\n      tag_127\n        /* \"@openzeppelin/contracts-upgradeable/access/OwnableUpgradeable.sol\":2334:2347  _checkOwner() */\n      jump\t// in\n    tag_183:\n        /* \"@openzeppelin/contracts-upgradeable/access/OwnableUpgradeable.sol\":3219:3249  _transferOwnership(address(0)) */\n      tag_138\n        /* \"@openzeppelin/contracts-upgradeable/access/OwnableUpgradeable.sol\":3246:3247  0 */\n      0x00\n        /* \"@openzeppelin/contracts-upgradeable/access/OwnableUpgradeable.sol\":3219:3237  _transferOwnership */\n      tag_186\n        /* \"@openzeppelin/contracts-upgradeable/access/OwnableUpgradeable.sol\":3219:3249  _transferOwnership(address(0)) */\n      jump\t// in\n        /* \"packages/revolution-contracts/VerbsAuctionHouse.sol\":6456:6526  function pause() external override onlyOwner {... */\n    tag_83:\n        /* \"@openzeppelin/contracts-upgradeable/access/OwnableUpgradeable.sol\":2334:2347  _checkOwner() */\n      tag_188\n        /* \"@openzeppelin/contracts-upgradeable/access/OwnableUpgradeable.sol\":2334:2345  _checkOwner */\n      tag_127\n        /* \"@openzeppelin/contracts-upgradeable/access/OwnableUpgradeable.sol\":2334:2347  _checkOwner() */\n      jump\t// in\n    tag_188:\n        /* \"packages/revolution-contracts/VerbsAuctionHouse.sol\":6511:6519  _pause() */\n      tag_138\n        /* \"packages/revolution-contracts/VerbsAuctionHouse.sol\":6511:6517  _pause */\n      tag_191\n        /* \"packages/revolution-contracts/VerbsAuctionHouse.sol\":6511:6519  _pause() */\n      jump\t// in\n        /* \"@openzeppelin/contracts-upgradeable/access/OwnableUpgradeable.sol\":2441:2585  function owner() public view virtual returns (address) {... */\n    tag_86:\n        /* \"@openzeppelin/contracts-upgradeable/access/OwnableUpgradeable.sol\":1313:1335  OwnableStorageLocation */\n      0x9016d09d72d40fdae2fd8ceac6b6234c7706214fd39c1cd1e609a0528c199300\n        /* \"@openzeppelin/contracts-upgradeable/access/OwnableUpgradeable.sol\":2570:2578  $._owner */\n      sload\n      sub(shl(0xa0, 0x01), 0x01)\n      and\n      swap1\n        /* \"@openzeppelin/contracts-upgradeable/access/OwnableUpgradeable.sol\":2441:2585  function owner() public view virtual returns (address) {... */\n      jump\t// out\n        /* \"packages/revolution-contracts/VerbsAuctionHouse.sol\":4648:4748  function settleAuction() external override whenPaused nonReentrant {... */\n    tag_90:\n        /* \"@openzeppelin/contracts-upgradeable/utils/PausableUpgradeable.sol\":2563:2579  _requirePaused() */\n      tag_196\n        /* \"@openzeppelin/contracts-upgradeable/utils/PausableUpgradeable.sol\":2563:2577  _requirePaused */\n      tag_197\n        /* \"@openzeppelin/contracts-upgradeable/utils/PausableUpgradeable.sol\":2563:2579  _requirePaused() */\n      jump\t// in\n    tag_196:\n        /* \"@openzeppelin/contracts-upgradeable/utils/ReentrancyGuardUpgradeable.sol\":3251:3272  _nonReentrantBefore() */\n      tag_199\n        /* \"@openzeppelin/contracts-upgradeable/utils/ReentrancyGuardUpgradeable.sol\":3251:3270  _nonReentrantBefore */\n      tag_145\n        /* \"@openzeppelin/contracts-upgradeable/utils/ReentrancyGuardUpgradeable.sol\":3251:3272  _nonReentrantBefore() */\n      jump\t// in\n    tag_199:\n        /* \"packages/revolution-contracts/VerbsAuctionHouse.sol\":4725:4741  _settleAuction() */\n      tag_201\n        /* \"packages/revolution-contracts/VerbsAuctionHouse.sol\":4725:4739  _settleAuction */\n      tag_202\n        /* \"packages/revolution-contracts/VerbsAuctionHouse.sol\":4725:4741  _settleAuction() */\n      jump\t// in\n    tag_201:\n        /* \"@openzeppelin/contracts-upgradeable/utils/ReentrancyGuardUpgradeable.sol\":3293:3313  _nonReentrantAfter() */\n      tag_138\n        /* \"@openzeppelin/contracts-upgradeable/utils/ReentrancyGuardUpgradeable.sol\":1805:1806  1 */\n      0x01\n      0x00\n      dup1\n      mload\n      0x20\n      data_c8669cf8eaf883002b9f48e28846a8d408c9b58ea6613bace374265e43c9bc43\n      dup4\n      codecopy\n      dup2\n      mload\n      swap2\n      mstore\n        /* \"@openzeppelin/contracts-upgradeable/utils/ReentrancyGuardUpgradeable.sol\":3969:3992  $._status = NOT_ENTERED */\n      sstore\n        /* \"@openzeppelin/contracts-upgradeable/utils/ReentrancyGuardUpgradeable.sol\":3716:3999  function _nonReentrantAfter() private {... */\n      jump\n        /* \"packages/revolution-contracts/VerbsAuctionHouse.sol\":3440:4252  function initialize(... */\n    tag_95:\n        /* \"@openzeppelin/contracts-upgradeable/proxy/utils/Initializable.sol\":8870:8891  INITIALIZABLE_STORAGE */\n      0xf0c57e16840df040f15088dc2f81fe391c3923bec73e23a9662efc9c229c6a00\n        /* \"@openzeppelin/contracts-upgradeable/proxy/utils/Initializable.sol\":4302:4317  $._initializing */\n      dup1\n      sload\n      shl(0x40, 0x01)\n      dup2\n      div\n      0xff\n      and\n        /* \"@openzeppelin/contracts-upgradeable/proxy/utils/Initializable.sol\":4301:4317  !$._initializing */\n      iszero\n      swap1\n        /* \"@openzeppelin/contracts-upgradeable/proxy/utils/Initializable.sol\":4348:4362  $._initialized */\n      0xffffffffffffffff\n      and\n        /* \"@openzeppelin/contracts-upgradeable/proxy/utils/Initializable.sol\":4158:4188  InitializableStorage storage $ */\n      0x00\n        /* \"@openzeppelin/contracts-upgradeable/proxy/utils/Initializable.sol\":4726:4742  initialized == 0 */\n      dup2\n      iszero\n        /* \"@openzeppelin/contracts-upgradeable/proxy/utils/Initializable.sol\":4726:4760  initialized == 0 && isTopLevelCall */\n      dup1\n      iszero\n      tag_207\n      jumpi\n      pop\n        /* \"@openzeppelin/contracts-upgradeable/proxy/utils/Initializable.sol\":4746:4760  isTopLevelCall */\n      dup3\n        /* \"@openzeppelin/contracts-upgradeable/proxy/utils/Initializable.sol\":4726:4760  initialized == 0 && isTopLevelCall */\n    tag_207:\n        /* \"@openzeppelin/contracts-upgradeable/proxy/utils/Initializable.sol\":4706:4760  bool initialSetup = initialized == 0 && isTopLevelCall */\n      swap1\n      pop\n        /* \"@openzeppelin/contracts-upgradeable/proxy/utils/Initializable.sol\":4770:4787  bool construction */\n      0x00\n        /* \"@openzeppelin/contracts-upgradeable/proxy/utils/Initializable.sol\":4790:4801  initialized */\n      dup3\n        /* \"@openzeppelin/contracts-upgradeable/proxy/utils/Initializable.sol\":4790:4806  initialized == 1 */\n      0xffffffffffffffff\n      and\n        /* \"@openzeppelin/contracts-upgradeable/proxy/utils/Initializable.sol\":4805:4806  1 */\n      0x01\n        /* \"@openzeppelin/contracts-upgradeable/proxy/utils/Initializable.sol\":4790:4806  initialized == 1 */\n      eq\n        /* \"@openzeppelin/contracts-upgradeable/proxy/utils/Initializable.sol\":4790:4840  initialized == 1 && address(this).code.length == 0 */\n      dup1\n      iszero\n      tag_208\n      jumpi\n      pop\n        /* \"@openzeppelin/contracts-upgradeable/proxy/utils/Initializable.sol\":4818:4822  this */\n      address\n        /* \"@openzeppelin/contracts-upgradeable/proxy/utils/Initializable.sol\":4810:4835  address(this).code.length */\n      extcodesize\n        /* \"@openzeppelin/contracts-upgradeable/proxy/utils/Initializable.sol\":4810:4840  address(this).code.length == 0 */\n      iszero\n        /* \"@openzeppelin/contracts-upgradeable/proxy/utils/Initializable.sol\":4790:4840  initialized == 1 && address(this).code.length == 0 */\n    tag_208:\n        /* \"@openzeppelin/contracts-upgradeable/proxy/utils/Initializable.sol\":4770:4840  bool construction = initialized == 1 && address(this).code.length == 0 */\n      swap1\n      pop\n        /* \"@openzeppelin/contracts-upgradeable/proxy/utils/Initializable.sol\":4856:4868  initialSetup */\n      dup2\n        /* \"@openzeppelin/contracts-upgradeable/proxy/utils/Initializable.sol\":4855:4868  !initialSetup */\n      iszero\n        /* \"@openzeppelin/contracts-upgradeable/proxy/utils/Initializable.sol\":4855:4885  !initialSetup && !construction */\n      dup1\n      iszero\n      tag_209\n      jumpi\n      pop\n        /* \"@openzeppelin/contracts-upgradeable/proxy/utils/Initializable.sol\":4873:4885  construction */\n      dup1\n        /* \"@openzeppelin/contracts-upgradeable/proxy/utils/Initializable.sol\":4872:4885  !construction */\n      iszero\n        /* \"@openzeppelin/contracts-upgradeable/proxy/utils/Initializable.sol\":4855:4885  !initialSetup && !construction */\n    tag_209:\n        /* \"@openzeppelin/contracts-upgradeable/proxy/utils/Initializable.sol\":4851:4942  if (!initialSetup && !construction) {... */\n      iszero\n      tag_210\n      jumpi\n        /* \"@openzeppelin/contracts-upgradeable/proxy/utils/Initializable.sol\":4908:4931  InvalidInitialization() */\n      mload(0x40)\n      shl(0xe0, 0xf92ee8a9)\n      dup2\n      mstore\n      0x04\n      add\n      mload(0x40)\n      dup1\n      swap2\n      sub\n      swap1\n      revert\n        /* \"@openzeppelin/contracts-upgradeable/proxy/utils/Initializable.sol\":4851:4942  if (!initialSetup && !construction) {... */\n    tag_210:\n        /* \"@openzeppelin/contracts-upgradeable/proxy/utils/Initializable.sol\":4951:4969  $._initialized = 1 */\n      dup5\n      sload\n      not(0xffffffffffffffff)\n      and\n        /* \"@openzeppelin/contracts-upgradeable/proxy/utils/Initializable.sol\":4968:4969  1 */\n      0x01\n        /* \"@openzeppelin/contracts-upgradeable/proxy/utils/Initializable.sol\":4951:4969  $._initialized = 1 */\n      or\n      dup6\n      sstore\n        /* \"@openzeppelin/contracts-upgradeable/proxy/utils/Initializable.sol\":4979:5046  if (isTopLevelCall) {... */\n      dup4\n      iszero\n      tag_211\n      jumpi\n        /* \"@openzeppelin/contracts-upgradeable/proxy/utils/Initializable.sol\":5013:5035  $._initializing = true */\n      dup5\n      sload\n      not(shl(0x40, 0xff))\n      and\n      shl(0x40, 0x01)\n      or\n      dup6\n      sstore\n        /* \"@openzeppelin/contracts-upgradeable/proxy/utils/Initializable.sol\":4979:5046  if (isTopLevelCall) {... */\n    tag_211:\n        /* \"packages/revolution-contracts/VerbsAuctionHouse.sol\":3806:3823  __Pausable_init() */\n      tag_213\n        /* \"packages/revolution-contracts/VerbsAuctionHouse.sol\":3806:3821  __Pausable_init */\n      tag_214\n        /* \"packages/revolution-contracts/VerbsAuctionHouse.sol\":3806:3823  __Pausable_init() */\n      jump\t// in\n    tag_213:\n        /* \"packages/revolution-contracts/VerbsAuctionHouse.sol\":3833:3857  __ReentrancyGuard_init() */\n      tag_215\n        /* \"packages/revolution-contracts/VerbsAuctionHouse.sol\":3833:3855  __ReentrancyGuard_init */\n      tag_216\n        /* \"packages/revolution-contracts/VerbsAuctionHouse.sol\":3833:3857  __ReentrancyGuard_init() */\n      jump\t// in\n    tag_215:\n        /* \"packages/revolution-contracts/VerbsAuctionHouse.sol\":3867:3891  __Ownable_init(_founder) */\n      tag_217\n        /* \"packages/revolution-contracts/VerbsAuctionHouse.sol\":3882:3890  _founder */\n      dup13\n        /* \"packages/revolution-contracts/VerbsAuctionHouse.sol\":3867:3881  __Ownable_init */\n      tag_218\n        /* \"packages/revolution-contracts/VerbsAuctionHouse.sol\":3867:3891  __Ownable_init(_founder) */\n      jump\t// in\n    tag_217:\n        /* \"packages/revolution-contracts/VerbsAuctionHouse.sol\":3902:3910  _pause() */\n      tag_219\n        /* \"packages/revolution-contracts/VerbsAuctionHouse.sol\":3902:3908  _pause */\n      tag_191\n        /* \"packages/revolution-contracts/VerbsAuctionHouse.sol\":3902:3910  _pause() */\n      jump\t// in\n    tag_219:\n        /* \"packages/revolution-contracts/VerbsAuctionHouse.sol\":3929:3935  _verbs */\n      dup15\n        /* \"packages/revolution-contracts/VerbsAuctionHouse.sol\":3921:3926  verbs */\n      0x00\n      dup1\n        /* \"packages/revolution-contracts/VerbsAuctionHouse.sol\":3921:3935  verbs = _verbs */\n      0x0100\n      exp\n      dup2\n      sload\n      dup2\n      sub(shl(0xa0, 0x01), 0x01)\n      mul\n      not\n      and\n      swap1\n      dup4\n      sub(shl(0xa0, 0x01), 0x01)\n      and\n      mul\n      or\n      swap1\n      sstore\n      pop\n        /* \"packages/revolution-contracts/VerbsAuctionHouse.sol\":3960:3973  _tokenEmitter */\n      dup14\n        /* \"packages/revolution-contracts/VerbsAuctionHouse.sol\":3945:3957  tokenEmitter */\n      0x01\n      0x00\n        /* \"packages/revolution-contracts/VerbsAuctionHouse.sol\":3945:3973  tokenEmitter = _tokenEmitter */\n      0x0100\n      exp\n      dup2\n      sload\n      dup2\n      sub(shl(0xa0, 0x01), 0x01)\n      mul\n      not\n      and\n      swap1\n      dup4\n      sub(shl(0xa0, 0x01), 0x01)\n      and\n      mul\n      or\n      swap1\n      sstore\n      pop\n        /* \"packages/revolution-contracts/VerbsAuctionHouse.sol\":3990:3995  _weth */\n      dup13\n        /* \"packages/revolution-contracts/VerbsAuctionHouse.sol\":3983:3987  weth */\n      0x02\n      0x00\n        /* \"packages/revolution-contracts/VerbsAuctionHouse.sol\":3983:3995  weth = _weth */\n      0x0100\n      exp\n      dup2\n      sload\n      dup2\n      sub(shl(0xa0, 0x01), 0x01)\n      mul\n      not\n      and\n      swap1\n      dup4\n      sub(shl(0xa0, 0x01), 0x01)\n      and\n      mul\n      or\n      swap1\n      sstore\n      pop\n        /* \"packages/revolution-contracts/VerbsAuctionHouse.sol\":4018:4029  _timeBuffer */\n      dup11\n        /* \"packages/revolution-contracts/VerbsAuctionHouse.sol\":4005:4015  timeBuffer */\n      0x03\n        /* \"packages/revolution-contracts/VerbsAuctionHouse.sol\":4005:4029  timeBuffer = _timeBuffer */\n      dup2\n      swap1\n      sstore\n      pop\n        /* \"packages/revolution-contracts/VerbsAuctionHouse.sol\":4054:4067  _reservePrice */\n      dup10\n        /* \"packages/revolution-contracts/VerbsAuctionHouse.sol\":4039:4051  reservePrice */\n      0x04\n        /* \"packages/revolution-contracts/VerbsAuctionHouse.sol\":4039:4067  reservePrice = _reservePrice */\n      dup2\n      swap1\n      sstore\n      pop\n        /* \"packages/revolution-contracts/VerbsAuctionHouse.sol\":4105:4131  _minBidIncrementPercentage */\n      dup9\n        /* \"packages/revolution-contracts/VerbsAuctionHouse.sol\":4077:4102  minBidIncrementPercentage */\n      0x05\n      0x00\n        /* \"packages/revolution-contracts/VerbsAuctionHouse.sol\":4077:4131  minBidIncrementPercentage = _minBidIncrementPercentage */\n      0x0100\n      exp\n      dup2\n      sload\n      dup2\n      0xff\n      mul\n      not\n      and\n      swap1\n      dup4\n      0xff\n      and\n      mul\n      or\n      swap1\n      sstore\n      pop\n        /* \"packages/revolution-contracts/VerbsAuctionHouse.sol\":4152:4161  _duration */\n      dup8\n        /* \"packages/revolution-contracts/VerbsAuctionHouse.sol\":4141:4149  duration */\n      0x08\n        /* \"packages/revolution-contracts/VerbsAuctionHouse.sol\":4141:4161  duration = _duration */\n      dup2\n      swap1\n      sstore\n      pop\n        /* \"packages/revolution-contracts/VerbsAuctionHouse.sol\":4188:4203  _creatorRateBps */\n      dup7\n        /* \"packages/revolution-contracts/VerbsAuctionHouse.sol\":4171:4185  creatorRateBps */\n      0x06\n        /* \"packages/revolution-contracts/VerbsAuctionHouse.sol\":4171:4203  creatorRateBps = _creatorRateBps */\n      dup2\n      swap1\n      sstore\n      pop\n        /* \"packages/revolution-contracts/VerbsAuctionHouse.sol\":4230:4245  _entropyRateBps */\n      dup6\n        /* \"packages/revolution-contracts/VerbsAuctionHouse.sol\":4213:4227  entropyRateBps */\n      0x07\n        /* \"packages/revolution-contracts/VerbsAuctionHouse.sol\":4213:4245  entropyRateBps = _entropyRateBps */\n      dup2\n      swap1\n      sstore\n      pop\n        /* \"@openzeppelin/contracts-upgradeable/proxy/utils/Initializable.sol\":5070:5084  isTopLevelCall */\n      dup4\n        /* \"@openzeppelin/contracts-upgradeable/proxy/utils/Initializable.sol\":5066:5167  if (isTopLevelCall) {... */\n      iszero\n      tag_220\n      jumpi\n        /* \"@openzeppelin/contracts-upgradeable/proxy/utils/Initializable.sol\":5100:5123  $._initializing = false */\n      dup5\n      sload\n      not(shl(0x40, 0xff))\n      and\n      dup6\n      sstore\n        /* \"@openzeppelin/contracts-upgradeable/proxy/utils/Initializable.sol\":5142:5156  Initialized(1) */\n      mload(0x40)\n      0x01\n        /* \"#utility.yul\":6951:7001   */\n      dup2\n      mstore\n        /* \"@openzeppelin/contracts-upgradeable/proxy/utils/Initializable.sol\":5142:5156  Initialized(1) */\n      0xc7f505b2f371ae2175ee4913f4499e1f2633a7b5936321eed1cdaeb6115181d2\n      swap1\n        /* \"#utility.yul\":6939:6941   */\n      0x20\n        /* \"#utility.yul\":6924:6942   */\n      add\n        /* \"@openzeppelin/contracts-upgradeable/proxy/utils/Initializable.sol\":5142:5156  Initialized(1) */\n      mload(0x40)\n      dup1\n      swap2\n      sub\n      swap1\n      log1\n        /* \"@openzeppelin/contracts-upgradeable/proxy/utils/Initializable.sol\":5066:5167  if (isTopLevelCall) {... */\n    tag_220:\n        /* \"@openzeppelin/contracts-upgradeable/proxy/utils/Initializable.sol\":4092:5173  {... */\n      pop\n      pop\n      pop\n      pop\n      pop\n        /* \"packages/revolution-contracts/VerbsAuctionHouse.sol\":3440:4252  function initialize(... */\n      pop\n      pop\n      pop\n      pop\n      pop\n      pop\n      pop\n      pop\n      pop\n      pop\n      jump\t// out\n        /* \"packages/revolution-contracts/VerbsAuctionHouse.sol\":7295:7473  function setReservePrice(uint256 _reservePrice) external override onlyOwner {... */\n    tag_104:\n        /* \"@openzeppelin/contracts-upgradeable/access/OwnableUpgradeable.sol\":2334:2347  _checkOwner() */\n      tag_224\n        /* \"@openzeppelin/contracts-upgradeable/access/OwnableUpgradeable.sol\":2334:2345  _checkOwner */\n      tag_127\n        /* \"@openzeppelin/contracts-upgradeable/access/OwnableUpgradeable.sol\":2334:2347  _checkOwner() */\n      jump\t// in\n    tag_224:\n        /* \"packages/revolution-contracts/VerbsAuctionHouse.sol\":7381:7393  reservePrice */\n      0x04\n        /* \"packages/revolution-contracts/VerbsAuctionHouse.sol\":7381:7409  reservePrice = _reservePrice */\n      dup2\n      swap1\n      sstore\n        /* \"packages/revolution-contracts/VerbsAuctionHouse.sol\":7425:7466  AuctionReservePriceUpdated(_reservePrice) */\n      mload(0x40)\n        /* \"#utility.yul\":388:413   */\n      dup2\n      dup2\n      mstore\n        /* \"packages/revolution-contracts/VerbsAuctionHouse.sol\":7425:7466  AuctionReservePriceUpdated(_reservePrice) */\n      0x6ab2e127d7fdf53b8f304e59d3aab5bfe97979f52a85479691a6fab27a28a6b2\n      swap1\n        /* \"#utility.yul\":376:378   */\n      0x20\n        /* \"#utility.yul\":361:379   */\n      add\n        /* \"packages/revolution-contracts/VerbsAuctionHouse.sol\":7425:7466  AuctionReservePriceUpdated(_reservePrice) */\n      tag_129\n        /* \"#utility.yul\":242:419   */\n      jump\n        /* \"packages/revolution-contracts/VerbsAuctionHouse.sol\":4361:4509  function settleCurrentAndCreateNewAuction() external override nonReentrant whenNotPaused {... */\n    tag_115:\n        /* \"@openzeppelin/contracts-upgradeable/utils/ReentrancyGuardUpgradeable.sol\":3251:3272  _nonReentrantBefore() */\n      tag_228\n        /* \"@openzeppelin/contracts-upgradeable/utils/ReentrancyGuardUpgradeable.sol\":3251:3270  _nonReentrantBefore */\n      tag_145\n        /* \"@openzeppelin/contracts-upgradeable/utils/ReentrancyGuardUpgradeable.sol\":3251:3272  _nonReentrantBefore() */\n      jump\t// in\n    tag_228:\n        /* \"@openzeppelin/contracts-upgradeable/utils/PausableUpgradeable.sol\":2316:2335  _requireNotPaused() */\n      tag_230\n        /* \"@openzeppelin/contracts-upgradeable/utils/PausableUpgradeable.sol\":2316:2333  _requireNotPaused */\n      tag_231\n        /* \"@openzeppelin/contracts-upgradeable/utils/PausableUpgradeable.sol\":2316:2335  _requireNotPaused() */\n      jump\t// in\n    tag_230:\n        /* \"packages/revolution-contracts/VerbsAuctionHouse.sol\":4460:4476  _settleAuction() */\n      tag_233\n        /* \"packages/revolution-contracts/VerbsAuctionHouse.sol\":4460:4474  _settleAuction */\n      tag_202\n        /* \"packages/revolution-contracts/VerbsAuctionHouse.sol\":4460:4476  _settleAuction() */\n      jump\t// in\n    tag_233:\n        /* \"packages/revolution-contracts/VerbsAuctionHouse.sol\":4486:4502  _createAuction() */\n      tag_201\n        /* \"packages/revolution-contracts/VerbsAuctionHouse.sol\":4486:4500  _createAuction */\n      tag_139\n        /* \"packages/revolution-contracts/VerbsAuctionHouse.sol\":4486:4502  _createAuction() */\n      jump\t// in\n        /* \"@openzeppelin/contracts-upgradeable/access/OwnableUpgradeable.sol\":3405:3620  function transferOwnership(address newOwner) public virtual onlyOwner {... */\n    tag_120:\n        /* \"@openzeppelin/contracts-upgradeable/access/OwnableUpgradeable.sol\":2334:2347  _checkOwner() */\n      tag_237\n        /* \"@openzeppelin/contracts-upgradeable/access/OwnableUpgradeable.sol\":2334:2345  _checkOwner */\n      tag_127\n        /* \"@openzeppelin/contracts-upgradeable/access/OwnableUpgradeable.sol\":2334:2347  _checkOwner() */\n      jump\t// in\n    tag_237:\n      sub(shl(0xa0, 0x01), 0x01)\n        /* \"@openzeppelin/contracts-upgradeable/access/OwnableUpgradeable.sol\":3489:3511  newOwner == address(0) */\n      dup2\n      and\n        /* \"@openzeppelin/contracts-upgradeable/access/OwnableUpgradeable.sol\":3485:3576  if (newOwner == address(0)) {... */\n      tag_239\n      jumpi\n        /* \"@openzeppelin/contracts-upgradeable/access/OwnableUpgradeable.sol\":3534:3565  OwnableInvalidOwner(address(0)) */\n      mload(0x40)\n      shl(0xe0, 0x1e4fbdf7)\n      dup2\n      mstore\n        /* \"@openzeppelin/contracts-upgradeable/access/OwnableUpgradeable.sol\":3562:3563  0 */\n      0x00\n        /* \"@openzeppelin/contracts-upgradeable/access/OwnableUpgradeable.sol\":3534:3565  OwnableInvalidOwner(address(0)) */\n      0x04\n      dup3\n      add\n        /* \"#utility.yul\":180:231   */\n      mstore\n        /* \"#utility.yul\":153:171   */\n      0x24\n      add\n        /* \"@openzeppelin/contracts-upgradeable/access/OwnableUpgradeable.sol\":3534:3565  OwnableInvalidOwner(address(0)) */\n      tag_148\n        /* \"#utility.yul\":14:237   */\n      jump\n        /* \"@openzeppelin/contracts-upgradeable/access/OwnableUpgradeable.sol\":3485:3576  if (newOwner == address(0)) {... */\n    tag_239:\n        /* \"@openzeppelin/contracts-upgradeable/access/OwnableUpgradeable.sol\":3585:3613  _transferOwnership(newOwner) */\n      tag_176\n        /* \"@openzeppelin/contracts-upgradeable/access/OwnableUpgradeable.sol\":3604:3612  newOwner */\n      dup2\n        /* \"@openzeppelin/contracts-upgradeable/access/OwnableUpgradeable.sol\":3585:3603  _transferOwnership */\n      tag_186\n        /* \"@openzeppelin/contracts-upgradeable/access/OwnableUpgradeable.sol\":3585:3613  _transferOwnership(newOwner) */\n      jump\t// in\n        /* \"@openzeppelin/contracts-upgradeable/access/OwnableUpgradeable.sol\":2658:2820  function _checkOwner() internal view virtual {... */\n    tag_127:\n        /* \"@openzeppelin/contracts-upgradeable/utils/ContextUpgradeable.sol\":966:976  msg.sender */\n      caller\n        /* \"@openzeppelin/contracts-upgradeable/access/OwnableUpgradeable.sol\":2717:2724  owner() */\n      tag_245\n        /* \"@openzeppelin/contracts-upgradeable/access/OwnableUpgradeable.sol\":2717:2722  owner */\n      tag_86\n        /* \"@openzeppelin/contracts-upgradeable/access/OwnableUpgradeable.sol\":2717:2724  owner() */\n      jump\t// in\n    tag_245:\n      sub(shl(0xa0, 0x01), 0x01)\n        /* \"@openzeppelin/contracts-upgradeable/access/OwnableUpgradeable.sol\":2717:2740  owner() != _msgSender() */\n      and\n      eq\n        /* \"@openzeppelin/contracts-upgradeable/access/OwnableUpgradeable.sol\":2713:2814  if (owner() != _msgSender()) {... */\n      tag_138\n      jumpi\n        /* \"@openzeppelin/contracts-upgradeable/access/OwnableUpgradeable.sol\":2763:2803  OwnableUnauthorizedAccount(_msgSender()) */\n      mload(0x40)\n      shl(0xe0, 0x118cdaa7)\n      dup2\n      mstore\n        /* \"@openzeppelin/contracts-upgradeable/utils/ContextUpgradeable.sol\":966:976  msg.sender */\n      caller\n        /* \"@openzeppelin/contracts-upgradeable/access/OwnableUpgradeable.sol\":2763:2803  OwnableUnauthorizedAccount(_msgSender()) */\n      0x04\n      dup3\n      add\n        /* \"#utility.yul\":180:231   */\n      mstore\n        /* \"#utility.yul\":153:171   */\n      0x24\n      add\n        /* \"@openzeppelin/contracts-upgradeable/access/OwnableUpgradeable.sol\":2763:2803  OwnableUnauthorizedAccount(_msgSender()) */\n      tag_148\n        /* \"#utility.yul\":14:237   */\n      jump\n        /* \"@openzeppelin/contracts-upgradeable/utils/PausableUpgradeable.sol\":3674:3852  function _unpause() internal virtual whenPaused {... */\n    tag_135:\n        /* \"@openzeppelin/contracts-upgradeable/utils/PausableUpgradeable.sol\":2563:2579  _requirePaused() */\n      tag_250\n        /* \"@openzeppelin/contracts-upgradeable/utils/PausableUpgradeable.sol\":2563:2577  _requirePaused */\n      tag_197\n        /* \"@openzeppelin/contracts-upgradeable/utils/PausableUpgradeable.sol\":2563:2579  _requirePaused() */\n      jump\t// in\n    tag_250:\n      0x00\n      dup1\n      mload\n      0x20\n      data_c0c65a3718f3702d917c44106b91645b509d2e2d0979b70495c3babce192339f\n      dup4\n      codecopy\n      dup2\n      mload\n      swap2\n      mstore\n        /* \"@openzeppelin/contracts-upgradeable/utils/PausableUpgradeable.sol\":3791:3808  $._paused = false */\n      dup1\n      sload\n      not(0xff)\n      and\n      dup2\n      sstore\n        /* \"@openzeppelin/contracts-upgradeable/utils/PausableUpgradeable.sol\":3823:3845  Unpaused(_msgSender()) */\n      0x5db9ee0a495bf2e6ff9c91a7834c1ba4fdd244a5e8aa4e537bd38aeae4b073aa\n        /* \"@openzeppelin/contracts-upgradeable/utils/ContextUpgradeable.sol\":966:976  msg.sender */\n      caller\n        /* \"@openzeppelin/contracts-upgradeable/utils/PausableUpgradeable.sol\":3832:3844  _msgSender() */\n    tag_253:\n        /* \"@openzeppelin/contracts-upgradeable/utils/PausableUpgradeable.sol\":3823:3845  Unpaused(_msgSender()) */\n      mload(0x40)\n      sub(shl(0xa0, 0x01), 0x01)\n        /* \"#utility.yul\":198:230   */\n      swap1\n      swap2\n      and\n        /* \"#utility.yul\":180:231   */\n      dup2\n      mstore\n        /* \"#utility.yul\":168:170   */\n      0x20\n        /* \"#utility.yul\":153:171   */\n      add\n        /* \"@openzeppelin/contracts-upgradeable/utils/PausableUpgradeable.sol\":3823:3845  Unpaused(_msgSender()) */\n      tag_129\n        /* \"#utility.yul\":14:237   */\n      jump\n        /* \"packages/revolution-contracts/VerbsAuctionHouse.sol\":8167:8634  function _createAuction() internal {... */\n    tag_139:\n        /* \"packages/revolution-contracts/VerbsAuctionHouse.sol\":8216:8221  verbs */\n      0x00\n      dup1\n      sload\n      swap1\n      0x0100\n      exp\n      swap1\n      div\n      sub(shl(0xa0, 0x01), 0x01)\n      and\n      sub(shl(0xa0, 0x01), 0x01)\n        /* \"packages/revolution-contracts/VerbsAuctionHouse.sol\":8216:8226  verbs.mint */\n      and\n      0x1249c58b\n        /* \"packages/revolution-contracts/VerbsAuctionHouse.sol\":8216:8228  verbs.mint() */\n      mload(0x40)\n      dup2\n      0xffffffff\n      and\n      0xe0\n      shl\n      dup2\n      mstore\n      0x04\n      add\n      0x20\n      mload(0x40)\n      dup1\n      dup4\n      sub\n      dup2\n      0x00\n      dup8\n      gas\n      call\n      swap3\n      pop\n      pop\n      pop\n      dup1\n      iszero\n      tag_256\n      jumpi\n      pop\n      0x40\n      dup1\n      mload\n      0x1f\n      returndatasize\n      swap1\n      dup2\n      add\n      not(0x1f)\n      and\n      dup3\n      add\n      swap1\n      swap3\n      mstore\n      tag_257\n      swap2\n      dup2\n      add\n      swap1\n      tag_258\n      jump\t// in\n    tag_257:\n      0x01\n    tag_256:\n        /* \"packages/revolution-contracts/VerbsAuctionHouse.sol\":8212:8628  try verbs.mint() returns (uint256 verbId) {... */\n      tag_259\n      jumpi\n      tag_263\n      tag_264\n      jump\t// in\n    tag_263:\n      dup1\n      0x08c379a0\n      sub\n      tag_262\n      jumpi\n      pop\n      tag_265\n      tag_266\n      jump\t// in\n    tag_265:\n      dup1\n      tag_267\n      jumpi\n      pop\n      jump(tag_261)\n    tag_267:\n        /* \"packages/revolution-contracts/VerbsAuctionHouse.sol\":8609:8617  _pause() */\n      tag_176\n        /* \"packages/revolution-contracts/VerbsAuctionHouse.sol\":8609:8615  _pause */\n      tag_191\n        /* \"packages/revolution-contracts/VerbsAuctionHouse.sol\":8609:8617  _pause() */\n      jump\t// in\n        /* \"packages/revolution-contracts/VerbsAuctionHouse.sol\":8212:8628  try verbs.mint() returns (uint256 verbId) {... */\n    tag_262:\n      pop\n    tag_261:\n      returndatasize\n      0x00\n      dup1\n      returndatacopy\n      revert(0x00, returndatasize)\n    tag_259:\n        /* \"packages/revolution-contracts/VerbsAuctionHouse.sol\":8347:8355  duration */\n      sload(0x08)\n        /* \"packages/revolution-contracts/VerbsAuctionHouse.sol\":8288:8303  block.timestamp */\n      timestamp\n      swap1\n        /* \"packages/revolution-contracts/VerbsAuctionHouse.sol\":8268:8285  uint256 startTime */\n      0x00\n      swap1\n        /* \"packages/revolution-contracts/VerbsAuctionHouse.sol\":8335:8355  startTime + duration */\n      tag_270\n      swap1\n        /* \"packages/revolution-contracts/VerbsAuctionHouse.sol\":8288:8303  block.timestamp */\n      dup4\n        /* \"packages/revolution-contracts/VerbsAuctionHouse.sol\":8335:8355  startTime + duration */\n      tag_161\n      jump\t// in\n    tag_270:\n        /* \"packages/revolution-contracts/VerbsAuctionHouse.sol\":8380:8494  Auction({ verbId: verbId, amount: 0, startTime: startTime, endTime: endTime, bidder: payable(0), settled: false }) */\n      0x40\n      dup1\n      mload\n      0xc0\n      dup2\n      add\n      dup3\n      mstore\n      dup6\n      dup2\n      mstore\n      0x00\n      0x20\n      dup1\n      dup4\n      add\n      dup3\n      swap1\n      mstore\n      dup3\n      dup5\n      add\n      dup8\n      swap1\n      mstore\n      0x60\n      dup4\n      add\n      dup6\n      swap1\n      mstore\n      0x80\n      dup4\n      add\n      dup3\n      swap1\n      mstore\n      0xa0\n      swap1\n      swap3\n      add\n      dup2\n      swap1\n      mstore\n        /* \"packages/revolution-contracts/VerbsAuctionHouse.sol\":8370:8377  auction */\n      0x09\n        /* \"packages/revolution-contracts/VerbsAuctionHouse.sol\":8370:8494  auction = Auction({ verbId: verbId, amount: 0, startTime: startTime, endTime: endTime, bidder: payable(0), settled: false }) */\n      dup8\n      swap1\n      sstore\n      0x0a\n      sstore\n      0x0b\n      dup6\n      swap1\n      sstore\n      0x0c\n      dup4\n      swap1\n      sstore\n      0x0d\n      dup1\n      sload\n      not(sub(shl(0xa8, 0x01), 0x01))\n      and\n      swap1\n      sstore\n        /* \"packages/revolution-contracts/VerbsAuctionHouse.sol\":8514:8556  AuctionCreated(verbId, startTime, endTime) */\n      dup2\n      mload\n        /* \"#utility.yul\":9079:9104   */\n      dup6\n      dup2\n      mstore\n        /* \"#utility.yul\":9120:9138   */\n      swap1\n      dup2\n      add\n        /* \"#utility.yul\":9113:9147   */\n      dup4\n      swap1\n      mstore\n        /* \"packages/revolution-contracts/VerbsAuctionHouse.sol\":8380:8494  Auction({ verbId: verbId, amount: 0, startTime: startTime, endTime: endTime, bidder: payable(0), settled: false }) */\n      swap2\n      swap3\n      pop\n      dup5\n      swap2\n        /* \"packages/revolution-contracts/VerbsAuctionHouse.sol\":8514:8556  AuctionCreated(verbId, startTime, endTime) */\n      0xd6eddd1118d71820909c1197aa966dbc15ed6f508554252169cc3d5ccac756ca\n      swap2\n        /* \"#utility.yul\":9052:9070   */\n      add\n        /* \"packages/revolution-contracts/VerbsAuctionHouse.sol\":8514:8556  AuctionCreated(verbId, startTime, endTime) */\n      mload(0x40)\n      dup1\n      swap2\n      sub\n      swap1\n      log2\n        /* \"packages/revolution-contracts/VerbsAuctionHouse.sol\":8254:8567  {... */\n      pop\n      pop\n        /* \"packages/revolution-contracts/VerbsAuctionHouse.sol\":8229:8567  returns (uint256 verbId) {... */\n      pop\n        /* \"packages/revolution-contracts/VerbsAuctionHouse.sol\":8167:8634  function _createAuction() internal {... */\n      jump\t// out\n        /* \"@openzeppelin/contracts-upgradeable/utils/ReentrancyGuardUpgradeable.sol\":3326:3710  function _nonReentrantBefore() private {... */\n    tag_145:\n      0x00\n      dup1\n      mload\n      0x20\n      data_c8669cf8eaf883002b9f48e28846a8d408c9b58ea6613bace374265e43c9bc43\n      dup4\n      codecopy\n      dup2\n      mload\n      swap2\n      mstore\n        /* \"@openzeppelin/contracts-upgradeable/utils/ReentrancyGuardUpgradeable.sol\":3526:3535  $._status */\n      dup1\n      sload\n      not(0x01)\n        /* \"@openzeppelin/contracts-upgradeable/utils/ReentrancyGuardUpgradeable.sol\":3526:3546  $._status == ENTERED */\n      add\n        /* \"@openzeppelin/contracts-upgradeable/utils/ReentrancyGuardUpgradeable.sol\":3522:3610  if ($._status == ENTERED) {... */\n      tag_277\n      jumpi\n        /* \"@openzeppelin/contracts-upgradeable/utils/ReentrancyGuardUpgradeable.sol\":3569:3599  ReentrancyGuardReentrantCall() */\n      mload(0x40)\n      shl(0xe0, 0x3ee5aeb5)\n      dup2\n      mstore\n      0x04\n      add\n      mload(0x40)\n      dup1\n      swap2\n      sub\n      swap1\n      revert\n        /* \"@openzeppelin/contracts-upgradeable/utils/ReentrancyGuardUpgradeable.sol\":3522:3610  if ($._status == ENTERED) {... */\n    tag_277:\n        /* \"@openzeppelin/contracts-upgradeable/utils/ReentrancyGuardUpgradeable.sol\":1847:1848  2 */\n      0x02\n        /* \"@openzeppelin/contracts-upgradeable/utils/ReentrancyGuardUpgradeable.sol\":3684:3703  $._status = ENTERED */\n      swap1\n      sstore\n        /* \"@openzeppelin/contracts-upgradeable/utils/ReentrancyGuardUpgradeable.sol\":3326:3710  function _nonReentrantBefore() private {... */\n      jump\t// out\n        /* \"packages/revolution-contracts/VerbsAuctionHouse.sol\":11560:11796  function _safeTransferETHWithFallback(address to, uint256 amount) internal {... */\n    tag_167:\n        /* \"packages/revolution-contracts/VerbsAuctionHouse.sol\":11650:11678  _safeTransferETH(to, amount) */\n      tag_279\n        /* \"packages/revolution-contracts/VerbsAuctionHouse.sol\":11667:11669  to */\n      dup3\n        /* \"packages/revolution-contracts/VerbsAuctionHouse.sol\":11671:11677  amount */\n      dup3\n        /* \"packages/revolution-contracts/VerbsAuctionHouse.sol\":11650:11666  _safeTransferETH */\n      tag_280\n        /* \"packages/revolution-contracts/VerbsAuctionHouse.sol\":11650:11678  _safeTransferETH(to, amount) */\n      jump\t// in\n    tag_279:\n        /* \"packages/revolution-contracts/VerbsAuctionHouse.sol\":11645:11790  if (!_safeTransferETH(to, amount)) {... */\n      tag_281\n      jumpi\n        /* \"packages/revolution-contracts/VerbsAuctionHouse.sol\":11700:11704  weth */\n      0x02\n      0x00\n      swap1\n      sload\n      swap1\n      0x0100\n      exp\n      swap1\n      div\n      sub(shl(0xa0, 0x01), 0x01)\n      and\n      sub(shl(0xa0, 0x01), 0x01)\n        /* \"packages/revolution-contracts/VerbsAuctionHouse.sol\":11694:11713  IWETH(weth).deposit */\n      and\n      0xd0e30db0\n        /* \"packages/revolution-contracts/VerbsAuctionHouse.sol\":11722:11728  amount */\n      dup3\n        /* \"packages/revolution-contracts/VerbsAuctionHouse.sol\":11694:11732  IWETH(weth).deposit{ value: amount }() */\n      mload(0x40)\n      dup3\n      0xffffffff\n      and\n      0xe0\n      shl\n      dup2\n      mstore\n      0x04\n      add\n      0x00\n      mload(0x40)\n      dup1\n      dup4\n      sub\n      dup2\n      dup6\n      dup9\n      dup1\n      extcodesize\n      iszero\n      dup1\n      iszero\n      tag_282\n      jumpi\n      0x00\n      dup1\n      revert\n    tag_282:\n      pop\n      gas\n      call\n      iszero\n      dup1\n      iszero\n      tag_284\n      jumpi\n      returndatasize\n      0x00\n      dup1\n      returndatacopy\n      revert(0x00, returndatasize)\n    tag_284:\n      pop\n      pop\n        /* \"packages/revolution-contracts/VerbsAuctionHouse.sol\":11753:11757  weth */\n      sload(0x02)\n        /* \"packages/revolution-contracts/VerbsAuctionHouse.sol\":11746:11779  IERC20(weth).transfer(to, amount) */\n      mload(0x40)\n      shl(0xe0, 0xa9059cbb)\n      dup2\n      mstore\n      sub(shl(0xa0, 0x01), 0x01)\n        /* \"#utility.yul\":9350:9382   */\n      dup8\n      dup2\n      and\n        /* \"packages/revolution-contracts/VerbsAuctionHouse.sol\":11746:11779  IERC20(weth).transfer(to, amount) */\n      0x04\n      dup4\n      add\n        /* \"#utility.yul\":9332:9383   */\n      mstore\n        /* \"#utility.yul\":9399:9417   */\n      0x24\n      dup3\n      add\n        /* \"#utility.yul\":9392:9426   */\n      dup8\n      swap1\n      mstore\n        /* \"packages/revolution-contracts/VerbsAuctionHouse.sol\":11753:11757  weth */\n      swap1\n      swap2\n      and\n      swap4\n      pop\n        /* \"packages/revolution-contracts/VerbsAuctionHouse.sol\":11746:11767  IERC20(weth).transfer */\n      0xa9059cbb\n      swap3\n      pop\n        /* \"#utility.yul\":9305:9323   */\n      0x44\n      add\n      swap1\n      pop\n        /* \"packages/revolution-contracts/VerbsAuctionHouse.sol\":11746:11779  IERC20(weth).transfer(to, amount) */\n      0x20\n      mload(0x40)\n      dup1\n      dup4\n      sub\n      dup2\n      0x00\n      dup8\n      gas\n      call\n      iszero\n      dup1\n      iszero\n      tag_288\n      jumpi\n      returndatasize\n      0x00\n      dup1\n      returndatacopy\n      revert(0x00, returndatasize)\n    tag_288:\n      pop\n      pop\n      pop\n      pop\n      mload(0x40)\n      returndatasize\n      not(0x1f)\n      0x1f\n      dup3\n      add\n      and\n      dup3\n      add\n      dup1\n      0x40\n      mstore\n      pop\n      dup2\n      add\n      swap1\n      tag_289\n      swap2\n      swap1\n      tag_290\n      jump\t// in\n    tag_289:\n      pop\n        /* \"packages/revolution-contracts/VerbsAuctionHouse.sol\":11645:11790  if (!_safeTransferETH(to, amount)) {... */\n    tag_281:\n        /* \"packages/revolution-contracts/VerbsAuctionHouse.sol\":11560:11796  function _safeTransferETHWithFallback(address to, uint256 amount) internal {... */\n      pop\n      pop\n      jump\t// out\n        /* \"@openzeppelin/contracts-upgradeable/utils/ReentrancyGuardUpgradeable.sol\":3716:3999  function _nonReentrantAfter() private {... */\n    tag_177:\n        /* \"@openzeppelin/contracts-upgradeable/utils/ReentrancyGuardUpgradeable.sol\":1805:1806  1 */\n      0x01\n      0x00\n      dup1\n      mload\n      0x20\n      data_c8669cf8eaf883002b9f48e28846a8d408c9b58ea6613bace374265e43c9bc43\n      dup4\n      codecopy\n      dup2\n      mload\n      swap2\n      mstore\n        /* \"@openzeppelin/contracts-upgradeable/utils/ReentrancyGuardUpgradeable.sol\":3969:3992  $._status = NOT_ENTERED */\n      sstore\n        /* \"@openzeppelin/contracts-upgradeable/utils/ReentrancyGuardUpgradeable.sol\":3716:3999  function _nonReentrantAfter() private {... */\n      jump\t// out\n        /* \"@openzeppelin/contracts-upgradeable/access/OwnableUpgradeable.sol\":3774:4022  function _transferOwnership(address newOwner) internal virtual {... */\n    tag_186:\n        /* \"@openzeppelin/contracts-upgradeable/access/OwnableUpgradeable.sol\":1313:1335  OwnableStorageLocation */\n      0x9016d09d72d40fdae2fd8ceac6b6234c7706214fd39c1cd1e609a0528c199300\n        /* \"@openzeppelin/contracts-upgradeable/access/OwnableUpgradeable.sol\":3923:3931  $._owner */\n      dup1\n      sload\n      not(sub(shl(0xa0, 0x01), 0x01))\n        /* \"@openzeppelin/contracts-upgradeable/access/OwnableUpgradeable.sol\":3941:3960  $._owner = newOwner */\n      dup2\n      and\n      sub(shl(0xa0, 0x01), 0x01)\n      dup5\n      dup2\n      and\n      swap2\n      dup3\n      or\n      dup5\n      sstore\n        /* \"@openzeppelin/contracts-upgradeable/access/OwnableUpgradeable.sol\":3975:4015  OwnershipTransferred(oldOwner, newOwner) */\n      mload(0x40)\n        /* \"@openzeppelin/contracts-upgradeable/access/OwnableUpgradeable.sol\":3923:3931  $._owner */\n      swap3\n      and\n      swap2\n      dup3\n      swap1\n        /* \"@openzeppelin/contracts-upgradeable/access/OwnableUpgradeable.sol\":3975:4015  OwnershipTransferred(oldOwner, newOwner) */\n      0x8be0079c531659141344cd1fd0a4f28419497f9722a3daafe3b4186f6b6457e0\n      swap1\n        /* \"@openzeppelin/contracts-upgradeable/access/OwnableUpgradeable.sol\":3847:3871  OwnableStorage storage $ */\n      0x00\n      swap1\n        /* \"@openzeppelin/contracts-upgradeable/access/OwnableUpgradeable.sol\":3975:4015  OwnershipTransferred(oldOwner, newOwner) */\n      log3\n        /* \"@openzeppelin/contracts-upgradeable/access/OwnableUpgradeable.sol\":3837:4022  {... */\n      pop\n      pop\n        /* \"@openzeppelin/contracts-upgradeable/access/OwnableUpgradeable.sol\":3774:4022  function _transferOwnership(address newOwner) internal virtual {... */\n      pop\n      jump\t// out\n        /* \"@openzeppelin/contracts-upgradeable/utils/PausableUpgradeable.sol\":3366:3542  function _pause() internal virtual whenNotPaused {... */\n    tag_191:\n        /* \"@openzeppelin/contracts-upgradeable/utils/PausableUpgradeable.sol\":2316:2335  _requireNotPaused() */\n      tag_296\n        /* \"@openzeppelin/contracts-upgradeable/utils/PausableUpgradeable.sol\":2316:2333  _requireNotPaused */\n      tag_231\n        /* \"@openzeppelin/contracts-upgradeable/utils/PausableUpgradeable.sol\":2316:2335  _requireNotPaused() */\n      jump\t// in\n    tag_296:\n      0x00\n      dup1\n      mload\n      0x20\n      data_c0c65a3718f3702d917c44106b91645b509d2e2d0979b70495c3babce192339f\n      dup4\n      codecopy\n      dup2\n      mload\n      swap2\n      mstore\n        /* \"@openzeppelin/contracts-upgradeable/utils/PausableUpgradeable.sol\":3484:3500  $._paused = true */\n      dup1\n      sload\n      not(0xff)\n      and\n        /* \"@openzeppelin/contracts-upgradeable/utils/PausableUpgradeable.sol\":3496:3500  true */\n      0x01\n        /* \"@openzeppelin/contracts-upgradeable/utils/PausableUpgradeable.sol\":3484:3500  $._paused = true */\n      or\n      dup2\n      sstore\n        /* \"@openzeppelin/contracts-upgradeable/utils/PausableUpgradeable.sol\":3515:3535  Paused(_msgSender()) */\n      0x62e78cea01bee320cd4e420270b5ea74000d11b0c9f74754ebdbfc544b05a258\n        /* \"@openzeppelin/contracts-upgradeable/utils/ContextUpgradeable.sol\":966:976  msg.sender */\n      caller\n        /* \"@openzeppelin/contracts-upgradeable/utils/PausableUpgradeable.sol\":3522:3534  _msgSender() */\n      tag_253\n        /* \"@openzeppelin/contracts-upgradeable/utils/ContextUpgradeable.sol\":887:983  function _msgSender() internal view virtual returns (address) {... */\n      jump\n        /* \"@openzeppelin/contracts-upgradeable/utils/PausableUpgradeable.sol\":3105:3231  function _requirePaused() internal view virtual {... */\n    tag_197:\n      0x00\n      dup1\n      mload\n      0x20\n      data_c0c65a3718f3702d917c44106b91645b509d2e2d0979b70495c3babce192339f\n      dup4\n      codecopy\n      dup2\n      mload\n      swap2\n      mstore\n        /* \"@openzeppelin/contracts-upgradeable/utils/PausableUpgradeable.sol\":2821:2830  $._paused */\n      sload\n      0xff\n      and\n        /* \"@openzeppelin/contracts-upgradeable/utils/PausableUpgradeable.sol\":3163:3225  if (!paused()) {... */\n      tag_138\n      jumpi\n        /* \"@openzeppelin/contracts-upgradeable/utils/PausableUpgradeable.sol\":3199:3214  ExpectedPause() */\n      mload(0x40)\n      shl(0xe0, 0x8dfc202b)\n      dup2\n      mstore\n      0x04\n      add\n      mload(0x40)\n      dup1\n      swap2\n      sub\n      swap1\n      revert\n        /* \"packages/revolution-contracts/VerbsAuctionHouse.sol\":8792:11444  function _settleAuction() internal {... */\n    tag_202:\n        /* \"packages/revolution-contracts/VerbsAuctionHouse.sol\":8837:8889  IVerbsAuctionHouse.Auction memory _auction = auction */\n      0x40\n      dup1\n      mload\n      0xc0\n      dup2\n      add\n      dup3\n      mstore\n        /* \"packages/revolution-contracts/VerbsAuctionHouse.sol\":8882:8889  auction */\n      0x09\n        /* \"packages/revolution-contracts/VerbsAuctionHouse.sol\":8837:8889  IVerbsAuctionHouse.Auction memory _auction = auction */\n      sload\n      dup2\n      mstore\n      sload(0x0a)\n      0x20\n      dup3\n      add\n      mstore\n      sload(0x0b)\n      swap2\n      dup2\n      add\n      dup3\n      swap1\n      mstore\n      sload(0x0c)\n      0x60\n      dup3\n      add\n      mstore\n      sload(0x0d)\n      sub(shl(0xa0, 0x01), 0x01)\n      dup2\n      and\n      0x80\n      dup4\n      add\n      mstore\n      shl(0xa0, 0x01)\n      swap1\n      div\n      0xff\n      and\n      iszero\n      iszero\n      0xa0\n      dup3\n      add\n      mstore\n      swap1\n      0x00\n        /* \"packages/revolution-contracts/VerbsAuctionHouse.sol\":8908:8931  _auction.startTime != 0 */\n      sub\n        /* \"packages/revolution-contracts/VerbsAuctionHouse.sol\":8900:8956  require(_auction.startTime != 0, \"Auction hasn't begun\") */\n      tag_306\n      jumpi\n      mload(0x40)\n      shl(0xe5, 0x461bcd)\n      dup2\n      mstore\n        /* \"#utility.yul\":10015:10017   */\n      0x20\n        /* \"packages/revolution-contracts/VerbsAuctionHouse.sol\":8900:8956  require(_auction.startTime != 0, \"Auction hasn't begun\") */\n      0x04\n      dup3\n      add\n        /* \"#utility.yul\":9997:10018   */\n      mstore\n        /* \"#utility.yul\":10054:10056   */\n      0x14\n        /* \"#utility.yul\":10034:10052   */\n      0x24\n      dup3\n      add\n        /* \"#utility.yul\":10027:10057   */\n      mstore\n      shl(0x61, 0x20bab1ba34b7b7103430b9b713ba103132b3bab7)\n        /* \"#utility.yul\":10073:10091   */\n      0x44\n      dup3\n      add\n        /* \"#utility.yul\":10066:10116   */\n      mstore\n        /* \"#utility.yul\":10133:10151   */\n      0x64\n      add\n        /* \"packages/revolution-contracts/VerbsAuctionHouse.sol\":8900:8956  require(_auction.startTime != 0, \"Auction hasn't begun\") */\n      tag_148\n        /* \"#utility.yul\":9813:10157   */\n      jump\n        /* \"packages/revolution-contracts/VerbsAuctionHouse.sol\":8900:8956  require(_auction.startTime != 0, \"Auction hasn't begun\") */\n    tag_306:\n        /* \"packages/revolution-contracts/VerbsAuctionHouse.sol\":8975:8983  _auction */\n      dup1\n        /* \"packages/revolution-contracts/VerbsAuctionHouse.sol\":8975:8991  _auction.settled */\n      0xa0\n      add\n      mload\n        /* \"packages/revolution-contracts/VerbsAuctionHouse.sol\":8974:8991  !_auction.settled */\n      iszero\n        /* \"packages/revolution-contracts/VerbsAuctionHouse.sol\":8966:9028  require(!_auction.settled, \"Auction has already been settled\") */\n      tag_309\n      jumpi\n      mload(0x40)\n      shl(0xe5, 0x461bcd)\n      dup2\n      mstore\n        /* \"#utility.yul\":10364:10366   */\n      0x20\n        /* \"packages/revolution-contracts/VerbsAuctionHouse.sol\":8966:9028  require(!_auction.settled, \"Auction has already been settled\") */\n      0x04\n      dup3\n      add\n        /* \"#utility.yul\":10346:10367   */\n      dup2\n      swap1\n      mstore\n        /* \"#utility.yul\":10383:10401   */\n      0x24\n      dup3\n      add\n        /* \"#utility.yul\":10376:10406   */\n      mstore\n        /* \"#utility.yul\":10442:10476   */\n      0x41756374696f6e2068617320616c7265616479206265656e20736574746c6564\n        /* \"#utility.yul\":10422:10440   */\n      0x44\n      dup3\n      add\n        /* \"#utility.yul\":10415:10477   */\n      mstore\n        /* \"#utility.yul\":10494:10512   */\n      0x64\n      add\n        /* \"packages/revolution-contracts/VerbsAuctionHouse.sol\":8966:9028  require(!_auction.settled, \"Auction has already been settled\") */\n      tag_148\n        /* \"#utility.yul\":10162:10518   */\n      jump\n        /* \"packages/revolution-contracts/VerbsAuctionHouse.sol\":8966:9028  require(!_auction.settled, \"Auction has already been settled\") */\n    tag_309:\n        /* \"packages/revolution-contracts/VerbsAuctionHouse.sol\":9065:9073  _auction */\n      dup1\n        /* \"packages/revolution-contracts/VerbsAuctionHouse.sol\":9065:9081  _auction.endTime */\n      0x60\n      add\n      mload\n        /* \"packages/revolution-contracts/VerbsAuctionHouse.sol\":9046:9061  block.timestamp */\n      timestamp\n        /* \"packages/revolution-contracts/VerbsAuctionHouse.sol\":9046:9081  block.timestamp >= _auction.endTime */\n      lt\n      iszero\n        /* \"packages/revolution-contracts/VerbsAuctionHouse.sol\":9038:9110  require(block.timestamp >= _auction.endTime, \"Auction hasn't completed\") */\n      tag_312\n      jumpi\n      mload(0x40)\n      shl(0xe5, 0x461bcd)\n      dup2\n      mstore\n        /* \"#utility.yul\":10725:10727   */\n      0x20\n        /* \"packages/revolution-contracts/VerbsAuctionHouse.sol\":9038:9110  require(block.timestamp >= _auction.endTime, \"Auction hasn't completed\") */\n      0x04\n      dup3\n      add\n        /* \"#utility.yul\":10707:10728   */\n      mstore\n        /* \"#utility.yul\":10764:10766   */\n      0x18\n        /* \"#utility.yul\":10744:10762   */\n      0x24\n      dup3\n      add\n        /* \"#utility.yul\":10737:10767   */\n      mstore\n        /* \"#utility.yul\":10803:10829   */\n      0x41756374696f6e206861736e277420636f6d706c657465640000000000000000\n        /* \"#utility.yul\":10783:10801   */\n      0x44\n      dup3\n      add\n        /* \"#utility.yul\":10776:10830   */\n      mstore\n        /* \"#utility.yul\":10847:10865   */\n      0x64\n      add\n        /* \"packages/revolution-contracts/VerbsAuctionHouse.sol\":9038:9110  require(block.timestamp >= _auction.endTime, \"Auction hasn't completed\") */\n      tag_148\n        /* \"#utility.yul\":10523:10871   */\n      jump\n        /* \"packages/revolution-contracts/VerbsAuctionHouse.sol\":9038:9110  require(block.timestamp >= _auction.endTime, \"Auction hasn't completed\") */\n    tag_312:\n        /* \"packages/revolution-contracts/VerbsAuctionHouse.sol\":9121:9136  auction.settled */\n      0x0d\n        /* \"packages/revolution-contracts/VerbsAuctionHouse.sol\":9121:9143  auction.settled = true */\n      dup1\n      sload\n      not(shl(0xa0, 0xff))\n      and\n      shl(0xa0, 0x01)\n      or\n      swap1\n      sstore\n        /* \"packages/revolution-contracts/VerbsAuctionHouse.sol\":9158:9173  _auction.bidder */\n      0x80\n      dup2\n      add\n      mload\n      sub(shl(0xa0, 0x01), 0x01)\n        /* \"packages/revolution-contracts/VerbsAuctionHouse.sol\":9158:9187  _auction.bidder == address(0) */\n      and\n        /* \"packages/revolution-contracts/VerbsAuctionHouse.sol\":9154:9339  if (_auction.bidder == address(0)) {... */\n      tag_315\n      jumpi\n        /* \"packages/revolution-contracts/VerbsAuctionHouse.sol\":9203:9208  verbs */\n      sload(0x00)\n        /* \"packages/revolution-contracts/VerbsAuctionHouse.sol\":9214:9229  _auction.verbId */\n      dup2\n      mload\n        /* \"packages/revolution-contracts/VerbsAuctionHouse.sol\":9203:9230  verbs.burn(_auction.verbId) */\n      mload(0x40)\n      shl(0xe3, 0x0852cd8d)\n      dup2\n      mstore\n      sub(shl(0xa0, 0x01), 0x01)\n        /* \"packages/revolution-contracts/VerbsAuctionHouse.sol\":9203:9208  verbs */\n      swap1\n      swap3\n      and\n      swap2\n        /* \"packages/revolution-contracts/VerbsAuctionHouse.sol\":9203:9213  verbs.burn */\n      0x42966c68\n      swap2\n        /* \"packages/revolution-contracts/VerbsAuctionHouse.sol\":9203:9230  verbs.burn(_auction.verbId) */\n      tag_316\n      swap2\n      0x04\n      add\n        /* \"#utility.yul\":388:413   */\n      swap1\n      dup2\n      mstore\n        /* \"#utility.yul\":376:378   */\n      0x20\n        /* \"#utility.yul\":361:379   */\n      add\n      swap1\n        /* \"#utility.yul\":242:419   */\n      jump\n        /* \"packages/revolution-contracts/VerbsAuctionHouse.sol\":9203:9230  verbs.burn(_auction.verbId) */\n    tag_316:\n      0x00\n      mload(0x40)\n      dup1\n      dup4\n      sub\n      dup2\n      0x00\n      dup8\n      dup1\n      extcodesize\n      iszero\n      dup1\n      iszero\n      tag_317\n      jumpi\n      0x00\n      dup1\n      revert\n    tag_317:\n      pop\n      gas\n      call\n      iszero\n      dup1\n      iszero\n      tag_319\n      jumpi\n      returndatasize\n      0x00\n      dup1\n      returndatacopy\n      revert(0x00, returndatasize)\n    tag_319:\n      pop\n      pop\n      pop\n      pop\n        /* \"packages/revolution-contracts/VerbsAuctionHouse.sol\":9154:9339  if (_auction.bidder == address(0)) {... */\n      jump(tag_320)\n    tag_315:\n        /* \"packages/revolution-contracts/VerbsAuctionHouse.sol\":9261:9266  verbs */\n      sload(0x00)\n        /* \"packages/revolution-contracts/VerbsAuctionHouse.sol\":9295:9310  _auction.bidder */\n      0x80\n      dup3\n      add\n      mload\n        /* \"packages/revolution-contracts/VerbsAuctionHouse.sol\":9312:9327  _auction.verbId */\n      dup3\n      mload\n        /* \"packages/revolution-contracts/VerbsAuctionHouse.sol\":9261:9328  verbs.transferFrom(address(this), _auction.bidder, _auction.verbId) */\n      mload(0x40)\n      shl(0xe0, 0x23b872dd)\n      dup2\n      mstore\n        /* \"packages/revolution-contracts/VerbsAuctionHouse.sol\":9288:9292  this */\n      address\n        /* \"packages/revolution-contracts/VerbsAuctionHouse.sol\":9261:9328  verbs.transferFrom(address(this), _auction.bidder, _auction.verbId) */\n      0x04\n      dup3\n      add\n        /* \"#utility.yul\":11124:11158   */\n      mstore\n      sub(shl(0xa0, 0x01), 0x01)\n        /* \"#utility.yul\":11194:11209   */\n      swap3\n      dup4\n      and\n        /* \"#utility.yul\":11174:11192   */\n      0x24\n      dup3\n      add\n        /* \"#utility.yul\":11167:11210   */\n      mstore\n        /* \"#utility.yul\":11226:11244   */\n      0x44\n      dup2\n      add\n        /* \"#utility.yul\":11219:11253   */\n      swap2\n      swap1\n      swap2\n      mstore\n        /* \"packages/revolution-contracts/VerbsAuctionHouse.sol\":9261:9266  verbs */\n      swap2\n      and\n      swap1\n        /* \"packages/revolution-contracts/VerbsAuctionHouse.sol\":9261:9279  verbs.transferFrom */\n      0x23b872dd\n      swap1\n        /* \"#utility.yul\":11059:11077   */\n      0x64\n      add\n        /* \"packages/revolution-contracts/VerbsAuctionHouse.sol\":9261:9328  verbs.transferFrom(address(this), _auction.bidder, _auction.verbId) */\n      0x00\n      mload(0x40)\n      dup1\n      dup4\n      sub\n      dup2\n      0x00\n      dup8\n      dup1\n      extcodesize\n      iszero\n      dup1\n      iszero\n      tag_323\n      jumpi\n      0x00\n      dup1\n      revert\n    tag_323:\n      pop\n      gas\n      call\n      iszero\n      dup1\n      iszero\n      tag_325\n      jumpi\n      returndatasize\n      0x00\n      dup1\n      returndatacopy\n      revert(0x00, returndatasize)\n    tag_325:\n      pop\n      pop\n      pop\n      pop\n        /* \"packages/revolution-contracts/VerbsAuctionHouse.sol\":9154:9339  if (_auction.bidder == address(0)) {... */\n    tag_320:\n        /* \"packages/revolution-contracts/VerbsAuctionHouse.sol\":9353:9368  _auction.amount */\n      0x20\n      dup2\n      add\n      mload\n        /* \"packages/revolution-contracts/VerbsAuctionHouse.sol\":9353:9372  _auction.amount > 0 */\n      iszero\n        /* \"packages/revolution-contracts/VerbsAuctionHouse.sol\":9349:11357  if (_auction.amount > 0) {... */\n      tag_326\n      jumpi\n        /* \"packages/revolution-contracts/VerbsAuctionHouse.sol\":9439:9464  uint256 auctioneerPayment */\n      0x00\n        /* \"packages/revolution-contracts/VerbsAuctionHouse.sol\":9475:9553  wadDiv(wadMul(int256(_auction.amount), 10000 - int256(creatorRateBps)), 10000) */\n      tag_327\n        /* \"packages/revolution-contracts/VerbsAuctionHouse.sol\":9482:9545  wadMul(int256(_auction.amount), 10000 - int256(creatorRateBps)) */\n      tag_328\n        /* \"packages/revolution-contracts/VerbsAuctionHouse.sol\":9496:9504  _auction */\n      dup4\n        /* \"packages/revolution-contracts/VerbsAuctionHouse.sol\":9496:9511  _auction.amount */\n      0x20\n      add\n      mload\n        /* \"packages/revolution-contracts/VerbsAuctionHouse.sol\":9529:9543  creatorRateBps */\n      sload(0x06)\n        /* \"packages/revolution-contracts/VerbsAuctionHouse.sol\":9514:9519  10000 */\n      0x2710\n        /* \"packages/revolution-contracts/VerbsAuctionHouse.sol\":9514:9544  10000 - int256(creatorRateBps) */\n      tag_329\n      swap2\n      swap1\n      tag_330\n      jump\t// in\n    tag_329:\n        /* \"packages/revolution-contracts/VerbsAuctionHouse.sol\":9482:9488  wadMul */\n      tag_331\n        /* \"packages/revolution-contracts/VerbsAuctionHouse.sol\":9482:9545  wadMul(int256(_auction.amount), 10000 - int256(creatorRateBps)) */\n      jump\t// in\n    tag_328:\n        /* \"packages/revolution-contracts/VerbsAuctionHouse.sol\":9547:9552  10000 */\n      0x2710\n        /* \"packages/revolution-contracts/VerbsAuctionHouse.sol\":9475:9481  wadDiv */\n      tag_332\n        /* \"packages/revolution-contracts/VerbsAuctionHouse.sol\":9475:9553  wadDiv(wadMul(int256(_auction.amount), 10000 - int256(creatorRateBps)), 10000) */\n      jump\t// in\n    tag_327:\n        /* \"packages/revolution-contracts/VerbsAuctionHouse.sol\":9439:9554  uint256 auctioneerPayment = uint256(wadDiv(wadMul(int256(_auction.amount), 10000 - int256(creatorRateBps)), 10000)) */\n      swap1\n      pop\n        /* \"packages/revolution-contracts/VerbsAuctionHouse.sol\":9622:9644  uint256 creatorPayment */\n      0x00\n        /* \"packages/revolution-contracts/VerbsAuctionHouse.sol\":9665:9682  auctioneerPayment */\n      dup2\n        /* \"packages/revolution-contracts/VerbsAuctionHouse.sol\":9647:9655  _auction */\n      dup4\n        /* \"packages/revolution-contracts/VerbsAuctionHouse.sol\":9647:9662  _auction.amount */\n      0x20\n      add\n      mload\n        /* \"packages/revolution-contracts/VerbsAuctionHouse.sol\":9647:9682  _auction.amount - auctioneerPayment */\n      tag_333\n      swap2\n      swap1\n      tag_169\n      jump\t// in\n    tag_333:\n        /* \"packages/revolution-contracts/VerbsAuctionHouse.sol\":9622:9682  uint256 creatorPayment = _auction.amount - auctioneerPayment */\n      swap1\n      pop\n        /* \"packages/revolution-contracts/VerbsAuctionHouse.sol\":9754:9782  uint256 creatorDirectPayment */\n      0x00\n        /* \"packages/revolution-contracts/VerbsAuctionHouse.sol\":9793:9862  wadDiv(wadMul(int256(creatorPayment), int256(entropyRateBps)), 10000) */\n      tag_334\n        /* \"packages/revolution-contracts/VerbsAuctionHouse.sol\":9800:9854  wadMul(int256(creatorPayment), int256(entropyRateBps)) */\n      tag_328\n        /* \"packages/revolution-contracts/VerbsAuctionHouse.sol\":9814:9828  creatorPayment */\n      dup4\n        /* \"packages/revolution-contracts/VerbsAuctionHouse.sol\":9838:9852  entropyRateBps */\n      sload(0x07)\n        /* \"packages/revolution-contracts/VerbsAuctionHouse.sol\":9800:9806  wadMul */\n      tag_331\n        /* \"packages/revolution-contracts/VerbsAuctionHouse.sol\":9800:9854  wadMul(int256(creatorPayment), int256(entropyRateBps)) */\n      jump\t// in\n        /* \"packages/revolution-contracts/VerbsAuctionHouse.sol\":9793:9862  wadDiv(wadMul(int256(creatorPayment), int256(entropyRateBps)), 10000) */\n    tag_334:\n        /* \"packages/revolution-contracts/VerbsAuctionHouse.sol\":9754:9863  uint256 creatorDirectPayment = uint256(wadDiv(wadMul(int256(creatorPayment), int256(entropyRateBps)), 10000)) */\n      swap1\n      pop\n        /* \"packages/revolution-contracts/VerbsAuctionHouse.sol\":9932:9964  uint256 creatorGovernancePayment */\n      0x00\n        /* \"packages/revolution-contracts/VerbsAuctionHouse.sol\":9967:10004  creatorPayment - creatorDirectPayment */\n      tag_336\n        /* \"packages/revolution-contracts/VerbsAuctionHouse.sol\":9754:9863  uint256 creatorDirectPayment = uint256(wadDiv(wadMul(int256(creatorPayment), int256(entropyRateBps)), 10000)) */\n      dup3\n        /* \"packages/revolution-contracts/VerbsAuctionHouse.sol\":9967:9981  creatorPayment */\n      dup5\n        /* \"packages/revolution-contracts/VerbsAuctionHouse.sol\":9967:10004  creatorPayment - creatorDirectPayment */\n      tag_169\n      jump\t// in\n    tag_336:\n        /* \"packages/revolution-contracts/VerbsAuctionHouse.sol\":10019:10038  uint256 numCreators */\n      0x00\n        /* \"packages/revolution-contracts/VerbsAuctionHouse.sol\":10041:10046  verbs */\n      dup1\n      sload\n        /* \"packages/revolution-contracts/VerbsAuctionHouse.sol\":10063:10078  _auction.verbId */\n      dup8\n      mload\n        /* \"packages/revolution-contracts/VerbsAuctionHouse.sol\":10041:10079  verbs.getArtPieceById(_auction.verbId) */\n      mload(0x40)\n      shl(0xe1, 0x24d19ab1)\n      dup2\n      mstore\n      0x04\n      dup2\n      add\n        /* \"#utility.yul\":388:413   */\n      swap2\n      swap1\n      swap2\n      mstore\n        /* \"packages/revolution-contracts/VerbsAuctionHouse.sol\":9932:10004  uint256 creatorGovernancePayment = creatorPayment - creatorDirectPayment */\n      swap3\n      swap4\n      pop\n        /* \"packages/revolution-contracts/VerbsAuctionHouse.sol\":10019:10038  uint256 numCreators */\n      swap1\n      swap2\n      sub(shl(0xa0, 0x01), 0x01)\n        /* \"packages/revolution-contracts/VerbsAuctionHouse.sol\":10041:10046  verbs */\n      swap1\n      swap2\n      and\n      swap1\n        /* \"packages/revolution-contracts/VerbsAuctionHouse.sol\":10041:10062  verbs.getArtPieceById */\n      0x49a33562\n      swap1\n        /* \"#utility.yul\":361:379   */\n      0x24\n      add\n        /* \"packages/revolution-contracts/VerbsAuctionHouse.sol\":10041:10079  verbs.getArtPieceById(_auction.verbId) */\n      0x00\n      mload(0x40)\n      dup1\n      dup4\n      sub\n      dup2\n      dup7\n      gas\n      staticcall\n      iszero\n      dup1\n      iszero\n      tag_339\n      jumpi\n      returndatasize\n      0x00\n      dup1\n      returndatacopy\n      revert(0x00, returndatasize)\n    tag_339:\n      pop\n      pop\n      pop\n      pop\n      mload(0x40)\n      returndatasize\n      0x00\n      dup3\n      returndatacopy\n      0x1f\n      returndatasize\n      swap1\n      dup2\n      add\n      not(0x1f)\n      and\n      dup3\n      add\n      0x40\n      mstore\n      tag_340\n      swap2\n      swap1\n      dup2\n      add\n      swap1\n      tag_341\n      jump\t// in\n    tag_340:\n        /* \"packages/revolution-contracts/VerbsAuctionHouse.sol\":10041:10088  verbs.getArtPieceById(_auction.verbId).creators */\n      0x40\n      add\n      mload\n        /* \"packages/revolution-contracts/VerbsAuctionHouse.sol\":10041:10095  verbs.getArtPieceById(_auction.verbId).creators.length */\n      mload\n        /* \"packages/revolution-contracts/VerbsAuctionHouse.sol\":10019:10095  uint256 numCreators = verbs.getArtPieceById(_auction.verbId).creators.length */\n      swap1\n      pop\n        /* \"packages/revolution-contracts/VerbsAuctionHouse.sol\":10163:10194  address[] memory vrgdaReceivers */\n      0x00\n        /* \"packages/revolution-contracts/VerbsAuctionHouse.sol\":10211:10222  numCreators */\n      dup2\n        /* \"packages/revolution-contracts/VerbsAuctionHouse.sol\":10197:10223  new address[](numCreators) */\n      0xffffffffffffffff\n      dup2\n      gt\n      iszero\n      tag_343\n      jumpi\n      tag_343\n      tag_344\n      jump\t// in\n    tag_343:\n      mload(0x40)\n      swap1\n      dup1\n      dup3\n      mstore\n      dup1\n      0x20\n      mul\n      0x20\n      add\n      dup3\n      add\n      0x40\n      mstore\n      dup1\n      iszero\n      tag_345\n      jumpi\n      dup2\n      0x20\n      add\n      0x20\n      dup3\n      mul\n      dup1\n      calldatasize\n      dup4\n      calldatacopy\n      add\n      swap1\n      pop\n    tag_345:\n      pop\n        /* \"packages/revolution-contracts/VerbsAuctionHouse.sol\":10163:10223  address[] memory vrgdaReceivers = new address[](numCreators) */\n      swap1\n      pop\n        /* \"packages/revolution-contracts/VerbsAuctionHouse.sol\":10237:10265  uint256[] memory vrgdaSplits */\n      0x00\n        /* \"packages/revolution-contracts/VerbsAuctionHouse.sol\":10282:10293  numCreators */\n      dup3\n        /* \"packages/revolution-contracts/VerbsAuctionHouse.sol\":10268:10294  new uint256[](numCreators) */\n      0xffffffffffffffff\n      dup2\n      gt\n      iszero\n      tag_347\n      jumpi\n      tag_347\n      tag_344\n      jump\t// in\n    tag_347:\n      mload(0x40)\n      swap1\n      dup1\n      dup3\n      mstore\n      dup1\n      0x20\n      mul\n      0x20\n      add\n      dup3\n      add\n      0x40\n      mstore\n      dup1\n      iszero\n      tag_348\n      jumpi\n      dup2\n      0x20\n      add\n      0x20\n      dup3\n      mul\n      dup1\n      calldatasize\n      dup4\n      calldatacopy\n      add\n      swap1\n      pop\n    tag_348:\n      pop\n        /* \"packages/revolution-contracts/VerbsAuctionHouse.sol\":10237:10294  uint256[] memory vrgdaSplits = new uint256[](numCreators) */\n      swap1\n      pop\n        /* \"packages/revolution-contracts/VerbsAuctionHouse.sol\":10367:10423  _safeTransferETHWithFallback(owner(), auctioneerPayment) */\n      tag_349\n        /* \"packages/revolution-contracts/VerbsAuctionHouse.sol\":10396:10403  owner() */\n      tag_350\n        /* \"packages/revolution-contracts/VerbsAuctionHouse.sol\":10396:10401  owner */\n      tag_86\n        /* \"packages/revolution-contracts/VerbsAuctionHouse.sol\":10396:10403  owner() */\n      jump\t// in\n    tag_350:\n        /* \"packages/revolution-contracts/VerbsAuctionHouse.sol\":10405:10422  auctioneerPayment */\n      dup9\n        /* \"packages/revolution-contracts/VerbsAuctionHouse.sol\":10367:10395  _safeTransferETHWithFallback */\n      tag_167\n        /* \"packages/revolution-contracts/VerbsAuctionHouse.sol\":10367:10423  _safeTransferETHWithFallback(owner(), auctioneerPayment) */\n      jump\t// in\n    tag_349:\n        /* \"packages/revolution-contracts/VerbsAuctionHouse.sol\":10559:10568  uint256 i */\n      0x00\n        /* \"packages/revolution-contracts/VerbsAuctionHouse.sol\":10554:11158  for (uint256 i = 0; i < numCreators; i++) {... */\n    tag_351:\n        /* \"packages/revolution-contracts/VerbsAuctionHouse.sol\":10578:10589  numCreators */\n      dup4\n        /* \"packages/revolution-contracts/VerbsAuctionHouse.sol\":10574:10575  i */\n      dup2\n        /* \"packages/revolution-contracts/VerbsAuctionHouse.sol\":10574:10589  i < numCreators */\n      lt\n        /* \"packages/revolution-contracts/VerbsAuctionHouse.sol\":10554:11158  for (uint256 i = 0; i < numCreators; i++) {... */\n      iszero\n      tag_352\n      jumpi\n        /* \"packages/revolution-contracts/VerbsAuctionHouse.sol\":10614:10653  ICultureIndex.CreatorBps memory creator */\n      0x00\n        /* \"packages/revolution-contracts/VerbsAuctionHouse.sol\":10656:10661  verbs */\n      dup1\n      sload\n        /* \"packages/revolution-contracts/VerbsAuctionHouse.sol\":10678:10693  _auction.verbId */\n      dup11\n      mload\n        /* \"packages/revolution-contracts/VerbsAuctionHouse.sol\":10656:10694  verbs.getArtPieceById(_auction.verbId) */\n      mload(0x40)\n      shl(0xe1, 0x24d19ab1)\n      dup2\n      mstore\n      sub(shl(0xa0, 0x01), 0x01)\n        /* \"packages/revolution-contracts/VerbsAuctionHouse.sol\":10656:10661  verbs */\n      swap1\n      swap3\n      and\n      swap2\n        /* \"packages/revolution-contracts/VerbsAuctionHouse.sol\":10656:10677  verbs.getArtPieceById */\n      0x49a33562\n      swap2\n        /* \"packages/revolution-contracts/VerbsAuctionHouse.sol\":10656:10694  verbs.getArtPieceById(_auction.verbId) */\n      tag_354\n      swap2\n      0x04\n      add\n        /* \"#utility.yul\":388:413   */\n      swap1\n      dup2\n      mstore\n        /* \"#utility.yul\":376:378   */\n      0x20\n        /* \"#utility.yul\":361:379   */\n      add\n      swap1\n        /* \"#utility.yul\":242:419   */\n      jump\n        /* \"packages/revolution-contracts/VerbsAuctionHouse.sol\":10656:10694  verbs.getArtPieceById(_auction.verbId) */\n    tag_354:\n      0x00\n      mload(0x40)\n      dup1\n      dup4\n      sub\n      dup2\n      dup7\n      gas\n      staticcall\n      iszero\n      dup1\n      iszero\n      tag_356\n      jumpi\n      returndatasize\n      0x00\n      dup1\n      returndatacopy\n      revert(0x00, returndatasize)\n    tag_356:\n      pop\n      pop\n      pop\n      pop\n      mload(0x40)\n      returndatasize\n      0x00\n      dup3\n      returndatacopy\n      0x1f\n      returndatasize\n      swap1\n      dup2\n      add\n      not(0x1f)\n      and\n      dup3\n      add\n      0x40\n      mstore\n      tag_357\n      swap2\n      swap1\n      dup2\n      add\n      swap1\n      tag_341\n      jump\t// in\n    tag_357:\n        /* \"packages/revolution-contracts/VerbsAuctionHouse.sol\":10656:10703  verbs.getArtPieceById(_auction.verbId).creators */\n      0x40\n      add\n      mload\n        /* \"packages/revolution-contracts/VerbsAuctionHouse.sol\":10704:10705  i */\n      dup3\n        /* \"packages/revolution-contracts/VerbsAuctionHouse.sol\":10656:10706  verbs.getArtPieceById(_auction.verbId).creators[i] */\n      dup2\n      mload\n      dup2\n      lt\n      tag_359\n      jumpi\n      tag_359\n      tag_360\n      jump\t// in\n    tag_359:\n      0x20\n      mul\n      0x20\n      add\n      add\n      mload\n        /* \"packages/revolution-contracts/VerbsAuctionHouse.sol\":10614:10706  ICultureIndex.CreatorBps memory creator = verbs.getArtPieceById(_auction.verbId).creators[i] */\n      swap1\n      pop\n        /* \"packages/revolution-contracts/VerbsAuctionHouse.sol\":10744:10751  creator */\n      dup1\n        /* \"packages/revolution-contracts/VerbsAuctionHouse.sol\":10744:10759  creator.creator */\n      0x00\n      add\n      mload\n        /* \"packages/revolution-contracts/VerbsAuctionHouse.sol\":10724:10738  vrgdaReceivers */\n      dup5\n        /* \"packages/revolution-contracts/VerbsAuctionHouse.sol\":10739:10740  i */\n      dup4\n        /* \"packages/revolution-contracts/VerbsAuctionHouse.sol\":10724:10741  vrgdaReceivers[i] */\n      dup2\n      mload\n      dup2\n      lt\n      tag_362\n      jumpi\n      tag_362\n      tag_360\n      jump\t// in\n    tag_362:\n      0x20\n      mul\n      0x20\n      add\n      add\n        /* \"packages/revolution-contracts/VerbsAuctionHouse.sol\":10724:10759  vrgdaReceivers[i] = creator.creator */\n      swap1\n      sub(shl(0xa0, 0x01), 0x01)\n      and\n      swap1\n      dup2\n      sub(shl(0xa0, 0x01), 0x01)\n      and\n      dup2\n      mstore\n      pop\n      pop\n        /* \"packages/revolution-contracts/VerbsAuctionHouse.sol\":10794:10801  creator */\n      dup1\n        /* \"packages/revolution-contracts/VerbsAuctionHouse.sol\":10794:10805  creator.bps */\n      0x20\n      add\n      mload\n        /* \"packages/revolution-contracts/VerbsAuctionHouse.sol\":10777:10788  vrgdaSplits */\n      dup4\n        /* \"packages/revolution-contracts/VerbsAuctionHouse.sol\":10789:10790  i */\n      dup4\n        /* \"packages/revolution-contracts/VerbsAuctionHouse.sol\":10777:10791  vrgdaSplits[i] */\n      dup2\n      mload\n      dup2\n      lt\n      tag_364\n      jumpi\n      tag_364\n      tag_360\n      jump\t// in\n    tag_364:\n      0x20\n      mul\n      0x20\n      add\n      add\n        /* \"packages/revolution-contracts/VerbsAuctionHouse.sol\":10777:10805  vrgdaSplits[i] = creator.bps */\n      dup2\n      dup2\n      mstore\n      pop\n      pop\n        /* \"packages/revolution-contracts/VerbsAuctionHouse.sol\":10905:10924  uint256 etherAmount */\n      0x00\n        /* \"packages/revolution-contracts/VerbsAuctionHouse.sol\":10935:11007  wadDiv(wadMul(int256(creatorDirectPayment), int256(creator.bps)), 10000) */\n      tag_365\n        /* \"packages/revolution-contracts/VerbsAuctionHouse.sol\":10942:10999  wadMul(int256(creatorDirectPayment), int256(creator.bps)) */\n      tag_328\n        /* \"packages/revolution-contracts/VerbsAuctionHouse.sol\":10956:10976  creatorDirectPayment */\n      dup10\n        /* \"packages/revolution-contracts/VerbsAuctionHouse.sol\":10986:10993  creator */\n      dup5\n        /* \"packages/revolution-contracts/VerbsAuctionHouse.sol\":10986:10997  creator.bps */\n      0x20\n      add\n      mload\n        /* \"packages/revolution-contracts/VerbsAuctionHouse.sol\":10942:10948  wadMul */\n      tag_331\n        /* \"packages/revolution-contracts/VerbsAuctionHouse.sol\":10942:10999  wadMul(int256(creatorDirectPayment), int256(creator.bps)) */\n      jump\t// in\n        /* \"packages/revolution-contracts/VerbsAuctionHouse.sol\":10935:11007  wadDiv(wadMul(int256(creatorDirectPayment), int256(creator.bps)), 10000) */\n    tag_365:\n        /* \"packages/revolution-contracts/VerbsAuctionHouse.sol\":10905:11008  uint256 etherAmount = uint256(wadDiv(wadMul(int256(creatorDirectPayment), int256(creator.bps)), 10000)) */\n      swap1\n      pop\n        /* \"packages/revolution-contracts/VerbsAuctionHouse.sol\":11085:11143  _safeTransferETHWithFallback(creator.creator, etherAmount) */\n      tag_367\n        /* \"packages/revolution-contracts/VerbsAuctionHouse.sol\":11114:11121  creator */\n      dup3\n        /* \"packages/revolution-contracts/VerbsAuctionHouse.sol\":11114:11129  creator.creator */\n      0x00\n      add\n      mload\n        /* \"packages/revolution-contracts/VerbsAuctionHouse.sol\":11131:11142  etherAmount */\n      dup3\n        /* \"packages/revolution-contracts/VerbsAuctionHouse.sol\":11085:11113  _safeTransferETHWithFallback */\n      tag_167\n        /* \"packages/revolution-contracts/VerbsAuctionHouse.sol\":11085:11143  _safeTransferETHWithFallback(creator.creator, etherAmount) */\n      jump\t// in\n    tag_367:\n      pop\n      pop\n        /* \"packages/revolution-contracts/VerbsAuctionHouse.sol\":10591:10594  i++ */\n      0x01\n      add\n        /* \"packages/revolution-contracts/VerbsAuctionHouse.sol\":10554:11158  for (uint256 i = 0; i < numCreators; i++) {... */\n      jump(tag_351)\n    tag_352:\n      pop\n        /* \"packages/revolution-contracts/VerbsAuctionHouse.sol\":11235:11247  tokenEmitter */\n      sload(0x01)\n        /* \"packages/revolution-contracts/VerbsAuctionHouse.sol\":11235:11346  tokenEmitter.buyToken{ value: creatorGovernancePayment }(vrgdaReceivers, vrgdaSplits, creatorGovernancePayment) */\n      mload(0x40)\n      shl(0xe0, 0xdec86df1)\n      dup2\n      mstore\n      sub(shl(0xa0, 0x01), 0x01)\n        /* \"packages/revolution-contracts/VerbsAuctionHouse.sol\":11235:11247  tokenEmitter */\n      swap1\n      swap2\n      and\n      swap1\n        /* \"packages/revolution-contracts/VerbsAuctionHouse.sol\":11235:11256  tokenEmitter.buyToken */\n      0xdec86df1\n      swap1\n        /* \"packages/revolution-contracts/VerbsAuctionHouse.sol\":11265:11289  creatorGovernancePayment */\n      dup7\n      swap1\n        /* \"packages/revolution-contracts/VerbsAuctionHouse.sol\":11235:11346  tokenEmitter.buyToken{ value: creatorGovernancePayment }(vrgdaReceivers, vrgdaSplits, creatorGovernancePayment) */\n      tag_368\n      swap1\n        /* \"packages/revolution-contracts/VerbsAuctionHouse.sol\":11292:11306  vrgdaReceivers */\n      dup7\n      swap1\n        /* \"packages/revolution-contracts/VerbsAuctionHouse.sol\":11308:11319  vrgdaSplits */\n      dup7\n      swap1\n        /* \"packages/revolution-contracts/VerbsAuctionHouse.sol\":11265:11289  creatorGovernancePayment */\n      dup5\n      swap1\n        /* \"packages/revolution-contracts/VerbsAuctionHouse.sol\":11235:11346  tokenEmitter.buyToken{ value: creatorGovernancePayment }(vrgdaReceivers, vrgdaSplits, creatorGovernancePayment) */\n      0x04\n      add\n      tag_369\n      jump\t// in\n    tag_368:\n      0x20\n      mload(0x40)\n      dup1\n      dup4\n      sub\n      dup2\n      dup6\n      dup9\n      gas\n      call\n      iszero\n      dup1\n      iszero\n      tag_371\n      jumpi\n      returndatasize\n      0x00\n      dup1\n      returndatacopy\n      revert(0x00, returndatasize)\n    tag_371:\n      pop\n      pop\n      pop\n      pop\n      pop\n      mload(0x40)\n      returndatasize\n      not(0x1f)\n      0x1f\n      dup3\n      add\n      and\n      dup3\n      add\n      dup1\n      0x40\n      mstore\n      pop\n      dup2\n      add\n      swap1\n      tag_372\n      swap2\n      swap1\n      tag_258\n      jump\t// in\n    tag_372:\n      pop\n        /* \"packages/revolution-contracts/VerbsAuctionHouse.sol\":9374:11357  {... */\n      pop\n      pop\n      pop\n      pop\n      pop\n      pop\n      pop\n        /* \"packages/revolution-contracts/VerbsAuctionHouse.sol\":9349:11357  if (_auction.amount > 0) {... */\n    tag_326:\n        /* \"packages/revolution-contracts/VerbsAuctionHouse.sol\":11387:11402  _auction.verbId */\n      dup1\n      mload\n        /* \"packages/revolution-contracts/VerbsAuctionHouse.sol\":11404:11419  _auction.bidder */\n      0x80\n      dup3\n      add\n      mload\n        /* \"packages/revolution-contracts/VerbsAuctionHouse.sol\":11421:11436  _auction.amount */\n      0x20\n      dup1\n      dup5\n      add\n      mload\n        /* \"packages/revolution-contracts/VerbsAuctionHouse.sol\":11372:11437  AuctionSettled(_auction.verbId, _auction.bidder, _auction.amount) */\n      0x40\n      dup1\n      mload\n      sub(shl(0xa0, 0x01), 0x01)\n        /* \"#utility.yul\":9350:9382   */\n      swap1\n      swap5\n      and\n        /* \"#utility.yul\":9332:9383   */\n      dup5\n      mstore\n        /* \"#utility.yul\":9399:9417   */\n      swap2\n      dup4\n      add\n        /* \"#utility.yul\":9392:9426   */\n      mstore\n        /* \"packages/revolution-contracts/VerbsAuctionHouse.sol\":11372:11437  AuctionSettled(_auction.verbId, _auction.bidder, _auction.amount) */\n      0xc9f72b276a388619c6d185d146697036241880c36654b1a3ffdad07c24038d99\n      swap2\n        /* \"#utility.yul\":9305:9323   */\n      add\n        /* \"packages/revolution-contracts/VerbsAuctionHouse.sol\":11372:11437  AuctionSettled(_auction.verbId, _auction.bidder, _auction.amount) */\n      mload(0x40)\n      dup1\n      swap2\n      sub\n      swap1\n      log2\n        /* \"packages/revolution-contracts/VerbsAuctionHouse.sol\":8827:11444  {... */\n      pop\n        /* \"packages/revolution-contracts/VerbsAuctionHouse.sol\":8792:11444  function _settleAuction() internal {... */\n      jump\t// out\n        /* \"@openzeppelin/contracts-upgradeable/utils/PausableUpgradeable.sol\":1836:1933  function __Pausable_init() internal onlyInitializing {... */\n    tag_214:\n        /* \"@openzeppelin/contracts-upgradeable/proxy/utils/Initializable.sol\":6931:6951  _checkInitializing() */\n      tag_377\n        /* \"@openzeppelin/contracts-upgradeable/proxy/utils/Initializable.sol\":6931:6949  _checkInitializing */\n      tag_378\n        /* \"@openzeppelin/contracts-upgradeable/proxy/utils/Initializable.sol\":6931:6951  _checkInitializing() */\n      jump\t// in\n    tag_377:\n        /* \"@openzeppelin/contracts-upgradeable/utils/PausableUpgradeable.sol\":1899:1926  __Pausable_init_unchained() */\n      tag_138\n        /* \"@openzeppelin/contracts-upgradeable/utils/PausableUpgradeable.sol\":1899:1924  __Pausable_init_unchained */\n      tag_381\n        /* \"@openzeppelin/contracts-upgradeable/utils/PausableUpgradeable.sol\":1899:1926  __Pausable_init_unchained() */\n      jump\t// in\n        /* \"@openzeppelin/contracts-upgradeable/utils/ReentrancyGuardUpgradeable.sol\":2540:2651  function __ReentrancyGuard_init() internal onlyInitializing {... */\n    tag_216:\n        /* \"@openzeppelin/contracts-upgradeable/proxy/utils/Initializable.sol\":6931:6951  _checkInitializing() */\n      tag_383\n        /* \"@openzeppelin/contracts-upgradeable/proxy/utils/Initializable.sol\":6931:6949  _checkInitializing */\n      tag_378\n        /* \"@openzeppelin/contracts-upgradeable/proxy/utils/Initializable.sol\":6931:6951  _checkInitializing() */\n      jump\t// in\n    tag_383:\n        /* \"@openzeppelin/contracts-upgradeable/utils/ReentrancyGuardUpgradeable.sol\":2610:2644  __ReentrancyGuard_init_unchained() */\n      tag_138\n        /* \"@openzeppelin/contracts-upgradeable/utils/ReentrancyGuardUpgradeable.sol\":2610:2642  __ReentrancyGuard_init_unchained */\n      tag_386\n        /* \"@openzeppelin/contracts-upgradeable/utils/ReentrancyGuardUpgradeable.sol\":2610:2644  __ReentrancyGuard_init_unchained() */\n      jump\t// in\n        /* \"@openzeppelin/contracts-upgradeable/access/OwnableUpgradeable.sol\":1847:1974  function __Ownable_init(address initialOwner) internal onlyInitializing {... */\n    tag_218:\n        /* \"@openzeppelin/contracts-upgradeable/proxy/utils/Initializable.sol\":6931:6951  _checkInitializing() */\n      tag_388\n        /* \"@openzeppelin/contracts-upgradeable/proxy/utils/Initializable.sol\":6931:6949  _checkInitializing */\n      tag_378\n        /* \"@openzeppelin/contracts-upgradeable/proxy/utils/Initializable.sol\":6931:6951  _checkInitializing() */\n      jump\t// in\n    tag_388:\n        /* \"@openzeppelin/contracts-upgradeable/access/OwnableUpgradeable.sol\":1929:1967  __Ownable_init_unchained(initialOwner) */\n      tag_176\n        /* \"@openzeppelin/contracts-upgradeable/access/OwnableUpgradeable.sol\":1954:1966  initialOwner */\n      dup2\n        /* \"@openzeppelin/contracts-upgradeable/access/OwnableUpgradeable.sol\":1929:1953  __Ownable_init_unchained */\n      tag_391\n        /* \"@openzeppelin/contracts-upgradeable/access/OwnableUpgradeable.sol\":1929:1967  __Ownable_init_unchained(initialOwner) */\n      jump\t// in\n        /* \"@openzeppelin/contracts-upgradeable/utils/PausableUpgradeable.sol\":2905:3033  function _requireNotPaused() internal view virtual {... */\n    tag_231:\n      0x00\n      dup1\n      mload\n      0x20\n      data_c0c65a3718f3702d917c44106b91645b509d2e2d0979b70495c3babce192339f\n      dup4\n      codecopy\n      dup2\n      mload\n      swap2\n      mstore\n        /* \"@openzeppelin/contracts-upgradeable/utils/PausableUpgradeable.sol\":2821:2830  $._paused */\n      sload\n      0xff\n      and\n        /* \"@openzeppelin/contracts-upgradeable/utils/PausableUpgradeable.sol\":2966:3027  if (paused()) {... */\n      iszero\n      tag_138\n      jumpi\n        /* \"@openzeppelin/contracts-upgradeable/utils/PausableUpgradeable.sol\":3001:3016  EnforcedPause() */\n      mload(0x40)\n      shl(0xe0, 0xd93c0665)\n      dup2\n      mstore\n      0x04\n      add\n      mload(0x40)\n      dup1\n      swap2\n      sub\n      swap1\n      revert\n        /* \"packages/revolution-contracts/VerbsAuctionHouse.sol\":11943:12130  function _safeTransferETH(address to, uint256 value) internal returns (bool) {... */\n    tag_280:\n        /* \"packages/revolution-contracts/VerbsAuctionHouse.sol\":12086:12098  new bytes(0) */\n      0x40\n      dup1\n      mload\n        /* \"packages/revolution-contracts/VerbsAuctionHouse.sol\":12014:12018  bool */\n      0x00\n        /* \"packages/revolution-contracts/VerbsAuctionHouse.sol\":12086:12098  new bytes(0) */\n      dup1\n      dup3\n      mstore\n      0x20\n      dup3\n      add\n      swap1\n      swap3\n      mstore\n        /* \"packages/revolution-contracts/VerbsAuctionHouse.sol\":12014:12018  bool */\n      dup2\n      swap1\n      sub(shl(0xa0, 0x01), 0x01)\n        /* \"packages/revolution-contracts/VerbsAuctionHouse.sol\":12049:12056  to.call */\n      dup6\n      and\n      swap1\n        /* \"packages/revolution-contracts/VerbsAuctionHouse.sol\":12077:12083  30_000 */\n      0x7530\n      swap1\n        /* \"packages/revolution-contracts/VerbsAuctionHouse.sol\":12065:12070  value */\n      dup6\n      swap1\n        /* \"packages/revolution-contracts/VerbsAuctionHouse.sol\":12049:12099  to.call{ value: value, gas: 30_000 }(new bytes(0)) */\n      mload(0x40)\n      tag_401\n      swap2\n      swap1\n      tag_402\n      jump\t// in\n    tag_401:\n      0x00\n      mload(0x40)\n      dup1\n      dup4\n      sub\n      dup2\n      dup6\n      dup9\n      dup9\n      call\n      swap4\n      pop\n      pop\n      pop\n      pop\n      returndatasize\n      dup1\n      0x00\n      dup2\n      eq\n      tag_405\n      jumpi\n      mload(0x40)\n      swap2\n      pop\n      and(add(returndatasize, 0x3f), not(0x1f))\n      dup3\n      add\n      0x40\n      mstore\n      returndatasize\n      dup3\n      mstore\n      returndatasize\n      0x00\n      0x20\n      dup5\n      add\n      returndatacopy\n      jump(tag_404)\n    tag_405:\n      0x60\n      swap2\n      pop\n    tag_404:\n      pop\n        /* \"packages/revolution-contracts/VerbsAuctionHouse.sol\":12030:12099  (bool success, ) = to.call{ value: value, gas: 30_000 }(new bytes(0)) */\n      swap1\n      swap3\n      pop\n      pop\n      pop\n        /* \"packages/revolution-contracts/VerbsAuctionHouse.sol\":11943:12130  function _safeTransferETH(address to, uint256 value) internal returns (bool) {... */\n    tag_397:\n      swap3\n      swap2\n      pop\n      pop\n      jump\t// out\n        /* \"packages/revolution-contracts/libs/SignedWadMath.sol\":2209:3136  function wadMul(int256 x, int256 y) pure returns (int256 r) {... */\n    tag_331:\n        /* \"packages/revolution-contracts/libs/SignedWadMath.sol\":2375:2384  mul(x, y) */\n      dup2\n      dup2\n      mul\n        /* \"packages/revolution-contracts/libs/SignedWadMath.sol\":2880:2889  iszero(x) */\n      dup3\n      iszero\n        /* \"packages/revolution-contracts/libs/SignedWadMath.sol\":2894:2904  sdiv(r, x) */\n      dup4\n      dup3\n      sdiv\n        /* \"packages/revolution-contracts/libs/SignedWadMath.sol\":2891:2908  eq(sdiv(r, x), y) */\n      dup4\n      eq\n        /* \"packages/revolution-contracts/libs/SignedWadMath.sol\":2877:2909  or(iszero(x), eq(sdiv(r, x), y)) */\n      or\n      not(0x00)\n        /* \"packages/revolution-contracts/libs/SignedWadMath.sol\":2914:2927  lt(x, not(0)) */\n      dup5\n      lt\n      shl(0xff, 0x01)\n        /* \"packages/revolution-contracts/libs/SignedWadMath.sol\":2929:3003  sgt(y, 0x8000000000000000000000000000000000000000000000000000000000000000) */\n      dup5\n      sgt\n        /* \"packages/revolution-contracts/libs/SignedWadMath.sol\":2911:3004  or(lt(x, not(0)), sgt(y, 0x8000000000000000000000000000000000000000000000000000000000000000)) */\n      or\n        /* \"packages/revolution-contracts/libs/SignedWadMath.sol\":2873:3005  and(or(iszero(x), eq(sdiv(r, x), y)), or(lt(x, not(0)), sgt(y, 0x8000000000000000000000000000000000000000000000000000000000000000))) */\n      and\n        /* \"packages/revolution-contracts/libs/SignedWadMath.sol\":2863:3043  if iszero(and(or(iszero(x), eq(sdiv(r, x), y)), or(lt(x, not(0)), sgt(y, 0x8000000000000000000000000000000000000000000000000000000000000000)))) {... */\n      tag_407\n      jumpi\n        /* \"packages/revolution-contracts/libs/SignedWadMath.sol\":3031:3032  0 */\n      0x00\n        /* \"packages/revolution-contracts/libs/SignedWadMath.sol\":3028:3029  0 */\n      dup1\n        /* \"packages/revolution-contracts/libs/SignedWadMath.sol\":3021:3033  revert(0, 0) */\n      revert\n        /* \"packages/revolution-contracts/libs/SignedWadMath.sol\":2863:3043  if iszero(and(or(iszero(x), eq(sdiv(r, x), y)), or(lt(x, not(0)), sgt(y, 0x8000000000000000000000000000000000000000000000000000000000000000)))) {... */\n    tag_407:\n        /* \"packages/revolution-contracts/libs/SignedWadMath.sol\":3108:3127  1000000000000000000 */\n      0x0de0b6b3a7640000\n        /* \"packages/revolution-contracts/libs/SignedWadMath.sol\":3100:3128  sdiv(r, 1000000000000000000) */\n      swap1\n      sdiv\n      swap3\n        /* \"packages/revolution-contracts/libs/SignedWadMath.sol\":2209:3136  function wadMul(int256 x, int256 y) pure returns (int256 r) {... */\n      swap2\n      pop\n      pop\n      jump\t// out\n        /* \"packages/revolution-contracts/libs/SignedWadMath.sol\":3138:3579  function wadDiv(int256 x, int256 y) pure returns (int256 r) {... */\n    tag_332:\n        /* \"packages/revolution-contracts/libs/SignedWadMath.sol\":3314:3333  1000000000000000000 */\n      0x0de0b6b3a7640000\n        /* \"packages/revolution-contracts/libs/SignedWadMath.sol\":3307:3334  mul(x, 1000000000000000000) */\n      dup3\n      dup2\n      mul\n      swap1\n        /* \"packages/revolution-contracts/libs/SignedWadMath.sol\":3449:3477  sdiv(r, 1000000000000000000) */\n      dup2\n      sdiv\n        /* \"packages/revolution-contracts/libs/SignedWadMath.sol\":3446:3481  eq(sdiv(r, 1000000000000000000), x) */\n      dup4\n      eq\n        /* \"packages/revolution-contracts/libs/SignedWadMath.sol\":3434:3443  iszero(y) */\n      dup3\n      iszero\n        /* \"packages/revolution-contracts/libs/SignedWadMath.sol\":3427:3444  iszero(iszero(y)) */\n      iszero\n        /* \"packages/revolution-contracts/libs/SignedWadMath.sol\":3423:3482  and(iszero(iszero(y)), eq(sdiv(r, 1000000000000000000), x)) */\n      and\n        /* \"packages/revolution-contracts/libs/SignedWadMath.sol\":3413:3520  if iszero(and(iszero(iszero(y)), eq(sdiv(r, 1000000000000000000), x))) {... */\n      tag_409\n      jumpi\n        /* \"packages/revolution-contracts/libs/SignedWadMath.sol\":3508:3509  0 */\n      0x00\n        /* \"packages/revolution-contracts/libs/SignedWadMath.sol\":3505:3506  0 */\n      dup1\n        /* \"packages/revolution-contracts/libs/SignedWadMath.sol\":3498:3510  revert(0, 0) */\n      revert\n        /* \"packages/revolution-contracts/libs/SignedWadMath.sol\":3413:3520  if iszero(and(iszero(iszero(y)), eq(sdiv(r, 1000000000000000000), x))) {... */\n    tag_409:\n        /* \"packages/revolution-contracts/libs/SignedWadMath.sol\":3561:3571  sdiv(r, y) */\n      sdiv\n      swap2\n        /* \"packages/revolution-contracts/libs/SignedWadMath.sol\":3138:3579  function wadDiv(int256 x, int256 y) pure returns (int256 r) {... */\n      swap1\n      pop\n      jump\t// out\n        /* \"@openzeppelin/contracts-upgradeable/proxy/utils/Initializable.sol\":7084:7225  function _checkInitializing() internal view virtual {... */\n    tag_378:\n        /* \"@openzeppelin/contracts-upgradeable/proxy/utils/Initializable.sol\":8870:8891  INITIALIZABLE_STORAGE */\n      0xf0c57e16840df040f15088dc2f81fe391c3923bec73e23a9662efc9c229c6a00\n        /* \"@openzeppelin/contracts-upgradeable/proxy/utils/Initializable.sol\":8560:8600  _getInitializableStorage()._initializing */\n      sload\n      shl(0x40, 0x01)\n      swap1\n      div\n      0xff\n      and\n        /* \"@openzeppelin/contracts-upgradeable/proxy/utils/Initializable.sol\":7146:7219  if (!_isInitializing()) {... */\n      tag_138\n      jumpi\n        /* \"@openzeppelin/contracts-upgradeable/proxy/utils/Initializable.sol\":7191:7208  NotInitializing() */\n      mload(0x40)\n      shl(0xe3, 0x1afcd79f)\n      dup2\n      mstore\n      0x04\n      add\n      mload(0x40)\n      dup1\n      swap2\n      sub\n      swap1\n      revert\n        /* \"@openzeppelin/contracts-upgradeable/utils/PausableUpgradeable.sol\":1939:2095  function __Pausable_init_unchained() internal onlyInitializing {... */\n    tag_381:\n        /* \"@openzeppelin/contracts-upgradeable/proxy/utils/Initializable.sol\":6931:6951  _checkInitializing() */\n      tag_415\n        /* \"@openzeppelin/contracts-upgradeable/proxy/utils/Initializable.sol\":6931:6949  _checkInitializing */\n      tag_378\n        /* \"@openzeppelin/contracts-upgradeable/proxy/utils/Initializable.sol\":6931:6951  _checkInitializing() */\n      jump\t// in\n    tag_415:\n      0x00\n      dup1\n      mload\n      0x20\n      data_c0c65a3718f3702d917c44106b91645b509d2e2d0979b70495c3babce192339f\n      dup4\n      codecopy\n      dup2\n      mload\n      swap2\n      mstore\n        /* \"@openzeppelin/contracts-upgradeable/utils/PausableUpgradeable.sol\":2071:2088  $._paused = false */\n      dup1\n      sload\n      not(0xff)\n      and\n      swap1\n      sstore\n        /* \"@openzeppelin/contracts-upgradeable/utils/PausableUpgradeable.sol\":1939:2095  function __Pausable_init_unchained() internal onlyInitializing {... */\n      jump\t// out\n        /* \"@openzeppelin/contracts-upgradeable/utils/ReentrancyGuardUpgradeable.sol\":2657:2840  function __ReentrancyGuard_init_unchained() internal onlyInitializing {... */\n    tag_386:\n        /* \"@openzeppelin/contracts-upgradeable/proxy/utils/Initializable.sol\":6931:6951  _checkInitializing() */\n      tag_177\n        /* \"@openzeppelin/contracts-upgradeable/proxy/utils/Initializable.sol\":6931:6949  _checkInitializing */\n      tag_378\n        /* \"@openzeppelin/contracts-upgradeable/proxy/utils/Initializable.sol\":6931:6951  _checkInitializing() */\n      jump\t// in\n        /* \"@openzeppelin/contracts-upgradeable/access/OwnableUpgradeable.sol\":1980:2215  function __Ownable_init_unchained(address initialOwner) internal onlyInitializing {... */\n    tag_391:\n        /* \"@openzeppelin/contracts-upgradeable/proxy/utils/Initializable.sol\":6931:6951  _checkInitializing() */\n      tag_237\n        /* \"@openzeppelin/contracts-upgradeable/proxy/utils/Initializable.sol\":6931:6949  _checkInitializing */\n      tag_378\n        /* \"@openzeppelin/contracts-upgradeable/proxy/utils/Initializable.sol\":6931:6951  _checkInitializing() */\n      jump\t// in\n        /* \"#utility.yul\":424:580   */\n    tag_430:\n        /* \"#utility.yul\":490:510   */\n      dup1\n      calldataload\n        /* \"#utility.yul\":550:554   */\n      0xff\n        /* \"#utility.yul\":539:555   */\n      dup2\n      and\n        /* \"#utility.yul\":529:556   */\n      dup2\n      eq\n        /* \"#utility.yul\":519:574   */\n      tag_447\n      jumpi\n        /* \"#utility.yul\":570:571   */\n      0x00\n        /* \"#utility.yul\":567:568   */\n      dup1\n        /* \"#utility.yul\":560:572   */\n      revert\n        /* \"#utility.yul\":519:574   */\n    tag_447:\n        /* \"#utility.yul\":424:580   */\n      swap2\n      swap1\n      pop\n      jump\t// out\n        /* \"#utility.yul\":585:767   */\n    tag_45:\n        /* \"#utility.yul\":642:648   */\n      0x00\n        /* \"#utility.yul\":695:697   */\n      0x20\n        /* \"#utility.yul\":683:692   */\n      dup3\n        /* \"#utility.yul\":674:681   */\n      dup5\n        /* \"#utility.yul\":670:693   */\n      sub\n        /* \"#utility.yul\":666:698   */\n      slt\n        /* \"#utility.yul\":663:715   */\n      iszero\n      tag_449\n      jumpi\n        /* \"#utility.yul\":711:712   */\n      0x00\n        /* \"#utility.yul\":708:709   */\n      dup1\n        /* \"#utility.yul\":701:713   */\n      revert\n        /* \"#utility.yul\":663:715   */\n    tag_449:\n        /* \"#utility.yul\":734:761   */\n      tag_450\n        /* \"#utility.yul\":751:760   */\n      dup3\n        /* \"#utility.yul\":734:761   */\n      tag_430\n      jump\t// in\n    tag_450:\n        /* \"#utility.yul\":724:761   */\n      swap4\n        /* \"#utility.yul\":585:767   */\n      swap3\n      pop\n      pop\n      pop\n      jump\t// out\n        /* \"#utility.yul\":1402:1582   */\n    tag_67:\n        /* \"#utility.yul\":1461:1467   */\n      0x00\n        /* \"#utility.yul\":1514:1516   */\n      0x20\n        /* \"#utility.yul\":1502:1511   */\n      dup3\n        /* \"#utility.yul\":1493:1500   */\n      dup5\n        /* \"#utility.yul\":1489:1512   */\n      sub\n        /* \"#utility.yul\":1485:1517   */\n      slt\n        /* \"#utility.yul\":1482:1534   */\n      iszero\n      tag_455\n      jumpi\n        /* \"#utility.yul\":1530:1531   */\n      0x00\n        /* \"#utility.yul\":1527:1528   */\n      dup1\n        /* \"#utility.yul\":1520:1532   */\n      revert\n        /* \"#utility.yul\":1482:1534   */\n    tag_455:\n      pop\n        /* \"#utility.yul\":1553:1576   */\n      calldataload\n      swap2\n        /* \"#utility.yul\":1402:1582   */\n      swap1\n      pop\n      jump\t// out\n        /* \"#utility.yul\":2179:2323   */\n    tag_431:\n      sub(shl(0xa0, 0x01), 0x01)\n        /* \"#utility.yul\":2267:2298   */\n      dup2\n      and\n        /* \"#utility.yul\":2257:2299   */\n      dup2\n      eq\n        /* \"#utility.yul\":2247:2317   */\n      tag_176\n      jumpi\n        /* \"#utility.yul\":2313:2314   */\n      0x00\n        /* \"#utility.yul\":2310:2311   */\n      dup1\n        /* \"#utility.yul\":2303:2315   */\n      revert\n        /* \"#utility.yul\":2328:3509   */\n    tag_94:\n        /* \"#utility.yul\":2508:2514   */\n      0x00\n        /* \"#utility.yul\":2516:2522   */\n      dup1\n        /* \"#utility.yul\":2524:2530   */\n      0x00\n        /* \"#utility.yul\":2532:2538   */\n      dup1\n        /* \"#utility.yul\":2540:2546   */\n      0x00\n        /* \"#utility.yul\":2548:2554   */\n      dup1\n        /* \"#utility.yul\":2556:2562   */\n      0x00\n        /* \"#utility.yul\":2564:2570   */\n      dup1\n        /* \"#utility.yul\":2572:2578   */\n      0x00\n        /* \"#utility.yul\":2580:2586   */\n      dup1\n        /* \"#utility.yul\":2633:2636   */\n      0x0140\n        /* \"#utility.yul\":2621:2630   */\n      dup12\n        /* \"#utility.yul\":2612:2619   */\n      dup14\n        /* \"#utility.yul\":2608:2631   */\n      sub\n        /* \"#utility.yul\":2604:2637   */\n      slt\n        /* \"#utility.yul\":2601:2654   */\n      iszero\n      tag_460\n      jumpi\n        /* \"#utility.yul\":2650:2651   */\n      0x00\n        /* \"#utility.yul\":2647:2648   */\n      dup1\n        /* \"#utility.yul\":2640:2652   */\n      revert\n        /* \"#utility.yul\":2601:2654   */\n    tag_460:\n        /* \"#utility.yul\":2689:2698   */\n      dup11\n        /* \"#utility.yul\":2676:2699   */\n      calldataload\n        /* \"#utility.yul\":2708:2752   */\n      tag_461\n        /* \"#utility.yul\":2746:2751   */\n      dup2\n        /* \"#utility.yul\":2708:2752   */\n      tag_431\n      jump\t// in\n    tag_461:\n        /* \"#utility.yul\":2771:2776   */\n      swap10\n      pop\n        /* \"#utility.yul\":2828:2830   */\n      0x20\n        /* \"#utility.yul\":2813:2831   */\n      dup12\n      add\n        /* \"#utility.yul\":2800:2832   */\n      calldataload\n        /* \"#utility.yul\":2841:2887   */\n      tag_462\n        /* \"#utility.yul\":2800:2832   */\n      dup2\n        /* \"#utility.yul\":2841:2887   */\n      tag_431\n      jump\t// in\n    tag_462:\n        /* \"#utility.yul\":2906:2913   */\n      swap9\n      pop\n        /* \"#utility.yul\":2965:2967   */\n      0x40\n        /* \"#utility.yul\":2950:2968   */\n      dup12\n      add\n        /* \"#utility.yul\":2937:2969   */\n      calldataload\n        /* \"#utility.yul\":2978:3024   */\n      tag_463\n        /* \"#utility.yul\":2937:2969   */\n      dup2\n        /* \"#utility.yul\":2978:3024   */\n      tag_431\n      jump\t// in\n    tag_463:\n        /* \"#utility.yul\":3043:3050   */\n      swap8\n      pop\n        /* \"#utility.yul\":3102:3104   */\n      0x60\n        /* \"#utility.yul\":3087:3105   */\n      dup12\n      add\n        /* \"#utility.yul\":3074:3106   */\n      calldataload\n        /* \"#utility.yul\":3115:3161   */\n      tag_464\n        /* \"#utility.yul\":3074:3106   */\n      dup2\n        /* \"#utility.yul\":3115:3161   */\n      tag_431\n      jump\t// in\n    tag_464:\n        /* \"#utility.yul\":3180:3187   */\n      swap7\n      pop\n        /* \"#utility.yul\":3234:3237   */\n      0x80\n        /* \"#utility.yul\":3219:3238   */\n      dup12\n      add\n        /* \"#utility.yul\":3206:3239   */\n      calldataload\n      swap6\n      pop\n        /* \"#utility.yul\":3286:3289   */\n      0xa0\n        /* \"#utility.yul\":3271:3290   */\n      dup12\n      add\n        /* \"#utility.yul\":3258:3291   */\n      calldataload\n      swap5\n      pop\n        /* \"#utility.yul\":3310:3347   */\n      tag_465\n        /* \"#utility.yul\":3342:3345   */\n      0xc0\n        /* \"#utility.yul\":3327:3346   */\n      dup13\n      add\n        /* \"#utility.yul\":3310:3347   */\n      tag_430\n      jump\t// in\n    tag_465:\n        /* \"#utility.yul\":3300:3347   */\n      swap4\n      pop\n        /* \"#utility.yul\":3394:3397   */\n      0xe0\n        /* \"#utility.yul\":3383:3392   */\n      dup12\n        /* \"#utility.yul\":3379:3398   */\n      add\n        /* \"#utility.yul\":3366:3399   */\n      calldataload\n        /* \"#utility.yul\":3356:3399   */\n      swap3\n      pop\n        /* \"#utility.yul\":3446:3449   */\n      0x0100\n        /* \"#utility.yul\":3435:3444   */\n      dup12\n        /* \"#utility.yul\":3431:3450   */\n      add\n        /* \"#utility.yul\":3418:3451   */\n      calldataload\n        /* \"#utility.yul\":3408:3451   */\n      swap2\n      pop\n        /* \"#utility.yul\":3498:3501   */\n      0x0120\n        /* \"#utility.yul\":3487:3496   */\n      dup12\n        /* \"#utility.yul\":3483:3502   */\n      add\n        /* \"#utility.yul\":3470:3503   */\n      calldataload\n        /* \"#utility.yul\":3460:3503   */\n      swap1\n      pop\n        /* \"#utility.yul\":2328:3509   */\n      swap3\n      swap6\n      swap9\n      swap12\n      swap2\n      swap5\n      swap8\n      swap11\n      pop\n      swap3\n      swap6\n      swap9\n      pop\n      jump\t// out\n        /* \"#utility.yul\":3703:3963   */\n    tag_119:\n        /* \"#utility.yul\":3762:3768   */\n      0x00\n        /* \"#utility.yul\":3815:3817   */\n      0x20\n        /* \"#utility.yul\":3803:3812   */\n      dup3\n        /* \"#utility.yul\":3794:3801   */\n      dup5\n        /* \"#utility.yul\":3790:3813   */\n      sub\n        /* \"#utility.yul\":3786:3818   */\n      slt\n        /* \"#utility.yul\":3783:3835   */\n      iszero\n      tag_468\n      jumpi\n        /* \"#utility.yul\":3831:3832   */\n      0x00\n        /* \"#utility.yul\":3828:3829   */\n      dup1\n        /* \"#utility.yul\":3821:3833   */\n      revert\n        /* \"#utility.yul\":3783:3835   */\n    tag_468:\n        /* \"#utility.yul\":3870:3879   */\n      dup2\n        /* \"#utility.yul\":3857:3880   */\n      calldataload\n        /* \"#utility.yul\":3889:3933   */\n      tag_450\n        /* \"#utility.yul\":3927:3932   */\n      dup2\n        /* \"#utility.yul\":3889:3933   */\n      tag_431\n      jump\t// in\n        /* \"#utility.yul\":5215:5342   */\n    tag_432:\n        /* \"#utility.yul\":5276:5286   */\n      0x4e487b71\n        /* \"#utility.yul\":5271:5274   */\n      0xe0\n        /* \"#utility.yul\":5267:5287   */\n      shl\n        /* \"#utility.yul\":5264:5265   */\n      0x00\n        /* \"#utility.yul\":5257:5288   */\n      mstore\n        /* \"#utility.yul\":5307:5311   */\n      0x11\n        /* \"#utility.yul\":5304:5305   */\n      0x04\n        /* \"#utility.yul\":5297:5312   */\n      mstore\n        /* \"#utility.yul\":5331:5335   */\n      0x24\n        /* \"#utility.yul\":5328:5329   */\n      0x00\n        /* \"#utility.yul\":5321:5336   */\n      revert\n        /* \"#utility.yul\":5347:5515   */\n    tag_157:\n        /* \"#utility.yul\":5420:5429   */\n      dup1\n      dup3\n      mul\n        /* \"#utility.yul\":5451:5460   */\n      dup2\n      iszero\n        /* \"#utility.yul\":5468:5483   */\n      dup3\n      dup3\n      div\n        /* \"#utility.yul\":5462:5484   */\n      dup5\n      eq\n        /* \"#utility.yul\":5448:5485   */\n      or\n        /* \"#utility.yul\":5438:5509   */\n      tag_397\n      jumpi\n        /* \"#utility.yul\":5489:5507   */\n      tag_397\n      tag_432\n      jump\t// in\n        /* \"#utility.yul\":5520:5737   */\n    tag_159:\n        /* \"#utility.yul\":5560:5561   */\n      0x00\n        /* \"#utility.yul\":5586:5587   */\n      dup3\n        /* \"#utility.yul\":5576:5708   */\n      tag_479\n      jumpi\n        /* \"#utility.yul\":5630:5640   */\n      0x4e487b71\n        /* \"#utility.yul\":5625:5628   */\n      0xe0\n        /* \"#utility.yul\":5621:5641   */\n      shl\n        /* \"#utility.yul\":5618:5619   */\n      0x00\n        /* \"#utility.yul\":5611:5642   */\n      mstore\n        /* \"#utility.yul\":5665:5669   */\n      0x12\n        /* \"#utility.yul\":5662:5663   */\n      0x04\n        /* \"#utility.yul\":5655:5670   */\n      mstore\n        /* \"#utility.yul\":5693:5697   */\n      0x24\n        /* \"#utility.yul\":5690:5691   */\n      0x00\n        /* \"#utility.yul\":5683:5698   */\n      revert\n        /* \"#utility.yul\":5576:5708   */\n    tag_479:\n      pop\n        /* \"#utility.yul\":5722:5731   */\n      div\n      swap1\n        /* \"#utility.yul\":5520:5737   */\n      jump\t// out\n        /* \"#utility.yul\":5742:5867   */\n    tag_161:\n        /* \"#utility.yul\":5807:5816   */\n      dup1\n      dup3\n      add\n        /* \"#utility.yul\":5828:5838   */\n      dup1\n      dup3\n      gt\n        /* \"#utility.yul\":5825:5861   */\n      iszero\n      tag_397\n      jumpi\n        /* \"#utility.yul\":5841:5859   */\n      tag_397\n      tag_432\n      jump\t// in\n        /* \"#utility.yul\":6305:6433   */\n    tag_169:\n        /* \"#utility.yul\":6372:6381   */\n      dup2\n      dup2\n      sub\n        /* \"#utility.yul\":6393:6404   */\n      dup2\n      dup2\n      gt\n        /* \"#utility.yul\":6390:6427   */\n      iszero\n      tag_397\n      jumpi\n        /* \"#utility.yul\":6407:6425   */\n      tag_397\n      tag_432\n      jump\t// in\n        /* \"#utility.yul\":7012:7196   */\n    tag_258:\n        /* \"#utility.yul\":7082:7088   */\n      0x00\n        /* \"#utility.yul\":7135:7137   */\n      0x20\n        /* \"#utility.yul\":7123:7132   */\n      dup3\n        /* \"#utility.yul\":7114:7121   */\n      dup5\n        /* \"#utility.yul\":7110:7133   */\n      sub\n        /* \"#utility.yul\":7106:7138   */\n      slt\n        /* \"#utility.yul\":7103:7155   */\n      iszero\n      tag_490\n      jumpi\n        /* \"#utility.yul\":7151:7152   */\n      0x00\n        /* \"#utility.yul\":7148:7149   */\n      dup1\n        /* \"#utility.yul\":7141:7153   */\n      revert\n        /* \"#utility.yul\":7103:7155   */\n    tag_490:\n      pop\n        /* \"#utility.yul\":7174:7190   */\n      mload\n      swap2\n        /* \"#utility.yul\":7012:7196   */\n      swap1\n      pop\n      jump\t// out\n        /* \"#utility.yul\":7201:7380   */\n    tag_264:\n        /* \"#utility.yul\":7236:7239   */\n      0x00\n        /* \"#utility.yul\":7278:7279   */\n      0x03\n        /* \"#utility.yul\":7260:7276   */\n      returndatasize\n        /* \"#utility.yul\":7257:7280   */\n      gt\n        /* \"#utility.yul\":7254:7374   */\n      iszero\n      tag_492\n      jumpi\n        /* \"#utility.yul\":7324:7325   */\n      0x04\n        /* \"#utility.yul\":7321:7322   */\n      0x00\n        /* \"#utility.yul\":7318:7319   */\n      dup1\n        /* \"#utility.yul\":7303:7326   */\n      returndatacopy\n      pop\n        /* \"#utility.yul\":7361:7362   */\n      0x00\n        /* \"#utility.yul\":7355:7363   */\n      mload\n        /* \"#utility.yul\":7350:7353   */\n      0xe0\n        /* \"#utility.yul\":7346:7364   */\n      shr\n        /* \"#utility.yul\":7254:7374   */\n    tag_492:\n        /* \"#utility.yul\":7201:7380   */\n      swap1\n      jump\t// out\n        /* \"#utility.yul\":7385:7512   */\n    tag_344:\n        /* \"#utility.yul\":7446:7456   */\n      0x4e487b71\n        /* \"#utility.yul\":7441:7444   */\n      0xe0\n        /* \"#utility.yul\":7437:7457   */\n      shl\n        /* \"#utility.yul\":7434:7435   */\n      0x00\n        /* \"#utility.yul\":7427:7458   */\n      mstore\n        /* \"#utility.yul\":7477:7481   */\n      0x41\n        /* \"#utility.yul\":7474:7475   */\n      0x04\n        /* \"#utility.yul\":7467:7482   */\n      mstore\n        /* \"#utility.yul\":7501:7505   */\n      0x24\n        /* \"#utility.yul\":7498:7499   */\n      0x00\n        /* \"#utility.yul\":7491:7506   */\n      revert\n        /* \"#utility.yul\":7517:7740   */\n    tag_433:\n        /* \"#utility.yul\":7603:7605   */\n      0x40\n        /* \"#utility.yul\":7595:7601   */\n      dup2\n        /* \"#utility.yul\":7591:7606   */\n      add\n        /* \"#utility.yul\":7672:7678   */\n      dup2\n        /* \"#utility.yul\":7660:7670   */\n      dup2\n        /* \"#utility.yul\":7657:7679   */\n      lt\n        /* \"#utility.yul\":7636:7654   */\n      0xffffffffffffffff\n        /* \"#utility.yul\":7624:7634   */\n      dup3\n        /* \"#utility.yul\":7621:7655   */\n      gt\n        /* \"#utility.yul\":7618:7680   */\n      or\n        /* \"#utility.yul\":7615:7703   */\n      iszero\n      tag_496\n      jumpi\n        /* \"#utility.yul\":7683:7701   */\n      tag_496\n      tag_344\n      jump\t// in\n    tag_496:\n        /* \"#utility.yul\":7719:7721   */\n      0x40\n        /* \"#utility.yul\":7712:7734   */\n      mstore\n      pop\n        /* \"#utility.yul\":7517:7740   */\n      jump\t// out\n        /* \"#utility.yul\":7745:7970   */\n    tag_434:\n        /* \"#utility.yul\":7831:7835   */\n      0xa0\n        /* \"#utility.yul\":7823:7829   */\n      dup2\n        /* \"#utility.yul\":7819:7836   */\n      add\n        /* \"#utility.yul\":7902:7908   */\n      dup2\n        /* \"#utility.yul\":7890:7900   */\n      dup2\n        /* \"#utility.yul\":7887:7909   */\n      lt\n        /* \"#utility.yul\":7866:7884   */\n      0xffffffffffffffff\n        /* \"#utility.yul\":7854:7864   */\n      dup3\n        /* \"#utility.yul\":7851:7885   */\n      gt\n        /* \"#utility.yul\":7848:7910   */\n      or\n        /* \"#utility.yul\":7845:7933   */\n      iszero\n      tag_496\n      jumpi\n        /* \"#utility.yul\":7913:7931   */\n      tag_496\n      tag_344\n      jump\t// in\n        /* \"#utility.yul\":7975:8224   */\n    tag_435:\n        /* \"#utility.yul\":8085:8087   */\n      0x1f\n        /* \"#utility.yul\":8066:8079   */\n      dup3\n      add\n      not(0x1f)\n        /* \"#utility.yul\":8062:8089   */\n      and\n        /* \"#utility.yul\":8050:8090   */\n      dup2\n      add\n        /* \"#utility.yul\":8120:8138   */\n      0xffffffffffffffff\n        /* \"#utility.yul\":8105:8139   */\n      dup2\n      gt\n        /* \"#utility.yul\":8141:8163   */\n      dup3\n      dup3\n      lt\n        /* \"#utility.yul\":8102:8164   */\n      or\n        /* \"#utility.yul\":8099:8187   */\n      iszero\n      tag_502\n      jumpi\n        /* \"#utility.yul\":8167:8185   */\n      tag_502\n      tag_344\n      jump\t// in\n    tag_502:\n        /* \"#utility.yul\":8203:8205   */\n      0x40\n        /* \"#utility.yul\":8196:8218   */\n      mstore\n      pop\n      pop\n        /* \"#utility.yul\":7975:8224   */\n      jump\t// out\n        /* \"#utility.yul\":8229:8900   */\n    tag_266:\n        /* \"#utility.yul\":8268:8271   */\n      0x00\n        /* \"#utility.yul\":8310:8314   */\n      0x44\n        /* \"#utility.yul\":8292:8308   */\n      returndatasize\n        /* \"#utility.yul\":8289:8315   */\n      lt\n        /* \"#utility.yul\":8286:8325   */\n      iszero\n      tag_504\n      jumpi\n        /* \"#utility.yul\":8229:8900   */\n      swap1\n      jump\t// out\n        /* \"#utility.yul\":8286:8325   */\n    tag_504:\n        /* \"#utility.yul\":8352:8354   */\n      0x40\n        /* \"#utility.yul\":8346:8355   */\n      mload\n      not(0x03)\n        /* \"#utility.yul\":8417:8433   */\n      returndatasize\n        /* \"#utility.yul\":8413:8438   */\n      dup2\n      add\n        /* \"#utility.yul\":8410:8411   */\n      0x04\n        /* \"#utility.yul\":8346:8355   */\n      dup4\n        /* \"#utility.yul\":8389:8439   */\n      returndatacopy\n        /* \"#utility.yul\":8468:8472   */\n      dup2\n        /* \"#utility.yul\":8462:8473   */\n      mload\n        /* \"#utility.yul\":8492:8508   */\n      returndatasize\n        /* \"#utility.yul\":8527:8545   */\n      0xffffffffffffffff\n        /* \"#utility.yul\":8598:8600   */\n      dup2\n        /* \"#utility.yul\":8591:8595   */\n      0x24\n        /* \"#utility.yul\":8583:8589   */\n      dup5\n        /* \"#utility.yul\":8579:8596   */\n      add\n        /* \"#utility.yul\":8576:8601   */\n      gt\n        /* \"#utility.yul\":8571:8573   */\n      dup2\n        /* \"#utility.yul\":8563:8569   */\n      dup5\n        /* \"#utility.yul\":8560:8574   */\n      gt\n        /* \"#utility.yul\":8557:8602   */\n      or\n        /* \"#utility.yul\":8554:8612   */\n      iszero\n      tag_505\n      jumpi\n        /* \"#utility.yul\":8605:8610   */\n      pop\n      pop\n      pop\n      pop\n      pop\n        /* \"#utility.yul\":8229:8900   */\n      swap1\n      jump\t// out\n        /* \"#utility.yul\":8554:8612   */\n    tag_505:\n        /* \"#utility.yul\":8642:8648   */\n      dup3\n        /* \"#utility.yul\":8636:8640   */\n      dup6\n        /* \"#utility.yul\":8632:8649   */\n      add\n        /* \"#utility.yul\":8621:8649   */\n      swap2\n      pop\n        /* \"#utility.yul\":8678:8681   */\n      dup2\n        /* \"#utility.yul\":8672:8682   */\n      mload\n        /* \"#utility.yul\":8705:8707   */\n      dup2\n        /* \"#utility.yul\":8697:8703   */\n      dup2\n        /* \"#utility.yul\":8694:8708   */\n      gt\n        /* \"#utility.yul\":8691:8718   */\n      iszero\n      tag_506\n      jumpi\n        /* \"#utility.yul\":8711:8716   */\n      pop\n      pop\n      pop\n      pop\n      pop\n      pop\n        /* \"#utility.yul\":8229:8900   */\n      swap1\n      jump\t// out\n        /* \"#utility.yul\":8691:8718   */\n    tag_506:\n        /* \"#utility.yul\":8795:8797   */\n      dup5\n        /* \"#utility.yul\":8776:8792   */\n      returndatasize\n        /* \"#utility.yul\":8770:8774   */\n      dup8\n        /* \"#utility.yul\":8766:8793   */\n      add\n        /* \"#utility.yul\":8762:8798   */\n      add\n        /* \"#utility.yul\":8755:8759   */\n      0x20\n        /* \"#utility.yul\":8746:8752   */\n      dup3\n        /* \"#utility.yul\":8741:8744   */\n      dup6\n        /* \"#utility.yul\":8737:8753   */\n      add\n        /* \"#utility.yul\":8733:8760   */\n      add\n        /* \"#utility.yul\":8730:8799   */\n      gt\n        /* \"#utility.yul\":8727:8809   */\n      iszero\n      tag_507\n      jumpi\n        /* \"#utility.yul\":8802:8807   */\n      pop\n      pop\n      pop\n      pop\n      pop\n      pop\n        /* \"#utility.yul\":8229:8900   */\n      swap1\n      jump\t// out\n        /* \"#utility.yul\":8727:8809   */\n    tag_507:\n        /* \"#utility.yul\":8818:8875   */\n      tag_508\n        /* \"#utility.yul\":8869:8873   */\n      0x20\n        /* \"#utility.yul\":8860:8866   */\n      dup3\n        /* \"#utility.yul\":8852:8858   */\n      dup7\n        /* \"#utility.yul\":8848:8867   */\n      add\n        /* \"#utility.yul\":8844:8874   */\n      add\n        /* \"#utility.yul\":8838:8842   */\n      dup8\n        /* \"#utility.yul\":8818:8875   */\n      tag_435\n      jump\t// in\n    tag_508:\n      pop\n        /* \"#utility.yul\":8891:8894   */\n      swap1\n      swap6\n        /* \"#utility.yul\":8229:8900   */\n      swap5\n      pop\n      pop\n      pop\n      pop\n      pop\n      jump\t// out\n        /* \"#utility.yul\":9437:9601   */\n    tag_436:\n        /* \"#utility.yul\":9513:9526   */\n      dup1\n      mload\n        /* \"#utility.yul\":9562:9575   */\n      dup1\n      iszero\n        /* \"#utility.yul\":9555:9576   */\n      iszero\n        /* \"#utility.yul\":9545:9577   */\n      dup2\n      eq\n        /* \"#utility.yul\":9535:9595   */\n      tag_447\n      jumpi\n        /* \"#utility.yul\":9591:9592   */\n      0x00\n        /* \"#utility.yul\":9588:9589   */\n      dup1\n        /* \"#utility.yul\":9581:9593   */\n      revert\n        /* \"#utility.yul\":9606:9808   */\n    tag_290:\n        /* \"#utility.yul\":9673:9679   */\n      0x00\n        /* \"#utility.yul\":9726:9728   */\n      0x20\n        /* \"#utility.yul\":9714:9723   */\n      dup3\n        /* \"#utility.yul\":9705:9712   */\n      dup5\n        /* \"#utility.yul\":9701:9724   */\n      sub\n        /* \"#utility.yul\":9697:9729   */\n      slt\n        /* \"#utility.yul\":9694:9746   */\n      iszero\n      tag_514\n      jumpi\n        /* \"#utility.yul\":9742:9743   */\n      0x00\n        /* \"#utility.yul\":9739:9740   */\n      dup1\n        /* \"#utility.yul\":9732:9744   */\n      revert\n        /* \"#utility.yul\":9694:9746   */\n    tag_514:\n        /* \"#utility.yul\":9765:9802   */\n      tag_450\n        /* \"#utility.yul\":9792:9801   */\n      dup3\n        /* \"#utility.yul\":9765:9802   */\n      tag_436\n      jump\t// in\n        /* \"#utility.yul\":11264:11464   */\n    tag_330:\n        /* \"#utility.yul\":11330:11339   */\n      dup2\n      dup2\n      sub\n        /* \"#utility.yul\":11303:11307   */\n      0x00\n        /* \"#utility.yul\":11358:11367   */\n      dup4\n      slt\n        /* \"#utility.yul\":11386:11396   */\n      dup1\n      iszero\n        /* \"#utility.yul\":11398:11410   */\n      dup4\n      dup4\n      sgt\n        /* \"#utility.yul\":11382:11411   */\n      and\n        /* \"#utility.yul\":11421:11433   */\n      dup4\n      dup4\n      slt\n        /* \"#utility.yul\":11413:11434   */\n      dup3\n      and\n        /* \"#utility.yul\":11379:11435   */\n      or\n        /* \"#utility.yul\":11376:11458   */\n      iszero\n      tag_522\n      jumpi\n        /* \"#utility.yul\":11438:11456   */\n      tag_522\n      tag_432\n      jump\t// in\n    tag_522:\n        /* \"#utility.yul\":11376:11458   */\n      pop\n        /* \"#utility.yul\":11264:11464   */\n      swap3\n      swap2\n      pop\n      pop\n      jump\t// out\n        /* \"#utility.yul\":11469:11717   */\n    tag_437:\n        /* \"#utility.yul\":11536:11538   */\n      0x40\n        /* \"#utility.yul\":11530:11539   */\n      mload\n        /* \"#utility.yul\":11578:11582   */\n      0xc0\n        /* \"#utility.yul\":11566:11583   */\n      dup2\n      add\n        /* \"#utility.yul\":11613:11631   */\n      0xffffffffffffffff\n        /* \"#utility.yul\":11598:11632   */\n      dup2\n      gt\n        /* \"#utility.yul\":11634:11656   */\n      dup3\n      dup3\n      lt\n        /* \"#utility.yul\":11595:11657   */\n      or\n        /* \"#utility.yul\":11592:11680   */\n      iszero\n      tag_525\n      jumpi\n        /* \"#utility.yul\":11660:11678   */\n      tag_525\n      tag_344\n      jump\t// in\n    tag_525:\n        /* \"#utility.yul\":11696:11698   */\n      0x40\n        /* \"#utility.yul\":11689:11711   */\n      mstore\n        /* \"#utility.yul\":11469:11717   */\n      swap1\n      jump\t// out\n        /* \"#utility.yul\":11722:11972   */\n    tag_438:\n        /* \"#utility.yul\":11807:11808   */\n      0x00\n        /* \"#utility.yul\":11817:11930   */\n    tag_527:\n        /* \"#utility.yul\":11831:11837   */\n      dup4\n        /* \"#utility.yul\":11828:11829   */\n      dup2\n        /* \"#utility.yul\":11825:11838   */\n      lt\n        /* \"#utility.yul\":11817:11930   */\n      iszero\n      tag_529\n      jumpi\n        /* \"#utility.yul\":11907:11918   */\n      dup2\n      dup2\n      add\n        /* \"#utility.yul\":11901:11919   */\n      mload\n        /* \"#utility.yul\":11888:11899   */\n      dup4\n      dup3\n      add\n        /* \"#utility.yul\":11881:11920   */\n      mstore\n        /* \"#utility.yul\":11853:11855   */\n      0x20\n        /* \"#utility.yul\":11846:11856   */\n      add\n        /* \"#utility.yul\":11817:11930   */\n      jump(tag_527)\n    tag_529:\n      pop\n      pop\n        /* \"#utility.yul\":11964:11965   */\n      0x00\n        /* \"#utility.yul\":11946:11962   */\n      swap2\n      add\n        /* \"#utility.yul\":11939:11966   */\n      mstore\n        /* \"#utility.yul\":11722:11972   */\n      jump\t// out\n        /* \"#utility.yul\":11977:12513   */\n    tag_439:\n        /* \"#utility.yul\":12031:12036   */\n      0x00\n        /* \"#utility.yul\":12084:12087   */\n      dup3\n        /* \"#utility.yul\":12077:12081   */\n      0x1f\n        /* \"#utility.yul\":12069:12075   */\n      dup4\n        /* \"#utility.yul\":12065:12082   */\n      add\n        /* \"#utility.yul\":12061:12088   */\n      slt\n        /* \"#utility.yul\":12051:12106   */\n      tag_531\n      jumpi\n        /* \"#utility.yul\":12102:12103   */\n      0x00\n        /* \"#utility.yul\":12099:12100   */\n      dup1\n        /* \"#utility.yul\":12092:12104   */\n      revert\n        /* \"#utility.yul\":12051:12106   */\n    tag_531:\n        /* \"#utility.yul\":12131:12137   */\n      dup2\n        /* \"#utility.yul\":12125:12138   */\n      mload\n        /* \"#utility.yul\":12157:12175   */\n      0xffffffffffffffff\n        /* \"#utility.yul\":12153:12155   */\n      dup2\n        /* \"#utility.yul\":12150:12176   */\n      gt\n        /* \"#utility.yul\":12147:12199   */\n      iszero\n      tag_533\n      jumpi\n        /* \"#utility.yul\":12179:12197   */\n      tag_533\n      tag_344\n      jump\t// in\n    tag_533:\n        /* \"#utility.yul\":12228:12230   */\n      0x40\n        /* \"#utility.yul\":12222:12231   */\n      mload\n        /* \"#utility.yul\":12240:12307   */\n      tag_534\n        /* \"#utility.yul\":12295:12297   */\n      0x1f\n        /* \"#utility.yul\":12276:12289   */\n      dup4\n      add\n      not(0x1f)\n        /* \"#utility.yul\":12272:12299   */\n      and\n        /* \"#utility.yul\":12301:12305   */\n      0x20\n        /* \"#utility.yul\":12268:12306   */\n      add\n        /* \"#utility.yul\":12222:12231   */\n      dup3\n        /* \"#utility.yul\":12240:12307   */\n      tag_435\n      jump\t// in\n    tag_534:\n        /* \"#utility.yul\":12331:12333   */\n      dup2\n        /* \"#utility.yul\":12323:12329   */\n      dup2\n        /* \"#utility.yul\":12316:12334   */\n      mstore\n        /* \"#utility.yul\":12377:12380   */\n      dup5\n        /* \"#utility.yul\":12370:12374   */\n      0x20\n        /* \"#utility.yul\":12365:12367   */\n      dup4\n        /* \"#utility.yul\":12357:12363   */\n      dup7\n        /* \"#utility.yul\":12353:12368   */\n      add\n        /* \"#utility.yul\":12349:12375   */\n      add\n        /* \"#utility.yul\":12346:12381   */\n      gt\n        /* \"#utility.yul\":12343:12398   */\n      iszero\n      tag_535\n      jumpi\n        /* \"#utility.yul\":12394:12395   */\n      0x00\n        /* \"#utility.yul\":12391:12392   */\n      dup1\n        /* \"#utility.yul\":12384:12396   */\n      revert\n        /* \"#utility.yul\":12343:12398   */\n    tag_535:\n        /* \"#utility.yul\":12407:12483   */\n      tag_536\n        /* \"#utility.yul\":12480:12482   */\n      dup3\n        /* \"#utility.yul\":12473:12477   */\n      0x20\n        /* \"#utility.yul\":12465:12471   */\n      dup4\n        /* \"#utility.yul\":12461:12478   */\n      add\n        /* \"#utility.yul\":12454:12458   */\n      0x20\n        /* \"#utility.yul\":12446:12452   */\n      dup8\n        /* \"#utility.yul\":12442:12459   */\n      add\n        /* \"#utility.yul\":12407:12483   */\n      tag_438\n      jump\t// in\n    tag_536:\n        /* \"#utility.yul\":12501:12507   */\n      swap5\n        /* \"#utility.yul\":11977:12513   */\n      swap4\n      pop\n      pop\n      pop\n      pop\n      jump\t// out\n        /* \"#utility.yul\":12518:12672   */\n    tag_440:\n        /* \"#utility.yul\":12604:12617   */\n      dup1\n      mload\n        /* \"#utility.yul\":12646:12647   */\n      0x06\n        /* \"#utility.yul\":12636:12648   */\n      dup2\n      lt\n        /* \"#utility.yul\":12626:12666   */\n      tag_447\n      jumpi\n        /* \"#utility.yul\":12662:12663   */\n      0x00\n        /* \"#utility.yul\":12659:12660   */\n      dup1\n        /* \"#utility.yul\":12652:12664   */\n      revert\n        /* \"#utility.yul\":12677:12828   */\n    tag_441:\n        /* \"#utility.yul\":12756:12769   */\n      dup1\n      mload\n        /* \"#utility.yul\":12778:12822   */\n      tag_447\n        /* \"#utility.yul\":12756:12769   */\n      dup2\n        /* \"#utility.yul\":12778:12822   */\n      tag_431\n      jump\t// in\n        /* \"#utility.yul\":12833:13927   */\n    tag_442:\n        /* \"#utility.yul\":12908:12913   */\n      0x00\n        /* \"#utility.yul\":12961:12964   */\n      dup3\n        /* \"#utility.yul\":12954:12958   */\n      0x1f\n        /* \"#utility.yul\":12946:12952   */\n      dup4\n        /* \"#utility.yul\":12942:12959   */\n      add\n        /* \"#utility.yul\":12938:12965   */\n      slt\n        /* \"#utility.yul\":12928:12983   */\n      tag_542\n      jumpi\n        /* \"#utility.yul\":12979:12980   */\n      0x00\n        /* \"#utility.yul\":12976:12977   */\n      dup1\n        /* \"#utility.yul\":12969:12981   */\n      revert\n        /* \"#utility.yul\":12928:12983   */\n    tag_542:\n        /* \"#utility.yul\":13008:13014   */\n      dup2\n        /* \"#utility.yul\":13002:13015   */\n      mload\n        /* \"#utility.yul\":13034:13038   */\n      0x20\n        /* \"#utility.yul\":13057:13075   */\n      0xffffffffffffffff\n        /* \"#utility.yul\":13053:13055   */\n      dup3\n        /* \"#utility.yul\":13050:13076   */\n      gt\n        /* \"#utility.yul\":13047:13099   */\n      iszero\n      tag_544\n      jumpi\n        /* \"#utility.yul\":13079:13097   */\n      tag_544\n      tag_344\n      jump\t// in\n    tag_544:\n        /* \"#utility.yul\":13118:13120   */\n      0x40\n        /* \"#utility.yul\":13149:13151   */\n      dup1\n        /* \"#utility.yul\":13143:13152   */\n      mload\n        /* \"#utility.yul\":13161:13209   */\n      tag_545\n        /* \"#utility.yul\":13205:13207   */\n      dup4\n        /* \"#utility.yul\":13200:13202   */\n      dup6\n        /* \"#utility.yul\":13197:13198   */\n      0x05\n        /* \"#utility.yul\":13193:13203   */\n      shl\n        /* \"#utility.yul\":13189:13208   */\n      add\n        /* \"#utility.yul\":13181:13187   */\n      dup3\n        /* \"#utility.yul\":13161:13209   */\n      tag_435\n      jump\t// in\n    tag_545:\n        /* \"#utility.yul\":13244:13262   */\n      dup4\n      dup2\n      mstore\n        /* \"#utility.yul\":13336:13337   */\n      0x06\n        /* \"#utility.yul\":13332:13342   */\n      swap4\n      swap1\n      swap4\n      shl\n        /* \"#utility.yul\":13320:13343   */\n      dup6\n      add\n        /* \"#utility.yul\":13316:13348   */\n      dup3\n      add\n      swap3\n        /* \"#utility.yul\":13278:13293   */\n      dup3\n      dup2\n      add\n        /* \"#utility.yul\":13360:13375   */\n      dup8\n      dup6\n      gt\n        /* \"#utility.yul\":13357:13392   */\n      iszero\n      tag_546\n      jumpi\n        /* \"#utility.yul\":13388:13389   */\n      0x00\n        /* \"#utility.yul\":13385:13386   */\n      dup1\n        /* \"#utility.yul\":13378:13390   */\n      revert\n        /* \"#utility.yul\":13357:13392   */\n    tag_546:\n        /* \"#utility.yul\":13424:13426   */\n      dup4\n        /* \"#utility.yul\":13416:13422   */\n      dup8\n        /* \"#utility.yul\":13412:13427   */\n      add\n        /* \"#utility.yul\":13436:13897   */\n    tag_547:\n        /* \"#utility.yul\":13452:13458   */\n      dup6\n        /* \"#utility.yul\":13447:13450   */\n      dup2\n        /* \"#utility.yul\":13444:13459   */\n      lt\n        /* \"#utility.yul\":13436:13897   */\n      iszero\n      tag_549\n      jumpi\n        /* \"#utility.yul\":13528:13530   */\n      dup4\n        /* \"#utility.yul\":13522:13525   */\n      dup2\n        /* \"#utility.yul\":13517:13520   */\n      dup11\n        /* \"#utility.yul\":13513:13526   */\n      sub\n        /* \"#utility.yul\":13509:13531   */\n      slt\n        /* \"#utility.yul\":13506:13548   */\n      iszero\n      tag_550\n      jumpi\n        /* \"#utility.yul\":13544:13545   */\n      0x00\n        /* \"#utility.yul\":13541:13542   */\n      dup1\n        /* \"#utility.yul\":13534:13546   */\n      revert\n        /* \"#utility.yul\":13506:13548   */\n    tag_550:\n        /* \"#utility.yul\":13583:13585   */\n      dup4\n        /* \"#utility.yul\":13577:13586   */\n      mload\n        /* \"#utility.yul\":13599:13633   */\n      tag_551\n        /* \"#utility.yul\":13624:13632   */\n      dup2\n        /* \"#utility.yul\":13599:13633   */\n      tag_433\n      jump\t// in\n    tag_551:\n        /* \"#utility.yul\":13665:13668   */\n      dup2\n        /* \"#utility.yul\":13659:13669   */\n      mload\n        /* \"#utility.yul\":13682:13726   */\n      tag_552\n        /* \"#utility.yul\":13720:13725   */\n      dup2\n        /* \"#utility.yul\":13682:13726   */\n      tag_431\n      jump\t// in\n    tag_552:\n        /* \"#utility.yul\":13739:13762   */\n      dup2\n      mstore\n        /* \"#utility.yul\":13807:13819   */\n      dup2\n      dup7\n      add\n        /* \"#utility.yul\":13801:13820   */\n      mload\n        /* \"#utility.yul\":13782:13799   */\n      dup7\n      dup3\n      add\n        /* \"#utility.yul\":13775:13821   */\n      mstore\n        /* \"#utility.yul\":13834:13855   */\n      dup3\n      mstore\n        /* \"#utility.yul\":13875:13887   */\n      swap1\n      dup5\n      add\n      swap1\n        /* \"#utility.yul\":13469:13481   */\n      dup4\n      add\n        /* \"#utility.yul\":13436:13897   */\n      jump(tag_547)\n    tag_549:\n      pop\n        /* \"#utility.yul\":13915:13921   */\n      swap1\n      swap8\n        /* \"#utility.yul\":12833:13927   */\n      swap7\n      pop\n      pop\n      pop\n      pop\n      pop\n      pop\n      pop\n      jump\t// out\n        /* \"#utility.yul\":13932:16018   */\n    tag_341:\n        /* \"#utility.yul\":14028:14034   */\n      0x00\n        /* \"#utility.yul\":14081:14083   */\n      0x20\n        /* \"#utility.yul\":14069:14078   */\n      dup3\n        /* \"#utility.yul\":14060:14067   */\n      dup5\n        /* \"#utility.yul\":14056:14079   */\n      sub\n        /* \"#utility.yul\":14052:14084   */\n      slt\n        /* \"#utility.yul\":14049:14101   */\n      iszero\n      tag_554\n      jumpi\n        /* \"#utility.yul\":14097:14098   */\n      0x00\n        /* \"#utility.yul\":14094:14095   */\n      dup1\n        /* \"#utility.yul\":14087:14099   */\n      revert\n        /* \"#utility.yul\":14049:14101   */\n    tag_554:\n        /* \"#utility.yul\":14130:14139   */\n      dup2\n        /* \"#utility.yul\":14124:14140   */\n      mload\n        /* \"#utility.yul\":14159:14177   */\n      0xffffffffffffffff\n        /* \"#utility.yul\":14200:14202   */\n      dup1\n        /* \"#utility.yul\":14192:14198   */\n      dup3\n        /* \"#utility.yul\":14189:14203   */\n      gt\n        /* \"#utility.yul\":14186:14220   */\n      iszero\n      tag_555\n      jumpi\n        /* \"#utility.yul\":14216:14217   */\n      0x00\n        /* \"#utility.yul\":14213:14214   */\n      dup1\n        /* \"#utility.yul\":14206:14218   */\n      revert\n        /* \"#utility.yul\":14186:14220   */\n    tag_555:\n        /* \"#utility.yul\":14239:14261   */\n      swap1\n      dup4\n      add\n      swap1\n        /* \"#utility.yul\":14295:14299   */\n      0xa0\n        /* \"#utility.yul\":14277:14293   */\n      dup3\n      dup7\n      sub\n        /* \"#utility.yul\":14273:14300   */\n      slt\n        /* \"#utility.yul\":14270:14317   */\n      iszero\n      tag_556\n      jumpi\n        /* \"#utility.yul\":14313:14314   */\n      0x00\n        /* \"#utility.yul\":14310:14311   */\n      dup1\n        /* \"#utility.yul\":14303:14315   */\n      revert\n        /* \"#utility.yul\":14270:14317   */\n    tag_556:\n        /* \"#utility.yul\":14346:14348   */\n      0x40\n        /* \"#utility.yul\":14340:14349   */\n      mload\n        /* \"#utility.yul\":14358:14390   */\n      tag_557\n        /* \"#utility.yul\":14383:14389   */\n      dup2\n        /* \"#utility.yul\":14358:14390   */\n      tag_434\n      jump\t// in\n    tag_557:\n        /* \"#utility.yul\":14420:14422   */\n      dup3\n        /* \"#utility.yul\":14414:14423   */\n      mload\n        /* \"#utility.yul\":14406:14412   */\n      dup2\n        /* \"#utility.yul\":14399:14424   */\n      mstore\n        /* \"#utility.yul\":14463:14465   */\n      0x20\n        /* \"#utility.yul\":14459:14461   */\n      dup4\n        /* \"#utility.yul\":14455:14466   */\n      add\n        /* \"#utility.yul\":14449:14467   */\n      mload\n        /* \"#utility.yul\":14492:14494   */\n      dup3\n        /* \"#utility.yul\":14482:14490   */\n      dup2\n        /* \"#utility.yul\":14479:14495   */\n      gt\n        /* \"#utility.yul\":14476:14512   */\n      iszero\n      tag_558\n      jumpi\n        /* \"#utility.yul\":14508:14509   */\n      0x00\n        /* \"#utility.yul\":14505:14506   */\n      dup1\n        /* \"#utility.yul\":14498:14510   */\n      revert\n        /* \"#utility.yul\":14476:14512   */\n    tag_558:\n        /* \"#utility.yul\":14531:14548   */\n      dup4\n      add\n        /* \"#utility.yul\":14582:14586   */\n      0xc0\n        /* \"#utility.yul\":14564:14580   */\n      dup2\n      dup9\n      sub\n        /* \"#utility.yul\":14560:14587   */\n      slt\n        /* \"#utility.yul\":14557:14604   */\n      iszero\n      tag_559\n      jumpi\n        /* \"#utility.yul\":14600:14601   */\n      0x00\n        /* \"#utility.yul\":14597:14598   */\n      dup1\n        /* \"#utility.yul\":14590:14602   */\n      revert\n        /* \"#utility.yul\":14557:14604   */\n    tag_559:\n        /* \"#utility.yul\":14626:14643   */\n      tag_560\n      tag_437\n      jump\t// in\n    tag_560:\n        /* \"#utility.yul\":14674:14676   */\n      dup2\n        /* \"#utility.yul\":14668:14677   */\n      mload\n        /* \"#utility.yul\":14702:14704   */\n      dup5\n        /* \"#utility.yul\":14692:14700   */\n      dup2\n        /* \"#utility.yul\":14689:14705   */\n      gt\n        /* \"#utility.yul\":14686:14722   */\n      iszero\n      tag_561\n      jumpi\n        /* \"#utility.yul\":14718:14719   */\n      0x00\n        /* \"#utility.yul\":14715:14716   */\n      dup1\n        /* \"#utility.yul\":14708:14720   */\n      revert\n        /* \"#utility.yul\":14686:14722   */\n    tag_561:\n        /* \"#utility.yul\":14745:14801   */\n      tag_562\n        /* \"#utility.yul\":14793:14800   */\n      dup10\n        /* \"#utility.yul\":14782:14790   */\n      dup3\n        /* \"#utility.yul\":14778:14780   */\n      dup6\n        /* \"#utility.yul\":14774:14791   */\n      add\n        /* \"#utility.yul\":14745:14801   */\n      tag_439\n      jump\t// in\n    tag_562:\n        /* \"#utility.yul\":14738:14743   */\n      dup3\n        /* \"#utility.yul\":14731:14802   */\n      mstore\n      pop\n        /* \"#utility.yul\":14841:14843   */\n      0x20\n        /* \"#utility.yul\":14837:14839   */\n      dup3\n        /* \"#utility.yul\":14833:14844   */\n      add\n        /* \"#utility.yul\":14827:14845   */\n      mload\n        /* \"#utility.yul\":14870:14872   */\n      dup5\n        /* \"#utility.yul\":14860:14868   */\n      dup2\n        /* \"#utility.yul\":14857:14873   */\n      gt\n        /* \"#utility.yul\":14854:14890   */\n      iszero\n      tag_563\n      jumpi\n        /* \"#utility.yul\":14886:14887   */\n      0x00\n        /* \"#utility.yul\":14883:14884   */\n      dup1\n        /* \"#utility.yul\":14876:14888   */\n      revert\n        /* \"#utility.yul\":14854:14890   */\n    tag_563:\n        /* \"#utility.yul\":14922:14978   */\n      tag_564\n        /* \"#utility.yul\":14970:14977   */\n      dup10\n        /* \"#utility.yul\":14959:14967   */\n      dup3\n        /* \"#utility.yul\":14955:14957   */\n      dup6\n        /* \"#utility.yul\":14951:14968   */\n      add\n        /* \"#utility.yul\":14922:14978   */\n      tag_439\n      jump\t// in\n    tag_564:\n        /* \"#utility.yul\":14917:14919   */\n      0x20\n        /* \"#utility.yul\":14910:14915   */\n      dup4\n        /* \"#utility.yul\":14906:14920   */\n      add\n        /* \"#utility.yul\":14899:14979   */\n      mstore\n      pop\n        /* \"#utility.yul\":15011:15060   */\n      tag_565\n        /* \"#utility.yul\":15056:15058   */\n      0x40\n        /* \"#utility.yul\":15052:15054   */\n      dup4\n        /* \"#utility.yul\":15048:15059   */\n      add\n        /* \"#utility.yul\":15011:15060   */\n      tag_440\n      jump\t// in\n    tag_565:\n        /* \"#utility.yul\":15006:15008   */\n      0x40\n        /* \"#utility.yul\":14999:15004   */\n      dup3\n        /* \"#utility.yul\":14995:15009   */\n      add\n        /* \"#utility.yul\":14988:15061   */\n      mstore\n        /* \"#utility.yul\":15100:15102   */\n      0x60\n        /* \"#utility.yul\":15096:15098   */\n      dup3\n        /* \"#utility.yul\":15092:15103   */\n      add\n        /* \"#utility.yul\":15086:15104   */\n      mload\n        /* \"#utility.yul\":15129:15131   */\n      dup5\n        /* \"#utility.yul\":15119:15127   */\n      dup2\n        /* \"#utility.yul\":15116:15132   */\n      gt\n        /* \"#utility.yul\":15113:15149   */\n      iszero\n      tag_566\n      jumpi\n        /* \"#utility.yul\":15145:15146   */\n      0x00\n        /* \"#utility.yul\":15142:15143   */\n      dup1\n        /* \"#utility.yul\":15135:15147   */\n      revert\n        /* \"#utility.yul\":15113:15149   */\n    tag_566:\n        /* \"#utility.yul\":15181:15237   */\n      tag_567\n        /* \"#utility.yul\":15229:15236   */\n      dup10\n        /* \"#utility.yul\":15218:15226   */\n      dup3\n        /* \"#utility.yul\":15214:15216   */\n      dup6\n        /* \"#utility.yul\":15210:15227   */\n      add\n        /* \"#utility.yul\":15181:15237   */\n      tag_439\n      jump\t// in\n    tag_567:\n        /* \"#utility.yul\":15176:15178   */\n      0x60\n        /* \"#utility.yul\":15169:15174   */\n      dup4\n        /* \"#utility.yul\":15165:15179   */\n      add\n        /* \"#utility.yul\":15158:15238   */\n      mstore\n      pop\n        /* \"#utility.yul\":15277:15280   */\n      0x80\n        /* \"#utility.yul\":15273:15275   */\n      dup3\n        /* \"#utility.yul\":15269:15281   */\n      add\n        /* \"#utility.yul\":15263:15282   */\n      mload\n        /* \"#utility.yul\":15307:15309   */\n      dup5\n        /* \"#utility.yul\":15297:15305   */\n      dup2\n        /* \"#utility.yul\":15294:15310   */\n      gt\n        /* \"#utility.yul\":15291:15327   */\n      iszero\n      tag_568\n      jumpi\n        /* \"#utility.yul\":15323:15324   */\n      0x00\n        /* \"#utility.yul\":15320:15321   */\n      dup1\n        /* \"#utility.yul\":15313:15325   */\n      revert\n        /* \"#utility.yul\":15291:15327   */\n    tag_568:\n        /* \"#utility.yul\":15360:15416   */\n      tag_569\n        /* \"#utility.yul\":15408:15415   */\n      dup10\n        /* \"#utility.yul\":15397:15405   */\n      dup3\n        /* \"#utility.yul\":15393:15395   */\n      dup6\n        /* \"#utility.yul\":15389:15406   */\n      add\n        /* \"#utility.yul\":15360:15416   */\n      tag_439\n      jump\t// in\n    tag_569:\n        /* \"#utility.yul\":15354:15357   */\n      0x80\n        /* \"#utility.yul\":15347:15352   */\n      dup4\n        /* \"#utility.yul\":15343:15358   */\n      add\n        /* \"#utility.yul\":15336:15417   */\n      mstore\n      pop\n        /* \"#utility.yul\":15456:15460   */\n      0xa0\n        /* \"#utility.yul\":15452:15454   */\n      dup3\n        /* \"#utility.yul\":15448:15461   */\n      add\n        /* \"#utility.yul\":15442:15462   */\n      mload\n        /* \"#utility.yul\":15487:15489   */\n      dup5\n        /* \"#utility.yul\":15477:15485   */\n      dup2\n        /* \"#utility.yul\":15474:15490   */\n      gt\n        /* \"#utility.yul\":15471:15507   */\n      iszero\n      tag_570\n      jumpi\n        /* \"#utility.yul\":15503:15504   */\n      0x00\n        /* \"#utility.yul\":15500:15501   */\n      dup1\n        /* \"#utility.yul\":15493:15505   */\n      revert\n        /* \"#utility.yul\":15471:15507   */\n    tag_570:\n        /* \"#utility.yul\":15541:15597   */\n      tag_571\n        /* \"#utility.yul\":15589:15596   */\n      dup10\n        /* \"#utility.yul\":15578:15586   */\n      dup3\n        /* \"#utility.yul\":15574:15576   */\n      dup6\n        /* \"#utility.yul\":15570:15587   */\n      add\n        /* \"#utility.yul\":15541:15597   */\n      tag_439\n      jump\t// in\n    tag_571:\n        /* \"#utility.yul\":15534:15538   */\n      0xa0\n        /* \"#utility.yul\":15523:15539   */\n      dup4\n      add\n        /* \"#utility.yul\":15516:15598   */\n      mstore\n      pop\n        /* \"#utility.yul\":15626:15628   */\n      0x20\n        /* \"#utility.yul\":15614:15629   */\n      dup4\n      add\n        /* \"#utility.yul\":15607:15637   */\n      mstore\n      pop\n        /* \"#utility.yul\":15676:15678   */\n      0x40\n        /* \"#utility.yul\":15668:15679   */\n      dup4\n      add\n        /* \"#utility.yul\":15662:15680   */\n      mload\n        /* \"#utility.yul\":15692:15708   */\n      dup3\n      dup2\n      gt\n        /* \"#utility.yul\":15689:15725   */\n      iszero\n      tag_572\n      jumpi\n        /* \"#utility.yul\":15721:15722   */\n      0x00\n        /* \"#utility.yul\":15718:15719   */\n      dup1\n        /* \"#utility.yul\":15711:15723   */\n      revert\n        /* \"#utility.yul\":15689:15725   */\n    tag_572:\n        /* \"#utility.yul\":15758:15835   */\n      tag_573\n        /* \"#utility.yul\":15827:15834   */\n      dup8\n        /* \"#utility.yul\":15816:15824   */\n      dup3\n        /* \"#utility.yul\":15812:15814   */\n      dup7\n        /* \"#utility.yul\":15808:15825   */\n      add\n        /* \"#utility.yul\":15758:15835   */\n      tag_442\n      jump\t// in\n    tag_573:\n        /* \"#utility.yul\":15753:15755   */\n      0x40\n        /* \"#utility.yul\":15745:15751   */\n      dup4\n        /* \"#utility.yul\":15741:15756   */\n      add\n        /* \"#utility.yul\":15734:15836   */\n      mstore\n      pop\n        /* \"#utility.yul\":15869:15911   */\n      tag_574\n        /* \"#utility.yul\":15907:15909   */\n      0x60\n        /* \"#utility.yul\":15903:15905   */\n      dup5\n        /* \"#utility.yul\":15899:15910   */\n      add\n        /* \"#utility.yul\":15869:15911   */\n      tag_441\n      jump\t// in\n    tag_574:\n        /* \"#utility.yul\":15864:15866   */\n      0x60\n        /* \"#utility.yul\":15856:15862   */\n      dup3\n        /* \"#utility.yul\":15852:15867   */\n      add\n        /* \"#utility.yul\":15845:15912   */\n      mstore\n        /* \"#utility.yul\":15946:15986   */\n      tag_575\n        /* \"#utility.yul\":15981:15984   */\n      0x80\n        /* \"#utility.yul\":15977:15979   */\n      dup5\n        /* \"#utility.yul\":15973:15985   */\n      add\n        /* \"#utility.yul\":15946:15986   */\n      tag_436\n      jump\t// in\n    tag_575:\n        /* \"#utility.yul\":15940:15943   */\n      0x80\n        /* \"#utility.yul\":15928:15944   */\n      dup3\n      add\n        /* \"#utility.yul\":15921:15987   */\n      mstore\n        /* \"#utility.yul\":15932:15938   */\n      swap6\n        /* \"#utility.yul\":13932:16018   */\n      swap5\n      pop\n      pop\n      pop\n      pop\n      pop\n      jump\t// out\n        /* \"#utility.yul\":16023:16150   */\n    tag_360:\n        /* \"#utility.yul\":16084:16094   */\n      0x4e487b71\n        /* \"#utility.yul\":16079:16082   */\n      0xe0\n        /* \"#utility.yul\":16075:16095   */\n      shl\n        /* \"#utility.yul\":16072:16073   */\n      0x00\n        /* \"#utility.yul\":16065:16096   */\n      mstore\n        /* \"#utility.yul\":16115:16119   */\n      0x32\n        /* \"#utility.yul\":16112:16113   */\n      0x04\n        /* \"#utility.yul\":16105:16120   */\n      mstore\n        /* \"#utility.yul\":16139:16143   */\n      0x24\n        /* \"#utility.yul\":16136:16137   */\n      0x00\n        /* \"#utility.yul\":16129:16144   */\n      revert\n        /* \"#utility.yul\":16155:17405   */\n    tag_369:\n        /* \"#utility.yul\":16451:16453   */\n      0x60\n        /* \"#utility.yul\":16463:16484   */\n      dup1\n      dup3\n      mstore\n        /* \"#utility.yul\":16533:16546   */\n      dup5\n      mload\n        /* \"#utility.yul\":16436:16454   */\n      swap1\n      dup3\n      add\n        /* \"#utility.yul\":16555:16577   */\n      dup2\n      swap1\n      mstore\n        /* \"#utility.yul\":16403:16407   */\n      0x00\n      swap1\n        /* \"#utility.yul\":16631:16635   */\n      0x20\n      swap1\n        /* \"#utility.yul\":16608:16611   */\n      0x80\n        /* \"#utility.yul\":16593:16612   */\n      dup5\n      add\n      swap1\n        /* \"#utility.yul\":16658:16673   */\n      dup3\n      dup9\n      add\n        /* \"#utility.yul\":16403:16407   */\n      dup5\n        /* \"#utility.yul\":16701:16896   */\n    tag_578:\n        /* \"#utility.yul\":16715:16721   */\n      dup3\n        /* \"#utility.yul\":16712:16713   */\n      dup2\n        /* \"#utility.yul\":16709:16722   */\n      lt\n        /* \"#utility.yul\":16701:16896   */\n      iszero\n      tag_580\n      jumpi\n        /* \"#utility.yul\":16780:16793   */\n      dup2\n      mload\n      sub(shl(0xa0, 0x01), 0x01)\n        /* \"#utility.yul\":16776:16815   */\n      and\n        /* \"#utility.yul\":16764:16816   */\n      dup5\n      mstore\n        /* \"#utility.yul\":16836:16848   */\n      swap3\n      dup5\n      add\n      swap3\n        /* \"#utility.yul\":16871:16886   */\n      swap1\n      dup5\n      add\n      swap1\n        /* \"#utility.yul\":16812:16813   */\n      0x01\n        /* \"#utility.yul\":16730:16739   */\n      add\n        /* \"#utility.yul\":16701:16896   */\n      jump(tag_578)\n    tag_580:\n      pop\n      pop\n      pop\n        /* \"#utility.yul\":16932:16951   */\n      dup4\n      dup2\n      sub\n        /* \"#utility.yul\":16912:16930   */\n      dup3\n      dup6\n      add\n        /* \"#utility.yul\":16905:16952   */\n      mstore\n        /* \"#utility.yul\":17002:17015   */\n      dup6\n      mload\n        /* \"#utility.yul\":17024:17045   */\n      dup1\n      dup3\n      mstore\n        /* \"#utility.yul\":17100:17115   */\n      dup7\n      dup4\n      add\n      swap2\n        /* \"#utility.yul\":17063:17075   */\n      dup4\n      add\n      swap1\n        /* \"#utility.yul\":17135:17136   */\n      0x00\n        /* \"#utility.yul\":17145:17334   */\n    tag_581:\n        /* \"#utility.yul\":17161:17169   */\n      dup2\n        /* \"#utility.yul\":17156:17159   */\n      dup2\n        /* \"#utility.yul\":17153:17170   */\n      lt\n        /* \"#utility.yul\":17145:17334   */\n      iszero\n      tag_583\n      jumpi\n        /* \"#utility.yul\":17230:17245   */\n      dup4\n      mload\n        /* \"#utility.yul\":17216:17246   */\n      dup4\n      mstore\n        /* \"#utility.yul\":17307:17324   */\n      swap3\n      dup5\n      add\n      swap3\n        /* \"#utility.yul\":17268:17282   */\n      swap2\n      dup5\n      add\n      swap2\n        /* \"#utility.yul\":17189:17190   */\n      0x01\n        /* \"#utility.yul\":17180:17191   */\n      add\n        /* \"#utility.yul\":17145:17334   */\n      jump(tag_581)\n    tag_583:\n        /* \"#utility.yul\":17149:17152   */\n      pop\n      pop\n        /* \"#utility.yul\":17351:17356   */\n      dup1\n        /* \"#utility.yul\":17343:17356   */\n      swap4\n      pop\n      pop\n      pop\n      pop\n        /* \"#utility.yul\":17392:17398   */\n      dup3\n        /* \"#utility.yul\":17387:17389   */\n      0x40\n        /* \"#utility.yul\":17376:17385   */\n      dup4\n        /* \"#utility.yul\":17372:17390   */\n      add\n        /* \"#utility.yul\":17365:17399   */\n      mstore\n        /* \"#utility.yul\":16155:17405   */\n      swap5\n      swap4\n      pop\n      pop\n      pop\n      pop\n      jump\t// out\n        /* \"#utility.yul\":17697:17984   */\n    tag_402:\n        /* \"#utility.yul\":17826:17829   */\n      0x00\n        /* \"#utility.yul\":17864:17870   */\n      dup3\n        /* \"#utility.yul\":17858:17871   */\n      mload\n        /* \"#utility.yul\":17880:17946   */\n      tag_586\n        /* \"#utility.yul\":17939:17945   */\n      dup2\n        /* \"#utility.yul\":17934:17937   */\n      dup5\n        /* \"#utility.yul\":17927:17931   */\n      0x20\n        /* \"#utility.yul\":17919:17925   */\n      dup8\n        /* \"#utility.yul\":17915:17932   */\n      add\n        /* \"#utility.yul\":17880:17946   */\n      tag_438\n      jump\t// in\n    tag_586:\n        /* \"#utility.yul\":17962:17978   */\n      swap2\n      swap1\n      swap2\n      add\n      swap3\n        /* \"#utility.yul\":17697:17984   */\n      swap2\n      pop\n      pop\n      jump\t// out\n    stop\n    data_c0c65a3718f3702d917c44106b91645b509d2e2d0979b70495c3babce192339f cd5ed15c6e187e77e9aee88184c21f4f2182ab5827cb3b7e07fbedcd63f03300\n    data_c8669cf8eaf883002b9f48e28846a8d408c9b58ea6613bace374265e43c9bc43 9b779b17422d0df92223018b32b4d1fa46e071723d6817e2486d003becc55f00\n\n    auxdata: 0xa2646970667358221220ebfa0740fd3fedcf63c0bf74daa353485f4f7ecb6ca40b0fdeaa7c60d0dca1b764736f6c63430008160033\n}\n",
				"bytecode": {
					"linkReferences": {},
					"object": "608060405234801561000f575f80fd5b50611d588061001d5f395ff3fe60806040526004361061013c575f3560e01c80637d9f6db5116100b3578063ce9c7c0d1161006d578063ce9c7c0d14610393578063db2e1eed146103b2578063ec91f2a4146103c7578063f25efffc146103dc578063f2fde38b146103f0578063fe95233b1461040f575f80fd5b80637d9f6db51461029a5780638456cb591461030d5780638da5cb5b14610321578063a4d0a17e14610335578063a910d31814610349578063b296024d14610368575f80fd5b80633f4ba83a116101045780633f4ba83a146101f35780633fc8cef3146102075780635c975abb14610226578063659dd2b4146102545780637120334b14610267578063715018a614610286575f80fd5b80630284464a146101405780630802be0a1461017b5780630fb5a6b41461019e57806336ebdb38146101b35780633d64baf1146101d4575b5f80fd5b34801561014b575f80fd5b505f5461015e906001600160a01b031681565b6040516001600160a01b0390911681526020015b60405180910390f35b348015610186575f80fd5b5061019060065481565b604051908152602001610172565b3480156101a9575f80fd5b5061019060085481565b3480156101be575f80fd5b506101d26101cd366004611629565b610424565b005b3480156101df575f80fd5b5060015461015e906001600160a01b031681565b3480156101fe575f80fd5b506101d2610475565b348015610212575f80fd5b5060025461015e906001600160a01b031681565b348015610231575f80fd5b505f80516020611ce38339815191525460ff166040519015158152602001610172565b6101d2610262366004611649565b6104ac565b348015610272575f80fd5b506101d2610281366004611649565b6107a4565b348015610291575f80fd5b506101d26107e1565b3480156102a5575f80fd5b50600954600a54600b54600c54600d546102d594939291906001600160a01b03811690600160a01b900460ff1686565b6040805196875260208701959095529385019290925260608401526001600160a01b03166080830152151560a082015260c001610172565b348015610318575f80fd5b506101d26107f2565b34801561032c575f80fd5b5061015e610802565b348015610340575f80fd5b506101d2610830565b348015610354575f80fd5b506101d2610363366004611674565b61085e565b348015610373575f80fd5b506005546103819060ff1681565b60405160ff9091168152602001610172565b34801561039e575f80fd5b506101d26103ad366004611649565b610a3b565b3480156103bd575f80fd5b5061019060045481565b3480156103d2575f80fd5b5061019060035481565b3480156103e7575f80fd5b506101d2610a78565b3480156103fb575f80fd5b506101d261040a36600461170d565b610a98565b34801561041a575f80fd5b5061019060075481565b61042c610ad2565b6005805460ff191660ff83169081179091556040519081527fec5ccd96cc77b6219e9d44143df916af68fc169339ea7de5008ff15eae13450d906020015b60405180910390a150565b61047d610ad2565b610485610b04565b600b54158061049d5750600d54600160a01b900460ff165b156104aa576104aa610b5d565b565b6104b4610cac565b6040805160c081018252600954808252600a546020830152600b5492820192909252600c546060820152600d546001600160a01b0381166080830152600160a01b900460ff16151560a08201529082146105555760405162461bcd60e51b815260206004820152601760248201527f56657262206e6f7420757020666f722061756374696f6e00000000000000000060448201526064015b60405180910390fd5b8060600151421061059a5760405162461bcd60e51b815260206004820152600f60248201526e105d58dd1a5bdb88195e1c1a5c9959608a1b604482015260640161054c565b6004543410156105ec5760405162461bcd60e51b815260206004820152601f60248201527f4d7573742073656e64206174206c656173742072657365727665507269636500604482015260640161054c565b60055460208201516064916106069160ff9091169061173c565b6106109190611753565b816020015161061f9190611772565b341015610696576040805162461bcd60e51b81526020600482015260248101919091527f4d7573742073656e64206d6f7265207468616e206c617374206269642062792060448201527f6d696e426964496e6372656d656e7450657263656e7461676520616d6f756e74606482015260840161054c565b60808101516001600160a01b038116156106b8576106b8818360200151610ce3565b34600a55600d80546001600160a01b0319163317905560035460608301515f91906106e4904290611785565b1090508015610705576003546106fa9042611772565b60608401819052600c555b8251604080513381523460208201528315158183015290517f1159164c56f277e6fc99c11731bd380e0347deb969b75523398734c252706ea39181900360600190a2801561078857825160608401516040519081527f6e912a3a9105bdd2af817ba5adc14e6c127c1035b5b648faa29ca0d58ab8ff4e9060200160405180910390a25b5050506107a160015f80516020611d0383398151915255565b50565b6107ac610ad2565b60038190556040518181527f1b55d9f7002bda4490f467e326f22a4a847629c0f2d1ed421607d318d25b410d9060200161046a565b6107e9610ad2565b6104aa5f610de3565b6107fa610ad2565b6104aa610e53565b7f9016d09d72d40fdae2fd8ceac6b6234c7706214fd39c1cd1e609a0528c199300546001600160a01b031690565b610838610e9b565b610840610cac565b610848610eca565b6104aa60015f80516020611d0383398151915255565b7ff0c57e16840df040f15088dc2f81fe391c3923bec73e23a9662efc9c229c6a008054600160401b810460ff16159067ffffffffffffffff165f811580156108a35750825b90505f8267ffffffffffffffff1660011480156108bf5750303b155b9050811580156108cd575080155b156108eb5760405163f92ee8a960e01b815260040160405180910390fd5b845467ffffffffffffffff19166001178555831561091557845460ff60401b1916600160401b1785555b61091d61146a565b61092561147a565b61092e8c61148a565b610936610e53565b8e5f806101000a8154816001600160a01b0302191690836001600160a01b031602179055508d60015f6101000a8154816001600160a01b0302191690836001600160a01b031602179055508c60025f6101000a8154816001600160a01b0302191690836001600160a01b031602179055508a600381905550896004819055508860055f6101000a81548160ff021916908360ff1602179055508760088190555086600681905550856007819055508315610a2a57845460ff60401b19168555604051600181527fc7f505b2f371ae2175ee4913f4499e1f2633a7b5936321eed1cdaeb6115181d29060200160405180910390a15b505050505050505050505050505050565b610a43610ad2565b60048190556040518181527f6ab2e127d7fdf53b8f304e59d3aab5bfe97979f52a85479691a6fab27a28a6b29060200161046a565b610a80610cac565b610a8861149b565b610a90610eca565b610848610b5d565b610aa0610ad2565b6001600160a01b038116610ac957604051631e4fbdf760e01b81525f600482015260240161054c565b6107a181610de3565b33610adb610802565b6001600160a01b0316146104aa5760405163118cdaa760e01b815233600482015260240161054c565b610b0c610e9b565b5f80516020611ce3833981519152805460ff191681557f5db9ee0a495bf2e6ff9c91a7834c1ba4fdd244a5e8aa4e537bd38aeae4b073aa335b6040516001600160a01b03909116815260200161046a565b5f8054906101000a90046001600160a01b03166001600160a01b0316631249c58b6040518163ffffffff1660e01b81526004016020604051808303815f875af1925050508015610bca575060408051601f3d908101601f19168201909252610bc791810190611798565b60015b610c0757610bd66117af565b806308c379a003610bfd5750610bea61184f565b80610bf55750610bff565b6107a1610e53565b505b3d5f803e3d5ffd5b60085442905f90610c189083611772565b6040805160c0810182528581525f6020808301829052828401879052606083018590526080830182905260a09092018190526009879055600a55600b859055600c839055600d80546001600160a81b0319169055815185815290810183905291925084917fd6eddd1118d71820909c1197aa966dbc15ed6f508554252169cc3d5ccac756ca910160405180910390a2505050565b5f80516020611d03833981519152805460011901610cdd57604051633ee5aeb560e01b815260040160405180910390fd5b60029055565b610ced82826114cb565b610dcc5760025f9054906101000a90046001600160a01b03166001600160a01b031663d0e30db0826040518263ffffffff1660e01b81526004015f604051808303818588803b158015610d3e575f80fd5b505af1158015610d50573d5f803e3d5ffd5b505060025460405163a9059cbb60e01b81526001600160a01b03878116600483015260248201879052909116935063a9059cbb925060440190506020604051808303815f875af1158015610da6573d5f803e3d5ffd5b505050506040513d601f19601f82011682018060405250810190610dca91906118e7565b505b5050565b60015f80516020611d0383398151915255565b7f9016d09d72d40fdae2fd8ceac6b6234c7706214fd39c1cd1e609a0528c19930080546001600160a01b031981166001600160a01b03848116918217845560405192169182907f8be0079c531659141344cd1fd0a4f28419497f9722a3daafe3b4186f6b6457e0905f90a3505050565b610e5b61149b565b5f80516020611ce3833981519152805460ff191660011781557f62e78cea01bee320cd4e420270b5ea74000d11b0c9f74754ebdbfc544b05a25833610b45565b5f80516020611ce38339815191525460ff166104aa57604051638dfc202b60e01b815260040160405180910390fd5b6040805160c0810182526009548152600a546020820152600b54918101829052600c546060820152600d546001600160a01b0381166080830152600160a01b900460ff16151560a0820152905f03610f5b5760405162461bcd60e51b815260206004820152601460248201527320bab1ba34b7b7103430b9b713ba103132b3bab760611b604482015260640161054c565b8060a0015115610fad5760405162461bcd60e51b815260206004820181905260248201527f41756374696f6e2068617320616c7265616479206265656e20736574746c6564604482015260640161054c565b80606001514210156110015760405162461bcd60e51b815260206004820152601860248201527f41756374696f6e206861736e277420636f6d706c657465640000000000000000604482015260640161054c565b600d805460ff60a01b1916600160a01b17905560808101516001600160a01b031661108b575f548151604051630852cd8d60e31b81526001600160a01b03909216916342966c68916110599160040190815260200190565b5f604051808303815f87803b158015611070575f80fd5b505af1158015611082573d5f803e3d5ffd5b505050506110f9565b5f54608082015182516040516323b872dd60e01b81523060048201526001600160a01b03928316602482015260448101919091529116906323b872dd906064015f604051808303815f87803b1580156110e2575f80fd5b505af11580156110f4573d5f803e3d5ffd5b505050505b60208101511561141a575f61112c611124836020015160065461271061111f9190611900565b611547565b612710611578565b90505f81836020015161113f9190611785565b90505f61115161112483600754611547565b90505f61115e8284611785565b5f805487516040516324d19ab160e11b8152600481019190915292935090916001600160a01b03909116906349a33562906024015f60405180830381865afa1580156111ac573d5f803e3d5ffd5b505050506040513d5f823e601f3d908101601f191682016040526111d39190810190611aa6565b604001515190505f8167ffffffffffffffff8111156111f4576111f46117c8565b60405190808252806020026020018201604052801561121d578160200160208202803683370190505b5090505f8267ffffffffffffffff81111561123a5761123a6117c8565b604051908082528060200260200182016040528015611263578160200160208202803683370190505b509050611277611271610802565b88610ce3565b5f5b83811015611399575f80548a516040516324d19ab160e11b81526001600160a01b03909216916349a33562916112b59160040190815260200190565b5f60405180830381865afa1580156112cf573d5f803e3d5ffd5b505050506040513d5f823e601f3d908101601f191682016040526112f69190810190611aa6565b60400151828151811061130b5761130b611c28565b60200260200101519050805f015184838151811061132b5761132b611c28565b60200260200101906001600160a01b031690816001600160a01b031681525050806020015183838151811061136257611362611c28565b6020026020010181815250505f611380611124898460200151611547565b905061138f825f015182610ce3565b5050600101611279565b5060015460405163dec86df160e01b81526001600160a01b039091169063dec86df19086906113d090869086908490600401611c3c565b60206040518083038185885af11580156113ec573d5f803e3d5ffd5b50505050506040513d601f19601f820116820180604052508101906114119190611798565b50505050505050505b80516080820151602080840151604080516001600160a01b039094168452918301527fc9f72b276a388619c6d185d146697036241880c36654b1a3ffdad07c24038d99910160405180910390a250565b61147261159b565b6104aa6115e4565b61148261159b565b6104aa611604565b61149261159b565b6107a18161160c565b5f80516020611ce38339815191525460ff16156104aa5760405163d93c066560e01b815260040160405180910390fd5b604080515f8082526020820190925281906001600160a01b038516906175309085906040516114fa9190611cc7565b5f60405180830381858888f193505050503d805f8114611535576040519150601f19603f3d011682016040523d82523d5f602084013e61153a565b606091505b5090925050505b92915050565b81810282158382058314175f198410600160ff1b84131716611567575f80fd5b670de0b6b3a7640000900592915050565b670de0b6b3a7640000828102908105831482151516611595575f80fd5b05919050565b7ff0c57e16840df040f15088dc2f81fe391c3923bec73e23a9662efc9c229c6a0054600160401b900460ff166104aa57604051631afcd79f60e31b815260040160405180910390fd5b6115ec61159b565b5f80516020611ce3833981519152805460ff19169055565b610dd061159b565b610aa061159b565b803560ff81168114611624575f80fd5b919050565b5f60208284031215611639575f80fd5b61164282611614565b9392505050565b5f60208284031215611659575f80fd5b5035919050565b6001600160a01b03811681146107a1575f80fd5b5f805f805f805f805f806101408b8d03121561168e575f80fd5b8a3561169981611660565b995060208b01356116a981611660565b985060408b01356116b981611660565b975060608b01356116c981611660565b965060808b0135955060a08b013594506116e560c08c01611614565b935060e08b013592506101008b013591506101208b013590509295989b9194979a5092959850565b5f6020828403121561171d575f80fd5b813561164281611660565b634e487b7160e01b5f52601160045260245ffd5b808202811582820484141761154157611541611728565b5f8261176d57634e487b7160e01b5f52601260045260245ffd5b500490565b8082018082111561154157611541611728565b8181038181111561154157611541611728565b5f602082840312156117a8575f80fd5b5051919050565b5f60033d11156117c55760045f803e505f5160e01c5b90565b634e487b7160e01b5f52604160045260245ffd5b6040810181811067ffffffffffffffff821117156117fc576117fc6117c8565b60405250565b60a0810181811067ffffffffffffffff821117156117fc576117fc6117c8565b601f8201601f1916810167ffffffffffffffff81118282101715611848576118486117c8565b6040525050565b5f60443d101561185c5790565b6040516003193d81016004833e81513d67ffffffffffffffff816024840111818411171561188c57505050505090565b82850191508151818111156118a45750505050505090565b843d87010160208285010111156118be5750505050505090565b6118cd60208286010187611822565b509095945050505050565b80518015158114611624575f80fd5b5f602082840312156118f7575f80fd5b611642826118d8565b8181035f83128015838313168383128216171561191f5761191f611728565b5092915050565b60405160c0810167ffffffffffffffff81118282101715611949576119496117c8565b60405290565b5f5b83811015611969578181015183820152602001611951565b50505f910152565b5f82601f830112611980575f80fd5b815167ffffffffffffffff81111561199a5761199a6117c8565b6040516119b1601f8301601f191660200182611822565b8181528460208386010111156119c5575f80fd5b6119d682602083016020870161194f565b949350505050565b805160068110611624575f80fd5b805161162481611660565b5f82601f830112611a06575f80fd5b8151602067ffffffffffffffff821115611a2257611a226117c8565b60408051611a35838560051b0182611822565b83815260069390931b850182019282810187851115611a52575f80fd5b8387015b85811015611a995783818a031215611a6c575f80fd5b8351611a77816117dc565b8151611a8281611660565b815281860151868201528252908401908301611a56565b5090979650505050505050565b5f60208284031215611ab6575f80fd5b815167ffffffffffffffff80821115611acd575f80fd5b9083019060a08286031215611ae0575f80fd5b604051611aec81611802565b82518152602083015182811115611b01575f80fd5b830160c08188031215611b12575f80fd5b611b1a611926565b815184811115611b28575f80fd5b611b3489828501611971565b825250602082015184811115611b48575f80fd5b611b5489828501611971565b602083015250611b66604083016119de565b6040820152606082015184811115611b7c575f80fd5b611b8889828501611971565b606083015250608082015184811115611b9f575f80fd5b611bab89828501611971565b60808301525060a082015184811115611bc2575f80fd5b611bce89828501611971565b60a083015250602083015250604083015182811115611beb575f80fd5b611bf7878286016119f7565b604083015250611c09606084016119ec565b6060820152611c1a608084016118d8565b608082015295945050505050565b634e487b7160e01b5f52603260045260245ffd5b606080825284519082018190525f906020906080840190828801845b82811015611c7d5781516001600160a01b031684529284019290840190600101611c58565b505050838103828501528551808252868301918301905f5b81811015611cb157835183529284019291840191600101611c95565b5050809350505050826040830152949350505050565b5f8251611cd881846020870161194f565b919091019291505056fecd5ed15c6e187e77e9aee88184c21f4f2182ab5827cb3b7e07fbedcd63f033009b779b17422d0df92223018b32b4d1fa46e071723d6817e2486d003becc55f00a2646970667358221220ebfa0740fd3fedcf63c0bf74daa353485f4f7ecb6ca40b0fdeaa7c60d0dca1b764736f6c63430008160033",
					"opcodes": "PUSH1 0x80 PUSH1 0x40 MSTORE CALLVALUE DUP1 ISZERO PUSH2 0xF JUMPI PUSH0 DUP1 REVERT JUMPDEST POP PUSH2 0x1D58 DUP1 PUSH2 0x1D PUSH0 CODECOPY PUSH0 RETURN INVALID PUSH1 0x80 PUSH1 0x40 MSTORE PUSH1 0x4 CALLDATASIZE LT PUSH2 0x13C JUMPI PUSH0 CALLDATALOAD PUSH1 0xE0 SHR DUP1 PUSH4 0x7D9F6DB5 GT PUSH2 0xB3 JUMPI DUP1 PUSH4 0xCE9C7C0D GT PUSH2 0x6D JUMPI DUP1 PUSH4 0xCE9C7C0D EQ PUSH2 0x393 JUMPI DUP1 PUSH4 0xDB2E1EED EQ PUSH2 0x3B2 JUMPI DUP1 PUSH4 0xEC91F2A4 EQ PUSH2 0x3C7 JUMPI DUP1 PUSH4 0xF25EFFFC EQ PUSH2 0x3DC JUMPI DUP1 PUSH4 0xF2FDE38B EQ PUSH2 0x3F0 JUMPI DUP1 PUSH4 0xFE95233B EQ PUSH2 0x40F JUMPI PUSH0 DUP1 REVERT JUMPDEST DUP1 PUSH4 0x7D9F6DB5 EQ PUSH2 0x29A JUMPI DUP1 PUSH4 0x8456CB59 EQ PUSH2 0x30D JUMPI DUP1 PUSH4 0x8DA5CB5B EQ PUSH2 0x321 JUMPI DUP1 PUSH4 0xA4D0A17E EQ PUSH2 0x335 JUMPI DUP1 PUSH4 0xA910D318 EQ PUSH2 0x349 JUMPI DUP1 PUSH4 0xB296024D EQ PUSH2 0x368 JUMPI PUSH0 DUP1 REVERT JUMPDEST DUP1 PUSH4 0x3F4BA83A GT PUSH2 0x104 JUMPI DUP1 PUSH4 0x3F4BA83A EQ PUSH2 0x1F3 JUMPI DUP1 PUSH4 0x3FC8CEF3 EQ PUSH2 0x207 JUMPI DUP1 PUSH4 0x5C975ABB EQ PUSH2 0x226 JUMPI DUP1 PUSH4 0x659DD2B4 EQ PUSH2 0x254 JUMPI DUP1 PUSH4 0x7120334B EQ PUSH2 0x267 JUMPI DUP1 PUSH4 0x715018A6 EQ PUSH2 0x286 JUMPI PUSH0 DUP1 REVERT JUMPDEST DUP1 PUSH4 0x284464A EQ PUSH2 0x140 JUMPI DUP1 PUSH4 0x802BE0A EQ PUSH2 0x17B JUMPI DUP1 PUSH4 0xFB5A6B4 EQ PUSH2 0x19E JUMPI DUP1 PUSH4 0x36EBDB38 EQ PUSH2 0x1B3 JUMPI DUP1 PUSH4 0x3D64BAF1 EQ PUSH2 0x1D4 JUMPI JUMPDEST PUSH0 DUP1 REVERT JUMPDEST CALLVALUE DUP1 ISZERO PUSH2 0x14B JUMPI PUSH0 DUP1 REVERT JUMPDEST POP PUSH0 SLOAD PUSH2 0x15E SWAP1 PUSH1 0x1 PUSH1 0x1 PUSH1 0xA0 SHL SUB AND DUP2 JUMP JUMPDEST PUSH1 0x40 MLOAD PUSH1 0x1 PUSH1 0x1 PUSH1 0xA0 SHL SUB SWAP1 SWAP2 AND DUP2 MSTORE PUSH1 0x20 ADD JUMPDEST PUSH1 0x40 MLOAD DUP1 SWAP2 SUB SWAP1 RETURN JUMPDEST CALLVALUE DUP1 ISZERO PUSH2 0x186 JUMPI PUSH0 DUP1 REVERT JUMPDEST POP PUSH2 0x190 PUSH1 0x6 SLOAD DUP2 JUMP JUMPDEST PUSH1 0x40 MLOAD SWAP1 DUP2 MSTORE PUSH1 0x20 ADD PUSH2 0x172 JUMP JUMPDEST CALLVALUE DUP1 ISZERO PUSH2 0x1A9 JUMPI PUSH0 DUP1 REVERT JUMPDEST POP PUSH2 0x190 PUSH1 0x8 SLOAD DUP2 JUMP JUMPDEST CALLVALUE DUP1 ISZERO PUSH2 0x1BE JUMPI PUSH0 DUP1 REVERT JUMPDEST POP PUSH2 0x1D2 PUSH2 0x1CD CALLDATASIZE PUSH1 0x4 PUSH2 0x1629 JUMP JUMPDEST PUSH2 0x424 JUMP JUMPDEST STOP JUMPDEST CALLVALUE DUP1 ISZERO PUSH2 0x1DF JUMPI PUSH0 DUP1 REVERT JUMPDEST POP PUSH1 0x1 SLOAD PUSH2 0x15E SWAP1 PUSH1 0x1 PUSH1 0x1 PUSH1 0xA0 SHL SUB AND DUP2 JUMP JUMPDEST CALLVALUE DUP1 ISZERO PUSH2 0x1FE JUMPI PUSH0 DUP1 REVERT JUMPDEST POP PUSH2 0x1D2 PUSH2 0x475 JUMP JUMPDEST CALLVALUE DUP1 ISZERO PUSH2 0x212 JUMPI PUSH0 DUP1 REVERT JUMPDEST POP PUSH1 0x2 SLOAD PUSH2 0x15E SWAP1 PUSH1 0x1 PUSH1 0x1 PUSH1 0xA0 SHL SUB AND DUP2 JUMP JUMPDEST CALLVALUE DUP1 ISZERO PUSH2 0x231 JUMPI PUSH0 DUP1 REVERT JUMPDEST POP PUSH0 DUP1 MLOAD PUSH1 0x20 PUSH2 0x1CE3 DUP4 CODECOPY DUP2 MLOAD SWAP2 MSTORE SLOAD PUSH1 0xFF AND PUSH1 0x40 MLOAD SWAP1 ISZERO ISZERO DUP2 MSTORE PUSH1 0x20 ADD PUSH2 0x172 JUMP JUMPDEST PUSH2 0x1D2 PUSH2 0x262 CALLDATASIZE PUSH1 0x4 PUSH2 0x1649 JUMP JUMPDEST PUSH2 0x4AC JUMP JUMPDEST CALLVALUE DUP1 ISZERO PUSH2 0x272 JUMPI PUSH0 DUP1 REVERT JUMPDEST POP PUSH2 0x1D2 PUSH2 0x281 CALLDATASIZE PUSH1 0x4 PUSH2 0x1649 JUMP JUMPDEST PUSH2 0x7A4 JUMP JUMPDEST CALLVALUE DUP1 ISZERO PUSH2 0x291 JUMPI PUSH0 DUP1 REVERT JUMPDEST POP PUSH2 0x1D2 PUSH2 0x7E1 JUMP JUMPDEST CALLVALUE DUP1 ISZERO PUSH2 0x2A5 JUMPI PUSH0 DUP1 REVERT JUMPDEST POP PUSH1 0x9 SLOAD PUSH1 0xA SLOAD PUSH1 0xB SLOAD PUSH1 0xC SLOAD PUSH1 0xD SLOAD PUSH2 0x2D5 SWAP5 SWAP4 SWAP3 SWAP2 SWAP1 PUSH1 0x1 PUSH1 0x1 PUSH1 0xA0 SHL SUB DUP2 AND SWAP1 PUSH1 0x1 PUSH1 0xA0 SHL SWAP1 DIV PUSH1 0xFF AND DUP7 JUMP JUMPDEST PUSH1 0x40 DUP1 MLOAD SWAP7 DUP8 MSTORE PUSH1 0x20 DUP8 ADD SWAP6 SWAP1 SWAP6 MSTORE SWAP4 DUP6 ADD SWAP3 SWAP1 SWAP3 MSTORE PUSH1 0x60 DUP5 ADD MSTORE PUSH1 0x1 PUSH1 0x1 PUSH1 0xA0 SHL SUB AND PUSH1 0x80 DUP4 ADD MSTORE ISZERO ISZERO PUSH1 0xA0 DUP3 ADD MSTORE PUSH1 0xC0 ADD PUSH2 0x172 JUMP JUMPDEST CALLVALUE DUP1 ISZERO PUSH2 0x318 JUMPI PUSH0 DUP1 REVERT JUMPDEST POP PUSH2 0x1D2 PUSH2 0x7F2 JUMP JUMPDEST CALLVALUE DUP1 ISZERO PUSH2 0x32C JUMPI PUSH0 DUP1 REVERT JUMPDEST POP PUSH2 0x15E PUSH2 0x802 JUMP JUMPDEST CALLVALUE DUP1 ISZERO PUSH2 0x340 JUMPI PUSH0 DUP1 REVERT JUMPDEST POP PUSH2 0x1D2 PUSH2 0x830 JUMP JUMPDEST CALLVALUE DUP1 ISZERO PUSH2 0x354 JUMPI PUSH0 DUP1 REVERT JUMPDEST POP PUSH2 0x1D2 PUSH2 0x363 CALLDATASIZE PUSH1 0x4 PUSH2 0x1674 JUMP JUMPDEST PUSH2 0x85E JUMP JUMPDEST CALLVALUE DUP1 ISZERO PUSH2 0x373 JUMPI PUSH0 DUP1 REVERT JUMPDEST POP PUSH1 0x5 SLOAD PUSH2 0x381 SWAP1 PUSH1 0xFF AND DUP2 JUMP JUMPDEST PUSH1 0x40 MLOAD PUSH1 0xFF SWAP1 SWAP2 AND DUP2 MSTORE PUSH1 0x20 ADD PUSH2 0x172 JUMP JUMPDEST CALLVALUE DUP1 ISZERO PUSH2 0x39E JUMPI PUSH0 DUP1 REVERT JUMPDEST POP PUSH2 0x1D2 PUSH2 0x3AD CALLDATASIZE PUSH1 0x4 PUSH2 0x1649 JUMP JUMPDEST PUSH2 0xA3B JUMP JUMPDEST CALLVALUE DUP1 ISZERO PUSH2 0x3BD JUMPI PUSH0 DUP1 REVERT JUMPDEST POP PUSH2 0x190 PUSH1 0x4 SLOAD DUP2 JUMP JUMPDEST CALLVALUE DUP1 ISZERO PUSH2 0x3D2 JUMPI PUSH0 DUP1 REVERT JUMPDEST POP PUSH2 0x190 PUSH1 0x3 SLOAD DUP2 JUMP JUMPDEST CALLVALUE DUP1 ISZERO PUSH2 0x3E7 JUMPI PUSH0 DUP1 REVERT JUMPDEST POP PUSH2 0x1D2 PUSH2 0xA78 JUMP JUMPDEST CALLVALUE DUP1 ISZERO PUSH2 0x3FB JUMPI PUSH0 DUP1 REVERT JUMPDEST POP PUSH2 0x1D2 PUSH2 0x40A CALLDATASIZE PUSH1 0x4 PUSH2 0x170D JUMP JUMPDEST PUSH2 0xA98 JUMP JUMPDEST CALLVALUE DUP1 ISZERO PUSH2 0x41A JUMPI PUSH0 DUP1 REVERT JUMPDEST POP PUSH2 0x190 PUSH1 0x7 SLOAD DUP2 JUMP JUMPDEST PUSH2 0x42C PUSH2 0xAD2 JUMP JUMPDEST PUSH1 0x5 DUP1 SLOAD PUSH1 0xFF NOT AND PUSH1 0xFF DUP4 AND SWAP1 DUP2 OR SWAP1 SWAP2 SSTORE PUSH1 0x40 MLOAD SWAP1 DUP2 MSTORE PUSH32 0xEC5CCD96CC77B6219E9D44143DF916AF68FC169339EA7DE5008FF15EAE13450D SWAP1 PUSH1 0x20 ADD JUMPDEST PUSH1 0x40 MLOAD DUP1 SWAP2 SUB SWAP1 LOG1 POP JUMP JUMPDEST PUSH2 0x47D PUSH2 0xAD2 JUMP JUMPDEST PUSH2 0x485 PUSH2 0xB04 JUMP JUMPDEST PUSH1 0xB SLOAD ISZERO DUP1 PUSH2 0x49D JUMPI POP PUSH1 0xD SLOAD PUSH1 0x1 PUSH1 0xA0 SHL SWAP1 DIV PUSH1 0xFF AND JUMPDEST ISZERO PUSH2 0x4AA JUMPI PUSH2 0x4AA PUSH2 0xB5D JUMP JUMPDEST JUMP JUMPDEST PUSH2 0x4B4 PUSH2 0xCAC JUMP JUMPDEST PUSH1 0x40 DUP1 MLOAD PUSH1 0xC0 DUP2 ADD DUP3 MSTORE PUSH1 0x9 SLOAD DUP1 DUP3 MSTORE PUSH1 0xA SLOAD PUSH1 0x20 DUP4 ADD MSTORE PUSH1 0xB SLOAD SWAP3 DUP3 ADD SWAP3 SWAP1 SWAP3 MSTORE PUSH1 0xC SLOAD PUSH1 0x60 DUP3 ADD MSTORE PUSH1 0xD SLOAD PUSH1 0x1 PUSH1 0x1 PUSH1 0xA0 SHL SUB DUP2 AND PUSH1 0x80 DUP4 ADD MSTORE PUSH1 0x1 PUSH1 0xA0 SHL SWAP1 DIV PUSH1 0xFF AND ISZERO ISZERO PUSH1 0xA0 DUP3 ADD MSTORE SWAP1 DUP3 EQ PUSH2 0x555 JUMPI PUSH1 0x40 MLOAD PUSH3 0x461BCD PUSH1 0xE5 SHL DUP2 MSTORE PUSH1 0x20 PUSH1 0x4 DUP3 ADD MSTORE PUSH1 0x17 PUSH1 0x24 DUP3 ADD MSTORE PUSH32 0x56657262206E6F7420757020666F722061756374696F6E000000000000000000 PUSH1 0x44 DUP3 ADD MSTORE PUSH1 0x64 ADD JUMPDEST PUSH1 0x40 MLOAD DUP1 SWAP2 SUB SWAP1 REVERT JUMPDEST DUP1 PUSH1 0x60 ADD MLOAD TIMESTAMP LT PUSH2 0x59A JUMPI PUSH1 0x40 MLOAD PUSH3 0x461BCD PUSH1 0xE5 SHL DUP2 MSTORE PUSH1 0x20 PUSH1 0x4 DUP3 ADD MSTORE PUSH1 0xF PUSH1 0x24 DUP3 ADD MSTORE PUSH15 0x105D58DD1A5BDB88195E1C1A5C9959 PUSH1 0x8A SHL PUSH1 0x44 DUP3 ADD MSTORE PUSH1 0x64 ADD PUSH2 0x54C JUMP JUMPDEST PUSH1 0x4 SLOAD CALLVALUE LT ISZERO PUSH2 0x5EC JUMPI PUSH1 0x40 MLOAD PUSH3 0x461BCD PUSH1 0xE5 SHL DUP2 MSTORE PUSH1 0x20 PUSH1 0x4 DUP3 ADD MSTORE PUSH1 0x1F PUSH1 0x24 DUP3 ADD MSTORE PUSH32 0x4D7573742073656E64206174206C656173742072657365727665507269636500 PUSH1 0x44 DUP3 ADD MSTORE PUSH1 0x64 ADD PUSH2 0x54C JUMP JUMPDEST PUSH1 0x5 SLOAD PUSH1 0x20 DUP3 ADD MLOAD PUSH1 0x64 SWAP2 PUSH2 0x606 SWAP2 PUSH1 0xFF SWAP1 SWAP2 AND SWAP1 PUSH2 0x173C JUMP JUMPDEST PUSH2 0x610 SWAP2 SWAP1 PUSH2 0x1753 JUMP JUMPDEST DUP2 PUSH1 0x20 ADD MLOAD PUSH2 0x61F SWAP2 SWAP1 PUSH2 0x1772 JUMP JUMPDEST CALLVALUE LT ISZERO PUSH2 0x696 JUMPI PUSH1 0x40 DUP1 MLOAD PUSH3 0x461BCD PUSH1 0xE5 SHL DUP2 MSTORE PUSH1 0x20 PUSH1 0x4 DUP3 ADD MSTORE PUSH1 0x24 DUP2 ADD SWAP2 SWAP1 SWAP2 MSTORE PUSH32 0x4D7573742073656E64206D6F7265207468616E206C6173742062696420627920 PUSH1 0x44 DUP3 ADD MSTORE PUSH32 0x6D696E426964496E6372656D656E7450657263656E7461676520616D6F756E74 PUSH1 0x64 DUP3 ADD MSTORE PUSH1 0x84 ADD PUSH2 0x54C JUMP JUMPDEST PUSH1 0x80 DUP2 ADD MLOAD PUSH1 0x1 PUSH1 0x1 PUSH1 0xA0 SHL SUB DUP2 AND ISZERO PUSH2 0x6B8 JUMPI PUSH2 0x6B8 DUP2 DUP4 PUSH1 0x20 ADD MLOAD PUSH2 0xCE3 JUMP JUMPDEST CALLVALUE PUSH1 0xA SSTORE PUSH1 0xD DUP1 SLOAD PUSH1 0x1 PUSH1 0x1 PUSH1 0xA0 SHL SUB NOT AND CALLER OR SWAP1 SSTORE PUSH1 0x3 SLOAD PUSH1 0x60 DUP4 ADD MLOAD PUSH0 SWAP2 SWAP1 PUSH2 0x6E4 SWAP1 TIMESTAMP SWAP1 PUSH2 0x1785 JUMP JUMPDEST LT SWAP1 POP DUP1 ISZERO PUSH2 0x705 JUMPI PUSH1 0x3 SLOAD PUSH2 0x6FA SWAP1 TIMESTAMP PUSH2 0x1772 JUMP JUMPDEST PUSH1 0x60 DUP5 ADD DUP2 SWAP1 MSTORE PUSH1 0xC SSTORE JUMPDEST DUP3 MLOAD PUSH1 0x40 DUP1 MLOAD CALLER DUP2 MSTORE CALLVALUE PUSH1 0x20 DUP3 ADD MSTORE DUP4 ISZERO ISZERO DUP2 DUP4 ADD MSTORE SWAP1 MLOAD PUSH32 0x1159164C56F277E6FC99C11731BD380E0347DEB969B75523398734C252706EA3 SWAP2 DUP2 SWAP1 SUB PUSH1 0x60 ADD SWAP1 LOG2 DUP1 ISZERO PUSH2 0x788 JUMPI DUP3 MLOAD PUSH1 0x60 DUP5 ADD MLOAD PUSH1 0x40 MLOAD SWAP1 DUP2 MSTORE PUSH32 0x6E912A3A9105BDD2AF817BA5ADC14E6C127C1035B5B648FAA29CA0D58AB8FF4E SWAP1 PUSH1 0x20 ADD PUSH1 0x40 MLOAD DUP1 SWAP2 SUB SWAP1 LOG2 JUMPDEST POP POP POP PUSH2 0x7A1 PUSH1 0x1 PUSH0 DUP1 MLOAD PUSH1 0x20 PUSH2 0x1D03 DUP4 CODECOPY DUP2 MLOAD SWAP2 MSTORE SSTORE JUMP JUMPDEST POP JUMP JUMPDEST PUSH2 0x7AC PUSH2 0xAD2 JUMP JUMPDEST PUSH1 0x3 DUP2 SWAP1 SSTORE PUSH1 0x40 MLOAD DUP2 DUP2 MSTORE PUSH32 0x1B55D9F7002BDA4490F467E326F22A4A847629C0F2D1ED421607D318D25B410D SWAP1 PUSH1 0x20 ADD PUSH2 0x46A JUMP JUMPDEST PUSH2 0x7E9 PUSH2 0xAD2 JUMP JUMPDEST PUSH2 0x4AA PUSH0 PUSH2 0xDE3 JUMP JUMPDEST PUSH2 0x7FA PUSH2 0xAD2 JUMP JUMPDEST PUSH2 0x4AA PUSH2 0xE53 JUMP JUMPDEST PUSH32 0x9016D09D72D40FDAE2FD8CEAC6B6234C7706214FD39C1CD1E609A0528C199300 SLOAD PUSH1 0x1 PUSH1 0x1 PUSH1 0xA0 SHL SUB AND SWAP1 JUMP JUMPDEST PUSH2 0x838 PUSH2 0xE9B JUMP JUMPDEST PUSH2 0x840 PUSH2 0xCAC JUMP JUMPDEST PUSH2 0x848 PUSH2 0xECA JUMP JUMPDEST PUSH2 0x4AA PUSH1 0x1 PUSH0 DUP1 MLOAD PUSH1 0x20 PUSH2 0x1D03 DUP4 CODECOPY DUP2 MLOAD SWAP2 MSTORE SSTORE JUMP JUMPDEST PUSH32 0xF0C57E16840DF040F15088DC2F81FE391C3923BEC73E23A9662EFC9C229C6A00 DUP1 SLOAD PUSH1 0x1 PUSH1 0x40 SHL DUP2 DIV PUSH1 0xFF AND ISZERO SWAP1 PUSH8 0xFFFFFFFFFFFFFFFF AND PUSH0 DUP2 ISZERO DUP1 ISZERO PUSH2 0x8A3 JUMPI POP DUP3 JUMPDEST SWAP1 POP PUSH0 DUP3 PUSH8 0xFFFFFFFFFFFFFFFF AND PUSH1 0x1 EQ DUP1 ISZERO PUSH2 0x8BF JUMPI POP ADDRESS EXTCODESIZE ISZERO JUMPDEST SWAP1 POP DUP2 ISZERO DUP1 ISZERO PUSH2 0x8CD JUMPI POP DUP1 ISZERO JUMPDEST ISZERO PUSH2 0x8EB JUMPI PUSH1 0x40 MLOAD PUSH4 0xF92EE8A9 PUSH1 0xE0 SHL DUP2 MSTORE PUSH1 0x4 ADD PUSH1 0x40 MLOAD DUP1 SWAP2 SUB SWAP1 REVERT JUMPDEST DUP5 SLOAD PUSH8 0xFFFFFFFFFFFFFFFF NOT AND PUSH1 0x1 OR DUP6 SSTORE DUP4 ISZERO PUSH2 0x915 JUMPI DUP5 SLOAD PUSH1 0xFF PUSH1 0x40 SHL NOT AND PUSH1 0x1 PUSH1 0x40 SHL OR DUP6 SSTORE JUMPDEST PUSH2 0x91D PUSH2 0x146A JUMP JUMPDEST PUSH2 0x925 PUSH2 0x147A JUMP JUMPDEST PUSH2 0x92E DUP13 PUSH2 0x148A JUMP JUMPDEST PUSH2 0x936 PUSH2 0xE53 JUMP JUMPDEST DUP15 PUSH0 DUP1 PUSH2 0x100 EXP DUP2 SLOAD DUP2 PUSH1 0x1 PUSH1 0x1 PUSH1 0xA0 SHL SUB MUL NOT AND SWAP1 DUP4 PUSH1 0x1 PUSH1 0x1 PUSH1 0xA0 SHL SUB AND MUL OR SWAP1 SSTORE POP DUP14 PUSH1 0x1 PUSH0 PUSH2 0x100 EXP DUP2 SLOAD DUP2 PUSH1 0x1 PUSH1 0x1 PUSH1 0xA0 SHL SUB MUL NOT AND SWAP1 DUP4 PUSH1 0x1 PUSH1 0x1 PUSH1 0xA0 SHL SUB AND MUL OR SWAP1 SSTORE POP DUP13 PUSH1 0x2 PUSH0 PUSH2 0x100 EXP DUP2 SLOAD DUP2 PUSH1 0x1 PUSH1 0x1 PUSH1 0xA0 SHL SUB MUL NOT AND SWAP1 DUP4 PUSH1 0x1 PUSH1 0x1 PUSH1 0xA0 SHL SUB AND MUL OR SWAP1 SSTORE POP DUP11 PUSH1 0x3 DUP2 SWAP1 SSTORE POP DUP10 PUSH1 0x4 DUP2 SWAP1 SSTORE POP DUP9 PUSH1 0x5 PUSH0 PUSH2 0x100 EXP DUP2 SLOAD DUP2 PUSH1 0xFF MUL NOT AND SWAP1 DUP4 PUSH1 0xFF AND MUL OR SWAP1 SSTORE POP DUP8 PUSH1 0x8 DUP2 SWAP1 SSTORE POP DUP7 PUSH1 0x6 DUP2 SWAP1 SSTORE POP DUP6 PUSH1 0x7 DUP2 SWAP1 SSTORE POP DUP4 ISZERO PUSH2 0xA2A JUMPI DUP5 SLOAD PUSH1 0xFF PUSH1 0x40 SHL NOT AND DUP6 SSTORE PUSH1 0x40 MLOAD PUSH1 0x1 DUP2 MSTORE PUSH32 0xC7F505B2F371AE2175EE4913F4499E1F2633A7B5936321EED1CDAEB6115181D2 SWAP1 PUSH1 0x20 ADD PUSH1 0x40 MLOAD DUP1 SWAP2 SUB SWAP1 LOG1 JUMPDEST POP POP POP POP POP POP POP POP POP POP POP POP POP POP POP JUMP JUMPDEST PUSH2 0xA43 PUSH2 0xAD2 JUMP JUMPDEST PUSH1 0x4 DUP2 SWAP1 SSTORE PUSH1 0x40 MLOAD DUP2 DUP2 MSTORE PUSH32 0x6AB2E127D7FDF53B8F304E59D3AAB5BFE97979F52A85479691A6FAB27A28A6B2 SWAP1 PUSH1 0x20 ADD PUSH2 0x46A JUMP JUMPDEST PUSH2 0xA80 PUSH2 0xCAC JUMP JUMPDEST PUSH2 0xA88 PUSH2 0x149B JUMP JUMPDEST PUSH2 0xA90 PUSH2 0xECA JUMP JUMPDEST PUSH2 0x848 PUSH2 0xB5D JUMP JUMPDEST PUSH2 0xAA0 PUSH2 0xAD2 JUMP JUMPDEST PUSH1 0x1 PUSH1 0x1 PUSH1 0xA0 SHL SUB DUP2 AND PUSH2 0xAC9 JUMPI PUSH1 0x40 MLOAD PUSH4 0x1E4FBDF7 PUSH1 0xE0 SHL DUP2 MSTORE PUSH0 PUSH1 0x4 DUP3 ADD MSTORE PUSH1 0x24 ADD PUSH2 0x54C JUMP JUMPDEST PUSH2 0x7A1 DUP2 PUSH2 0xDE3 JUMP JUMPDEST CALLER PUSH2 0xADB PUSH2 0x802 JUMP JUMPDEST PUSH1 0x1 PUSH1 0x1 PUSH1 0xA0 SHL SUB AND EQ PUSH2 0x4AA JUMPI PUSH1 0x40 MLOAD PUSH4 0x118CDAA7 PUSH1 0xE0 SHL DUP2 MSTORE CALLER PUSH1 0x4 DUP3 ADD MSTORE PUSH1 0x24 ADD PUSH2 0x54C JUMP JUMPDEST PUSH2 0xB0C PUSH2 0xE9B JUMP JUMPDEST PUSH0 DUP1 MLOAD PUSH1 0x20 PUSH2 0x1CE3 DUP4 CODECOPY DUP2 MLOAD SWAP2 MSTORE DUP1 SLOAD PUSH1 0xFF NOT AND DUP2 SSTORE PUSH32 0x5DB9EE0A495BF2E6FF9C91A7834C1BA4FDD244A5E8AA4E537BD38AEAE4B073AA CALLER JUMPDEST PUSH1 0x40 MLOAD PUSH1 0x1 PUSH1 0x1 PUSH1 0xA0 SHL SUB SWAP1 SWAP2 AND DUP2 MSTORE PUSH1 0x20 ADD PUSH2 0x46A JUMP JUMPDEST PUSH0 DUP1 SLOAD SWAP1 PUSH2 0x100 EXP SWAP1 DIV PUSH1 0x1 PUSH1 0x1 PUSH1 0xA0 SHL SUB AND PUSH1 0x1 PUSH1 0x1 PUSH1 0xA0 SHL SUB AND PUSH4 0x1249C58B PUSH1 0x40 MLOAD DUP2 PUSH4 0xFFFFFFFF AND PUSH1 0xE0 SHL DUP2 MSTORE PUSH1 0x4 ADD PUSH1 0x20 PUSH1 0x40 MLOAD DUP1 DUP4 SUB DUP2 PUSH0 DUP8 GAS CALL SWAP3 POP POP POP DUP1 ISZERO PUSH2 0xBCA JUMPI POP PUSH1 0x40 DUP1 MLOAD PUSH1 0x1F RETURNDATASIZE SWAP1 DUP2 ADD PUSH1 0x1F NOT AND DUP3 ADD SWAP1 SWAP3 MSTORE PUSH2 0xBC7 SWAP2 DUP2 ADD SWAP1 PUSH2 0x1798 JUMP JUMPDEST PUSH1 0x1 JUMPDEST PUSH2 0xC07 JUMPI PUSH2 0xBD6 PUSH2 0x17AF JUMP JUMPDEST DUP1 PUSH4 0x8C379A0 SUB PUSH2 0xBFD JUMPI POP PUSH2 0xBEA PUSH2 0x184F JUMP JUMPDEST DUP1 PUSH2 0xBF5 JUMPI POP PUSH2 0xBFF JUMP JUMPDEST PUSH2 0x7A1 PUSH2 0xE53 JUMP JUMPDEST POP JUMPDEST RETURNDATASIZE PUSH0 DUP1 RETURNDATACOPY RETURNDATASIZE PUSH0 REVERT JUMPDEST PUSH1 0x8 SLOAD TIMESTAMP SWAP1 PUSH0 SWAP1 PUSH2 0xC18 SWAP1 DUP4 PUSH2 0x1772 JUMP JUMPDEST PUSH1 0x40 DUP1 MLOAD PUSH1 0xC0 DUP2 ADD DUP3 MSTORE DUP6 DUP2 MSTORE PUSH0 PUSH1 0x20 DUP1 DUP4 ADD DUP3 SWAP1 MSTORE DUP3 DUP5 ADD DUP8 SWAP1 MSTORE PUSH1 0x60 DUP4 ADD DUP6 SWAP1 MSTORE PUSH1 0x80 DUP4 ADD DUP3 SWAP1 MSTORE PUSH1 0xA0 SWAP1 SWAP3 ADD DUP2 SWAP1 MSTORE PUSH1 0x9 DUP8 SWAP1 SSTORE PUSH1 0xA SSTORE PUSH1 0xB DUP6 SWAP1 SSTORE PUSH1 0xC DUP4 SWAP1 SSTORE PUSH1 0xD DUP1 SLOAD PUSH1 0x1 PUSH1 0x1 PUSH1 0xA8 SHL SUB NOT AND SWAP1 SSTORE DUP2 MLOAD DUP6 DUP2 MSTORE SWAP1 DUP2 ADD DUP4 SWAP1 MSTORE SWAP2 SWAP3 POP DUP5 SWAP2 PUSH32 0xD6EDDD1118D71820909C1197AA966DBC15ED6F508554252169CC3D5CCAC756CA SWAP2 ADD PUSH1 0x40 MLOAD DUP1 SWAP2 SUB SWAP1 LOG2 POP POP POP JUMP JUMPDEST PUSH0 DUP1 MLOAD PUSH1 0x20 PUSH2 0x1D03 DUP4 CODECOPY DUP2 MLOAD SWAP2 MSTORE DUP1 SLOAD PUSH1 0x1 NOT ADD PUSH2 0xCDD JUMPI PUSH1 0x40 MLOAD PUSH4 0x3EE5AEB5 PUSH1 0xE0 SHL DUP2 MSTORE PUSH1 0x4 ADD PUSH1 0x40 MLOAD DUP1 SWAP2 SUB SWAP1 REVERT JUMPDEST PUSH1 0x2 SWAP1 SSTORE JUMP JUMPDEST PUSH2 0xCED DUP3 DUP3 PUSH2 0x14CB JUMP JUMPDEST PUSH2 0xDCC JUMPI PUSH1 0x2 PUSH0 SWAP1 SLOAD SWAP1 PUSH2 0x100 EXP SWAP1 DIV PUSH1 0x1 PUSH1 0x1 PUSH1 0xA0 SHL SUB AND PUSH1 0x1 PUSH1 0x1 PUSH1 0xA0 SHL SUB AND PUSH4 0xD0E30DB0 DUP3 PUSH1 0x40 MLOAD DUP3 PUSH4 0xFFFFFFFF AND PUSH1 0xE0 SHL DUP2 MSTORE PUSH1 0x4 ADD PUSH0 PUSH1 0x40 MLOAD DUP1 DUP4 SUB DUP2 DUP6 DUP9 DUP1 EXTCODESIZE ISZERO DUP1 ISZERO PUSH2 0xD3E JUMPI PUSH0 DUP1 REVERT JUMPDEST POP GAS CALL ISZERO DUP1 ISZERO PUSH2 0xD50 JUMPI RETURNDATASIZE PUSH0 DUP1 RETURNDATACOPY RETURNDATASIZE PUSH0 REVERT JUMPDEST POP POP PUSH1 0x2 SLOAD PUSH1 0x40 MLOAD PUSH4 0xA9059CBB PUSH1 0xE0 SHL DUP2 MSTORE PUSH1 0x1 PUSH1 0x1 PUSH1 0xA0 SHL SUB DUP8 DUP2 AND PUSH1 0x4 DUP4 ADD MSTORE PUSH1 0x24 DUP3 ADD DUP8 SWAP1 MSTORE SWAP1 SWAP2 AND SWAP4 POP PUSH4 0xA9059CBB SWAP3 POP PUSH1 0x44 ADD SWAP1 POP PUSH1 0x20 PUSH1 0x40 MLOAD DUP1 DUP4 SUB DUP2 PUSH0 DUP8 GAS CALL ISZERO DUP1 ISZERO PUSH2 0xDA6 JUMPI RETURNDATASIZE PUSH0 DUP1 RETURNDATACOPY RETURNDATASIZE PUSH0 REVERT JUMPDEST POP POP POP POP PUSH1 0x40 MLOAD RETURNDATASIZE PUSH1 0x1F NOT PUSH1 0x1F DUP3 ADD AND DUP3 ADD DUP1 PUSH1 0x40 MSTORE POP DUP2 ADD SWAP1 PUSH2 0xDCA SWAP2 SWAP1 PUSH2 0x18E7 JUMP JUMPDEST POP JUMPDEST POP POP JUMP JUMPDEST PUSH1 0x1 PUSH0 DUP1 MLOAD PUSH1 0x20 PUSH2 0x1D03 DUP4 CODECOPY DUP2 MLOAD SWAP2 MSTORE SSTORE JUMP JUMPDEST PUSH32 0x9016D09D72D40FDAE2FD8CEAC6B6234C7706214FD39C1CD1E609A0528C199300 DUP1 SLOAD PUSH1 0x1 PUSH1 0x1 PUSH1 0xA0 SHL SUB NOT DUP2 AND PUSH1 0x1 PUSH1 0x1 PUSH1 0xA0 SHL SUB DUP5 DUP2 AND SWAP2 DUP3 OR DUP5 SSTORE PUSH1 0x40 MLOAD SWAP3 AND SWAP2 DUP3 SWAP1 PUSH32 0x8BE0079C531659141344CD1FD0A4F28419497F9722A3DAAFE3B4186F6B6457E0 SWAP1 PUSH0 SWAP1 LOG3 POP POP POP JUMP JUMPDEST PUSH2 0xE5B PUSH2 0x149B JUMP JUMPDEST PUSH0 DUP1 MLOAD PUSH1 0x20 PUSH2 0x1CE3 DUP4 CODECOPY DUP2 MLOAD SWAP2 MSTORE DUP1 SLOAD PUSH1 0xFF NOT AND PUSH1 0x1 OR DUP2 SSTORE PUSH32 0x62E78CEA01BEE320CD4E420270B5EA74000D11B0C9F74754EBDBFC544B05A258 CALLER PUSH2 0xB45 JUMP JUMPDEST PUSH0 DUP1 MLOAD PUSH1 0x20 PUSH2 0x1CE3 DUP4 CODECOPY DUP2 MLOAD SWAP2 MSTORE SLOAD PUSH1 0xFF AND PUSH2 0x4AA JUMPI PUSH1 0x40 MLOAD PUSH4 0x8DFC202B PUSH1 0xE0 SHL DUP2 MSTORE PUSH1 0x4 ADD PUSH1 0x40 MLOAD DUP1 SWAP2 SUB SWAP1 REVERT JUMPDEST PUSH1 0x40 DUP1 MLOAD PUSH1 0xC0 DUP2 ADD DUP3 MSTORE PUSH1 0x9 SLOAD DUP2 MSTORE PUSH1 0xA SLOAD PUSH1 0x20 DUP3 ADD MSTORE PUSH1 0xB SLOAD SWAP2 DUP2 ADD DUP3 SWAP1 MSTORE PUSH1 0xC SLOAD PUSH1 0x60 DUP3 ADD MSTORE PUSH1 0xD SLOAD PUSH1 0x1 PUSH1 0x1 PUSH1 0xA0 SHL SUB DUP2 AND PUSH1 0x80 DUP4 ADD MSTORE PUSH1 0x1 PUSH1 0xA0 SHL SWAP1 DIV PUSH1 0xFF AND ISZERO ISZERO PUSH1 0xA0 DUP3 ADD MSTORE SWAP1 PUSH0 SUB PUSH2 0xF5B JUMPI PUSH1 0x40 MLOAD PUSH3 0x461BCD PUSH1 0xE5 SHL DUP2 MSTORE PUSH1 0x20 PUSH1 0x4 DUP3 ADD MSTORE PUSH1 0x14 PUSH1 0x24 DUP3 ADD MSTORE PUSH20 0x20BAB1BA34B7B7103430B9B713BA103132B3BAB7 PUSH1 0x61 SHL PUSH1 0x44 DUP3 ADD MSTORE PUSH1 0x64 ADD PUSH2 0x54C JUMP JUMPDEST DUP1 PUSH1 0xA0 ADD MLOAD ISZERO PUSH2 0xFAD JUMPI PUSH1 0x40 MLOAD PUSH3 0x461BCD PUSH1 0xE5 SHL DUP2 MSTORE PUSH1 0x20 PUSH1 0x4 DUP3 ADD DUP2 SWAP1 MSTORE PUSH1 0x24 DUP3 ADD MSTORE PUSH32 0x41756374696F6E2068617320616C7265616479206265656E20736574746C6564 PUSH1 0x44 DUP3 ADD MSTORE PUSH1 0x64 ADD PUSH2 0x54C JUMP JUMPDEST DUP1 PUSH1 0x60 ADD MLOAD TIMESTAMP LT ISZERO PUSH2 0x1001 JUMPI PUSH1 0x40 MLOAD PUSH3 0x461BCD PUSH1 0xE5 SHL DUP2 MSTORE PUSH1 0x20 PUSH1 0x4 DUP3 ADD MSTORE PUSH1 0x18 PUSH1 0x24 DUP3 ADD MSTORE PUSH32 0x41756374696F6E206861736E277420636F6D706C657465640000000000000000 PUSH1 0x44 DUP3 ADD MSTORE PUSH1 0x64 ADD PUSH2 0x54C JUMP JUMPDEST PUSH1 0xD DUP1 SLOAD PUSH1 0xFF PUSH1 0xA0 SHL NOT AND PUSH1 0x1 PUSH1 0xA0 SHL OR SWAP1 SSTORE PUSH1 0x80 DUP2 ADD MLOAD PUSH1 0x1 PUSH1 0x1 PUSH1 0xA0 SHL SUB AND PUSH2 0x108B JUMPI PUSH0 SLOAD DUP2 MLOAD PUSH1 0x40 MLOAD PUSH4 0x852CD8D PUSH1 0xE3 SHL DUP2 MSTORE PUSH1 0x1 PUSH1 0x1 PUSH1 0xA0 SHL SUB SWAP1 SWAP3 AND SWAP2 PUSH4 0x42966C68 SWAP2 PUSH2 0x1059 SWAP2 PUSH1 0x4 ADD SWAP1 DUP2 MSTORE PUSH1 0x20 ADD SWAP1 JUMP JUMPDEST PUSH0 PUSH1 0x40 MLOAD DUP1 DUP4 SUB DUP2 PUSH0 DUP8 DUP1 EXTCODESIZE ISZERO DUP1 ISZERO PUSH2 0x1070 JUMPI PUSH0 DUP1 REVERT JUMPDEST POP GAS CALL ISZERO DUP1 ISZERO PUSH2 0x1082 JUMPI RETURNDATASIZE PUSH0 DUP1 RETURNDATACOPY RETURNDATASIZE PUSH0 REVERT JUMPDEST POP POP POP POP PUSH2 0x10F9 JUMP JUMPDEST PUSH0 SLOAD PUSH1 0x80 DUP3 ADD MLOAD DUP3 MLOAD PUSH1 0x40 MLOAD PUSH4 0x23B872DD PUSH1 0xE0 SHL DUP2 MSTORE ADDRESS PUSH1 0x4 DUP3 ADD MSTORE PUSH1 0x1 PUSH1 0x1 PUSH1 0xA0 SHL SUB SWAP3 DUP4 AND PUSH1 0x24 DUP3 ADD MSTORE PUSH1 0x44 DUP2 ADD SWAP2 SWAP1 SWAP2 MSTORE SWAP2 AND SWAP1 PUSH4 0x23B872DD SWAP1 PUSH1 0x64 ADD PUSH0 PUSH1 0x40 MLOAD DUP1 DUP4 SUB DUP2 PUSH0 DUP8 DUP1 EXTCODESIZE ISZERO DUP1 ISZERO PUSH2 0x10E2 JUMPI PUSH0 DUP1 REVERT JUMPDEST POP GAS CALL ISZERO DUP1 ISZERO PUSH2 0x10F4 JUMPI RETURNDATASIZE PUSH0 DUP1 RETURNDATACOPY RETURNDATASIZE PUSH0 REVERT JUMPDEST POP POP POP POP JUMPDEST PUSH1 0x20 DUP2 ADD MLOAD ISZERO PUSH2 0x141A JUMPI PUSH0 PUSH2 0x112C PUSH2 0x1124 DUP4 PUSH1 0x20 ADD MLOAD PUSH1 0x6 SLOAD PUSH2 0x2710 PUSH2 0x111F SWAP2 SWAP1 PUSH2 0x1900 JUMP JUMPDEST PUSH2 0x1547 JUMP JUMPDEST PUSH2 0x2710 PUSH2 0x1578 JUMP JUMPDEST SWAP1 POP PUSH0 DUP2 DUP4 PUSH1 0x20 ADD MLOAD PUSH2 0x113F SWAP2 SWAP1 PUSH2 0x1785 JUMP JUMPDEST SWAP1 POP PUSH0 PUSH2 0x1151 PUSH2 0x1124 DUP4 PUSH1 0x7 SLOAD PUSH2 0x1547 JUMP JUMPDEST SWAP1 POP PUSH0 PUSH2 0x115E DUP3 DUP5 PUSH2 0x1785 JUMP JUMPDEST PUSH0 DUP1 SLOAD DUP8 MLOAD PUSH1 0x40 MLOAD PUSH4 0x24D19AB1 PUSH1 0xE1 SHL DUP2 MSTORE PUSH1 0x4 DUP2 ADD SWAP2 SWAP1 SWAP2 MSTORE SWAP3 SWAP4 POP SWAP1 SWAP2 PUSH1 0x1 PUSH1 0x1 PUSH1 0xA0 SHL SUB SWAP1 SWAP2 AND SWAP1 PUSH4 0x49A33562 SWAP1 PUSH1 0x24 ADD PUSH0 PUSH1 0x40 MLOAD DUP1 DUP4 SUB DUP2 DUP7 GAS STATICCALL ISZERO DUP1 ISZERO PUSH2 0x11AC JUMPI RETURNDATASIZE PUSH0 DUP1 RETURNDATACOPY RETURNDATASIZE PUSH0 REVERT JUMPDEST POP POP POP POP PUSH1 0x40 MLOAD RETURNDATASIZE PUSH0 DUP3 RETURNDATACOPY PUSH1 0x1F RETURNDATASIZE SWAP1 DUP2 ADD PUSH1 0x1F NOT AND DUP3 ADD PUSH1 0x40 MSTORE PUSH2 0x11D3 SWAP2 SWAP1 DUP2 ADD SWAP1 PUSH2 0x1AA6 JUMP JUMPDEST PUSH1 0x40 ADD MLOAD MLOAD SWAP1 POP PUSH0 DUP2 PUSH8 0xFFFFFFFFFFFFFFFF DUP2 GT ISZERO PUSH2 0x11F4 JUMPI PUSH2 0x11F4 PUSH2 0x17C8 JUMP JUMPDEST PUSH1 0x40 MLOAD SWAP1 DUP1 DUP3 MSTORE DUP1 PUSH1 0x20 MUL PUSH1 0x20 ADD DUP3 ADD PUSH1 0x40 MSTORE DUP1 ISZERO PUSH2 0x121D JUMPI DUP2 PUSH1 0x20 ADD PUSH1 0x20 DUP3 MUL DUP1 CALLDATASIZE DUP4 CALLDATACOPY ADD SWAP1 POP JUMPDEST POP SWAP1 POP PUSH0 DUP3 PUSH8 0xFFFFFFFFFFFFFFFF DUP2 GT ISZERO PUSH2 0x123A JUMPI PUSH2 0x123A PUSH2 0x17C8 JUMP JUMPDEST PUSH1 0x40 MLOAD SWAP1 DUP1 DUP3 MSTORE DUP1 PUSH1 0x20 MUL PUSH1 0x20 ADD DUP3 ADD PUSH1 0x40 MSTORE DUP1 ISZERO PUSH2 0x1263 JUMPI DUP2 PUSH1 0x20 ADD PUSH1 0x20 DUP3 MUL DUP1 CALLDATASIZE DUP4 CALLDATACOPY ADD SWAP1 POP JUMPDEST POP SWAP1 POP PUSH2 0x1277 PUSH2 0x1271 PUSH2 0x802 JUMP JUMPDEST DUP9 PUSH2 0xCE3 JUMP JUMPDEST PUSH0 JUMPDEST DUP4 DUP2 LT ISZERO PUSH2 0x1399 JUMPI PUSH0 DUP1 SLOAD DUP11 MLOAD PUSH1 0x40 MLOAD PUSH4 0x24D19AB1 PUSH1 0xE1 SHL DUP2 MSTORE PUSH1 0x1 PUSH1 0x1 PUSH1 0xA0 SHL SUB SWAP1 SWAP3 AND SWAP2 PUSH4 0x49A33562 SWAP2 PUSH2 0x12B5 SWAP2 PUSH1 0x4 ADD SWAP1 DUP2 MSTORE PUSH1 0x20 ADD SWAP1 JUMP JUMPDEST PUSH0 PUSH1 0x40 MLOAD DUP1 DUP4 SUB DUP2 DUP7 GAS STATICCALL ISZERO DUP1 ISZERO PUSH2 0x12CF JUMPI RETURNDATASIZE PUSH0 DUP1 RETURNDATACOPY RETURNDATASIZE PUSH0 REVERT JUMPDEST POP POP POP POP PUSH1 0x40 MLOAD RETURNDATASIZE PUSH0 DUP3 RETURNDATACOPY PUSH1 0x1F RETURNDATASIZE SWAP1 DUP2 ADD PUSH1 0x1F NOT AND DUP3 ADD PUSH1 0x40 MSTORE PUSH2 0x12F6 SWAP2 SWAP1 DUP2 ADD SWAP1 PUSH2 0x1AA6 JUMP JUMPDEST PUSH1 0x40 ADD MLOAD DUP3 DUP2 MLOAD DUP2 LT PUSH2 0x130B JUMPI PUSH2 0x130B PUSH2 0x1C28 JUMP JUMPDEST PUSH1 0x20 MUL PUSH1 0x20 ADD ADD MLOAD SWAP1 POP DUP1 PUSH0 ADD MLOAD DUP5 DUP4 DUP2 MLOAD DUP2 LT PUSH2 0x132B JUMPI PUSH2 0x132B PUSH2 0x1C28 JUMP JUMPDEST PUSH1 0x20 MUL PUSH1 0x20 ADD ADD SWAP1 PUSH1 0x1 PUSH1 0x1 PUSH1 0xA0 SHL SUB AND SWAP1 DUP2 PUSH1 0x1 PUSH1 0x1 PUSH1 0xA0 SHL SUB AND DUP2 MSTORE POP POP DUP1 PUSH1 0x20 ADD MLOAD DUP4 DUP4 DUP2 MLOAD DUP2 LT PUSH2 0x1362 JUMPI PUSH2 0x1362 PUSH2 0x1C28 JUMP JUMPDEST PUSH1 0x20 MUL PUSH1 0x20 ADD ADD DUP2 DUP2 MSTORE POP POP PUSH0 PUSH2 0x1380 PUSH2 0x1124 DUP10 DUP5 PUSH1 0x20 ADD MLOAD PUSH2 0x1547 JUMP JUMPDEST SWAP1 POP PUSH2 0x138F DUP3 PUSH0 ADD MLOAD DUP3 PUSH2 0xCE3 JUMP JUMPDEST POP POP PUSH1 0x1 ADD PUSH2 0x1279 JUMP JUMPDEST POP PUSH1 0x1 SLOAD PUSH1 0x40 MLOAD PUSH4 0xDEC86DF1 PUSH1 0xE0 SHL DUP2 MSTORE PUSH1 0x1 PUSH1 0x1 PUSH1 0xA0 SHL SUB SWAP1 SWAP2 AND SWAP1 PUSH4 0xDEC86DF1 SWAP1 DUP7 SWAP1 PUSH2 0x13D0 SWAP1 DUP7 SWAP1 DUP7 SWAP1 DUP5 SWAP1 PUSH1 0x4 ADD PUSH2 0x1C3C JUMP JUMPDEST PUSH1 0x20 PUSH1 0x40 MLOAD DUP1 DUP4 SUB DUP2 DUP6 DUP9 GAS CALL ISZERO DUP1 ISZERO PUSH2 0x13EC JUMPI RETURNDATASIZE PUSH0 DUP1 RETURNDATACOPY RETURNDATASIZE PUSH0 REVERT JUMPDEST POP POP POP POP POP PUSH1 0x40 MLOAD RETURNDATASIZE PUSH1 0x1F NOT PUSH1 0x1F DUP3 ADD AND DUP3 ADD DUP1 PUSH1 0x40 MSTORE POP DUP2 ADD SWAP1 PUSH2 0x1411 SWAP2 SWAP1 PUSH2 0x1798 JUMP JUMPDEST POP POP POP POP POP POP POP POP JUMPDEST DUP1 MLOAD PUSH1 0x80 DUP3 ADD MLOAD PUSH1 0x20 DUP1 DUP5 ADD MLOAD PUSH1 0x40 DUP1 MLOAD PUSH1 0x1 PUSH1 0x1 PUSH1 0xA0 SHL SUB SWAP1 SWAP5 AND DUP5 MSTORE SWAP2 DUP4 ADD MSTORE PUSH32 0xC9F72B276A388619C6D185D146697036241880C36654B1A3FFDAD07C24038D99 SWAP2 ADD PUSH1 0x40 MLOAD DUP1 SWAP2 SUB SWAP1 LOG2 POP JUMP JUMPDEST PUSH2 0x1472 PUSH2 0x159B JUMP JUMPDEST PUSH2 0x4AA PUSH2 0x15E4 JUMP JUMPDEST PUSH2 0x1482 PUSH2 0x159B JUMP JUMPDEST PUSH2 0x4AA PUSH2 0x1604 JUMP JUMPDEST PUSH2 0x1492 PUSH2 0x159B JUMP JUMPDEST PUSH2 0x7A1 DUP2 PUSH2 0x160C JUMP JUMPDEST PUSH0 DUP1 MLOAD PUSH1 0x20 PUSH2 0x1CE3 DUP4 CODECOPY DUP2 MLOAD SWAP2 MSTORE SLOAD PUSH1 0xFF AND ISZERO PUSH2 0x4AA JUMPI PUSH1 0x40 MLOAD PUSH4 0xD93C0665 PUSH1 0xE0 SHL DUP2 MSTORE PUSH1 0x4 ADD PUSH1 0x40 MLOAD DUP1 SWAP2 SUB SWAP1 REVERT JUMPDEST PUSH1 0x40 DUP1 MLOAD PUSH0 DUP1 DUP3 MSTORE PUSH1 0x20 DUP3 ADD SWAP1 SWAP3 MSTORE DUP2 SWAP1 PUSH1 0x1 PUSH1 0x1 PUSH1 0xA0 SHL SUB DUP6 AND SWAP1 PUSH2 0x7530 SWAP1 DUP6 SWAP1 PUSH1 0x40 MLOAD PUSH2 0x14FA SWAP2 SWAP1 PUSH2 0x1CC7 JUMP JUMPDEST PUSH0 PUSH1 0x40 MLOAD DUP1 DUP4 SUB DUP2 DUP6 DUP9 DUP9 CALL SWAP4 POP POP POP POP RETURNDATASIZE DUP1 PUSH0 DUP2 EQ PUSH2 0x1535 JUMPI PUSH1 0x40 MLOAD SWAP2 POP PUSH1 0x1F NOT PUSH1 0x3F RETURNDATASIZE ADD AND DUP3 ADD PUSH1 0x40 MSTORE RETURNDATASIZE DUP3 MSTORE RETURNDATASIZE PUSH0 PUSH1 0x20 DUP5 ADD RETURNDATACOPY PUSH2 0x153A JUMP JUMPDEST PUSH1 0x60 SWAP2 POP JUMPDEST POP SWAP1 SWAP3 POP POP POP JUMPDEST SWAP3 SWAP2 POP POP JUMP JUMPDEST DUP2 DUP2 MUL DUP3 ISZERO DUP4 DUP3 SDIV DUP4 EQ OR PUSH0 NOT DUP5 LT PUSH1 0x1 PUSH1 0xFF SHL DUP5 SGT OR AND PUSH2 0x1567 JUMPI PUSH0 DUP1 REVERT JUMPDEST PUSH8 0xDE0B6B3A7640000 SWAP1 SDIV SWAP3 SWAP2 POP POP JUMP JUMPDEST PUSH8 0xDE0B6B3A7640000 DUP3 DUP2 MUL SWAP1 DUP2 SDIV DUP4 EQ DUP3 ISZERO ISZERO AND PUSH2 0x1595 JUMPI PUSH0 DUP1 REVERT JUMPDEST SDIV SWAP2 SWAP1 POP JUMP JUMPDEST PUSH32 0xF0C57E16840DF040F15088DC2F81FE391C3923BEC73E23A9662EFC9C229C6A00 SLOAD PUSH1 0x1 PUSH1 0x40 SHL SWAP1 DIV PUSH1 0xFF AND PUSH2 0x4AA JUMPI PUSH1 0x40 MLOAD PUSH4 0x1AFCD79F PUSH1 0xE3 SHL DUP2 MSTORE PUSH1 0x4 ADD PUSH1 0x40 MLOAD DUP1 SWAP2 SUB SWAP1 REVERT JUMPDEST PUSH2 0x15EC PUSH2 0x159B JUMP JUMPDEST PUSH0 DUP1 MLOAD PUSH1 0x20 PUSH2 0x1CE3 DUP4 CODECOPY DUP2 MLOAD SWAP2 MSTORE DUP1 SLOAD PUSH1 0xFF NOT AND SWAP1 SSTORE JUMP JUMPDEST PUSH2 0xDD0 PUSH2 0x159B JUMP JUMPDEST PUSH2 0xAA0 PUSH2 0x159B JUMP JUMPDEST DUP1 CALLDATALOAD PUSH1 0xFF DUP2 AND DUP2 EQ PUSH2 0x1624 JUMPI PUSH0 DUP1 REVERT JUMPDEST SWAP2 SWAP1 POP JUMP JUMPDEST PUSH0 PUSH1 0x20 DUP3 DUP5 SUB SLT ISZERO PUSH2 0x1639 JUMPI PUSH0 DUP1 REVERT JUMPDEST PUSH2 0x1642 DUP3 PUSH2 0x1614 JUMP JUMPDEST SWAP4 SWAP3 POP POP POP JUMP JUMPDEST PUSH0 PUSH1 0x20 DUP3 DUP5 SUB SLT ISZERO PUSH2 0x1659 JUMPI PUSH0 DUP1 REVERT JUMPDEST POP CALLDATALOAD SWAP2 SWAP1 POP JUMP JUMPDEST PUSH1 0x1 PUSH1 0x1 PUSH1 0xA0 SHL SUB DUP2 AND DUP2 EQ PUSH2 0x7A1 JUMPI PUSH0 DUP1 REVERT JUMPDEST PUSH0 DUP1 PUSH0 DUP1 PUSH0 DUP1 PUSH0 DUP1 PUSH0 DUP1 PUSH2 0x140 DUP12 DUP14 SUB SLT ISZERO PUSH2 0x168E JUMPI PUSH0 DUP1 REVERT JUMPDEST DUP11 CALLDATALOAD PUSH2 0x1699 DUP2 PUSH2 0x1660 JUMP JUMPDEST SWAP10 POP PUSH1 0x20 DUP12 ADD CALLDATALOAD PUSH2 0x16A9 DUP2 PUSH2 0x1660 JUMP JUMPDEST SWAP9 POP PUSH1 0x40 DUP12 ADD CALLDATALOAD PUSH2 0x16B9 DUP2 PUSH2 0x1660 JUMP JUMPDEST SWAP8 POP PUSH1 0x60 DUP12 ADD CALLDATALOAD PUSH2 0x16C9 DUP2 PUSH2 0x1660 JUMP JUMPDEST SWAP7 POP PUSH1 0x80 DUP12 ADD CALLDATALOAD SWAP6 POP PUSH1 0xA0 DUP12 ADD CALLDATALOAD SWAP5 POP PUSH2 0x16E5 PUSH1 0xC0 DUP13 ADD PUSH2 0x1614 JUMP JUMPDEST SWAP4 POP PUSH1 0xE0 DUP12 ADD CALLDATALOAD SWAP3 POP PUSH2 0x100 DUP12 ADD CALLDATALOAD SWAP2 POP PUSH2 0x120 DUP12 ADD CALLDATALOAD SWAP1 POP SWAP3 SWAP6 SWAP9 SWAP12 SWAP2 SWAP5 SWAP8 SWAP11 POP SWAP3 SWAP6 SWAP9 POP JUMP JUMPDEST PUSH0 PUSH1 0x20 DUP3 DUP5 SUB SLT ISZERO PUSH2 0x171D JUMPI PUSH0 DUP1 REVERT JUMPDEST DUP2 CALLDATALOAD PUSH2 0x1642 DUP2 PUSH2 0x1660 JUMP JUMPDEST PUSH4 0x4E487B71 PUSH1 0xE0 SHL PUSH0 MSTORE PUSH1 0x11 PUSH1 0x4 MSTORE PUSH1 0x24 PUSH0 REVERT JUMPDEST DUP1 DUP3 MUL DUP2 ISZERO DUP3 DUP3 DIV DUP5 EQ OR PUSH2 0x1541 JUMPI PUSH2 0x1541 PUSH2 0x1728 JUMP JUMPDEST PUSH0 DUP3 PUSH2 0x176D JUMPI PUSH4 0x4E487B71 PUSH1 0xE0 SHL PUSH0 MSTORE PUSH1 0x12 PUSH1 0x4 MSTORE PUSH1 0x24 PUSH0 REVERT JUMPDEST POP DIV SWAP1 JUMP JUMPDEST DUP1 DUP3 ADD DUP1 DUP3 GT ISZERO PUSH2 0x1541 JUMPI PUSH2 0x1541 PUSH2 0x1728 JUMP JUMPDEST DUP2 DUP2 SUB DUP2 DUP2 GT ISZERO PUSH2 0x1541 JUMPI PUSH2 0x1541 PUSH2 0x1728 JUMP JUMPDEST PUSH0 PUSH1 0x20 DUP3 DUP5 SUB SLT ISZERO PUSH2 0x17A8 JUMPI PUSH0 DUP1 REVERT JUMPDEST POP MLOAD SWAP2 SWAP1 POP JUMP JUMPDEST PUSH0 PUSH1 0x3 RETURNDATASIZE GT ISZERO PUSH2 0x17C5 JUMPI PUSH1 0x4 PUSH0 DUP1 RETURNDATACOPY POP PUSH0 MLOAD PUSH1 0xE0 SHR JUMPDEST SWAP1 JUMP JUMPDEST PUSH4 0x4E487B71 PUSH1 0xE0 SHL PUSH0 MSTORE PUSH1 0x41 PUSH1 0x4 MSTORE PUSH1 0x24 PUSH0 REVERT JUMPDEST PUSH1 0x40 DUP2 ADD DUP2 DUP2 LT PUSH8 0xFFFFFFFFFFFFFFFF DUP3 GT OR ISZERO PUSH2 0x17FC JUMPI PUSH2 0x17FC PUSH2 0x17C8 JUMP JUMPDEST PUSH1 0x40 MSTORE POP JUMP JUMPDEST PUSH1 0xA0 DUP2 ADD DUP2 DUP2 LT PUSH8 0xFFFFFFFFFFFFFFFF DUP3 GT OR ISZERO PUSH2 0x17FC JUMPI PUSH2 0x17FC PUSH2 0x17C8 JUMP JUMPDEST PUSH1 0x1F DUP3 ADD PUSH1 0x1F NOT AND DUP2 ADD PUSH8 0xFFFFFFFFFFFFFFFF DUP2 GT DUP3 DUP3 LT OR ISZERO PUSH2 0x1848 JUMPI PUSH2 0x1848 PUSH2 0x17C8 JUMP JUMPDEST PUSH1 0x40 MSTORE POP POP JUMP JUMPDEST PUSH0 PUSH1 0x44 RETURNDATASIZE LT ISZERO PUSH2 0x185C JUMPI SWAP1 JUMP JUMPDEST PUSH1 0x40 MLOAD PUSH1 0x3 NOT RETURNDATASIZE DUP2 ADD PUSH1 0x4 DUP4 RETURNDATACOPY DUP2 MLOAD RETURNDATASIZE PUSH8 0xFFFFFFFFFFFFFFFF DUP2 PUSH1 0x24 DUP5 ADD GT DUP2 DUP5 GT OR ISZERO PUSH2 0x188C JUMPI POP POP POP POP POP SWAP1 JUMP JUMPDEST DUP3 DUP6 ADD SWAP2 POP DUP2 MLOAD DUP2 DUP2 GT ISZERO PUSH2 0x18A4 JUMPI POP POP POP POP POP POP SWAP1 JUMP JUMPDEST DUP5 RETURNDATASIZE DUP8 ADD ADD PUSH1 0x20 DUP3 DUP6 ADD ADD GT ISZERO PUSH2 0x18BE JUMPI POP POP POP POP POP POP SWAP1 JUMP JUMPDEST PUSH2 0x18CD PUSH1 0x20 DUP3 DUP7 ADD ADD DUP8 PUSH2 0x1822 JUMP JUMPDEST POP SWAP1 SWAP6 SWAP5 POP POP POP POP POP JUMP JUMPDEST DUP1 MLOAD DUP1 ISZERO ISZERO DUP2 EQ PUSH2 0x1624 JUMPI PUSH0 DUP1 REVERT JUMPDEST PUSH0 PUSH1 0x20 DUP3 DUP5 SUB SLT ISZERO PUSH2 0x18F7 JUMPI PUSH0 DUP1 REVERT JUMPDEST PUSH2 0x1642 DUP3 PUSH2 0x18D8 JUMP JUMPDEST DUP2 DUP2 SUB PUSH0 DUP4 SLT DUP1 ISZERO DUP4 DUP4 SGT AND DUP4 DUP4 SLT DUP3 AND OR ISZERO PUSH2 0x191F JUMPI PUSH2 0x191F PUSH2 0x1728 JUMP JUMPDEST POP SWAP3 SWAP2 POP POP JUMP JUMPDEST PUSH1 0x40 MLOAD PUSH1 0xC0 DUP2 ADD PUSH8 0xFFFFFFFFFFFFFFFF DUP2 GT DUP3 DUP3 LT OR ISZERO PUSH2 0x1949 JUMPI PUSH2 0x1949 PUSH2 0x17C8 JUMP JUMPDEST PUSH1 0x40 MSTORE SWAP1 JUMP JUMPDEST PUSH0 JUMPDEST DUP4 DUP2 LT ISZERO PUSH2 0x1969 JUMPI DUP2 DUP2 ADD MLOAD DUP4 DUP3 ADD MSTORE PUSH1 0x20 ADD PUSH2 0x1951 JUMP JUMPDEST POP POP PUSH0 SWAP2 ADD MSTORE JUMP JUMPDEST PUSH0 DUP3 PUSH1 0x1F DUP4 ADD SLT PUSH2 0x1980 JUMPI PUSH0 DUP1 REVERT JUMPDEST DUP2 MLOAD PUSH8 0xFFFFFFFFFFFFFFFF DUP2 GT ISZERO PUSH2 0x199A JUMPI PUSH2 0x199A PUSH2 0x17C8 JUMP JUMPDEST PUSH1 0x40 MLOAD PUSH2 0x19B1 PUSH1 0x1F DUP4 ADD PUSH1 0x1F NOT AND PUSH1 0x20 ADD DUP3 PUSH2 0x1822 JUMP JUMPDEST DUP2 DUP2 MSTORE DUP5 PUSH1 0x20 DUP4 DUP7 ADD ADD GT ISZERO PUSH2 0x19C5 JUMPI PUSH0 DUP1 REVERT JUMPDEST PUSH2 0x19D6 DUP3 PUSH1 0x20 DUP4 ADD PUSH1 0x20 DUP8 ADD PUSH2 0x194F JUMP JUMPDEST SWAP5 SWAP4 POP POP POP POP JUMP JUMPDEST DUP1 MLOAD PUSH1 0x6 DUP2 LT PUSH2 0x1624 JUMPI PUSH0 DUP1 REVERT JUMPDEST DUP1 MLOAD PUSH2 0x1624 DUP2 PUSH2 0x1660 JUMP JUMPDEST PUSH0 DUP3 PUSH1 0x1F DUP4 ADD SLT PUSH2 0x1A06 JUMPI PUSH0 DUP1 REVERT JUMPDEST DUP2 MLOAD PUSH1 0x20 PUSH8 0xFFFFFFFFFFFFFFFF DUP3 GT ISZERO PUSH2 0x1A22 JUMPI PUSH2 0x1A22 PUSH2 0x17C8 JUMP JUMPDEST PUSH1 0x40 DUP1 MLOAD PUSH2 0x1A35 DUP4 DUP6 PUSH1 0x5 SHL ADD DUP3 PUSH2 0x1822 JUMP JUMPDEST DUP4 DUP2 MSTORE PUSH1 0x6 SWAP4 SWAP1 SWAP4 SHL DUP6 ADD DUP3 ADD SWAP3 DUP3 DUP2 ADD DUP8 DUP6 GT ISZERO PUSH2 0x1A52 JUMPI PUSH0 DUP1 REVERT JUMPDEST DUP4 DUP8 ADD JUMPDEST DUP6 DUP2 LT ISZERO PUSH2 0x1A99 JUMPI DUP4 DUP2 DUP11 SUB SLT ISZERO PUSH2 0x1A6C JUMPI PUSH0 DUP1 REVERT JUMPDEST DUP4 MLOAD PUSH2 0x1A77 DUP2 PUSH2 0x17DC JUMP JUMPDEST DUP2 MLOAD PUSH2 0x1A82 DUP2 PUSH2 0x1660 JUMP JUMPDEST DUP2 MSTORE DUP2 DUP7 ADD MLOAD DUP7 DUP3 ADD MSTORE DUP3 MSTORE SWAP1 DUP5 ADD SWAP1 DUP4 ADD PUSH2 0x1A56 JUMP JUMPDEST POP SWAP1 SWAP8 SWAP7 POP POP POP POP POP POP POP JUMP JUMPDEST PUSH0 PUSH1 0x20 DUP3 DUP5 SUB SLT ISZERO PUSH2 0x1AB6 JUMPI PUSH0 DUP1 REVERT JUMPDEST DUP2 MLOAD PUSH8 0xFFFFFFFFFFFFFFFF DUP1 DUP3 GT ISZERO PUSH2 0x1ACD JUMPI PUSH0 DUP1 REVERT JUMPDEST SWAP1 DUP4 ADD SWAP1 PUSH1 0xA0 DUP3 DUP7 SUB SLT ISZERO PUSH2 0x1AE0 JUMPI PUSH0 DUP1 REVERT JUMPDEST PUSH1 0x40 MLOAD PUSH2 0x1AEC DUP2 PUSH2 0x1802 JUMP JUMPDEST DUP3 MLOAD DUP2 MSTORE PUSH1 0x20 DUP4 ADD MLOAD DUP3 DUP2 GT ISZERO PUSH2 0x1B01 JUMPI PUSH0 DUP1 REVERT JUMPDEST DUP4 ADD PUSH1 0xC0 DUP2 DUP9 SUB SLT ISZERO PUSH2 0x1B12 JUMPI PUSH0 DUP1 REVERT JUMPDEST PUSH2 0x1B1A PUSH2 0x1926 JUMP JUMPDEST DUP2 MLOAD DUP5 DUP2 GT ISZERO PUSH2 0x1B28 JUMPI PUSH0 DUP1 REVERT JUMPDEST PUSH2 0x1B34 DUP10 DUP3 DUP6 ADD PUSH2 0x1971 JUMP JUMPDEST DUP3 MSTORE POP PUSH1 0x20 DUP3 ADD MLOAD DUP5 DUP2 GT ISZERO PUSH2 0x1B48 JUMPI PUSH0 DUP1 REVERT JUMPDEST PUSH2 0x1B54 DUP10 DUP3 DUP6 ADD PUSH2 0x1971 JUMP JUMPDEST PUSH1 0x20 DUP4 ADD MSTORE POP PUSH2 0x1B66 PUSH1 0x40 DUP4 ADD PUSH2 0x19DE JUMP JUMPDEST PUSH1 0x40 DUP3 ADD MSTORE PUSH1 0x60 DUP3 ADD MLOAD DUP5 DUP2 GT ISZERO PUSH2 0x1B7C JUMPI PUSH0 DUP1 REVERT JUMPDEST PUSH2 0x1B88 DUP10 DUP3 DUP6 ADD PUSH2 0x1971 JUMP JUMPDEST PUSH1 0x60 DUP4 ADD MSTORE POP PUSH1 0x80 DUP3 ADD MLOAD DUP5 DUP2 GT ISZERO PUSH2 0x1B9F JUMPI PUSH0 DUP1 REVERT JUMPDEST PUSH2 0x1BAB DUP10 DUP3 DUP6 ADD PUSH2 0x1971 JUMP JUMPDEST PUSH1 0x80 DUP4 ADD MSTORE POP PUSH1 0xA0 DUP3 ADD MLOAD DUP5 DUP2 GT ISZERO PUSH2 0x1BC2 JUMPI PUSH0 DUP1 REVERT JUMPDEST PUSH2 0x1BCE DUP10 DUP3 DUP6 ADD PUSH2 0x1971 JUMP JUMPDEST PUSH1 0xA0 DUP4 ADD MSTORE POP PUSH1 0x20 DUP4 ADD MSTORE POP PUSH1 0x40 DUP4 ADD MLOAD DUP3 DUP2 GT ISZERO PUSH2 0x1BEB JUMPI PUSH0 DUP1 REVERT JUMPDEST PUSH2 0x1BF7 DUP8 DUP3 DUP7 ADD PUSH2 0x19F7 JUMP JUMPDEST PUSH1 0x40 DUP4 ADD MSTORE POP PUSH2 0x1C09 PUSH1 0x60 DUP5 ADD PUSH2 0x19EC JUMP JUMPDEST PUSH1 0x60 DUP3 ADD MSTORE PUSH2 0x1C1A PUSH1 0x80 DUP5 ADD PUSH2 0x18D8 JUMP JUMPDEST PUSH1 0x80 DUP3 ADD MSTORE SWAP6 SWAP5 POP POP POP POP POP JUMP JUMPDEST PUSH4 0x4E487B71 PUSH1 0xE0 SHL PUSH0 MSTORE PUSH1 0x32 PUSH1 0x4 MSTORE PUSH1 0x24 PUSH0 REVERT JUMPDEST PUSH1 0x60 DUP1 DUP3 MSTORE DUP5 MLOAD SWAP1 DUP3 ADD DUP2 SWAP1 MSTORE PUSH0 SWAP1 PUSH1 0x20 SWAP1 PUSH1 0x80 DUP5 ADD SWAP1 DUP3 DUP9 ADD DUP5 JUMPDEST DUP3 DUP2 LT ISZERO PUSH2 0x1C7D JUMPI DUP2 MLOAD PUSH1 0x1 PUSH1 0x1 PUSH1 0xA0 SHL SUB AND DUP5 MSTORE SWAP3 DUP5 ADD SWAP3 SWAP1 DUP5 ADD SWAP1 PUSH1 0x1 ADD PUSH2 0x1C58 JUMP JUMPDEST POP POP POP DUP4 DUP2 SUB DUP3 DUP6 ADD MSTORE DUP6 MLOAD DUP1 DUP3 MSTORE DUP7 DUP4 ADD SWAP2 DUP4 ADD SWAP1 PUSH0 JUMPDEST DUP2 DUP2 LT ISZERO PUSH2 0x1CB1 JUMPI DUP4 MLOAD DUP4 MSTORE SWAP3 DUP5 ADD SWAP3 SWAP2 DUP5 ADD SWAP2 PUSH1 0x1 ADD PUSH2 0x1C95 JUMP JUMPDEST POP POP DUP1 SWAP4 POP POP POP POP DUP3 PUSH1 0x40 DUP4 ADD MSTORE SWAP5 SWAP4 POP POP POP POP JUMP JUMPDEST PUSH0 DUP3 MLOAD PUSH2 0x1CD8 DUP2 DUP5 PUSH1 0x20 DUP8 ADD PUSH2 0x194F JUMP JUMPDEST SWAP2 SWAP1 SWAP2 ADD SWAP3 SWAP2 POP POP JUMP INVALID 0xCD 0x5E 0xD1 0x5C PUSH15 0x187E77E9AEE88184C21F4F2182AB58 0x27 0xCB EXTCODESIZE PUSH31 0x7FBEDCD63F033009B779B17422D0DF92223018B32B4D1FA46E071723D6817 0xE2 BASEFEE PUSH14 0x3BECC55F00A264697066735822 SLT KECCAK256 0xEB STATICCALL SMOD BLOCKHASH REVERT EXTCODEHASH 0xED 0xCF PUSH4 0xC0BF74DA LOG3 MSTORE8 BASEFEE PUSH0 0x4F PUSH31 0xCB6CA40B0FDEAA7C60D0DCA1B764736F6C6343000816003300000000000000 "
				},
				"gasEstimates": {
					"creation": {
						"codeDepositCost": "1502400",
						"executionCost": "1566",
						"totalCost": "1503966"
					},
					"external": {
						"auction()": "10911",
						"createBid(uint256)": "infinite",
						"creatorRateBps()": "2340",
						"duration()": "2362",
						"entropyRateBps()": "2426",
						"initialize(address,address,address,address,uint256,uint256,uint8,uint256,uint256,uint256)": "infinite",
						"minBidIncrementPercentage()": "2445",
						"owner()": "2401",
						"pause()": "infinite",
						"paused()": "infinite",
						"renounceOwnership()": "infinite",
						"reservePrice()": "2338",
						"setMinBidIncrementPercentage(uint8)": "27886",
						"setReservePrice(uint256)": "25630",
						"setTimeBuffer(uint256)": "25719",
						"settleAuction()": "infinite",
						"settleCurrentAndCreateNewAuction()": "infinite",
						"timeBuffer()": "2360",
						"tokenEmitter()": "2437",
						"transferOwnership(address)": "infinite",
						"unpause()": "infinite",
						"verbs()": "2348",
						"weth()": "2370"
					},
					"internal": {
						"_createAuction()": "infinite",
						"_safeTransferETH(address,uint256)": "infinite",
						"_safeTransferETHWithFallback(address,uint256)": "infinite",
						"_settleAuction()": "infinite"
					}
				},
				"methodIdentifiers": {
					"auction()": "7d9f6db5",
					"createBid(uint256)": "659dd2b4",
					"creatorRateBps()": "0802be0a",
					"duration()": "0fb5a6b4",
					"entropyRateBps()": "fe95233b",
					"initialize(address,address,address,address,uint256,uint256,uint8,uint256,uint256,uint256)": "a910d318",
					"minBidIncrementPercentage()": "b296024d",
					"owner()": "8da5cb5b",
					"pause()": "8456cb59",
					"paused()": "5c975abb",
					"renounceOwnership()": "715018a6",
					"reservePrice()": "db2e1eed",
					"setMinBidIncrementPercentage(uint8)": "36ebdb38",
					"setReservePrice(uint256)": "ce9c7c0d",
					"setTimeBuffer(uint256)": "7120334b",
					"settleAuction()": "a4d0a17e",
					"settleCurrentAndCreateNewAuction()": "f25efffc",
					"timeBuffer()": "ec91f2a4",
					"tokenEmitter()": "3d64baf1",
					"transferOwnership(address)": "f2fde38b",
					"unpause()": "3f4ba83a",
					"verbs()": "0284464a",
					"weth()": "3fc8cef3"
				}
			},
			"storageLayout": {
				"storage": [
					{
						"astId": 1110,
						"contract": "packages/revolution-contracts/VerbsAuctionHouse.sol:VerbsAuctionHouse",
						"label": "verbs",
						"offset": 0,
						"slot": "0",
						"type": "t_contract(IVerbsToken)2294"
					},
					{
						"astId": 1113,
						"contract": "packages/revolution-contracts/VerbsAuctionHouse.sol:VerbsAuctionHouse",
						"label": "tokenEmitter",
						"offset": 0,
						"slot": "1",
						"type": "t_contract(ITokenEmitter)2089"
					},
					{
						"astId": 1115,
						"contract": "packages/revolution-contracts/VerbsAuctionHouse.sol:VerbsAuctionHouse",
						"label": "weth",
						"offset": 0,
						"slot": "2",
						"type": "t_address"
					},
					{
						"astId": 1117,
						"contract": "packages/revolution-contracts/VerbsAuctionHouse.sol:VerbsAuctionHouse",
						"label": "timeBuffer",
						"offset": 0,
						"slot": "3",
						"type": "t_uint256"
					},
					{
						"astId": 1119,
						"contract": "packages/revolution-contracts/VerbsAuctionHouse.sol:VerbsAuctionHouse",
						"label": "reservePrice",
						"offset": 0,
						"slot": "4",
						"type": "t_uint256"
					},
					{
						"astId": 1121,
						"contract": "packages/revolution-contracts/VerbsAuctionHouse.sol:VerbsAuctionHouse",
						"label": "minBidIncrementPercentage",
						"offset": 0,
						"slot": "5",
						"type": "t_uint8"
					},
					{
						"astId": 1123,
						"contract": "packages/revolution-contracts/VerbsAuctionHouse.sol:VerbsAuctionHouse",
						"label": "creatorRateBps",
						"offset": 0,
						"slot": "6",
						"type": "t_uint256"
					},
					{
						"astId": 1125,
						"contract": "packages/revolution-contracts/VerbsAuctionHouse.sol:VerbsAuctionHouse",
						"label": "entropyRateBps",
						"offset": 0,
						"slot": "7",
						"type": "t_uint256"
					},
					{
						"astId": 1127,
						"contract": "packages/revolution-contracts/VerbsAuctionHouse.sol:VerbsAuctionHouse",
						"label": "duration",
						"offset": 0,
						"slot": "8",
						"type": "t_uint256"
					},
					{
						"astId": 1130,
						"contract": "packages/revolution-contracts/VerbsAuctionHouse.sol:VerbsAuctionHouse",
						"label": "auction",
						"offset": 0,
						"slot": "9",
						"type": "t_struct(Auction)2104_storage"
					}
				],
				"types": {
					"t_address": {
						"encoding": "inplace",
						"label": "address",
						"numberOfBytes": "20"
					},
					"t_address_payable": {
						"encoding": "inplace",
						"label": "address payable",
						"numberOfBytes": "20"
					},
					"t_bool": {
						"encoding": "inplace",
						"label": "bool",
						"numberOfBytes": "1"
					},
					"t_contract(ITokenEmitter)2089": {
						"encoding": "inplace",
						"label": "contract ITokenEmitter",
						"numberOfBytes": "20"
					},
					"t_contract(IVerbsToken)2294": {
						"encoding": "inplace",
						"label": "contract IVerbsToken",
						"numberOfBytes": "20"
					},
					"t_struct(Auction)2104_storage": {
						"encoding": "inplace",
						"label": "struct IVerbsAuctionHouse.Auction",
						"members": [
							{
								"astId": 2093,
								"contract": "packages/revolution-contracts/VerbsAuctionHouse.sol:VerbsAuctionHouse",
								"label": "verbId",
								"offset": 0,
								"slot": "0",
								"type": "t_uint256"
							},
							{
								"astId": 2095,
								"contract": "packages/revolution-contracts/VerbsAuctionHouse.sol:VerbsAuctionHouse",
								"label": "amount",
								"offset": 0,
								"slot": "1",
								"type": "t_uint256"
							},
							{
								"astId": 2097,
								"contract": "packages/revolution-contracts/VerbsAuctionHouse.sol:VerbsAuctionHouse",
								"label": "startTime",
								"offset": 0,
								"slot": "2",
								"type": "t_uint256"
							},
							{
								"astId": 2099,
								"contract": "packages/revolution-contracts/VerbsAuctionHouse.sol:VerbsAuctionHouse",
								"label": "endTime",
								"offset": 0,
								"slot": "3",
								"type": "t_uint256"
							},
							{
								"astId": 2101,
								"contract": "packages/revolution-contracts/VerbsAuctionHouse.sol:VerbsAuctionHouse",
								"label": "bidder",
								"offset": 0,
								"slot": "4",
								"type": "t_address_payable"
							},
							{
								"astId": 2103,
								"contract": "packages/revolution-contracts/VerbsAuctionHouse.sol:VerbsAuctionHouse",
								"label": "settled",
								"offset": 20,
								"slot": "4",
								"type": "t_bool"
							}
						],
						"numberOfBytes": "160"
					},
					"t_uint256": {
						"encoding": "inplace",
						"label": "uint256",
						"numberOfBytes": "32"
					},
					"t_uint8": {
						"encoding": "inplace",
						"label": "uint8",
						"numberOfBytes": "1"
					}
				}
			},
			"userdoc": {
				"kind": "user",
				"methods": {
					"createBid(uint256)": {
						"notice": "Create a bid for a Verb, with a given amount."
					},
					"initialize(address,address,address,address,uint256,uint256,uint8,uint256,uint256,uint256)": {
						"notice": "Initialize the auction house and base contracts, populate configuration values, and pause the contract."
					},
					"pause()": {
						"notice": "Pause the Verbs auction house."
					},
					"setMinBidIncrementPercentage(uint8)": {
						"notice": "Set the auction minimum bid increment percentage."
					},
					"setReservePrice(uint256)": {
						"notice": "Set the auction reserve price."
					},
					"setTimeBuffer(uint256)": {
						"notice": "Set the auction time buffer."
					},
					"settleAuction()": {
						"notice": "Settle the current auction."
					},
					"settleCurrentAndCreateNewAuction()": {
						"notice": "Settle the current auction, mint a new Verb, and put it up for auction."
					},
					"unpause()": {
						"notice": "Unpause the Verbs auction house."
					}
				},
				"version": 1
			}
		}
	}
}