{
	"packages/revolution-contracts/CultureIndex.sol": {
		"CultureIndex": {
			"abi": [
				{
					"inputs": [
						{
							"internalType": "address",
							"name": "_votingToken",
							"type": "address"
						},
						{
							"internalType": "address",
							"name": "_initialOwner",
							"type": "address"
						}
					],
					"stateMutability": "nonpayable",
					"type": "constructor"
				},
				{
					"inputs": [
						{
							"internalType": "address",
							"name": "owner",
							"type": "address"
						}
					],
					"name": "OwnableInvalidOwner",
					"type": "error"
				},
				{
					"inputs": [
						{
							"internalType": "address",
							"name": "account",
							"type": "address"
						}
					],
					"name": "OwnableUnauthorizedAccount",
					"type": "error"
				},
				{
					"inputs": [],
					"name": "ReentrancyGuardReentrantCall",
					"type": "error"
				},
				{
					"anonymous": false,
					"inputs": [
						{
							"indexed": true,
							"internalType": "address",
							"name": "previousOwner",
							"type": "address"
						},
						{
							"indexed": true,
							"internalType": "address",
							"name": "newOwner",
							"type": "address"
						}
					],
					"name": "OwnershipTransferred",
					"type": "event"
				},
				{
					"anonymous": false,
					"inputs": [
						{
							"indexed": true,
							"internalType": "uint256",
							"name": "pieceId",
							"type": "uint256"
						},
						{
							"indexed": true,
							"internalType": "address",
							"name": "dropper",
							"type": "address"
						},
						{
							"indexed": false,
							"internalType": "string",
							"name": "name",
							"type": "string"
						},
						{
							"indexed": false,
							"internalType": "string",
							"name": "description",
							"type": "string"
						},
						{
							"indexed": false,
							"internalType": "string",
							"name": "image",
							"type": "string"
						},
						{
							"indexed": false,
							"internalType": "string",
							"name": "animationUrl",
							"type": "string"
						},
						{
							"indexed": false,
							"internalType": "string",
							"name": "text",
							"type": "string"
						},
						{
							"indexed": false,
							"internalType": "uint8",
							"name": "mediaType",
							"type": "uint8"
						}
					],
					"name": "PieceCreated",
					"type": "event"
				},
				{
					"anonymous": false,
					"inputs": [
						{
							"indexed": true,
							"internalType": "uint256",
							"name": "pieceId",
							"type": "uint256"
						},
						{
							"indexed": true,
							"internalType": "address",
							"name": "creatorAddress",
							"type": "address"
						},
						{
							"indexed": true,
							"internalType": "address",
							"name": "dropper",
							"type": "address"
						},
						{
							"indexed": false,
							"internalType": "uint256",
							"name": "bps",
							"type": "uint256"
						}
					],
					"name": "PieceCreatorAdded",
					"type": "event"
				},
				{
					"anonymous": false,
					"inputs": [
						{
							"indexed": true,
							"internalType": "uint256",
							"name": "pieceId",
							"type": "uint256"
						},
						{
							"indexed": true,
							"internalType": "address",
							"name": "remover",
							"type": "address"
						}
					],
					"name": "PieceDropped",
					"type": "event"
				},
				{
					"anonymous": false,
					"inputs": [
						{
							"indexed": true,
							"internalType": "uint256",
							"name": "pieceId",
							"type": "uint256"
						},
						{
							"indexed": true,
							"internalType": "address",
							"name": "creatorAddress",
							"type": "address"
						},
						{
							"indexed": true,
							"internalType": "address",
							"name": "dropper",
							"type": "address"
						},
						{
							"indexed": false,
							"internalType": "uint256",
							"name": "bps",
							"type": "uint256"
						}
					],
					"name": "PieceDroppedCreator",
					"type": "event"
				},
				{
					"anonymous": false,
					"inputs": [
						{
							"indexed": true,
							"internalType": "uint256",
							"name": "pieceId",
							"type": "uint256"
						},
						{
							"indexed": true,
							"internalType": "address",
							"name": "voter",
							"type": "address"
						},
						{
							"indexed": false,
							"internalType": "uint256",
							"name": "weight",
							"type": "uint256"
						},
						{
							"indexed": false,
							"internalType": "uint256",
							"name": "totalWeight",
							"type": "uint256"
						}
					],
					"name": "VoteCast",
					"type": "event"
				},
				{
					"inputs": [
						{
							"internalType": "uint256[]",
							"name": "pieceIds",
							"type": "uint256[]"
						}
					],
					"name": "batchVote",
					"outputs": [],
					"stateMutability": "nonpayable",
					"type": "function"
				},
				{
					"inputs": [
						{
							"components": [
								{
									"internalType": "string",
									"name": "name",
									"type": "string"
								},
								{
									"internalType": "string",
									"name": "description",
									"type": "string"
								},
								{
									"internalType": "enum ICultureIndex.MediaType",
									"name": "mediaType",
									"type": "uint8"
								},
								{
									"internalType": "string",
									"name": "image",
									"type": "string"
								},
								{
									"internalType": "string",
									"name": "text",
									"type": "string"
								},
								{
									"internalType": "string",
									"name": "animationUrl",
									"type": "string"
								}
							],
							"internalType": "struct ICultureIndex.ArtPieceMetadata",
							"name": "metadata",
							"type": "tuple"
						},
						{
							"components": [
								{
									"internalType": "address",
									"name": "creator",
									"type": "address"
								},
								{
									"internalType": "uint256",
									"name": "bps",
									"type": "uint256"
								}
							],
							"internalType": "struct ICultureIndex.CreatorBps[]",
							"name": "creatorArray",
							"type": "tuple[]"
						}
					],
					"name": "createPiece",
					"outputs": [
						{
							"internalType": "uint256",
							"name": "",
							"type": "uint256"
						}
					],
					"stateMutability": "nonpayable",
					"type": "function"
				},
				{
					"inputs": [],
					"name": "dropTopVotedPiece",
					"outputs": [
						{
							"components": [
								{
									"internalType": "uint256",
									"name": "pieceId",
									"type": "uint256"
								},
								{
									"components": [
										{
											"internalType": "string",
											"name": "name",
											"type": "string"
										},
										{
											"internalType": "string",
											"name": "description",
											"type": "string"
										},
										{
											"internalType": "enum ICultureIndex.MediaType",
											"name": "mediaType",
											"type": "uint8"
										},
										{
											"internalType": "string",
											"name": "image",
											"type": "string"
										},
										{
											"internalType": "string",
											"name": "text",
											"type": "string"
										},
										{
											"internalType": "string",
											"name": "animationUrl",
											"type": "string"
										}
									],
									"internalType": "struct ICultureIndex.ArtPieceMetadata",
									"name": "metadata",
									"type": "tuple"
								},
								{
									"components": [
										{
											"internalType": "address",
											"name": "creator",
											"type": "address"
										},
										{
											"internalType": "uint256",
											"name": "bps",
											"type": "uint256"
										}
									],
									"internalType": "struct ICultureIndex.CreatorBps[]",
									"name": "creators",
									"type": "tuple[]"
								},
								{
									"internalType": "address",
									"name": "dropper",
									"type": "address"
								},
								{
									"internalType": "bool",
									"name": "isDropped",
									"type": "bool"
								}
							],
							"internalType": "struct ICultureIndex.ArtPiece",
							"name": "",
							"type": "tuple"
						}
					],
					"stateMutability": "nonpayable",
					"type": "function"
				},
				{
					"inputs": [
						{
							"internalType": "uint256",
							"name": "pieceId",
							"type": "uint256"
						}
					],
					"name": "getPieceById",
					"outputs": [
						{
							"components": [
								{
									"internalType": "uint256",
									"name": "pieceId",
									"type": "uint256"
								},
								{
									"components": [
										{
											"internalType": "string",
											"name": "name",
											"type": "string"
										},
										{
											"internalType": "string",
											"name": "description",
											"type": "string"
										},
										{
											"internalType": "enum ICultureIndex.MediaType",
											"name": "mediaType",
											"type": "uint8"
										},
										{
											"internalType": "string",
											"name": "image",
											"type": "string"
										},
										{
											"internalType": "string",
											"name": "text",
											"type": "string"
										},
										{
											"internalType": "string",
											"name": "animationUrl",
											"type": "string"
										}
									],
									"internalType": "struct ICultureIndex.ArtPieceMetadata",
									"name": "metadata",
									"type": "tuple"
								},
								{
									"components": [
										{
											"internalType": "address",
											"name": "creator",
											"type": "address"
										},
										{
											"internalType": "uint256",
											"name": "bps",
											"type": "uint256"
										}
									],
									"internalType": "struct ICultureIndex.CreatorBps[]",
									"name": "creators",
									"type": "tuple[]"
								},
								{
									"internalType": "address",
									"name": "dropper",
									"type": "address"
								},
								{
									"internalType": "bool",
									"name": "isDropped",
									"type": "bool"
								}
							],
							"internalType": "struct ICultureIndex.ArtPiece",
							"name": "",
							"type": "tuple"
						}
					],
					"stateMutability": "view",
					"type": "function"
				},
				{
					"inputs": [],
					"name": "getTopVotedPiece",
					"outputs": [
						{
							"components": [
								{
									"internalType": "uint256",
									"name": "pieceId",
									"type": "uint256"
								},
								{
									"components": [
										{
											"internalType": "string",
											"name": "name",
											"type": "string"
										},
										{
											"internalType": "string",
											"name": "description",
											"type": "string"
										},
										{
											"internalType": "enum ICultureIndex.MediaType",
											"name": "mediaType",
											"type": "uint8"
										},
										{
											"internalType": "string",
											"name": "image",
											"type": "string"
										},
										{
											"internalType": "string",
											"name": "text",
											"type": "string"
										},
										{
											"internalType": "string",
											"name": "animationUrl",
											"type": "string"
										}
									],
									"internalType": "struct ICultureIndex.ArtPieceMetadata",
									"name": "metadata",
									"type": "tuple"
								},
								{
									"components": [
										{
											"internalType": "address",
											"name": "creator",
											"type": "address"
										},
										{
											"internalType": "uint256",
											"name": "bps",
											"type": "uint256"
										}
									],
									"internalType": "struct ICultureIndex.CreatorBps[]",
									"name": "creators",
									"type": "tuple[]"
								},
								{
									"internalType": "address",
									"name": "dropper",
									"type": "address"
								},
								{
									"internalType": "bool",
									"name": "isDropped",
									"type": "bool"
								}
							],
							"internalType": "struct ICultureIndex.ArtPiece",
							"name": "",
							"type": "tuple"
						}
					],
					"stateMutability": "view",
					"type": "function"
				},
				{
					"inputs": [
						{
							"internalType": "uint256",
							"name": "pieceId",
							"type": "uint256"
						},
						{
							"internalType": "address",
							"name": "voter",
							"type": "address"
						}
					],
					"name": "getVote",
					"outputs": [
						{
							"components": [
								{
									"internalType": "address",
									"name": "voterAddress",
									"type": "address"
								},
								{
									"internalType": "uint256",
									"name": "weight",
									"type": "uint256"
								}
							],
							"internalType": "struct ICultureIndex.Vote",
							"name": "",
							"type": "tuple"
						}
					],
					"stateMutability": "view",
					"type": "function"
				},
				{
					"inputs": [
						{
							"internalType": "address",
							"name": "voter",
							"type": "address"
						}
					],
					"name": "getVoterWeight",
					"outputs": [
						{
							"internalType": "uint256",
							"name": "",
							"type": "uint256"
						}
					],
					"stateMutability": "view",
					"type": "function"
				},
				{
					"inputs": [
						{
							"internalType": "uint256",
							"name": "pieceId",
							"type": "uint256"
						},
						{
							"internalType": "address",
							"name": "voter",
							"type": "address"
						}
					],
					"name": "hasVoted",
					"outputs": [
						{
							"internalType": "bool",
							"name": "",
							"type": "bool"
						}
					],
					"stateMutability": "view",
					"type": "function"
				},
				{
					"inputs": [],
					"name": "maxHeap",
					"outputs": [
						{
							"internalType": "contract MaxHeap",
							"name": "",
							"type": "address"
						}
					],
					"stateMutability": "view",
					"type": "function"
				},
				{
					"inputs": [],
					"name": "owner",
					"outputs": [
						{
							"internalType": "address",
							"name": "",
							"type": "address"
						}
					],
					"stateMutability": "view",
					"type": "function"
				},
				{
					"inputs": [],
					"name": "pieceCount",
					"outputs": [
						{
							"internalType": "uint256",
							"name": "",
							"type": "uint256"
						}
					],
					"stateMutability": "view",
					"type": "function"
				},
				{
					"inputs": [
						{
							"internalType": "uint256",
							"name": "",
							"type": "uint256"
						}
					],
					"name": "pieces",
					"outputs": [
						{
							"internalType": "uint256",
							"name": "pieceId",
							"type": "uint256"
						},
						{
							"components": [
								{
									"internalType": "string",
									"name": "name",
									"type": "string"
								},
								{
									"internalType": "string",
									"name": "description",
									"type": "string"
								},
								{
									"internalType": "enum ICultureIndex.MediaType",
									"name": "mediaType",
									"type": "uint8"
								},
								{
									"internalType": "string",
									"name": "image",
									"type": "string"
								},
								{
									"internalType": "string",
									"name": "text",
									"type": "string"
								},
								{
									"internalType": "string",
									"name": "animationUrl",
									"type": "string"
								}
							],
							"internalType": "struct ICultureIndex.ArtPieceMetadata",
							"name": "metadata",
							"type": "tuple"
						},
						{
							"internalType": "address",
							"name": "dropper",
							"type": "address"
						},
						{
							"internalType": "bool",
							"name": "isDropped",
							"type": "bool"
						}
					],
					"stateMutability": "view",
					"type": "function"
				},
				{
					"inputs": [],
					"name": "renounceOwnership",
					"outputs": [],
					"stateMutability": "nonpayable",
					"type": "function"
				},
				{
					"inputs": [],
					"name": "topVotedPieceId",
					"outputs": [
						{
							"internalType": "uint256",
							"name": "",
							"type": "uint256"
						}
					],
					"stateMutability": "view",
					"type": "function"
				},
				{
					"inputs": [
						{
							"internalType": "uint256",
							"name": "",
							"type": "uint256"
						}
					],
					"name": "totalVoteWeights",
					"outputs": [
						{
							"internalType": "uint256",
							"name": "",
							"type": "uint256"
						}
					],
					"stateMutability": "view",
					"type": "function"
				},
				{
					"inputs": [
						{
							"internalType": "address",
							"name": "newOwner",
							"type": "address"
						}
					],
					"name": "transferOwnership",
					"outputs": [],
					"stateMutability": "nonpayable",
					"type": "function"
				},
				{
					"inputs": [
						{
							"internalType": "uint256",
							"name": "pieceId",
							"type": "uint256"
						}
					],
					"name": "vote",
					"outputs": [],
					"stateMutability": "nonpayable",
					"type": "function"
				},
				{
					"inputs": [
						{
							"internalType": "uint256",
							"name": "",
							"type": "uint256"
						},
						{
							"internalType": "address",
							"name": "",
							"type": "address"
						}
					],
					"name": "votes",
					"outputs": [
						{
							"internalType": "address",
							"name": "voterAddress",
							"type": "address"
						},
						{
							"internalType": "uint256",
							"name": "weight",
							"type": "uint256"
						}
					],
					"stateMutability": "view",
					"type": "function"
				},
				{
					"inputs": [],
					"name": "votingToken",
					"outputs": [
						{
							"internalType": "contract IERC20",
							"name": "",
							"type": "address"
						}
					],
					"stateMutability": "view",
					"type": "function"
				}
			],
			"devdoc": {
				"errors": {
					"OwnableInvalidOwner(address)": [
						{
							"details": "The owner is not a valid owner account. (eg. `address(0)`)"
						}
					],
					"OwnableUnauthorizedAccount(address)": [
						{
							"details": "The caller account is not authorized to perform an operation."
						}
					],
					"ReentrancyGuardReentrantCall()": [
						{
							"details": "Unauthorized reentrant call."
						}
					]
				},
				"events": {
					"PieceCreated(uint256,address,string,string,string,string,string,uint8)": {
						"details": "Emitted when a new piece is created.",
						"params": {
							"animationUrl": "(Optional) URL for the animation associated with the art piece.",
							"description": "Description of the art piece.",
							"dropper": "Address that created the piece.",
							"image": "URL for the image associated with the art piece.",
							"mediaType": "Integer representation of the media type for the art piece.",
							"name": "Name of the art piece.",
							"pieceId": "Unique identifier for the newly created piece.",
							"text": "Text content for the art piece."
						}
					},
					"PieceDropped(uint256,address)": {
						"details": "Emitted when a top-voted piece is dropped or released.",
						"params": {
							"pieceId": "Unique identifier for the dropped piece.",
							"remover": "Address that initiated the drop."
						}
					},
					"PieceDroppedCreator(uint256,address,address,uint256)": {
						"details": "Emitted for each creator added to a piece when it is dropped.",
						"params": {
							"bps": "Basis points associated with the creator for revenue sharing.",
							"creatorAddress": "Address of the creator.",
							"dropper": "Address that created the piece.",
							"pieceId": "Unique identifier for the dropped piece."
						}
					},
					"VoteCast(uint256,address,uint256,uint256)": {
						"details": "Emitted when a vote is cast for a piece.",
						"params": {
							"pieceId": "Unique identifier for the piece being voted for.",
							"totalWeight": "Total weight of votes for the piece after the new vote.",
							"voter": "Address of the voter.",
							"weight": "Weight of the vote."
						}
					}
				},
				"kind": "dev",
				"methods": {
					"batchVote(uint256[])": {
						"details": "Requires that the pieceIds are valid, the voter has not already voted on this piece, and the weight is greater than zero. Emits a series of VoteCast event upon successful execution.",
						"params": {
							"pieceIds": "The IDs of the ArtPieces to vote for."
						}
					},
					"createPiece((string,string,uint8,string,string,string),(address,uint256)[])": {
						"params": {
							"creatorArray": "An array of creators who contributed to the piece, along with their respective basis points that must sum up to 10,000.",
							"metadata": "The metadata associated with the art piece, including name, description, image, and optional animation URL."
						},
						"returns": {
							"_0": "Returns the unique ID of the newly created art piece. Emits a {PieceCreated} event for the newly created piece. Emits a {PieceCreatorAdded} event for each creator added to the piece. Requirements: - `metadata` must include name, description, and image. Animation URL is optional. - `creatorArray` must not contain any zero addresses. - The sum of basis points in `creatorArray` must be exactly 10,000."
						}
					},
					"dropTopVotedPiece()": {
						"returns": {
							"_0": "The top voted piece"
						}
					},
					"getPieceById(uint256)": {
						"params": {
							"pieceId": "The ID of the art piece."
						},
						"returns": {
							"_0": "The ArtPiece struct associated with the given ID."
						}
					},
					"getTopVotedPiece()": {
						"returns": {
							"_0": "The ArtPiece struct of the top-voted art piece."
						}
					},
					"getVote(uint256,address)": {
						"params": {
							"pieceId": "The ID of the art piece."
						},
						"returns": {
							"_0": "An array of Vote structs for the given art piece ID."
						}
					},
					"getVoterWeight(address)": {
						"returns": {
							"_0": "The vote weight of the voter."
						}
					},
					"hasVoted(uint256,address)": {
						"params": {
							"pieceId": "The ID of the art piece.",
							"voter": "The address of the voter."
						},
						"returns": {
							"_0": "A boolean indicating if the voter has voted for the art piece."
						}
					},
					"owner()": {
						"details": "Returns the address of the current owner."
					},
					"renounceOwnership()": {
						"details": "Leaves the contract without owner. It will not be possible to call `onlyOwner` functions. Can only be called by the current owner. NOTE: Renouncing ownership will leave the contract without an owner, thereby disabling any functionality that is only available to the owner."
					},
					"topVotedPieceId()": {
						"returns": {
							"_0": "The top-voted pieceId"
						}
					},
					"transferOwnership(address)": {
						"details": "Transfers ownership of the contract to a new account (`newOwner`). Can only be called by the current owner."
					},
					"vote(uint256)": {
						"details": "Requires that the pieceId is valid, the voter has not already voted on this piece, and the weight is greater than zero. Emits a VoteCast event upon successful execution.",
						"params": {
							"pieceId": "The ID of the ArtPiece to vote for."
						}
					}
				},
				"stateVariables": {
					"pieceCount": {
						"return": "The total count of art pieces.",
						"returns": {
							"_0": "The total count of art pieces."
						}
					},
					"totalVoteWeights": {
						"params": {
							"pieceId": "The ID of the art piece."
						},
						"return": "The total vote weight for the art piece.",
						"returns": {
							"_0": "The total vote weight for the art piece."
						}
					}
				},
				"version": 1
			},
			"evm": {
				"assembly": "    /* \"packages/revolution-contracts/CultureIndex.sol\":362:10677  contract CultureIndex is ICultureIndex, Ownable, ReentrancyGuard {... */\n  mstore(0x40, 0x80)\n    /* \"packages/revolution-contracts/CultureIndex.sol\":658:835  constructor(address _votingToken, address _initialOwner) Ownable(_initialOwner) {... */\n  callvalue\n  dup1\n  iszero\n  tag_1\n  jumpi\n  0x00\n  dup1\n  revert\ntag_1:\n  pop\n  mload(0x40)\n  sub(codesize, bytecodeSize)\n  dup1\n  bytecodeSize\n  dup4\n  codecopy\n  dup2\n  add\n  0x40\n  dup2\n  swap1\n  mstore\n  tag_2\n  swap2\n  tag_3\n  jump\t// in\ntag_2:\n    /* \"packages/revolution-contracts/CultureIndex.sol\":723:736  _initialOwner */\n  dup1\n  sub(shl(0xa0, 0x01), 0x01)\n    /* \"@openzeppelin/contracts/access/Ownable.sol\":1273:1299  initialOwner == address(0) */\n  dup2\n  and\n    /* \"@openzeppelin/contracts/access/Ownable.sol\":1269:1364  if (initialOwner == address(0)) {... */\n  tag_8\n  jumpi\n    /* \"@openzeppelin/contracts/access/Ownable.sol\":1322:1353  OwnableInvalidOwner(address(0)) */\n  mload(0x40)\n  shl(0xe0, 0x1e4fbdf7)\n  dup2\n  mstore\n    /* \"@openzeppelin/contracts/access/Ownable.sol\":1350:1351  0 */\n  0x00\n    /* \"@openzeppelin/contracts/access/Ownable.sol\":1322:1353  OwnableInvalidOwner(address(0)) */\n  0x04\n  dup3\n  add\n    /* \"#utility.yul\":640:691   */\n  mstore\n    /* \"#utility.yul\":613:631   */\n  0x24\n  add\n    /* \"@openzeppelin/contracts/access/Ownable.sol\":1322:1353  OwnableInvalidOwner(address(0)) */\n  mload(0x40)\n  dup1\n  swap2\n  sub\n  swap1\n  revert\n    /* \"@openzeppelin/contracts/access/Ownable.sol\":1269:1364  if (initialOwner == address(0)) {... */\ntag_8:\n    /* \"@openzeppelin/contracts/access/Ownable.sol\":1373:1405  _transferOwnership(initialOwner) */\n  tag_11\n    /* \"@openzeppelin/contracts/access/Ownable.sol\":1392:1404  initialOwner */\n  dup2\n    /* \"@openzeppelin/contracts/access/Ownable.sol\":1373:1391  _transferOwnership */\n  tag_12\n    /* \"@openzeppelin/contracts/access/Ownable.sol\":1373:1405  _transferOwnership(initialOwner) */\n  jump\t// in\ntag_11:\n  pop\n    /* \"@openzeppelin/contracts/utils/ReentrancyGuard.sol\":1713:1714  1 */\n  0x01\n    /* \"@openzeppelin/contracts/utils/ReentrancyGuard.sol\":1917:1938  _status = NOT_ENTERED */\n  dup1\n  sstore\n    /* \"packages/revolution-contracts/CultureIndex.sol\":748:759  votingToken */\n  0x03\n    /* \"packages/revolution-contracts/CultureIndex.sol\":748:782  votingToken = IERC20(_votingToken) */\n  dup1\n  sload\n  not(sub(shl(0xa0, 0x01), 0x01))\n  and\n  sub(shl(0xa0, 0x01), 0x01)\n  dup5\n  and\n  or\n  swap1\n  sstore\n    /* \"packages/revolution-contracts/CultureIndex.sol\":802:828  new MaxHeap(address(this)) */\n  mload(0x40)\n    /* \"packages/revolution-contracts/CultureIndex.sol\":822:826  this */\n  address\n  swap1\n    /* \"packages/revolution-contracts/CultureIndex.sol\":802:828  new MaxHeap(address(this)) */\n  tag_15\n  swap1\n  tag_16\n  jump\t// in\ntag_15:\n  sub(shl(0xa0, 0x01), 0x01)\n    /* \"#utility.yul\":658:690   */\n  swap1\n  swap2\n  and\n    /* \"#utility.yul\":640:691   */\n  dup2\n  mstore\n    /* \"#utility.yul\":628:630   */\n  0x20\n    /* \"#utility.yul\":613:631   */\n  add\n    /* \"packages/revolution-contracts/CultureIndex.sol\":802:828  new MaxHeap(address(this)) */\n  mload(0x40)\n  dup1\n  swap2\n  sub\n  swap1\n  0x00\n  create\n  dup1\n  iszero\n  dup1\n  iszero\n  tag_18\n  jumpi\n  returndatasize\n  0x00\n  dup1\n  returndatacopy\n  revert(0x00, returndatasize)\ntag_18:\n  pop\n    /* \"packages/revolution-contracts/CultureIndex.sol\":792:799  maxHeap */\n  0x02\n    /* \"packages/revolution-contracts/CultureIndex.sol\":792:828  maxHeap = new MaxHeap(address(this)) */\n  dup1\n  sload\n  not(sub(shl(0xa0, 0x01), 0x01))\n  and\n  sub(shl(0xa0, 0x01), 0x01)\n  swap3\n  swap1\n  swap3\n  and\n  swap2\n  swap1\n  swap2\n  or\n  swap1\n  sstore\n  pop\n    /* \"packages/revolution-contracts/CultureIndex.sol\":362:10677  contract CultureIndex is ICultureIndex, Ownable, ReentrancyGuard {... */\n  tag_22\n  swap1\n  pop\n  jump\n    /* \"@openzeppelin/contracts/access/Ownable.sol\":2912:3099  function _transferOwnership(address newOwner) internal virtual {... */\ntag_12:\n    /* \"@openzeppelin/contracts/access/Ownable.sol\":2985:3001  address oldOwner */\n  0x00\n    /* \"@openzeppelin/contracts/access/Ownable.sol\":3004:3010  _owner */\n  dup1\n  sload\n  sub(shl(0xa0, 0x01), 0x01)\n    /* \"@openzeppelin/contracts/access/Ownable.sol\":3020:3037  _owner = newOwner */\n  dup4\n  dup2\n  and\n  not(sub(shl(0xa0, 0x01), 0x01))\n  dup4\n  and\n  dup2\n  or\n  dup5\n  sstore\n    /* \"@openzeppelin/contracts/access/Ownable.sol\":3052:3092  OwnershipTransferred(oldOwner, newOwner) */\n  mload(0x40)\n    /* \"@openzeppelin/contracts/access/Ownable.sol\":3004:3010  _owner */\n  swap2\n  swap1\n  swap3\n  and\n  swap3\n  dup4\n  swap2\n    /* \"@openzeppelin/contracts/access/Ownable.sol\":3052:3092  OwnershipTransferred(oldOwner, newOwner) */\n  0x8be0079c531659141344cd1fd0a4f28419497f9722a3daafe3b4186f6b6457e0\n  swap2\n    /* \"@openzeppelin/contracts/access/Ownable.sol\":2985:3001  address oldOwner */\n  swap1\n    /* \"@openzeppelin/contracts/access/Ownable.sol\":3052:3092  OwnershipTransferred(oldOwner, newOwner) */\n  log3\n    /* \"@openzeppelin/contracts/access/Ownable.sol\":2975:3099  {... */\n  pop\n    /* \"@openzeppelin/contracts/access/Ownable.sol\":2912:3099  function _transferOwnership(address newOwner) internal virtual {... */\n  pop\n  jump\t// out\n    /* \"packages/revolution-contracts/CultureIndex.sol\":362:10677  contract CultureIndex is ICultureIndex, Ownable, ReentrancyGuard {... */\ntag_16:\n  dataSize(sub_1)\n  dup1\n  dataOffset(sub_1)\n  dup4\n  codecopy\n  add\n  swap1\n  jump\t// out\n    /* \"#utility.yul\":14:191   */\ntag_21:\n    /* \"#utility.yul\":93:106   */\n  dup1\n  mload\n  sub(shl(0xa0, 0x01), 0x01)\n    /* \"#utility.yul\":135:166   */\n  dup2\n  and\n    /* \"#utility.yul\":125:167   */\n  dup2\n  eq\n    /* \"#utility.yul\":115:185   */\n  tag_24\n  jumpi\n    /* \"#utility.yul\":181:182   */\n  0x00\n    /* \"#utility.yul\":178:179   */\n  dup1\n    /* \"#utility.yul\":171:183   */\n  revert\n    /* \"#utility.yul\":115:185   */\ntag_24:\n    /* \"#utility.yul\":14:191   */\n  swap2\n  swap1\n  pop\n  jump\t// out\n    /* \"#utility.yul\":196:489   */\ntag_3:\n    /* \"#utility.yul\":275:281   */\n  0x00\n    /* \"#utility.yul\":283:289   */\n  dup1\n    /* \"#utility.yul\":336:338   */\n  0x40\n    /* \"#utility.yul\":324:333   */\n  dup4\n    /* \"#utility.yul\":315:322   */\n  dup6\n    /* \"#utility.yul\":311:334   */\n  sub\n    /* \"#utility.yul\":307:339   */\n  slt\n    /* \"#utility.yul\":304:356   */\n  iszero\n  tag_26\n  jumpi\n    /* \"#utility.yul\":352:353   */\n  0x00\n    /* \"#utility.yul\":349:350   */\n  dup1\n    /* \"#utility.yul\":342:354   */\n  revert\n    /* \"#utility.yul\":304:356   */\ntag_26:\n    /* \"#utility.yul\":375:415   */\n  tag_27\n    /* \"#utility.yul\":405:414   */\n  dup4\n    /* \"#utility.yul\":375:415   */\n  tag_21\n  jump\t// in\ntag_27:\n    /* \"#utility.yul\":365:415   */\n  swap2\n  pop\n    /* \"#utility.yul\":434:483   */\n  tag_28\n    /* \"#utility.yul\":479:481   */\n  0x20\n    /* \"#utility.yul\":468:477   */\n  dup5\n    /* \"#utility.yul\":464:482   */\n  add\n    /* \"#utility.yul\":434:483   */\n  tag_21\n  jump\t// in\ntag_28:\n    /* \"#utility.yul\":424:483   */\n  swap1\n  pop\n    /* \"#utility.yul\":196:489   */\n  swap3\n  pop\n  swap3\n  swap1\n  pop\n  jump\t// out\n    /* \"#utility.yul\":494:697   */\ntag_22:\n    /* \"packages/revolution-contracts/CultureIndex.sol\":362:10677  contract CultureIndex is ICultureIndex, Ownable, ReentrancyGuard {... */\n  dataSize(sub_0)\n  dup1\n  dataOffset(sub_0)\n  0x00\n  codecopy\n  0x00\n  return\nstop\n\nsub_0: assembly {\n        /* \"packages/revolution-contracts/CultureIndex.sol\":362:10677  contract CultureIndex is ICultureIndex, Ownable, ReentrancyGuard {... */\n      mstore(0x40, 0x80)\n      callvalue\n      dup1\n      iszero\n      tag_1\n      jumpi\n      0x00\n      dup1\n      revert\n    tag_1:\n      pop\n      jumpi(tag_2, lt(calldatasize, 0x04))\n      shr(0xe0, calldataload(0x00))\n      dup1\n      0xb0340123\n      gt\n      tag_22\n      jumpi\n      dup1\n      0xd75d43c9\n      gt\n      tag_23\n      jumpi\n      dup1\n      0xd75d43c9\n      eq\n      tag_17\n      jumpi\n      dup1\n      0xd85c91ae\n      eq\n      tag_18\n      jumpi\n      dup1\n      0xdeb50c35\n      eq\n      tag_19\n      jumpi\n      dup1\n      0xf2fde38b\n      eq\n      tag_20\n      jumpi\n      dup1\n      0xf8a8be40\n      eq\n      tag_21\n      jumpi\n      0x00\n      dup1\n      revert\n    tag_23:\n      dup1\n      0xb0340123\n      eq\n      tag_12\n      jumpi\n      dup1\n      0xb7b61494\n      eq\n      tag_13\n      jumpi\n      dup1\n      0xbad22aff\n      eq\n      tag_14\n      jumpi\n      dup1\n      0xbc3f931f\n      eq\n      tag_15\n      jumpi\n      dup1\n      0xd23254b4\n      eq\n      tag_16\n      jumpi\n      0x00\n      dup1\n      revert\n    tag_22:\n      dup1\n      0x4a5c4dfe\n      gt\n      tag_24\n      jumpi\n      dup1\n      0x4a5c4dfe\n      eq\n      tag_7\n      jumpi\n      dup1\n      0x65422a55\n      eq\n      tag_8\n      jumpi\n      dup1\n      0x715018a6\n      eq\n      tag_9\n      jumpi\n      dup1\n      0x8da5cb5b\n      eq\n      tag_10\n      jumpi\n      dup1\n      0x8f64be30\n      eq\n      tag_11\n      jumpi\n      0x00\n      dup1\n      revert\n    tag_24:\n      dup1\n      0x0121b93f\n      eq\n      tag_3\n      jumpi\n      dup1\n      0x04432c8a\n      eq\n      tag_4\n      jumpi\n      dup1\n      0x04f50270\n      eq\n      tag_5\n      jumpi\n      dup1\n      0x43859632\n      eq\n      tag_6\n      jumpi\n    tag_2:\n      0x00\n      dup1\n      revert\n        /* \"packages/revolution-contracts/CultureIndex.sol\":7430:7586  function vote(uint256 pieceId) public nonReentrant {... */\n    tag_3:\n      tag_25\n      tag_26\n      calldatasize\n      0x04\n      tag_27\n      jump\t// in\n    tag_26:\n      tag_28\n      jump\t// in\n    tag_25:\n      stop\n        /* \"packages/revolution-contracts/CultureIndex.sol\":509:531  MaxHeap public maxHeap */\n    tag_4:\n      sload(0x02)\n      tag_29\n      swap1\n      sub(shl(0xa0, 0x01), 0x01)\n      and\n      dup2\n      jump\n    tag_29:\n      mload(0x40)\n      sub(shl(0xa0, 0x01), 0x01)\n        /* \"#utility.yul\":379:411   */\n      swap1\n      swap2\n      and\n        /* \"#utility.yul\":361:412   */\n      dup2\n      mstore\n        /* \"#utility.yul\":349:351   */\n      0x20\n        /* \"#utility.yul\":334:352   */\n      add\n        /* \"packages/revolution-contracts/CultureIndex.sol\":509:531  MaxHeap public maxHeap */\n    tag_31:\n      mload(0x40)\n      dup1\n      swap2\n      sub\n      swap1\n      return\n        /* \"packages/revolution-contracts/CultureIndex.sol\":1137:1188  mapping(uint256 => uint256) public totalVoteWeights */\n    tag_5:\n      tag_33\n      tag_34\n      calldatasize\n      0x04\n      tag_27\n      jump\t// in\n    tag_34:\n      mstore(0x20, 0x07)\n      0x00\n      swap1\n      dup2\n      mstore\n      0x40\n      swap1\n      keccak256\n      sload\n      dup2\n      jump\n    tag_33:\n      mload(0x40)\n        /* \"#utility.yul\":569:594   */\n      swap1\n      dup2\n      mstore\n        /* \"#utility.yul\":557:559   */\n      0x20\n        /* \"#utility.yul\":542:560   */\n      add\n        /* \"packages/revolution-contracts/CultureIndex.sol\":1137:1188  mapping(uint256 => uint256) public totalVoteWeights */\n      tag_31\n        /* \"#utility.yul\":423:600   */\n      jump\n        /* \"packages/revolution-contracts/CultureIndex.sol\":5437:5588  function hasVoted(uint256 pieceId, address voter) external view returns (bool) {... */\n    tag_6:\n      tag_38\n      tag_39\n      calldatasize\n      0x04\n      tag_40\n      jump\t// in\n    tag_39:\n      tag_41\n      jump\t// in\n    tag_38:\n      mload(0x40)\n        /* \"#utility.yul\":1303:1317   */\n      swap1\n      iszero\n        /* \"#utility.yul\":1296:1318   */\n      iszero\n        /* \"#utility.yul\":1278:1319   */\n      dup2\n      mstore\n        /* \"#utility.yul\":1266:1268   */\n      0x20\n        /* \"#utility.yul\":1251:1269   */\n      add\n        /* \"packages/revolution-contracts/CultureIndex.sol\":5437:5588  function hasVoted(uint256 pieceId, address voter) external view returns (bool) {... */\n      tag_31\n        /* \"#utility.yul\":1138:1325   */\n      jump\n        /* \"packages/revolution-contracts/CultureIndex.sol\":954:979  uint256 public pieceCount */\n    tag_7:\n      tag_33\n      sload(0x05)\n      dup2\n      jump\n        /* \"packages/revolution-contracts/CultureIndex.sol\":7922:8167  function batchVote(uint256[] memory pieceIds) public nonReentrant {... */\n    tag_8:\n      tag_25\n      tag_48\n      calldatasize\n      0x04\n      tag_49\n      jump\t// in\n    tag_48:\n      tag_50\n      jump\t// in\n        /* \"@openzeppelin/contracts/access/Ownable.sol\":2293:2394  function renounceOwnership() public virtual onlyOwner {... */\n    tag_9:\n      tag_25\n      tag_52\n      jump\t// in\n        /* \"@openzeppelin/contracts/access/Ownable.sol\":1638:1723  function owner() public view virtual returns (address) {... */\n    tag_10:\n        /* \"@openzeppelin/contracts/access/Ownable.sol\":1684:1691  address */\n      0x00\n        /* \"@openzeppelin/contracts/access/Ownable.sol\":1710:1716  _owner */\n      sload\n      sub(shl(0xa0, 0x01), 0x01)\n      and\n        /* \"@openzeppelin/contracts/access/Ownable.sol\":1638:1723  function owner() public view virtual returns (address) {... */\n      jump(tag_29)\n        /* \"packages/revolution-contracts/CultureIndex.sol\":871:913  mapping(uint256 => ArtPiece) public pieces */\n    tag_11:\n      tag_57\n      tag_58\n      calldatasize\n      0x04\n      tag_27\n      jump\t// in\n    tag_58:\n      tag_59\n      jump\t// in\n    tag_57:\n      mload(0x40)\n      tag_31\n      swap5\n      swap4\n      swap3\n      swap2\n      swap1\n      tag_61\n      jump\t// in\n        /* \"packages/revolution-contracts/CultureIndex.sol\":577:602  IERC20 public votingToken */\n    tag_12:\n      sload(0x03)\n      tag_29\n      swap1\n      sub(shl(0xa0, 0x01), 0x01)\n      and\n      dup2\n      jump\n        /* \"packages/revolution-contracts/CultureIndex.sol\":9295:9433  function topVotedPieceId() external view returns (uint256) {... */\n    tag_13:\n      tag_33\n      tag_67\n      jump\t// in\n        /* \"packages/revolution-contracts/CultureIndex.sol\":9542:10675  function dropTopVotedPiece() public nonReentrant onlyOwner returns (ArtPiece memory) {... */\n    tag_14:\n      tag_69\n      tag_70\n      jump\t// in\n    tag_69:\n      mload(0x40)\n      tag_31\n      swap2\n      swap1\n      tag_72\n      jump\t// in\n        /* \"packages/revolution-contracts/CultureIndex.sol\":8721:8909  function getVote(uint256 pieceId, address voter) public view returns (Vote memory) {... */\n    tag_15:\n      tag_73\n      tag_74\n      calldatasize\n      0x04\n      tag_40\n      jump\t// in\n    tag_74:\n      tag_75\n      jump\t// in\n    tag_73:\n      mload(0x40)\n      tag_31\n      swap2\n      swap1\n      tag_77\n      jump\t// in\n        /* \"packages/revolution-contracts/CultureIndex.sol\":1030:1087  mapping(uint256 => mapping(address => Vote)) public votes */\n    tag_16:\n      tag_78\n      tag_79\n      calldatasize\n      0x04\n      tag_40\n      jump\t// in\n    tag_79:\n      0x06\n      0x20\n      swap1\n      dup2\n      mstore\n      0x00\n      swap3\n      dup4\n      mstore\n      0x40\n      dup1\n      dup5\n      keccak256\n      swap1\n      swap2\n      mstore\n      swap1\n      dup3\n      mstore\n      swap1\n      keccak256\n      dup1\n      sload\n      0x01\n      swap1\n      swap2\n      add\n      sload\n      sub(shl(0xa0, 0x01), 0x01)\n      swap1\n      swap2\n      and\n      swap1\n      dup3\n      jump\n    tag_78:\n      0x40\n      dup1\n      mload\n      sub(shl(0xa0, 0x01), 0x01)\n        /* \"#utility.yul\":8089:8121   */\n      swap1\n      swap4\n      and\n        /* \"#utility.yul\":8071:8122   */\n      dup4\n      mstore\n        /* \"#utility.yul\":8153:8155   */\n      0x20\n        /* \"#utility.yul\":8138:8156   */\n      dup4\n      add\n        /* \"#utility.yul\":8131:8165   */\n      swap2\n      swap1\n      swap2\n      mstore\n        /* \"#utility.yul\":8044:8062   */\n      add\n        /* \"packages/revolution-contracts/CultureIndex.sol\":1030:1087  mapping(uint256 => mapping(address => Vote)) public votes */\n      tag_31\n        /* \"#utility.yul\":7897:8171   */\n      jump\n        /* \"packages/revolution-contracts/CultureIndex.sol\":3973:5161  function createPiece(ArtPieceMetadata memory metadata, CreatorBps[] memory creatorArray) public returns (uint256) {... */\n    tag_17:\n      tag_33\n      tag_84\n      calldatasize\n      0x04\n      tag_85\n      jump\t// in\n    tag_84:\n      tag_86\n      jump\t// in\n        /* \"packages/revolution-contracts/CultureIndex.sol\":5706:6054  function getVoterWeight(address voter) public view returns (uint256) {... */\n    tag_18:\n      tag_33\n      tag_89\n      calldatasize\n      0x04\n      tag_90\n      jump\t// in\n    tag_89:\n      tag_91\n      jump\t// in\n        /* \"packages/revolution-contracts/CultureIndex.sol\":8346:8522  function getPieceById(uint256 pieceId) public view returns (ArtPiece memory) {... */\n    tag_19:\n      tag_69\n      tag_94\n      calldatasize\n      0x04\n      tag_27\n      jump\t// in\n    tag_94:\n      tag_95\n      jump\t// in\n        /* \"@openzeppelin/contracts/access/Ownable.sol\":2543:2758  function transferOwnership(address newOwner) public virtual onlyOwner {... */\n    tag_20:\n      tag_25\n      tag_98\n      calldatasize\n      0x04\n      tag_90\n      jump\t// in\n    tag_98:\n      tag_99\n      jump\t// in\n        /* \"packages/revolution-contracts/CultureIndex.sol\":9040:9193  function getTopVotedPiece() public view returns (ArtPiece memory) {... */\n    tag_21:\n      tag_69\n      tag_101\n      jump\t// in\n        /* \"packages/revolution-contracts/CultureIndex.sol\":7430:7586  function vote(uint256 pieceId) public nonReentrant {... */\n    tag_28:\n        /* \"@openzeppelin/contracts/utils/ReentrancyGuard.sol\":2356:2377  _nonReentrantBefore() */\n      tag_104\n        /* \"@openzeppelin/contracts/utils/ReentrancyGuard.sol\":2356:2375  _nonReentrantBefore */\n      tag_105\n        /* \"@openzeppelin/contracts/utils/ReentrancyGuard.sol\":2356:2377  _nonReentrantBefore() */\n      jump\t// in\n    tag_104:\n        /* \"packages/revolution-contracts/CultureIndex.sol\":7491:7505  uint256 weight */\n      0x00\n        /* \"packages/revolution-contracts/CultureIndex.sol\":7508:7534  getVoterWeight(msg.sender) */\n      tag_107\n        /* \"packages/revolution-contracts/CultureIndex.sol\":7523:7533  msg.sender */\n      caller\n        /* \"packages/revolution-contracts/CultureIndex.sol\":7508:7522  getVoterWeight */\n      tag_91\n        /* \"packages/revolution-contracts/CultureIndex.sol\":7508:7534  getVoterWeight(msg.sender) */\n      jump\t// in\n    tag_107:\n        /* \"packages/revolution-contracts/CultureIndex.sol\":7491:7534  uint256 weight = getVoterWeight(msg.sender) */\n      swap1\n      pop\n        /* \"packages/revolution-contracts/CultureIndex.sol\":7545:7579  _vote(pieceId, msg.sender, weight) */\n      tag_108\n        /* \"packages/revolution-contracts/CultureIndex.sol\":7551:7558  pieceId */\n      dup3\n        /* \"packages/revolution-contracts/CultureIndex.sol\":7560:7570  msg.sender */\n      caller\n        /* \"packages/revolution-contracts/CultureIndex.sol\":7572:7578  weight */\n      dup4\n        /* \"packages/revolution-contracts/CultureIndex.sol\":7545:7550  _vote */\n      tag_109\n        /* \"packages/revolution-contracts/CultureIndex.sol\":7545:7579  _vote(pieceId, msg.sender, weight) */\n      jump\t// in\n    tag_108:\n        /* \"packages/revolution-contracts/CultureIndex.sol\":7481:7586  {... */\n      pop\n        /* \"@openzeppelin/contracts/utils/ReentrancyGuard.sol\":2398:2418  _nonReentrantAfter() */\n      tag_110\n        /* \"@openzeppelin/contracts/utils/ReentrancyGuard.sol\":1713:1714  1 */\n      0x01\n        /* \"@openzeppelin/contracts/utils/ReentrancyGuard.sol\":2924:2945  _status = NOT_ENTERED */\n      dup1\n      sstore\n        /* \"@openzeppelin/contracts/utils/ReentrancyGuard.sol\":2744:2952  function _nonReentrantAfter() private {... */\n      jump\n        /* \"@openzeppelin/contracts/utils/ReentrancyGuard.sol\":2398:2418  _nonReentrantAfter() */\n    tag_110:\n        /* \"packages/revolution-contracts/CultureIndex.sol\":7430:7586  function vote(uint256 pieceId) public nonReentrant {... */\n      pop\n      jump\t// out\n        /* \"packages/revolution-contracts/CultureIndex.sol\":5437:5588  function hasVoted(uint256 pieceId, address voter) external view returns (bool) {... */\n    tag_41:\n        /* \"packages/revolution-contracts/CultureIndex.sol\":5510:5514  bool */\n      0x00\n        /* \"packages/revolution-contracts/CultureIndex.sol\":5533:5547  votes[pieceId] */\n      dup3\n      dup2\n      mstore\n        /* \"packages/revolution-contracts/CultureIndex.sol\":5533:5538  votes */\n      0x06\n        /* \"packages/revolution-contracts/CultureIndex.sol\":5533:5547  votes[pieceId] */\n      0x20\n      swap1\n      dup2\n      mstore\n      0x40\n      dup1\n      dup4\n      keccak256\n      sub(shl(0xa0, 0x01), 0x01)\n        /* \"packages/revolution-contracts/CultureIndex.sol\":5533:5554  votes[pieceId][voter] */\n      dup6\n      dup2\n      and\n      dup6\n      mstore\n      swap3\n      mstore\n      swap1\n      swap2\n      keccak256\n        /* \"packages/revolution-contracts/CultureIndex.sol\":5533:5567  votes[pieceId][voter].voterAddress */\n      sload\n      and\n        /* \"packages/revolution-contracts/CultureIndex.sol\":5533:5581  votes[pieceId][voter].voterAddress != address(0) */\n      iszero\n      iszero\n        /* \"packages/revolution-contracts/CultureIndex.sol\":5437:5588  function hasVoted(uint256 pieceId, address voter) external view returns (bool) {... */\n    tag_112:\n      swap3\n      swap2\n      pop\n      pop\n      jump\t// out\n        /* \"packages/revolution-contracts/CultureIndex.sol\":7922:8167  function batchVote(uint256[] memory pieceIds) public nonReentrant {... */\n    tag_50:\n        /* \"@openzeppelin/contracts/utils/ReentrancyGuard.sol\":2356:2377  _nonReentrantBefore() */\n      tag_114\n        /* \"@openzeppelin/contracts/utils/ReentrancyGuard.sol\":2356:2375  _nonReentrantBefore */\n      tag_105\n        /* \"@openzeppelin/contracts/utils/ReentrancyGuard.sol\":2356:2377  _nonReentrantBefore() */\n      jump\t// in\n    tag_114:\n        /* \"packages/revolution-contracts/CultureIndex.sol\":7998:8012  uint256 weight */\n      0x00\n        /* \"packages/revolution-contracts/CultureIndex.sol\":8015:8041  getVoterWeight(msg.sender) */\n      tag_116\n        /* \"packages/revolution-contracts/CultureIndex.sol\":8030:8040  msg.sender */\n      caller\n        /* \"packages/revolution-contracts/CultureIndex.sol\":8015:8029  getVoterWeight */\n      tag_91\n        /* \"packages/revolution-contracts/CultureIndex.sol\":8015:8041  getVoterWeight(msg.sender) */\n      jump\t// in\n    tag_116:\n        /* \"packages/revolution-contracts/CultureIndex.sol\":7998:8041  uint256 weight = getVoterWeight(msg.sender) */\n      swap1\n      pop\n        /* \"packages/revolution-contracts/CultureIndex.sol\":8057:8066  uint256 i */\n      0x00\n        /* \"packages/revolution-contracts/CultureIndex.sol\":8052:8161  for (uint256 i = 0; i < pieceIds.length; ++i) {... */\n    tag_117:\n        /* \"packages/revolution-contracts/CultureIndex.sol\":8076:8084  pieceIds */\n      dup3\n        /* \"packages/revolution-contracts/CultureIndex.sol\":8076:8091  pieceIds.length */\n      mload\n        /* \"packages/revolution-contracts/CultureIndex.sol\":8072:8073  i */\n      dup2\n        /* \"packages/revolution-contracts/CultureIndex.sol\":8072:8091  i < pieceIds.length */\n      lt\n        /* \"packages/revolution-contracts/CultureIndex.sol\":8052:8161  for (uint256 i = 0; i < pieceIds.length; ++i) {... */\n      iszero\n      tag_118\n      jumpi\n        /* \"packages/revolution-contracts/CultureIndex.sol\":8112:8150  _vote(pieceIds[i], msg.sender, weight) */\n      tag_120\n        /* \"packages/revolution-contracts/CultureIndex.sol\":8118:8126  pieceIds */\n      dup4\n        /* \"packages/revolution-contracts/CultureIndex.sol\":8127:8128  i */\n      dup3\n        /* \"packages/revolution-contracts/CultureIndex.sol\":8118:8129  pieceIds[i] */\n      dup2\n      mload\n      dup2\n      lt\n      tag_122\n      jumpi\n      tag_122\n      tag_123\n      jump\t// in\n    tag_122:\n      0x20\n      mul\n      0x20\n      add\n      add\n      mload\n        /* \"packages/revolution-contracts/CultureIndex.sol\":8131:8141  msg.sender */\n      caller\n        /* \"packages/revolution-contracts/CultureIndex.sol\":8143:8149  weight */\n      dup5\n        /* \"packages/revolution-contracts/CultureIndex.sol\":8112:8117  _vote */\n      tag_109\n        /* \"packages/revolution-contracts/CultureIndex.sol\":8112:8150  _vote(pieceIds[i], msg.sender, weight) */\n      jump\t// in\n    tag_120:\n        /* \"packages/revolution-contracts/CultureIndex.sol\":8093:8096  ++i */\n      0x01\n      add\n        /* \"packages/revolution-contracts/CultureIndex.sol\":8052:8161  for (uint256 i = 0; i < pieceIds.length; ++i) {... */\n      jump(tag_117)\n    tag_118:\n      pop\n        /* \"packages/revolution-contracts/CultureIndex.sol\":7988:8167  {... */\n      pop\n        /* \"@openzeppelin/contracts/utils/ReentrancyGuard.sol\":2398:2418  _nonReentrantAfter() */\n      tag_110\n        /* \"@openzeppelin/contracts/utils/ReentrancyGuard.sol\":1713:1714  1 */\n      0x01\n        /* \"@openzeppelin/contracts/utils/ReentrancyGuard.sol\":2924:2945  _status = NOT_ENTERED */\n      dup1\n      sstore\n        /* \"@openzeppelin/contracts/utils/ReentrancyGuard.sol\":2744:2952  function _nonReentrantAfter() private {... */\n      jump\n        /* \"@openzeppelin/contracts/access/Ownable.sol\":2293:2394  function renounceOwnership() public virtual onlyOwner {... */\n    tag_52:\n        /* \"@openzeppelin/contracts/access/Ownable.sol\":1531:1544  _checkOwner() */\n      tag_126\n        /* \"@openzeppelin/contracts/access/Ownable.sol\":1531:1542  _checkOwner */\n      tag_127\n        /* \"@openzeppelin/contracts/access/Ownable.sol\":1531:1544  _checkOwner() */\n      jump\t// in\n    tag_126:\n        /* \"@openzeppelin/contracts/access/Ownable.sol\":2357:2387  _transferOwnership(address(0)) */\n      tag_129\n        /* \"@openzeppelin/contracts/access/Ownable.sol\":2384:2385  0 */\n      0x00\n        /* \"@openzeppelin/contracts/access/Ownable.sol\":2357:2375  _transferOwnership */\n      tag_130\n        /* \"@openzeppelin/contracts/access/Ownable.sol\":2357:2387  _transferOwnership(address(0)) */\n      jump\t// in\n    tag_129:\n        /* \"@openzeppelin/contracts/access/Ownable.sol\":2293:2394  function renounceOwnership() public virtual onlyOwner {... */\n      jump\t// out\n        /* \"packages/revolution-contracts/CultureIndex.sol\":871:913  mapping(uint256 => ArtPiece) public pieces */\n    tag_59:\n      mstore(0x20, 0x04)\n      0x00\n      swap1\n      dup2\n      mstore\n      0x40\n      swap1\n      dup2\n      swap1\n      keccak256\n      dup1\n      sload\n      dup3\n      mload\n      0xc0\n      dup2\n      add\n      swap1\n      swap4\n      mstore\n      0x01\n      dup3\n      add\n      dup1\n      sload\n      swap2\n      swap4\n      swap2\n      dup3\n      swap1\n      dup3\n      swap1\n      tag_132\n      swap1\n      tag_133\n      jump\t// in\n    tag_132:\n      dup1\n      0x1f\n      add\n      0x20\n      dup1\n      swap2\n      div\n      mul\n      0x20\n      add\n      mload(0x40)\n      swap1\n      dup2\n      add\n      0x40\n      mstore\n      dup1\n      swap3\n      swap2\n      swap1\n      dup2\n      dup2\n      mstore\n      0x20\n      add\n      dup3\n      dup1\n      sload\n      tag_134\n      swap1\n      tag_133\n      jump\t// in\n    tag_134:\n      dup1\n      iszero\n      tag_135\n      jumpi\n      dup1\n      0x1f\n      lt\n      tag_136\n      jumpi\n      0x0100\n      dup1\n      dup4\n      sload\n      div\n      mul\n      dup4\n      mstore\n      swap2\n      0x20\n      add\n      swap2\n      jump(tag_135)\n    tag_136:\n      dup3\n      add\n      swap2\n      swap1\n      0x00\n      mstore\n      keccak256(0x00, 0x20)\n      swap1\n    tag_137:\n      dup2\n      sload\n      dup2\n      mstore\n      swap1\n      0x01\n      add\n      swap1\n      0x20\n      add\n      dup1\n      dup4\n      gt\n      tag_137\n      jumpi\n      dup3\n      swap1\n      sub\n      0x1f\n      and\n      dup3\n      add\n      swap2\n    tag_135:\n      pop\n      pop\n      pop\n      pop\n      pop\n      dup2\n      mstore\n      0x20\n      add\n      0x01\n      dup3\n      add\n      dup1\n      sload\n      tag_138\n      swap1\n      tag_133\n      jump\t// in\n    tag_138:\n      dup1\n      0x1f\n      add\n      0x20\n      dup1\n      swap2\n      div\n      mul\n      0x20\n      add\n      mload(0x40)\n      swap1\n      dup2\n      add\n      0x40\n      mstore\n      dup1\n      swap3\n      swap2\n      swap1\n      dup2\n      dup2\n      mstore\n      0x20\n      add\n      dup3\n      dup1\n      sload\n      tag_139\n      swap1\n      tag_133\n      jump\t// in\n    tag_139:\n      dup1\n      iszero\n      tag_140\n      jumpi\n      dup1\n      0x1f\n      lt\n      tag_141\n      jumpi\n      0x0100\n      dup1\n      dup4\n      sload\n      div\n      mul\n      dup4\n      mstore\n      swap2\n      0x20\n      add\n      swap2\n      jump(tag_140)\n    tag_141:\n      dup3\n      add\n      swap2\n      swap1\n      0x00\n      mstore\n      keccak256(0x00, 0x20)\n      swap1\n    tag_142:\n      dup2\n      sload\n      dup2\n      mstore\n      swap1\n      0x01\n      add\n      swap1\n      0x20\n      add\n      dup1\n      dup4\n      gt\n      tag_142\n      jumpi\n      dup3\n      swap1\n      sub\n      0x1f\n      and\n      dup3\n      add\n      swap2\n    tag_140:\n      pop\n      pop\n      pop\n      swap2\n      dup4\n      mstore\n      pop\n      pop\n      0x02\n      dup3\n      add\n      sload\n      0x20\n      swap1\n      swap2\n      add\n      swap1\n      0xff\n      and\n      0x05\n      dup2\n      gt\n      iszero\n      tag_144\n      jumpi\n      tag_144\n      tag_145\n      jump\t// in\n    tag_144:\n      0x05\n      dup2\n      gt\n      iszero\n      tag_147\n      jumpi\n      tag_147\n      tag_145\n      jump\t// in\n    tag_147:\n      dup2\n      mstore\n      0x20\n      add\n      0x03\n      dup3\n      add\n      dup1\n      sload\n      tag_148\n      swap1\n      tag_133\n      jump\t// in\n    tag_148:\n      dup1\n      0x1f\n      add\n      0x20\n      dup1\n      swap2\n      div\n      mul\n      0x20\n      add\n      mload(0x40)\n      swap1\n      dup2\n      add\n      0x40\n      mstore\n      dup1\n      swap3\n      swap2\n      swap1\n      dup2\n      dup2\n      mstore\n      0x20\n      add\n      dup3\n      dup1\n      sload\n      tag_149\n      swap1\n      tag_133\n      jump\t// in\n    tag_149:\n      dup1\n      iszero\n      tag_150\n      jumpi\n      dup1\n      0x1f\n      lt\n      tag_151\n      jumpi\n      0x0100\n      dup1\n      dup4\n      sload\n      div\n      mul\n      dup4\n      mstore\n      swap2\n      0x20\n      add\n      swap2\n      jump(tag_150)\n    tag_151:\n      dup3\n      add\n      swap2\n      swap1\n      0x00\n      mstore\n      keccak256(0x00, 0x20)\n      swap1\n    tag_152:\n      dup2\n      sload\n      dup2\n      mstore\n      swap1\n      0x01\n      add\n      swap1\n      0x20\n      add\n      dup1\n      dup4\n      gt\n      tag_152\n      jumpi\n      dup3\n      swap1\n      sub\n      0x1f\n      and\n      dup3\n      add\n      swap2\n    tag_150:\n      pop\n      pop\n      pop\n      pop\n      pop\n      dup2\n      mstore\n      0x20\n      add\n      0x04\n      dup3\n      add\n      dup1\n      sload\n      tag_153\n      swap1\n      tag_133\n      jump\t// in\n    tag_153:\n      dup1\n      0x1f\n      add\n      0x20\n      dup1\n      swap2\n      div\n      mul\n      0x20\n      add\n      mload(0x40)\n      swap1\n      dup2\n      add\n      0x40\n      mstore\n      dup1\n      swap3\n      swap2\n      swap1\n      dup2\n      dup2\n      mstore\n      0x20\n      add\n      dup3\n      dup1\n      sload\n      tag_154\n      swap1\n      tag_133\n      jump\t// in\n    tag_154:\n      dup1\n      iszero\n      tag_155\n      jumpi\n      dup1\n      0x1f\n      lt\n      tag_156\n      jumpi\n      0x0100\n      dup1\n      dup4\n      sload\n      div\n      mul\n      dup4\n      mstore\n      swap2\n      0x20\n      add\n      swap2\n      jump(tag_155)\n    tag_156:\n      dup3\n      add\n      swap2\n      swap1\n      0x00\n      mstore\n      keccak256(0x00, 0x20)\n      swap1\n    tag_157:\n      dup2\n      sload\n      dup2\n      mstore\n      swap1\n      0x01\n      add\n      swap1\n      0x20\n      add\n      dup1\n      dup4\n      gt\n      tag_157\n      jumpi\n      dup3\n      swap1\n      sub\n      0x1f\n      and\n      dup3\n      add\n      swap2\n    tag_155:\n      pop\n      pop\n      pop\n      pop\n      pop\n      dup2\n      mstore\n      0x20\n      add\n      0x05\n      dup3\n      add\n      dup1\n      sload\n      tag_158\n      swap1\n      tag_133\n      jump\t// in\n    tag_158:\n      dup1\n      0x1f\n      add\n      0x20\n      dup1\n      swap2\n      div\n      mul\n      0x20\n      add\n      mload(0x40)\n      swap1\n      dup2\n      add\n      0x40\n      mstore\n      dup1\n      swap3\n      swap2\n      swap1\n      dup2\n      dup2\n      mstore\n      0x20\n      add\n      dup3\n      dup1\n      sload\n      tag_159\n      swap1\n      tag_133\n      jump\t// in\n    tag_159:\n      dup1\n      iszero\n      tag_160\n      jumpi\n      dup1\n      0x1f\n      lt\n      tag_161\n      jumpi\n      0x0100\n      dup1\n      dup4\n      sload\n      div\n      mul\n      dup4\n      mstore\n      swap2\n      0x20\n      add\n      swap2\n      jump(tag_160)\n    tag_161:\n      dup3\n      add\n      swap2\n      swap1\n      0x00\n      mstore\n      keccak256(0x00, 0x20)\n      swap1\n    tag_162:\n      dup2\n      sload\n      dup2\n      mstore\n      swap1\n      0x01\n      add\n      swap1\n      0x20\n      add\n      dup1\n      dup4\n      gt\n      tag_162\n      jumpi\n      dup3\n      swap1\n      sub\n      0x1f\n      and\n      dup3\n      add\n      swap2\n    tag_160:\n      pop\n      pop\n      pop\n      swap2\n      swap1\n      swap3\n      mstore\n      pop\n      pop\n      pop\n      0x08\n      swap1\n      swap2\n      add\n      sload\n      sub(shl(0xa0, 0x01), 0x01)\n      dup2\n      and\n      swap1\n      0xff\n      shl(0xa0, 0x01)\n      swap1\n      swap2\n      div\n      and\n      dup5\n      jump\t// out\n        /* \"packages/revolution-contracts/CultureIndex.sol\":9295:9433  function topVotedPieceId() external view returns (uint256) {... */\n    tag_67:\n        /* \"packages/revolution-contracts/CultureIndex.sol\":9386:9393  maxHeap */\n      sload(0x02)\n        /* \"packages/revolution-contracts/CultureIndex.sol\":9386:9402  maxHeap.getMax() */\n      0x40\n      dup1\n      mload\n      shl(0xe1, 0x183afaa9)\n      dup2\n      mstore\n      dup2\n      mload\n        /* \"packages/revolution-contracts/CultureIndex.sol\":9345:9352  uint256 */\n      0x00\n      swap4\n      dup5\n      swap4\n      sub(shl(0xa0, 0x01), 0x01)\n        /* \"packages/revolution-contracts/CultureIndex.sol\":9386:9393  maxHeap */\n      swap1\n      swap2\n      and\n      swap3\n        /* \"packages/revolution-contracts/CultureIndex.sol\":9386:9400  maxHeap.getMax */\n      0x3075f552\n      swap3\n        /* \"packages/revolution-contracts/CultureIndex.sol\":9386:9402  maxHeap.getMax() */\n      0x04\n      dup1\n      dup4\n      add\n      swap4\n      swap3\n      dup3\n      swap1\n      sub\n      add\n      dup2\n        /* \"packages/revolution-contracts/CultureIndex.sol\":9386:9393  maxHeap */\n      dup7\n        /* \"packages/revolution-contracts/CultureIndex.sol\":9386:9402  maxHeap.getMax() */\n      gas\n      staticcall\n      iszero\n      dup1\n      iszero\n      tag_165\n      jumpi\n      returndatasize\n      0x00\n      dup1\n      returndatacopy\n      revert(0x00, returndatasize)\n    tag_165:\n      pop\n      pop\n      pop\n      pop\n      mload(0x40)\n      returndatasize\n      not(0x1f)\n      0x1f\n      dup3\n      add\n      and\n      dup3\n      add\n      dup1\n      0x40\n      mstore\n      pop\n      dup2\n      add\n      swap1\n      tag_166\n      swap2\n      swap1\n      tag_167\n      jump\t// in\n    tag_166:\n      pop\n        /* \"packages/revolution-contracts/CultureIndex.sol\":9364:9402  (uint256 pieceId, ) = maxHeap.getMax() */\n      swap3\n        /* \"packages/revolution-contracts/CultureIndex.sol\":9295:9433  function topVotedPieceId() external view returns (uint256) {... */\n      swap2\n      pop\n      pop\n      jump\t// out\n        /* \"packages/revolution-contracts/CultureIndex.sol\":9542:10675  function dropTopVotedPiece() public nonReentrant onlyOwner returns (ArtPiece memory) {... */\n    tag_70:\n        /* \"packages/revolution-contracts/CultureIndex.sol\":9610:9625  ArtPiece memory */\n      tag_168\n      tag_169\n      jump\t// in\n    tag_168:\n        /* \"@openzeppelin/contracts/utils/ReentrancyGuard.sol\":2356:2377  _nonReentrantBefore() */\n      tag_171\n        /* \"@openzeppelin/contracts/utils/ReentrancyGuard.sol\":2356:2375  _nonReentrantBefore */\n      tag_105\n        /* \"@openzeppelin/contracts/utils/ReentrancyGuard.sol\":2356:2377  _nonReentrantBefore() */\n      jump\t// in\n    tag_171:\n        /* \"@openzeppelin/contracts/access/Ownable.sol\":1531:1544  _checkOwner() */\n      tag_173\n        /* \"@openzeppelin/contracts/access/Ownable.sol\":1531:1542  _checkOwner */\n      tag_127\n        /* \"@openzeppelin/contracts/access/Ownable.sol\":1531:1544  _checkOwner() */\n      jump\t// in\n    tag_173:\n        /* \"packages/revolution-contracts/CultureIndex.sol\":9666:9673  maxHeap */\n      sload(0x02)\n        /* \"packages/revolution-contracts/CultureIndex.sol\":9666:9686  maxHeap.extractMax() */\n      0x40\n      dup1\n      mload\n      shl(0xe1, 0x4430402d)\n      dup2\n      mstore\n      dup2\n      mload\n        /* \"packages/revolution-contracts/CultureIndex.sol\":9637:9652  uint256 pieceId */\n      0x00\n      swap4\n      sub(shl(0xa0, 0x01), 0x01)\n        /* \"packages/revolution-contracts/CultureIndex.sol\":9666:9673  maxHeap */\n      and\n      swap3\n        /* \"packages/revolution-contracts/CultureIndex.sol\":9666:9684  maxHeap.extractMax */\n      0x8860805a\n      swap3\n        /* \"packages/revolution-contracts/CultureIndex.sol\":9666:9686  maxHeap.extractMax() */\n      0x04\n      dup1\n      dup3\n      add\n      swap4\n      swap2\n      dup3\n      swap1\n      sub\n      add\n      dup2\n        /* \"packages/revolution-contracts/CultureIndex.sol\":9637:9652  uint256 pieceId */\n      dup8\n        /* \"packages/revolution-contracts/CultureIndex.sol\":9666:9673  maxHeap */\n      dup8\n        /* \"packages/revolution-contracts/CultureIndex.sol\":9666:9686  maxHeap.extractMax() */\n      gas\n      call\n      swap3\n      pop\n      pop\n      pop\n      dup1\n      iszero\n      tag_175\n      jumpi\n      pop\n      0x40\n      dup1\n      mload\n      0x1f\n      returndatasize\n      swap1\n      dup2\n      add\n      not(0x1f)\n      and\n      dup3\n      add\n      swap1\n      swap3\n      mstore\n      tag_176\n      swap2\n      dup2\n      add\n      swap1\n      tag_167\n      jump\t// in\n    tag_176:\n      0x01\n    tag_175:\n        /* \"packages/revolution-contracts/CultureIndex.sol\":9662:10280  try maxHeap.extractMax() returns (uint256 _pieceId, uint256) {... */\n      tag_177\n      jumpi\n      tag_181\n      tag_182\n      jump\t// in\n    tag_181:\n      dup1\n      0x08c379a0\n      sub\n      tag_180\n      jumpi\n      pop\n      tag_183\n      tag_184\n      jump\t// in\n    tag_183:\n      dup1\n      tag_185\n      jumpi\n      pop\n      jump(tag_179)\n    tag_185:\n        /* \"packages/revolution-contracts/CultureIndex.sol\":9919:9952  abi.encodePacked(\"Heap is empty\") */\n      mload(0x40)\n      shl(0x98, 0x4865617020697320656d707479)\n      0x20\n      dup3\n      add\n        /* \"#utility.yul\":13572:13600   */\n      mstore\n        /* \"#utility.yul\":13616:13628   */\n      0x2d\n      add\n        /* \"packages/revolution-contracts/CultureIndex.sol\":9919:9952  abi.encodePacked(\"Heap is empty\") */\n      mload(0x40)\n      0x20\n      dup2\n      dup4\n      sub\n      sub\n      dup2\n      mstore\n      swap1\n      0x40\n      mstore\n        /* \"packages/revolution-contracts/CultureIndex.sol\":9909:9953  keccak256(abi.encodePacked(\"Heap is empty\")) */\n      dup1\n      mload\n      swap1\n      0x20\n      add\n      keccak256\n        /* \"packages/revolution-contracts/CultureIndex.sol\":9897:9903  reason */\n      dup2\n        /* \"packages/revolution-contracts/CultureIndex.sol\":9880:9904  abi.encodePacked(reason) */\n      add(0x20, mload(0x40))\n      tag_188\n      swap2\n      swap1\n      tag_189\n      jump\t// in\n    tag_188:\n      mload(0x40)\n      0x20\n      dup2\n      dup4\n      sub\n      sub\n      dup2\n      mstore\n      swap1\n      0x40\n      mstore\n        /* \"packages/revolution-contracts/CultureIndex.sol\":9870:9905  keccak256(abi.encodePacked(reason)) */\n      dup1\n      mload\n      swap1\n      0x20\n      add\n      keccak256\n        /* \"packages/revolution-contracts/CultureIndex.sol\":9870:9953  keccak256(abi.encodePacked(reason)) == keccak256(abi.encodePacked(\"Heap is empty\")) */\n      sub\n        /* \"packages/revolution-contracts/CultureIndex.sol\":9866:10025  if (keccak256(abi.encodePacked(reason)) == keccak256(abi.encodePacked(\"Heap is empty\"))) {... */\n      tag_190\n      jumpi\n        /* \"packages/revolution-contracts/CultureIndex.sol\":9973:10010  revert(\"No pieces available to drop\") */\n      mload(0x40)\n      shl(0xe5, 0x461bcd)\n      dup2\n      mstore\n        /* \"#utility.yul\":14135:14137   */\n      0x20\n        /* \"packages/revolution-contracts/CultureIndex.sol\":9973:10010  revert(\"No pieces available to drop\") */\n      0x04\n      dup3\n      add\n        /* \"#utility.yul\":14117:14138   */\n      mstore\n        /* \"#utility.yul\":14174:14176   */\n      0x1b\n        /* \"#utility.yul\":14154:14172   */\n      0x24\n      dup3\n      add\n        /* \"#utility.yul\":14147:14177   */\n      mstore\n        /* \"#utility.yul\":14213:14242   */\n      0x4e6f2070696563657320617661696c61626c6520746f2064726f700000000000\n        /* \"#utility.yul\":14193:14211   */\n      0x44\n      dup3\n      add\n        /* \"#utility.yul\":14186:14243   */\n      mstore\n        /* \"#utility.yul\":14260:14278   */\n      0x64\n      add\n        /* \"packages/revolution-contracts/CultureIndex.sol\":9973:10010  revert(\"No pieces available to drop\") */\n    tag_191:\n      mload(0x40)\n      dup1\n      swap2\n      sub\n      swap1\n      revert\n        /* \"packages/revolution-contracts/CultureIndex.sol\":9866:10025  if (keccak256(abi.encodePacked(reason)) == keccak256(abi.encodePacked(\"Heap is empty\"))) {... */\n    tag_190:\n        /* \"packages/revolution-contracts/CultureIndex.sol\":10045:10051  reason */\n      dup1\n        /* \"packages/revolution-contracts/CultureIndex.sol\":10038:10052  revert(reason) */\n      mload(0x40)\n      shl(0xe5, 0x461bcd)\n      dup2\n      mstore\n      0x04\n      add\n      tag_191\n      swap2\n      swap1\n      tag_194\n      jump\t// in\n        /* \"packages/revolution-contracts/CultureIndex.sol\":9662:10280  try maxHeap.extractMax() returns (uint256 _pieceId, uint256) {... */\n    tag_180:\n      pop\n    tag_179:\n      returndatasize\n      dup1\n      dup1\n      iszero\n      tag_196\n      jumpi\n      mload(0x40)\n      swap2\n      pop\n      and(add(returndatasize, 0x3f), not(0x1f))\n      dup3\n      add\n      0x40\n      mstore\n      returndatasize\n      dup3\n      mstore\n      returndatasize\n      0x00\n      0x20\n      dup5\n      add\n      returndatacopy\n      jump(tag_195)\n    tag_196:\n      0x60\n      swap2\n      pop\n    tag_195:\n      pop\n        /* \"packages/revolution-contracts/CultureIndex.sol\":10225:10269  revert(\"Unknown error extracting top piece\") */\n      mload(0x40)\n      shl(0xe5, 0x461bcd)\n      dup2\n      mstore\n        /* \"#utility.yul\":14716:14718   */\n      0x20\n        /* \"packages/revolution-contracts/CultureIndex.sol\":10225:10269  revert(\"Unknown error extracting top piece\") */\n      0x04\n      dup3\n      add\n        /* \"#utility.yul\":14698:14719   */\n      mstore\n        /* \"#utility.yul\":14755:14757   */\n      0x22\n        /* \"#utility.yul\":14735:14753   */\n      0x24\n      dup3\n      add\n        /* \"#utility.yul\":14728:14758   */\n      mstore\n        /* \"#utility.yul\":14794:14828   */\n      0x556e6b6e6f776e206572726f722065787472616374696e6720746f7020706965\n        /* \"#utility.yul\":14774:14792   */\n      0x44\n      dup3\n      add\n        /* \"#utility.yul\":14767:14829   */\n      mstore\n      shl(0xf0, 0x6365)\n        /* \"#utility.yul\":14845:14863   */\n      0x64\n      dup3\n      add\n        /* \"#utility.yul\":14838:14870   */\n      mstore\n        /* \"#utility.yul\":14887:14906   */\n      0x84\n      add\n        /* \"packages/revolution-contracts/CultureIndex.sol\":10225:10269  revert(\"Unknown error extracting top piece\") */\n      tag_191\n        /* \"#utility.yul\":14514:14912   */\n      jump\n        /* \"packages/revolution-contracts/CultureIndex.sol\":9662:10280  try maxHeap.extractMax() returns (uint256 _pieceId, uint256) {... */\n    tag_177:\n      pop\n        /* \"packages/revolution-contracts/CultureIndex.sol\":9747:9755  _pieceId */\n      swap1\n      pop\n        /* \"packages/revolution-contracts/CultureIndex.sol\":10290:10305  pieces[pieceId] */\n      0x00\n      dup2\n      dup2\n      mstore\n        /* \"packages/revolution-contracts/CultureIndex.sol\":10290:10296  pieces */\n      0x04\n        /* \"packages/revolution-contracts/CultureIndex.sol\":10290:10305  pieces[pieceId] */\n      0x20\n      mstore\n      0x40\n      dup1\n      dup3\n      keccak256\n        /* \"packages/revolution-contracts/CultureIndex.sol\":10290:10315  pieces[pieceId].isDropped */\n      0x08\n      add\n        /* \"packages/revolution-contracts/CultureIndex.sol\":10290:10322  pieces[pieceId].isDropped = true */\n      dup1\n      sload\n      not(shl(0xa0, 0xff))\n      and\n      shl(0xa0, 0x01)\n      or\n      swap1\n      sstore\n        /* \"packages/revolution-contracts/CultureIndex.sol\":10338:10371  PieceDropped(pieceId, msg.sender) */\n      mload\n        /* \"packages/revolution-contracts/CultureIndex.sol\":10360:10370  msg.sender */\n      caller\n      swap2\n        /* \"packages/revolution-contracts/CultureIndex.sol\":10297:10304  pieceId */\n      dup4\n      swap2\n        /* \"packages/revolution-contracts/CultureIndex.sol\":10338:10371  PieceDropped(pieceId, msg.sender) */\n      0xa9bd530a1a995fe2b42bddf7938e2e1acaef954cc9b31ffd1d13b7c3337502c8\n      swap2\n        /* \"packages/revolution-contracts/CultureIndex.sol\":10290:10305  pieces[pieceId] */\n      swap1\n        /* \"packages/revolution-contracts/CultureIndex.sol\":10338:10371  PieceDropped(pieceId, msg.sender) */\n      log3\n        /* \"packages/revolution-contracts/CultureIndex.sol\":10429:10435  uint i */\n      0x00\n        /* \"packages/revolution-contracts/CultureIndex.sol\":10424:10636  for (uint i = 0; i < pieces[pieceId].creators.length; i++) {... */\n    tag_200:\n        /* \"packages/revolution-contracts/CultureIndex.sol\":10445:10460  pieces[pieceId] */\n      0x00\n      dup3\n      dup2\n      mstore\n        /* \"packages/revolution-contracts/CultureIndex.sol\":10445:10451  pieces */\n      0x04\n        /* \"packages/revolution-contracts/CultureIndex.sol\":10445:10460  pieces[pieceId] */\n      0x20\n      mstore\n      0x40\n      swap1\n      keccak256\n        /* \"packages/revolution-contracts/CultureIndex.sol\":10445:10469  pieces[pieceId].creators */\n      0x07\n      add\n        /* \"packages/revolution-contracts/CultureIndex.sol\":10445:10476  pieces[pieceId].creators.length */\n      sload\n        /* \"packages/revolution-contracts/CultureIndex.sol\":10441:10476  i < pieces[pieceId].creators.length */\n      dup2\n      lt\n        /* \"packages/revolution-contracts/CultureIndex.sol\":10424:10636  for (uint i = 0; i < pieces[pieceId].creators.length; i++) {... */\n      iszero\n      tag_201\n      jumpi\n        /* \"packages/revolution-contracts/CultureIndex.sol\":10568:10583  pieces[pieceId] */\n      0x00\n      dup3\n      dup2\n      mstore\n        /* \"packages/revolution-contracts/CultureIndex.sol\":10568:10574  pieces */\n      0x04\n        /* \"packages/revolution-contracts/CultureIndex.sol\":10568:10583  pieces[pieceId] */\n      0x20\n      mstore\n      0x40\n      swap1\n      keccak256\n        /* \"packages/revolution-contracts/CultureIndex.sol\":10568:10591  pieces[pieceId].dropper */\n      0x08\n      dup2\n      add\n      sload\n        /* \"packages/revolution-contracts/CultureIndex.sol\":10531:10555  pieces[pieceId].creators */\n      0x07\n      swap1\n      swap2\n      add\n        /* \"packages/revolution-contracts/CultureIndex.sol\":10531:10558  pieces[pieceId].creators[i] */\n      dup1\n      sload\n      sub(shl(0xa0, 0x01), 0x01)\n        /* \"packages/revolution-contracts/CultureIndex.sol\":10568:10591  pieces[pieceId].dropper */\n      swap1\n      swap3\n      and\n      swap2\n        /* \"packages/revolution-contracts/CultureIndex.sol\":10556:10557  i */\n      dup4\n      swap1\n        /* \"packages/revolution-contracts/CultureIndex.sol\":10531:10558  pieces[pieceId].creators[i] */\n      dup2\n      lt\n      tag_204\n      jumpi\n      tag_204\n      tag_123\n      jump\t// in\n    tag_204:\n      0x00\n      swap2\n      dup3\n      mstore\n      0x20\n      dup1\n      dup4\n      keccak256\n      0x02\n      swap1\n      swap3\n      mul\n      swap1\n      swap2\n      add\n        /* \"packages/revolution-contracts/CultureIndex.sol\":10531:10566  pieces[pieceId].creators[i].creator */\n      sload\n        /* \"packages/revolution-contracts/CultureIndex.sol\":10593:10608  pieces[pieceId] */\n      dup6\n      dup4\n      mstore\n        /* \"packages/revolution-contracts/CultureIndex.sol\":10593:10599  pieces */\n      0x04\n        /* \"packages/revolution-contracts/CultureIndex.sol\":10593:10608  pieces[pieceId] */\n      swap1\n      swap2\n      mstore\n      0x40\n      swap1\n      swap2\n      keccak256\n        /* \"packages/revolution-contracts/CultureIndex.sol\":10593:10617  pieces[pieceId].creators */\n      0x07\n      add\n        /* \"packages/revolution-contracts/CultureIndex.sol\":10593:10620  pieces[pieceId].creators[i] */\n      dup1\n      sload\n      sub(shl(0xa0, 0x01), 0x01)\n        /* \"packages/revolution-contracts/CultureIndex.sol\":10531:10566  pieces[pieceId].creators[i].creator */\n      swap1\n      swap3\n      and\n      swap2\n        /* \"packages/revolution-contracts/CultureIndex.sol\":10522:10529  pieceId */\n      dup6\n      swap2\n        /* \"packages/revolution-contracts/CultureIndex.sol\":10502:10625  PieceDroppedCreator(pieceId, pieces[pieceId].creators[i].creator, pieces[pieceId].dropper, pieces[pieceId].creators[i].bps) */\n      0x1d1b857a6a6c5e310602c1448332e9b2799ba4c6ae3d1fb7527b62828dc7b91d\n      swap2\n        /* \"packages/revolution-contracts/CultureIndex.sol\":10618:10619  i */\n      dup7\n      swap1\n        /* \"packages/revolution-contracts/CultureIndex.sol\":10593:10620  pieces[pieceId].creators[i] */\n      dup2\n      lt\n      tag_207\n      jumpi\n      tag_207\n      tag_123\n      jump\t// in\n    tag_207:\n      swap1\n      0x00\n      mstore\n      keccak256(0x00, 0x20)\n      swap1\n      0x02\n      mul\n      add\n        /* \"packages/revolution-contracts/CultureIndex.sol\":10593:10624  pieces[pieceId].creators[i].bps */\n      0x01\n      add\n      sload\n        /* \"packages/revolution-contracts/CultureIndex.sol\":10502:10625  PieceDroppedCreator(pieceId, pieces[pieceId].creators[i].creator, pieces[pieceId].dropper, pieces[pieceId].creators[i].bps) */\n      mload(0x40)\n      tag_209\n      swap2\n        /* \"#utility.yul\":569:594   */\n      dup2\n      mstore\n        /* \"#utility.yul\":557:559   */\n      0x20\n        /* \"#utility.yul\":542:560   */\n      add\n      swap1\n        /* \"#utility.yul\":423:600   */\n      jump\n        /* \"packages/revolution-contracts/CultureIndex.sol\":10502:10625  PieceDroppedCreator(pieceId, pieces[pieceId].creators[i].creator, pieces[pieceId].dropper, pieces[pieceId].creators[i].bps) */\n    tag_209:\n      mload(0x40)\n      dup1\n      swap2\n      sub\n      swap1\n      log4\n        /* \"packages/revolution-contracts/CultureIndex.sol\":10478:10481  i++ */\n      0x01\n      add\n        /* \"packages/revolution-contracts/CultureIndex.sol\":10424:10636  for (uint i = 0; i < pieces[pieceId].creators.length; i++) {... */\n      jump(tag_200)\n    tag_201:\n      pop\n        /* \"packages/revolution-contracts/CultureIndex.sol\":10653:10659  pieces */\n      0x04\n        /* \"packages/revolution-contracts/CultureIndex.sol\":10653:10668  pieces[pieceId] */\n      0x00\n        /* \"packages/revolution-contracts/CultureIndex.sol\":10660:10667  pieceId */\n      dup3\n        /* \"packages/revolution-contracts/CultureIndex.sol\":10653:10668  pieces[pieceId] */\n      dup2\n      mstore\n      0x20\n      add\n      swap1\n      dup2\n      mstore\n      0x20\n      add\n      0x00\n      keccak256\n        /* \"packages/revolution-contracts/CultureIndex.sol\":10646:10668  return pieces[pieceId] */\n      mload(0x40)\n      dup1\n      0xa0\n      add\n      0x40\n      mstore\n      swap1\n      dup2\n      0x00\n      dup3\n      add\n      sload\n      dup2\n      mstore\n      0x20\n      add\n      0x01\n      dup3\n      add\n      mload(0x40)\n      dup1\n      0xc0\n      add\n      0x40\n      mstore\n      swap1\n      dup2\n      0x00\n      dup3\n      add\n      dup1\n      sload\n      tag_210\n      swap1\n      tag_133\n      jump\t// in\n    tag_210:\n      dup1\n      0x1f\n      add\n      0x20\n      dup1\n      swap2\n      div\n      mul\n      0x20\n      add\n      mload(0x40)\n      swap1\n      dup2\n      add\n      0x40\n      mstore\n      dup1\n      swap3\n      swap2\n      swap1\n      dup2\n      dup2\n      mstore\n      0x20\n      add\n      dup3\n      dup1\n      sload\n      tag_211\n      swap1\n      tag_133\n      jump\t// in\n    tag_211:\n      dup1\n      iszero\n      tag_212\n      jumpi\n      dup1\n      0x1f\n      lt\n      tag_213\n      jumpi\n      0x0100\n      dup1\n      dup4\n      sload\n      div\n      mul\n      dup4\n      mstore\n      swap2\n      0x20\n      add\n      swap2\n      jump(tag_212)\n    tag_213:\n      dup3\n      add\n      swap2\n      swap1\n      0x00\n      mstore\n      keccak256(0x00, 0x20)\n      swap1\n    tag_214:\n      dup2\n      sload\n      dup2\n      mstore\n      swap1\n      0x01\n      add\n      swap1\n      0x20\n      add\n      dup1\n      dup4\n      gt\n      tag_214\n      jumpi\n      dup3\n      swap1\n      sub\n      0x1f\n      and\n      dup3\n      add\n      swap2\n    tag_212:\n      pop\n      pop\n      pop\n      pop\n      pop\n      dup2\n      mstore\n      0x20\n      add\n      0x01\n      dup3\n      add\n      dup1\n      sload\n      tag_215\n      swap1\n      tag_133\n      jump\t// in\n    tag_215:\n      dup1\n      0x1f\n      add\n      0x20\n      dup1\n      swap2\n      div\n      mul\n      0x20\n      add\n      mload(0x40)\n      swap1\n      dup2\n      add\n      0x40\n      mstore\n      dup1\n      swap3\n      swap2\n      swap1\n      dup2\n      dup2\n      mstore\n      0x20\n      add\n      dup3\n      dup1\n      sload\n      tag_216\n      swap1\n      tag_133\n      jump\t// in\n    tag_216:\n      dup1\n      iszero\n      tag_217\n      jumpi\n      dup1\n      0x1f\n      lt\n      tag_218\n      jumpi\n      0x0100\n      dup1\n      dup4\n      sload\n      div\n      mul\n      dup4\n      mstore\n      swap2\n      0x20\n      add\n      swap2\n      jump(tag_217)\n    tag_218:\n      dup3\n      add\n      swap2\n      swap1\n      0x00\n      mstore\n      keccak256(0x00, 0x20)\n      swap1\n    tag_219:\n      dup2\n      sload\n      dup2\n      mstore\n      swap1\n      0x01\n      add\n      swap1\n      0x20\n      add\n      dup1\n      dup4\n      gt\n      tag_219\n      jumpi\n      dup3\n      swap1\n      sub\n      0x1f\n      and\n      dup3\n      add\n      swap2\n    tag_217:\n      pop\n      pop\n      pop\n      swap2\n      dup4\n      mstore\n      pop\n      pop\n      0x02\n      dup3\n      add\n      sload\n      0x20\n      swap1\n      swap2\n      add\n      swap1\n      0xff\n      and\n      0x05\n      dup2\n      gt\n      iszero\n      tag_221\n      jumpi\n      tag_221\n      tag_145\n      jump\t// in\n    tag_221:\n      0x05\n      dup2\n      gt\n      iszero\n      tag_223\n      jumpi\n      tag_223\n      tag_145\n      jump\t// in\n    tag_223:\n      dup2\n      mstore\n      0x20\n      add\n      0x03\n      dup3\n      add\n      dup1\n      sload\n      tag_224\n      swap1\n      tag_133\n      jump\t// in\n    tag_224:\n      dup1\n      0x1f\n      add\n      0x20\n      dup1\n      swap2\n      div\n      mul\n      0x20\n      add\n      mload(0x40)\n      swap1\n      dup2\n      add\n      0x40\n      mstore\n      dup1\n      swap3\n      swap2\n      swap1\n      dup2\n      dup2\n      mstore\n      0x20\n      add\n      dup3\n      dup1\n      sload\n      tag_225\n      swap1\n      tag_133\n      jump\t// in\n    tag_225:\n      dup1\n      iszero\n      tag_226\n      jumpi\n      dup1\n      0x1f\n      lt\n      tag_227\n      jumpi\n      0x0100\n      dup1\n      dup4\n      sload\n      div\n      mul\n      dup4\n      mstore\n      swap2\n      0x20\n      add\n      swap2\n      jump(tag_226)\n    tag_227:\n      dup3\n      add\n      swap2\n      swap1\n      0x00\n      mstore\n      keccak256(0x00, 0x20)\n      swap1\n    tag_228:\n      dup2\n      sload\n      dup2\n      mstore\n      swap1\n      0x01\n      add\n      swap1\n      0x20\n      add\n      dup1\n      dup4\n      gt\n      tag_228\n      jumpi\n      dup3\n      swap1\n      sub\n      0x1f\n      and\n      dup3\n      add\n      swap2\n    tag_226:\n      pop\n      pop\n      pop\n      pop\n      pop\n      dup2\n      mstore\n      0x20\n      add\n      0x04\n      dup3\n      add\n      dup1\n      sload\n      tag_229\n      swap1\n      tag_133\n      jump\t// in\n    tag_229:\n      dup1\n      0x1f\n      add\n      0x20\n      dup1\n      swap2\n      div\n      mul\n      0x20\n      add\n      mload(0x40)\n      swap1\n      dup2\n      add\n      0x40\n      mstore\n      dup1\n      swap3\n      swap2\n      swap1\n      dup2\n      dup2\n      mstore\n      0x20\n      add\n      dup3\n      dup1\n      sload\n      tag_230\n      swap1\n      tag_133\n      jump\t// in\n    tag_230:\n      dup1\n      iszero\n      tag_231\n      jumpi\n      dup1\n      0x1f\n      lt\n      tag_232\n      jumpi\n      0x0100\n      dup1\n      dup4\n      sload\n      div\n      mul\n      dup4\n      mstore\n      swap2\n      0x20\n      add\n      swap2\n      jump(tag_231)\n    tag_232:\n      dup3\n      add\n      swap2\n      swap1\n      0x00\n      mstore\n      keccak256(0x00, 0x20)\n      swap1\n    tag_233:\n      dup2\n      sload\n      dup2\n      mstore\n      swap1\n      0x01\n      add\n      swap1\n      0x20\n      add\n      dup1\n      dup4\n      gt\n      tag_233\n      jumpi\n      dup3\n      swap1\n      sub\n      0x1f\n      and\n      dup3\n      add\n      swap2\n    tag_231:\n      pop\n      pop\n      pop\n      pop\n      pop\n      dup2\n      mstore\n      0x20\n      add\n      0x05\n      dup3\n      add\n      dup1\n      sload\n      tag_234\n      swap1\n      tag_133\n      jump\t// in\n    tag_234:\n      dup1\n      0x1f\n      add\n      0x20\n      dup1\n      swap2\n      div\n      mul\n      0x20\n      add\n      mload(0x40)\n      swap1\n      dup2\n      add\n      0x40\n      mstore\n      dup1\n      swap3\n      swap2\n      swap1\n      dup2\n      dup2\n      mstore\n      0x20\n      add\n      dup3\n      dup1\n      sload\n      tag_235\n      swap1\n      tag_133\n      jump\t// in\n    tag_235:\n      dup1\n      iszero\n      tag_236\n      jumpi\n      dup1\n      0x1f\n      lt\n      tag_237\n      jumpi\n      0x0100\n      dup1\n      dup4\n      sload\n      div\n      mul\n      dup4\n      mstore\n      swap2\n      0x20\n      add\n      swap2\n      jump(tag_236)\n    tag_237:\n      dup3\n      add\n      swap2\n      swap1\n      0x00\n      mstore\n      keccak256(0x00, 0x20)\n      swap1\n    tag_238:\n      dup2\n      sload\n      dup2\n      mstore\n      swap1\n      0x01\n      add\n      swap1\n      0x20\n      add\n      dup1\n      dup4\n      gt\n      tag_238\n      jumpi\n      dup3\n      swap1\n      sub\n      0x1f\n      and\n      dup3\n      add\n      swap2\n    tag_236:\n      pop\n      pop\n      pop\n      pop\n      pop\n      dup2\n      mstore\n      pop\n      pop\n      dup2\n      mstore\n      0x20\n      add\n      0x07\n      dup3\n      add\n      dup1\n      sload\n      dup1\n      0x20\n      mul\n      0x20\n      add\n      mload(0x40)\n      swap1\n      dup2\n      add\n      0x40\n      mstore\n      dup1\n      swap3\n      swap2\n      swap1\n      dup2\n      dup2\n      mstore\n      0x20\n      add\n      0x00\n      swap1\n    tag_239:\n      dup3\n      dup3\n      lt\n      iszero\n      tag_240\n      jumpi\n      0x00\n      dup5\n      dup2\n      mstore\n      0x20\n      swap1\n      dup2\n      swap1\n      keccak256\n      0x40\n      dup1\n      mload\n      dup1\n      dup3\n      add\n      swap1\n      swap2\n      mstore\n      0x02\n      dup6\n      mul\n      swap1\n      swap2\n      add\n      dup1\n      sload\n      sub(shl(0xa0, 0x01), 0x01)\n      and\n      dup3\n      mstore\n      0x01\n      swap1\n      dup2\n      add\n      sload\n      dup3\n      dup5\n      add\n      mstore\n      swap1\n      dup4\n      mstore\n      swap1\n      swap3\n      add\n      swap2\n      add\n      jump(tag_239)\n    tag_240:\n      pop\n      pop\n      pop\n      swap1\n      dup3\n      mstore\n      pop\n      0x08\n      swap2\n      swap1\n      swap2\n      add\n      sload\n      sub(shl(0xa0, 0x01), 0x01)\n      dup2\n      and\n      0x20\n      dup4\n      add\n      mstore\n      0xff\n      shl(0xa0, 0x01)\n      swap1\n      swap2\n      div\n      and\n      iszero\n      iszero\n      0x40\n      swap1\n      swap2\n      add\n      mstore\n      swap2\n      pop\n      pop\n        /* \"@openzeppelin/contracts/utils/ReentrancyGuard.sol\":2398:2418  _nonReentrantAfter() */\n      tag_242\n        /* \"@openzeppelin/contracts/utils/ReentrancyGuard.sol\":1713:1714  1 */\n      0x01\n        /* \"@openzeppelin/contracts/utils/ReentrancyGuard.sol\":2924:2945  _status = NOT_ENTERED */\n      dup1\n      sstore\n        /* \"@openzeppelin/contracts/utils/ReentrancyGuard.sol\":2744:2952  function _nonReentrantAfter() private {... */\n      jump\n        /* \"@openzeppelin/contracts/utils/ReentrancyGuard.sol\":2398:2418  _nonReentrantAfter() */\n    tag_242:\n        /* \"packages/revolution-contracts/CultureIndex.sol\":9542:10675  function dropTopVotedPiece() public nonReentrant onlyOwner returns (ArtPiece memory) {... */\n      swap1\n      jump\t// out\n        /* \"packages/revolution-contracts/CultureIndex.sol\":8721:8909  function getVote(uint256 pieceId, address voter) public view returns (Vote memory) {... */\n    tag_75:\n      0x40\n      dup1\n      mload\n      dup1\n      dup3\n      add\n      swap1\n      swap2\n      mstore\n      0x00\n      dup1\n      dup3\n      mstore\n      0x20\n      dup3\n      add\n      mstore\n        /* \"packages/revolution-contracts/CultureIndex.sol\":8833:8843  pieceCount */\n      sload(0x05)\n        /* \"packages/revolution-contracts/CultureIndex.sol\":8822:8829  pieceId */\n      dup4\n        /* \"packages/revolution-contracts/CultureIndex.sol\":8822:8843  pieceId <= pieceCount */\n      gt\n      iszero\n        /* \"packages/revolution-contracts/CultureIndex.sol\":8814:8864  require(pieceId <= pieceCount, \"Invalid piece ID\") */\n      tag_246\n      jumpi\n      mload(0x40)\n      shl(0xe5, 0x461bcd)\n      dup2\n      mstore\n      0x04\n      add\n      tag_191\n      swap1\n      tag_248\n      jump\t// in\n    tag_246:\n      pop\n        /* \"packages/revolution-contracts/CultureIndex.sol\":8881:8895  votes[pieceId] */\n      0x00\n      swap2\n      dup3\n      mstore\n        /* \"packages/revolution-contracts/CultureIndex.sol\":8881:8886  votes */\n      0x06\n        /* \"packages/revolution-contracts/CultureIndex.sol\":8881:8895  votes[pieceId] */\n      0x20\n      swap1\n      dup2\n      mstore\n      0x40\n      dup1\n      dup5\n      keccak256\n      sub(shl(0xa0, 0x01), 0x01)\n        /* \"packages/revolution-contracts/CultureIndex.sol\":8881:8902  votes[pieceId][voter] */\n      swap4\n      dup5\n      and\n      dup6\n      mstore\n      dup3\n      mstore\n      swap3\n      dup4\n      swap1\n      keccak256\n        /* \"packages/revolution-contracts/CultureIndex.sol\":8874:8902  return votes[pieceId][voter] */\n      dup4\n      mload\n      dup1\n      dup6\n      add\n      swap1\n      swap5\n      mstore\n      dup1\n      sload\n      swap1\n      swap3\n      and\n      dup4\n      mstore\n      0x01\n      swap1\n      swap2\n      add\n      sload\n      swap1\n      dup3\n      add\n      mstore\n      swap1\n        /* \"packages/revolution-contracts/CultureIndex.sol\":8721:8909  function getVote(uint256 pieceId, address voter) public view returns (Vote memory) {... */\n      jump\t// out\n        /* \"packages/revolution-contracts/CultureIndex.sol\":3973:5161  function createPiece(ArtPieceMetadata memory metadata, CreatorBps[] memory creatorArray) public returns (uint256) {... */\n    tag_86:\n        /* \"packages/revolution-contracts/CultureIndex.sol\":4078:4085  uint256 */\n      0x00\n        /* \"packages/revolution-contracts/CultureIndex.sol\":4097:4113  uint256 totalBps */\n      dup1\n        /* \"packages/revolution-contracts/CultureIndex.sol\":4116:4153  getTotalBpsFromCreators(creatorArray) */\n      tag_250\n        /* \"packages/revolution-contracts/CultureIndex.sol\":4140:4152  creatorArray */\n      dup4\n        /* \"packages/revolution-contracts/CultureIndex.sol\":4116:4139  getTotalBpsFromCreators */\n      tag_251\n        /* \"packages/revolution-contracts/CultureIndex.sol\":4116:4153  getTotalBpsFromCreators(creatorArray) */\n      jump\t// in\n    tag_250:\n        /* \"packages/revolution-contracts/CultureIndex.sol\":4097:4153  uint256 totalBps = getTotalBpsFromCreators(creatorArray) */\n      swap1\n      pop\n        /* \"packages/revolution-contracts/CultureIndex.sol\":4171:4179  totalBps */\n      dup1\n        /* \"packages/revolution-contracts/CultureIndex.sol\":4183:4189  10_000 */\n      0x2710\n        /* \"packages/revolution-contracts/CultureIndex.sol\":4171:4189  totalBps == 10_000 */\n      eq\n        /* \"packages/revolution-contracts/CultureIndex.sol\":4163:4225  require(totalBps == 10_000, \"Total BPS must sum up to 10,000\") */\n      tag_252\n      jumpi\n      mload(0x40)\n      shl(0xe5, 0x461bcd)\n      dup2\n      mstore\n        /* \"#utility.yul\":15464:15466   */\n      0x20\n        /* \"packages/revolution-contracts/CultureIndex.sol\":4163:4225  require(totalBps == 10_000, \"Total BPS must sum up to 10,000\") */\n      0x04\n      dup3\n      add\n        /* \"#utility.yul\":15446:15467   */\n      mstore\n        /* \"#utility.yul\":15503:15505   */\n      0x1f\n        /* \"#utility.yul\":15483:15501   */\n      0x24\n      dup3\n      add\n        /* \"#utility.yul\":15476:15506   */\n      mstore\n        /* \"#utility.yul\":15542:15575   */\n      0x546f74616c20425053206d7573742073756d20757020746f2031302c30303000\n        /* \"#utility.yul\":15522:15540   */\n      0x44\n      dup3\n      add\n        /* \"#utility.yul\":15515:15576   */\n      mstore\n        /* \"#utility.yul\":15593:15611   */\n      0x64\n      add\n        /* \"packages/revolution-contracts/CultureIndex.sol\":4163:4225  require(totalBps == 10_000, \"Total BPS must sum up to 10,000\") */\n      tag_191\n        /* \"#utility.yul\":15262:15617   */\n      jump\n        /* \"packages/revolution-contracts/CultureIndex.sol\":4163:4225  require(totalBps == 10_000, \"Total BPS must sum up to 10,000\") */\n    tag_252:\n        /* \"packages/revolution-contracts/CultureIndex.sol\":4291:4318  validateMediaType(metadata) */\n      tag_255\n        /* \"packages/revolution-contracts/CultureIndex.sol\":4309:4317  metadata */\n      dup5\n        /* \"packages/revolution-contracts/CultureIndex.sol\":4291:4308  validateMediaType */\n      tag_256\n        /* \"packages/revolution-contracts/CultureIndex.sol\":4291:4318  validateMediaType(metadata) */\n      jump\t// in\n    tag_255:\n        /* \"packages/revolution-contracts/CultureIndex.sol\":4347:4357  pieceCount */\n      0x05\n        /* \"packages/revolution-contracts/CultureIndex.sol\":4347:4359  pieceCount++ */\n      dup1\n      sload\n        /* \"packages/revolution-contracts/CultureIndex.sol\":4329:4344  uint256 pieceId */\n      0x00\n      swap2\n      dup3\n        /* \"packages/revolution-contracts/CultureIndex.sol\":4347:4359  pieceCount++ */\n      tag_257\n      dup4\n      tag_258\n      jump\t// in\n    tag_257:\n      swap1\n      swap2\n      sstore\n      pop\n        /* \"packages/revolution-contracts/CultureIndex.sol\":4426:4433  maxHeap */\n      sload(0x02)\n        /* \"packages/revolution-contracts/CultureIndex.sol\":4426:4452  maxHeap.insert(pieceId, 0) */\n      mload(0x40)\n      shl(0xe0, 0x1d834a1b)\n      dup2\n      mstore\n      0x04\n      dup2\n      add\n        /* \"#utility.yul\":16076:16101   */\n      dup4\n      swap1\n      mstore\n        /* \"packages/revolution-contracts/CultureIndex.sol\":4426:4433  maxHeap */\n      0x00\n        /* \"#utility.yul\":16117:16135   */\n      0x24\n      dup3\n      add\n        /* \"#utility.yul\":16110:16144   */\n      mstore\n        /* \"packages/revolution-contracts/CultureIndex.sol\":4329:4359  uint256 pieceId = pieceCount++ */\n      swap2\n      swap3\n      pop\n      sub(shl(0xa0, 0x01), 0x01)\n        /* \"packages/revolution-contracts/CultureIndex.sol\":4426:4433  maxHeap */\n      and\n      swap1\n        /* \"packages/revolution-contracts/CultureIndex.sol\":4426:4440  maxHeap.insert */\n      0x1d834a1b\n      swap1\n        /* \"#utility.yul\":16049:16067   */\n      0x44\n      add\n        /* \"packages/revolution-contracts/CultureIndex.sol\":4426:4452  maxHeap.insert(pieceId, 0) */\n      0x00\n      mload(0x40)\n      dup1\n      dup4\n      sub\n      dup2\n      0x00\n      dup8\n      dup1\n      extcodesize\n      iszero\n      dup1\n      iszero\n      tag_261\n      jumpi\n      0x00\n      dup1\n      revert\n    tag_261:\n      pop\n      gas\n      call\n      iszero\n      dup1\n      iszero\n      tag_263\n      jumpi\n      returndatasize\n      0x00\n      dup1\n      returndatacopy\n      revert(0x00, returndatasize)\n    tag_263:\n      pop\n      pop\n      pop\n        /* \"packages/revolution-contracts/CultureIndex.sol\":4463:4488  ArtPiece storage newPiece */\n      0x00\n        /* \"packages/revolution-contracts/CultureIndex.sol\":4491:4506  pieces[pieceId] */\n      dup3\n      dup2\n      mstore\n        /* \"packages/revolution-contracts/CultureIndex.sol\":4491:4497  pieces */\n      0x04\n        /* \"packages/revolution-contracts/CultureIndex.sol\":4491:4506  pieces[pieceId] */\n      0x20\n      mstore\n      0x40\n      swap1\n      keccak256\n        /* \"packages/revolution-contracts/CultureIndex.sol\":4517:4543  newPiece.pieceId = pieceId */\n      dup3\n      dup2\n      sstore\n        /* \"packages/revolution-contracts/CultureIndex.sol\":4553:4581  newPiece.metadata = metadata */\n      dup7\n      mload\n        /* \"packages/revolution-contracts/CultureIndex.sol\":4491:4506  pieces[pieceId] */\n      swap1\n      swap2\n      pop\n        /* \"packages/revolution-contracts/CultureIndex.sol\":4573:4581  metadata */\n      dup7\n      swap1\n        /* \"packages/revolution-contracts/CultureIndex.sol\":4553:4570  newPiece.metadata */\n      0x01\n      dup4\n      add\n      swap1\n      dup2\n      swap1\n        /* \"packages/revolution-contracts/CultureIndex.sol\":4553:4581  newPiece.metadata = metadata */\n      tag_264\n      swap1\n        /* \"packages/revolution-contracts/CultureIndex.sol\":4553:4570  newPiece.metadata */\n      dup3\n        /* \"packages/revolution-contracts/CultureIndex.sol\":4553:4581  newPiece.metadata = metadata */\n      tag_265\n      jump\t// in\n    tag_264:\n      pop\n      0x20\n      dup3\n      add\n      mload\n      0x01\n      dup3\n      add\n      swap1\n      tag_266\n      swap1\n      dup3\n      tag_265\n      jump\t// in\n    tag_266:\n      pop\n      0x40\n      dup3\n      add\n      mload\n      0x02\n      dup3\n      add\n      dup1\n      sload\n      not(0xff)\n      and\n      0x01\n      dup4\n      0x05\n      dup2\n      gt\n      iszero\n      tag_268\n      jumpi\n      tag_268\n      tag_145\n      jump\t// in\n    tag_268:\n      mul\n      or\n      swap1\n      sstore\n      pop\n      0x60\n      dup3\n      add\n      mload\n      0x03\n      dup3\n      add\n      swap1\n      tag_269\n      swap1\n      dup3\n      tag_265\n      jump\t// in\n    tag_269:\n      pop\n      0x80\n      dup3\n      add\n      mload\n      0x04\n      dup3\n      add\n      swap1\n      tag_270\n      swap1\n      dup3\n      tag_265\n      jump\t// in\n    tag_270:\n      pop\n      0xa0\n      dup3\n      add\n      mload\n      0x05\n      dup3\n      add\n      swap1\n      tag_271\n      swap1\n      dup3\n      tag_265\n      jump\t// in\n    tag_271:\n      pop\n      pop\n      pop\n        /* \"packages/revolution-contracts/CultureIndex.sol\":4591:4607  newPiece.dropper */\n      0x08\n      dup2\n      add\n        /* \"packages/revolution-contracts/CultureIndex.sol\":4591:4620  newPiece.dropper = msg.sender */\n      dup1\n      sload\n      not(sub(shl(0xa0, 0x01), 0x01))\n      and\n        /* \"packages/revolution-contracts/CultureIndex.sol\":4610:4620  msg.sender */\n      caller\n        /* \"packages/revolution-contracts/CultureIndex.sol\":4591:4620  newPiece.dropper = msg.sender */\n      or\n      swap1\n      sstore\n        /* \"packages/revolution-contracts/CultureIndex.sol\":4591:4607  newPiece.dropper */\n      0x00\n        /* \"packages/revolution-contracts/CultureIndex.sol\":4631:4742  for (uint i = 0; i < creatorArray.length; i++) {... */\n    tag_272:\n        /* \"packages/revolution-contracts/CultureIndex.sol\":4652:4664  creatorArray */\n      dup6\n        /* \"packages/revolution-contracts/CultureIndex.sol\":4652:4671  creatorArray.length */\n      mload\n        /* \"packages/revolution-contracts/CultureIndex.sol\":4648:4649  i */\n      dup2\n        /* \"packages/revolution-contracts/CultureIndex.sol\":4648:4671  i < creatorArray.length */\n      lt\n        /* \"packages/revolution-contracts/CultureIndex.sol\":4631:4742  for (uint i = 0; i < creatorArray.length; i++) {... */\n      iszero\n      tag_273\n      jumpi\n        /* \"packages/revolution-contracts/CultureIndex.sol\":4692:4700  newPiece */\n      dup2\n        /* \"packages/revolution-contracts/CultureIndex.sol\":4692:4709  newPiece.creators */\n      0x07\n      add\n        /* \"packages/revolution-contracts/CultureIndex.sol\":4715:4727  creatorArray */\n      dup7\n        /* \"packages/revolution-contracts/CultureIndex.sol\":4728:4729  i */\n      dup3\n        /* \"packages/revolution-contracts/CultureIndex.sol\":4715:4730  creatorArray[i] */\n      dup2\n      mload\n      dup2\n      lt\n      tag_276\n      jumpi\n      tag_276\n      tag_123\n      jump\t// in\n    tag_276:\n      0x20\n      swap1\n      dup2\n      mul\n      swap2\n      swap1\n      swap2\n      add\n      dup2\n      add\n      mload\n        /* \"packages/revolution-contracts/CultureIndex.sol\":4692:4731  newPiece.creators.push(creatorArray[i]) */\n      dup3\n      sload\n      0x01\n      dup1\n      dup3\n      add\n      dup6\n      sstore\n      0x00\n      swap5\n      dup6\n      mstore\n      swap4\n      dup4\n      swap1\n      keccak256\n      dup3\n      mload\n      0x02\n      swap1\n      swap3\n      mul\n      add\n      dup1\n      sload\n      not(sub(shl(0xa0, 0x01), 0x01))\n      and\n      sub(shl(0xa0, 0x01), 0x01)\n      swap1\n      swap3\n      and\n      swap2\n      swap1\n      swap2\n      or\n      dup2\n      sstore\n      swap2\n      add\n      mload\n      swap1\n      dup3\n      add\n      sstore\n        /* \"packages/revolution-contracts/CultureIndex.sol\":4673:4676  i++ */\n      add\n        /* \"packages/revolution-contracts/CultureIndex.sol\":4631:4742  for (uint i = 0; i < creatorArray.length; i++) {... */\n      jump(tag_272)\n    tag_273:\n      pop\n        /* \"packages/revolution-contracts/CultureIndex.sol\":4779:4789  msg.sender */\n      caller\n      sub(shl(0xa0, 0x01), 0x01)\n        /* \"packages/revolution-contracts/CultureIndex.sol\":4757:4908  PieceCreated(pieceId, msg.sender, metadata.name, metadata.description, metadata.image, metadata.animationUrl, metadata.text, uint8(metadata.mediaType)) */\n      and\n        /* \"packages/revolution-contracts/CultureIndex.sol\":4770:4777  pieceId */\n      dup3\n        /* \"packages/revolution-contracts/CultureIndex.sol\":4757:4908  PieceCreated(pieceId, msg.sender, metadata.name, metadata.description, metadata.image, metadata.animationUrl, metadata.text, uint8(metadata.mediaType)) */\n      0xc6dda5d2a7a2baaaa424904e38bc3992b0dc78bfb2900bbdeca620424fa64570\n        /* \"packages/revolution-contracts/CultureIndex.sol\":4791:4799  metadata */\n      dup9\n        /* \"packages/revolution-contracts/CultureIndex.sol\":4791:4804  metadata.name */\n      0x00\n      add\n      mload\n        /* \"packages/revolution-contracts/CultureIndex.sol\":4806:4814  metadata */\n      dup10\n        /* \"packages/revolution-contracts/CultureIndex.sol\":4806:4826  metadata.description */\n      0x20\n      add\n      mload\n        /* \"packages/revolution-contracts/CultureIndex.sol\":4828:4836  metadata */\n      dup11\n        /* \"packages/revolution-contracts/CultureIndex.sol\":4828:4842  metadata.image */\n      0x60\n      add\n      mload\n        /* \"packages/revolution-contracts/CultureIndex.sol\":4844:4852  metadata */\n      dup12\n        /* \"packages/revolution-contracts/CultureIndex.sol\":4844:4865  metadata.animationUrl */\n      0xa0\n      add\n      mload\n        /* \"packages/revolution-contracts/CultureIndex.sol\":4867:4875  metadata */\n      dup13\n        /* \"packages/revolution-contracts/CultureIndex.sol\":4867:4880  metadata.text */\n      0x80\n      add\n      mload\n        /* \"packages/revolution-contracts/CultureIndex.sol\":4888:4896  metadata */\n      dup14\n        /* \"packages/revolution-contracts/CultureIndex.sol\":4888:4906  metadata.mediaType */\n      0x40\n      add\n      mload\n        /* \"packages/revolution-contracts/CultureIndex.sol\":4882:4907  uint8(metadata.mediaType) */\n      0x05\n      dup2\n      gt\n      iszero\n      tag_279\n      jumpi\n      tag_279\n      tag_145\n      jump\t// in\n    tag_279:\n        /* \"packages/revolution-contracts/CultureIndex.sol\":4757:4908  PieceCreated(pieceId, msg.sender, metadata.name, metadata.description, metadata.image, metadata.animationUrl, metadata.text, uint8(metadata.mediaType)) */\n      mload(0x40)\n      tag_280\n      swap7\n      swap6\n      swap5\n      swap4\n      swap3\n      swap2\n      swap1\n      tag_281\n      jump\t// in\n    tag_280:\n      mload(0x40)\n      dup1\n      swap2\n      sub\n      swap1\n      log3\n        /* \"packages/revolution-contracts/CultureIndex.sol\":4966:4972  uint i */\n      0x00\n        /* \"packages/revolution-contracts/CultureIndex.sol\":4961:5122  for (uint i = 0; i < creatorArray.length; i++) {... */\n    tag_282:\n        /* \"packages/revolution-contracts/CultureIndex.sol\":4982:4994  creatorArray */\n      dup6\n        /* \"packages/revolution-contracts/CultureIndex.sol\":4982:5001  creatorArray.length */\n      mload\n        /* \"packages/revolution-contracts/CultureIndex.sol\":4978:4979  i */\n      dup2\n        /* \"packages/revolution-contracts/CultureIndex.sol\":4978:5001  i < creatorArray.length */\n      lt\n        /* \"packages/revolution-contracts/CultureIndex.sol\":4961:5122  for (uint i = 0; i < creatorArray.length; i++) {... */\n      iszero\n      tag_283\n      jumpi\n        /* \"packages/revolution-contracts/CultureIndex.sol\":5079:5089  msg.sender */\n      caller\n      sub(shl(0xa0, 0x01), 0x01)\n        /* \"packages/revolution-contracts/CultureIndex.sol\":5027:5111  PieceCreatorAdded(pieceId, creatorArray[i].creator, msg.sender, creatorArray[i].bps) */\n      and\n        /* \"packages/revolution-contracts/CultureIndex.sol\":5054:5066  creatorArray */\n      dup7\n        /* \"packages/revolution-contracts/CultureIndex.sol\":5067:5068  i */\n      dup3\n        /* \"packages/revolution-contracts/CultureIndex.sol\":5054:5069  creatorArray[i] */\n      dup2\n      mload\n      dup2\n      lt\n      tag_286\n      jumpi\n      tag_286\n      tag_123\n      jump\t// in\n    tag_286:\n      0x20\n      mul\n      0x20\n      add\n      add\n      mload\n        /* \"packages/revolution-contracts/CultureIndex.sol\":5054:5077  creatorArray[i].creator */\n      0x00\n      add\n      mload\n      sub(shl(0xa0, 0x01), 0x01)\n        /* \"packages/revolution-contracts/CultureIndex.sol\":5027:5111  PieceCreatorAdded(pieceId, creatorArray[i].creator, msg.sender, creatorArray[i].bps) */\n      and\n        /* \"packages/revolution-contracts/CultureIndex.sol\":5045:5052  pieceId */\n      dup5\n        /* \"packages/revolution-contracts/CultureIndex.sol\":5027:5111  PieceCreatorAdded(pieceId, creatorArray[i].creator, msg.sender, creatorArray[i].bps) */\n      0x1cd5f4915fbea5fb35c9ebdfb2bfd7d12423db85aea22a9b5e92d6b0ec08fce1\n        /* \"packages/revolution-contracts/CultureIndex.sol\":5091:5103  creatorArray */\n      dup10\n        /* \"packages/revolution-contracts/CultureIndex.sol\":5104:5105  i */\n      dup6\n        /* \"packages/revolution-contracts/CultureIndex.sol\":5091:5106  creatorArray[i] */\n      dup2\n      mload\n      dup2\n      lt\n      tag_288\n      jumpi\n      tag_288\n      tag_123\n      jump\t// in\n    tag_288:\n      0x20\n      mul\n      0x20\n      add\n      add\n      mload\n        /* \"packages/revolution-contracts/CultureIndex.sol\":5091:5110  creatorArray[i].bps */\n      0x20\n      add\n      mload\n        /* \"packages/revolution-contracts/CultureIndex.sol\":5027:5111  PieceCreatorAdded(pieceId, creatorArray[i].creator, msg.sender, creatorArray[i].bps) */\n      mload(0x40)\n      tag_289\n      swap2\n        /* \"#utility.yul\":569:594   */\n      dup2\n      mstore\n        /* \"#utility.yul\":557:559   */\n      0x20\n        /* \"#utility.yul\":542:560   */\n      add\n      swap1\n        /* \"#utility.yul\":423:600   */\n      jump\n        /* \"packages/revolution-contracts/CultureIndex.sol\":5027:5111  PieceCreatorAdded(pieceId, creatorArray[i].creator, msg.sender, creatorArray[i].bps) */\n    tag_289:\n      mload(0x40)\n      dup1\n      swap2\n      sub\n      swap1\n      log4\n        /* \"packages/revolution-contracts/CultureIndex.sol\":5003:5006  i++ */\n      0x01\n      add\n        /* \"packages/revolution-contracts/CultureIndex.sol\":4961:5122  for (uint i = 0; i < creatorArray.length; i++) {... */\n      jump(tag_282)\n    tag_283:\n      pop\n        /* \"packages/revolution-contracts/CultureIndex.sol\":5138:5154  newPiece.pieceId */\n      sload\n      swap6\n        /* \"packages/revolution-contracts/CultureIndex.sol\":3973:5161  function createPiece(ArtPieceMetadata memory metadata, CreatorBps[] memory creatorArray) public returns (uint256) {... */\n      swap5\n      pop\n      pop\n      pop\n      pop\n      pop\n      jump\t// out\n        /* \"packages/revolution-contracts/CultureIndex.sol\":5706:6054  function getVoterWeight(address voter) public view returns (uint256) {... */\n    tag_91:\n        /* \"packages/revolution-contracts/CultureIndex.sol\":5793:5804  votingToken */\n      sload(0x03)\n        /* \"packages/revolution-contracts/CultureIndex.sol\":5766:5773  uint256 */\n      0x00\n      swap1\n      sub(shl(0xa0, 0x01), 0x01)\n        /* \"packages/revolution-contracts/CultureIndex.sol\":5793:5804  votingToken */\n      and\n        /* \"packages/revolution-contracts/CultureIndex.sol\":5785:5855  require(votingToken != IERC20(address(0)), \"Voting token must be set\") */\n      tag_291\n      jumpi\n      mload(0x40)\n      shl(0xe5, 0x461bcd)\n      dup2\n      mstore\n        /* \"#utility.yul\":19486:19488   */\n      0x20\n        /* \"packages/revolution-contracts/CultureIndex.sol\":5785:5855  require(votingToken != IERC20(address(0)), \"Voting token must be set\") */\n      0x04\n      dup3\n      add\n        /* \"#utility.yul\":19468:19489   */\n      mstore\n        /* \"#utility.yul\":19525:19527   */\n      0x18\n        /* \"#utility.yul\":19505:19523   */\n      0x24\n      dup3\n      add\n        /* \"#utility.yul\":19498:19528   */\n      mstore\n        /* \"#utility.yul\":19564:19590   */\n      0x566f74696e6720746f6b656e206d757374206265207365740000000000000000\n        /* \"#utility.yul\":19544:19562   */\n      0x44\n      dup3\n      add\n        /* \"#utility.yul\":19537:19591   */\n      mstore\n        /* \"#utility.yul\":19608:19626   */\n      0x64\n      add\n        /* \"packages/revolution-contracts/CultureIndex.sol\":5785:5855  require(votingToken != IERC20(address(0)), \"Voting token must be set\") */\n      tag_191\n        /* \"#utility.yul\":19284:19632   */\n      jump\n        /* \"packages/revolution-contracts/CultureIndex.sol\":5785:5855  require(votingToken != IERC20(address(0)), \"Voting token must be set\") */\n    tag_291:\n        /* \"packages/revolution-contracts/CultureIndex.sol\":5870:5881  votingToken */\n      sload(0x03)\n        /* \"packages/revolution-contracts/CultureIndex.sol\":5870:5898  votingToken.balanceOf(voter) */\n      mload(0x40)\n      shl(0xe0, 0x70a08231)\n      dup2\n      mstore\n      sub(shl(0xa0, 0x01), 0x01)\n        /* \"#utility.yul\":379:411   */\n      dup5\n      dup2\n      and\n        /* \"packages/revolution-contracts/CultureIndex.sol\":5870:5898  votingToken.balanceOf(voter) */\n      0x04\n      dup4\n      add\n        /* \"#utility.yul\":361:412   */\n      mstore\n        /* \"packages/revolution-contracts/CultureIndex.sol\":5870:5881  votingToken */\n      swap1\n      swap2\n      and\n      swap1\n        /* \"packages/revolution-contracts/CultureIndex.sol\":5870:5891  votingToken.balanceOf */\n      0x70a08231\n      swap1\n        /* \"#utility.yul\":334:352   */\n      0x24\n      add\n        /* \"packages/revolution-contracts/CultureIndex.sol\":5870:5898  votingToken.balanceOf(voter) */\n      0x20\n      mload(0x40)\n      dup1\n      dup4\n      sub\n      dup2\n      dup7\n      gas\n      staticcall\n      swap3\n      pop\n      pop\n      pop\n      dup1\n      iszero\n      tag_295\n      jumpi\n      pop\n      0x40\n      dup1\n      mload\n      0x1f\n      returndatasize\n      swap1\n      dup2\n      add\n      not(0x1f)\n      and\n      dup3\n      add\n      swap1\n      swap3\n      mstore\n      tag_296\n      swap2\n      dup2\n      add\n      swap1\n      tag_297\n      jump\t// in\n    tag_296:\n      0x01\n    tag_295:\n        /* \"packages/revolution-contracts/CultureIndex.sol\":5866:6048  try votingToken.balanceOf(voter) returns (uint256 balance) {... */\n      tag_112\n      jumpi\n        /* \"packages/revolution-contracts/CultureIndex.sol\":5985:6037  revert(\"Failed to get balance, voting not possible\") */\n      mload(0x40)\n      shl(0xe5, 0x461bcd)\n      dup2\n      mstore\n        /* \"#utility.yul\":20028:20030   */\n      0x20\n        /* \"packages/revolution-contracts/CultureIndex.sol\":5985:6037  revert(\"Failed to get balance, voting not possible\") */\n      0x04\n      dup3\n      add\n        /* \"#utility.yul\":20010:20031   */\n      mstore\n        /* \"#utility.yul\":20067:20069   */\n      0x2a\n        /* \"#utility.yul\":20047:20065   */\n      0x24\n      dup3\n      add\n        /* \"#utility.yul\":20040:20070   */\n      mstore\n        /* \"#utility.yul\":20106:20140   */\n      0x4661696c656420746f206765742062616c616e63652c20766f74696e67206e6f\n        /* \"#utility.yul\":20086:20104   */\n      0x44\n      dup3\n      add\n        /* \"#utility.yul\":20079:20141   */\n      mstore\n      shl(0xb0, 0x7420706f737369626c65)\n        /* \"#utility.yul\":20157:20175   */\n      0x64\n      dup3\n      add\n        /* \"#utility.yul\":20150:20190   */\n      mstore\n        /* \"#utility.yul\":20207:20226   */\n      0x84\n      add\n        /* \"packages/revolution-contracts/CultureIndex.sol\":5985:6037  revert(\"Failed to get balance, voting not possible\") */\n      tag_191\n        /* \"#utility.yul\":19826:20232   */\n      jump\n        /* \"packages/revolution-contracts/CultureIndex.sol\":5866:6048  try votingToken.balanceOf(voter) returns (uint256 balance) {... */\n    tag_304:\n        /* \"packages/revolution-contracts/CultureIndex.sol\":5706:6054  function getVoterWeight(address voter) public view returns (uint256) {... */\n      swap2\n      swap1\n      pop\n      jump\t// out\n        /* \"packages/revolution-contracts/CultureIndex.sol\":8346:8522  function getPieceById(uint256 pieceId) public view returns (ArtPiece memory) {... */\n    tag_95:\n        /* \"packages/revolution-contracts/CultureIndex.sol\":8406:8421  ArtPiece memory */\n      tag_305\n      tag_169\n      jump\t// in\n    tag_305:\n        /* \"packages/revolution-contracts/CultureIndex.sol\":8452:8462  pieceCount */\n      sload(0x05)\n        /* \"packages/revolution-contracts/CultureIndex.sol\":8441:8448  pieceId */\n      dup3\n        /* \"packages/revolution-contracts/CultureIndex.sol\":8441:8462  pieceId <= pieceCount */\n      gt\n      iszero\n        /* \"packages/revolution-contracts/CultureIndex.sol\":8433:8483  require(pieceId <= pieceCount, \"Invalid piece ID\") */\n      tag_307\n      jumpi\n      mload(0x40)\n      shl(0xe5, 0x461bcd)\n      dup2\n      mstore\n      0x04\n      add\n      tag_191\n      swap1\n      tag_248\n      jump\t// in\n    tag_307:\n        /* \"packages/revolution-contracts/CultureIndex.sol\":8500:8506  pieces */\n      0x04\n        /* \"packages/revolution-contracts/CultureIndex.sol\":8500:8515  pieces[pieceId] */\n      0x00\n        /* \"packages/revolution-contracts/CultureIndex.sol\":8507:8514  pieceId */\n      dup4\n        /* \"packages/revolution-contracts/CultureIndex.sol\":8500:8515  pieces[pieceId] */\n      dup2\n      mstore\n      0x20\n      add\n      swap1\n      dup2\n      mstore\n      0x20\n      add\n      0x00\n      keccak256\n        /* \"packages/revolution-contracts/CultureIndex.sol\":8493:8515  return pieces[pieceId] */\n      mload(0x40)\n      dup1\n      0xa0\n      add\n      0x40\n      mstore\n      swap1\n      dup2\n      0x00\n      dup3\n      add\n      sload\n      dup2\n      mstore\n      0x20\n      add\n      0x01\n      dup3\n      add\n      mload(0x40)\n      dup1\n      0xc0\n      add\n      0x40\n      mstore\n      swap1\n      dup2\n      0x00\n      dup3\n      add\n      dup1\n      sload\n      tag_309\n      swap1\n      tag_133\n      jump\t// in\n    tag_309:\n      dup1\n      0x1f\n      add\n      0x20\n      dup1\n      swap2\n      div\n      mul\n      0x20\n      add\n      mload(0x40)\n      swap1\n      dup2\n      add\n      0x40\n      mstore\n      dup1\n      swap3\n      swap2\n      swap1\n      dup2\n      dup2\n      mstore\n      0x20\n      add\n      dup3\n      dup1\n      sload\n      tag_310\n      swap1\n      tag_133\n      jump\t// in\n    tag_310:\n      dup1\n      iszero\n      tag_311\n      jumpi\n      dup1\n      0x1f\n      lt\n      tag_312\n      jumpi\n      0x0100\n      dup1\n      dup4\n      sload\n      div\n      mul\n      dup4\n      mstore\n      swap2\n      0x20\n      add\n      swap2\n      jump(tag_311)\n    tag_312:\n      dup3\n      add\n      swap2\n      swap1\n      0x00\n      mstore\n      keccak256(0x00, 0x20)\n      swap1\n    tag_313:\n      dup2\n      sload\n      dup2\n      mstore\n      swap1\n      0x01\n      add\n      swap1\n      0x20\n      add\n      dup1\n      dup4\n      gt\n      tag_313\n      jumpi\n      dup3\n      swap1\n      sub\n      0x1f\n      and\n      dup3\n      add\n      swap2\n    tag_311:\n      pop\n      pop\n      pop\n      pop\n      pop\n      dup2\n      mstore\n      0x20\n      add\n      0x01\n      dup3\n      add\n      dup1\n      sload\n      tag_314\n      swap1\n      tag_133\n      jump\t// in\n    tag_314:\n      dup1\n      0x1f\n      add\n      0x20\n      dup1\n      swap2\n      div\n      mul\n      0x20\n      add\n      mload(0x40)\n      swap1\n      dup2\n      add\n      0x40\n      mstore\n      dup1\n      swap3\n      swap2\n      swap1\n      dup2\n      dup2\n      mstore\n      0x20\n      add\n      dup3\n      dup1\n      sload\n      tag_315\n      swap1\n      tag_133\n      jump\t// in\n    tag_315:\n      dup1\n      iszero\n      tag_316\n      jumpi\n      dup1\n      0x1f\n      lt\n      tag_317\n      jumpi\n      0x0100\n      dup1\n      dup4\n      sload\n      div\n      mul\n      dup4\n      mstore\n      swap2\n      0x20\n      add\n      swap2\n      jump(tag_316)\n    tag_317:\n      dup3\n      add\n      swap2\n      swap1\n      0x00\n      mstore\n      keccak256(0x00, 0x20)\n      swap1\n    tag_318:\n      dup2\n      sload\n      dup2\n      mstore\n      swap1\n      0x01\n      add\n      swap1\n      0x20\n      add\n      dup1\n      dup4\n      gt\n      tag_318\n      jumpi\n      dup3\n      swap1\n      sub\n      0x1f\n      and\n      dup3\n      add\n      swap2\n    tag_316:\n      pop\n      pop\n      pop\n      swap2\n      dup4\n      mstore\n      pop\n      pop\n      0x02\n      dup3\n      add\n      sload\n      0x20\n      swap1\n      swap2\n      add\n      swap1\n      0xff\n      and\n      0x05\n      dup2\n      gt\n      iszero\n      tag_320\n      jumpi\n      tag_320\n      tag_145\n      jump\t// in\n    tag_320:\n      0x05\n      dup2\n      gt\n      iszero\n      tag_322\n      jumpi\n      tag_322\n      tag_145\n      jump\t// in\n    tag_322:\n      dup2\n      mstore\n      0x20\n      add\n      0x03\n      dup3\n      add\n      dup1\n      sload\n      tag_323\n      swap1\n      tag_133\n      jump\t// in\n    tag_323:\n      dup1\n      0x1f\n      add\n      0x20\n      dup1\n      swap2\n      div\n      mul\n      0x20\n      add\n      mload(0x40)\n      swap1\n      dup2\n      add\n      0x40\n      mstore\n      dup1\n      swap3\n      swap2\n      swap1\n      dup2\n      dup2\n      mstore\n      0x20\n      add\n      dup3\n      dup1\n      sload\n      tag_324\n      swap1\n      tag_133\n      jump\t// in\n    tag_324:\n      dup1\n      iszero\n      tag_325\n      jumpi\n      dup1\n      0x1f\n      lt\n      tag_326\n      jumpi\n      0x0100\n      dup1\n      dup4\n      sload\n      div\n      mul\n      dup4\n      mstore\n      swap2\n      0x20\n      add\n      swap2\n      jump(tag_325)\n    tag_326:\n      dup3\n      add\n      swap2\n      swap1\n      0x00\n      mstore\n      keccak256(0x00, 0x20)\n      swap1\n    tag_327:\n      dup2\n      sload\n      dup2\n      mstore\n      swap1\n      0x01\n      add\n      swap1\n      0x20\n      add\n      dup1\n      dup4\n      gt\n      tag_327\n      jumpi\n      dup3\n      swap1\n      sub\n      0x1f\n      and\n      dup3\n      add\n      swap2\n    tag_325:\n      pop\n      pop\n      pop\n      pop\n      pop\n      dup2\n      mstore\n      0x20\n      add\n      0x04\n      dup3\n      add\n      dup1\n      sload\n      tag_328\n      swap1\n      tag_133\n      jump\t// in\n    tag_328:\n      dup1\n      0x1f\n      add\n      0x20\n      dup1\n      swap2\n      div\n      mul\n      0x20\n      add\n      mload(0x40)\n      swap1\n      dup2\n      add\n      0x40\n      mstore\n      dup1\n      swap3\n      swap2\n      swap1\n      dup2\n      dup2\n      mstore\n      0x20\n      add\n      dup3\n      dup1\n      sload\n      tag_329\n      swap1\n      tag_133\n      jump\t// in\n    tag_329:\n      dup1\n      iszero\n      tag_330\n      jumpi\n      dup1\n      0x1f\n      lt\n      tag_331\n      jumpi\n      0x0100\n      dup1\n      dup4\n      sload\n      div\n      mul\n      dup4\n      mstore\n      swap2\n      0x20\n      add\n      swap2\n      jump(tag_330)\n    tag_331:\n      dup3\n      add\n      swap2\n      swap1\n      0x00\n      mstore\n      keccak256(0x00, 0x20)\n      swap1\n    tag_332:\n      dup2\n      sload\n      dup2\n      mstore\n      swap1\n      0x01\n      add\n      swap1\n      0x20\n      add\n      dup1\n      dup4\n      gt\n      tag_332\n      jumpi\n      dup3\n      swap1\n      sub\n      0x1f\n      and\n      dup3\n      add\n      swap2\n    tag_330:\n      pop\n      pop\n      pop\n      pop\n      pop\n      dup2\n      mstore\n      0x20\n      add\n      0x05\n      dup3\n      add\n      dup1\n      sload\n      tag_333\n      swap1\n      tag_133\n      jump\t// in\n    tag_333:\n      dup1\n      0x1f\n      add\n      0x20\n      dup1\n      swap2\n      div\n      mul\n      0x20\n      add\n      mload(0x40)\n      swap1\n      dup2\n      add\n      0x40\n      mstore\n      dup1\n      swap3\n      swap2\n      swap1\n      dup2\n      dup2\n      mstore\n      0x20\n      add\n      dup3\n      dup1\n      sload\n      tag_334\n      swap1\n      tag_133\n      jump\t// in\n    tag_334:\n      dup1\n      iszero\n      tag_335\n      jumpi\n      dup1\n      0x1f\n      lt\n      tag_336\n      jumpi\n      0x0100\n      dup1\n      dup4\n      sload\n      div\n      mul\n      dup4\n      mstore\n      swap2\n      0x20\n      add\n      swap2\n      jump(tag_335)\n    tag_336:\n      dup3\n      add\n      swap2\n      swap1\n      0x00\n      mstore\n      keccak256(0x00, 0x20)\n      swap1\n    tag_337:\n      dup2\n      sload\n      dup2\n      mstore\n      swap1\n      0x01\n      add\n      swap1\n      0x20\n      add\n      dup1\n      dup4\n      gt\n      tag_337\n      jumpi\n      dup3\n      swap1\n      sub\n      0x1f\n      and\n      dup3\n      add\n      swap2\n    tag_335:\n      pop\n      pop\n      pop\n      pop\n      pop\n      dup2\n      mstore\n      pop\n      pop\n      dup2\n      mstore\n      0x20\n      add\n      0x07\n      dup3\n      add\n      dup1\n      sload\n      dup1\n      0x20\n      mul\n      0x20\n      add\n      mload(0x40)\n      swap1\n      dup2\n      add\n      0x40\n      mstore\n      dup1\n      swap3\n      swap2\n      swap1\n      dup2\n      dup2\n      mstore\n      0x20\n      add\n      0x00\n      swap1\n    tag_338:\n      dup3\n      dup3\n      lt\n      iszero\n      tag_339\n      jumpi\n      0x00\n      dup5\n      dup2\n      mstore\n      0x20\n      swap1\n      dup2\n      swap1\n      keccak256\n      0x40\n      dup1\n      mload\n      dup1\n      dup3\n      add\n      swap1\n      swap2\n      mstore\n      0x02\n      dup6\n      mul\n      swap1\n      swap2\n      add\n      dup1\n      sload\n      sub(shl(0xa0, 0x01), 0x01)\n      and\n      dup3\n      mstore\n      0x01\n      swap1\n      dup2\n      add\n      sload\n      dup3\n      dup5\n      add\n      mstore\n      swap1\n      dup4\n      mstore\n      swap1\n      swap3\n      add\n      swap2\n      add\n      jump(tag_338)\n    tag_339:\n      pop\n      pop\n      pop\n      swap1\n      dup3\n      mstore\n      pop\n      0x08\n      swap2\n      swap1\n      swap2\n      add\n      sload\n      sub(shl(0xa0, 0x01), 0x01)\n      dup2\n      and\n      0x20\n      dup4\n      add\n      mstore\n      shl(0xa0, 0x01)\n      swap1\n      div\n      0xff\n      and\n      iszero\n      iszero\n      0x40\n      swap1\n      swap2\n      add\n      mstore\n      swap3\n      swap2\n      pop\n      pop\n        /* \"packages/revolution-contracts/CultureIndex.sol\":8346:8522  function getPieceById(uint256 pieceId) public view returns (ArtPiece memory) {... */\n      jump\t// out\n        /* \"@openzeppelin/contracts/access/Ownable.sol\":2543:2758  function transferOwnership(address newOwner) public virtual onlyOwner {... */\n    tag_99:\n        /* \"@openzeppelin/contracts/access/Ownable.sol\":1531:1544  _checkOwner() */\n      tag_342\n        /* \"@openzeppelin/contracts/access/Ownable.sol\":1531:1542  _checkOwner */\n      tag_127\n        /* \"@openzeppelin/contracts/access/Ownable.sol\":1531:1544  _checkOwner() */\n      jump\t// in\n    tag_342:\n      sub(shl(0xa0, 0x01), 0x01)\n        /* \"@openzeppelin/contracts/access/Ownable.sol\":2627:2649  newOwner == address(0) */\n      dup2\n      and\n        /* \"@openzeppelin/contracts/access/Ownable.sol\":2623:2714  if (newOwner == address(0)) {... */\n      tag_344\n      jumpi\n        /* \"@openzeppelin/contracts/access/Ownable.sol\":2672:2703  OwnableInvalidOwner(address(0)) */\n      mload(0x40)\n      shl(0xe0, 0x1e4fbdf7)\n      dup2\n      mstore\n        /* \"@openzeppelin/contracts/access/Ownable.sol\":2700:2701  0 */\n      0x00\n        /* \"@openzeppelin/contracts/access/Ownable.sol\":2672:2703  OwnableInvalidOwner(address(0)) */\n      0x04\n      dup3\n      add\n        /* \"#utility.yul\":361:412   */\n      mstore\n        /* \"#utility.yul\":334:352   */\n      0x24\n      add\n        /* \"@openzeppelin/contracts/access/Ownable.sol\":2672:2703  OwnableInvalidOwner(address(0)) */\n      tag_191\n        /* \"#utility.yul\":199:418   */\n      jump\n        /* \"@openzeppelin/contracts/access/Ownable.sol\":2623:2714  if (newOwner == address(0)) {... */\n    tag_344:\n        /* \"@openzeppelin/contracts/access/Ownable.sol\":2723:2751  _transferOwnership(newOwner) */\n      tag_110\n        /* \"@openzeppelin/contracts/access/Ownable.sol\":2742:2750  newOwner */\n      dup2\n        /* \"@openzeppelin/contracts/access/Ownable.sol\":2723:2741  _transferOwnership */\n      tag_130\n        /* \"@openzeppelin/contracts/access/Ownable.sol\":2723:2751  _transferOwnership(newOwner) */\n      jump\t// in\n        /* \"packages/revolution-contracts/CultureIndex.sol\":9040:9193  function getTopVotedPiece() public view returns (ArtPiece memory) {... */\n    tag_101:\n        /* \"packages/revolution-contracts/CultureIndex.sol\":9089:9104  ArtPiece memory */\n      tag_347\n      tag_169\n      jump\t// in\n    tag_347:\n        /* \"packages/revolution-contracts/CultureIndex.sol\":9138:9145  maxHeap */\n      sload(0x02)\n        /* \"packages/revolution-contracts/CultureIndex.sol\":9138:9154  maxHeap.getMax() */\n      0x40\n      dup1\n      mload\n      shl(0xe1, 0x183afaa9)\n      dup2\n      mstore\n      dup2\n      mload\n        /* \"packages/revolution-contracts/CultureIndex.sol\":9117:9132  uint256 pieceId */\n      0x00\n      swap4\n      sub(shl(0xa0, 0x01), 0x01)\n        /* \"packages/revolution-contracts/CultureIndex.sol\":9138:9145  maxHeap */\n      and\n      swap3\n        /* \"packages/revolution-contracts/CultureIndex.sol\":9138:9152  maxHeap.getMax */\n      0x3075f552\n      swap3\n        /* \"packages/revolution-contracts/CultureIndex.sol\":9138:9154  maxHeap.getMax() */\n      0x04\n      dup1\n      dup3\n      add\n      swap4\n      swap2\n      dup3\n      swap1\n      sub\n      add\n      dup2\n        /* \"packages/revolution-contracts/CultureIndex.sol\":9138:9145  maxHeap */\n      dup7\n        /* \"packages/revolution-contracts/CultureIndex.sol\":9138:9154  maxHeap.getMax() */\n      gas\n      staticcall\n      iszero\n      dup1\n      iszero\n      tag_350\n      jumpi\n      returndatasize\n      0x00\n      dup1\n      returndatacopy\n      revert(0x00, returndatasize)\n    tag_350:\n      pop\n      pop\n      pop\n      pop\n      mload(0x40)\n      returndatasize\n      not(0x1f)\n      0x1f\n      dup3\n      add\n      and\n      dup3\n      add\n      dup1\n      0x40\n      mstore\n      pop\n      dup2\n      add\n      swap1\n      tag_351\n      swap2\n      swap1\n      tag_167\n      jump\t// in\n    tag_351:\n        /* \"packages/revolution-contracts/CultureIndex.sol\":9116:9154  (uint256 pieceId, ) = maxHeap.getMax() */\n      pop\n      swap1\n      pop\n        /* \"packages/revolution-contracts/CultureIndex.sol\":9171:9177  pieces */\n      0x04\n        /* \"packages/revolution-contracts/CultureIndex.sol\":9171:9186  pieces[pieceId] */\n      0x00\n        /* \"packages/revolution-contracts/CultureIndex.sol\":9178:9185  pieceId */\n      dup3\n        /* \"packages/revolution-contracts/CultureIndex.sol\":9171:9186  pieces[pieceId] */\n      dup2\n      mstore\n      0x20\n      add\n      swap1\n      dup2\n      mstore\n      0x20\n      add\n      0x00\n      keccak256\n        /* \"packages/revolution-contracts/CultureIndex.sol\":9164:9186  return pieces[pieceId] */\n      mload(0x40)\n      dup1\n      0xa0\n      add\n      0x40\n      mstore\n      swap1\n      dup2\n      0x00\n      dup3\n      add\n      sload\n      dup2\n      mstore\n      0x20\n      add\n      0x01\n      dup3\n      add\n      mload(0x40)\n      dup1\n      0xc0\n      add\n      0x40\n      mstore\n      swap1\n      dup2\n      0x00\n      dup3\n      add\n      dup1\n      sload\n      tag_309\n      swap1\n      tag_133\n      jump\t// in\n        /* \"@openzeppelin/contracts/utils/ReentrancyGuard.sol\":2431:2738  function _nonReentrantBefore() private {... */\n    tag_105:\n        /* \"@openzeppelin/contracts/utils/ReentrancyGuard.sol\":1755:1756  2 */\n      0x02\n        /* \"@openzeppelin/contracts/utils/ReentrancyGuard.sol\":2558:2565  _status */\n      sload(0x01)\n        /* \"@openzeppelin/contracts/utils/ReentrancyGuard.sol\":2558:2576  _status == ENTERED */\n      sub\n        /* \"@openzeppelin/contracts/utils/ReentrancyGuard.sol\":2554:2640  if (_status == ENTERED) {... */\n      tag_385\n      jumpi\n        /* \"@openzeppelin/contracts/utils/ReentrancyGuard.sol\":2599:2629  ReentrancyGuardReentrantCall() */\n      mload(0x40)\n      shl(0xe0, 0x3ee5aeb5)\n      dup2\n      mstore\n      0x04\n      add\n      mload(0x40)\n      dup1\n      swap2\n      sub\n      swap1\n      revert\n        /* \"@openzeppelin/contracts/utils/ReentrancyGuard.sol\":2554:2640  if (_status == ENTERED) {... */\n    tag_385:\n        /* \"@openzeppelin/contracts/utils/ReentrancyGuard.sol\":1755:1756  2 */\n      0x02\n        /* \"@openzeppelin/contracts/utils/ReentrancyGuard.sol\":2714:2721  _status */\n      0x01\n        /* \"@openzeppelin/contracts/utils/ReentrancyGuard.sol\":2714:2731  _status = ENTERED */\n      sstore\n        /* \"@openzeppelin/contracts/utils/ReentrancyGuard.sol\":2431:2738  function _nonReentrantBefore() private {... */\n      jump\t// out\n        /* \"packages/revolution-contracts/CultureIndex.sol\":6466:7109  function _vote(uint256 pieceId, address voter, uint256 weight) internal {... */\n    tag_109:\n        /* \"packages/revolution-contracts/CultureIndex.sol\":6565:6566  0 */\n      0x00\n        /* \"packages/revolution-contracts/CultureIndex.sol\":6556:6562  weight */\n      dup2\n        /* \"packages/revolution-contracts/CultureIndex.sol\":6556:6566  weight > 0 */\n      gt\n        /* \"packages/revolution-contracts/CultureIndex.sol\":6548:6603  require(weight > 0, \"Weight must be greater than zero\") */\n      tag_387\n      jumpi\n      mload(0x40)\n      shl(0xe5, 0x461bcd)\n      dup2\n      mstore\n        /* \"#utility.yul\":20439:20441   */\n      0x20\n        /* \"packages/revolution-contracts/CultureIndex.sol\":6548:6603  require(weight > 0, \"Weight must be greater than zero\") */\n      0x04\n      dup3\n      add\n        /* \"#utility.yul\":20421:20442   */\n      dup2\n      swap1\n      mstore\n        /* \"#utility.yul\":20458:20476   */\n      0x24\n      dup3\n      add\n        /* \"#utility.yul\":20451:20481   */\n      mstore\n        /* \"#utility.yul\":20517:20551   */\n      0x576569676874206d7573742062652067726561746572207468616e207a65726f\n        /* \"#utility.yul\":20497:20515   */\n      0x44\n      dup3\n      add\n        /* \"#utility.yul\":20490:20552   */\n      mstore\n        /* \"#utility.yul\":20569:20587   */\n      0x64\n      add\n        /* \"packages/revolution-contracts/CultureIndex.sol\":6548:6603  require(weight > 0, \"Weight must be greater than zero\") */\n      tag_191\n        /* \"#utility.yul\":20237:20593   */\n      jump\n        /* \"packages/revolution-contracts/CultureIndex.sol\":6548:6603  require(weight > 0, \"Weight must be greater than zero\") */\n    tag_387:\n        /* \"packages/revolution-contracts/CultureIndex.sol\":6674:6675  0 */\n      0x00\n        /* \"packages/revolution-contracts/CultureIndex.sol\":6623:6637  votes[pieceId] */\n      dup4\n      dup2\n      mstore\n        /* \"packages/revolution-contracts/CultureIndex.sol\":6623:6628  votes */\n      0x06\n        /* \"packages/revolution-contracts/CultureIndex.sol\":6623:6637  votes[pieceId] */\n      0x20\n      swap1\n      dup2\n      mstore\n      0x40\n      dup1\n      dup4\n      keccak256\n        /* \"packages/revolution-contracts/CultureIndex.sol\":6638:6648  msg.sender */\n      caller\n        /* \"packages/revolution-contracts/CultureIndex.sol\":6623:6649  votes[pieceId][msg.sender] */\n      dup5\n      mstore\n      swap1\n      swap2\n      mstore\n      swap1\n      keccak256\n        /* \"packages/revolution-contracts/CultureIndex.sol\":6623:6662  votes[pieceId][msg.sender].voterAddress */\n      sload\n      sub(shl(0xa0, 0x01), 0x01)\n      and\n        /* \"packages/revolution-contracts/CultureIndex.sol\":6623:6676  votes[pieceId][msg.sender].voterAddress != address(0) */\n      iszero\n        /* \"packages/revolution-contracts/CultureIndex.sol\":6613:6695  require(!(votes[pieceId][msg.sender].voterAddress != address(0)), \"Already voted\") */\n      tag_390\n      jumpi\n      mload(0x40)\n      shl(0xe5, 0x461bcd)\n      dup2\n      mstore\n        /* \"#utility.yul\":20800:20802   */\n      0x20\n        /* \"packages/revolution-contracts/CultureIndex.sol\":6613:6695  require(!(votes[pieceId][msg.sender].voterAddress != address(0)), \"Already voted\") */\n      0x04\n      dup3\n      add\n        /* \"#utility.yul\":20782:20803   */\n      mstore\n        /* \"#utility.yul\":20839:20841   */\n      0x0d\n        /* \"#utility.yul\":20819:20837   */\n      0x24\n      dup3\n      add\n        /* \"#utility.yul\":20812:20842   */\n      mstore\n      shl(0x9a, 0x105b1c9958591e481d9bdd1959)\n        /* \"#utility.yul\":20858:20876   */\n      0x44\n      dup3\n      add\n        /* \"#utility.yul\":20851:20894   */\n      mstore\n        /* \"#utility.yul\":20911:20929   */\n      0x64\n      add\n        /* \"packages/revolution-contracts/CultureIndex.sol\":6613:6695  require(!(votes[pieceId][msg.sender].voterAddress != address(0)), \"Already voted\") */\n      tag_191\n        /* \"#utility.yul\":20598:20935   */\n      jump\n        /* \"packages/revolution-contracts/CultureIndex.sol\":6613:6695  require(!(votes[pieceId][msg.sender].voterAddress != address(0)), \"Already voted\") */\n    tag_390:\n        /* \"packages/revolution-contracts/CultureIndex.sol\":6714:6729  pieces[pieceId] */\n      0x00\n      dup4\n      dup2\n      mstore\n        /* \"packages/revolution-contracts/CultureIndex.sol\":6714:6720  pieces */\n      0x04\n        /* \"packages/revolution-contracts/CultureIndex.sol\":6714:6729  pieces[pieceId] */\n      0x20\n      mstore\n      0x40\n      swap1\n      keccak256\n        /* \"packages/revolution-contracts/CultureIndex.sol\":6714:6739  pieces[pieceId].isDropped */\n      0x08\n      add\n      sload\n      shl(0xa0, 0x01)\n      swap1\n      div\n      0xff\n      and\n        /* \"packages/revolution-contracts/CultureIndex.sol\":6713:6739  !pieces[pieceId].isDropped */\n      iszero\n        /* \"packages/revolution-contracts/CultureIndex.sol\":6705:6774  require(!pieces[pieceId].isDropped, \"Piece has already been dropped\") */\n      tag_393\n      jumpi\n      mload(0x40)\n      shl(0xe5, 0x461bcd)\n      dup2\n      mstore\n        /* \"#utility.yul\":21142:21144   */\n      0x20\n        /* \"packages/revolution-contracts/CultureIndex.sol\":6705:6774  require(!pieces[pieceId].isDropped, \"Piece has already been dropped\") */\n      0x04\n      dup3\n      add\n        /* \"#utility.yul\":21124:21145   */\n      mstore\n        /* \"#utility.yul\":21181:21183   */\n      0x1e\n        /* \"#utility.yul\":21161:21179   */\n      0x24\n      dup3\n      add\n        /* \"#utility.yul\":21154:21184   */\n      mstore\n        /* \"#utility.yul\":21220:21252   */\n      0x50696563652068617320616c7265616479206265656e2064726f707065640000\n        /* \"#utility.yul\":21200:21218   */\n      0x44\n      dup3\n      add\n        /* \"#utility.yul\":21193:21253   */\n      mstore\n        /* \"#utility.yul\":21270:21288   */\n      0x64\n      add\n        /* \"packages/revolution-contracts/CultureIndex.sol\":6705:6774  require(!pieces[pieceId].isDropped, \"Piece has already been dropped\") */\n      tag_191\n        /* \"#utility.yul\":20940:21294   */\n      jump\n        /* \"packages/revolution-contracts/CultureIndex.sol\":6705:6774  require(!pieces[pieceId].isDropped, \"Piece has already been dropped\") */\n    tag_393:\n        /* \"packages/revolution-contracts/CultureIndex.sol\":6803:6813  pieceCount */\n      sload(0x05)\n        /* \"packages/revolution-contracts/CultureIndex.sol\":6792:6799  pieceId */\n      dup4\n        /* \"packages/revolution-contracts/CultureIndex.sol\":6792:6813  pieceId <= pieceCount */\n      gt\n      iszero\n        /* \"packages/revolution-contracts/CultureIndex.sol\":6784:6834  require(pieceId <= pieceCount, \"Invalid piece ID\") */\n      tag_396\n      jumpi\n      mload(0x40)\n      shl(0xe5, 0x461bcd)\n      dup2\n      mstore\n      0x04\n      add\n      tag_191\n      swap1\n      tag_248\n      jump\t// in\n    tag_396:\n        /* \"packages/revolution-contracts/CultureIndex.sol\":6869:6888  Vote(voter, weight) */\n      0x40\n      dup1\n      mload\n      dup1\n      dup3\n      add\n      dup3\n      mstore\n      sub(shl(0xa0, 0x01), 0x01)\n      dup5\n      dup2\n      and\n      dup1\n      dup4\n      mstore\n      0x20\n      dup1\n      dup5\n      add\n      dup7\n      dup2\n      mstore\n      0x00\n        /* \"packages/revolution-contracts/CultureIndex.sol\":6845:6859  votes[pieceId] */\n      dup10\n      dup2\n      mstore\n        /* \"packages/revolution-contracts/CultureIndex.sol\":6845:6850  votes */\n      0x06\n        /* \"packages/revolution-contracts/CultureIndex.sol\":6845:6859  votes[pieceId] */\n      dup4\n      mstore\n      dup7\n      dup2\n      keccak256\n        /* \"packages/revolution-contracts/CultureIndex.sol\":6845:6866  votes[pieceId][voter] */\n      swap4\n      dup2\n      mstore\n      swap3\n      dup3\n      mstore\n      dup6\n      dup4\n      keccak256\n        /* \"packages/revolution-contracts/CultureIndex.sol\":6845:6888  votes[pieceId][voter] = Vote(voter, weight) */\n      swap5\n      mload\n      dup6\n      sload\n      not(sub(shl(0xa0, 0x01), 0x01))\n      and\n      swap5\n      and\n      swap4\n      swap1\n      swap4\n      or\n      dup5\n      sstore\n      swap2\n      mload\n      0x01\n      swap1\n      swap4\n      add\n      swap3\n      swap1\n      swap3\n      sstore\n        /* \"packages/revolution-contracts/CultureIndex.sol\":6898:6923  totalVoteWeights[pieceId] */\n      dup6\n      dup3\n      mstore\n        /* \"packages/revolution-contracts/CultureIndex.sol\":6898:6914  totalVoteWeights */\n      0x07\n        /* \"packages/revolution-contracts/CultureIndex.sol\":6898:6923  totalVoteWeights[pieceId] */\n      swap1\n      mstore\n      swap1\n      dup2\n      keccak256\n        /* \"packages/revolution-contracts/CultureIndex.sol\":6898:6933  totalVoteWeights[pieceId] += weight */\n      dup1\n      sload\n        /* \"packages/revolution-contracts/CultureIndex.sol\":6869:6888  Vote(voter, weight) */\n      dup4\n      swap3\n      swap1\n        /* \"packages/revolution-contracts/CultureIndex.sol\":6898:6933  totalVoteWeights[pieceId] += weight */\n      tag_398\n      swap1\n        /* \"packages/revolution-contracts/CultureIndex.sol\":6869:6888  Vote(voter, weight) */\n      dup5\n      swap1\n        /* \"packages/revolution-contracts/CultureIndex.sol\":6898:6933  totalVoteWeights[pieceId] += weight */\n      tag_399\n      jump\t// in\n    tag_398:\n      swap1\n      swap2\n      sstore\n      pop\n      pop\n        /* \"packages/revolution-contracts/CultureIndex.sol\":6944:6963  uint256 totalWeight */\n      0x00\n        /* \"packages/revolution-contracts/CultureIndex.sol\":6966:6991  totalVoteWeights[pieceId] */\n      dup4\n      dup2\n      mstore\n        /* \"packages/revolution-contracts/CultureIndex.sol\":6966:6982  totalVoteWeights */\n      0x07\n        /* \"packages/revolution-contracts/CultureIndex.sol\":6966:6991  totalVoteWeights[pieceId] */\n      0x20\n      mstore\n      0x40\n      swap1\n      dup2\n      swap1\n      keccak256\n      sload\n        /* \"packages/revolution-contracts/CultureIndex.sol\":7001:7008  maxHeap */\n      sload(0x02)\n        /* \"packages/revolution-contracts/CultureIndex.sol\":7001:7042  maxHeap.updateValue(pieceId, totalWeight) */\n      swap2\n      mload\n      shl(0xe1, 0x2da80413)\n      dup2\n      mstore\n      0x04\n      dup2\n      add\n        /* \"#utility.yul\":16076:16101   */\n      dup7\n      swap1\n      mstore\n        /* \"#utility.yul\":16117:16135   */\n      0x24\n      dup2\n      add\n        /* \"#utility.yul\":16110:16144   */\n      dup3\n      swap1\n      mstore\n        /* \"packages/revolution-contracts/CultureIndex.sol\":6966:6991  totalVoteWeights[pieceId] */\n      swap1\n      swap2\n      sub(shl(0xa0, 0x01), 0x01)\n        /* \"packages/revolution-contracts/CultureIndex.sol\":7001:7008  maxHeap */\n      and\n      swap1\n        /* \"packages/revolution-contracts/CultureIndex.sol\":7001:7020  maxHeap.updateValue */\n      0x5b500826\n      swap1\n        /* \"#utility.yul\":16049:16067   */\n      0x44\n      add\n        /* \"packages/revolution-contracts/CultureIndex.sol\":7001:7042  maxHeap.updateValue(pieceId, totalWeight) */\n      0x00\n      mload(0x40)\n      dup1\n      dup4\n      sub\n      dup2\n      0x00\n      dup8\n      dup1\n      extcodesize\n      iszero\n      dup1\n      iszero\n      tag_402\n      jumpi\n      0x00\n      dup1\n      revert\n    tag_402:\n      pop\n      gas\n      call\n      iszero\n      dup1\n      iszero\n      tag_404\n      jumpi\n      returndatasize\n      0x00\n      dup1\n      returndatacopy\n      revert(0x00, returndatasize)\n    tag_404:\n      pop\n      pop\n        /* \"packages/revolution-contracts/CultureIndex.sol\":7057:7102  VoteCast(pieceId, voter, weight, totalWeight) */\n      0x40\n      dup1\n      mload\n        /* \"#utility.yul\":16076:16101   */\n      dup6\n      dup2\n      mstore\n        /* \"#utility.yul\":16132:16134   */\n      0x20\n        /* \"#utility.yul\":16117:16135   */\n      dup2\n      add\n        /* \"#utility.yul\":16110:16144   */\n      dup6\n      swap1\n      mstore\n      sub(shl(0xa0, 0x01), 0x01)\n        /* \"packages/revolution-contracts/CultureIndex.sol\":7057:7102  VoteCast(pieceId, voter, weight, totalWeight) */\n      dup8\n      and\n      swap4\n      pop\n        /* \"packages/revolution-contracts/CultureIndex.sol\":7066:7073  pieceId */\n      dup8\n      swap3\n      pop\n        /* \"packages/revolution-contracts/CultureIndex.sol\":7057:7102  VoteCast(pieceId, voter, weight, totalWeight) */\n      0x0271f53eebbe20450d9578f28ec279231556c34545b30e2278d754ffd39cd63c\n      swap2\n        /* \"#utility.yul\":16049:16067   */\n      add\n        /* \"packages/revolution-contracts/CultureIndex.sol\":7057:7102  VoteCast(pieceId, voter, weight, totalWeight) */\n      mload(0x40)\n      dup1\n      swap2\n      sub\n      swap1\n      log3\n        /* \"packages/revolution-contracts/CultureIndex.sol\":6538:7109  {... */\n      pop\n        /* \"packages/revolution-contracts/CultureIndex.sol\":6466:7109  function _vote(uint256 pieceId, address voter, uint256 weight) internal {... */\n      pop\n      pop\n      pop\n      jump\t// out\n        /* \"@openzeppelin/contracts/access/Ownable.sol\":1796:1958  function _checkOwner() internal view virtual {... */\n    tag_127:\n        /* \"@openzeppelin/contracts/access/Ownable.sol\":1684:1691  address */\n      0x00\n        /* \"@openzeppelin/contracts/access/Ownable.sol\":1710:1716  _owner */\n      sload\n      sub(shl(0xa0, 0x01), 0x01)\n      and\n        /* \"@openzeppelin/contracts/utils/Context.sol\":735:745  msg.sender */\n      caller\n        /* \"@openzeppelin/contracts/access/Ownable.sol\":1855:1878  owner() != _msgSender() */\n      eq\n        /* \"@openzeppelin/contracts/access/Ownable.sol\":1851:1952  if (owner() != _msgSender()) {... */\n      tag_129\n      jumpi\n        /* \"@openzeppelin/contracts/access/Ownable.sol\":1901:1941  OwnableUnauthorizedAccount(_msgSender()) */\n      mload(0x40)\n      shl(0xe0, 0x118cdaa7)\n      dup2\n      mstore\n        /* \"@openzeppelin/contracts/utils/Context.sol\":735:745  msg.sender */\n      caller\n        /* \"@openzeppelin/contracts/access/Ownable.sol\":1901:1941  OwnableUnauthorizedAccount(_msgSender()) */\n      0x04\n      dup3\n      add\n        /* \"#utility.yul\":361:412   */\n      mstore\n        /* \"#utility.yul\":334:352   */\n      0x24\n      add\n        /* \"@openzeppelin/contracts/access/Ownable.sol\":1901:1941  OwnableUnauthorizedAccount(_msgSender()) */\n      tag_191\n        /* \"#utility.yul\":199:418   */\n      jump\n        /* \"@openzeppelin/contracts/access/Ownable.sol\":2912:3099  function _transferOwnership(address newOwner) internal virtual {... */\n    tag_130:\n        /* \"@openzeppelin/contracts/access/Ownable.sol\":2985:3001  address oldOwner */\n      0x00\n        /* \"@openzeppelin/contracts/access/Ownable.sol\":3004:3010  _owner */\n      dup1\n      sload\n      sub(shl(0xa0, 0x01), 0x01)\n        /* \"@openzeppelin/contracts/access/Ownable.sol\":3020:3037  _owner = newOwner */\n      dup4\n      dup2\n      and\n      not(sub(shl(0xa0, 0x01), 0x01))\n      dup4\n      and\n      dup2\n      or\n      dup5\n      sstore\n        /* \"@openzeppelin/contracts/access/Ownable.sol\":3052:3092  OwnershipTransferred(oldOwner, newOwner) */\n      mload(0x40)\n        /* \"@openzeppelin/contracts/access/Ownable.sol\":3004:3010  _owner */\n      swap2\n      swap1\n      swap3\n      and\n      swap3\n      dup4\n      swap2\n        /* \"@openzeppelin/contracts/access/Ownable.sol\":3052:3092  OwnershipTransferred(oldOwner, newOwner) */\n      0x8be0079c531659141344cd1fd0a4f28419497f9722a3daafe3b4186f6b6457e0\n      swap2\n        /* \"@openzeppelin/contracts/access/Ownable.sol\":2985:3001  address oldOwner */\n      swap1\n        /* \"@openzeppelin/contracts/access/Ownable.sol\":3052:3092  OwnershipTransferred(oldOwner, newOwner) */\n      log3\n        /* \"@openzeppelin/contracts/access/Ownable.sol\":2975:3099  {... */\n      pop\n        /* \"@openzeppelin/contracts/access/Ownable.sol\":2912:3099  function _transferOwnership(address newOwner) internal virtual {... */\n      pop\n      jump\t// out\n        /* \"packages/revolution-contracts/CultureIndex.sol\":2593:3119  function getTotalBpsFromCreators(CreatorBps[] memory creatorArray) internal pure returns (uint256) {... */\n    tag_251:\n        /* \"packages/revolution-contracts/CultureIndex.sol\":2683:2690  uint256 */\n      0x00\n        /* \"packages/revolution-contracts/CultureIndex.sol\":2818:2821  100 */\n      0x64\n        /* \"packages/revolution-contracts/CultureIndex.sol\":2795:2807  creatorArray */\n      dup3\n        /* \"packages/revolution-contracts/CultureIndex.sol\":2795:2814  creatorArray.length */\n      mload\n        /* \"packages/revolution-contracts/CultureIndex.sol\":2795:2821  creatorArray.length <= 100 */\n      gt\n      iszero\n        /* \"packages/revolution-contracts/CultureIndex.sol\":2787:2857  require(creatorArray.length <= 100, \"Creator array must not be > 100\") */\n      tag_416\n      jumpi\n      mload(0x40)\n      shl(0xe5, 0x461bcd)\n      dup2\n      mstore\n        /* \"#utility.yul\":21884:21886   */\n      0x20\n        /* \"packages/revolution-contracts/CultureIndex.sol\":2787:2857  require(creatorArray.length <= 100, \"Creator array must not be > 100\") */\n      0x04\n      dup3\n      add\n        /* \"#utility.yul\":21866:21887   */\n      mstore\n        /* \"#utility.yul\":21923:21925   */\n      0x1f\n        /* \"#utility.yul\":21903:21921   */\n      0x24\n      dup3\n      add\n        /* \"#utility.yul\":21896:21926   */\n      mstore\n        /* \"#utility.yul\":21962:21995   */\n      0x43726561746f72206172726179206d757374206e6f74206265203e2031303000\n        /* \"#utility.yul\":21942:21960   */\n      0x44\n      dup3\n      add\n        /* \"#utility.yul\":21935:21996   */\n      mstore\n        /* \"#utility.yul\":22013:22031   */\n      0x64\n      add\n        /* \"packages/revolution-contracts/CultureIndex.sol\":2787:2857  require(creatorArray.length <= 100, \"Creator array must not be > 100\") */\n      tag_191\n        /* \"#utility.yul\":21682:22037   */\n      jump\n        /* \"packages/revolution-contracts/CultureIndex.sol\":2787:2857  require(creatorArray.length <= 100, \"Creator array must not be > 100\") */\n    tag_416:\n        /* \"packages/revolution-contracts/CultureIndex.sol\":2868:2884  uint256 totalBps */\n      0x00\n        /* \"packages/revolution-contracts/CultureIndex.sol\":2903:2909  uint i */\n      dup1\n        /* \"packages/revolution-contracts/CultureIndex.sol\":2898:3088  for (uint i = 0; i < creatorArray.length; i++) {... */\n    tag_419:\n        /* \"packages/revolution-contracts/CultureIndex.sol\":2919:2931  creatorArray */\n      dup4\n        /* \"packages/revolution-contracts/CultureIndex.sol\":2919:2938  creatorArray.length */\n      mload\n        /* \"packages/revolution-contracts/CultureIndex.sol\":2915:2916  i */\n      dup2\n        /* \"packages/revolution-contracts/CultureIndex.sol\":2915:2938  i < creatorArray.length */\n      lt\n        /* \"packages/revolution-contracts/CultureIndex.sol\":2898:3088  for (uint i = 0; i < creatorArray.length; i++) {... */\n      iszero\n      tag_166\n      jumpi\n        /* \"packages/revolution-contracts/CultureIndex.sol\":3002:3003  0 */\n      0x00\n      sub(shl(0xa0, 0x01), 0x01)\n        /* \"packages/revolution-contracts/CultureIndex.sol\":2967:3004  creatorArray[i].creator != address(0) */\n      and\n        /* \"packages/revolution-contracts/CultureIndex.sol\":2967:2979  creatorArray */\n      dup5\n        /* \"packages/revolution-contracts/CultureIndex.sol\":2980:2981  i */\n      dup3\n        /* \"packages/revolution-contracts/CultureIndex.sol\":2967:2982  creatorArray[i] */\n      dup2\n      mload\n      dup2\n      lt\n      tag_423\n      jumpi\n      tag_423\n      tag_123\n      jump\t// in\n    tag_423:\n      0x20\n      mul\n      0x20\n      add\n      add\n      mload\n        /* \"packages/revolution-contracts/CultureIndex.sol\":2967:2990  creatorArray[i].creator */\n      0x00\n      add\n      mload\n      sub(shl(0xa0, 0x01), 0x01)\n        /* \"packages/revolution-contracts/CultureIndex.sol\":2967:3004  creatorArray[i].creator != address(0) */\n      and\n      sub\n        /* \"packages/revolution-contracts/CultureIndex.sol\":2959:3032  require(creatorArray[i].creator != address(0), \"Invalid creator address\") */\n      tag_424\n      jumpi\n      mload(0x40)\n      shl(0xe5, 0x461bcd)\n      dup2\n      mstore\n        /* \"#utility.yul\":22244:22246   */\n      0x20\n        /* \"packages/revolution-contracts/CultureIndex.sol\":2959:3032  require(creatorArray[i].creator != address(0), \"Invalid creator address\") */\n      0x04\n      dup3\n      add\n        /* \"#utility.yul\":22226:22247   */\n      mstore\n        /* \"#utility.yul\":22283:22285   */\n      0x17\n        /* \"#utility.yul\":22263:22281   */\n      0x24\n      dup3\n      add\n        /* \"#utility.yul\":22256:22286   */\n      mstore\n        /* \"#utility.yul\":22322:22347   */\n      0x496e76616c69642063726561746f722061646472657373000000000000000000\n        /* \"#utility.yul\":22302:22320   */\n      0x44\n      dup3\n      add\n        /* \"#utility.yul\":22295:22348   */\n      mstore\n        /* \"#utility.yul\":22365:22383   */\n      0x64\n      add\n        /* \"packages/revolution-contracts/CultureIndex.sol\":2959:3032  require(creatorArray[i].creator != address(0), \"Invalid creator address\") */\n      tag_191\n        /* \"#utility.yul\":22042:22389   */\n      jump\n        /* \"packages/revolution-contracts/CultureIndex.sol\":2959:3032  require(creatorArray[i].creator != address(0), \"Invalid creator address\") */\n    tag_424:\n        /* \"packages/revolution-contracts/CultureIndex.sol\":3058:3070  creatorArray */\n      dup4\n        /* \"packages/revolution-contracts/CultureIndex.sol\":3071:3072  i */\n      dup2\n        /* \"packages/revolution-contracts/CultureIndex.sol\":3058:3073  creatorArray[i] */\n      dup2\n      mload\n      dup2\n      lt\n      tag_428\n      jumpi\n      tag_428\n      tag_123\n      jump\t// in\n    tag_428:\n      0x20\n      mul\n      0x20\n      add\n      add\n      mload\n        /* \"packages/revolution-contracts/CultureIndex.sol\":3058:3077  creatorArray[i].bps */\n      0x20\n      add\n      mload\n        /* \"packages/revolution-contracts/CultureIndex.sol\":3046:3077  totalBps += creatorArray[i].bps */\n      dup3\n      tag_429\n      swap2\n      swap1\n      tag_399\n      jump\t// in\n    tag_429:\n      swap2\n      pop\n        /* \"packages/revolution-contracts/CultureIndex.sol\":2940:2943  i++ */\n      0x01\n      add\n        /* \"packages/revolution-contracts/CultureIndex.sol\":2898:3088  for (uint i = 0; i < creatorArray.length; i++) {... */\n      jump(tag_419)\n        /* \"packages/revolution-contracts/CultureIndex.sol\":1497:2130  function validateMediaType(ArtPieceMetadata memory metadata) internal pure {... */\n    tag_256:\n        /* \"packages/revolution-contracts/CultureIndex.sol\":1618:1619  0 */\n      0x00\n        /* \"packages/revolution-contracts/CultureIndex.sol\":1596:1604  metadata */\n      dup2\n        /* \"packages/revolution-contracts/CultureIndex.sol\":1596:1614  metadata.mediaType */\n      0x40\n      add\n      mload\n        /* \"packages/revolution-contracts/CultureIndex.sol\":1590:1615  uint8(metadata.mediaType) */\n      0x05\n      dup2\n      gt\n      iszero\n      tag_432\n      jumpi\n      tag_432\n      tag_145\n      jump\t// in\n    tag_432:\n        /* \"packages/revolution-contracts/CultureIndex.sol\":1590:1619  uint8(metadata.mediaType) > 0 */\n      0xff\n      and\n      gt\n        /* \"packages/revolution-contracts/CultureIndex.sol\":1590:1653  uint8(metadata.mediaType) > 0 && uint8(metadata.mediaType) <= 5 */\n      dup1\n      iszero\n      tag_433\n      jumpi\n      pop\n        /* \"packages/revolution-contracts/CultureIndex.sol\":1652:1653  5 */\n      0x05\n        /* \"packages/revolution-contracts/CultureIndex.sol\":1629:1637  metadata */\n      dup2\n        /* \"packages/revolution-contracts/CultureIndex.sol\":1629:1647  metadata.mediaType */\n      0x40\n      add\n      mload\n        /* \"packages/revolution-contracts/CultureIndex.sol\":1623:1648  uint8(metadata.mediaType) */\n      0x05\n      dup2\n      gt\n      iszero\n      tag_435\n      jumpi\n      tag_435\n      tag_145\n      jump\t// in\n    tag_435:\n        /* \"packages/revolution-contracts/CultureIndex.sol\":1623:1653  uint8(metadata.mediaType) <= 5 */\n      0xff\n      and\n      gt\n      iszero\n        /* \"packages/revolution-contracts/CultureIndex.sol\":1590:1653  uint8(metadata.mediaType) > 0 && uint8(metadata.mediaType) <= 5 */\n    tag_433:\n        /* \"packages/revolution-contracts/CultureIndex.sol\":1582:1676  require(uint8(metadata.mediaType) > 0 && uint8(metadata.mediaType) <= 5, \"Invalid media type\") */\n      tag_436\n      jumpi\n      mload(0x40)\n      shl(0xe5, 0x461bcd)\n      dup2\n      mstore\n        /* \"#utility.yul\":22596:22598   */\n      0x20\n        /* \"packages/revolution-contracts/CultureIndex.sol\":1582:1676  require(uint8(metadata.mediaType) > 0 && uint8(metadata.mediaType) <= 5, \"Invalid media type\") */\n      0x04\n      dup3\n      add\n        /* \"#utility.yul\":22578:22599   */\n      mstore\n        /* \"#utility.yul\":22635:22637   */\n      0x12\n        /* \"#utility.yul\":22615:22633   */\n      0x24\n      dup3\n      add\n        /* \"#utility.yul\":22608:22638   */\n      mstore\n      shl(0x70, 0x496e76616c6964206d656469612074797065)\n        /* \"#utility.yul\":22654:22672   */\n      0x44\n      dup3\n      add\n        /* \"#utility.yul\":22647:22695   */\n      mstore\n        /* \"#utility.yul\":22712:22730   */\n      0x64\n      add\n        /* \"packages/revolution-contracts/CultureIndex.sol\":1582:1676  require(uint8(metadata.mediaType) > 0 && uint8(metadata.mediaType) <= 5, \"Invalid media type\") */\n      tag_191\n        /* \"#utility.yul\":22394:22736   */\n      jump\n        /* \"packages/revolution-contracts/CultureIndex.sol\":1582:1676  require(uint8(metadata.mediaType) > 0 && uint8(metadata.mediaType) <= 5, \"Invalid media type\") */\n    tag_436:\n        /* \"packages/revolution-contracts/CultureIndex.sol\":1713:1728  MediaType.IMAGE */\n      0x01\n        /* \"packages/revolution-contracts/CultureIndex.sol\":1691:1699  metadata */\n      dup2\n        /* \"packages/revolution-contracts/CultureIndex.sol\":1691:1709  metadata.mediaType */\n      0x40\n      add\n      mload\n        /* \"packages/revolution-contracts/CultureIndex.sol\":1691:1728  metadata.mediaType == MediaType.IMAGE */\n      0x05\n      dup2\n      gt\n      iszero\n      tag_442\n      jumpi\n      tag_442\n      tag_145\n      jump\t// in\n    tag_442:\n      sub\n        /* \"packages/revolution-contracts/CultureIndex.sol\":1687:2124  if (metadata.mediaType == MediaType.IMAGE) {... */\n      tag_443\n      jumpi\n        /* \"packages/revolution-contracts/CultureIndex.sol\":1783:1784  0 */\n      0x00\n        /* \"packages/revolution-contracts/CultureIndex.sol\":1758:1766  metadata */\n      dup2\n        /* \"packages/revolution-contracts/CultureIndex.sol\":1758:1772  metadata.image */\n      0x60\n      add\n      mload\n        /* \"packages/revolution-contracts/CultureIndex.sol\":1752:1780  bytes(metadata.image).length */\n      mload\n        /* \"packages/revolution-contracts/CultureIndex.sol\":1752:1784  bytes(metadata.image).length > 0 */\n      gt\n        /* \"packages/revolution-contracts/CultureIndex.sol\":1744:1815  require(bytes(metadata.image).length > 0, \"Image URL must be provided\") */\n      tag_110\n      jumpi\n      mload(0x40)\n      shl(0xe5, 0x461bcd)\n      dup2\n      mstore\n        /* \"#utility.yul\":22943:22945   */\n      0x20\n        /* \"packages/revolution-contracts/CultureIndex.sol\":1744:1815  require(bytes(metadata.image).length > 0, \"Image URL must be provided\") */\n      0x04\n      dup3\n      add\n        /* \"#utility.yul\":22925:22946   */\n      mstore\n        /* \"#utility.yul\":22982:22984   */\n      0x1a\n        /* \"#utility.yul\":22962:22980   */\n      0x24\n      dup3\n      add\n        /* \"#utility.yul\":22955:22985   */\n      mstore\n        /* \"#utility.yul\":23021:23049   */\n      0x496d6167652055524c206d7573742062652070726f7669646564000000000000\n        /* \"#utility.yul\":23001:23019   */\n      0x44\n      dup3\n      add\n        /* \"#utility.yul\":22994:23050   */\n      mstore\n        /* \"#utility.yul\":23067:23085   */\n      0x64\n      add\n        /* \"packages/revolution-contracts/CultureIndex.sol\":1744:1815  require(bytes(metadata.image).length > 0, \"Image URL must be provided\") */\n      tag_191\n        /* \"#utility.yul\":22741:23091   */\n      jump\n        /* \"packages/revolution-contracts/CultureIndex.sol\":1687:2124  if (metadata.mediaType == MediaType.IMAGE) {... */\n    tag_443:\n        /* \"packages/revolution-contracts/CultureIndex.sol\":1858:1877  MediaType.ANIMATION */\n      0x02\n        /* \"packages/revolution-contracts/CultureIndex.sol\":1836:1844  metadata */\n      dup2\n        /* \"packages/revolution-contracts/CultureIndex.sol\":1836:1854  metadata.mediaType */\n      0x40\n      add\n      mload\n        /* \"packages/revolution-contracts/CultureIndex.sol\":1836:1877  metadata.mediaType == MediaType.ANIMATION */\n      0x05\n      dup2\n      gt\n      iszero\n      tag_451\n      jumpi\n      tag_451\n      tag_145\n      jump\t// in\n    tag_451:\n      sub\n        /* \"packages/revolution-contracts/CultureIndex.sol\":1832:2124  if (metadata.mediaType == MediaType.ANIMATION) {... */\n      tag_452\n      jumpi\n        /* \"packages/revolution-contracts/CultureIndex.sol\":1939:1940  0 */\n      0x00\n        /* \"packages/revolution-contracts/CultureIndex.sol\":1907:1915  metadata */\n      dup2\n        /* \"packages/revolution-contracts/CultureIndex.sol\":1907:1928  metadata.animationUrl */\n      0xa0\n      add\n      mload\n        /* \"packages/revolution-contracts/CultureIndex.sol\":1901:1936  bytes(metadata.animationUrl).length */\n      mload\n        /* \"packages/revolution-contracts/CultureIndex.sol\":1901:1940  bytes(metadata.animationUrl).length > 0 */\n      gt\n        /* \"packages/revolution-contracts/CultureIndex.sol\":1893:1975  require(bytes(metadata.animationUrl).length > 0, \"Animation URL must be provided\") */\n      tag_110\n      jumpi\n      mload(0x40)\n      shl(0xe5, 0x461bcd)\n      dup2\n      mstore\n        /* \"#utility.yul\":23298:23300   */\n      0x20\n        /* \"packages/revolution-contracts/CultureIndex.sol\":1893:1975  require(bytes(metadata.animationUrl).length > 0, \"Animation URL must be provided\") */\n      0x04\n      dup3\n      add\n        /* \"#utility.yul\":23280:23301   */\n      mstore\n        /* \"#utility.yul\":23337:23339   */\n      0x1e\n        /* \"#utility.yul\":23317:23335   */\n      0x24\n      dup3\n      add\n        /* \"#utility.yul\":23310:23340   */\n      mstore\n        /* \"#utility.yul\":23376:23408   */\n      0x416e696d6174696f6e2055524c206d7573742062652070726f76696465640000\n        /* \"#utility.yul\":23356:23374   */\n      0x44\n      dup3\n      add\n        /* \"#utility.yul\":23349:23409   */\n      mstore\n        /* \"#utility.yul\":23426:23444   */\n      0x64\n      add\n        /* \"packages/revolution-contracts/CultureIndex.sol\":1893:1975  require(bytes(metadata.animationUrl).length > 0, \"Animation URL must be provided\") */\n      tag_191\n        /* \"#utility.yul\":23096:23450   */\n      jump\n        /* \"packages/revolution-contracts/CultureIndex.sol\":1832:2124  if (metadata.mediaType == MediaType.ANIMATION) {... */\n    tag_452:\n        /* \"packages/revolution-contracts/CultureIndex.sol\":2018:2032  MediaType.TEXT */\n      0x04\n        /* \"packages/revolution-contracts/CultureIndex.sol\":1996:2004  metadata */\n      dup2\n        /* \"packages/revolution-contracts/CultureIndex.sol\":1996:2014  metadata.mediaType */\n      0x40\n      add\n      mload\n        /* \"packages/revolution-contracts/CultureIndex.sol\":1996:2032  metadata.mediaType == MediaType.TEXT */\n      0x05\n      dup2\n      gt\n      iszero\n      tag_460\n      jumpi\n      tag_460\n      tag_145\n      jump\t// in\n    tag_460:\n      sub\n        /* \"packages/revolution-contracts/CultureIndex.sol\":1992:2124  if (metadata.mediaType == MediaType.TEXT) {... */\n      tag_110\n      jumpi\n        /* \"packages/revolution-contracts/CultureIndex.sol\":2086:2087  0 */\n      0x00\n        /* \"packages/revolution-contracts/CultureIndex.sol\":2062:2070  metadata */\n      dup2\n        /* \"packages/revolution-contracts/CultureIndex.sol\":2062:2075  metadata.text */\n      0x80\n      add\n      mload\n        /* \"packages/revolution-contracts/CultureIndex.sol\":2056:2083  bytes(metadata.text).length */\n      mload\n        /* \"packages/revolution-contracts/CultureIndex.sol\":2056:2087  bytes(metadata.text).length > 0 */\n      gt\n        /* \"packages/revolution-contracts/CultureIndex.sol\":2048:2113  require(bytes(metadata.text).length > 0, \"Text must be provided\") */\n      tag_110\n      jumpi\n      mload(0x40)\n      shl(0xe5, 0x461bcd)\n      dup2\n      mstore\n        /* \"#utility.yul\":23657:23659   */\n      0x20\n        /* \"packages/revolution-contracts/CultureIndex.sol\":2048:2113  require(bytes(metadata.text).length > 0, \"Text must be provided\") */\n      0x04\n      dup3\n      add\n        /* \"#utility.yul\":23639:23660   */\n      mstore\n        /* \"#utility.yul\":23696:23698   */\n      0x15\n        /* \"#utility.yul\":23676:23694   */\n      0x24\n      dup3\n      add\n        /* \"#utility.yul\":23669:23699   */\n      mstore\n      shl(0x5a, 0x15195e1d081b5d5cdd081899481c1c9bdd9a591959)\n        /* \"#utility.yul\":23715:23733   */\n      0x44\n      dup3\n      add\n        /* \"#utility.yul\":23708:23759   */\n      mstore\n        /* \"#utility.yul\":23776:23794   */\n      0x64\n      add\n        /* \"packages/revolution-contracts/CultureIndex.sol\":2048:2113  require(bytes(metadata.text).length > 0, \"Text must be provided\") */\n      tag_191\n        /* \"#utility.yul\":23455:23800   */\n      jump\n    tag_169:\n      mload(0x40)\n      dup1\n      0xa0\n      add\n      0x40\n      mstore\n      dup1\n      0x00\n      dup2\n      mstore\n      0x20\n      add\n      tag_466\n      0x40\n      dup1\n      mload\n      0xc0\n      dup2\n      add\n      dup3\n      mstore\n      0x60\n      dup1\n      dup3\n      mstore\n      0x20\n      dup3\n      add\n      mstore\n      swap1\n      dup2\n      add\n      0x00\n      dup2\n      mstore\n      0x20\n      add\n      0x60\n      dup2\n      mstore\n      0x20\n      add\n      0x60\n      dup2\n      mstore\n      0x20\n      add\n      0x60\n      dup2\n      mstore\n      pop\n      swap1\n      jump\n    tag_466:\n      dup2\n      mstore\n      0x60\n      0x20\n      dup3\n      add\n      dup2\n      swap1\n      mstore\n      0x00\n      0x40\n      dup4\n      add\n      dup2\n      swap1\n      mstore\n      swap2\n      add\n      mstore\n      swap1\n      jump\t// out\n        /* \"#utility.yul\":14:194   */\n    tag_27:\n        /* \"#utility.yul\":73:79   */\n      0x00\n        /* \"#utility.yul\":126:128   */\n      0x20\n        /* \"#utility.yul\":114:123   */\n      dup3\n        /* \"#utility.yul\":105:112   */\n      dup5\n        /* \"#utility.yul\":101:124   */\n      sub\n        /* \"#utility.yul\":97:129   */\n      slt\n        /* \"#utility.yul\":94:146   */\n      iszero\n      tag_491\n      jumpi\n        /* \"#utility.yul\":142:143   */\n      0x00\n        /* \"#utility.yul\":139:140   */\n      dup1\n        /* \"#utility.yul\":132:144   */\n      revert\n        /* \"#utility.yul\":94:146   */\n    tag_491:\n      pop\n        /* \"#utility.yul\":165:188   */\n      calldataload\n      swap2\n        /* \"#utility.yul\":14:194   */\n      swap1\n      pop\n      jump\t// out\n        /* \"#utility.yul\":605:778   */\n    tag_470:\n        /* \"#utility.yul\":673:693   */\n      dup1\n      calldataload\n      sub(shl(0xa0, 0x01), 0x01)\n        /* \"#utility.yul\":722:753   */\n      dup2\n      and\n        /* \"#utility.yul\":712:754   */\n      dup2\n      eq\n        /* \"#utility.yul\":702:772   */\n      tag_304\n      jumpi\n        /* \"#utility.yul\":768:769   */\n      0x00\n        /* \"#utility.yul\":765:766   */\n      dup1\n        /* \"#utility.yul\":758:770   */\n      revert\n        /* \"#utility.yul\":783:1037   */\n    tag_40:\n        /* \"#utility.yul\":851:857   */\n      0x00\n        /* \"#utility.yul\":859:865   */\n      dup1\n        /* \"#utility.yul\":912:914   */\n      0x40\n        /* \"#utility.yul\":900:909   */\n      dup4\n        /* \"#utility.yul\":891:898   */\n      dup6\n        /* \"#utility.yul\":887:910   */\n      sub\n        /* \"#utility.yul\":883:915   */\n      slt\n        /* \"#utility.yul\":880:932   */\n      iszero\n      tag_497\n      jumpi\n        /* \"#utility.yul\":928:929   */\n      0x00\n        /* \"#utility.yul\":925:926   */\n      dup1\n        /* \"#utility.yul\":918:930   */\n      revert\n        /* \"#utility.yul\":880:932   */\n    tag_497:\n        /* \"#utility.yul\":964:973   */\n      dup3\n        /* \"#utility.yul\":951:974   */\n      calldataload\n        /* \"#utility.yul\":941:974   */\n      swap2\n      pop\n        /* \"#utility.yul\":993:1031   */\n      tag_498\n        /* \"#utility.yul\":1027:1029   */\n      0x20\n        /* \"#utility.yul\":1016:1025   */\n      dup5\n        /* \"#utility.yul\":1012:1030   */\n      add\n        /* \"#utility.yul\":993:1031   */\n      tag_470\n      jump\t// in\n    tag_498:\n        /* \"#utility.yul\":983:1031   */\n      swap1\n      pop\n        /* \"#utility.yul\":783:1037   */\n      swap3\n      pop\n      swap3\n      swap1\n      pop\n      jump\t// out\n        /* \"#utility.yul\":1330:1457   */\n    tag_472:\n        /* \"#utility.yul\":1391:1401   */\n      0x4e487b71\n        /* \"#utility.yul\":1386:1389   */\n      0xe0\n        /* \"#utility.yul\":1382:1402   */\n      shl\n        /* \"#utility.yul\":1379:1380   */\n      0x00\n        /* \"#utility.yul\":1372:1403   */\n      mstore\n        /* \"#utility.yul\":1422:1426   */\n      0x41\n        /* \"#utility.yul\":1419:1420   */\n      0x04\n        /* \"#utility.yul\":1412:1427   */\n      mstore\n        /* \"#utility.yul\":1446:1450   */\n      0x24\n        /* \"#utility.yul\":1443:1444   */\n      0x00\n        /* \"#utility.yul\":1436:1451   */\n      revert\n        /* \"#utility.yul\":1462:1685   */\n    tag_473:\n        /* \"#utility.yul\":1548:1550   */\n      0x40\n        /* \"#utility.yul\":1540:1546   */\n      dup2\n        /* \"#utility.yul\":1536:1551   */\n      add\n        /* \"#utility.yul\":1617:1623   */\n      dup2\n        /* \"#utility.yul\":1605:1615   */\n      dup2\n        /* \"#utility.yul\":1602:1624   */\n      lt\n        /* \"#utility.yul\":1581:1599   */\n      0xffffffffffffffff\n        /* \"#utility.yul\":1569:1579   */\n      dup3\n        /* \"#utility.yul\":1566:1600   */\n      gt\n        /* \"#utility.yul\":1563:1625   */\n      or\n        /* \"#utility.yul\":1560:1648   */\n      iszero\n      tag_504\n      jumpi\n        /* \"#utility.yul\":1628:1646   */\n      tag_504\n      tag_472\n      jump\t// in\n    tag_504:\n        /* \"#utility.yul\":1664:1666   */\n      0x40\n        /* \"#utility.yul\":1657:1679   */\n      mstore\n      pop\n        /* \"#utility.yul\":1462:1685   */\n      jump\t// out\n        /* \"#utility.yul\":1690:1939   */\n    tag_474:\n        /* \"#utility.yul\":1800:1802   */\n      0x1f\n        /* \"#utility.yul\":1781:1794   */\n      dup3\n      add\n      not(0x1f)\n        /* \"#utility.yul\":1777:1804   */\n      and\n        /* \"#utility.yul\":1765:1805   */\n      dup2\n      add\n        /* \"#utility.yul\":1835:1853   */\n      0xffffffffffffffff\n        /* \"#utility.yul\":1820:1854   */\n      dup2\n      gt\n        /* \"#utility.yul\":1856:1878   */\n      dup3\n      dup3\n      lt\n        /* \"#utility.yul\":1817:1879   */\n      or\n        /* \"#utility.yul\":1814:1902   */\n      iszero\n      tag_507\n      jumpi\n        /* \"#utility.yul\":1882:1900   */\n      tag_507\n      tag_472\n      jump\t// in\n    tag_507:\n        /* \"#utility.yul\":1918:1920   */\n      0x40\n        /* \"#utility.yul\":1911:1933   */\n      mstore\n      pop\n      pop\n        /* \"#utility.yul\":1690:1939   */\n      jump\t// out\n        /* \"#utility.yul\":1944:2192   */\n    tag_475:\n        /* \"#utility.yul\":2011:2013   */\n      0x40\n        /* \"#utility.yul\":2005:2014   */\n      mload\n        /* \"#utility.yul\":2053:2057   */\n      0xc0\n        /* \"#utility.yul\":2041:2058   */\n      dup2\n      add\n        /* \"#utility.yul\":2088:2106   */\n      0xffffffffffffffff\n        /* \"#utility.yul\":2073:2107   */\n      dup2\n      gt\n        /* \"#utility.yul\":2109:2131   */\n      dup3\n      dup3\n      lt\n        /* \"#utility.yul\":2070:2132   */\n      or\n        /* \"#utility.yul\":2067:2155   */\n      iszero\n      tag_510\n      jumpi\n        /* \"#utility.yul\":2135:2153   */\n      tag_510\n      tag_472\n      jump\t// in\n    tag_510:\n        /* \"#utility.yul\":2171:2173   */\n      0x40\n        /* \"#utility.yul\":2164:2186   */\n      mstore\n        /* \"#utility.yul\":1944:2192   */\n      swap1\n      jump\t// out\n        /* \"#utility.yul\":2197:2380   */\n    tag_476:\n        /* \"#utility.yul\":2257:2261   */\n      0x00\n        /* \"#utility.yul\":2290:2308   */\n      0xffffffffffffffff\n        /* \"#utility.yul\":2282:2288   */\n      dup3\n        /* \"#utility.yul\":2279:2309   */\n      gt\n        /* \"#utility.yul\":2276:2332   */\n      iszero\n      tag_513\n      jumpi\n        /* \"#utility.yul\":2312:2330   */\n      tag_513\n      tag_472\n      jump\t// in\n    tag_513:\n      pop\n        /* \"#utility.yul\":2357:2358   */\n      0x05\n        /* \"#utility.yul\":2353:2367   */\n      shl\n        /* \"#utility.yul\":2369:2373   */\n      0x20\n        /* \"#utility.yul\":2349:2374   */\n      add\n      swap1\n        /* \"#utility.yul\":2197:2380   */\n      jump\t// out\n        /* \"#utility.yul\":2385:3338   */\n    tag_49:\n        /* \"#utility.yul\":2469:2475   */\n      0x00\n        /* \"#utility.yul\":2500:2502   */\n      0x20\n        /* \"#utility.yul\":2543:2545   */\n      dup1\n        /* \"#utility.yul\":2531:2540   */\n      dup4\n        /* \"#utility.yul\":2522:2529   */\n      dup6\n        /* \"#utility.yul\":2518:2541   */\n      sub\n        /* \"#utility.yul\":2514:2546   */\n      slt\n        /* \"#utility.yul\":2511:2563   */\n      iszero\n      tag_515\n      jumpi\n        /* \"#utility.yul\":2559:2560   */\n      0x00\n        /* \"#utility.yul\":2556:2557   */\n      dup1\n        /* \"#utility.yul\":2549:2561   */\n      revert\n        /* \"#utility.yul\":2511:2563   */\n    tag_515:\n        /* \"#utility.yul\":2599:2608   */\n      dup3\n        /* \"#utility.yul\":2586:2609   */\n      calldataload\n        /* \"#utility.yul\":2632:2650   */\n      0xffffffffffffffff\n        /* \"#utility.yul\":2624:2630   */\n      dup2\n        /* \"#utility.yul\":2621:2651   */\n      gt\n        /* \"#utility.yul\":2618:2668   */\n      iszero\n      tag_516\n      jumpi\n        /* \"#utility.yul\":2664:2665   */\n      0x00\n        /* \"#utility.yul\":2661:2662   */\n      dup1\n        /* \"#utility.yul\":2654:2666   */\n      revert\n        /* \"#utility.yul\":2618:2668   */\n    tag_516:\n        /* \"#utility.yul\":2687:2709   */\n      dup4\n      add\n        /* \"#utility.yul\":2740:2744   */\n      0x1f\n        /* \"#utility.yul\":2732:2745   */\n      dup2\n      add\n        /* \"#utility.yul\":2728:2755   */\n      dup6\n      sgt\n        /* \"#utility.yul\":2718:2773   */\n      tag_517\n      jumpi\n        /* \"#utility.yul\":2769:2770   */\n      0x00\n        /* \"#utility.yul\":2766:2767   */\n      dup1\n        /* \"#utility.yul\":2759:2771   */\n      revert\n        /* \"#utility.yul\":2718:2773   */\n    tag_517:\n        /* \"#utility.yul\":2805:2807   */\n      dup1\n        /* \"#utility.yul\":2792:2808   */\n      calldataload\n        /* \"#utility.yul\":2827:2870   */\n      tag_518\n        /* \"#utility.yul\":2867:2869   */\n      dup2\n        /* \"#utility.yul\":2827:2870   */\n      tag_476\n      jump\t// in\n    tag_518:\n        /* \"#utility.yul\":2899:2901   */\n      0x40\n        /* \"#utility.yul\":2893:2902   */\n      mload\n        /* \"#utility.yul\":2911:2942   */\n      tag_519\n        /* \"#utility.yul\":2939:2941   */\n      dup3\n        /* \"#utility.yul\":2931:2937   */\n      dup3\n        /* \"#utility.yul\":2911:2942   */\n      tag_474\n      jump\t// in\n    tag_519:\n        /* \"#utility.yul\":2977:2995   */\n      dup3\n      dup2\n      mstore\n        /* \"#utility.yul\":3065:3066   */\n      0x05\n        /* \"#utility.yul\":3061:3071   */\n      swap3\n      swap1\n      swap3\n      shl\n        /* \"#utility.yul\":3053:3072   */\n      dup4\n      add\n        /* \"#utility.yul\":3049:3077   */\n      dup5\n      add\n      swap2\n        /* \"#utility.yul\":3011:3026   */\n      dup5\n      dup2\n      add\n      swap2\n      pop\n        /* \"#utility.yul\":3089:3108   */\n      dup8\n      dup4\n      gt\n        /* \"#utility.yul\":3086:3125   */\n      iszero\n      tag_520\n      jumpi\n        /* \"#utility.yul\":3121:3122   */\n      0x00\n        /* \"#utility.yul\":3118:3119   */\n      dup1\n        /* \"#utility.yul\":3111:3123   */\n      revert\n        /* \"#utility.yul\":3086:3125   */\n    tag_520:\n        /* \"#utility.yul\":3145:3156   */\n      swap3\n      dup5\n      add\n      swap3\n        /* \"#utility.yul\":3165:3307   */\n    tag_521:\n        /* \"#utility.yul\":3181:3187   */\n      dup3\n        /* \"#utility.yul\":3176:3179   */\n      dup5\n        /* \"#utility.yul\":3173:3188   */\n      lt\n        /* \"#utility.yul\":3165:3307   */\n      iszero\n      tag_523\n      jumpi\n        /* \"#utility.yul\":3247:3264   */\n      dup4\n      calldataload\n        /* \"#utility.yul\":3235:3265   */\n      dup3\n      mstore\n        /* \"#utility.yul\":3198:3210   */\n      swap3\n      dup5\n      add\n      swap3\n        /* \"#utility.yul\":3285:3297   */\n      swap1\n      dup5\n      add\n      swap1\n        /* \"#utility.yul\":3165:3307   */\n      jump(tag_521)\n    tag_523:\n        /* \"#utility.yul\":3326:3332   */\n      swap8\n        /* \"#utility.yul\":2385:3338   */\n      swap7\n      pop\n      pop\n      pop\n      pop\n      pop\n      pop\n      pop\n      jump\t// out\n        /* \"#utility.yul\":3660:3910   */\n    tag_478:\n        /* \"#utility.yul\":3745:3746   */\n      0x00\n        /* \"#utility.yul\":3755:3868   */\n    tag_527:\n        /* \"#utility.yul\":3769:3775   */\n      dup4\n        /* \"#utility.yul\":3766:3767   */\n      dup2\n        /* \"#utility.yul\":3763:3776   */\n      lt\n        /* \"#utility.yul\":3755:3868   */\n      iszero\n      tag_529\n      jumpi\n        /* \"#utility.yul\":3845:3856   */\n      dup2\n      dup2\n      add\n        /* \"#utility.yul\":3839:3857   */\n      mload\n        /* \"#utility.yul\":3826:3837   */\n      dup4\n      dup3\n      add\n        /* \"#utility.yul\":3819:3858   */\n      mstore\n        /* \"#utility.yul\":3791:3793   */\n      0x20\n        /* \"#utility.yul\":3784:3794   */\n      add\n        /* \"#utility.yul\":3755:3868   */\n      jump(tag_527)\n    tag_529:\n      pop\n      pop\n        /* \"#utility.yul\":3902:3903   */\n      0x00\n        /* \"#utility.yul\":3884:3900   */\n      swap2\n      add\n        /* \"#utility.yul\":3877:3904   */\n      mstore\n        /* \"#utility.yul\":3660:3910   */\n      jump\t// out\n        /* \"#utility.yul\":3915:4186   */\n    tag_479:\n        /* \"#utility.yul\":3957:3960   */\n      0x00\n        /* \"#utility.yul\":3995:4000   */\n      dup2\n        /* \"#utility.yul\":3989:4001   */\n      mload\n        /* \"#utility.yul\":4022:4028   */\n      dup1\n        /* \"#utility.yul\":4017:4020   */\n      dup5\n        /* \"#utility.yul\":4010:4029   */\n      mstore\n        /* \"#utility.yul\":4038:4114   */\n      tag_531\n        /* \"#utility.yul\":4107:4113   */\n      dup2\n        /* \"#utility.yul\":4100:4104   */\n      0x20\n        /* \"#utility.yul\":4095:4098   */\n      dup7\n        /* \"#utility.yul\":4091:4105   */\n      add\n        /* \"#utility.yul\":4084:4088   */\n      0x20\n        /* \"#utility.yul\":4077:4082   */\n      dup7\n        /* \"#utility.yul\":4073:4089   */\n      add\n        /* \"#utility.yul\":4038:4114   */\n      tag_478\n      jump\t// in\n    tag_531:\n        /* \"#utility.yul\":4168:4170   */\n      0x1f\n        /* \"#utility.yul\":4147:4162   */\n      add\n      not(0x1f)\n        /* \"#utility.yul\":4143:4172   */\n      and\n        /* \"#utility.yul\":4134:4173   */\n      swap3\n      swap1\n      swap3\n      add\n        /* \"#utility.yul\":4175:4179   */\n      0x20\n        /* \"#utility.yul\":4130:4180   */\n      add\n      swap3\n        /* \"#utility.yul\":3915:4186   */\n      swap2\n      pop\n      pop\n      jump\t// out\n        /* \"#utility.yul\":4191:4318   */\n    tag_145:\n        /* \"#utility.yul\":4252:4262   */\n      0x4e487b71\n        /* \"#utility.yul\":4247:4250   */\n      0xe0\n        /* \"#utility.yul\":4243:4263   */\n      shl\n        /* \"#utility.yul\":4240:4241   */\n      0x00\n        /* \"#utility.yul\":4233:4264   */\n      mstore\n        /* \"#utility.yul\":4283:4287   */\n      0x21\n        /* \"#utility.yul\":4280:4281   */\n      0x04\n        /* \"#utility.yul\":4273:4288   */\n      mstore\n        /* \"#utility.yul\":4307:4311   */\n      0x24\n        /* \"#utility.yul\":4304:4305   */\n      0x00\n        /* \"#utility.yul\":4297:4312   */\n      revert\n        /* \"#utility.yul\":4323:5451   */\n    tag_480:\n        /* \"#utility.yul\":4382:4385   */\n      0x00\n        /* \"#utility.yul\":4426:4431   */\n      dup2\n        /* \"#utility.yul\":4420:4432   */\n      mload\n        /* \"#utility.yul\":4453:4457   */\n      0xc0\n        /* \"#utility.yul\":4448:4451   */\n      dup5\n        /* \"#utility.yul\":4441:4458   */\n      mstore\n        /* \"#utility.yul\":4479:4526   */\n      tag_534\n        /* \"#utility.yul\":4520:4524   */\n      0xc0\n        /* \"#utility.yul\":4515:4518   */\n      dup6\n        /* \"#utility.yul\":4511:4525   */\n      add\n        /* \"#utility.yul\":4497:4509   */\n      dup3\n        /* \"#utility.yul\":4479:4526   */\n      tag_479\n      jump\t// in\n    tag_534:\n        /* \"#utility.yul\":4467:4526   */\n      swap1\n      pop\n        /* \"#utility.yul\":4574:4578   */\n      0x20\n        /* \"#utility.yul\":4567:4572   */\n      dup4\n        /* \"#utility.yul\":4563:4579   */\n      add\n        /* \"#utility.yul\":4557:4580   */\n      mload\n        /* \"#utility.yul\":4622:4625   */\n      dup5\n        /* \"#utility.yul\":4616:4620   */\n      dup3\n        /* \"#utility.yul\":4612:4626   */\n      sub\n        /* \"#utility.yul\":4605:4609   */\n      0x20\n        /* \"#utility.yul\":4600:4603   */\n      dup7\n        /* \"#utility.yul\":4596:4610   */\n      add\n        /* \"#utility.yul\":4589:4627   */\n      mstore\n        /* \"#utility.yul\":4650:4689   */\n      tag_535\n        /* \"#utility.yul\":4684:4688   */\n      dup3\n        /* \"#utility.yul\":4668:4682   */\n      dup3\n        /* \"#utility.yul\":4650:4689   */\n      tag_479\n      jump\t// in\n    tag_535:\n        /* \"#utility.yul\":4636:4689   */\n      swap2\n      pop\n      pop\n        /* \"#utility.yul\":4737:4741   */\n      0x40\n        /* \"#utility.yul\":4730:4735   */\n      dup4\n        /* \"#utility.yul\":4726:4742   */\n      add\n        /* \"#utility.yul\":4720:4743   */\n      mload\n        /* \"#utility.yul\":4781:4782   */\n      0x06\n        /* \"#utility.yul\":4765:4779   */\n      dup2\n        /* \"#utility.yul\":4762:4783   */\n      lt\n        /* \"#utility.yul\":4752:4904   */\n      tag_536\n      jumpi\n        /* \"#utility.yul\":4826:4836   */\n      0x4e487b71\n        /* \"#utility.yul\":4821:4824   */\n      0xe0\n        /* \"#utility.yul\":4817:4837   */\n      shl\n        /* \"#utility.yul\":4814:4815   */\n      0x00\n        /* \"#utility.yul\":4807:4838   */\n      mstore\n        /* \"#utility.yul\":4861:4865   */\n      0x21\n        /* \"#utility.yul\":4858:4859   */\n      0x04\n        /* \"#utility.yul\":4851:4866   */\n      mstore\n        /* \"#utility.yul\":4889:4893   */\n      0x24\n        /* \"#utility.yul\":4886:4887   */\n      0x00\n        /* \"#utility.yul\":4879:4894   */\n      revert\n        /* \"#utility.yul\":4752:4904   */\n    tag_536:\n        /* \"#utility.yul\":4936:4950   */\n      dup1\n        /* \"#utility.yul\":4929:4933   */\n      0x40\n        /* \"#utility.yul\":4924:4927   */\n      dup7\n        /* \"#utility.yul\":4920:4934   */\n      add\n        /* \"#utility.yul\":4913:4951   */\n      mstore\n      pop\n        /* \"#utility.yul\":4999:5003   */\n      0x60\n        /* \"#utility.yul\":4992:4997   */\n      dup4\n        /* \"#utility.yul\":4988:5004   */\n      add\n        /* \"#utility.yul\":4982:5005   */\n      mload\n        /* \"#utility.yul\":5049:5052   */\n      dup5\n        /* \"#utility.yul\":5041:5047   */\n      dup3\n        /* \"#utility.yul\":5037:5053   */\n      sub\n        /* \"#utility.yul\":5030:5034   */\n      0x60\n        /* \"#utility.yul\":5025:5028   */\n      dup7\n        /* \"#utility.yul\":5021:5035   */\n      add\n        /* \"#utility.yul\":5014:5054   */\n      mstore\n        /* \"#utility.yul\":5077:5118   */\n      tag_537\n        /* \"#utility.yul\":5111:5117   */\n      dup3\n        /* \"#utility.yul\":5095:5109   */\n      dup3\n        /* \"#utility.yul\":5077:5118   */\n      tag_479\n      jump\t// in\n    tag_537:\n        /* \"#utility.yul\":5063:5118   */\n      swap2\n      pop\n      pop\n        /* \"#utility.yul\":5166:5170   */\n      0x80\n        /* \"#utility.yul\":5159:5164   */\n      dup4\n        /* \"#utility.yul\":5155:5171   */\n      add\n        /* \"#utility.yul\":5149:5172   */\n      mload\n        /* \"#utility.yul\":5216:5219   */\n      dup5\n        /* \"#utility.yul\":5208:5214   */\n      dup3\n        /* \"#utility.yul\":5204:5220   */\n      sub\n        /* \"#utility.yul\":5197:5201   */\n      0x80\n        /* \"#utility.yul\":5192:5195   */\n      dup7\n        /* \"#utility.yul\":5188:5202   */\n      add\n        /* \"#utility.yul\":5181:5221   */\n      mstore\n        /* \"#utility.yul\":5244:5285   */\n      tag_538\n        /* \"#utility.yul\":5278:5284   */\n      dup3\n        /* \"#utility.yul\":5262:5276   */\n      dup3\n        /* \"#utility.yul\":5244:5285   */\n      tag_479\n      jump\t// in\n    tag_538:\n        /* \"#utility.yul\":5230:5285   */\n      swap2\n      pop\n      pop\n        /* \"#utility.yul\":5333:5337   */\n      0xa0\n        /* \"#utility.yul\":5326:5331   */\n      dup4\n        /* \"#utility.yul\":5322:5338   */\n      add\n        /* \"#utility.yul\":5316:5339   */\n      mload\n        /* \"#utility.yul\":5383:5386   */\n      dup5\n        /* \"#utility.yul\":5375:5381   */\n      dup3\n        /* \"#utility.yul\":5371:5387   */\n      sub\n        /* \"#utility.yul\":5364:5368   */\n      0xa0\n        /* \"#utility.yul\":5359:5362   */\n      dup7\n        /* \"#utility.yul\":5355:5369   */\n      add\n        /* \"#utility.yul\":5348:5388   */\n      mstore\n        /* \"#utility.yul\":5404:5445   */\n      tag_539\n        /* \"#utility.yul\":5438:5444   */\n      dup3\n        /* \"#utility.yul\":5422:5436   */\n      dup3\n        /* \"#utility.yul\":5404:5445   */\n      tag_479\n      jump\t// in\n    tag_539:\n        /* \"#utility.yul\":5397:5445   */\n      swap6\n        /* \"#utility.yul\":4323:5451   */\n      swap5\n      pop\n      pop\n      pop\n      pop\n      pop\n      jump\t// out\n        /* \"#utility.yul\":5456:5992   */\n    tag_61:\n        /* \"#utility.yul\":5731:5737   */\n      dup5\n        /* \"#utility.yul\":5720:5729   */\n      dup2\n        /* \"#utility.yul\":5713:5738   */\n      mstore\n        /* \"#utility.yul\":5774:5777   */\n      0x80\n        /* \"#utility.yul\":5769:5771   */\n      0x20\n        /* \"#utility.yul\":5758:5767   */\n      dup3\n        /* \"#utility.yul\":5754:5772   */\n      add\n        /* \"#utility.yul\":5747:5778   */\n      mstore\n        /* \"#utility.yul\":5694:5698   */\n      0x00\n        /* \"#utility.yul\":5795:5858   */\n      tag_541\n        /* \"#utility.yul\":5853:5856   */\n      0x80\n        /* \"#utility.yul\":5842:5851   */\n      dup4\n        /* \"#utility.yul\":5838:5857   */\n      add\n        /* \"#utility.yul\":5830:5836   */\n      dup7\n        /* \"#utility.yul\":5795:5858   */\n      tag_480\n      jump\t// in\n    tag_541:\n      sub(shl(0xa0, 0x01), 0x01)\n        /* \"#utility.yul\":5894:5926   */\n      swap5\n      swap1\n      swap5\n      and\n        /* \"#utility.yul\":5889:5891   */\n      0x40\n        /* \"#utility.yul\":5874:5892   */\n      dup4\n      add\n        /* \"#utility.yul\":5867:5927   */\n      mstore\n      pop\n        /* \"#utility.yul\":5970:5984   */\n      swap1\n      iszero\n        /* \"#utility.yul\":5963:5985   */\n      iszero\n        /* \"#utility.yul\":5958:5960   */\n      0x60\n        /* \"#utility.yul\":5943:5961   */\n      swap1\n      swap2\n      add\n        /* \"#utility.yul\":5936:5986   */\n      mstore\n        /* \"#utility.yul\":5787:5858   */\n      swap3\n        /* \"#utility.yul\":5456:5992   */\n      swap2\n      pop\n      pop\n      jump\t// out\n        /* \"#utility.yul\":6402:7644   */\n    tag_72:\n        /* \"#utility.yul\":6546:6550   */\n      0x00\n        /* \"#utility.yul\":6575:6577   */\n      0x20\n        /* \"#utility.yul\":6604:6606   */\n      dup1\n        /* \"#utility.yul\":6593:6602   */\n      dup4\n        /* \"#utility.yul\":6586:6607   */\n      mstore\n        /* \"#utility.yul\":6649:6655   */\n      dup4\n        /* \"#utility.yul\":6643:6656   */\n      mload\n        /* \"#utility.yul\":6638:6640   */\n      dup2\n        /* \"#utility.yul\":6627:6636   */\n      dup5\n        /* \"#utility.yul\":6623:6641   */\n      add\n        /* \"#utility.yul\":6616:6657   */\n      mstore\n        /* \"#utility.yul\":6704:6706   */\n      dup1\n        /* \"#utility.yul\":6696:6702   */\n      dup5\n        /* \"#utility.yul\":6692:6707   */\n      add\n        /* \"#utility.yul\":6686:6708   */\n      mload\n        /* \"#utility.yul\":6727:6729   */\n      0x40\n        /* \"#utility.yul\":6765:6769   */\n      0xa0\n        /* \"#utility.yul\":6760:6762   */\n      0x40\n        /* \"#utility.yul\":6749:6758   */\n      dup7\n        /* \"#utility.yul\":6745:6763   */\n      add\n        /* \"#utility.yul\":6738:6770   */\n      mstore\n        /* \"#utility.yul\":6793:6862   */\n      tag_545\n        /* \"#utility.yul\":6857:6860   */\n      0xc0\n        /* \"#utility.yul\":6846:6855   */\n      dup7\n        /* \"#utility.yul\":6842:6861   */\n      add\n        /* \"#utility.yul\":6828:6840   */\n      dup4\n        /* \"#utility.yul\":6793:6862   */\n      tag_480\n      jump\t// in\n    tag_545:\n        /* \"#utility.yul\":6911:6913   */\n      0x40\n        /* \"#utility.yul\":6899:6914   */\n      dup8\n      add\n        /* \"#utility.yul\":6893:6915   */\n      mload\n        /* \"#utility.yul\":6955:6977   */\n      dup7\n      dup3\n      sub\n      not(0x1f)\n        /* \"#utility.yul\":6951:6987   */\n      add\n        /* \"#utility.yul\":6946:6948   */\n      0x60\n        /* \"#utility.yul\":6931:6949   */\n      dup9\n      add\n        /* \"#utility.yul\":6924:6988   */\n      mstore\n        /* \"#utility.yul\":7037:7058   */\n      dup1\n      mload\n        /* \"#utility.yul\":7067:7089   */\n      dup1\n      dup4\n      mstore\n        /* \"#utility.yul\":7143:7166   */\n      swap1\n      dup6\n      add\n      swap4\n      pop\n        /* \"#utility.yul\":7184:7185   */\n      0x00\n      swap2\n        /* \"#utility.yul\":7105:7120   */\n      dup6\n      add\n      swap1\n        /* \"#utility.yul\":7194:7385   */\n    tag_546:\n        /* \"#utility.yul\":7208:7214   */\n      dup1\n        /* \"#utility.yul\":7205:7206   */\n      dup4\n        /* \"#utility.yul\":7202:7215   */\n      lt\n        /* \"#utility.yul\":7194:7385   */\n      iszero\n      tag_548\n      jumpi\n        /* \"#utility.yul\":7257:7305   */\n      tag_549\n        /* \"#utility.yul\":7301:7304   */\n      dup3\n        /* \"#utility.yul\":7292:7298   */\n      dup7\n        /* \"#utility.yul\":7286:7299   */\n      mload\n        /* \"#utility.yul\":6300:6312   */\n      dup1\n      mload\n      sub(shl(0xa0, 0x01), 0x01)\n        /* \"#utility.yul\":6296:6334   */\n      and\n        /* \"#utility.yul\":6284:6335   */\n      dup3\n      mstore\n        /* \"#utility.yul\":6384:6388   */\n      0x20\n        /* \"#utility.yul\":6373:6389   */\n      swap1\n      dup2\n      add\n        /* \"#utility.yul\":6367:6390   */\n      mload\n        /* \"#utility.yul\":6351:6365   */\n      swap2\n      add\n        /* \"#utility.yul\":6344:6391   */\n      mstore\n        /* \"#utility.yul\":6220:6397   */\n      jump\n        /* \"#utility.yul\":7257:7305   */\n    tag_549:\n        /* \"#utility.yul\":7360:7375   */\n      swap4\n      dup6\n      add\n      swap4\n        /* \"#utility.yul\":7230:7231   */\n      0x01\n        /* \"#utility.yul\":7223:7232   */\n      swap3\n      swap1\n      swap3\n      add\n      swap2\n        /* \"#utility.yul\":7325:7337   */\n      swap1\n      dup4\n      add\n      swap1\n        /* \"#utility.yul\":7194:7385   */\n      jump(tag_546)\n    tag_548:\n      pop\n        /* \"#utility.yul\":7434:7436   */\n      0x60\n        /* \"#utility.yul\":7422:7437   */\n      dup9\n      add\n        /* \"#utility.yul\":7416:7438   */\n      mload\n      sub(shl(0xa0, 0x01), 0x01)\n        /* \"#utility.yul\":3409:3440   */\n      dup2\n      and\n        /* \"#utility.yul\":7497:7500   */\n      0x80\n        /* \"#utility.yul\":7482:7501   */\n      dup10\n      add\n        /* \"#utility.yul\":3397:3441   */\n      mstore\n        /* \"#utility.yul\":7416:7438   */\n      swap5\n      pop\n        /* \"#utility.yul\":7551:7554   */\n      0x80\n        /* \"#utility.yul\":7539:7555   */\n      dup9\n      add\n        /* \"#utility.yul\":7533:7556   */\n      mload\n        /* \"#utility.yul\":1112:1125   */\n      dup1\n      iszero\n        /* \"#utility.yul\":1105:1126   */\n      iszero\n        /* \"#utility.yul\":7612:7616   */\n      0xa0\n        /* \"#utility.yul\":7597:7617   */\n      dup10\n      add\n        /* \"#utility.yul\":1093:1127   */\n      mstore\n        /* \"#utility.yul\":7533:7556   */\n      swap5\n      pop\n        /* \"#utility.yul\":7565:7618   */\n      tag_523\n        /* \"#utility.yul\":1042:1133   */\n      jump\n        /* \"#utility.yul\":7649:7892   */\n    tag_77:\n        /* \"#utility.yul\":6300:6312   */\n      dup2\n      mload\n      sub(shl(0xa0, 0x01), 0x01)\n        /* \"#utility.yul\":6296:6334   */\n      and\n        /* \"#utility.yul\":6284:6335   */\n      dup2\n      mstore\n        /* \"#utility.yul\":6384:6388   */\n      0x20\n        /* \"#utility.yul\":6373:6389   */\n      dup1\n      dup4\n      add\n        /* \"#utility.yul\":6367:6390   */\n      mload\n        /* \"#utility.yul\":6351:6365   */\n      swap1\n      dup3\n      add\n        /* \"#utility.yul\":6344:6391   */\n      mstore\n        /* \"#utility.yul\":7827:7829   */\n      0x40\n        /* \"#utility.yul\":7812:7830   */\n      dup2\n      add\n        /* \"#utility.yul\":7839:7886   */\n      tag_112\n        /* \"#utility.yul\":6220:6397   */\n      jump\n        /* \"#utility.yul\":8176:8732   */\n    tag_482:\n        /* \"#utility.yul\":8219:8224   */\n      0x00\n        /* \"#utility.yul\":8272:8275   */\n      dup3\n        /* \"#utility.yul\":8265:8269   */\n      0x1f\n        /* \"#utility.yul\":8257:8263   */\n      dup4\n        /* \"#utility.yul\":8253:8270   */\n      add\n        /* \"#utility.yul\":8249:8276   */\n      slt\n        /* \"#utility.yul\":8239:8294   */\n      tag_556\n      jumpi\n        /* \"#utility.yul\":8290:8291   */\n      0x00\n        /* \"#utility.yul\":8287:8288   */\n      dup1\n        /* \"#utility.yul\":8280:8292   */\n      revert\n        /* \"#utility.yul\":8239:8294   */\n    tag_556:\n        /* \"#utility.yul\":8326:8332   */\n      dup2\n        /* \"#utility.yul\":8313:8333   */\n      calldataload\n        /* \"#utility.yul\":8352:8370   */\n      0xffffffffffffffff\n        /* \"#utility.yul\":8348:8350   */\n      dup2\n        /* \"#utility.yul\":8345:8371   */\n      gt\n        /* \"#utility.yul\":8342:8394   */\n      iszero\n      tag_558\n      jumpi\n        /* \"#utility.yul\":8374:8392   */\n      tag_558\n      tag_472\n      jump\t// in\n    tag_558:\n        /* \"#utility.yul\":8423:8425   */\n      0x40\n        /* \"#utility.yul\":8417:8426   */\n      mload\n        /* \"#utility.yul\":8435:8502   */\n      tag_559\n        /* \"#utility.yul\":8490:8492   */\n      0x1f\n        /* \"#utility.yul\":8471:8484   */\n      dup4\n      add\n      not(0x1f)\n        /* \"#utility.yul\":8467:8494   */\n      and\n        /* \"#utility.yul\":8496:8500   */\n      0x20\n        /* \"#utility.yul\":8463:8501   */\n      add\n        /* \"#utility.yul\":8417:8426   */\n      dup3\n        /* \"#utility.yul\":8435:8502   */\n      tag_474\n      jump\t// in\n    tag_559:\n        /* \"#utility.yul\":8526:8528   */\n      dup2\n        /* \"#utility.yul\":8518:8524   */\n      dup2\n        /* \"#utility.yul\":8511:8529   */\n      mstore\n        /* \"#utility.yul\":8572:8575   */\n      dup5\n        /* \"#utility.yul\":8565:8569   */\n      0x20\n        /* \"#utility.yul\":8560:8562   */\n      dup4\n        /* \"#utility.yul\":8552:8558   */\n      dup7\n        /* \"#utility.yul\":8548:8563   */\n      add\n        /* \"#utility.yul\":8544:8570   */\n      add\n        /* \"#utility.yul\":8541:8576   */\n      gt\n        /* \"#utility.yul\":8538:8593   */\n      iszero\n      tag_560\n      jumpi\n        /* \"#utility.yul\":8589:8590   */\n      0x00\n        /* \"#utility.yul\":8586:8587   */\n      dup1\n        /* \"#utility.yul\":8579:8591   */\n      revert\n        /* \"#utility.yul\":8538:8593   */\n    tag_560:\n        /* \"#utility.yul\":8653:8655   */\n      dup2\n        /* \"#utility.yul\":8646:8650   */\n      0x20\n        /* \"#utility.yul\":8638:8644   */\n      dup6\n        /* \"#utility.yul\":8634:8651   */\n      add\n        /* \"#utility.yul\":8627:8631   */\n      0x20\n        /* \"#utility.yul\":8619:8625   */\n      dup4\n        /* \"#utility.yul\":8615:8632   */\n      add\n        /* \"#utility.yul\":8602:8656   */\n      calldatacopy\n        /* \"#utility.yul\":8700:8701   */\n      0x00\n        /* \"#utility.yul\":8676:8691   */\n      swap2\n      dup2\n      add\n        /* \"#utility.yul\":8693:8697   */\n      0x20\n        /* \"#utility.yul\":8672:8698   */\n      add\n        /* \"#utility.yul\":8665:8702   */\n      swap2\n      swap1\n      swap2\n      mstore\n        /* \"#utility.yul\":8680:8686   */\n      swap4\n        /* \"#utility.yul\":8176:8732   */\n      swap3\n      pop\n      pop\n      pop\n      jump\t// out\n        /* \"#utility.yul\":8737:8887   */\n    tag_483:\n        /* \"#utility.yul\":8812:8832   */\n      dup1\n      calldataload\n        /* \"#utility.yul\":8861:8862   */\n      0x06\n        /* \"#utility.yul\":8851:8863   */\n      dup2\n      lt\n        /* \"#utility.yul\":8841:8881   */\n      tag_304\n      jumpi\n        /* \"#utility.yul\":8877:8878   */\n      0x00\n        /* \"#utility.yul\":8874:8875   */\n      dup1\n        /* \"#utility.yul\":8867:8879   */\n      revert\n        /* \"#utility.yul\":8892:9898   */\n    tag_484:\n        /* \"#utility.yul\":8956:8961   */\n      0x00\n        /* \"#utility.yul\":9009:9012   */\n      dup3\n        /* \"#utility.yul\":9002:9006   */\n      0x1f\n        /* \"#utility.yul\":8994:9000   */\n      dup4\n        /* \"#utility.yul\":8990:9007   */\n      add\n        /* \"#utility.yul\":8986:9013   */\n      slt\n        /* \"#utility.yul\":8976:9031   */\n      tag_564\n      jumpi\n        /* \"#utility.yul\":9027:9028   */\n      0x00\n        /* \"#utility.yul\":9024:9025   */\n      dup1\n        /* \"#utility.yul\":9017:9029   */\n      revert\n        /* \"#utility.yul\":8976:9031   */\n    tag_564:\n        /* \"#utility.yul\":9063:9069   */\n      dup2\n        /* \"#utility.yul\":9050:9070   */\n      calldataload\n        /* \"#utility.yul\":9089:9093   */\n      0x20\n        /* \"#utility.yul\":9112:9155   */\n      tag_565\n        /* \"#utility.yul\":9152:9154   */\n      dup3\n        /* \"#utility.yul\":9112:9155   */\n      tag_476\n      jump\t// in\n    tag_565:\n        /* \"#utility.yul\":9174:9176   */\n      0x40\n        /* \"#utility.yul\":9205:9207   */\n      dup1\n        /* \"#utility.yul\":9199:9208   */\n      mload\n        /* \"#utility.yul\":9217:9248   */\n      tag_566\n        /* \"#utility.yul\":9245:9247   */\n      dup4\n        /* \"#utility.yul\":9237:9243   */\n      dup3\n        /* \"#utility.yul\":9217:9248   */\n      tag_474\n      jump\t// in\n    tag_566:\n        /* \"#utility.yul\":9283:9301   */\n      dup5\n      dup2\n      mstore\n        /* \"#utility.yul\":9375:9376   */\n      0x06\n        /* \"#utility.yul\":9371:9381   */\n      swap5\n      swap1\n      swap5\n      shl\n        /* \"#utility.yul\":9359:9382   */\n      dup7\n      add\n        /* \"#utility.yul\":9355:9387   */\n      dup4\n      add\n      swap4\n        /* \"#utility.yul\":9317:9332   */\n      dup4\n      dup2\n      add\n      swap3\n      pop\n        /* \"#utility.yul\":9399:9414   */\n      dup8\n      dup6\n      gt\n        /* \"#utility.yul\":9396:9431   */\n      iszero\n      tag_567\n      jumpi\n        /* \"#utility.yul\":9427:9428   */\n      0x00\n        /* \"#utility.yul\":9424:9425   */\n      dup1\n        /* \"#utility.yul\":9417:9429   */\n      revert\n        /* \"#utility.yul\":9396:9431   */\n    tag_567:\n        /* \"#utility.yul\":9463:9465   */\n      dup4\n        /* \"#utility.yul\":9455:9461   */\n      dup8\n        /* \"#utility.yul\":9451:9466   */\n      add\n        /* \"#utility.yul\":9475:9868   */\n    tag_568:\n        /* \"#utility.yul\":9491:9497   */\n      dup6\n        /* \"#utility.yul\":9486:9489   */\n      dup2\n        /* \"#utility.yul\":9483:9498   */\n      lt\n        /* \"#utility.yul\":9475:9868   */\n      iszero\n      tag_570\n      jumpi\n        /* \"#utility.yul\":9567:9569   */\n      dup3\n        /* \"#utility.yul\":9561:9564   */\n      dup2\n        /* \"#utility.yul\":9556:9559   */\n      dup11\n        /* \"#utility.yul\":9552:9565   */\n      sub\n        /* \"#utility.yul\":9548:9570   */\n      slt\n        /* \"#utility.yul\":9545:9587   */\n      iszero\n      tag_571\n      jumpi\n        /* \"#utility.yul\":9583:9584   */\n      0x00\n        /* \"#utility.yul\":9580:9581   */\n      dup1\n        /* \"#utility.yul\":9573:9585   */\n      revert\n        /* \"#utility.yul\":9545:9587   */\n    tag_571:\n        /* \"#utility.yul\":9622:9624   */\n      dup3\n        /* \"#utility.yul\":9616:9625   */\n      mload\n        /* \"#utility.yul\":9638:9672   */\n      tag_572\n        /* \"#utility.yul\":9663:9671   */\n      dup2\n        /* \"#utility.yul\":9638:9672   */\n      tag_473\n      jump\t// in\n    tag_572:\n        /* \"#utility.yul\":9702:9725   */\n      tag_573\n        /* \"#utility.yul\":9721:9724   */\n      dup3\n        /* \"#utility.yul\":9702:9725   */\n      tag_470\n      jump\t// in\n    tag_573:\n        /* \"#utility.yul\":9685:9726   */\n      dup2\n      mstore\n        /* \"#utility.yul\":9778:9790   */\n      dup2\n      dup7\n      add\n        /* \"#utility.yul\":9765:9791   */\n      calldataload\n        /* \"#utility.yul\":9746:9763   */\n      dup7\n      dup3\n      add\n        /* \"#utility.yul\":9739:9792   */\n      mstore\n        /* \"#utility.yul\":9805:9826   */\n      dup5\n      mstore\n        /* \"#utility.yul\":9846:9858   */\n      swap3\n      dup5\n      add\n      swap3\n        /* \"#utility.yul\":9508:9520   */\n      dup3\n      add\n        /* \"#utility.yul\":9475:9868   */\n      jump(tag_568)\n    tag_570:\n      pop\n        /* \"#utility.yul\":9886:9892   */\n      swap8\n        /* \"#utility.yul\":8892:9898   */\n      swap7\n      pop\n      pop\n      pop\n      pop\n      pop\n      pop\n      pop\n      jump\t// out\n        /* \"#utility.yul\":9903:11547   */\n    tag_85:\n        /* \"#utility.yul\":10058:10064   */\n      0x00\n        /* \"#utility.yul\":10066:10072   */\n      dup1\n        /* \"#utility.yul\":10119:10121   */\n      0x40\n        /* \"#utility.yul\":10107:10116   */\n      dup4\n        /* \"#utility.yul\":10098:10105   */\n      dup6\n        /* \"#utility.yul\":10094:10117   */\n      sub\n        /* \"#utility.yul\":10090:10122   */\n      slt\n        /* \"#utility.yul\":10087:10139   */\n      iszero\n      tag_575\n      jumpi\n        /* \"#utility.yul\":10135:10136   */\n      0x00\n        /* \"#utility.yul\":10132:10133   */\n      dup1\n        /* \"#utility.yul\":10125:10137   */\n      revert\n        /* \"#utility.yul\":10087:10139   */\n    tag_575:\n        /* \"#utility.yul\":10175:10184   */\n      dup3\n        /* \"#utility.yul\":10162:10185   */\n      calldataload\n        /* \"#utility.yul\":10204:10222   */\n      0xffffffffffffffff\n        /* \"#utility.yul\":10245:10247   */\n      dup1\n        /* \"#utility.yul\":10237:10243   */\n      dup3\n        /* \"#utility.yul\":10234:10248   */\n      gt\n        /* \"#utility.yul\":10231:10265   */\n      iszero\n      tag_576\n      jumpi\n        /* \"#utility.yul\":10261:10262   */\n      0x00\n        /* \"#utility.yul\":10258:10259   */\n      dup1\n        /* \"#utility.yul\":10251:10263   */\n      revert\n        /* \"#utility.yul\":10231:10265   */\n    tag_576:\n        /* \"#utility.yul\":10284:10306   */\n      swap1\n      dup5\n      add\n      swap1\n        /* \"#utility.yul\":10340:10344   */\n      0xc0\n        /* \"#utility.yul\":10322:10338   */\n      dup3\n      dup8\n      sub\n        /* \"#utility.yul\":10318:10345   */\n      slt\n        /* \"#utility.yul\":10315:10362   */\n      iszero\n      tag_577\n      jumpi\n        /* \"#utility.yul\":10358:10359   */\n      0x00\n        /* \"#utility.yul\":10355:10356   */\n      dup1\n        /* \"#utility.yul\":10348:10360   */\n      revert\n        /* \"#utility.yul\":10315:10362   */\n    tag_577:\n        /* \"#utility.yul\":10384:10401   */\n      tag_578\n      tag_475\n      jump\t// in\n    tag_578:\n        /* \"#utility.yul\":10439:10441   */\n      dup3\n        /* \"#utility.yul\":10426:10442   */\n      calldataload\n        /* \"#utility.yul\":10467:10469   */\n      dup3\n        /* \"#utility.yul\":10457:10465   */\n      dup2\n        /* \"#utility.yul\":10454:10470   */\n      gt\n        /* \"#utility.yul\":10451:10487   */\n      iszero\n      tag_579\n      jumpi\n        /* \"#utility.yul\":10483:10484   */\n      0x00\n        /* \"#utility.yul\":10480:10481   */\n      dup1\n        /* \"#utility.yul\":10473:10485   */\n      revert\n        /* \"#utility.yul\":10451:10487   */\n    tag_579:\n        /* \"#utility.yul\":10510:10555   */\n      tag_580\n        /* \"#utility.yul\":10547:10554   */\n      dup9\n        /* \"#utility.yul\":10536:10544   */\n      dup3\n        /* \"#utility.yul\":10532:10534   */\n      dup7\n        /* \"#utility.yul\":10528:10545   */\n      add\n        /* \"#utility.yul\":10510:10555   */\n      tag_482\n      jump\t// in\n    tag_580:\n        /* \"#utility.yul\":10503:10508   */\n      dup3\n        /* \"#utility.yul\":10496:10556   */\n      mstore\n      pop\n        /* \"#utility.yul\":10602:10604   */\n      0x20\n        /* \"#utility.yul\":10598:10600   */\n      dup4\n        /* \"#utility.yul\":10594:10605   */\n      add\n        /* \"#utility.yul\":10581:10606   */\n      calldataload\n        /* \"#utility.yul\":10631:10633   */\n      dup3\n        /* \"#utility.yul\":10621:10629   */\n      dup2\n        /* \"#utility.yul\":10618:10634   */\n      gt\n        /* \"#utility.yul\":10615:10651   */\n      iszero\n      tag_581\n      jumpi\n        /* \"#utility.yul\":10647:10648   */\n      0x00\n        /* \"#utility.yul\":10644:10645   */\n      dup1\n        /* \"#utility.yul\":10637:10649   */\n      revert\n        /* \"#utility.yul\":10615:10651   */\n    tag_581:\n        /* \"#utility.yul\":10683:10728   */\n      tag_582\n        /* \"#utility.yul\":10720:10727   */\n      dup9\n        /* \"#utility.yul\":10709:10717   */\n      dup3\n        /* \"#utility.yul\":10705:10707   */\n      dup7\n        /* \"#utility.yul\":10701:10718   */\n      add\n        /* \"#utility.yul\":10683:10728   */\n      tag_482\n      jump\t// in\n    tag_582:\n        /* \"#utility.yul\":10678:10680   */\n      0x20\n        /* \"#utility.yul\":10671:10676   */\n      dup4\n        /* \"#utility.yul\":10667:10681   */\n      add\n        /* \"#utility.yul\":10660:10729   */\n      mstore\n      pop\n        /* \"#utility.yul\":10761:10799   */\n      tag_583\n        /* \"#utility.yul\":10795:10797   */\n      0x40\n        /* \"#utility.yul\":10791:10793   */\n      dup5\n        /* \"#utility.yul\":10787:10798   */\n      add\n        /* \"#utility.yul\":10761:10799   */\n      tag_483\n      jump\t// in\n    tag_583:\n        /* \"#utility.yul\":10756:10758   */\n      0x40\n        /* \"#utility.yul\":10749:10754   */\n      dup3\n        /* \"#utility.yul\":10745:10759   */\n      add\n        /* \"#utility.yul\":10738:10800   */\n      mstore\n        /* \"#utility.yul\":10846:10848   */\n      0x60\n        /* \"#utility.yul\":10842:10844   */\n      dup4\n        /* \"#utility.yul\":10838:10849   */\n      add\n        /* \"#utility.yul\":10825:10850   */\n      calldataload\n        /* \"#utility.yul\":10875:10877   */\n      dup3\n        /* \"#utility.yul\":10865:10873   */\n      dup2\n        /* \"#utility.yul\":10862:10878   */\n      gt\n        /* \"#utility.yul\":10859:10895   */\n      iszero\n      tag_584\n      jumpi\n        /* \"#utility.yul\":10891:10892   */\n      0x00\n        /* \"#utility.yul\":10888:10889   */\n      dup1\n        /* \"#utility.yul\":10881:10893   */\n      revert\n        /* \"#utility.yul\":10859:10895   */\n    tag_584:\n        /* \"#utility.yul\":10927:10972   */\n      tag_585\n        /* \"#utility.yul\":10964:10971   */\n      dup9\n        /* \"#utility.yul\":10953:10961   */\n      dup3\n        /* \"#utility.yul\":10949:10951   */\n      dup7\n        /* \"#utility.yul\":10945:10962   */\n      add\n        /* \"#utility.yul\":10927:10972   */\n      tag_482\n      jump\t// in\n    tag_585:\n        /* \"#utility.yul\":10922:10924   */\n      0x60\n        /* \"#utility.yul\":10915:10920   */\n      dup4\n        /* \"#utility.yul\":10911:10925   */\n      add\n        /* \"#utility.yul\":10904:10973   */\n      mstore\n      pop\n        /* \"#utility.yul\":11019:11022   */\n      0x80\n        /* \"#utility.yul\":11015:11017   */\n      dup4\n        /* \"#utility.yul\":11011:11023   */\n      add\n        /* \"#utility.yul\":10998:11024   */\n      calldataload\n        /* \"#utility.yul\":11049:11051   */\n      dup3\n        /* \"#utility.yul\":11039:11047   */\n      dup2\n        /* \"#utility.yul\":11036:11052   */\n      gt\n        /* \"#utility.yul\":11033:11069   */\n      iszero\n      tag_586\n      jumpi\n        /* \"#utility.yul\":11065:11066   */\n      0x00\n        /* \"#utility.yul\":11062:11063   */\n      dup1\n        /* \"#utility.yul\":11055:11067   */\n      revert\n        /* \"#utility.yul\":11033:11069   */\n    tag_586:\n        /* \"#utility.yul\":11102:11147   */\n      tag_587\n        /* \"#utility.yul\":11139:11146   */\n      dup9\n        /* \"#utility.yul\":11128:11136   */\n      dup3\n        /* \"#utility.yul\":11124:11126   */\n      dup7\n        /* \"#utility.yul\":11120:11137   */\n      add\n        /* \"#utility.yul\":11102:11147   */\n      tag_482\n      jump\t// in\n    tag_587:\n        /* \"#utility.yul\":11096:11099   */\n      0x80\n        /* \"#utility.yul\":11089:11094   */\n      dup4\n        /* \"#utility.yul\":11085:11100   */\n      add\n        /* \"#utility.yul\":11078:11148   */\n      mstore\n      pop\n        /* \"#utility.yul\":11194:11197   */\n      0xa0\n        /* \"#utility.yul\":11190:11192   */\n      dup4\n        /* \"#utility.yul\":11186:11198   */\n      add\n        /* \"#utility.yul\":11173:11199   */\n      calldataload\n        /* \"#utility.yul\":11224:11226   */\n      dup3\n        /* \"#utility.yul\":11214:11222   */\n      dup2\n        /* \"#utility.yul\":11211:11227   */\n      gt\n        /* \"#utility.yul\":11208:11244   */\n      iszero\n      tag_588\n      jumpi\n        /* \"#utility.yul\":11240:11241   */\n      0x00\n        /* \"#utility.yul\":11237:11238   */\n      dup1\n        /* \"#utility.yul\":11230:11242   */\n      revert\n        /* \"#utility.yul\":11208:11244   */\n    tag_588:\n        /* \"#utility.yul\":11277:11322   */\n      tag_589\n        /* \"#utility.yul\":11314:11321   */\n      dup9\n        /* \"#utility.yul\":11303:11311   */\n      dup3\n        /* \"#utility.yul\":11299:11301   */\n      dup7\n        /* \"#utility.yul\":11295:11312   */\n      add\n        /* \"#utility.yul\":11277:11322   */\n      tag_482\n      jump\t// in\n    tag_589:\n        /* \"#utility.yul\":11271:11274   */\n      0xa0\n        /* \"#utility.yul\":11260:11275   */\n      dup4\n      add\n        /* \"#utility.yul\":11253:11323   */\n      mstore\n      pop\n        /* \"#utility.yul\":11264:11269   */\n      swap4\n      pop\n        /* \"#utility.yul\":11400:11402   */\n      0x20\n        /* \"#utility.yul\":11385:11403   */\n      dup6\n      add\n        /* \"#utility.yul\":11372:11404   */\n      calldataload\n      swap2\n      pop\n        /* \"#utility.yul\":11416:11432   */\n      dup1\n      dup3\n      gt\n        /* \"#utility.yul\":11413:11449   */\n      iszero\n      tag_590\n      jumpi\n        /* \"#utility.yul\":11445:11446   */\n      0x00\n        /* \"#utility.yul\":11442:11443   */\n      dup1\n        /* \"#utility.yul\":11435:11447   */\n      revert\n        /* \"#utility.yul\":11413:11449   */\n    tag_590:\n      pop\n        /* \"#utility.yul\":11468:11541   */\n      tag_591\n        /* \"#utility.yul\":11533:11540   */\n      dup6\n        /* \"#utility.yul\":11522:11530   */\n      dup3\n        /* \"#utility.yul\":11511:11520   */\n      dup7\n        /* \"#utility.yul\":11507:11531   */\n      add\n        /* \"#utility.yul\":11468:11541   */\n      tag_484\n      jump\t// in\n    tag_591:\n        /* \"#utility.yul\":11458:11541   */\n      swap2\n      pop\n      pop\n        /* \"#utility.yul\":9903:11547   */\n      swap3\n      pop\n      swap3\n      swap1\n      pop\n      jump\t// out\n        /* \"#utility.yul\":11552:11738   */\n    tag_90:\n        /* \"#utility.yul\":11611:11617   */\n      0x00\n        /* \"#utility.yul\":11664:11666   */\n      0x20\n        /* \"#utility.yul\":11652:11661   */\n      dup3\n        /* \"#utility.yul\":11643:11650   */\n      dup5\n        /* \"#utility.yul\":11639:11662   */\n      sub\n        /* \"#utility.yul\":11635:11667   */\n      slt\n        /* \"#utility.yul\":11632:11684   */\n      iszero\n      tag_593\n      jumpi\n        /* \"#utility.yul\":11680:11681   */\n      0x00\n        /* \"#utility.yul\":11677:11678   */\n      dup1\n        /* \"#utility.yul\":11670:11682   */\n      revert\n        /* \"#utility.yul\":11632:11684   */\n    tag_593:\n        /* \"#utility.yul\":11703:11732   */\n      tag_594\n        /* \"#utility.yul\":11722:11731   */\n      dup3\n        /* \"#utility.yul\":11703:11732   */\n      tag_470\n      jump\t// in\n    tag_594:\n        /* \"#utility.yul\":11693:11732   */\n      swap4\n        /* \"#utility.yul\":11552:11738   */\n      swap3\n      pop\n      pop\n      pop\n      jump\t// out\n        /* \"#utility.yul\":11743:11870   */\n    tag_123:\n        /* \"#utility.yul\":11804:11814   */\n      0x4e487b71\n        /* \"#utility.yul\":11799:11802   */\n      0xe0\n        /* \"#utility.yul\":11795:11815   */\n      shl\n        /* \"#utility.yul\":11792:11793   */\n      0x00\n        /* \"#utility.yul\":11785:11816   */\n      mstore\n        /* \"#utility.yul\":11835:11839   */\n      0x32\n        /* \"#utility.yul\":11832:11833   */\n      0x04\n        /* \"#utility.yul\":11825:11840   */\n      mstore\n        /* \"#utility.yul\":11859:11863   */\n      0x24\n        /* \"#utility.yul\":11856:11857   */\n      0x00\n        /* \"#utility.yul\":11849:11864   */\n      revert\n        /* \"#utility.yul\":11875:12255   */\n    tag_133:\n        /* \"#utility.yul\":11954:11955   */\n      0x01\n        /* \"#utility.yul\":11950:11962   */\n      dup2\n      dup2\n      shr\n      swap1\n        /* \"#utility.yul\":11997:12009   */\n      dup3\n      and\n      dup1\n        /* \"#utility.yul\":12018:12079   */\n      tag_597\n      jumpi\n        /* \"#utility.yul\":12072:12076   */\n      0x7f\n        /* \"#utility.yul\":12064:12070   */\n      dup3\n        /* \"#utility.yul\":12060:12077   */\n      and\n        /* \"#utility.yul\":12050:12077   */\n      swap2\n      pop\n        /* \"#utility.yul\":12018:12079   */\n    tag_597:\n        /* \"#utility.yul\":12125:12127   */\n      0x20\n        /* \"#utility.yul\":12117:12123   */\n      dup3\n        /* \"#utility.yul\":12114:12128   */\n      lt\n        /* \"#utility.yul\":12094:12112   */\n      dup2\n        /* \"#utility.yul\":12091:12129   */\n      sub\n        /* \"#utility.yul\":12088:12249   */\n      tag_598\n      jumpi\n        /* \"#utility.yul\":12171:12181   */\n      0x4e487b71\n        /* \"#utility.yul\":12166:12169   */\n      0xe0\n        /* \"#utility.yul\":12162:12182   */\n      shl\n        /* \"#utility.yul\":12159:12160   */\n      0x00\n        /* \"#utility.yul\":12152:12183   */\n      mstore\n        /* \"#utility.yul\":12206:12210   */\n      0x22\n        /* \"#utility.yul\":12203:12204   */\n      0x04\n        /* \"#utility.yul\":12196:12211   */\n      mstore\n        /* \"#utility.yul\":12234:12238   */\n      0x24\n        /* \"#utility.yul\":12231:12232   */\n      0x00\n        /* \"#utility.yul\":12224:12239   */\n      revert\n        /* \"#utility.yul\":12088:12249   */\n    tag_598:\n      pop\n        /* \"#utility.yul\":11875:12255   */\n      swap2\n      swap1\n      pop\n      jump\t// out\n        /* \"#utility.yul\":12260:12505   */\n    tag_167:\n        /* \"#utility.yul\":12339:12345   */\n      0x00\n        /* \"#utility.yul\":12347:12353   */\n      dup1\n        /* \"#utility.yul\":12400:12402   */\n      0x40\n        /* \"#utility.yul\":12388:12397   */\n      dup4\n        /* \"#utility.yul\":12379:12386   */\n      dup6\n        /* \"#utility.yul\":12375:12398   */\n      sub\n        /* \"#utility.yul\":12371:12403   */\n      slt\n        /* \"#utility.yul\":12368:12420   */\n      iszero\n      tag_600\n      jumpi\n        /* \"#utility.yul\":12416:12417   */\n      0x00\n        /* \"#utility.yul\":12413:12414   */\n      dup1\n        /* \"#utility.yul\":12406:12418   */\n      revert\n        /* \"#utility.yul\":12368:12420   */\n    tag_600:\n      pop\n      pop\n        /* \"#utility.yul\":12439:12455   */\n      dup1\n      mload\n        /* \"#utility.yul\":12495:12497   */\n      0x20\n        /* \"#utility.yul\":12480:12498   */\n      swap1\n      swap2\n      add\n        /* \"#utility.yul\":12474:12499   */\n      mload\n        /* \"#utility.yul\":12439:12455   */\n      swap1\n      swap3\n        /* \"#utility.yul\":12474:12499   */\n      swap1\n      swap2\n      pop\n        /* \"#utility.yul\":12260:12505   */\n      jump\t// out\n        /* \"#utility.yul\":12510:12689   */\n    tag_182:\n        /* \"#utility.yul\":12545:12548   */\n      0x00\n        /* \"#utility.yul\":12587:12588   */\n      0x03\n        /* \"#utility.yul\":12569:12585   */\n      returndatasize\n        /* \"#utility.yul\":12566:12589   */\n      gt\n        /* \"#utility.yul\":12563:12683   */\n      iszero\n      tag_242\n      jumpi\n        /* \"#utility.yul\":12633:12634   */\n      0x04\n        /* \"#utility.yul\":12630:12631   */\n      0x00\n        /* \"#utility.yul\":12627:12628   */\n      dup1\n        /* \"#utility.yul\":12612:12635   */\n      returndatacopy\n      pop\n        /* \"#utility.yul\":12670:12671   */\n      0x00\n        /* \"#utility.yul\":12664:12672   */\n      mload\n        /* \"#utility.yul\":12659:12662   */\n      0xe0\n        /* \"#utility.yul\":12655:12673   */\n      shr\n        /* \"#utility.yul\":12510:12689   */\n      swap1\n      jump\t// out\n        /* \"#utility.yul\":12694:13365   */\n    tag_184:\n        /* \"#utility.yul\":12733:12736   */\n      0x00\n        /* \"#utility.yul\":12775:12779   */\n      0x44\n        /* \"#utility.yul\":12757:12773   */\n      returndatasize\n        /* \"#utility.yul\":12754:12780   */\n      lt\n        /* \"#utility.yul\":12751:12790   */\n      iszero\n      tag_604\n      jumpi\n        /* \"#utility.yul\":12694:13365   */\n      swap1\n      jump\t// out\n        /* \"#utility.yul\":12751:12790   */\n    tag_604:\n        /* \"#utility.yul\":12817:12819   */\n      0x40\n        /* \"#utility.yul\":12811:12820   */\n      mload\n      not(0x03)\n        /* \"#utility.yul\":12882:12898   */\n      returndatasize\n        /* \"#utility.yul\":12878:12903   */\n      dup2\n      add\n        /* \"#utility.yul\":12875:12876   */\n      0x04\n        /* \"#utility.yul\":12811:12820   */\n      dup4\n        /* \"#utility.yul\":12854:12904   */\n      returndatacopy\n        /* \"#utility.yul\":12933:12937   */\n      dup2\n        /* \"#utility.yul\":12927:12938   */\n      mload\n        /* \"#utility.yul\":12957:12973   */\n      returndatasize\n        /* \"#utility.yul\":12992:13010   */\n      0xffffffffffffffff\n        /* \"#utility.yul\":13063:13065   */\n      dup2\n        /* \"#utility.yul\":13056:13060   */\n      0x24\n        /* \"#utility.yul\":13048:13054   */\n      dup5\n        /* \"#utility.yul\":13044:13061   */\n      add\n        /* \"#utility.yul\":13041:13066   */\n      gt\n        /* \"#utility.yul\":13036:13038   */\n      dup2\n        /* \"#utility.yul\":13028:13034   */\n      dup5\n        /* \"#utility.yul\":13025:13039   */\n      gt\n        /* \"#utility.yul\":13022:13067   */\n      or\n        /* \"#utility.yul\":13019:13077   */\n      iszero\n      tag_605\n      jumpi\n        /* \"#utility.yul\":13070:13075   */\n      pop\n      pop\n      pop\n      pop\n      pop\n        /* \"#utility.yul\":12694:13365   */\n      swap1\n      jump\t// out\n        /* \"#utility.yul\":13019:13077   */\n    tag_605:\n        /* \"#utility.yul\":13107:13113   */\n      dup3\n        /* \"#utility.yul\":13101:13105   */\n      dup6\n        /* \"#utility.yul\":13097:13114   */\n      add\n        /* \"#utility.yul\":13086:13114   */\n      swap2\n      pop\n        /* \"#utility.yul\":13143:13146   */\n      dup2\n        /* \"#utility.yul\":13137:13147   */\n      mload\n        /* \"#utility.yul\":13170:13172   */\n      dup2\n        /* \"#utility.yul\":13162:13168   */\n      dup2\n        /* \"#utility.yul\":13159:13173   */\n      gt\n        /* \"#utility.yul\":13156:13183   */\n      iszero\n      tag_606\n      jumpi\n        /* \"#utility.yul\":13176:13181   */\n      pop\n      pop\n      pop\n      pop\n      pop\n      pop\n        /* \"#utility.yul\":12694:13365   */\n      swap1\n      jump\t// out\n        /* \"#utility.yul\":13156:13183   */\n    tag_606:\n        /* \"#utility.yul\":13260:13262   */\n      dup5\n        /* \"#utility.yul\":13241:13257   */\n      returndatasize\n        /* \"#utility.yul\":13235:13239   */\n      dup8\n        /* \"#utility.yul\":13231:13258   */\n      add\n        /* \"#utility.yul\":13227:13263   */\n      add\n        /* \"#utility.yul\":13220:13224   */\n      0x20\n        /* \"#utility.yul\":13211:13217   */\n      dup3\n        /* \"#utility.yul\":13206:13209   */\n      dup6\n        /* \"#utility.yul\":13202:13218   */\n      add\n        /* \"#utility.yul\":13198:13225   */\n      add\n        /* \"#utility.yul\":13195:13264   */\n      gt\n        /* \"#utility.yul\":13192:13274   */\n      iszero\n      tag_607\n      jumpi\n        /* \"#utility.yul\":13267:13272   */\n      pop\n      pop\n      pop\n      pop\n      pop\n      pop\n        /* \"#utility.yul\":12694:13365   */\n      swap1\n      jump\t// out\n        /* \"#utility.yul\":13192:13274   */\n    tag_607:\n        /* \"#utility.yul\":13283:13340   */\n      tag_608\n        /* \"#utility.yul\":13334:13338   */\n      0x20\n        /* \"#utility.yul\":13325:13331   */\n      dup3\n        /* \"#utility.yul\":13317:13323   */\n      dup7\n        /* \"#utility.yul\":13313:13332   */\n      add\n        /* \"#utility.yul\":13309:13339   */\n      add\n        /* \"#utility.yul\":13303:13307   */\n      dup8\n        /* \"#utility.yul\":13283:13340   */\n      tag_474\n      jump\t// in\n    tag_608:\n      pop\n        /* \"#utility.yul\":13356:13359   */\n      swap1\n      swap6\n        /* \"#utility.yul\":12694:13365   */\n      swap5\n      pop\n      pop\n      pop\n      pop\n      pop\n      jump\t// out\n        /* \"#utility.yul\":13639:13928   */\n    tag_189:\n        /* \"#utility.yul\":13770:13773   */\n      0x00\n        /* \"#utility.yul\":13808:13814   */\n      dup3\n        /* \"#utility.yul\":13802:13815   */\n      mload\n        /* \"#utility.yul\":13824:13890   */\n      tag_611\n        /* \"#utility.yul\":13883:13889   */\n      dup2\n        /* \"#utility.yul\":13878:13881   */\n      dup5\n        /* \"#utility.yul\":13871:13875   */\n      0x20\n        /* \"#utility.yul\":13863:13869   */\n      dup8\n        /* \"#utility.yul\":13859:13876   */\n      add\n        /* \"#utility.yul\":13824:13890   */\n      tag_478\n      jump\t// in\n    tag_611:\n        /* \"#utility.yul\":13906:13922   */\n      swap2\n      swap1\n      swap2\n      add\n      swap3\n        /* \"#utility.yul\":13639:13928   */\n      swap2\n      pop\n      pop\n      jump\t// out\n        /* \"#utility.yul\":14289:14509   */\n    tag_194:\n        /* \"#utility.yul\":14438:14440   */\n      0x20\n        /* \"#utility.yul\":14427:14436   */\n      dup2\n        /* \"#utility.yul\":14420:14441   */\n      mstore\n        /* \"#utility.yul\":14401:14405   */\n      0x00\n        /* \"#utility.yul\":14458:14503   */\n      tag_594\n        /* \"#utility.yul\":14499:14501   */\n      0x20\n        /* \"#utility.yul\":14488:14497   */\n      dup4\n        /* \"#utility.yul\":14484:14502   */\n      add\n        /* \"#utility.yul\":14476:14482   */\n      dup5\n        /* \"#utility.yul\":14458:14503   */\n      tag_479\n      jump\t// in\n        /* \"#utility.yul\":14917:15257   */\n    tag_248:\n        /* \"#utility.yul\":15119:15121   */\n      0x20\n        /* \"#utility.yul\":15101:15122   */\n      dup1\n      dup3\n      mstore\n        /* \"#utility.yul\":15158:15160   */\n      0x10\n        /* \"#utility.yul\":15138:15156   */\n      swap1\n      dup3\n      add\n        /* \"#utility.yul\":15131:15161   */\n      mstore\n      shl(0x82, 0x125b9d985b1a59081c1a5958d9481251)\n        /* \"#utility.yul\":15192:15194   */\n      0x40\n        /* \"#utility.yul\":15177:15195   */\n      dup3\n      add\n        /* \"#utility.yul\":15170:15216   */\n      mstore\n        /* \"#utility.yul\":15248:15250   */\n      0x60\n        /* \"#utility.yul\":15233:15251   */\n      add\n      swap1\n        /* \"#utility.yul\":14917:15257   */\n      jump\t// out\n        /* \"#utility.yul\":15622:15749   */\n    tag_485:\n        /* \"#utility.yul\":15683:15693   */\n      0x4e487b71\n        /* \"#utility.yul\":15678:15681   */\n      0xe0\n        /* \"#utility.yul\":15674:15694   */\n      shl\n        /* \"#utility.yul\":15671:15672   */\n      0x00\n        /* \"#utility.yul\":15664:15695   */\n      mstore\n        /* \"#utility.yul\":15714:15718   */\n      0x11\n        /* \"#utility.yul\":15711:15712   */\n      0x04\n        /* \"#utility.yul\":15704:15719   */\n      mstore\n        /* \"#utility.yul\":15738:15742   */\n      0x24\n        /* \"#utility.yul\":15735:15736   */\n      0x00\n        /* \"#utility.yul\":15728:15743   */\n      revert\n        /* \"#utility.yul\":15754:15889   */\n    tag_258:\n        /* \"#utility.yul\":15793:15796   */\n      0x00\n        /* \"#utility.yul\":15814:15831   */\n      0x01\n      dup3\n      add\n        /* \"#utility.yul\":15811:15854   */\n      tag_621\n      jumpi\n        /* \"#utility.yul\":15834:15852   */\n      tag_621\n      tag_485\n      jump\t// in\n    tag_621:\n      pop\n        /* \"#utility.yul\":15881:15882   */\n      0x01\n        /* \"#utility.yul\":15870:15883   */\n      add\n      swap1\n        /* \"#utility.yul\":15754:15889   */\n      jump\t// out\n        /* \"#utility.yul\":16281:16799   */\n    tag_487:\n        /* \"#utility.yul\":16383:16385   */\n      0x1f\n        /* \"#utility.yul\":16378:16381   */\n      dup3\n        /* \"#utility.yul\":16375:16386   */\n      gt\n        /* \"#utility.yul\":16372:16793   */\n      iszero\n      tag_625\n      jumpi\n        /* \"#utility.yul\":16419:16424   */\n      dup1\n        /* \"#utility.yul\":16416:16417   */\n      0x00\n        /* \"#utility.yul\":16409:16425   */\n      mstore\n        /* \"#utility.yul\":16463:16467   */\n      0x20\n        /* \"#utility.yul\":16460:16461   */\n      0x00\n        /* \"#utility.yul\":16450:16468   */\n      keccak256\n        /* \"#utility.yul\":16533:16535   */\n      0x1f\n        /* \"#utility.yul\":16521:16531   */\n      dup5\n        /* \"#utility.yul\":16517:16536   */\n      add\n        /* \"#utility.yul\":16514:16515   */\n      0x05\n        /* \"#utility.yul\":16510:16537   */\n      shr\n        /* \"#utility.yul\":16504:16508   */\n      dup2\n        /* \"#utility.yul\":16500:16538   */\n      add\n        /* \"#utility.yul\":16569:16573   */\n      0x20\n        /* \"#utility.yul\":16557:16567   */\n      dup6\n        /* \"#utility.yul\":16554:16574   */\n      lt\n        /* \"#utility.yul\":16551:16598   */\n      iszero\n      tag_626\n      jumpi\n      pop\n        /* \"#utility.yul\":16592:16596   */\n      dup1\n        /* \"#utility.yul\":16551:16598   */\n    tag_626:\n        /* \"#utility.yul\":16647:16649   */\n      0x1f\n        /* \"#utility.yul\":16642:16645   */\n      dup5\n        /* \"#utility.yul\":16638:16650   */\n      add\n        /* \"#utility.yul\":16635:16636   */\n      0x05\n        /* \"#utility.yul\":16631:16651   */\n      shr\n        /* \"#utility.yul\":16625:16629   */\n      dup3\n        /* \"#utility.yul\":16621:16652   */\n      add\n        /* \"#utility.yul\":16611:16652   */\n      swap2\n      pop\n        /* \"#utility.yul\":16702:16783   */\n    tag_627:\n        /* \"#utility.yul\":16720:16722   */\n      dup2\n        /* \"#utility.yul\":16713:16718   */\n      dup2\n        /* \"#utility.yul\":16710:16723   */\n      lt\n        /* \"#utility.yul\":16702:16783   */\n      iszero\n      tag_629\n      jumpi\n        /* \"#utility.yul\":16779:16780   */\n      0x00\n        /* \"#utility.yul\":16765:16781   */\n      dup2\n      sstore\n        /* \"#utility.yul\":16746:16747   */\n      0x01\n        /* \"#utility.yul\":16735:16748   */\n      add\n        /* \"#utility.yul\":16702:16783   */\n      jump(tag_627)\n    tag_629:\n        /* \"#utility.yul\":16706:16709   */\n      pop\n      pop\n        /* \"#utility.yul\":16372:16793   */\n    tag_625:\n        /* \"#utility.yul\":16281:16799   */\n      pop\n      pop\n      pop\n      jump\t// out\n        /* \"#utility.yul\":16975:18320   */\n    tag_265:\n        /* \"#utility.yul\":17101:17104   */\n      dup2\n        /* \"#utility.yul\":17095:17105   */\n      mload\n        /* \"#utility.yul\":17128:17146   */\n      0xffffffffffffffff\n        /* \"#utility.yul\":17120:17126   */\n      dup2\n        /* \"#utility.yul\":17117:17147   */\n      gt\n        /* \"#utility.yul\":17114:17170   */\n      iszero\n      tag_633\n      jumpi\n        /* \"#utility.yul\":17150:17168   */\n      tag_633\n      tag_472\n      jump\t// in\n    tag_633:\n        /* \"#utility.yul\":17179:17276   */\n      tag_634\n        /* \"#utility.yul\":17269:17275   */\n      dup2\n        /* \"#utility.yul\":17229:17267   */\n      tag_635\n        /* \"#utility.yul\":17261:17265   */\n      dup5\n        /* \"#utility.yul\":17255:17266   */\n      sload\n        /* \"#utility.yul\":17229:17267   */\n      tag_133\n      jump\t// in\n    tag_635:\n        /* \"#utility.yul\":17223:17227   */\n      dup5\n        /* \"#utility.yul\":17179:17276   */\n      tag_487\n      jump\t// in\n    tag_634:\n        /* \"#utility.yul\":17331:17335   */\n      0x20\n      dup1\n        /* \"#utility.yul\":17388:17390   */\n      0x1f\n        /* \"#utility.yul\":17377:17391   */\n      dup4\n      gt\n        /* \"#utility.yul\":17405:17406   */\n      0x01\n        /* \"#utility.yul\":17400:18063   */\n      dup2\n      eq\n      tag_637\n      jumpi\n        /* \"#utility.yul\":18107:18108   */\n      0x00\n        /* \"#utility.yul\":18124:18130   */\n      dup5\n        /* \"#utility.yul\":18121:18210   */\n      iszero\n      tag_638\n      jumpi\n      pop\n        /* \"#utility.yul\":18176:18195   */\n      dup6\n      dup4\n      add\n        /* \"#utility.yul\":18170:18196   */\n      mload\n        /* \"#utility.yul\":18121:18210   */\n    tag_638:\n      not(0x00)\n        /* \"#utility.yul\":16932:16933   */\n      0x03\n        /* \"#utility.yul\":16928:16939   */\n      dup7\n      swap1\n      shl\n        /* \"#utility.yul\":16924:16948   */\n      shr\n        /* \"#utility.yul\":16920:16949   */\n      not\n        /* \"#utility.yul\":16910:16950   */\n      and\n        /* \"#utility.yul\":16956:16957   */\n      0x01\n        /* \"#utility.yul\":16952:16963   */\n      dup6\n      swap1\n      shl\n        /* \"#utility.yul\":16907:16964   */\n      or\n        /* \"#utility.yul\":18223:18304   */\n      dup6\n      sstore\n        /* \"#utility.yul\":17370:18314   */\n      jump(tag_636)\n        /* \"#utility.yul\":17400:18063   */\n    tag_637:\n        /* \"#utility.yul\":16228:16229   */\n      0x00\n        /* \"#utility.yul\":16221:16235   */\n      dup6\n      dup2\n      mstore\n        /* \"#utility.yul\":16265:16269   */\n      0x20\n        /* \"#utility.yul\":16252:16270   */\n      dup2\n      keccak256\n      not(0x1f)\n        /* \"#utility.yul\":17436:17456   */\n      dup7\n      and\n      swap2\n        /* \"#utility.yul\":17554:17790   */\n    tag_641:\n        /* \"#utility.yul\":17568:17575   */\n      dup3\n        /* \"#utility.yul\":17565:17566   */\n      dup2\n        /* \"#utility.yul\":17562:17576   */\n      lt\n        /* \"#utility.yul\":17554:17790   */\n      iszero\n      tag_643\n      jumpi\n        /* \"#utility.yul\":17657:17676   */\n      dup9\n      dup7\n      add\n        /* \"#utility.yul\":17651:17677   */\n      mload\n        /* \"#utility.yul\":17636:17678   */\n      dup3\n      sstore\n        /* \"#utility.yul\":17749:17776   */\n      swap5\n      dup5\n      add\n      swap5\n        /* \"#utility.yul\":17717:17718   */\n      0x01\n        /* \"#utility.yul\":17705:17719   */\n      swap1\n      swap2\n      add\n      swap1\n        /* \"#utility.yul\":17584:17603   */\n      dup5\n      add\n        /* \"#utility.yul\":17554:17790   */\n      jump(tag_641)\n    tag_643:\n        /* \"#utility.yul\":17558:17561   */\n      pop\n        /* \"#utility.yul\":17818:17824   */\n      dup6\n        /* \"#utility.yul\":17809:17816   */\n      dup3\n        /* \"#utility.yul\":17806:17825   */\n      lt\n        /* \"#utility.yul\":17803:18004   */\n      iszero\n      tag_644\n      jumpi\n        /* \"#utility.yul\":17879:17898   */\n      dup8\n      dup6\n      add\n        /* \"#utility.yul\":17873:17899   */\n      mload\n      not(0x00)\n        /* \"#utility.yul\":17962:17963   */\n      0x03\n        /* \"#utility.yul\":17958:17972   */\n      dup9\n      swap1\n      shl\n        /* \"#utility.yul\":17974:17977   */\n      0xf8\n        /* \"#utility.yul\":17954:17978   */\n      and\n        /* \"#utility.yul\":17950:17987   */\n      shr\n        /* \"#utility.yul\":17946:17988   */\n      not\n        /* \"#utility.yul\":17931:17989   */\n      and\n        /* \"#utility.yul\":17916:17990   */\n      dup2\n      sstore\n        /* \"#utility.yul\":17803:18004   */\n    tag_644:\n      pop\n      pop\n        /* \"#utility.yul\":18050:18051   */\n      0x01\n        /* \"#utility.yul\":18041:18047   */\n      dup5\n        /* \"#utility.yul\":18038:18039   */\n      0x01\n        /* \"#utility.yul\":18034:18048   */\n      shl\n        /* \"#utility.yul\":18030:18052   */\n      add\n        /* \"#utility.yul\":18024:18028   */\n      dup6\n        /* \"#utility.yul\":18017:18053   */\n      sstore\n        /* \"#utility.yul\":17370:18314   */\n    tag_636:\n      pop\n      pop\n      pop\n      pop\n        /* \"#utility.yul\":16975:18320   */\n      pop\n      pop\n      jump\t// out\n        /* \"#utility.yul\":18325:19279   */\n    tag_281:\n        /* \"#utility.yul\":18690:18693   */\n      0xc0\n        /* \"#utility.yul\":18679:18688   */\n      dup2\n        /* \"#utility.yul\":18672:18694   */\n      mstore\n        /* \"#utility.yul\":18653:18657   */\n      0x00\n        /* \"#utility.yul\":18717:18763   */\n      tag_646\n        /* \"#utility.yul\":18758:18761   */\n      0xc0\n        /* \"#utility.yul\":18747:18756   */\n      dup4\n        /* \"#utility.yul\":18743:18762   */\n      add\n        /* \"#utility.yul\":18735:18741   */\n      dup10\n        /* \"#utility.yul\":18717:18763   */\n      tag_479\n      jump\t// in\n    tag_646:\n        /* \"#utility.yul\":18811:18820   */\n      dup3\n        /* \"#utility.yul\":18803:18809   */\n      dup2\n        /* \"#utility.yul\":18799:18821   */\n      sub\n        /* \"#utility.yul\":18794:18796   */\n      0x20\n        /* \"#utility.yul\":18783:18792   */\n      dup5\n        /* \"#utility.yul\":18779:18797   */\n      add\n        /* \"#utility.yul\":18772:18822   */\n      mstore\n        /* \"#utility.yul\":18845:18878   */\n      tag_647\n        /* \"#utility.yul\":18871:18877   */\n      dup2\n        /* \"#utility.yul\":18863:18869   */\n      dup10\n        /* \"#utility.yul\":18845:18878   */\n      tag_479\n      jump\t// in\n    tag_647:\n        /* \"#utility.yul\":18831:18878   */\n      swap1\n      pop\n        /* \"#utility.yul\":18926:18935   */\n      dup3\n        /* \"#utility.yul\":18918:18924   */\n      dup2\n        /* \"#utility.yul\":18914:18936   */\n      sub\n        /* \"#utility.yul\":18909:18911   */\n      0x40\n        /* \"#utility.yul\":18898:18907   */\n      dup5\n        /* \"#utility.yul\":18894:18912   */\n      add\n        /* \"#utility.yul\":18887:18937   */\n      mstore\n        /* \"#utility.yul\":18960:18993   */\n      tag_648\n        /* \"#utility.yul\":18986:18992   */\n      dup2\n        /* \"#utility.yul\":18978:18984   */\n      dup9\n        /* \"#utility.yul\":18960:18993   */\n      tag_479\n      jump\t// in\n    tag_648:\n        /* \"#utility.yul\":18946:18993   */\n      swap1\n      pop\n        /* \"#utility.yul\":19041:19050   */\n      dup3\n        /* \"#utility.yul\":19033:19039   */\n      dup2\n        /* \"#utility.yul\":19029:19051   */\n      sub\n        /* \"#utility.yul\":19024:19026   */\n      0x60\n        /* \"#utility.yul\":19013:19022   */\n      dup5\n        /* \"#utility.yul\":19009:19027   */\n      add\n        /* \"#utility.yul\":19002:19052   */\n      mstore\n        /* \"#utility.yul\":19075:19108   */\n      tag_649\n        /* \"#utility.yul\":19101:19107   */\n      dup2\n        /* \"#utility.yul\":19093:19099   */\n      dup8\n        /* \"#utility.yul\":19075:19108   */\n      tag_479\n      jump\t// in\n    tag_649:\n        /* \"#utility.yul\":19061:19108   */\n      swap1\n      pop\n        /* \"#utility.yul\":19157:19166   */\n      dup3\n        /* \"#utility.yul\":19149:19155   */\n      dup2\n        /* \"#utility.yul\":19145:19167   */\n      sub\n        /* \"#utility.yul\":19139:19142   */\n      0x80\n        /* \"#utility.yul\":19128:19137   */\n      dup5\n        /* \"#utility.yul\":19124:19143   */\n      add\n        /* \"#utility.yul\":19117:19168   */\n      mstore\n        /* \"#utility.yul\":19185:19218   */\n      tag_650\n        /* \"#utility.yul\":19211:19217   */\n      dup2\n        /* \"#utility.yul\":19203:19209   */\n      dup7\n        /* \"#utility.yul\":19185:19218   */\n      tag_479\n      jump\t// in\n    tag_650:\n        /* \"#utility.yul\":19177:19218   */\n      swap2\n      pop\n      pop\n        /* \"#utility.yul\":19267:19271   */\n      0xff\n        /* \"#utility.yul\":19259:19265   */\n      dup4\n        /* \"#utility.yul\":19255:19272   */\n      and\n        /* \"#utility.yul\":19249:19252   */\n      0xa0\n        /* \"#utility.yul\":19238:19247   */\n      dup4\n        /* \"#utility.yul\":19234:19253   */\n      add\n        /* \"#utility.yul\":19227:19273   */\n      mstore\n        /* \"#utility.yul\":18325:19279   */\n      swap8\n      swap7\n      pop\n      pop\n      pop\n      pop\n      pop\n      pop\n      pop\n      jump\t// out\n        /* \"#utility.yul\":19637:19821   */\n    tag_297:\n        /* \"#utility.yul\":19707:19713   */\n      0x00\n        /* \"#utility.yul\":19760:19762   */\n      0x20\n        /* \"#utility.yul\":19748:19757   */\n      dup3\n        /* \"#utility.yul\":19739:19746   */\n      dup5\n        /* \"#utility.yul\":19735:19758   */\n      sub\n        /* \"#utility.yul\":19731:19763   */\n      slt\n        /* \"#utility.yul\":19728:19780   */\n      iszero\n      tag_653\n      jumpi\n        /* \"#utility.yul\":19776:19777   */\n      0x00\n        /* \"#utility.yul\":19773:19774   */\n      dup1\n        /* \"#utility.yul\":19766:19778   */\n      revert\n        /* \"#utility.yul\":19728:19780   */\n    tag_653:\n      pop\n        /* \"#utility.yul\":19799:19815   */\n      mload\n      swap2\n        /* \"#utility.yul\":19637:19821   */\n      swap1\n      pop\n      jump\t// out\n        /* \"#utility.yul\":21299:21424   */\n    tag_399:\n        /* \"#utility.yul\":21364:21373   */\n      dup1\n      dup3\n      add\n        /* \"#utility.yul\":21385:21395   */\n      dup1\n      dup3\n      gt\n        /* \"#utility.yul\":21382:21418   */\n      iszero\n      tag_112\n      jumpi\n        /* \"#utility.yul\":21398:21416   */\n      tag_112\n      tag_485\n      jump\t// in\n\n    auxdata: 0xa26469706673582212209d3aeea226e87620612e1711da0e65f0b9aa3753e6992f74390dcc3bf7cf045564736f6c63430008160033\n}\n\nsub_1: assembly {\n        /* \"packages/revolution-contracts/MaxHeap.sol\":388:4975  contract MaxHeap is Ownable, ReentrancyGuard {... */\n      mstore(0x40, 0x80)\n        /* \"packages/revolution-contracts/MaxHeap.sol\":574:575  0 */\n      0x00\n        /* \"packages/revolution-contracts/MaxHeap.sol\":552:575  uint256 public size = 0 */\n      0x03\n      sstore\n        /* \"packages/revolution-contracts/MaxHeap.sol\":946:992  constructor(address _owner) Ownable(_owner) {} */\n      callvalue\n      dup1\n      iszero\n      tag_1\n      jumpi\n      0x00\n      dup1\n      revert\n    tag_1:\n      pop\n      mload(0x40)\n      sub(codesize, bytecodeSize)\n      dup1\n      bytecodeSize\n      dup4\n      codecopy\n      dup2\n      add\n      0x40\n      dup2\n      swap1\n      mstore\n      tag_2\n      swap2\n      tag_3\n      jump\t// in\n    tag_2:\n        /* \"packages/revolution-contracts/MaxHeap.sol\":982:988  _owner */\n      dup1\n      sub(shl(0xa0, 0x01), 0x01)\n        /* \"@openzeppelin/contracts/access/Ownable.sol\":1273:1299  initialOwner == address(0) */\n      dup2\n      and\n        /* \"@openzeppelin/contracts/access/Ownable.sol\":1269:1364  if (initialOwner == address(0)) {... */\n      tag_8\n      jumpi\n        /* \"@openzeppelin/contracts/access/Ownable.sol\":1322:1353  OwnableInvalidOwner(address(0)) */\n      mload(0x40)\n      shl(0xe0, 0x1e4fbdf7)\n      dup2\n      mstore\n        /* \"@openzeppelin/contracts/access/Ownable.sol\":1350:1351  0 */\n      0x00\n        /* \"@openzeppelin/contracts/access/Ownable.sol\":1322:1353  OwnableInvalidOwner(address(0)) */\n      0x04\n      dup3\n      add\n        /* \"#utility.yul\":455:506   */\n      mstore\n        /* \"#utility.yul\":428:446   */\n      0x24\n      add\n        /* \"@openzeppelin/contracts/access/Ownable.sol\":1322:1353  OwnableInvalidOwner(address(0)) */\n      mload(0x40)\n      dup1\n      swap2\n      sub\n      swap1\n      revert\n        /* \"@openzeppelin/contracts/access/Ownable.sol\":1269:1364  if (initialOwner == address(0)) {... */\n    tag_8:\n        /* \"@openzeppelin/contracts/access/Ownable.sol\":1373:1405  _transferOwnership(initialOwner) */\n      tag_11\n        /* \"@openzeppelin/contracts/access/Ownable.sol\":1392:1404  initialOwner */\n      dup2\n        /* \"@openzeppelin/contracts/access/Ownable.sol\":1373:1391  _transferOwnership */\n      tag_12\n        /* \"@openzeppelin/contracts/access/Ownable.sol\":1373:1405  _transferOwnership(initialOwner) */\n      jump\t// in\n    tag_11:\n      pop\n      pop\n        /* \"@openzeppelin/contracts/utils/ReentrancyGuard.sol\":1713:1714  1 */\n      0x01\n        /* \"@openzeppelin/contracts/utils/ReentrancyGuard.sol\":1917:1938  _status = NOT_ENTERED */\n      dup1\n      sstore\n        /* \"packages/revolution-contracts/MaxHeap.sol\":388:4975  contract MaxHeap is Ownable, ReentrancyGuard {... */\n      jump(tag_17)\n        /* \"@openzeppelin/contracts/access/Ownable.sol\":2912:3099  function _transferOwnership(address newOwner) internal virtual {... */\n    tag_12:\n        /* \"@openzeppelin/contracts/access/Ownable.sol\":2985:3001  address oldOwner */\n      0x00\n        /* \"@openzeppelin/contracts/access/Ownable.sol\":3004:3010  _owner */\n      dup1\n      sload\n      sub(shl(0xa0, 0x01), 0x01)\n        /* \"@openzeppelin/contracts/access/Ownable.sol\":3020:3037  _owner = newOwner */\n      dup4\n      dup2\n      and\n      not(sub(shl(0xa0, 0x01), 0x01))\n      dup4\n      and\n      dup2\n      or\n      dup5\n      sstore\n        /* \"@openzeppelin/contracts/access/Ownable.sol\":3052:3092  OwnershipTransferred(oldOwner, newOwner) */\n      mload(0x40)\n        /* \"@openzeppelin/contracts/access/Ownable.sol\":3004:3010  _owner */\n      swap2\n      swap1\n      swap3\n      and\n      swap3\n      dup4\n      swap2\n        /* \"@openzeppelin/contracts/access/Ownable.sol\":3052:3092  OwnershipTransferred(oldOwner, newOwner) */\n      0x8be0079c531659141344cd1fd0a4f28419497f9722a3daafe3b4186f6b6457e0\n      swap2\n        /* \"@openzeppelin/contracts/access/Ownable.sol\":2985:3001  address oldOwner */\n      swap1\n        /* \"@openzeppelin/contracts/access/Ownable.sol\":3052:3092  OwnershipTransferred(oldOwner, newOwner) */\n      log3\n        /* \"@openzeppelin/contracts/access/Ownable.sol\":2975:3099  {... */\n      pop\n        /* \"@openzeppelin/contracts/access/Ownable.sol\":2912:3099  function _transferOwnership(address newOwner) internal virtual {... */\n      pop\n      jump\t// out\n        /* \"#utility.yul\":14:304   */\n    tag_3:\n        /* \"#utility.yul\":84:90   */\n      0x00\n        /* \"#utility.yul\":137:139   */\n      0x20\n        /* \"#utility.yul\":125:134   */\n      dup3\n        /* \"#utility.yul\":116:123   */\n      dup5\n        /* \"#utility.yul\":112:135   */\n      sub\n        /* \"#utility.yul\":108:140   */\n      slt\n        /* \"#utility.yul\":105:157   */\n      iszero\n      tag_19\n      jumpi\n        /* \"#utility.yul\":153:154   */\n      0x00\n        /* \"#utility.yul\":150:151   */\n      dup1\n        /* \"#utility.yul\":143:155   */\n      revert\n        /* \"#utility.yul\":105:157   */\n    tag_19:\n        /* \"#utility.yul\":179:195   */\n      dup2\n      mload\n      sub(shl(0xa0, 0x01), 0x01)\n        /* \"#utility.yul\":224:255   */\n      dup2\n      and\n        /* \"#utility.yul\":214:256   */\n      dup2\n      eq\n        /* \"#utility.yul\":204:274   */\n      tag_20\n      jumpi\n        /* \"#utility.yul\":270:271   */\n      0x00\n        /* \"#utility.yul\":267:268   */\n      dup1\n        /* \"#utility.yul\":260:272   */\n      revert\n        /* \"#utility.yul\":204:274   */\n    tag_20:\n        /* \"#utility.yul\":293:298   */\n      swap4\n        /* \"#utility.yul\":14:304   */\n      swap3\n      pop\n      pop\n      pop\n      jump\t// out\n        /* \"#utility.yul\":309:512   */\n    tag_17:\n        /* \"packages/revolution-contracts/MaxHeap.sol\":388:4975  contract MaxHeap is Ownable, ReentrancyGuard {... */\n      dataSize(sub_0)\n      dup1\n      dataOffset(sub_0)\n      0x00\n      codecopy\n      0x00\n      return\n    stop\n\n    sub_0: assembly {\n            /* \"packages/revolution-contracts/MaxHeap.sol\":388:4975  contract MaxHeap is Ownable, ReentrancyGuard {... */\n          mstore(0x40, 0x80)\n          callvalue\n          dup1\n          iszero\n          tag_1\n          jumpi\n          0x00\n          dup1\n          revert\n        tag_1:\n          pop\n          jumpi(tag_2, lt(calldatasize, 0x04))\n          shr(0xe0, calldataload(0x00))\n          dup1\n          0x8860805a\n          gt\n          tag_15\n          jumpi\n          dup1\n          0x8860805a\n          eq\n          tag_9\n          jumpi\n          dup1\n          0x8da5cb5b\n          eq\n          tag_10\n          jumpi\n          dup1\n          0x949d225d\n          eq\n          tag_11\n          jumpi\n          dup1\n          0x9f9a7f50\n          eq\n          tag_12\n          jumpi\n          dup1\n          0xf1269e01\n          eq\n          tag_13\n          jumpi\n          dup1\n          0xf2fde38b\n          eq\n          tag_14\n          jumpi\n          0x00\n          dup1\n          revert\n        tag_15:\n          dup1\n          0x1c01f292\n          eq\n          tag_3\n          jumpi\n          dup1\n          0x1d834a1b\n          eq\n          tag_4\n          jumpi\n          dup1\n          0x3075f552\n          eq\n          tag_5\n          jumpi\n          dup1\n          0x5b500826\n          eq\n          tag_6\n          jumpi\n          dup1\n          0x715018a6\n          eq\n          tag_7\n          jumpi\n          dup1\n          0x843f9793\n          eq\n          tag_8\n          jumpi\n        tag_2:\n          0x00\n          dup1\n          revert\n            /* \"packages/revolution-contracts/MaxHeap.sol\":506:545  mapping(uint256 => uint256) public heap */\n        tag_3:\n          tag_16\n          tag_17\n          calldatasize\n          0x04\n          tag_18\n          jump\t// in\n        tag_17:\n          mstore(0x20, 0x02)\n          0x00\n          swap1\n          dup2\n          mstore\n          0x40\n          swap1\n          keccak256\n          sload\n          dup2\n          jump\n        tag_16:\n          mload(0x40)\n            /* \"#utility.yul\":345:370   */\n          swap1\n          dup2\n          mstore\n            /* \"#utility.yul\":333:335   */\n          0x20\n            /* \"#utility.yul\":318:336   */\n          add\n            /* \"packages/revolution-contracts/MaxHeap.sol\":506:545  mapping(uint256 => uint256) public heap */\n        tag_20:\n          mload(0x40)\n          dup1\n          swap2\n          sub\n          swap1\n          return\n            /* \"packages/revolution-contracts/MaxHeap.sol\":2699:3178  function insert(uint256 itemId, uint256 value) public onlyOwner {... */\n        tag_4:\n          tag_22\n          tag_23\n          calldatasize\n          0x04\n          tag_24\n          jump\t// in\n        tag_23:\n          tag_25\n          jump\t// in\n        tag_22:\n          stop\n            /* \"packages/revolution-contracts/MaxHeap.sol\":4816:4973  function getMax() public view returns (uint256, uint256) {... */\n        tag_5:\n          tag_26\n          tag_27\n          jump\t// in\n        tag_26:\n          0x40\n          dup1\n          mload\n            /* \"#utility.yul\":808:833   */\n          swap3\n          dup4\n          mstore\n            /* \"#utility.yul\":864:866   */\n          0x20\n            /* \"#utility.yul\":849:867   */\n          dup4\n          add\n            /* \"#utility.yul\":842:876   */\n          swap2\n          swap1\n          swap2\n          mstore\n            /* \"#utility.yul\":781:799   */\n          add\n            /* \"packages/revolution-contracts/MaxHeap.sol\":4816:4973  function getMax() public view returns (uint256, uint256) {... */\n          tag_20\n            /* \"#utility.yul\":634:882   */\n          jump\n            /* \"packages/revolution-contracts/MaxHeap.sol\":3479:4217  function updateValue(uint256 itemId, uint256 newValue) public onlyOwner {... */\n        tag_6:\n          tag_22\n          tag_31\n          calldatasize\n          0x04\n          tag_24\n          jump\t// in\n        tag_31:\n          tag_32\n          jump\t// in\n            /* \"@openzeppelin/contracts/access/Ownable.sol\":2293:2394  function renounceOwnership() public virtual onlyOwner {... */\n        tag_7:\n          tag_22\n          tag_34\n          jump\t// in\n            /* \"packages/revolution-contracts/MaxHeap.sol\":787:837  mapping(uint256 => uint256) public positionMapping */\n        tag_8:\n          tag_16\n          tag_36\n          calldatasize\n          0x04\n          tag_18\n          jump\t// in\n        tag_36:\n          mstore(0x20, 0x05)\n          0x00\n          swap1\n          dup2\n          mstore\n          0x40\n          swap1\n          keccak256\n          sload\n          dup2\n          jump\n            /* \"packages/revolution-contracts/MaxHeap.sol\":4390:4647  function extractMax() external onlyOwner returns (uint256, uint256) {... */\n        tag_9:\n          tag_26\n          tag_40\n          jump\t// in\n            /* \"@openzeppelin/contracts/access/Ownable.sol\":1638:1723  function owner() public view virtual returns (address) {... */\n        tag_10:\n            /* \"@openzeppelin/contracts/access/Ownable.sol\":1684:1691  address */\n          0x00\n            /* \"@openzeppelin/contracts/access/Ownable.sol\":1710:1716  _owner */\n          sload\n            /* \"@openzeppelin/contracts/access/Ownable.sol\":1638:1723  function owner() public view virtual returns (address) {... */\n          mload(0x40)\n          sub(shl(0xa0, 0x01), 0x01)\n            /* \"@openzeppelin/contracts/access/Ownable.sol\":1710:1716  _owner */\n          swap1\n          swap2\n          and\n            /* \"#utility.yul\":1033:1084   */\n          dup2\n          mstore\n            /* \"#utility.yul\":1021:1023   */\n          0x20\n            /* \"#utility.yul\":1006:1024   */\n          add\n            /* \"@openzeppelin/contracts/access/Ownable.sol\":1638:1723  function owner() public view virtual returns (address) {... */\n          tag_20\n            /* \"#utility.yul\":887:1090   */\n          jump\n            /* \"packages/revolution-contracts/MaxHeap.sol\":552:575  uint256 public size = 0 */\n        tag_11:\n          tag_16\n          sload(0x03)\n          dup2\n          jump\n            /* \"packages/revolution-contracts/MaxHeap.sol\":1869:2502  function maxHeapify(uint256 pos) public onlyOwner {... */\n        tag_12:\n          tag_22\n          tag_50\n          calldatasize\n          0x04\n          tag_18\n          jump\t// in\n        tag_50:\n          tag_51\n          jump\t// in\n            /* \"packages/revolution-contracts/MaxHeap.sol\":656:703  mapping(uint256 => uint256) public valueMapping */\n        tag_13:\n          tag_16\n          tag_53\n          calldatasize\n          0x04\n          tag_18\n          jump\t// in\n        tag_53:\n          mstore(0x20, 0x04)\n          0x00\n          swap1\n          dup2\n          mstore\n          0x40\n          swap1\n          keccak256\n          sload\n          dup2\n          jump\n            /* \"@openzeppelin/contracts/access/Ownable.sol\":2543:2758  function transferOwnership(address newOwner) public virtual onlyOwner {... */\n        tag_14:\n          tag_22\n          tag_57\n          calldatasize\n          0x04\n          tag_58\n          jump\t// in\n        tag_57:\n          tag_59\n          jump\t// in\n            /* \"packages/revolution-contracts/MaxHeap.sol\":2699:3178  function insert(uint256 itemId, uint256 value) public onlyOwner {... */\n        tag_25:\n            /* \"@openzeppelin/contracts/access/Ownable.sol\":1531:1544  _checkOwner() */\n          tag_61\n            /* \"@openzeppelin/contracts/access/Ownable.sol\":1531:1542  _checkOwner */\n          tag_62\n            /* \"@openzeppelin/contracts/access/Ownable.sol\":1531:1544  _checkOwner() */\n          jump\t// in\n        tag_61:\n            /* \"packages/revolution-contracts/MaxHeap.sol\":2778:2782  size */\n          0x03\n          dup1\n          sload\n            /* \"packages/revolution-contracts/MaxHeap.sol\":2773:2783  heap[size] */\n          0x00\n          swap1\n          dup2\n          mstore\n            /* \"packages/revolution-contracts/MaxHeap.sol\":2773:2777  heap */\n          0x02\n            /* \"packages/revolution-contracts/MaxHeap.sol\":2773:2783  heap[size] */\n          0x20\n          swap1\n          dup2\n          mstore\n          0x40\n          dup1\n          dup4\n          keccak256\n            /* \"packages/revolution-contracts/MaxHeap.sol\":2773:2792  heap[size] = itemId */\n          dup7\n          swap1\n          sstore\n            /* \"packages/revolution-contracts/MaxHeap.sol\":2802:2822  valueMapping[itemId] */\n          dup6\n          dup4\n          mstore\n            /* \"packages/revolution-contracts/MaxHeap.sol\":2802:2814  valueMapping */\n          0x04\n            /* \"packages/revolution-contracts/MaxHeap.sol\":2802:2822  valueMapping[itemId] */\n          dup3\n          mstore\n          dup1\n          dup4\n          keccak256\n            /* \"packages/revolution-contracts/MaxHeap.sol\":2802:2830  valueMapping[itemId] = value */\n          dup6\n          swap1\n          sstore\n            /* \"packages/revolution-contracts/MaxHeap.sol\":2894:2898  size */\n          swap3\n          sload\n            /* \"packages/revolution-contracts/MaxHeap.sol\":2868:2883  positionMapping */\n          0x05\n            /* \"packages/revolution-contracts/MaxHeap.sol\":2868:2891  positionMapping[itemId] */\n          swap1\n          swap2\n          mstore\n          swap2\n          swap1\n          keccak256\n            /* \"packages/revolution-contracts/MaxHeap.sol\":2868:2898  positionMapping[itemId] = size */\n          dup2\n          swap1\n          sstore\n            /* \"packages/revolution-contracts/MaxHeap.sol\":2972:3156  while (current != 0 && valueMapping[heap[current]] > valueMapping[heap[parent(current)]]) {... */\n        tag_64:\n            /* \"packages/revolution-contracts/MaxHeap.sol\":2979:2991  current != 0 */\n          dup1\n          iszero\n          dup1\n          iszero\n          swap1\n            /* \"packages/revolution-contracts/MaxHeap.sol\":2979:3060  current != 0 && valueMapping[heap[current]] > valueMapping[heap[parent(current)]] */\n          tag_66\n          jumpi\n          pop\n            /* \"packages/revolution-contracts/MaxHeap.sol\":3025:3037  valueMapping */\n          0x04\n            /* \"packages/revolution-contracts/MaxHeap.sol\":3025:3060  valueMapping[heap[parent(current)]] */\n          0x00\n            /* \"packages/revolution-contracts/MaxHeap.sol\":3038:3042  heap */\n          0x02\n            /* \"packages/revolution-contracts/MaxHeap.sol\":3038:3059  heap[parent(current)] */\n          0x00\n            /* \"packages/revolution-contracts/MaxHeap.sol\":3043:3058  parent(current) */\n          tag_67\n            /* \"packages/revolution-contracts/MaxHeap.sol\":3050:3057  current */\n          dup6\n            /* \"packages/revolution-contracts/MaxHeap.sol\":3043:3049  parent */\n          tag_68\n            /* \"packages/revolution-contracts/MaxHeap.sol\":3043:3058  parent(current) */\n          jump\t// in\n        tag_67:\n            /* \"packages/revolution-contracts/MaxHeap.sol\":3038:3059  heap[parent(current)] */\n          dup2\n          mstore\n          0x20\n          add\n          swap1\n          dup2\n          mstore\n          0x20\n          add\n          0x00\n          keccak256\n          sload\n            /* \"packages/revolution-contracts/MaxHeap.sol\":3025:3060  valueMapping[heap[parent(current)]] */\n          dup2\n          mstore\n          0x20\n          add\n          swap1\n          dup2\n          mstore\n          0x20\n          add\n          0x00\n          keccak256\n          sload\n            /* \"packages/revolution-contracts/MaxHeap.sol\":2995:3007  valueMapping */\n          0x04\n            /* \"packages/revolution-contracts/MaxHeap.sol\":2995:3022  valueMapping[heap[current]] */\n          0x00\n            /* \"packages/revolution-contracts/MaxHeap.sol\":3008:3012  heap */\n          0x02\n            /* \"packages/revolution-contracts/MaxHeap.sol\":3008:3021  heap[current] */\n          0x00\n            /* \"packages/revolution-contracts/MaxHeap.sol\":3013:3020  current */\n          dup6\n            /* \"packages/revolution-contracts/MaxHeap.sol\":3008:3021  heap[current] */\n          dup2\n          mstore\n          0x20\n          add\n          swap1\n          dup2\n          mstore\n          0x20\n          add\n          0x00\n          keccak256\n          sload\n            /* \"packages/revolution-contracts/MaxHeap.sol\":2995:3022  valueMapping[heap[current]] */\n          dup2\n          mstore\n          0x20\n          add\n          swap1\n          dup2\n          mstore\n          0x20\n          add\n          0x00\n          keccak256\n          sload\n            /* \"packages/revolution-contracts/MaxHeap.sol\":2995:3060  valueMapping[heap[current]] > valueMapping[heap[parent(current)]] */\n          gt\n            /* \"packages/revolution-contracts/MaxHeap.sol\":2979:3060  current != 0 && valueMapping[heap[current]] > valueMapping[heap[parent(current)]] */\n        tag_66:\n            /* \"packages/revolution-contracts/MaxHeap.sol\":2972:3156  while (current != 0 && valueMapping[heap[current]] > valueMapping[heap[parent(current)]]) {... */\n          iszero\n          tag_65\n          jumpi\n            /* \"packages/revolution-contracts/MaxHeap.sol\":3076:3106  swap(current, parent(current)) */\n          tag_69\n            /* \"packages/revolution-contracts/MaxHeap.sol\":3081:3088  current */\n          dup2\n            /* \"packages/revolution-contracts/MaxHeap.sol\":3090:3105  parent(current) */\n          tag_70\n            /* \"packages/revolution-contracts/MaxHeap.sol\":3097:3104  current */\n          dup4\n            /* \"packages/revolution-contracts/MaxHeap.sol\":3090:3096  parent */\n          tag_68\n            /* \"packages/revolution-contracts/MaxHeap.sol\":3090:3105  parent(current) */\n          jump\t// in\n        tag_70:\n            /* \"packages/revolution-contracts/MaxHeap.sol\":3076:3080  swap */\n          tag_71\n            /* \"packages/revolution-contracts/MaxHeap.sol\":3076:3106  swap(current, parent(current)) */\n          jump\t// in\n        tag_69:\n            /* \"packages/revolution-contracts/MaxHeap.sol\":3130:3145  parent(current) */\n          tag_72\n            /* \"packages/revolution-contracts/MaxHeap.sol\":3137:3144  current */\n          dup2\n            /* \"packages/revolution-contracts/MaxHeap.sol\":3130:3136  parent */\n          tag_68\n            /* \"packages/revolution-contracts/MaxHeap.sol\":3130:3145  parent(current) */\n          jump\t// in\n        tag_72:\n            /* \"packages/revolution-contracts/MaxHeap.sol\":3120:3145  current = parent(current) */\n          swap1\n          pop\n            /* \"packages/revolution-contracts/MaxHeap.sol\":2972:3156  while (current != 0 && valueMapping[heap[current]] > valueMapping[heap[parent(current)]]) {... */\n          jump(tag_64)\n        tag_65:\n            /* \"packages/revolution-contracts/MaxHeap.sol\":3165:3169  size */\n          0x03\n            /* \"packages/revolution-contracts/MaxHeap.sol\":3165:3171  size++ */\n          dup1\n          sload\n          swap1\n            /* \"packages/revolution-contracts/MaxHeap.sol\":3165:3169  size */\n          0x00\n            /* \"packages/revolution-contracts/MaxHeap.sol\":3165:3171  size++ */\n          tag_73\n          dup4\n          tag_74\n          jump\t// in\n        tag_73:\n          swap2\n          swap1\n          pop\n          sstore\n          pop\n            /* \"packages/revolution-contracts/MaxHeap.sol\":2763:3178  {... */\n          pop\n            /* \"packages/revolution-contracts/MaxHeap.sol\":2699:3178  function insert(uint256 itemId, uint256 value) public onlyOwner {... */\n          pop\n          pop\n          jump\t// out\n            /* \"packages/revolution-contracts/MaxHeap.sol\":4816:4973  function getMax() public view returns (uint256, uint256) {... */\n        tag_27:\n            /* \"packages/revolution-contracts/MaxHeap.sol\":4855:4862  uint256 */\n          0x00\n            /* \"packages/revolution-contracts/MaxHeap.sol\":4864:4871  uint256 */\n          dup1\n            /* \"packages/revolution-contracts/MaxHeap.sol\":4898:4899  0 */\n          0x00\n            /* \"packages/revolution-contracts/MaxHeap.sol\":4891:4895  size */\n          sload(0x03)\n            /* \"packages/revolution-contracts/MaxHeap.sol\":4891:4899  size > 0 */\n          gt\n            /* \"packages/revolution-contracts/MaxHeap.sol\":4883:4917  require(size > 0, \"Heap is empty\") */\n          tag_76\n          jumpi\n          mload(0x40)\n          shl(0xe5, 0x461bcd)\n          dup2\n          mstore\n            /* \"#utility.yul\":1860:1862   */\n          0x20\n            /* \"packages/revolution-contracts/MaxHeap.sol\":4883:4917  require(size > 0, \"Heap is empty\") */\n          0x04\n          dup3\n          add\n            /* \"#utility.yul\":1842:1863   */\n          mstore\n            /* \"#utility.yul\":1899:1901   */\n          0x0d\n            /* \"#utility.yul\":1879:1897   */\n          0x24\n          dup3\n          add\n            /* \"#utility.yul\":1872:1902   */\n          mstore\n          shl(0x98, 0x4865617020697320656d707479)\n            /* \"#utility.yul\":1918:1936   */\n          0x44\n          dup3\n          add\n            /* \"#utility.yul\":1911:1954   */\n          mstore\n            /* \"#utility.yul\":1971:1989   */\n          0x64\n          add\n            /* \"packages/revolution-contracts/MaxHeap.sol\":4883:4917  require(size > 0, \"Heap is empty\") */\n        tag_77:\n          mload(0x40)\n          dup1\n          swap2\n          sub\n          swap1\n          revert\n        tag_76:\n          pop\n          pop\n            /* \"packages/revolution-contracts/MaxHeap.sol\":4935:4942  heap[0] */\n          sload(0xac33ff75c19e70fe83507db0d683fd3465c996598dc972688b7ace676c89077b)\n          0x00\n            /* \"packages/revolution-contracts/MaxHeap.sol\":4944:4965  valueMapping[heap[0]] */\n          dup2\n          dup2\n          mstore\n            /* \"packages/revolution-contracts/MaxHeap.sol\":4944:4956  valueMapping */\n          0x04\n            /* \"packages/revolution-contracts/MaxHeap.sol\":4935:4942  heap[0] */\n          0x20\n            /* \"packages/revolution-contracts/MaxHeap.sol\":4944:4965  valueMapping[heap[0]] */\n          mstore\n            /* \"packages/revolution-contracts/MaxHeap.sol\":4935:4942  heap[0] */\n          0x40\n            /* \"packages/revolution-contracts/MaxHeap.sol\":4944:4965  valueMapping[heap[0]] */\n          swap1\n          keccak256\n          sload\n            /* \"packages/revolution-contracts/MaxHeap.sol\":4935:4942  heap[0] */\n          swap1\n          swap2\n            /* \"packages/revolution-contracts/MaxHeap.sol\":4816:4973  function getMax() public view returns (uint256, uint256) {... */\n          jump\t// out\n            /* \"packages/revolution-contracts/MaxHeap.sol\":3479:4217  function updateValue(uint256 itemId, uint256 newValue) public onlyOwner {... */\n        tag_32:\n            /* \"@openzeppelin/contracts/access/Ownable.sol\":1531:1544  _checkOwner() */\n          tag_80\n            /* \"@openzeppelin/contracts/access/Ownable.sol\":1531:1542  _checkOwner */\n          tag_62\n            /* \"@openzeppelin/contracts/access/Ownable.sol\":1531:1544  _checkOwner() */\n          jump\t// in\n        tag_80:\n            /* \"packages/revolution-contracts/MaxHeap.sol\":3561:3577  uint256 position */\n          0x00\n            /* \"packages/revolution-contracts/MaxHeap.sol\":3580:3603  positionMapping[itemId] */\n          dup3\n          dup2\n          mstore\n            /* \"packages/revolution-contracts/MaxHeap.sol\":3580:3595  positionMapping */\n          0x05\n            /* \"packages/revolution-contracts/MaxHeap.sol\":3580:3603  positionMapping[itemId] */\n          0x20\n          swap1\n          dup2\n          mstore\n          0x40\n          dup1\n          dup4\n          keccak256\n          sload\n            /* \"packages/revolution-contracts/MaxHeap.sol\":3632:3644  valueMapping */\n          0x04\n            /* \"packages/revolution-contracts/MaxHeap.sol\":3632:3652  valueMapping[itemId] */\n          swap1\n          swap3\n          mstore\n          swap1\n          swap2\n          keccak256\n          dup1\n          sload\n            /* \"packages/revolution-contracts/MaxHeap.sol\":3711:3742  valueMapping[itemId] = newValue */\n          swap1\n          dup4\n          swap1\n          sstore\n            /* \"packages/revolution-contracts/MaxHeap.sol\":3823:3842  newValue > oldValue */\n          dup1\n          dup4\n          gt\n            /* \"packages/revolution-contracts/MaxHeap.sol\":3819:4211  if (newValue > oldValue) {... */\n          iszero\n          tag_82\n          jumpi\n            /* \"packages/revolution-contracts/MaxHeap.sol\":3889:4092  while (position != 0 && valueMapping[heap[position]] > valueMapping[heap[parent(position)]]) {... */\n        tag_83:\n            /* \"packages/revolution-contracts/MaxHeap.sol\":3896:3909  position != 0 */\n          dup2\n          iszero\n          dup1\n          iszero\n          swap1\n            /* \"packages/revolution-contracts/MaxHeap.sol\":3896:3980  position != 0 && valueMapping[heap[position]] > valueMapping[heap[parent(position)]] */\n          tag_85\n          jumpi\n          pop\n            /* \"packages/revolution-contracts/MaxHeap.sol\":3944:3956  valueMapping */\n          0x04\n            /* \"packages/revolution-contracts/MaxHeap.sol\":3944:3980  valueMapping[heap[parent(position)]] */\n          0x00\n            /* \"packages/revolution-contracts/MaxHeap.sol\":3957:3961  heap */\n          0x02\n            /* \"packages/revolution-contracts/MaxHeap.sol\":3957:3979  heap[parent(position)] */\n          0x00\n            /* \"packages/revolution-contracts/MaxHeap.sol\":3962:3978  parent(position) */\n          tag_86\n            /* \"packages/revolution-contracts/MaxHeap.sol\":3969:3977  position */\n          dup7\n            /* \"packages/revolution-contracts/MaxHeap.sol\":3962:3968  parent */\n          tag_68\n            /* \"packages/revolution-contracts/MaxHeap.sol\":3962:3978  parent(position) */\n          jump\t// in\n        tag_86:\n            /* \"packages/revolution-contracts/MaxHeap.sol\":3957:3979  heap[parent(position)] */\n          dup2\n          mstore\n          0x20\n          add\n          swap1\n          dup2\n          mstore\n          0x20\n          add\n          0x00\n          keccak256\n          sload\n            /* \"packages/revolution-contracts/MaxHeap.sol\":3944:3980  valueMapping[heap[parent(position)]] */\n          dup2\n          mstore\n          0x20\n          add\n          swap1\n          dup2\n          mstore\n          0x20\n          add\n          0x00\n          keccak256\n          sload\n            /* \"packages/revolution-contracts/MaxHeap.sol\":3913:3925  valueMapping */\n          0x04\n            /* \"packages/revolution-contracts/MaxHeap.sol\":3913:3941  valueMapping[heap[position]] */\n          0x00\n            /* \"packages/revolution-contracts/MaxHeap.sol\":3926:3930  heap */\n          0x02\n            /* \"packages/revolution-contracts/MaxHeap.sol\":3926:3940  heap[position] */\n          0x00\n            /* \"packages/revolution-contracts/MaxHeap.sol\":3931:3939  position */\n          dup7\n            /* \"packages/revolution-contracts/MaxHeap.sol\":3926:3940  heap[position] */\n          dup2\n          mstore\n          0x20\n          add\n          swap1\n          dup2\n          mstore\n          0x20\n          add\n          0x00\n          keccak256\n          sload\n            /* \"packages/revolution-contracts/MaxHeap.sol\":3913:3941  valueMapping[heap[position]] */\n          dup2\n          mstore\n          0x20\n          add\n          swap1\n          dup2\n          mstore\n          0x20\n          add\n          0x00\n          keccak256\n          sload\n            /* \"packages/revolution-contracts/MaxHeap.sol\":3913:3980  valueMapping[heap[position]] > valueMapping[heap[parent(position)]] */\n          gt\n            /* \"packages/revolution-contracts/MaxHeap.sol\":3896:3980  position != 0 && valueMapping[heap[position]] > valueMapping[heap[parent(position)]] */\n        tag_85:\n            /* \"packages/revolution-contracts/MaxHeap.sol\":3889:4092  while (position != 0 && valueMapping[heap[position]] > valueMapping[heap[parent(position)]]) {... */\n          iszero\n          tag_84\n          jumpi\n            /* \"packages/revolution-contracts/MaxHeap.sol\":4000:4032  swap(position, parent(position)) */\n          tag_87\n            /* \"packages/revolution-contracts/MaxHeap.sol\":4005:4013  position */\n          dup3\n            /* \"packages/revolution-contracts/MaxHeap.sol\":4015:4031  parent(position) */\n          tag_70\n            /* \"packages/revolution-contracts/MaxHeap.sol\":4022:4030  position */\n          dup5\n            /* \"packages/revolution-contracts/MaxHeap.sol\":4015:4021  parent */\n          tag_68\n            /* \"packages/revolution-contracts/MaxHeap.sol\":4015:4031  parent(position) */\n          jump\t// in\n            /* \"packages/revolution-contracts/MaxHeap.sol\":4000:4032  swap(position, parent(position)) */\n        tag_87:\n            /* \"packages/revolution-contracts/MaxHeap.sol\":4061:4077  parent(position) */\n          tag_89\n            /* \"packages/revolution-contracts/MaxHeap.sol\":4068:4076  position */\n          dup3\n            /* \"packages/revolution-contracts/MaxHeap.sol\":4061:4067  parent */\n          tag_68\n            /* \"packages/revolution-contracts/MaxHeap.sol\":4061:4077  parent(position) */\n          jump\t// in\n        tag_89:\n            /* \"packages/revolution-contracts/MaxHeap.sol\":4050:4077  position = parent(position) */\n          swap2\n          pop\n            /* \"packages/revolution-contracts/MaxHeap.sol\":3889:4092  while (position != 0 && valueMapping[heap[position]] > valueMapping[heap[parent(position)]]) {... */\n          jump(tag_83)\n        tag_84:\n            /* \"packages/revolution-contracts/MaxHeap.sol\":3819:4211  if (newValue > oldValue) {... */\n          jump(tag_92)\n        tag_82:\n            /* \"packages/revolution-contracts/MaxHeap.sol\":4123:4131  oldValue */\n          dup1\n            /* \"packages/revolution-contracts/MaxHeap.sol\":4112:4120  newValue */\n          dup4\n            /* \"packages/revolution-contracts/MaxHeap.sol\":4112:4131  newValue < oldValue */\n          lt\n            /* \"packages/revolution-contracts/MaxHeap.sol\":4108:4211  if (newValue < oldValue) {... */\n          iszero\n          tag_92\n          jumpi\n            /* \"packages/revolution-contracts/MaxHeap.sol\":4180:4200  maxHeapify(position) */\n          tag_92\n            /* \"packages/revolution-contracts/MaxHeap.sol\":4191:4199  position */\n          dup3\n            /* \"packages/revolution-contracts/MaxHeap.sol\":4180:4190  maxHeapify */\n          tag_51\n            /* \"packages/revolution-contracts/MaxHeap.sol\":4180:4200  maxHeapify(position) */\n          jump\t// in\n        tag_92:\n            /* \"packages/revolution-contracts/MaxHeap.sol\":3551:4217  {... */\n          pop\n          pop\n            /* \"packages/revolution-contracts/MaxHeap.sol\":3479:4217  function updateValue(uint256 itemId, uint256 newValue) public onlyOwner {... */\n          pop\n          pop\n          jump\t// out\n            /* \"@openzeppelin/contracts/access/Ownable.sol\":2293:2394  function renounceOwnership() public virtual onlyOwner {... */\n        tag_34:\n            /* \"@openzeppelin/contracts/access/Ownable.sol\":1531:1544  _checkOwner() */\n          tag_94\n            /* \"@openzeppelin/contracts/access/Ownable.sol\":1531:1542  _checkOwner */\n          tag_62\n            /* \"@openzeppelin/contracts/access/Ownable.sol\":1531:1544  _checkOwner() */\n          jump\t// in\n        tag_94:\n            /* \"@openzeppelin/contracts/access/Ownable.sol\":2357:2387  _transferOwnership(address(0)) */\n          tag_96\n            /* \"@openzeppelin/contracts/access/Ownable.sol\":2384:2385  0 */\n          0x00\n            /* \"@openzeppelin/contracts/access/Ownable.sol\":2357:2375  _transferOwnership */\n          tag_97\n            /* \"@openzeppelin/contracts/access/Ownable.sol\":2357:2387  _transferOwnership(address(0)) */\n          jump\t// in\n        tag_96:\n            /* \"@openzeppelin/contracts/access/Ownable.sol\":2293:2394  function renounceOwnership() public virtual onlyOwner {... */\n          jump\t// out\n            /* \"packages/revolution-contracts/MaxHeap.sol\":4390:4647  function extractMax() external onlyOwner returns (uint256, uint256) {... */\n        tag_40:\n            /* \"packages/revolution-contracts/MaxHeap.sol\":4440:4447  uint256 */\n          0x00\n            /* \"packages/revolution-contracts/MaxHeap.sol\":4449:4456  uint256 */\n          dup1\n            /* \"@openzeppelin/contracts/access/Ownable.sol\":1531:1544  _checkOwner() */\n          tag_99\n            /* \"@openzeppelin/contracts/access/Ownable.sol\":1531:1542  _checkOwner */\n          tag_62\n            /* \"@openzeppelin/contracts/access/Ownable.sol\":1531:1544  _checkOwner() */\n          jump\t// in\n        tag_99:\n            /* \"packages/revolution-contracts/MaxHeap.sol\":4483:4484  0 */\n          0x00\n            /* \"packages/revolution-contracts/MaxHeap.sol\":4476:4480  size */\n          sload(0x03)\n            /* \"packages/revolution-contracts/MaxHeap.sol\":4476:4484  size > 0 */\n          gt\n            /* \"packages/revolution-contracts/MaxHeap.sol\":4468:4502  require(size > 0, \"Heap is empty\") */\n          tag_101\n          jumpi\n          mload(0x40)\n          shl(0xe5, 0x461bcd)\n          dup2\n          mstore\n            /* \"#utility.yul\":1860:1862   */\n          0x20\n            /* \"packages/revolution-contracts/MaxHeap.sol\":4468:4502  require(size > 0, \"Heap is empty\") */\n          0x04\n          dup3\n          add\n            /* \"#utility.yul\":1842:1863   */\n          mstore\n            /* \"#utility.yul\":1899:1901   */\n          0x0d\n            /* \"#utility.yul\":1879:1897   */\n          0x24\n          dup3\n          add\n            /* \"#utility.yul\":1872:1902   */\n          mstore\n          shl(0x98, 0x4865617020697320656d707479)\n            /* \"#utility.yul\":1918:1936   */\n          0x44\n          dup3\n          add\n            /* \"#utility.yul\":1911:1954   */\n          mstore\n            /* \"#utility.yul\":1971:1989   */\n          0x64\n          add\n            /* \"packages/revolution-contracts/MaxHeap.sol\":4468:4502  require(size > 0, \"Heap is empty\") */\n          tag_77\n            /* \"#utility.yul\":1658:1995   */\n          jump\n            /* \"packages/revolution-contracts/MaxHeap.sol\":4468:4502  require(size > 0, \"Heap is empty\") */\n        tag_101:\n            /* \"packages/revolution-contracts/MaxHeap.sol\":4513:4527  uint256 popped */\n          0x00\n            /* \"packages/revolution-contracts/MaxHeap.sol\":4530:4537  heap[0] */\n          dup1\n          dup1\n          mstore\n            /* \"packages/revolution-contracts/MaxHeap.sol\":4530:4534  heap */\n          0x02\n            /* \"packages/revolution-contracts/MaxHeap.sol\":4530:4537  heap[0] */\n          0x20\n          dup2\n          swap1\n          mstore\n          sload(0xac33ff75c19e70fe83507db0d683fd3465c996598dc972688b7ace676c89077b)\n            /* \"packages/revolution-contracts/MaxHeap.sol\":4564:4568  size */\n          0x03\n            /* \"packages/revolution-contracts/MaxHeap.sol\":4562:4568  --size */\n          dup1\n          sload\n            /* \"packages/revolution-contracts/MaxHeap.sol\":4530:4537  heap[0] */\n          swap2\n          swap4\n            /* \"packages/revolution-contracts/MaxHeap.sol\":4513:4527  uint256 popped */\n          swap2\n          dup3\n          swap1\n            /* \"packages/revolution-contracts/MaxHeap.sol\":4562:4568  --size */\n          tag_103\n          swap1\n          tag_104\n          jump\t// in\n        tag_103:\n          swap2\n          dup3\n          swap1\n          sstore\n          pop\n            /* \"packages/revolution-contracts/MaxHeap.sol\":4557:4569  heap[--size] */\n          dup2\n          mstore\n          0x20\n          dup1\n          dup3\n          add\n          swap3\n          swap1\n          swap3\n          mstore\n          0x40\n          add\n          0x00\n          swap1\n          dup2\n          keccak256\n          sload\n            /* \"packages/revolution-contracts/MaxHeap.sol\":4547:4554  heap[0] */\n          dup2\n          dup1\n          mstore\n            /* \"packages/revolution-contracts/MaxHeap.sol\":4547:4551  heap */\n          0x02\n            /* \"packages/revolution-contracts/MaxHeap.sol\":4547:4554  heap[0] */\n          swap1\n          swap3\n          mstore\n          0xac33ff75c19e70fe83507db0d683fd3465c996598dc972688b7ace676c89077b\n            /* \"packages/revolution-contracts/MaxHeap.sol\":4547:4569  heap[0] = heap[--size] */\n          swap2\n          swap1\n          swap2\n          sstore\n            /* \"packages/revolution-contracts/MaxHeap.sol\":4579:4592  maxHeapify(0) */\n          tag_105\n          swap1\n            /* \"packages/revolution-contracts/MaxHeap.sol\":4579:4589  maxHeapify */\n          tag_51\n            /* \"packages/revolution-contracts/MaxHeap.sol\":4579:4592  maxHeapify(0) */\n          jump\t// in\n        tag_105:\n            /* \"packages/revolution-contracts/MaxHeap.sol\":4619:4639  valueMapping[popped] */\n          0x00\n          dup2\n          dup2\n          mstore\n            /* \"packages/revolution-contracts/MaxHeap.sol\":4619:4631  valueMapping */\n          0x04\n            /* \"packages/revolution-contracts/MaxHeap.sol\":4619:4639  valueMapping[popped] */\n          0x20\n          mstore\n          0x40\n          swap1\n          keccak256\n          sload\n            /* \"packages/revolution-contracts/MaxHeap.sol\":4611:4617  popped */\n          swap1\n          swap3\n          pop\n            /* \"packages/revolution-contracts/MaxHeap.sol\":4619:4639  valueMapping[popped] */\n          swap1\n          pop\n            /* \"packages/revolution-contracts/MaxHeap.sol\":4390:4647  function extractMax() external onlyOwner returns (uint256, uint256) {... */\n          swap1\n          swap2\n          jump\t// out\n            /* \"packages/revolution-contracts/MaxHeap.sol\":1869:2502  function maxHeapify(uint256 pos) public onlyOwner {... */\n        tag_51:\n            /* \"@openzeppelin/contracts/access/Ownable.sol\":1531:1544  _checkOwner() */\n          tag_108\n            /* \"@openzeppelin/contracts/access/Ownable.sol\":1531:1542  _checkOwner */\n          tag_62\n            /* \"@openzeppelin/contracts/access/Ownable.sol\":1531:1544  _checkOwner() */\n          jump\t// in\n        tag_108:\n            /* \"packages/revolution-contracts/MaxHeap.sol\":1929:1941  uint256 left */\n          0x00\n            /* \"packages/revolution-contracts/MaxHeap.sol\":1944:1951  2 * pos */\n          tag_110\n            /* \"packages/revolution-contracts/MaxHeap.sol\":1948:1951  pos */\n          dup3\n            /* \"packages/revolution-contracts/MaxHeap.sol\":1944:1945  2 */\n          0x02\n            /* \"packages/revolution-contracts/MaxHeap.sol\":1944:1951  2 * pos */\n          tag_111\n          jump\t// in\n        tag_110:\n            /* \"packages/revolution-contracts/MaxHeap.sol\":1944:1955  2 * pos + 1 */\n          tag_112\n          swap1\n            /* \"packages/revolution-contracts/MaxHeap.sol\":1954:1955  1 */\n          0x01\n            /* \"packages/revolution-contracts/MaxHeap.sol\":1944:1955  2 * pos + 1 */\n          tag_113\n          jump\t// in\n        tag_112:\n            /* \"packages/revolution-contracts/MaxHeap.sol\":1929:1955  uint256 left = 2 * pos + 1 */\n          swap1\n          pop\n            /* \"packages/revolution-contracts/MaxHeap.sol\":1965:1978  uint256 right */\n          0x00\n            /* \"packages/revolution-contracts/MaxHeap.sol\":1981:1988  2 * pos */\n          tag_114\n            /* \"packages/revolution-contracts/MaxHeap.sol\":1985:1988  pos */\n          dup4\n            /* \"packages/revolution-contracts/MaxHeap.sol\":1981:1982  2 */\n          0x02\n            /* \"packages/revolution-contracts/MaxHeap.sol\":1981:1988  2 * pos */\n          tag_111\n          jump\t// in\n        tag_114:\n            /* \"packages/revolution-contracts/MaxHeap.sol\":1981:1992  2 * pos + 2 */\n          tag_115\n          swap1\n            /* \"packages/revolution-contracts/MaxHeap.sol\":1991:1992  2 */\n          0x02\n            /* \"packages/revolution-contracts/MaxHeap.sol\":1981:1992  2 * pos + 2 */\n          tag_113\n          jump\t// in\n        tag_115:\n            /* \"packages/revolution-contracts/MaxHeap.sol\":2003:2019  uint256 posValue */\n          0x00\n            /* \"packages/revolution-contracts/MaxHeap.sol\":2035:2044  heap[pos] */\n          dup5\n          dup2\n          mstore\n            /* \"packages/revolution-contracts/MaxHeap.sol\":2035:2039  heap */\n          0x02\n            /* \"packages/revolution-contracts/MaxHeap.sol\":2035:2044  heap[pos] */\n          0x20\n          dup2\n          dup2\n          mstore\n          0x40\n          dup1\n          dup5\n          keccak256\n          sload\n            /* \"packages/revolution-contracts/MaxHeap.sol\":2022:2045  valueMapping[heap[pos]] */\n          dup5\n          mstore\n            /* \"packages/revolution-contracts/MaxHeap.sol\":2022:2034  valueMapping */\n          0x04\n            /* \"packages/revolution-contracts/MaxHeap.sol\":2022:2045  valueMapping[heap[pos]] */\n          dup1\n          dup4\n          mstore\n          dup2\n          dup6\n          keccak256\n          sload\n            /* \"packages/revolution-contracts/MaxHeap.sol\":2088:2098  heap[left] */\n          dup9\n          dup7\n          mstore\n          dup5\n          dup5\n          mstore\n          dup3\n          dup7\n          keccak256\n          sload\n            /* \"packages/revolution-contracts/MaxHeap.sol\":2075:2099  valueMapping[heap[left]] */\n          dup7\n          mstore\n          dup2\n          dup5\n          mstore\n          dup3\n          dup7\n          keccak256\n          sload\n            /* \"packages/revolution-contracts/MaxHeap.sol\":2143:2154  heap[right] */\n          dup8\n          dup8\n          mstore\n          dup6\n          dup6\n          mstore\n          dup4\n          dup8\n          keccak256\n          sload\n            /* \"packages/revolution-contracts/MaxHeap.sol\":2130:2155  valueMapping[heap[right]] */\n          dup8\n          mstore\n          swap2\n          swap1\n          swap4\n          mstore\n          swap4\n          keccak256\n          sload\n            /* \"packages/revolution-contracts/MaxHeap.sol\":2178:2182  size */\n          sload(0x03)\n            /* \"packages/revolution-contracts/MaxHeap.sol\":1965:1992  uint256 right = 2 * pos + 2 */\n          swap5\n          swap6\n          pop\n            /* \"packages/revolution-contracts/MaxHeap.sol\":2022:2045  valueMapping[heap[pos]] */\n          swap1\n          swap4\n            /* \"packages/revolution-contracts/MaxHeap.sol\":2130:2155  valueMapping[heap[right]] */\n          swap1\n          swap2\n            /* \"packages/revolution-contracts/MaxHeap.sol\":2178:2186  size / 2 */\n          tag_116\n          swap2\n          tag_117\n          jump\t// in\n        tag_116:\n            /* \"packages/revolution-contracts/MaxHeap.sol\":2170:2173  pos */\n          dup7\n            /* \"packages/revolution-contracts/MaxHeap.sol\":2170:2187  pos >= (size / 2) */\n          lt\n          iszero\n            /* \"packages/revolution-contracts/MaxHeap.sol\":2170:2202  pos >= (size / 2) && pos <= size */\n          dup1\n          iszero\n          tag_118\n          jumpi\n          pop\n            /* \"packages/revolution-contracts/MaxHeap.sol\":2198:2202  size */\n          sload(0x03)\n            /* \"packages/revolution-contracts/MaxHeap.sol\":2191:2194  pos */\n          dup7\n            /* \"packages/revolution-contracts/MaxHeap.sol\":2191:2202  pos <= size */\n          gt\n          iszero\n            /* \"packages/revolution-contracts/MaxHeap.sol\":2170:2202  pos >= (size / 2) && pos <= size */\n        tag_118:\n            /* \"packages/revolution-contracts/MaxHeap.sol\":2166:2211  if (pos >= (size / 2) && pos <= size) return; */\n          iszero\n          tag_119\n          jumpi\n            /* \"packages/revolution-contracts/MaxHeap.sol\":2204:2211  return; */\n          pop\n          pop\n          pop\n          pop\n          pop\n            /* \"packages/revolution-contracts/MaxHeap.sol\":1869:2502  function maxHeapify(uint256 pos) public onlyOwner {... */\n          pop\n          jump\t// out\n            /* \"packages/revolution-contracts/MaxHeap.sol\":2166:2211  if (pos >= (size / 2) && pos <= size) return; */\n        tag_119:\n            /* \"packages/revolution-contracts/MaxHeap.sol\":2236:2245  leftValue */\n          dup2\n            /* \"packages/revolution-contracts/MaxHeap.sol\":2225:2233  posValue */\n          dup4\n            /* \"packages/revolution-contracts/MaxHeap.sol\":2225:2245  posValue < leftValue */\n          lt\n            /* \"packages/revolution-contracts/MaxHeap.sol\":2225:2270  posValue < leftValue || posValue < rightValue */\n          dup1\n          tag_120\n          jumpi\n          pop\n            /* \"packages/revolution-contracts/MaxHeap.sol\":2260:2270  rightValue */\n          dup1\n            /* \"packages/revolution-contracts/MaxHeap.sol\":2249:2257  posValue */\n          dup4\n            /* \"packages/revolution-contracts/MaxHeap.sol\":2249:2270  posValue < rightValue */\n          lt\n            /* \"packages/revolution-contracts/MaxHeap.sol\":2225:2270  posValue < leftValue || posValue < rightValue */\n        tag_120:\n            /* \"packages/revolution-contracts/MaxHeap.sol\":2221:2496  if (posValue < leftValue || posValue < rightValue) {... */\n          iszero\n          tag_127\n          jumpi\n            /* \"packages/revolution-contracts/MaxHeap.sol\":2302:2312  rightValue */\n          dup1\n            /* \"packages/revolution-contracts/MaxHeap.sol\":2290:2299  leftValue */\n          dup3\n            /* \"packages/revolution-contracts/MaxHeap.sol\":2290:2312  leftValue > rightValue */\n          gt\n            /* \"packages/revolution-contracts/MaxHeap.sol\":2286:2486  if (leftValue > rightValue) {... */\n          iszero\n          tag_122\n          jumpi\n            /* \"packages/revolution-contracts/MaxHeap.sol\":2332:2347  swap(pos, left) */\n          tag_123\n            /* \"packages/revolution-contracts/MaxHeap.sol\":2337:2340  pos */\n          dup7\n            /* \"packages/revolution-contracts/MaxHeap.sol\":2342:2346  left */\n          dup7\n            /* \"packages/revolution-contracts/MaxHeap.sol\":2332:2336  swap */\n          tag_71\n            /* \"packages/revolution-contracts/MaxHeap.sol\":2332:2347  swap(pos, left) */\n          jump\t// in\n        tag_123:\n            /* \"packages/revolution-contracts/MaxHeap.sol\":2365:2381  maxHeapify(left) */\n          tag_124\n            /* \"packages/revolution-contracts/MaxHeap.sol\":2376:2380  left */\n          dup6\n            /* \"packages/revolution-contracts/MaxHeap.sol\":2365:2375  maxHeapify */\n          tag_51\n            /* \"packages/revolution-contracts/MaxHeap.sol\":2365:2381  maxHeapify(left) */\n          jump\t// in\n        tag_124:\n            /* \"packages/revolution-contracts/MaxHeap.sol\":2286:2486  if (leftValue > rightValue) {... */\n          jump(tag_127)\n        tag_122:\n            /* \"packages/revolution-contracts/MaxHeap.sol\":2420:2436  swap(pos, right) */\n          tag_126\n            /* \"packages/revolution-contracts/MaxHeap.sol\":2425:2428  pos */\n          dup7\n            /* \"packages/revolution-contracts/MaxHeap.sol\":2430:2435  right */\n          dup6\n            /* \"packages/revolution-contracts/MaxHeap.sol\":2420:2424  swap */\n          tag_71\n            /* \"packages/revolution-contracts/MaxHeap.sol\":2420:2436  swap(pos, right) */\n          jump\t// in\n        tag_126:\n            /* \"packages/revolution-contracts/MaxHeap.sol\":2454:2471  maxHeapify(right) */\n          tag_127\n            /* \"packages/revolution-contracts/MaxHeap.sol\":2465:2470  right */\n          dup5\n            /* \"packages/revolution-contracts/MaxHeap.sol\":2454:2464  maxHeapify */\n          tag_51\n            /* \"packages/revolution-contracts/MaxHeap.sol\":2454:2471  maxHeapify(right) */\n          jump\t// in\n        tag_127:\n            /* \"packages/revolution-contracts/MaxHeap.sol\":1919:2502  {... */\n          pop\n          pop\n          pop\n          pop\n          pop\n            /* \"@openzeppelin/contracts/access/Ownable.sol\":1554:1555  _ */\n        tag_109:\n            /* \"packages/revolution-contracts/MaxHeap.sol\":1869:2502  function maxHeapify(uint256 pos) public onlyOwner {... */\n          pop\n          jump\t// out\n            /* \"@openzeppelin/contracts/access/Ownable.sol\":2543:2758  function transferOwnership(address newOwner) public virtual onlyOwner {... */\n        tag_59:\n            /* \"@openzeppelin/contracts/access/Ownable.sol\":1531:1544  _checkOwner() */\n          tag_129\n            /* \"@openzeppelin/contracts/access/Ownable.sol\":1531:1542  _checkOwner */\n          tag_62\n            /* \"@openzeppelin/contracts/access/Ownable.sol\":1531:1544  _checkOwner() */\n          jump\t// in\n        tag_129:\n          sub(shl(0xa0, 0x01), 0x01)\n            /* \"@openzeppelin/contracts/access/Ownable.sol\":2627:2649  newOwner == address(0) */\n          dup2\n          and\n            /* \"@openzeppelin/contracts/access/Ownable.sol\":2623:2714  if (newOwner == address(0)) {... */\n          tag_131\n          jumpi\n            /* \"@openzeppelin/contracts/access/Ownable.sol\":2672:2703  OwnableInvalidOwner(address(0)) */\n          mload(0x40)\n          shl(0xe0, 0x1e4fbdf7)\n          dup2\n          mstore\n            /* \"@openzeppelin/contracts/access/Ownable.sol\":2700:2701  0 */\n          0x00\n            /* \"@openzeppelin/contracts/access/Ownable.sol\":2672:2703  OwnableInvalidOwner(address(0)) */\n          0x04\n          dup3\n          add\n            /* \"#utility.yul\":1033:1084   */\n          mstore\n            /* \"#utility.yul\":1006:1024   */\n          0x24\n          add\n            /* \"@openzeppelin/contracts/access/Ownable.sol\":2672:2703  OwnableInvalidOwner(address(0)) */\n          tag_77\n            /* \"#utility.yul\":887:1090   */\n          jump\n            /* \"@openzeppelin/contracts/access/Ownable.sol\":2623:2714  if (newOwner == address(0)) {... */\n        tag_131:\n            /* \"@openzeppelin/contracts/access/Ownable.sol\":2723:2751  _transferOwnership(newOwner) */\n          tag_109\n            /* \"@openzeppelin/contracts/access/Ownable.sol\":2742:2750  newOwner */\n          dup2\n            /* \"@openzeppelin/contracts/access/Ownable.sol\":2723:2741  _transferOwnership */\n          tag_97\n            /* \"@openzeppelin/contracts/access/Ownable.sol\":2723:2751  _transferOwnership(newOwner) */\n          jump\t// in\n            /* \"@openzeppelin/contracts/access/Ownable.sol\":1796:1958  function _checkOwner() internal view virtual {... */\n        tag_62:\n            /* \"@openzeppelin/contracts/access/Ownable.sol\":1684:1691  address */\n          0x00\n            /* \"@openzeppelin/contracts/access/Ownable.sol\":1710:1716  _owner */\n          sload\n          sub(shl(0xa0, 0x01), 0x01)\n          and\n            /* \"@openzeppelin/contracts/utils/Context.sol\":735:745  msg.sender */\n          caller\n            /* \"@openzeppelin/contracts/access/Ownable.sol\":1855:1878  owner() != _msgSender() */\n          eq\n            /* \"@openzeppelin/contracts/access/Ownable.sol\":1851:1952  if (owner() != _msgSender()) {... */\n          tag_96\n          jumpi\n            /* \"@openzeppelin/contracts/access/Ownable.sol\":1901:1941  OwnableUnauthorizedAccount(_msgSender()) */\n          mload(0x40)\n          shl(0xe0, 0x118cdaa7)\n          dup2\n          mstore\n            /* \"@openzeppelin/contracts/utils/Context.sol\":735:745  msg.sender */\n          caller\n            /* \"@openzeppelin/contracts/access/Ownable.sol\":1901:1941  OwnableUnauthorizedAccount(_msgSender()) */\n          0x04\n          dup3\n          add\n            /* \"#utility.yul\":1033:1084   */\n          mstore\n            /* \"#utility.yul\":1006:1024   */\n          0x24\n          add\n            /* \"@openzeppelin/contracts/access/Ownable.sol\":1901:1941  OwnableUnauthorizedAccount(_msgSender()) */\n          tag_77\n            /* \"#utility.yul\":887:1090   */\n          jump\n            /* \"packages/revolution-contracts/MaxHeap.sol\":1161:1316  function parent(uint256 pos) private pure returns (uint256) {... */\n        tag_68:\n            /* \"packages/revolution-contracts/MaxHeap.sol\":1212:1219  uint256 */\n          0x00\n            /* \"packages/revolution-contracts/MaxHeap.sol\":1239:1242  pos */\n          dup2\n            /* \"packages/revolution-contracts/MaxHeap.sol\":1246:1247  0 */\n          0x00\n            /* \"packages/revolution-contracts/MaxHeap.sol\":1239:1247  pos != 0 */\n          sub\n            /* \"packages/revolution-contracts/MaxHeap.sol\":1231:1279  require(pos != 0, \"Position should not be zero\") */\n          tag_142\n          jumpi\n          mload(0x40)\n          shl(0xe5, 0x461bcd)\n          dup2\n          mstore\n            /* \"#utility.yul\":2868:2870   */\n          0x20\n            /* \"packages/revolution-contracts/MaxHeap.sol\":1231:1279  require(pos != 0, \"Position should not be zero\") */\n          0x04\n          dup3\n          add\n            /* \"#utility.yul\":2850:2871   */\n          mstore\n            /* \"#utility.yul\":2907:2909   */\n          0x1b\n            /* \"#utility.yul\":2887:2905   */\n          0x24\n          dup3\n          add\n            /* \"#utility.yul\":2880:2910   */\n          mstore\n            /* \"#utility.yul\":2946:2975   */\n          0x506f736974696f6e2073686f756c64206e6f74206265207a65726f0000000000\n            /* \"#utility.yul\":2926:2944   */\n          0x44\n          dup3\n          add\n            /* \"#utility.yul\":2919:2976   */\n          mstore\n            /* \"#utility.yul\":2993:3011   */\n          0x64\n          add\n            /* \"packages/revolution-contracts/MaxHeap.sol\":1231:1279  require(pos != 0, \"Position should not be zero\") */\n          tag_77\n            /* \"#utility.yul\":2666:3017   */\n          jump\n            /* \"packages/revolution-contracts/MaxHeap.sol\":1231:1279  require(pos != 0, \"Position should not be zero\") */\n        tag_142:\n            /* \"packages/revolution-contracts/MaxHeap.sol\":1308:1309  2 */\n          0x02\n            /* \"packages/revolution-contracts/MaxHeap.sol\":1297:1304  pos - 1 */\n          tag_145\n            /* \"packages/revolution-contracts/MaxHeap.sol\":1303:1304  1 */\n          0x01\n            /* \"packages/revolution-contracts/MaxHeap.sol\":1297:1300  pos */\n          dup5\n            /* \"packages/revolution-contracts/MaxHeap.sol\":1297:1304  pos - 1 */\n          tag_146\n          jump\t// in\n        tag_145:\n            /* \"packages/revolution-contracts/MaxHeap.sol\":1296:1309  (pos - 1) / 2 */\n          tag_147\n          swap2\n          swap1\n          tag_117\n          jump\t// in\n        tag_147:\n            /* \"packages/revolution-contracts/MaxHeap.sol\":1289:1309  return (pos - 1) / 2 */\n          swap3\n            /* \"packages/revolution-contracts/MaxHeap.sol\":1161:1316  function parent(uint256 pos) private pure returns (uint256) {... */\n          swap2\n          pop\n          pop\n          jump\t// out\n            /* \"packages/revolution-contracts/MaxHeap.sol\":1468:1669  function swap(uint256 fpos, uint256 spos) private {... */\n        tag_71:\n            /* \"packages/revolution-contracts/MaxHeap.sol\":1556:1566  heap[spos] */\n          0x00\n          dup2\n          dup2\n          mstore\n            /* \"packages/revolution-contracts/MaxHeap.sol\":1556:1560  heap */\n          0x02\n            /* \"packages/revolution-contracts/MaxHeap.sol\":1556:1566  heap[spos] */\n          0x20\n          swap1\n          dup2\n          mstore\n          0x40\n          dup1\n          dup4\n          keccak256\n          dup1\n          sload\n            /* \"packages/revolution-contracts/MaxHeap.sol\":1568:1578  heap[fpos] */\n          dup7\n          dup6\n          mstore\n          dup3\n          dup6\n          keccak256\n          dup1\n          sload\n            /* \"packages/revolution-contracts/MaxHeap.sol\":1528:1579  (heap[fpos], heap[spos]) = (heap[spos], heap[fpos]) */\n          dup4\n          sstore\n          dup2\n          swap1\n          sstore\n            /* \"packages/revolution-contracts/MaxHeap.sol\":1590:1617  positionMapping[heap[fpos]] */\n          dup5\n          mstore\n            /* \"packages/revolution-contracts/MaxHeap.sol\":1590:1605  positionMapping */\n          0x05\n            /* \"packages/revolution-contracts/MaxHeap.sol\":1590:1617  positionMapping[heap[fpos]] */\n          swap1\n          swap3\n          mstore\n          dup1\n          dup4\n          keccak256\n            /* \"packages/revolution-contracts/MaxHeap.sol\":1635:1645  heap[spos] */\n          swap2\n          sload\n            /* \"packages/revolution-contracts/MaxHeap.sol\":1619:1646  positionMapping[heap[spos]] */\n          dup4\n          mstore\n          swap1\n          swap2\n          keccak256\n            /* \"packages/revolution-contracts/MaxHeap.sol\":1589:1662  (positionMapping[heap[fpos]], positionMapping[heap[spos]]) = (fpos, spos) */\n          swap2\n          swap1\n          swap2\n          sstore\n          sstore\n            /* \"packages/revolution-contracts/MaxHeap.sol\":1468:1669  function swap(uint256 fpos, uint256 spos) private {... */\n          jump\t// out\n            /* \"@openzeppelin/contracts/access/Ownable.sol\":2912:3099  function _transferOwnership(address newOwner) internal virtual {... */\n        tag_97:\n            /* \"@openzeppelin/contracts/access/Ownable.sol\":2985:3001  address oldOwner */\n          0x00\n            /* \"@openzeppelin/contracts/access/Ownable.sol\":3004:3010  _owner */\n          dup1\n          sload\n          sub(shl(0xa0, 0x01), 0x01)\n            /* \"@openzeppelin/contracts/access/Ownable.sol\":3020:3037  _owner = newOwner */\n          dup4\n          dup2\n          and\n          not(sub(shl(0xa0, 0x01), 0x01))\n          dup4\n          and\n          dup2\n          or\n          dup5\n          sstore\n            /* \"@openzeppelin/contracts/access/Ownable.sol\":3052:3092  OwnershipTransferred(oldOwner, newOwner) */\n          mload(0x40)\n            /* \"@openzeppelin/contracts/access/Ownable.sol\":3004:3010  _owner */\n          swap2\n          swap1\n          swap3\n          and\n          swap3\n          dup4\n          swap2\n            /* \"@openzeppelin/contracts/access/Ownable.sol\":3052:3092  OwnershipTransferred(oldOwner, newOwner) */\n          0x8be0079c531659141344cd1fd0a4f28419497f9722a3daafe3b4186f6b6457e0\n          swap2\n            /* \"@openzeppelin/contracts/access/Ownable.sol\":2985:3001  address oldOwner */\n          swap1\n            /* \"@openzeppelin/contracts/access/Ownable.sol\":3052:3092  OwnershipTransferred(oldOwner, newOwner) */\n          log3\n            /* \"@openzeppelin/contracts/access/Ownable.sol\":2975:3099  {... */\n          pop\n            /* \"@openzeppelin/contracts/access/Ownable.sol\":2912:3099  function _transferOwnership(address newOwner) internal virtual {... */\n          pop\n          jump\t// out\n            /* \"#utility.yul\":14:194   */\n        tag_18:\n            /* \"#utility.yul\":73:79   */\n          0x00\n            /* \"#utility.yul\":126:128   */\n          0x20\n            /* \"#utility.yul\":114:123   */\n          dup3\n            /* \"#utility.yul\":105:112   */\n          dup5\n            /* \"#utility.yul\":101:124   */\n          sub\n            /* \"#utility.yul\":97:129   */\n          slt\n            /* \"#utility.yul\":94:146   */\n          iszero\n          tag_154\n          jumpi\n            /* \"#utility.yul\":142:143   */\n          0x00\n            /* \"#utility.yul\":139:140   */\n          dup1\n            /* \"#utility.yul\":132:144   */\n          revert\n            /* \"#utility.yul\":94:146   */\n        tag_154:\n          pop\n            /* \"#utility.yul\":165:188   */\n          calldataload\n          swap2\n            /* \"#utility.yul\":14:194   */\n          swap1\n          pop\n          jump\t// out\n            /* \"#utility.yul\":381:629   */\n        tag_24:\n            /* \"#utility.yul\":449:455   */\n          0x00\n            /* \"#utility.yul\":457:463   */\n          dup1\n            /* \"#utility.yul\":510:512   */\n          0x40\n            /* \"#utility.yul\":498:507   */\n          dup4\n            /* \"#utility.yul\":489:496   */\n          dup6\n            /* \"#utility.yul\":485:508   */\n          sub\n            /* \"#utility.yul\":481:513   */\n          slt\n            /* \"#utility.yul\":478:530   */\n          iszero\n          tag_157\n          jumpi\n            /* \"#utility.yul\":526:527   */\n          0x00\n            /* \"#utility.yul\":523:524   */\n          dup1\n            /* \"#utility.yul\":516:528   */\n          revert\n            /* \"#utility.yul\":478:530   */\n        tag_157:\n          pop\n          pop\n            /* \"#utility.yul\":549:572   */\n          dup1\n          calldataload\n          swap3\n            /* \"#utility.yul\":619:621   */\n          0x20\n            /* \"#utility.yul\":604:622   */\n          swap1\n          swap2\n          add\n            /* \"#utility.yul\":591:623   */\n          calldataload\n          swap2\n          pop\n            /* \"#utility.yul\":381:629   */\n          jump\t// out\n            /* \"#utility.yul\":1095:1381   */\n        tag_58:\n            /* \"#utility.yul\":1154:1160   */\n          0x00\n            /* \"#utility.yul\":1207:1209   */\n          0x20\n            /* \"#utility.yul\":1195:1204   */\n          dup3\n            /* \"#utility.yul\":1186:1193   */\n          dup5\n            /* \"#utility.yul\":1182:1205   */\n          sub\n            /* \"#utility.yul\":1178:1210   */\n          slt\n            /* \"#utility.yul\":1175:1227   */\n          iszero\n          tag_161\n          jumpi\n            /* \"#utility.yul\":1223:1224   */\n          0x00\n            /* \"#utility.yul\":1220:1221   */\n          dup1\n            /* \"#utility.yul\":1213:1225   */\n          revert\n            /* \"#utility.yul\":1175:1227   */\n        tag_161:\n            /* \"#utility.yul\":1249:1272   */\n          dup2\n          calldataload\n          sub(shl(0xa0, 0x01), 0x01)\n            /* \"#utility.yul\":1301:1332   */\n          dup2\n          and\n            /* \"#utility.yul\":1291:1333   */\n          dup2\n          eq\n            /* \"#utility.yul\":1281:1351   */\n          tag_162\n          jumpi\n            /* \"#utility.yul\":1347:1348   */\n          0x00\n            /* \"#utility.yul\":1344:1345   */\n          dup1\n            /* \"#utility.yul\":1337:1349   */\n          revert\n            /* \"#utility.yul\":1281:1351   */\n        tag_162:\n            /* \"#utility.yul\":1370:1375   */\n          swap4\n            /* \"#utility.yul\":1095:1381   */\n          swap3\n          pop\n          pop\n          pop\n          jump\t// out\n            /* \"#utility.yul\":1386:1513   */\n        tag_151:\n            /* \"#utility.yul\":1447:1457   */\n          0x4e487b71\n            /* \"#utility.yul\":1442:1445   */\n          0xe0\n            /* \"#utility.yul\":1438:1458   */\n          shl\n            /* \"#utility.yul\":1435:1436   */\n          0x00\n            /* \"#utility.yul\":1428:1459   */\n          mstore\n            /* \"#utility.yul\":1478:1482   */\n          0x11\n            /* \"#utility.yul\":1475:1476   */\n          0x04\n            /* \"#utility.yul\":1468:1483   */\n          mstore\n            /* \"#utility.yul\":1502:1506   */\n          0x24\n            /* \"#utility.yul\":1499:1500   */\n          0x00\n            /* \"#utility.yul\":1492:1507   */\n          revert\n            /* \"#utility.yul\":1518:1653   */\n        tag_74:\n            /* \"#utility.yul\":1557:1560   */\n          0x00\n            /* \"#utility.yul\":1578:1595   */\n          0x01\n          dup3\n          add\n            /* \"#utility.yul\":1575:1618   */\n          tag_166\n          jumpi\n            /* \"#utility.yul\":1598:1616   */\n          tag_166\n          tag_151\n          jump\t// in\n        tag_166:\n          pop\n            /* \"#utility.yul\":1645:1646   */\n          0x01\n            /* \"#utility.yul\":1634:1647   */\n          add\n          swap1\n            /* \"#utility.yul\":1518:1653   */\n          jump\t// out\n            /* \"#utility.yul\":2000:2136   */\n        tag_104:\n            /* \"#utility.yul\":2039:2042   */\n          0x00\n            /* \"#utility.yul\":2067:2072   */\n          dup2\n            /* \"#utility.yul\":2057:2096   */\n          tag_170\n          jumpi\n            /* \"#utility.yul\":2076:2094   */\n          tag_170\n          tag_151\n          jump\t// in\n        tag_170:\n          pop\n          not(0x00)\n            /* \"#utility.yul\":2112:2130   */\n          add\n          swap1\n            /* \"#utility.yul\":2000:2136   */\n          jump\t// out\n            /* \"#utility.yul\":2141:2309   */\n        tag_111:\n            /* \"#utility.yul\":2214:2223   */\n          dup1\n          dup3\n          mul\n            /* \"#utility.yul\":2245:2254   */\n          dup2\n          iszero\n            /* \"#utility.yul\":2262:2277   */\n          dup3\n          dup3\n          div\n            /* \"#utility.yul\":2256:2278   */\n          dup5\n          eq\n            /* \"#utility.yul\":2242:2279   */\n          or\n            /* \"#utility.yul\":2232:2303   */\n          tag_147\n          jumpi\n            /* \"#utility.yul\":2283:2301   */\n          tag_147\n          tag_151\n          jump\t// in\n            /* \"#utility.yul\":2314:2439   */\n        tag_113:\n            /* \"#utility.yul\":2379:2388   */\n          dup1\n          dup3\n          add\n            /* \"#utility.yul\":2400:2410   */\n          dup1\n          dup3\n          gt\n            /* \"#utility.yul\":2397:2433   */\n          iszero\n          tag_147\n          jumpi\n            /* \"#utility.yul\":2413:2431   */\n          tag_147\n          tag_151\n          jump\t// in\n            /* \"#utility.yul\":2444:2661   */\n        tag_117:\n            /* \"#utility.yul\":2484:2485   */\n          0x00\n            /* \"#utility.yul\":2510:2511   */\n          dup3\n            /* \"#utility.yul\":2500:2632   */\n          tag_178\n          jumpi\n            /* \"#utility.yul\":2554:2564   */\n          0x4e487b71\n            /* \"#utility.yul\":2549:2552   */\n          0xe0\n            /* \"#utility.yul\":2545:2565   */\n          shl\n            /* \"#utility.yul\":2542:2543   */\n          0x00\n            /* \"#utility.yul\":2535:2566   */\n          mstore\n            /* \"#utility.yul\":2589:2593   */\n          0x12\n            /* \"#utility.yul\":2586:2587   */\n          0x04\n            /* \"#utility.yul\":2579:2594   */\n          mstore\n            /* \"#utility.yul\":2617:2621   */\n          0x24\n            /* \"#utility.yul\":2614:2615   */\n          0x00\n            /* \"#utility.yul\":2607:2622   */\n          revert\n            /* \"#utility.yul\":2500:2632   */\n        tag_178:\n          pop\n            /* \"#utility.yul\":2646:2655   */\n          div\n          swap1\n            /* \"#utility.yul\":2444:2661   */\n          jump\t// out\n            /* \"#utility.yul\":3022:3150   */\n        tag_146:\n            /* \"#utility.yul\":3089:3098   */\n          dup2\n          dup2\n          sub\n            /* \"#utility.yul\":3110:3121   */\n          dup2\n          dup2\n          gt\n            /* \"#utility.yul\":3107:3144   */\n          iszero\n          tag_147\n          jumpi\n            /* \"#utility.yul\":3124:3142   */\n          tag_147\n          tag_151\n          jump\t// in\n\n        auxdata: 0xa2646970667358221220f231acab81386ecd17bb14cdbd61b859da89e32d88745338550027b6c123525664736f6c63430008160033\n    }\n}\n",
				"bytecode": {
					"linkReferences": {},
					"object": "608060405234801562000010575f80fd5b50604051620033163803806200331683398101604081905262000033916200016a565b806001600160a01b0381166200006257604051631e4fbdf760e01b81525f600482015260240160405180910390fd5b6200006d81620000f1565b5060018055600380546001600160a01b0319166001600160a01b03841617905560405130906200009d9062000140565b6001600160a01b039091168152602001604051809103905ff080158015620000c7573d5f803e3d5ffd5b50600280546001600160a01b0319166001600160a01b039290921691909117905550620001a09050565b5f80546001600160a01b038381166001600160a01b0319831681178455604051919092169283917f8be0079c531659141344cd1fd0a4f28419497f9722a3daafe3b4186f6b6457e09190a35050565b61096580620029b183390190565b80516001600160a01b038116811462000165575f80fd5b919050565b5f80604083850312156200017c575f80fd5b62000187836200014e565b915062000197602084016200014e565b90509250929050565b61280380620001ae5f395ff3fe608060405234801561000f575f80fd5b506004361061011c575f3560e01c8063b0340123116100a9578063d75d43c91161006e578063d75d43c9146102b8578063d85c91ae146102cb578063deb50c35146102de578063f2fde38b146102f1578063f8a8be4014610304575f80fd5b8063b03401231461020c578063b7b614941461021f578063bad22aff14610227578063bc3f931f1461023c578063d23254b41461025c575f80fd5b80634a5c4dfe116100ef5780634a5c4dfe146101b557806365422a55146101be578063715018a6146101d15780638da5cb5b146101d95780638f64be30146101e9575f80fd5b80630121b93f1461012057806304432c8a1461013557806304f50270146101655780634385963214610192575b5f80fd5b61013361012e366004611e7a565b61030c565b005b600254610148906001600160a01b031681565b6040516001600160a01b0390911681526020015b60405180910390f35b610184610173366004611e7a565b60076020525f908152604090205481565b60405190815260200161015c565b6101a56101a0366004611ea7565b610338565b604051901515815260200161015c565b61018460055481565b6101336101cc366004611f84565b610365565b6101336103bb565b5f546001600160a01b0316610148565b6101fc6101f7366004611e7a565b6103ce565b60405161015c9493929190612128565b600354610148906001600160a01b031681565b610184610711565b61022f610783565b60405161015c9190612161565b61024f61024a366004611ea7565b610e87565b60405161015c919061220d565b61029961026a366004611ea7565b600660209081525f9283526040808420909152908252902080546001909101546001600160a01b039091169082565b604080516001600160a01b03909316835260208301919091520161015c565b6101846102c6366004612345565b610efc565b6101846102d936600461246e565b61121b565b61022f6102ec366004611e7a565b61133f565b6101336102ff36600461246e565b611744565b61022f61177e565b610314611834565b5f61031e3361121b565b905061032b82338361185e565b5061033560018055565b50565b5f8281526006602090815260408083206001600160a01b0385811685529252909120541615155b92915050565b61036d611834565b5f6103773361121b565b90505f5b82518110156103b0576103a88382815181106103995761039961248e565b6020026020010151338461185e565b60010161037b565b505061033560018055565b6103c3611ac4565b6103cc5f611af0565b565b60046020525f9081526040908190208054825160c08101909352600182018054919391829082906103fe906124a2565b80601f016020809104026020016040519081016040528092919081815260200182805461042a906124a2565b80156104755780601f1061044c57610100808354040283529160200191610475565b820191905f5260205f20905b81548152906001019060200180831161045857829003601f168201915b5050505050815260200160018201805461048e906124a2565b80601f01602080910402602001604051908101604052809291908181526020018280546104ba906124a2565b80156105055780601f106104dc57610100808354040283529160200191610505565b820191905f5260205f20905b8154815290600101906020018083116104e857829003601f168201915b5050509183525050600282015460209091019060ff16600581111561052c5761052c612068565b600581111561053d5761053d612068565b8152602001600382018054610551906124a2565b80601f016020809104026020016040519081016040528092919081815260200182805461057d906124a2565b80156105c85780601f1061059f576101008083540402835291602001916105c8565b820191905f5260205f20905b8154815290600101906020018083116105ab57829003601f168201915b505050505081526020016004820180546105e1906124a2565b80601f016020809104026020016040519081016040528092919081815260200182805461060d906124a2565b80156106585780601f1061062f57610100808354040283529160200191610658565b820191905f5260205f20905b81548152906001019060200180831161063b57829003601f168201915b50505050508152602001600582018054610671906124a2565b80601f016020809104026020016040519081016040528092919081815260200182805461069d906124a2565b80156106e85780601f106106bf576101008083540402835291602001916106e8565b820191905f5260205f20905b8154815290600101906020018083116106cb57829003601f168201915b505050919092525050506008909101546001600160a01b0381169060ff600160a01b9091041684565b6002546040805163183afaa960e11b815281515f9384936001600160a01b0390911692633075f55292600480830193928290030181865afa158015610758573d5f803e3d5ffd5b505050506040513d601f19601f8201168201806040525081019061077c91906124da565b5092915050565b61078b611e1a565b610793611834565b61079b611ac4565b60025460408051634430402d60e11b815281515f936001600160a01b031692638860805a9260048082019391829003018187875af19250505080156107fd575060408051601f3d908101601f191682019092526107fa918101906124da565b60015b610971576108096124fc565b806308c379a0036108ed575061081d612514565b8061082857506108ef565b6040516c4865617020697320656d70747960981b6020820152602d01604051602081830303815290604052805190602001208160405160200161086b919061259d565b60405160208183030381529060405280519060200120036108d35760405162461bcd60e51b815260206004820152601b60248201527f4e6f2070696563657320617661696c61626c6520746f2064726f70000000000060448201526064015b60405180910390fd5b8060405162461bcd60e51b81526004016108ca91906125b8565b505b3d808015610918576040519150601f19603f3d011682016040523d82523d5f602084013e61091d565b606091505b5060405162461bcd60e51b815260206004820152602260248201527f556e6b6e6f776e206572726f722065787472616374696e6720746f7020706965604482015261636560f01b60648201526084016108ca565b5090505f81815260046020526040808220600801805460ff60a01b1916600160a01b17905551339183917fa9bd530a1a995fe2b42bddf7938e2e1acaef954cc9b31ffd1d13b7c3337502c89190a35f5b5f82815260046020526040902060070154811015610aa1575f8281526004602052604090206008810154600790910180546001600160a01b039092169183908110610a0e57610a0e61248e565b5f91825260208083206002909202909101548583526004909152604090912060070180546001600160a01b039092169185917f1d1b857a6a6c5e310602c1448332e9b2799ba4c6ae3d1fb7527b62828dc7b91d9186908110610a7257610a7261248e565b905f5260205f20906002020160010154604051610a9191815260200190565b60405180910390a46001016109c1565b5060045f8281526020019081526020015f206040518060a00160405290815f8201548152602001600182016040518060c00160405290815f82018054610ae6906124a2565b80601f0160208091040260200160405190810160405280929190818152602001828054610b12906124a2565b8015610b5d5780601f10610b3457610100808354040283529160200191610b5d565b820191905f5260205f20905b815481529060010190602001808311610b4057829003601f168201915b50505050508152602001600182018054610b76906124a2565b80601f0160208091040260200160405190810160405280929190818152602001828054610ba2906124a2565b8015610bed5780601f10610bc457610100808354040283529160200191610bed565b820191905f5260205f20905b815481529060010190602001808311610bd057829003601f168201915b5050509183525050600282015460209091019060ff166005811115610c1457610c14612068565b6005811115610c2557610c25612068565b8152602001600382018054610c39906124a2565b80601f0160208091040260200160405190810160405280929190818152602001828054610c65906124a2565b8015610cb05780601f10610c8757610100808354040283529160200191610cb0565b820191905f5260205f20905b815481529060010190602001808311610c9357829003601f168201915b50505050508152602001600482018054610cc9906124a2565b80601f0160208091040260200160405190810160405280929190818152602001828054610cf5906124a2565b8015610d405780601f10610d1757610100808354040283529160200191610d40565b820191905f5260205f20905b815481529060010190602001808311610d2357829003601f168201915b50505050508152602001600582018054610d59906124a2565b80601f0160208091040260200160405190810160405280929190818152602001828054610d85906124a2565b8015610dd05780601f10610da757610100808354040283529160200191610dd0565b820191905f5260205f20905b815481529060010190602001808311610db357829003601f168201915b505050505081525050815260200160078201805480602002602001604051908101604052809291908181526020015f905b82821015610e48575f848152602090819020604080518082019091526002850290910180546001600160a01b03168252600190810154828401529083529092019101610e01565b50505090825250600891909101546001600160a01b038116602083015260ff600160a01b909104161515604090910152915050610e8460018055565b90565b604080518082019091525f8082526020820152600554831115610ebc5760405162461bcd60e51b81526004016108ca906125ca565b505f9182526006602090815260408084206001600160a01b0393841685528252928390208351808501909452805490921683526001909101549082015290565b5f80610f0783611b3f565b90508061271014610f5a5760405162461bcd60e51b815260206004820152601f60248201527f546f74616c20425053206d7573742073756d20757020746f2031302c3030300060448201526064016108ca565b610f6384611c4e565b600580545f9182610f7383612608565b90915550600254604051631d834a1b60e01b8152600481018390525f60248201529192506001600160a01b031690631d834a1b906044015f604051808303815f87803b158015610fc1575f80fd5b505af1158015610fd3573d5f803e3d5ffd5b5050505f8281526004602052604090208281558651909150869060018301908190610ffe908261266c565b5060208201516001820190611013908261266c565b50604082015160028201805460ff1916600183600581111561103757611037612068565b021790555060608201516003820190611050908261266c565b5060808201516004820190611065908261266c565b5060a0820151600582019061107a908261266c565b5050506008810180546001600160a01b031916331790555f5b855181101561110157816007018682815181106110b2576110b261248e565b6020908102919091018101518254600180820185555f94855293839020825160029092020180546001600160a01b0319166001600160a01b039092169190911781559101519082015501611093565b50336001600160a01b0316827fc6dda5d2a7a2baaaa424904e38bc3992b0dc78bfb2900bbdeca620424fa64570885f015189602001518a606001518b60a001518c608001518d60400151600581111561115c5761115c612068565b60405161116e9695949392919061272c565b60405180910390a35f5b855181101561121057336001600160a01b031686828151811061119d5761119d61248e565b60200260200101515f01516001600160a01b0316847f1cd5f4915fbea5fb35c9ebdfb2bfd7d12423db85aea22a9b5e92d6b0ec08fce18985815181106111e5576111e561248e565b60200260200101516020015160405161120091815260200190565b60405180910390a4600101611178565b505495945050505050565b6003545f906001600160a01b03166112755760405162461bcd60e51b815260206004820152601860248201527f566f74696e6720746f6b656e206d75737420626520736574000000000000000060448201526064016108ca565b6003546040516370a0823160e01b81526001600160a01b038481166004830152909116906370a0823190602401602060405180830381865afa9250505080156112db575060408051601f3d908101601f191682019092526112d8918101906127a3565b60015b61035f5760405162461bcd60e51b815260206004820152602a60248201527f4661696c656420746f206765742062616c616e63652c20766f74696e67206e6f6044820152697420706f737369626c6560b01b60648201526084016108ca565b919050565b611347611e1a565b6005548211156113695760405162461bcd60e51b81526004016108ca906125ca565b60045f8381526020019081526020015f206040518060a00160405290815f8201548152602001600182016040518060c00160405290815f820180546113ad906124a2565b80601f01602080910402602001604051908101604052809291908181526020018280546113d9906124a2565b80156114245780601f106113fb57610100808354040283529160200191611424565b820191905f5260205f20905b81548152906001019060200180831161140757829003601f168201915b5050505050815260200160018201805461143d906124a2565b80601f0160208091040260200160405190810160405280929190818152602001828054611469906124a2565b80156114b45780601f1061148b576101008083540402835291602001916114b4565b820191905f5260205f20905b81548152906001019060200180831161149757829003601f168201915b5050509183525050600282015460209091019060ff1660058111156114db576114db612068565b60058111156114ec576114ec612068565b8152602001600382018054611500906124a2565b80601f016020809104026020016040519081016040528092919081815260200182805461152c906124a2565b80156115775780601f1061154e57610100808354040283529160200191611577565b820191905f5260205f20905b81548152906001019060200180831161155a57829003601f168201915b50505050508152602001600482018054611590906124a2565b80601f01602080910402602001604051908101604052809291908181526020018280546115bc906124a2565b80156116075780601f106115de57610100808354040283529160200191611607565b820191905f5260205f20905b8154815290600101906020018083116115ea57829003601f168201915b50505050508152602001600582018054611620906124a2565b80601f016020809104026020016040519081016040528092919081815260200182805461164c906124a2565b80156116975780601f1061166e57610100808354040283529160200191611697565b820191905f5260205f20905b81548152906001019060200180831161167a57829003601f168201915b505050505081525050815260200160078201805480602002602001604051908101604052809291908181526020015f905b8282101561170f575f848152602090819020604080518082019091526002850290910180546001600160a01b031682526001908101548284015290835290920191016116c8565b50505090825250600891909101546001600160a01b0381166020830152600160a01b900460ff16151560409091015292915050565b61174c611ac4565b6001600160a01b03811661177557604051631e4fbdf760e01b81525f60048201526024016108ca565b61033581611af0565b611786611e1a565b6002546040805163183afaa960e11b815281515f936001600160a01b031692633075f55292600480820193918290030181865afa1580156117c9573d5f803e3d5ffd5b505050506040513d601f19601f820116820180604052508101906117ed91906124da565b50905060045f8281526020019081526020015f206040518060a00160405290815f8201548152602001600182016040518060c00160405290815f820180546113ad906124a2565b60026001540361185757604051633ee5aeb560e01b815260040160405180910390fd5b6002600155565b5f81116118ad5760405162461bcd60e51b815260206004820181905260248201527f576569676874206d7573742062652067726561746572207468616e207a65726f60448201526064016108ca565b5f8381526006602090815260408083203384529091529020546001600160a01b03161561190c5760405162461bcd60e51b815260206004820152600d60248201526c105b1c9958591e481d9bdd1959609a1b60448201526064016108ca565b5f83815260046020526040902060080154600160a01b900460ff16156119745760405162461bcd60e51b815260206004820152601e60248201527f50696563652068617320616c7265616479206265656e2064726f70706564000060448201526064016108ca565b6005548311156119965760405162461bcd60e51b81526004016108ca906125ca565b6040805180820182526001600160a01b0384811680835260208084018681525f89815260068352868120938152928252858320945185546001600160a01b03191694169390931784559151600190930192909255858252600790529081208054839290611a049084906127ba565b90915550505f8381526007602052604090819020546002549151632da8041360e11b8152600481018690526024810182905290916001600160a01b031690635b500826906044015f604051808303815f87803b158015611a62575f80fd5b505af1158015611a74573d5f803e3d5ffd5b505060408051858152602081018590526001600160a01b03871693508792507f0271f53eebbe20450d9578f28ec279231556c34545b30e2278d754ffd39cd63c910160405180910390a350505050565b5f546001600160a01b031633146103cc5760405163118cdaa760e01b81523360048201526024016108ca565b5f80546001600160a01b038381166001600160a01b0319831681178455604051919092169283917f8be0079c531659141344cd1fd0a4f28419497f9722a3daafe3b4186f6b6457e09190a35050565b5f606482511115611b925760405162461bcd60e51b815260206004820152601f60248201527f43726561746f72206172726179206d757374206e6f74206265203e203130300060448201526064016108ca565b5f805b835181101561077c575f6001600160a01b0316848281518110611bba57611bba61248e565b60200260200101515f01516001600160a01b031603611c1b5760405162461bcd60e51b815260206004820152601760248201527f496e76616c69642063726561746f72206164647265737300000000000000000060448201526064016108ca565b838181518110611c2d57611c2d61248e565b60200260200101516020015182611c4491906127ba565b9150600101611b95565b5f81604001516005811115611c6557611c65612068565b60ff16118015611c8e5750600581604001516005811115611c8857611c88612068565b60ff1611155b611ccf5760405162461bcd60e51b8152602060048201526012602482015271496e76616c6964206d65646961207479706560701b60448201526064016108ca565b600181604001516005811115611ce757611ce7612068565b03611d40575f816060015151116103355760405162461bcd60e51b815260206004820152601a60248201527f496d6167652055524c206d7573742062652070726f766964656400000000000060448201526064016108ca565b600281604001516005811115611d5857611d58612068565b03611db1575f8160a0015151116103355760405162461bcd60e51b815260206004820152601e60248201527f416e696d6174696f6e2055524c206d7573742062652070726f7669646564000060448201526064016108ca565b600481604001516005811115611dc957611dc9612068565b03610335575f816080015151116103355760405162461bcd60e51b815260206004820152601560248201527415195e1d081b5d5cdd081899481c1c9bdd9a591959605a1b60448201526064016108ca565b6040518060a001604052805f8152602001611e616040805160c081018252606080825260208201529081015f81526020016060815260200160608152602001606081525090565b81526060602082018190525f6040830181905291015290565b5f60208284031215611e8a575f80fd5b5035919050565b80356001600160a01b038116811461133a575f80fd5b5f8060408385031215611eb8575f80fd5b82359150611ec860208401611e91565b90509250929050565b634e487b7160e01b5f52604160045260245ffd5b6040810181811067ffffffffffffffff82111715611f0557611f05611ed1565b60405250565b601f8201601f1916810167ffffffffffffffff81118282101715611f3157611f31611ed1565b6040525050565b60405160c0810167ffffffffffffffff81118282101715611f5b57611f5b611ed1565b60405290565b5f67ffffffffffffffff821115611f7a57611f7a611ed1565b5060051b60200190565b5f6020808385031215611f95575f80fd5b823567ffffffffffffffff811115611fab575f80fd5b8301601f81018513611fbb575f80fd5b8035611fc681611f61565b604051611fd38282611f0b565b82815260059290921b8301840191848101915087831115611ff2575f80fd5b928401925b8284101561201057833582529284019290840190611ff7565b979650505050505050565b5f5b8381101561203557818101518382015260200161201d565b50505f910152565b5f815180845261205481602086016020860161201b565b601f01601f19169290920160200192915050565b634e487b7160e01b5f52602160045260245ffd5b5f815160c0845261209060c085018261203d565b9050602083015184820360208601526120a9828261203d565b9150506040830151600681106120cd57634e487b7160e01b5f52602160045260245ffd5b80604086015250606083015184820360608601526120eb828261203d565b91505060808301518482036080860152612105828261203d565b91505060a083015184820360a086015261211f828261203d565b95945050505050565b848152608060208201525f612140608083018661207c565b6001600160a01b039490941660408301525090151560609091015292915050565b5f602080835283518184015280840151604060a0604086015261218760c086018361207c565b6040870151868203601f19016060880152805180835290850193505f918501905b808310156121e2576121ce82865180516001600160a01b03168252602090810151910152565b9385019360019290920191908301906121a8565b5060608801516001600160a01b03811660808901529450608088015180151560a08901529450612010565b81516001600160a01b03168152602080830151908201526040810161035f565b5f82601f83011261223c575f80fd5b813567ffffffffffffffff81111561225657612256611ed1565b60405161226d601f8301601f191660200182611f0b565b818152846020838601011115612281575f80fd5b816020850160208301375f918101602001919091529392505050565b80356006811061133a575f80fd5b5f82601f8301126122ba575f80fd5b813560206122c782611f61565b604080516122d58382611f0b565b84815260069490941b86018301938381019250878511156122f4575f80fd5b8387015b858110156123395782818a03121561230e575f80fd5b825161231981611ee5565b61232282611e91565b8152818601358682015284529284019282016122f8565b50979650505050505050565b5f8060408385031215612356575f80fd5b823567ffffffffffffffff8082111561236d575f80fd5b9084019060c08287031215612380575f80fd5b612388611f38565b823582811115612396575f80fd5b6123a28882860161222d565b8252506020830135828111156123b6575f80fd5b6123c28882860161222d565b6020830152506123d46040840161229d565b60408201526060830135828111156123ea575f80fd5b6123f68882860161222d565b60608301525060808301358281111561240d575f80fd5b6124198882860161222d565b60808301525060a083013582811115612430575f80fd5b61243c8882860161222d565b60a08301525093506020850135915080821115612457575f80fd5b50612464858286016122ab565b9150509250929050565b5f6020828403121561247e575f80fd5b61248782611e91565b9392505050565b634e487b7160e01b5f52603260045260245ffd5b600181811c908216806124b657607f821691505b6020821081036124d457634e487b7160e01b5f52602260045260245ffd5b50919050565b5f80604083850312156124eb575f80fd5b505080516020909101519092909150565b5f60033d1115610e845760045f803e505f5160e01c90565b5f60443d10156125215790565b6040516003193d81016004833e81513d67ffffffffffffffff816024840111818411171561255157505050505090565b82850191508151818111156125695750505050505090565b843d87010160208285010111156125835750505050505090565b61259260208286010187611f0b565b509095945050505050565b5f82516125ae81846020870161201b565b9190910192915050565b602081525f612487602083018461203d565b60208082526010908201526f125b9d985b1a59081c1a5958d948125160821b604082015260600190565b634e487b7160e01b5f52601160045260245ffd5b5f60018201612619576126196125f4565b5060010190565b601f82111561266757805f5260205f20601f840160051c810160208510156126455750805b601f840160051c820191505b81811015612664575f8155600101612651565b50505b505050565b815167ffffffffffffffff81111561268657612686611ed1565b61269a8161269484546124a2565b84612620565b602080601f8311600181146126cd575f84156126b65750858301515b5f19600386901b1c1916600185901b178555612724565b5f85815260208120601f198616915b828110156126fb578886015182559484019460019091019084016126dc565b508582101561271857878501515f19600388901b60f8161c191681555b505060018460011b0185555b505050505050565b60c081525f61273e60c083018961203d565b8281036020840152612750818961203d565b90508281036040840152612764818861203d565b90508281036060840152612778818761203d565b9050828103608084015261278c818661203d565b91505060ff831660a0830152979650505050505050565b5f602082840312156127b3575f80fd5b5051919050565b8082018082111561035f5761035f6125f456fea26469706673582212209d3aeea226e87620612e1711da0e65f0b9aa3753e6992f74390dcc3bf7cf045564736f6c6343000816003360806040525f600355348015610013575f80fd5b50604051610965380380610965833981016040819052610032916100c3565b806001600160a01b03811661006057604051631e4fbdf760e01b81525f600482015260240160405180910390fd5b61006981610074565b5050600180556100f0565b5f80546001600160a01b038381166001600160a01b0319831681178455604051919092169283917f8be0079c531659141344cd1fd0a4f28419497f9722a3daafe3b4186f6b6457e09190a35050565b5f602082840312156100d3575f80fd5b81516001600160a01b03811681146100e9575f80fd5b9392505050565b610868806100fd5f395ff3fe608060405234801561000f575f80fd5b50600436106100b1575f3560e01c80638860805a1161006e5780638860805a146101535780638da5cb5b1461015b578063949d225d146101755780639f9a7f501461017e578063f1269e0114610191578063f2fde38b146101b0575f80fd5b80631c01f292146100b55780631d834a1b146100e75780633075f552146100fc5780635b50082614610119578063715018a61461012c578063843f979314610134575b5f80fd5b6100d46100c3366004610731565b60026020525f908152604090205481565b6040519081526020015b60405180910390f35b6100fa6100f5366004610748565b6101c3565b005b610104610297565b604080519283526020830191909152016100de565b6100fa610127366004610748565b610315565b6100fa6103dd565b6100d4610142366004610731565b60056020525f908152604090205481565b6101046103f0565b5f546040516001600160a01b0390911681526020016100de565b6100d460035481565b6100fa61018c366004610731565b6104df565b6100d461019f366004610731565b60046020525f908152604090205481565b6100fa6101be366004610768565b6105d8565b6101cb610612565b600380545f90815260026020908152604080832086905585835260048252808320859055925460059091529190208190555b8015801590610257575060045f60025f6102168561063e565b81526020019081526020015f205481526020019081526020015f205460045f60025f8581526020019081526020015f205481526020019081526020015f2054115b1561027e5761026e816102698361063e565b6106ab565b6102778161063e565b90506101fd565b60038054905f61028d836107a9565b9190505550505050565b5f805f600354116102df5760405162461bcd60e51b815260206004820152600d60248201526c4865617020697320656d70747960981b60448201526064015b60405180910390fd5b50507fac33ff75c19e70fe83507db0d683fd3465c996598dc972688b7ace676c89077b545f818152600460205260409020549091565b61031d610612565b5f828152600560209081526040808320546004909252909120805490839055808311156103c6575b811580159061039f575060045f60025f61035e8661063e565b81526020019081526020015f205481526020019081526020015f205460045f60025f8681526020019081526020015f205481526020019081526020015f2054115b156103c1576103b1826102698461063e565b6103ba8261063e565b9150610345565b6103d7565b808310156103d7576103d7826104df565b50505050565b6103e5610612565b6103ee5f6106e2565b565b5f806103fa610612565b5f6003541161043b5760405162461bcd60e51b815260206004820152600d60248201526c4865617020697320656d70747960981b60448201526064016102d6565b5f808052600260208190527fac33ff75c19e70fe83507db0d683fd3465c996598dc972688b7ace676c89077b5460038054919391829061047a906107c1565b918290555081526020808201929092526040015f9081205481805260029092527fac33ff75c19e70fe83507db0d683fd3465c996598dc972688b7ace676c89077b919091556104c8906104df565b5f8181526004602052604090205490925090509091565b6104e7610612565b5f6104f38260026107d6565b6104fe9060016107ed565b90505f61050c8360026107d6565b6105179060026107ed565b5f84815260026020818152604080842054845260048083528185205488865284845282862054865281845282862054878752858552838720548752919093529320546003549495509093909161056c91610800565b861015801561057d57506003548611155b1561058a57505050505050565b8183108061059757508083105b156105cf57808211156105bc576105ae86866106ab565b6105b7856104df565b6105cf565b6105c686856106ab565b6105cf846104df565b50505050505b50565b6105e0610612565b6001600160a01b03811661060957604051631e4fbdf760e01b81525f60048201526024016102d6565b6105d5816106e2565b5f546001600160a01b031633146103ee5760405163118cdaa760e01b81523360048201526024016102d6565b5f815f0361068e5760405162461bcd60e51b815260206004820152601b60248201527f506f736974696f6e2073686f756c64206e6f74206265207a65726f000000000060448201526064016102d6565b600261069b60018461081f565b6106a59190610800565b92915050565b5f81815260026020908152604080832080548685528285208054835581905584526005909252808320915483529091209190915555565b5f80546001600160a01b038381166001600160a01b0319831681178455604051919092169283917f8be0079c531659141344cd1fd0a4f28419497f9722a3daafe3b4186f6b6457e09190a35050565b5f60208284031215610741575f80fd5b5035919050565b5f8060408385031215610759575f80fd5b50508035926020909101359150565b5f60208284031215610778575f80fd5b81356001600160a01b038116811461078e575f80fd5b9392505050565b634e487b7160e01b5f52601160045260245ffd5b5f600182016107ba576107ba610795565b5060010190565b5f816107cf576107cf610795565b505f190190565b80820281158282048414176106a5576106a5610795565b808201808211156106a5576106a5610795565b5f8261081a57634e487b7160e01b5f52601260045260245ffd5b500490565b818103818111156106a5576106a561079556fea2646970667358221220f231acab81386ecd17bb14cdbd61b859da89e32d88745338550027b6c123525664736f6c63430008160033",
					"opcodes": "PUSH1 0x80 PUSH1 0x40 MSTORE CALLVALUE DUP1 ISZERO PUSH3 0x10 JUMPI PUSH0 DUP1 REVERT JUMPDEST POP PUSH1 0x40 MLOAD PUSH3 0x3316 CODESIZE SUB DUP1 PUSH3 0x3316 DUP4 CODECOPY DUP2 ADD PUSH1 0x40 DUP2 SWAP1 MSTORE PUSH3 0x33 SWAP2 PUSH3 0x16A JUMP JUMPDEST DUP1 PUSH1 0x1 PUSH1 0x1 PUSH1 0xA0 SHL SUB DUP2 AND PUSH3 0x62 JUMPI PUSH1 0x40 MLOAD PUSH4 0x1E4FBDF7 PUSH1 0xE0 SHL DUP2 MSTORE PUSH0 PUSH1 0x4 DUP3 ADD MSTORE PUSH1 0x24 ADD PUSH1 0x40 MLOAD DUP1 SWAP2 SUB SWAP1 REVERT JUMPDEST PUSH3 0x6D DUP2 PUSH3 0xF1 JUMP JUMPDEST POP PUSH1 0x1 DUP1 SSTORE PUSH1 0x3 DUP1 SLOAD PUSH1 0x1 PUSH1 0x1 PUSH1 0xA0 SHL SUB NOT AND PUSH1 0x1 PUSH1 0x1 PUSH1 0xA0 SHL SUB DUP5 AND OR SWAP1 SSTORE PUSH1 0x40 MLOAD ADDRESS SWAP1 PUSH3 0x9D SWAP1 PUSH3 0x140 JUMP JUMPDEST PUSH1 0x1 PUSH1 0x1 PUSH1 0xA0 SHL SUB SWAP1 SWAP2 AND DUP2 MSTORE PUSH1 0x20 ADD PUSH1 0x40 MLOAD DUP1 SWAP2 SUB SWAP1 PUSH0 CREATE DUP1 ISZERO DUP1 ISZERO PUSH3 0xC7 JUMPI RETURNDATASIZE PUSH0 DUP1 RETURNDATACOPY RETURNDATASIZE PUSH0 REVERT JUMPDEST POP PUSH1 0x2 DUP1 SLOAD PUSH1 0x1 PUSH1 0x1 PUSH1 0xA0 SHL SUB NOT AND PUSH1 0x1 PUSH1 0x1 PUSH1 0xA0 SHL SUB SWAP3 SWAP1 SWAP3 AND SWAP2 SWAP1 SWAP2 OR SWAP1 SSTORE POP PUSH3 0x1A0 SWAP1 POP JUMP JUMPDEST PUSH0 DUP1 SLOAD PUSH1 0x1 PUSH1 0x1 PUSH1 0xA0 SHL SUB DUP4 DUP2 AND PUSH1 0x1 PUSH1 0x1 PUSH1 0xA0 SHL SUB NOT DUP4 AND DUP2 OR DUP5 SSTORE PUSH1 0x40 MLOAD SWAP2 SWAP1 SWAP3 AND SWAP3 DUP4 SWAP2 PUSH32 0x8BE0079C531659141344CD1FD0A4F28419497F9722A3DAAFE3B4186F6B6457E0 SWAP2 SWAP1 LOG3 POP POP JUMP JUMPDEST PUSH2 0x965 DUP1 PUSH3 0x29B1 DUP4 CODECOPY ADD SWAP1 JUMP JUMPDEST DUP1 MLOAD PUSH1 0x1 PUSH1 0x1 PUSH1 0xA0 SHL SUB DUP2 AND DUP2 EQ PUSH3 0x165 JUMPI PUSH0 DUP1 REVERT JUMPDEST SWAP2 SWAP1 POP JUMP JUMPDEST PUSH0 DUP1 PUSH1 0x40 DUP4 DUP6 SUB SLT ISZERO PUSH3 0x17C JUMPI PUSH0 DUP1 REVERT JUMPDEST PUSH3 0x187 DUP4 PUSH3 0x14E JUMP JUMPDEST SWAP2 POP PUSH3 0x197 PUSH1 0x20 DUP5 ADD PUSH3 0x14E JUMP JUMPDEST SWAP1 POP SWAP3 POP SWAP3 SWAP1 POP JUMP JUMPDEST PUSH2 0x2803 DUP1 PUSH3 0x1AE PUSH0 CODECOPY PUSH0 RETURN INVALID PUSH1 0x80 PUSH1 0x40 MSTORE CALLVALUE DUP1 ISZERO PUSH2 0xF JUMPI PUSH0 DUP1 REVERT JUMPDEST POP PUSH1 0x4 CALLDATASIZE LT PUSH2 0x11C JUMPI PUSH0 CALLDATALOAD PUSH1 0xE0 SHR DUP1 PUSH4 0xB0340123 GT PUSH2 0xA9 JUMPI DUP1 PUSH4 0xD75D43C9 GT PUSH2 0x6E JUMPI DUP1 PUSH4 0xD75D43C9 EQ PUSH2 0x2B8 JUMPI DUP1 PUSH4 0xD85C91AE EQ PUSH2 0x2CB JUMPI DUP1 PUSH4 0xDEB50C35 EQ PUSH2 0x2DE JUMPI DUP1 PUSH4 0xF2FDE38B EQ PUSH2 0x2F1 JUMPI DUP1 PUSH4 0xF8A8BE40 EQ PUSH2 0x304 JUMPI PUSH0 DUP1 REVERT JUMPDEST DUP1 PUSH4 0xB0340123 EQ PUSH2 0x20C JUMPI DUP1 PUSH4 0xB7B61494 EQ PUSH2 0x21F JUMPI DUP1 PUSH4 0xBAD22AFF EQ PUSH2 0x227 JUMPI DUP1 PUSH4 0xBC3F931F EQ PUSH2 0x23C JUMPI DUP1 PUSH4 0xD23254B4 EQ PUSH2 0x25C JUMPI PUSH0 DUP1 REVERT JUMPDEST DUP1 PUSH4 0x4A5C4DFE GT PUSH2 0xEF JUMPI DUP1 PUSH4 0x4A5C4DFE EQ PUSH2 0x1B5 JUMPI DUP1 PUSH4 0x65422A55 EQ PUSH2 0x1BE JUMPI DUP1 PUSH4 0x715018A6 EQ PUSH2 0x1D1 JUMPI DUP1 PUSH4 0x8DA5CB5B EQ PUSH2 0x1D9 JUMPI DUP1 PUSH4 0x8F64BE30 EQ PUSH2 0x1E9 JUMPI PUSH0 DUP1 REVERT JUMPDEST DUP1 PUSH4 0x121B93F EQ PUSH2 0x120 JUMPI DUP1 PUSH4 0x4432C8A EQ PUSH2 0x135 JUMPI DUP1 PUSH4 0x4F50270 EQ PUSH2 0x165 JUMPI DUP1 PUSH4 0x43859632 EQ PUSH2 0x192 JUMPI JUMPDEST PUSH0 DUP1 REVERT JUMPDEST PUSH2 0x133 PUSH2 0x12E CALLDATASIZE PUSH1 0x4 PUSH2 0x1E7A JUMP JUMPDEST PUSH2 0x30C JUMP JUMPDEST STOP JUMPDEST PUSH1 0x2 SLOAD PUSH2 0x148 SWAP1 PUSH1 0x1 PUSH1 0x1 PUSH1 0xA0 SHL SUB AND DUP2 JUMP JUMPDEST PUSH1 0x40 MLOAD PUSH1 0x1 PUSH1 0x1 PUSH1 0xA0 SHL SUB SWAP1 SWAP2 AND DUP2 MSTORE PUSH1 0x20 ADD JUMPDEST PUSH1 0x40 MLOAD DUP1 SWAP2 SUB SWAP1 RETURN JUMPDEST PUSH2 0x184 PUSH2 0x173 CALLDATASIZE PUSH1 0x4 PUSH2 0x1E7A JUMP JUMPDEST PUSH1 0x7 PUSH1 0x20 MSTORE PUSH0 SWAP1 DUP2 MSTORE PUSH1 0x40 SWAP1 KECCAK256 SLOAD DUP2 JUMP JUMPDEST PUSH1 0x40 MLOAD SWAP1 DUP2 MSTORE PUSH1 0x20 ADD PUSH2 0x15C JUMP JUMPDEST PUSH2 0x1A5 PUSH2 0x1A0 CALLDATASIZE PUSH1 0x4 PUSH2 0x1EA7 JUMP JUMPDEST PUSH2 0x338 JUMP JUMPDEST PUSH1 0x40 MLOAD SWAP1 ISZERO ISZERO DUP2 MSTORE PUSH1 0x20 ADD PUSH2 0x15C JUMP JUMPDEST PUSH2 0x184 PUSH1 0x5 SLOAD DUP2 JUMP JUMPDEST PUSH2 0x133 PUSH2 0x1CC CALLDATASIZE PUSH1 0x4 PUSH2 0x1F84 JUMP JUMPDEST PUSH2 0x365 JUMP JUMPDEST PUSH2 0x133 PUSH2 0x3BB JUMP JUMPDEST PUSH0 SLOAD PUSH1 0x1 PUSH1 0x1 PUSH1 0xA0 SHL SUB AND PUSH2 0x148 JUMP JUMPDEST PUSH2 0x1FC PUSH2 0x1F7 CALLDATASIZE PUSH1 0x4 PUSH2 0x1E7A JUMP JUMPDEST PUSH2 0x3CE JUMP JUMPDEST PUSH1 0x40 MLOAD PUSH2 0x15C SWAP5 SWAP4 SWAP3 SWAP2 SWAP1 PUSH2 0x2128 JUMP JUMPDEST PUSH1 0x3 SLOAD PUSH2 0x148 SWAP1 PUSH1 0x1 PUSH1 0x1 PUSH1 0xA0 SHL SUB AND DUP2 JUMP JUMPDEST PUSH2 0x184 PUSH2 0x711 JUMP JUMPDEST PUSH2 0x22F PUSH2 0x783 JUMP JUMPDEST PUSH1 0x40 MLOAD PUSH2 0x15C SWAP2 SWAP1 PUSH2 0x2161 JUMP JUMPDEST PUSH2 0x24F PUSH2 0x24A CALLDATASIZE PUSH1 0x4 PUSH2 0x1EA7 JUMP JUMPDEST PUSH2 0xE87 JUMP JUMPDEST PUSH1 0x40 MLOAD PUSH2 0x15C SWAP2 SWAP1 PUSH2 0x220D JUMP JUMPDEST PUSH2 0x299 PUSH2 0x26A CALLDATASIZE PUSH1 0x4 PUSH2 0x1EA7 JUMP JUMPDEST PUSH1 0x6 PUSH1 0x20 SWAP1 DUP2 MSTORE PUSH0 SWAP3 DUP4 MSTORE PUSH1 0x40 DUP1 DUP5 KECCAK256 SWAP1 SWAP2 MSTORE SWAP1 DUP3 MSTORE SWAP1 KECCAK256 DUP1 SLOAD PUSH1 0x1 SWAP1 SWAP2 ADD SLOAD PUSH1 0x1 PUSH1 0x1 PUSH1 0xA0 SHL SUB SWAP1 SWAP2 AND SWAP1 DUP3 JUMP JUMPDEST PUSH1 0x40 DUP1 MLOAD PUSH1 0x1 PUSH1 0x1 PUSH1 0xA0 SHL SUB SWAP1 SWAP4 AND DUP4 MSTORE PUSH1 0x20 DUP4 ADD SWAP2 SWAP1 SWAP2 MSTORE ADD PUSH2 0x15C JUMP JUMPDEST PUSH2 0x184 PUSH2 0x2C6 CALLDATASIZE PUSH1 0x4 PUSH2 0x2345 JUMP JUMPDEST PUSH2 0xEFC JUMP JUMPDEST PUSH2 0x184 PUSH2 0x2D9 CALLDATASIZE PUSH1 0x4 PUSH2 0x246E JUMP JUMPDEST PUSH2 0x121B JUMP JUMPDEST PUSH2 0x22F PUSH2 0x2EC CALLDATASIZE PUSH1 0x4 PUSH2 0x1E7A JUMP JUMPDEST PUSH2 0x133F JUMP JUMPDEST PUSH2 0x133 PUSH2 0x2FF CALLDATASIZE PUSH1 0x4 PUSH2 0x246E JUMP JUMPDEST PUSH2 0x1744 JUMP JUMPDEST PUSH2 0x22F PUSH2 0x177E JUMP JUMPDEST PUSH2 0x314 PUSH2 0x1834 JUMP JUMPDEST PUSH0 PUSH2 0x31E CALLER PUSH2 0x121B JUMP JUMPDEST SWAP1 POP PUSH2 0x32B DUP3 CALLER DUP4 PUSH2 0x185E JUMP JUMPDEST POP PUSH2 0x335 PUSH1 0x1 DUP1 SSTORE JUMP JUMPDEST POP JUMP JUMPDEST PUSH0 DUP3 DUP2 MSTORE PUSH1 0x6 PUSH1 0x20 SWAP1 DUP2 MSTORE PUSH1 0x40 DUP1 DUP4 KECCAK256 PUSH1 0x1 PUSH1 0x1 PUSH1 0xA0 SHL SUB DUP6 DUP2 AND DUP6 MSTORE SWAP3 MSTORE SWAP1 SWAP2 KECCAK256 SLOAD AND ISZERO ISZERO JUMPDEST SWAP3 SWAP2 POP POP JUMP JUMPDEST PUSH2 0x36D PUSH2 0x1834 JUMP JUMPDEST PUSH0 PUSH2 0x377 CALLER PUSH2 0x121B JUMP JUMPDEST SWAP1 POP PUSH0 JUMPDEST DUP3 MLOAD DUP2 LT ISZERO PUSH2 0x3B0 JUMPI PUSH2 0x3A8 DUP4 DUP3 DUP2 MLOAD DUP2 LT PUSH2 0x399 JUMPI PUSH2 0x399 PUSH2 0x248E JUMP JUMPDEST PUSH1 0x20 MUL PUSH1 0x20 ADD ADD MLOAD CALLER DUP5 PUSH2 0x185E JUMP JUMPDEST PUSH1 0x1 ADD PUSH2 0x37B JUMP JUMPDEST POP POP PUSH2 0x335 PUSH1 0x1 DUP1 SSTORE JUMP JUMPDEST PUSH2 0x3C3 PUSH2 0x1AC4 JUMP JUMPDEST PUSH2 0x3CC PUSH0 PUSH2 0x1AF0 JUMP JUMPDEST JUMP JUMPDEST PUSH1 0x4 PUSH1 0x20 MSTORE PUSH0 SWAP1 DUP2 MSTORE PUSH1 0x40 SWAP1 DUP2 SWAP1 KECCAK256 DUP1 SLOAD DUP3 MLOAD PUSH1 0xC0 DUP2 ADD SWAP1 SWAP4 MSTORE PUSH1 0x1 DUP3 ADD DUP1 SLOAD SWAP2 SWAP4 SWAP2 DUP3 SWAP1 DUP3 SWAP1 PUSH2 0x3FE SWAP1 PUSH2 0x24A2 JUMP JUMPDEST DUP1 PUSH1 0x1F ADD PUSH1 0x20 DUP1 SWAP2 DIV MUL PUSH1 0x20 ADD PUSH1 0x40 MLOAD SWAP1 DUP2 ADD PUSH1 0x40 MSTORE DUP1 SWAP3 SWAP2 SWAP1 DUP2 DUP2 MSTORE PUSH1 0x20 ADD DUP3 DUP1 SLOAD PUSH2 0x42A SWAP1 PUSH2 0x24A2 JUMP JUMPDEST DUP1 ISZERO PUSH2 0x475 JUMPI DUP1 PUSH1 0x1F LT PUSH2 0x44C JUMPI PUSH2 0x100 DUP1 DUP4 SLOAD DIV MUL DUP4 MSTORE SWAP2 PUSH1 0x20 ADD SWAP2 PUSH2 0x475 JUMP JUMPDEST DUP3 ADD SWAP2 SWAP1 PUSH0 MSTORE PUSH1 0x20 PUSH0 KECCAK256 SWAP1 JUMPDEST DUP2 SLOAD DUP2 MSTORE SWAP1 PUSH1 0x1 ADD SWAP1 PUSH1 0x20 ADD DUP1 DUP4 GT PUSH2 0x458 JUMPI DUP3 SWAP1 SUB PUSH1 0x1F AND DUP3 ADD SWAP2 JUMPDEST POP POP POP POP POP DUP2 MSTORE PUSH1 0x20 ADD PUSH1 0x1 DUP3 ADD DUP1 SLOAD PUSH2 0x48E SWAP1 PUSH2 0x24A2 JUMP JUMPDEST DUP1 PUSH1 0x1F ADD PUSH1 0x20 DUP1 SWAP2 DIV MUL PUSH1 0x20 ADD PUSH1 0x40 MLOAD SWAP1 DUP2 ADD PUSH1 0x40 MSTORE DUP1 SWAP3 SWAP2 SWAP1 DUP2 DUP2 MSTORE PUSH1 0x20 ADD DUP3 DUP1 SLOAD PUSH2 0x4BA SWAP1 PUSH2 0x24A2 JUMP JUMPDEST DUP1 ISZERO PUSH2 0x505 JUMPI DUP1 PUSH1 0x1F LT PUSH2 0x4DC JUMPI PUSH2 0x100 DUP1 DUP4 SLOAD DIV MUL DUP4 MSTORE SWAP2 PUSH1 0x20 ADD SWAP2 PUSH2 0x505 JUMP JUMPDEST DUP3 ADD SWAP2 SWAP1 PUSH0 MSTORE PUSH1 0x20 PUSH0 KECCAK256 SWAP1 JUMPDEST DUP2 SLOAD DUP2 MSTORE SWAP1 PUSH1 0x1 ADD SWAP1 PUSH1 0x20 ADD DUP1 DUP4 GT PUSH2 0x4E8 JUMPI DUP3 SWAP1 SUB PUSH1 0x1F AND DUP3 ADD SWAP2 JUMPDEST POP POP POP SWAP2 DUP4 MSTORE POP POP PUSH1 0x2 DUP3 ADD SLOAD PUSH1 0x20 SWAP1 SWAP2 ADD SWAP1 PUSH1 0xFF AND PUSH1 0x5 DUP2 GT ISZERO PUSH2 0x52C JUMPI PUSH2 0x52C PUSH2 0x2068 JUMP JUMPDEST PUSH1 0x5 DUP2 GT ISZERO PUSH2 0x53D JUMPI PUSH2 0x53D PUSH2 0x2068 JUMP JUMPDEST DUP2 MSTORE PUSH1 0x20 ADD PUSH1 0x3 DUP3 ADD DUP1 SLOAD PUSH2 0x551 SWAP1 PUSH2 0x24A2 JUMP JUMPDEST DUP1 PUSH1 0x1F ADD PUSH1 0x20 DUP1 SWAP2 DIV MUL PUSH1 0x20 ADD PUSH1 0x40 MLOAD SWAP1 DUP2 ADD PUSH1 0x40 MSTORE DUP1 SWAP3 SWAP2 SWAP1 DUP2 DUP2 MSTORE PUSH1 0x20 ADD DUP3 DUP1 SLOAD PUSH2 0x57D SWAP1 PUSH2 0x24A2 JUMP JUMPDEST DUP1 ISZERO PUSH2 0x5C8 JUMPI DUP1 PUSH1 0x1F LT PUSH2 0x59F JUMPI PUSH2 0x100 DUP1 DUP4 SLOAD DIV MUL DUP4 MSTORE SWAP2 PUSH1 0x20 ADD SWAP2 PUSH2 0x5C8 JUMP JUMPDEST DUP3 ADD SWAP2 SWAP1 PUSH0 MSTORE PUSH1 0x20 PUSH0 KECCAK256 SWAP1 JUMPDEST DUP2 SLOAD DUP2 MSTORE SWAP1 PUSH1 0x1 ADD SWAP1 PUSH1 0x20 ADD DUP1 DUP4 GT PUSH2 0x5AB JUMPI DUP3 SWAP1 SUB PUSH1 0x1F AND DUP3 ADD SWAP2 JUMPDEST POP POP POP POP POP DUP2 MSTORE PUSH1 0x20 ADD PUSH1 0x4 DUP3 ADD DUP1 SLOAD PUSH2 0x5E1 SWAP1 PUSH2 0x24A2 JUMP JUMPDEST DUP1 PUSH1 0x1F ADD PUSH1 0x20 DUP1 SWAP2 DIV MUL PUSH1 0x20 ADD PUSH1 0x40 MLOAD SWAP1 DUP2 ADD PUSH1 0x40 MSTORE DUP1 SWAP3 SWAP2 SWAP1 DUP2 DUP2 MSTORE PUSH1 0x20 ADD DUP3 DUP1 SLOAD PUSH2 0x60D SWAP1 PUSH2 0x24A2 JUMP JUMPDEST DUP1 ISZERO PUSH2 0x658 JUMPI DUP1 PUSH1 0x1F LT PUSH2 0x62F JUMPI PUSH2 0x100 DUP1 DUP4 SLOAD DIV MUL DUP4 MSTORE SWAP2 PUSH1 0x20 ADD SWAP2 PUSH2 0x658 JUMP JUMPDEST DUP3 ADD SWAP2 SWAP1 PUSH0 MSTORE PUSH1 0x20 PUSH0 KECCAK256 SWAP1 JUMPDEST DUP2 SLOAD DUP2 MSTORE SWAP1 PUSH1 0x1 ADD SWAP1 PUSH1 0x20 ADD DUP1 DUP4 GT PUSH2 0x63B JUMPI DUP3 SWAP1 SUB PUSH1 0x1F AND DUP3 ADD SWAP2 JUMPDEST POP POP POP POP POP DUP2 MSTORE PUSH1 0x20 ADD PUSH1 0x5 DUP3 ADD DUP1 SLOAD PUSH2 0x671 SWAP1 PUSH2 0x24A2 JUMP JUMPDEST DUP1 PUSH1 0x1F ADD PUSH1 0x20 DUP1 SWAP2 DIV MUL PUSH1 0x20 ADD PUSH1 0x40 MLOAD SWAP1 DUP2 ADD PUSH1 0x40 MSTORE DUP1 SWAP3 SWAP2 SWAP1 DUP2 DUP2 MSTORE PUSH1 0x20 ADD DUP3 DUP1 SLOAD PUSH2 0x69D SWAP1 PUSH2 0x24A2 JUMP JUMPDEST DUP1 ISZERO PUSH2 0x6E8 JUMPI DUP1 PUSH1 0x1F LT PUSH2 0x6BF JUMPI PUSH2 0x100 DUP1 DUP4 SLOAD DIV MUL DUP4 MSTORE SWAP2 PUSH1 0x20 ADD SWAP2 PUSH2 0x6E8 JUMP JUMPDEST DUP3 ADD SWAP2 SWAP1 PUSH0 MSTORE PUSH1 0x20 PUSH0 KECCAK256 SWAP1 JUMPDEST DUP2 SLOAD DUP2 MSTORE SWAP1 PUSH1 0x1 ADD SWAP1 PUSH1 0x20 ADD DUP1 DUP4 GT PUSH2 0x6CB JUMPI DUP3 SWAP1 SUB PUSH1 0x1F AND DUP3 ADD SWAP2 JUMPDEST POP POP POP SWAP2 SWAP1 SWAP3 MSTORE POP POP POP PUSH1 0x8 SWAP1 SWAP2 ADD SLOAD PUSH1 0x1 PUSH1 0x1 PUSH1 0xA0 SHL SUB DUP2 AND SWAP1 PUSH1 0xFF PUSH1 0x1 PUSH1 0xA0 SHL SWAP1 SWAP2 DIV AND DUP5 JUMP JUMPDEST PUSH1 0x2 SLOAD PUSH1 0x40 DUP1 MLOAD PUSH4 0x183AFAA9 PUSH1 0xE1 SHL DUP2 MSTORE DUP2 MLOAD PUSH0 SWAP4 DUP5 SWAP4 PUSH1 0x1 PUSH1 0x1 PUSH1 0xA0 SHL SUB SWAP1 SWAP2 AND SWAP3 PUSH4 0x3075F552 SWAP3 PUSH1 0x4 DUP1 DUP4 ADD SWAP4 SWAP3 DUP3 SWAP1 SUB ADD DUP2 DUP7 GAS STATICCALL ISZERO DUP1 ISZERO PUSH2 0x758 JUMPI RETURNDATASIZE PUSH0 DUP1 RETURNDATACOPY RETURNDATASIZE PUSH0 REVERT JUMPDEST POP POP POP POP PUSH1 0x40 MLOAD RETURNDATASIZE PUSH1 0x1F NOT PUSH1 0x1F DUP3 ADD AND DUP3 ADD DUP1 PUSH1 0x40 MSTORE POP DUP2 ADD SWAP1 PUSH2 0x77C SWAP2 SWAP1 PUSH2 0x24DA JUMP JUMPDEST POP SWAP3 SWAP2 POP POP JUMP JUMPDEST PUSH2 0x78B PUSH2 0x1E1A JUMP JUMPDEST PUSH2 0x793 PUSH2 0x1834 JUMP JUMPDEST PUSH2 0x79B PUSH2 0x1AC4 JUMP JUMPDEST PUSH1 0x2 SLOAD PUSH1 0x40 DUP1 MLOAD PUSH4 0x4430402D PUSH1 0xE1 SHL DUP2 MSTORE DUP2 MLOAD PUSH0 SWAP4 PUSH1 0x1 PUSH1 0x1 PUSH1 0xA0 SHL SUB AND SWAP3 PUSH4 0x8860805A SWAP3 PUSH1 0x4 DUP1 DUP3 ADD SWAP4 SWAP2 DUP3 SWAP1 SUB ADD DUP2 DUP8 DUP8 GAS CALL SWAP3 POP POP POP DUP1 ISZERO PUSH2 0x7FD JUMPI POP PUSH1 0x40 DUP1 MLOAD PUSH1 0x1F RETURNDATASIZE SWAP1 DUP2 ADD PUSH1 0x1F NOT AND DUP3 ADD SWAP1 SWAP3 MSTORE PUSH2 0x7FA SWAP2 DUP2 ADD SWAP1 PUSH2 0x24DA JUMP JUMPDEST PUSH1 0x1 JUMPDEST PUSH2 0x971 JUMPI PUSH2 0x809 PUSH2 0x24FC JUMP JUMPDEST DUP1 PUSH4 0x8C379A0 SUB PUSH2 0x8ED JUMPI POP PUSH2 0x81D PUSH2 0x2514 JUMP JUMPDEST DUP1 PUSH2 0x828 JUMPI POP PUSH2 0x8EF JUMP JUMPDEST PUSH1 0x40 MLOAD PUSH13 0x4865617020697320656D707479 PUSH1 0x98 SHL PUSH1 0x20 DUP3 ADD MSTORE PUSH1 0x2D ADD PUSH1 0x40 MLOAD PUSH1 0x20 DUP2 DUP4 SUB SUB DUP2 MSTORE SWAP1 PUSH1 0x40 MSTORE DUP1 MLOAD SWAP1 PUSH1 0x20 ADD KECCAK256 DUP2 PUSH1 0x40 MLOAD PUSH1 0x20 ADD PUSH2 0x86B SWAP2 SWAP1 PUSH2 0x259D JUMP JUMPDEST PUSH1 0x40 MLOAD PUSH1 0x20 DUP2 DUP4 SUB SUB DUP2 MSTORE SWAP1 PUSH1 0x40 MSTORE DUP1 MLOAD SWAP1 PUSH1 0x20 ADD KECCAK256 SUB PUSH2 0x8D3 JUMPI PUSH1 0x40 MLOAD PUSH3 0x461BCD PUSH1 0xE5 SHL DUP2 MSTORE PUSH1 0x20 PUSH1 0x4 DUP3 ADD MSTORE PUSH1 0x1B PUSH1 0x24 DUP3 ADD MSTORE PUSH32 0x4E6F2070696563657320617661696C61626C6520746F2064726F700000000000 PUSH1 0x44 DUP3 ADD MSTORE PUSH1 0x64 ADD JUMPDEST PUSH1 0x40 MLOAD DUP1 SWAP2 SUB SWAP1 REVERT JUMPDEST DUP1 PUSH1 0x40 MLOAD PUSH3 0x461BCD PUSH1 0xE5 SHL DUP2 MSTORE PUSH1 0x4 ADD PUSH2 0x8CA SWAP2 SWAP1 PUSH2 0x25B8 JUMP JUMPDEST POP JUMPDEST RETURNDATASIZE DUP1 DUP1 ISZERO PUSH2 0x918 JUMPI PUSH1 0x40 MLOAD SWAP2 POP PUSH1 0x1F NOT PUSH1 0x3F RETURNDATASIZE ADD AND DUP3 ADD PUSH1 0x40 MSTORE RETURNDATASIZE DUP3 MSTORE RETURNDATASIZE PUSH0 PUSH1 0x20 DUP5 ADD RETURNDATACOPY PUSH2 0x91D JUMP JUMPDEST PUSH1 0x60 SWAP2 POP JUMPDEST POP PUSH1 0x40 MLOAD PUSH3 0x461BCD PUSH1 0xE5 SHL DUP2 MSTORE PUSH1 0x20 PUSH1 0x4 DUP3 ADD MSTORE PUSH1 0x22 PUSH1 0x24 DUP3 ADD MSTORE PUSH32 0x556E6B6E6F776E206572726F722065787472616374696E6720746F7020706965 PUSH1 0x44 DUP3 ADD MSTORE PUSH2 0x6365 PUSH1 0xF0 SHL PUSH1 0x64 DUP3 ADD MSTORE PUSH1 0x84 ADD PUSH2 0x8CA JUMP JUMPDEST POP SWAP1 POP PUSH0 DUP2 DUP2 MSTORE PUSH1 0x4 PUSH1 0x20 MSTORE PUSH1 0x40 DUP1 DUP3 KECCAK256 PUSH1 0x8 ADD DUP1 SLOAD PUSH1 0xFF PUSH1 0xA0 SHL NOT AND PUSH1 0x1 PUSH1 0xA0 SHL OR SWAP1 SSTORE MLOAD CALLER SWAP2 DUP4 SWAP2 PUSH32 0xA9BD530A1A995FE2B42BDDF7938E2E1ACAEF954CC9B31FFD1D13B7C3337502C8 SWAP2 SWAP1 LOG3 PUSH0 JUMPDEST PUSH0 DUP3 DUP2 MSTORE PUSH1 0x4 PUSH1 0x20 MSTORE PUSH1 0x40 SWAP1 KECCAK256 PUSH1 0x7 ADD SLOAD DUP2 LT ISZERO PUSH2 0xAA1 JUMPI PUSH0 DUP3 DUP2 MSTORE PUSH1 0x4 PUSH1 0x20 MSTORE PUSH1 0x40 SWAP1 KECCAK256 PUSH1 0x8 DUP2 ADD SLOAD PUSH1 0x7 SWAP1 SWAP2 ADD DUP1 SLOAD PUSH1 0x1 PUSH1 0x1 PUSH1 0xA0 SHL SUB SWAP1 SWAP3 AND SWAP2 DUP4 SWAP1 DUP2 LT PUSH2 0xA0E JUMPI PUSH2 0xA0E PUSH2 0x248E JUMP JUMPDEST PUSH0 SWAP2 DUP3 MSTORE PUSH1 0x20 DUP1 DUP4 KECCAK256 PUSH1 0x2 SWAP1 SWAP3 MUL SWAP1 SWAP2 ADD SLOAD DUP6 DUP4 MSTORE PUSH1 0x4 SWAP1 SWAP2 MSTORE PUSH1 0x40 SWAP1 SWAP2 KECCAK256 PUSH1 0x7 ADD DUP1 SLOAD PUSH1 0x1 PUSH1 0x1 PUSH1 0xA0 SHL SUB SWAP1 SWAP3 AND SWAP2 DUP6 SWAP2 PUSH32 0x1D1B857A6A6C5E310602C1448332E9B2799BA4C6AE3D1FB7527B62828DC7B91D SWAP2 DUP7 SWAP1 DUP2 LT PUSH2 0xA72 JUMPI PUSH2 0xA72 PUSH2 0x248E JUMP JUMPDEST SWAP1 PUSH0 MSTORE PUSH1 0x20 PUSH0 KECCAK256 SWAP1 PUSH1 0x2 MUL ADD PUSH1 0x1 ADD SLOAD PUSH1 0x40 MLOAD PUSH2 0xA91 SWAP2 DUP2 MSTORE PUSH1 0x20 ADD SWAP1 JUMP JUMPDEST PUSH1 0x40 MLOAD DUP1 SWAP2 SUB SWAP1 LOG4 PUSH1 0x1 ADD PUSH2 0x9C1 JUMP JUMPDEST POP PUSH1 0x4 PUSH0 DUP3 DUP2 MSTORE PUSH1 0x20 ADD SWAP1 DUP2 MSTORE PUSH1 0x20 ADD PUSH0 KECCAK256 PUSH1 0x40 MLOAD DUP1 PUSH1 0xA0 ADD PUSH1 0x40 MSTORE SWAP1 DUP2 PUSH0 DUP3 ADD SLOAD DUP2 MSTORE PUSH1 0x20 ADD PUSH1 0x1 DUP3 ADD PUSH1 0x40 MLOAD DUP1 PUSH1 0xC0 ADD PUSH1 0x40 MSTORE SWAP1 DUP2 PUSH0 DUP3 ADD DUP1 SLOAD PUSH2 0xAE6 SWAP1 PUSH2 0x24A2 JUMP JUMPDEST DUP1 PUSH1 0x1F ADD PUSH1 0x20 DUP1 SWAP2 DIV MUL PUSH1 0x20 ADD PUSH1 0x40 MLOAD SWAP1 DUP2 ADD PUSH1 0x40 MSTORE DUP1 SWAP3 SWAP2 SWAP1 DUP2 DUP2 MSTORE PUSH1 0x20 ADD DUP3 DUP1 SLOAD PUSH2 0xB12 SWAP1 PUSH2 0x24A2 JUMP JUMPDEST DUP1 ISZERO PUSH2 0xB5D JUMPI DUP1 PUSH1 0x1F LT PUSH2 0xB34 JUMPI PUSH2 0x100 DUP1 DUP4 SLOAD DIV MUL DUP4 MSTORE SWAP2 PUSH1 0x20 ADD SWAP2 PUSH2 0xB5D JUMP JUMPDEST DUP3 ADD SWAP2 SWAP1 PUSH0 MSTORE PUSH1 0x20 PUSH0 KECCAK256 SWAP1 JUMPDEST DUP2 SLOAD DUP2 MSTORE SWAP1 PUSH1 0x1 ADD SWAP1 PUSH1 0x20 ADD DUP1 DUP4 GT PUSH2 0xB40 JUMPI DUP3 SWAP1 SUB PUSH1 0x1F AND DUP3 ADD SWAP2 JUMPDEST POP POP POP POP POP DUP2 MSTORE PUSH1 0x20 ADD PUSH1 0x1 DUP3 ADD DUP1 SLOAD PUSH2 0xB76 SWAP1 PUSH2 0x24A2 JUMP JUMPDEST DUP1 PUSH1 0x1F ADD PUSH1 0x20 DUP1 SWAP2 DIV MUL PUSH1 0x20 ADD PUSH1 0x40 MLOAD SWAP1 DUP2 ADD PUSH1 0x40 MSTORE DUP1 SWAP3 SWAP2 SWAP1 DUP2 DUP2 MSTORE PUSH1 0x20 ADD DUP3 DUP1 SLOAD PUSH2 0xBA2 SWAP1 PUSH2 0x24A2 JUMP JUMPDEST DUP1 ISZERO PUSH2 0xBED JUMPI DUP1 PUSH1 0x1F LT PUSH2 0xBC4 JUMPI PUSH2 0x100 DUP1 DUP4 SLOAD DIV MUL DUP4 MSTORE SWAP2 PUSH1 0x20 ADD SWAP2 PUSH2 0xBED JUMP JUMPDEST DUP3 ADD SWAP2 SWAP1 PUSH0 MSTORE PUSH1 0x20 PUSH0 KECCAK256 SWAP1 JUMPDEST DUP2 SLOAD DUP2 MSTORE SWAP1 PUSH1 0x1 ADD SWAP1 PUSH1 0x20 ADD DUP1 DUP4 GT PUSH2 0xBD0 JUMPI DUP3 SWAP1 SUB PUSH1 0x1F AND DUP3 ADD SWAP2 JUMPDEST POP POP POP SWAP2 DUP4 MSTORE POP POP PUSH1 0x2 DUP3 ADD SLOAD PUSH1 0x20 SWAP1 SWAP2 ADD SWAP1 PUSH1 0xFF AND PUSH1 0x5 DUP2 GT ISZERO PUSH2 0xC14 JUMPI PUSH2 0xC14 PUSH2 0x2068 JUMP JUMPDEST PUSH1 0x5 DUP2 GT ISZERO PUSH2 0xC25 JUMPI PUSH2 0xC25 PUSH2 0x2068 JUMP JUMPDEST DUP2 MSTORE PUSH1 0x20 ADD PUSH1 0x3 DUP3 ADD DUP1 SLOAD PUSH2 0xC39 SWAP1 PUSH2 0x24A2 JUMP JUMPDEST DUP1 PUSH1 0x1F ADD PUSH1 0x20 DUP1 SWAP2 DIV MUL PUSH1 0x20 ADD PUSH1 0x40 MLOAD SWAP1 DUP2 ADD PUSH1 0x40 MSTORE DUP1 SWAP3 SWAP2 SWAP1 DUP2 DUP2 MSTORE PUSH1 0x20 ADD DUP3 DUP1 SLOAD PUSH2 0xC65 SWAP1 PUSH2 0x24A2 JUMP JUMPDEST DUP1 ISZERO PUSH2 0xCB0 JUMPI DUP1 PUSH1 0x1F LT PUSH2 0xC87 JUMPI PUSH2 0x100 DUP1 DUP4 SLOAD DIV MUL DUP4 MSTORE SWAP2 PUSH1 0x20 ADD SWAP2 PUSH2 0xCB0 JUMP JUMPDEST DUP3 ADD SWAP2 SWAP1 PUSH0 MSTORE PUSH1 0x20 PUSH0 KECCAK256 SWAP1 JUMPDEST DUP2 SLOAD DUP2 MSTORE SWAP1 PUSH1 0x1 ADD SWAP1 PUSH1 0x20 ADD DUP1 DUP4 GT PUSH2 0xC93 JUMPI DUP3 SWAP1 SUB PUSH1 0x1F AND DUP3 ADD SWAP2 JUMPDEST POP POP POP POP POP DUP2 MSTORE PUSH1 0x20 ADD PUSH1 0x4 DUP3 ADD DUP1 SLOAD PUSH2 0xCC9 SWAP1 PUSH2 0x24A2 JUMP JUMPDEST DUP1 PUSH1 0x1F ADD PUSH1 0x20 DUP1 SWAP2 DIV MUL PUSH1 0x20 ADD PUSH1 0x40 MLOAD SWAP1 DUP2 ADD PUSH1 0x40 MSTORE DUP1 SWAP3 SWAP2 SWAP1 DUP2 DUP2 MSTORE PUSH1 0x20 ADD DUP3 DUP1 SLOAD PUSH2 0xCF5 SWAP1 PUSH2 0x24A2 JUMP JUMPDEST DUP1 ISZERO PUSH2 0xD40 JUMPI DUP1 PUSH1 0x1F LT PUSH2 0xD17 JUMPI PUSH2 0x100 DUP1 DUP4 SLOAD DIV MUL DUP4 MSTORE SWAP2 PUSH1 0x20 ADD SWAP2 PUSH2 0xD40 JUMP JUMPDEST DUP3 ADD SWAP2 SWAP1 PUSH0 MSTORE PUSH1 0x20 PUSH0 KECCAK256 SWAP1 JUMPDEST DUP2 SLOAD DUP2 MSTORE SWAP1 PUSH1 0x1 ADD SWAP1 PUSH1 0x20 ADD DUP1 DUP4 GT PUSH2 0xD23 JUMPI DUP3 SWAP1 SUB PUSH1 0x1F AND DUP3 ADD SWAP2 JUMPDEST POP POP POP POP POP DUP2 MSTORE PUSH1 0x20 ADD PUSH1 0x5 DUP3 ADD DUP1 SLOAD PUSH2 0xD59 SWAP1 PUSH2 0x24A2 JUMP JUMPDEST DUP1 PUSH1 0x1F ADD PUSH1 0x20 DUP1 SWAP2 DIV MUL PUSH1 0x20 ADD PUSH1 0x40 MLOAD SWAP1 DUP2 ADD PUSH1 0x40 MSTORE DUP1 SWAP3 SWAP2 SWAP1 DUP2 DUP2 MSTORE PUSH1 0x20 ADD DUP3 DUP1 SLOAD PUSH2 0xD85 SWAP1 PUSH2 0x24A2 JUMP JUMPDEST DUP1 ISZERO PUSH2 0xDD0 JUMPI DUP1 PUSH1 0x1F LT PUSH2 0xDA7 JUMPI PUSH2 0x100 DUP1 DUP4 SLOAD DIV MUL DUP4 MSTORE SWAP2 PUSH1 0x20 ADD SWAP2 PUSH2 0xDD0 JUMP JUMPDEST DUP3 ADD SWAP2 SWAP1 PUSH0 MSTORE PUSH1 0x20 PUSH0 KECCAK256 SWAP1 JUMPDEST DUP2 SLOAD DUP2 MSTORE SWAP1 PUSH1 0x1 ADD SWAP1 PUSH1 0x20 ADD DUP1 DUP4 GT PUSH2 0xDB3 JUMPI DUP3 SWAP1 SUB PUSH1 0x1F AND DUP3 ADD SWAP2 JUMPDEST POP POP POP POP POP DUP2 MSTORE POP POP DUP2 MSTORE PUSH1 0x20 ADD PUSH1 0x7 DUP3 ADD DUP1 SLOAD DUP1 PUSH1 0x20 MUL PUSH1 0x20 ADD PUSH1 0x40 MLOAD SWAP1 DUP2 ADD PUSH1 0x40 MSTORE DUP1 SWAP3 SWAP2 SWAP1 DUP2 DUP2 MSTORE PUSH1 0x20 ADD PUSH0 SWAP1 JUMPDEST DUP3 DUP3 LT ISZERO PUSH2 0xE48 JUMPI PUSH0 DUP5 DUP2 MSTORE PUSH1 0x20 SWAP1 DUP2 SWAP1 KECCAK256 PUSH1 0x40 DUP1 MLOAD DUP1 DUP3 ADD SWAP1 SWAP2 MSTORE PUSH1 0x2 DUP6 MUL SWAP1 SWAP2 ADD DUP1 SLOAD PUSH1 0x1 PUSH1 0x1 PUSH1 0xA0 SHL SUB AND DUP3 MSTORE PUSH1 0x1 SWAP1 DUP2 ADD SLOAD DUP3 DUP5 ADD MSTORE SWAP1 DUP4 MSTORE SWAP1 SWAP3 ADD SWAP2 ADD PUSH2 0xE01 JUMP JUMPDEST POP POP POP SWAP1 DUP3 MSTORE POP PUSH1 0x8 SWAP2 SWAP1 SWAP2 ADD SLOAD PUSH1 0x1 PUSH1 0x1 PUSH1 0xA0 SHL SUB DUP2 AND PUSH1 0x20 DUP4 ADD MSTORE PUSH1 0xFF PUSH1 0x1 PUSH1 0xA0 SHL SWAP1 SWAP2 DIV AND ISZERO ISZERO PUSH1 0x40 SWAP1 SWAP2 ADD MSTORE SWAP2 POP POP PUSH2 0xE84 PUSH1 0x1 DUP1 SSTORE JUMP JUMPDEST SWAP1 JUMP JUMPDEST PUSH1 0x40 DUP1 MLOAD DUP1 DUP3 ADD SWAP1 SWAP2 MSTORE PUSH0 DUP1 DUP3 MSTORE PUSH1 0x20 DUP3 ADD MSTORE PUSH1 0x5 SLOAD DUP4 GT ISZERO PUSH2 0xEBC JUMPI PUSH1 0x40 MLOAD PUSH3 0x461BCD PUSH1 0xE5 SHL DUP2 MSTORE PUSH1 0x4 ADD PUSH2 0x8CA SWAP1 PUSH2 0x25CA JUMP JUMPDEST POP PUSH0 SWAP2 DUP3 MSTORE PUSH1 0x6 PUSH1 0x20 SWAP1 DUP2 MSTORE PUSH1 0x40 DUP1 DUP5 KECCAK256 PUSH1 0x1 PUSH1 0x1 PUSH1 0xA0 SHL SUB SWAP4 DUP5 AND DUP6 MSTORE DUP3 MSTORE SWAP3 DUP4 SWAP1 KECCAK256 DUP4 MLOAD DUP1 DUP6 ADD SWAP1 SWAP5 MSTORE DUP1 SLOAD SWAP1 SWAP3 AND DUP4 MSTORE PUSH1 0x1 SWAP1 SWAP2 ADD SLOAD SWAP1 DUP3 ADD MSTORE SWAP1 JUMP JUMPDEST PUSH0 DUP1 PUSH2 0xF07 DUP4 PUSH2 0x1B3F JUMP JUMPDEST SWAP1 POP DUP1 PUSH2 0x2710 EQ PUSH2 0xF5A JUMPI PUSH1 0x40 MLOAD PUSH3 0x461BCD PUSH1 0xE5 SHL DUP2 MSTORE PUSH1 0x20 PUSH1 0x4 DUP3 ADD MSTORE PUSH1 0x1F PUSH1 0x24 DUP3 ADD MSTORE PUSH32 0x546F74616C20425053206D7573742073756D20757020746F2031302C30303000 PUSH1 0x44 DUP3 ADD MSTORE PUSH1 0x64 ADD PUSH2 0x8CA JUMP JUMPDEST PUSH2 0xF63 DUP5 PUSH2 0x1C4E JUMP JUMPDEST PUSH1 0x5 DUP1 SLOAD PUSH0 SWAP2 DUP3 PUSH2 0xF73 DUP4 PUSH2 0x2608 JUMP JUMPDEST SWAP1 SWAP2 SSTORE POP PUSH1 0x2 SLOAD PUSH1 0x40 MLOAD PUSH4 0x1D834A1B PUSH1 0xE0 SHL DUP2 MSTORE PUSH1 0x4 DUP2 ADD DUP4 SWAP1 MSTORE PUSH0 PUSH1 0x24 DUP3 ADD MSTORE SWAP2 SWAP3 POP PUSH1 0x1 PUSH1 0x1 PUSH1 0xA0 SHL SUB AND SWAP1 PUSH4 0x1D834A1B SWAP1 PUSH1 0x44 ADD PUSH0 PUSH1 0x40 MLOAD DUP1 DUP4 SUB DUP2 PUSH0 DUP8 DUP1 EXTCODESIZE ISZERO DUP1 ISZERO PUSH2 0xFC1 JUMPI PUSH0 DUP1 REVERT JUMPDEST POP GAS CALL ISZERO DUP1 ISZERO PUSH2 0xFD3 JUMPI RETURNDATASIZE PUSH0 DUP1 RETURNDATACOPY RETURNDATASIZE PUSH0 REVERT JUMPDEST POP POP POP PUSH0 DUP3 DUP2 MSTORE PUSH1 0x4 PUSH1 0x20 MSTORE PUSH1 0x40 SWAP1 KECCAK256 DUP3 DUP2 SSTORE DUP7 MLOAD SWAP1 SWAP2 POP DUP7 SWAP1 PUSH1 0x1 DUP4 ADD SWAP1 DUP2 SWAP1 PUSH2 0xFFE SWAP1 DUP3 PUSH2 0x266C JUMP JUMPDEST POP PUSH1 0x20 DUP3 ADD MLOAD PUSH1 0x1 DUP3 ADD SWAP1 PUSH2 0x1013 SWAP1 DUP3 PUSH2 0x266C JUMP JUMPDEST POP PUSH1 0x40 DUP3 ADD MLOAD PUSH1 0x2 DUP3 ADD DUP1 SLOAD PUSH1 0xFF NOT AND PUSH1 0x1 DUP4 PUSH1 0x5 DUP2 GT ISZERO PUSH2 0x1037 JUMPI PUSH2 0x1037 PUSH2 0x2068 JUMP JUMPDEST MUL OR SWAP1 SSTORE POP PUSH1 0x60 DUP3 ADD MLOAD PUSH1 0x3 DUP3 ADD SWAP1 PUSH2 0x1050 SWAP1 DUP3 PUSH2 0x266C JUMP JUMPDEST POP PUSH1 0x80 DUP3 ADD MLOAD PUSH1 0x4 DUP3 ADD SWAP1 PUSH2 0x1065 SWAP1 DUP3 PUSH2 0x266C JUMP JUMPDEST POP PUSH1 0xA0 DUP3 ADD MLOAD PUSH1 0x5 DUP3 ADD SWAP1 PUSH2 0x107A SWAP1 DUP3 PUSH2 0x266C JUMP JUMPDEST POP POP POP PUSH1 0x8 DUP2 ADD DUP1 SLOAD PUSH1 0x1 PUSH1 0x1 PUSH1 0xA0 SHL SUB NOT AND CALLER OR SWAP1 SSTORE PUSH0 JUMPDEST DUP6 MLOAD DUP2 LT ISZERO PUSH2 0x1101 JUMPI DUP2 PUSH1 0x7 ADD DUP7 DUP3 DUP2 MLOAD DUP2 LT PUSH2 0x10B2 JUMPI PUSH2 0x10B2 PUSH2 0x248E JUMP JUMPDEST PUSH1 0x20 SWAP1 DUP2 MUL SWAP2 SWAP1 SWAP2 ADD DUP2 ADD MLOAD DUP3 SLOAD PUSH1 0x1 DUP1 DUP3 ADD DUP6 SSTORE PUSH0 SWAP5 DUP6 MSTORE SWAP4 DUP4 SWAP1 KECCAK256 DUP3 MLOAD PUSH1 0x2 SWAP1 SWAP3 MUL ADD DUP1 SLOAD PUSH1 0x1 PUSH1 0x1 PUSH1 0xA0 SHL SUB NOT AND PUSH1 0x1 PUSH1 0x1 PUSH1 0xA0 SHL SUB SWAP1 SWAP3 AND SWAP2 SWAP1 SWAP2 OR DUP2 SSTORE SWAP2 ADD MLOAD SWAP1 DUP3 ADD SSTORE ADD PUSH2 0x1093 JUMP JUMPDEST POP CALLER PUSH1 0x1 PUSH1 0x1 PUSH1 0xA0 SHL SUB AND DUP3 PUSH32 0xC6DDA5D2A7A2BAAAA424904E38BC3992B0DC78BFB2900BBDECA620424FA64570 DUP9 PUSH0 ADD MLOAD DUP10 PUSH1 0x20 ADD MLOAD DUP11 PUSH1 0x60 ADD MLOAD DUP12 PUSH1 0xA0 ADD MLOAD DUP13 PUSH1 0x80 ADD MLOAD DUP14 PUSH1 0x40 ADD MLOAD PUSH1 0x5 DUP2 GT ISZERO PUSH2 0x115C JUMPI PUSH2 0x115C PUSH2 0x2068 JUMP JUMPDEST PUSH1 0x40 MLOAD PUSH2 0x116E SWAP7 SWAP6 SWAP5 SWAP4 SWAP3 SWAP2 SWAP1 PUSH2 0x272C JUMP JUMPDEST PUSH1 0x40 MLOAD DUP1 SWAP2 SUB SWAP1 LOG3 PUSH0 JUMPDEST DUP6 MLOAD DUP2 LT ISZERO PUSH2 0x1210 JUMPI CALLER PUSH1 0x1 PUSH1 0x1 PUSH1 0xA0 SHL SUB AND DUP7 DUP3 DUP2 MLOAD DUP2 LT PUSH2 0x119D JUMPI PUSH2 0x119D PUSH2 0x248E JUMP JUMPDEST PUSH1 0x20 MUL PUSH1 0x20 ADD ADD MLOAD PUSH0 ADD MLOAD PUSH1 0x1 PUSH1 0x1 PUSH1 0xA0 SHL SUB AND DUP5 PUSH32 0x1CD5F4915FBEA5FB35C9EBDFB2BFD7D12423DB85AEA22A9B5E92D6B0EC08FCE1 DUP10 DUP6 DUP2 MLOAD DUP2 LT PUSH2 0x11E5 JUMPI PUSH2 0x11E5 PUSH2 0x248E JUMP JUMPDEST PUSH1 0x20 MUL PUSH1 0x20 ADD ADD MLOAD PUSH1 0x20 ADD MLOAD PUSH1 0x40 MLOAD PUSH2 0x1200 SWAP2 DUP2 MSTORE PUSH1 0x20 ADD SWAP1 JUMP JUMPDEST PUSH1 0x40 MLOAD DUP1 SWAP2 SUB SWAP1 LOG4 PUSH1 0x1 ADD PUSH2 0x1178 JUMP JUMPDEST POP SLOAD SWAP6 SWAP5 POP POP POP POP POP JUMP JUMPDEST PUSH1 0x3 SLOAD PUSH0 SWAP1 PUSH1 0x1 PUSH1 0x1 PUSH1 0xA0 SHL SUB AND PUSH2 0x1275 JUMPI PUSH1 0x40 MLOAD PUSH3 0x461BCD PUSH1 0xE5 SHL DUP2 MSTORE PUSH1 0x20 PUSH1 0x4 DUP3 ADD MSTORE PUSH1 0x18 PUSH1 0x24 DUP3 ADD MSTORE PUSH32 0x566F74696E6720746F6B656E206D757374206265207365740000000000000000 PUSH1 0x44 DUP3 ADD MSTORE PUSH1 0x64 ADD PUSH2 0x8CA JUMP JUMPDEST PUSH1 0x3 SLOAD PUSH1 0x40 MLOAD PUSH4 0x70A08231 PUSH1 0xE0 SHL DUP2 MSTORE PUSH1 0x1 PUSH1 0x1 PUSH1 0xA0 SHL SUB DUP5 DUP2 AND PUSH1 0x4 DUP4 ADD MSTORE SWAP1 SWAP2 AND SWAP1 PUSH4 0x70A08231 SWAP1 PUSH1 0x24 ADD PUSH1 0x20 PUSH1 0x40 MLOAD DUP1 DUP4 SUB DUP2 DUP7 GAS STATICCALL SWAP3 POP POP POP DUP1 ISZERO PUSH2 0x12DB JUMPI POP PUSH1 0x40 DUP1 MLOAD PUSH1 0x1F RETURNDATASIZE SWAP1 DUP2 ADD PUSH1 0x1F NOT AND DUP3 ADD SWAP1 SWAP3 MSTORE PUSH2 0x12D8 SWAP2 DUP2 ADD SWAP1 PUSH2 0x27A3 JUMP JUMPDEST PUSH1 0x1 JUMPDEST PUSH2 0x35F JUMPI PUSH1 0x40 MLOAD PUSH3 0x461BCD PUSH1 0xE5 SHL DUP2 MSTORE PUSH1 0x20 PUSH1 0x4 DUP3 ADD MSTORE PUSH1 0x2A PUSH1 0x24 DUP3 ADD MSTORE PUSH32 0x4661696C656420746F206765742062616C616E63652C20766F74696E67206E6F PUSH1 0x44 DUP3 ADD MSTORE PUSH10 0x7420706F737369626C65 PUSH1 0xB0 SHL PUSH1 0x64 DUP3 ADD MSTORE PUSH1 0x84 ADD PUSH2 0x8CA JUMP JUMPDEST SWAP2 SWAP1 POP JUMP JUMPDEST PUSH2 0x1347 PUSH2 0x1E1A JUMP JUMPDEST PUSH1 0x5 SLOAD DUP3 GT ISZERO PUSH2 0x1369 JUMPI PUSH1 0x40 MLOAD PUSH3 0x461BCD PUSH1 0xE5 SHL DUP2 MSTORE PUSH1 0x4 ADD PUSH2 0x8CA SWAP1 PUSH2 0x25CA JUMP JUMPDEST PUSH1 0x4 PUSH0 DUP4 DUP2 MSTORE PUSH1 0x20 ADD SWAP1 DUP2 MSTORE PUSH1 0x20 ADD PUSH0 KECCAK256 PUSH1 0x40 MLOAD DUP1 PUSH1 0xA0 ADD PUSH1 0x40 MSTORE SWAP1 DUP2 PUSH0 DUP3 ADD SLOAD DUP2 MSTORE PUSH1 0x20 ADD PUSH1 0x1 DUP3 ADD PUSH1 0x40 MLOAD DUP1 PUSH1 0xC0 ADD PUSH1 0x40 MSTORE SWAP1 DUP2 PUSH0 DUP3 ADD DUP1 SLOAD PUSH2 0x13AD SWAP1 PUSH2 0x24A2 JUMP JUMPDEST DUP1 PUSH1 0x1F ADD PUSH1 0x20 DUP1 SWAP2 DIV MUL PUSH1 0x20 ADD PUSH1 0x40 MLOAD SWAP1 DUP2 ADD PUSH1 0x40 MSTORE DUP1 SWAP3 SWAP2 SWAP1 DUP2 DUP2 MSTORE PUSH1 0x20 ADD DUP3 DUP1 SLOAD PUSH2 0x13D9 SWAP1 PUSH2 0x24A2 JUMP JUMPDEST DUP1 ISZERO PUSH2 0x1424 JUMPI DUP1 PUSH1 0x1F LT PUSH2 0x13FB JUMPI PUSH2 0x100 DUP1 DUP4 SLOAD DIV MUL DUP4 MSTORE SWAP2 PUSH1 0x20 ADD SWAP2 PUSH2 0x1424 JUMP JUMPDEST DUP3 ADD SWAP2 SWAP1 PUSH0 MSTORE PUSH1 0x20 PUSH0 KECCAK256 SWAP1 JUMPDEST DUP2 SLOAD DUP2 MSTORE SWAP1 PUSH1 0x1 ADD SWAP1 PUSH1 0x20 ADD DUP1 DUP4 GT PUSH2 0x1407 JUMPI DUP3 SWAP1 SUB PUSH1 0x1F AND DUP3 ADD SWAP2 JUMPDEST POP POP POP POP POP DUP2 MSTORE PUSH1 0x20 ADD PUSH1 0x1 DUP3 ADD DUP1 SLOAD PUSH2 0x143D SWAP1 PUSH2 0x24A2 JUMP JUMPDEST DUP1 PUSH1 0x1F ADD PUSH1 0x20 DUP1 SWAP2 DIV MUL PUSH1 0x20 ADD PUSH1 0x40 MLOAD SWAP1 DUP2 ADD PUSH1 0x40 MSTORE DUP1 SWAP3 SWAP2 SWAP1 DUP2 DUP2 MSTORE PUSH1 0x20 ADD DUP3 DUP1 SLOAD PUSH2 0x1469 SWAP1 PUSH2 0x24A2 JUMP JUMPDEST DUP1 ISZERO PUSH2 0x14B4 JUMPI DUP1 PUSH1 0x1F LT PUSH2 0x148B JUMPI PUSH2 0x100 DUP1 DUP4 SLOAD DIV MUL DUP4 MSTORE SWAP2 PUSH1 0x20 ADD SWAP2 PUSH2 0x14B4 JUMP JUMPDEST DUP3 ADD SWAP2 SWAP1 PUSH0 MSTORE PUSH1 0x20 PUSH0 KECCAK256 SWAP1 JUMPDEST DUP2 SLOAD DUP2 MSTORE SWAP1 PUSH1 0x1 ADD SWAP1 PUSH1 0x20 ADD DUP1 DUP4 GT PUSH2 0x1497 JUMPI DUP3 SWAP1 SUB PUSH1 0x1F AND DUP3 ADD SWAP2 JUMPDEST POP POP POP SWAP2 DUP4 MSTORE POP POP PUSH1 0x2 DUP3 ADD SLOAD PUSH1 0x20 SWAP1 SWAP2 ADD SWAP1 PUSH1 0xFF AND PUSH1 0x5 DUP2 GT ISZERO PUSH2 0x14DB JUMPI PUSH2 0x14DB PUSH2 0x2068 JUMP JUMPDEST PUSH1 0x5 DUP2 GT ISZERO PUSH2 0x14EC JUMPI PUSH2 0x14EC PUSH2 0x2068 JUMP JUMPDEST DUP2 MSTORE PUSH1 0x20 ADD PUSH1 0x3 DUP3 ADD DUP1 SLOAD PUSH2 0x1500 SWAP1 PUSH2 0x24A2 JUMP JUMPDEST DUP1 PUSH1 0x1F ADD PUSH1 0x20 DUP1 SWAP2 DIV MUL PUSH1 0x20 ADD PUSH1 0x40 MLOAD SWAP1 DUP2 ADD PUSH1 0x40 MSTORE DUP1 SWAP3 SWAP2 SWAP1 DUP2 DUP2 MSTORE PUSH1 0x20 ADD DUP3 DUP1 SLOAD PUSH2 0x152C SWAP1 PUSH2 0x24A2 JUMP JUMPDEST DUP1 ISZERO PUSH2 0x1577 JUMPI DUP1 PUSH1 0x1F LT PUSH2 0x154E JUMPI PUSH2 0x100 DUP1 DUP4 SLOAD DIV MUL DUP4 MSTORE SWAP2 PUSH1 0x20 ADD SWAP2 PUSH2 0x1577 JUMP JUMPDEST DUP3 ADD SWAP2 SWAP1 PUSH0 MSTORE PUSH1 0x20 PUSH0 KECCAK256 SWAP1 JUMPDEST DUP2 SLOAD DUP2 MSTORE SWAP1 PUSH1 0x1 ADD SWAP1 PUSH1 0x20 ADD DUP1 DUP4 GT PUSH2 0x155A JUMPI DUP3 SWAP1 SUB PUSH1 0x1F AND DUP3 ADD SWAP2 JUMPDEST POP POP POP POP POP DUP2 MSTORE PUSH1 0x20 ADD PUSH1 0x4 DUP3 ADD DUP1 SLOAD PUSH2 0x1590 SWAP1 PUSH2 0x24A2 JUMP JUMPDEST DUP1 PUSH1 0x1F ADD PUSH1 0x20 DUP1 SWAP2 DIV MUL PUSH1 0x20 ADD PUSH1 0x40 MLOAD SWAP1 DUP2 ADD PUSH1 0x40 MSTORE DUP1 SWAP3 SWAP2 SWAP1 DUP2 DUP2 MSTORE PUSH1 0x20 ADD DUP3 DUP1 SLOAD PUSH2 0x15BC SWAP1 PUSH2 0x24A2 JUMP JUMPDEST DUP1 ISZERO PUSH2 0x1607 JUMPI DUP1 PUSH1 0x1F LT PUSH2 0x15DE JUMPI PUSH2 0x100 DUP1 DUP4 SLOAD DIV MUL DUP4 MSTORE SWAP2 PUSH1 0x20 ADD SWAP2 PUSH2 0x1607 JUMP JUMPDEST DUP3 ADD SWAP2 SWAP1 PUSH0 MSTORE PUSH1 0x20 PUSH0 KECCAK256 SWAP1 JUMPDEST DUP2 SLOAD DUP2 MSTORE SWAP1 PUSH1 0x1 ADD SWAP1 PUSH1 0x20 ADD DUP1 DUP4 GT PUSH2 0x15EA JUMPI DUP3 SWAP1 SUB PUSH1 0x1F AND DUP3 ADD SWAP2 JUMPDEST POP POP POP POP POP DUP2 MSTORE PUSH1 0x20 ADD PUSH1 0x5 DUP3 ADD DUP1 SLOAD PUSH2 0x1620 SWAP1 PUSH2 0x24A2 JUMP JUMPDEST DUP1 PUSH1 0x1F ADD PUSH1 0x20 DUP1 SWAP2 DIV MUL PUSH1 0x20 ADD PUSH1 0x40 MLOAD SWAP1 DUP2 ADD PUSH1 0x40 MSTORE DUP1 SWAP3 SWAP2 SWAP1 DUP2 DUP2 MSTORE PUSH1 0x20 ADD DUP3 DUP1 SLOAD PUSH2 0x164C SWAP1 PUSH2 0x24A2 JUMP JUMPDEST DUP1 ISZERO PUSH2 0x1697 JUMPI DUP1 PUSH1 0x1F LT PUSH2 0x166E JUMPI PUSH2 0x100 DUP1 DUP4 SLOAD DIV MUL DUP4 MSTORE SWAP2 PUSH1 0x20 ADD SWAP2 PUSH2 0x1697 JUMP JUMPDEST DUP3 ADD SWAP2 SWAP1 PUSH0 MSTORE PUSH1 0x20 PUSH0 KECCAK256 SWAP1 JUMPDEST DUP2 SLOAD DUP2 MSTORE SWAP1 PUSH1 0x1 ADD SWAP1 PUSH1 0x20 ADD DUP1 DUP4 GT PUSH2 0x167A JUMPI DUP3 SWAP1 SUB PUSH1 0x1F AND DUP3 ADD SWAP2 JUMPDEST POP POP POP POP POP DUP2 MSTORE POP POP DUP2 MSTORE PUSH1 0x20 ADD PUSH1 0x7 DUP3 ADD DUP1 SLOAD DUP1 PUSH1 0x20 MUL PUSH1 0x20 ADD PUSH1 0x40 MLOAD SWAP1 DUP2 ADD PUSH1 0x40 MSTORE DUP1 SWAP3 SWAP2 SWAP1 DUP2 DUP2 MSTORE PUSH1 0x20 ADD PUSH0 SWAP1 JUMPDEST DUP3 DUP3 LT ISZERO PUSH2 0x170F JUMPI PUSH0 DUP5 DUP2 MSTORE PUSH1 0x20 SWAP1 DUP2 SWAP1 KECCAK256 PUSH1 0x40 DUP1 MLOAD DUP1 DUP3 ADD SWAP1 SWAP2 MSTORE PUSH1 0x2 DUP6 MUL SWAP1 SWAP2 ADD DUP1 SLOAD PUSH1 0x1 PUSH1 0x1 PUSH1 0xA0 SHL SUB AND DUP3 MSTORE PUSH1 0x1 SWAP1 DUP2 ADD SLOAD DUP3 DUP5 ADD MSTORE SWAP1 DUP4 MSTORE SWAP1 SWAP3 ADD SWAP2 ADD PUSH2 0x16C8 JUMP JUMPDEST POP POP POP SWAP1 DUP3 MSTORE POP PUSH1 0x8 SWAP2 SWAP1 SWAP2 ADD SLOAD PUSH1 0x1 PUSH1 0x1 PUSH1 0xA0 SHL SUB DUP2 AND PUSH1 0x20 DUP4 ADD MSTORE PUSH1 0x1 PUSH1 0xA0 SHL SWAP1 DIV PUSH1 0xFF AND ISZERO ISZERO PUSH1 0x40 SWAP1 SWAP2 ADD MSTORE SWAP3 SWAP2 POP POP JUMP JUMPDEST PUSH2 0x174C PUSH2 0x1AC4 JUMP JUMPDEST PUSH1 0x1 PUSH1 0x1 PUSH1 0xA0 SHL SUB DUP2 AND PUSH2 0x1775 JUMPI PUSH1 0x40 MLOAD PUSH4 0x1E4FBDF7 PUSH1 0xE0 SHL DUP2 MSTORE PUSH0 PUSH1 0x4 DUP3 ADD MSTORE PUSH1 0x24 ADD PUSH2 0x8CA JUMP JUMPDEST PUSH2 0x335 DUP2 PUSH2 0x1AF0 JUMP JUMPDEST PUSH2 0x1786 PUSH2 0x1E1A JUMP JUMPDEST PUSH1 0x2 SLOAD PUSH1 0x40 DUP1 MLOAD PUSH4 0x183AFAA9 PUSH1 0xE1 SHL DUP2 MSTORE DUP2 MLOAD PUSH0 SWAP4 PUSH1 0x1 PUSH1 0x1 PUSH1 0xA0 SHL SUB AND SWAP3 PUSH4 0x3075F552 SWAP3 PUSH1 0x4 DUP1 DUP3 ADD SWAP4 SWAP2 DUP3 SWAP1 SUB ADD DUP2 DUP7 GAS STATICCALL ISZERO DUP1 ISZERO PUSH2 0x17C9 JUMPI RETURNDATASIZE PUSH0 DUP1 RETURNDATACOPY RETURNDATASIZE PUSH0 REVERT JUMPDEST POP POP POP POP PUSH1 0x40 MLOAD RETURNDATASIZE PUSH1 0x1F NOT PUSH1 0x1F DUP3 ADD AND DUP3 ADD DUP1 PUSH1 0x40 MSTORE POP DUP2 ADD SWAP1 PUSH2 0x17ED SWAP2 SWAP1 PUSH2 0x24DA JUMP JUMPDEST POP SWAP1 POP PUSH1 0x4 PUSH0 DUP3 DUP2 MSTORE PUSH1 0x20 ADD SWAP1 DUP2 MSTORE PUSH1 0x20 ADD PUSH0 KECCAK256 PUSH1 0x40 MLOAD DUP1 PUSH1 0xA0 ADD PUSH1 0x40 MSTORE SWAP1 DUP2 PUSH0 DUP3 ADD SLOAD DUP2 MSTORE PUSH1 0x20 ADD PUSH1 0x1 DUP3 ADD PUSH1 0x40 MLOAD DUP1 PUSH1 0xC0 ADD PUSH1 0x40 MSTORE SWAP1 DUP2 PUSH0 DUP3 ADD DUP1 SLOAD PUSH2 0x13AD SWAP1 PUSH2 0x24A2 JUMP JUMPDEST PUSH1 0x2 PUSH1 0x1 SLOAD SUB PUSH2 0x1857 JUMPI PUSH1 0x40 MLOAD PUSH4 0x3EE5AEB5 PUSH1 0xE0 SHL DUP2 MSTORE PUSH1 0x4 ADD PUSH1 0x40 MLOAD DUP1 SWAP2 SUB SWAP1 REVERT JUMPDEST PUSH1 0x2 PUSH1 0x1 SSTORE JUMP JUMPDEST PUSH0 DUP2 GT PUSH2 0x18AD JUMPI PUSH1 0x40 MLOAD PUSH3 0x461BCD PUSH1 0xE5 SHL DUP2 MSTORE PUSH1 0x20 PUSH1 0x4 DUP3 ADD DUP2 SWAP1 MSTORE PUSH1 0x24 DUP3 ADD MSTORE PUSH32 0x576569676874206D7573742062652067726561746572207468616E207A65726F PUSH1 0x44 DUP3 ADD MSTORE PUSH1 0x64 ADD PUSH2 0x8CA JUMP JUMPDEST PUSH0 DUP4 DUP2 MSTORE PUSH1 0x6 PUSH1 0x20 SWAP1 DUP2 MSTORE PUSH1 0x40 DUP1 DUP4 KECCAK256 CALLER DUP5 MSTORE SWAP1 SWAP2 MSTORE SWAP1 KECCAK256 SLOAD PUSH1 0x1 PUSH1 0x1 PUSH1 0xA0 SHL SUB AND ISZERO PUSH2 0x190C JUMPI PUSH1 0x40 MLOAD PUSH3 0x461BCD PUSH1 0xE5 SHL DUP2 MSTORE PUSH1 0x20 PUSH1 0x4 DUP3 ADD MSTORE PUSH1 0xD PUSH1 0x24 DUP3 ADD MSTORE PUSH13 0x105B1C9958591E481D9BDD1959 PUSH1 0x9A SHL PUSH1 0x44 DUP3 ADD MSTORE PUSH1 0x64 ADD PUSH2 0x8CA JUMP JUMPDEST PUSH0 DUP4 DUP2 MSTORE PUSH1 0x4 PUSH1 0x20 MSTORE PUSH1 0x40 SWAP1 KECCAK256 PUSH1 0x8 ADD SLOAD PUSH1 0x1 PUSH1 0xA0 SHL SWAP1 DIV PUSH1 0xFF AND ISZERO PUSH2 0x1974 JUMPI PUSH1 0x40 MLOAD PUSH3 0x461BCD PUSH1 0xE5 SHL DUP2 MSTORE PUSH1 0x20 PUSH1 0x4 DUP3 ADD MSTORE PUSH1 0x1E PUSH1 0x24 DUP3 ADD MSTORE PUSH32 0x50696563652068617320616C7265616479206265656E2064726F707065640000 PUSH1 0x44 DUP3 ADD MSTORE PUSH1 0x64 ADD PUSH2 0x8CA JUMP JUMPDEST PUSH1 0x5 SLOAD DUP4 GT ISZERO PUSH2 0x1996 JUMPI PUSH1 0x40 MLOAD PUSH3 0x461BCD PUSH1 0xE5 SHL DUP2 MSTORE PUSH1 0x4 ADD PUSH2 0x8CA SWAP1 PUSH2 0x25CA JUMP JUMPDEST PUSH1 0x40 DUP1 MLOAD DUP1 DUP3 ADD DUP3 MSTORE PUSH1 0x1 PUSH1 0x1 PUSH1 0xA0 SHL SUB DUP5 DUP2 AND DUP1 DUP4 MSTORE PUSH1 0x20 DUP1 DUP5 ADD DUP7 DUP2 MSTORE PUSH0 DUP10 DUP2 MSTORE PUSH1 0x6 DUP4 MSTORE DUP7 DUP2 KECCAK256 SWAP4 DUP2 MSTORE SWAP3 DUP3 MSTORE DUP6 DUP4 KECCAK256 SWAP5 MLOAD DUP6 SLOAD PUSH1 0x1 PUSH1 0x1 PUSH1 0xA0 SHL SUB NOT AND SWAP5 AND SWAP4 SWAP1 SWAP4 OR DUP5 SSTORE SWAP2 MLOAD PUSH1 0x1 SWAP1 SWAP4 ADD SWAP3 SWAP1 SWAP3 SSTORE DUP6 DUP3 MSTORE PUSH1 0x7 SWAP1 MSTORE SWAP1 DUP2 KECCAK256 DUP1 SLOAD DUP4 SWAP3 SWAP1 PUSH2 0x1A04 SWAP1 DUP5 SWAP1 PUSH2 0x27BA JUMP JUMPDEST SWAP1 SWAP2 SSTORE POP POP PUSH0 DUP4 DUP2 MSTORE PUSH1 0x7 PUSH1 0x20 MSTORE PUSH1 0x40 SWAP1 DUP2 SWAP1 KECCAK256 SLOAD PUSH1 0x2 SLOAD SWAP2 MLOAD PUSH4 0x2DA80413 PUSH1 0xE1 SHL DUP2 MSTORE PUSH1 0x4 DUP2 ADD DUP7 SWAP1 MSTORE PUSH1 0x24 DUP2 ADD DUP3 SWAP1 MSTORE SWAP1 SWAP2 PUSH1 0x1 PUSH1 0x1 PUSH1 0xA0 SHL SUB AND SWAP1 PUSH4 0x5B500826 SWAP1 PUSH1 0x44 ADD PUSH0 PUSH1 0x40 MLOAD DUP1 DUP4 SUB DUP2 PUSH0 DUP8 DUP1 EXTCODESIZE ISZERO DUP1 ISZERO PUSH2 0x1A62 JUMPI PUSH0 DUP1 REVERT JUMPDEST POP GAS CALL ISZERO DUP1 ISZERO PUSH2 0x1A74 JUMPI RETURNDATASIZE PUSH0 DUP1 RETURNDATACOPY RETURNDATASIZE PUSH0 REVERT JUMPDEST POP POP PUSH1 0x40 DUP1 MLOAD DUP6 DUP2 MSTORE PUSH1 0x20 DUP2 ADD DUP6 SWAP1 MSTORE PUSH1 0x1 PUSH1 0x1 PUSH1 0xA0 SHL SUB DUP8 AND SWAP4 POP DUP8 SWAP3 POP PUSH32 0x271F53EEBBE20450D9578F28EC279231556C34545B30E2278D754FFD39CD63C SWAP2 ADD PUSH1 0x40 MLOAD DUP1 SWAP2 SUB SWAP1 LOG3 POP POP POP POP JUMP JUMPDEST PUSH0 SLOAD PUSH1 0x1 PUSH1 0x1 PUSH1 0xA0 SHL SUB AND CALLER EQ PUSH2 0x3CC JUMPI PUSH1 0x40 MLOAD PUSH4 0x118CDAA7 PUSH1 0xE0 SHL DUP2 MSTORE CALLER PUSH1 0x4 DUP3 ADD MSTORE PUSH1 0x24 ADD PUSH2 0x8CA JUMP JUMPDEST PUSH0 DUP1 SLOAD PUSH1 0x1 PUSH1 0x1 PUSH1 0xA0 SHL SUB DUP4 DUP2 AND PUSH1 0x1 PUSH1 0x1 PUSH1 0xA0 SHL SUB NOT DUP4 AND DUP2 OR DUP5 SSTORE PUSH1 0x40 MLOAD SWAP2 SWAP1 SWAP3 AND SWAP3 DUP4 SWAP2 PUSH32 0x8BE0079C531659141344CD1FD0A4F28419497F9722A3DAAFE3B4186F6B6457E0 SWAP2 SWAP1 LOG3 POP POP JUMP JUMPDEST PUSH0 PUSH1 0x64 DUP3 MLOAD GT ISZERO PUSH2 0x1B92 JUMPI PUSH1 0x40 MLOAD PUSH3 0x461BCD PUSH1 0xE5 SHL DUP2 MSTORE PUSH1 0x20 PUSH1 0x4 DUP3 ADD MSTORE PUSH1 0x1F PUSH1 0x24 DUP3 ADD MSTORE PUSH32 0x43726561746F72206172726179206D757374206E6F74206265203E2031303000 PUSH1 0x44 DUP3 ADD MSTORE PUSH1 0x64 ADD PUSH2 0x8CA JUMP JUMPDEST PUSH0 DUP1 JUMPDEST DUP4 MLOAD DUP2 LT ISZERO PUSH2 0x77C JUMPI PUSH0 PUSH1 0x1 PUSH1 0x1 PUSH1 0xA0 SHL SUB AND DUP5 DUP3 DUP2 MLOAD DUP2 LT PUSH2 0x1BBA JUMPI PUSH2 0x1BBA PUSH2 0x248E JUMP JUMPDEST PUSH1 0x20 MUL PUSH1 0x20 ADD ADD MLOAD PUSH0 ADD MLOAD PUSH1 0x1 PUSH1 0x1 PUSH1 0xA0 SHL SUB AND SUB PUSH2 0x1C1B JUMPI PUSH1 0x40 MLOAD PUSH3 0x461BCD PUSH1 0xE5 SHL DUP2 MSTORE PUSH1 0x20 PUSH1 0x4 DUP3 ADD MSTORE PUSH1 0x17 PUSH1 0x24 DUP3 ADD MSTORE PUSH32 0x496E76616C69642063726561746F722061646472657373000000000000000000 PUSH1 0x44 DUP3 ADD MSTORE PUSH1 0x64 ADD PUSH2 0x8CA JUMP JUMPDEST DUP4 DUP2 DUP2 MLOAD DUP2 LT PUSH2 0x1C2D JUMPI PUSH2 0x1C2D PUSH2 0x248E JUMP JUMPDEST PUSH1 0x20 MUL PUSH1 0x20 ADD ADD MLOAD PUSH1 0x20 ADD MLOAD DUP3 PUSH2 0x1C44 SWAP2 SWAP1 PUSH2 0x27BA JUMP JUMPDEST SWAP2 POP PUSH1 0x1 ADD PUSH2 0x1B95 JUMP JUMPDEST PUSH0 DUP2 PUSH1 0x40 ADD MLOAD PUSH1 0x5 DUP2 GT ISZERO PUSH2 0x1C65 JUMPI PUSH2 0x1C65 PUSH2 0x2068 JUMP JUMPDEST PUSH1 0xFF AND GT DUP1 ISZERO PUSH2 0x1C8E JUMPI POP PUSH1 0x5 DUP2 PUSH1 0x40 ADD MLOAD PUSH1 0x5 DUP2 GT ISZERO PUSH2 0x1C88 JUMPI PUSH2 0x1C88 PUSH2 0x2068 JUMP JUMPDEST PUSH1 0xFF AND GT ISZERO JUMPDEST PUSH2 0x1CCF JUMPI PUSH1 0x40 MLOAD PUSH3 0x461BCD PUSH1 0xE5 SHL DUP2 MSTORE PUSH1 0x20 PUSH1 0x4 DUP3 ADD MSTORE PUSH1 0x12 PUSH1 0x24 DUP3 ADD MSTORE PUSH18 0x496E76616C6964206D656469612074797065 PUSH1 0x70 SHL PUSH1 0x44 DUP3 ADD MSTORE PUSH1 0x64 ADD PUSH2 0x8CA JUMP JUMPDEST PUSH1 0x1 DUP2 PUSH1 0x40 ADD MLOAD PUSH1 0x5 DUP2 GT ISZERO PUSH2 0x1CE7 JUMPI PUSH2 0x1CE7 PUSH2 0x2068 JUMP JUMPDEST SUB PUSH2 0x1D40 JUMPI PUSH0 DUP2 PUSH1 0x60 ADD MLOAD MLOAD GT PUSH2 0x335 JUMPI PUSH1 0x40 MLOAD PUSH3 0x461BCD PUSH1 0xE5 SHL DUP2 MSTORE PUSH1 0x20 PUSH1 0x4 DUP3 ADD MSTORE PUSH1 0x1A PUSH1 0x24 DUP3 ADD MSTORE PUSH32 0x496D6167652055524C206D7573742062652070726F7669646564000000000000 PUSH1 0x44 DUP3 ADD MSTORE PUSH1 0x64 ADD PUSH2 0x8CA JUMP JUMPDEST PUSH1 0x2 DUP2 PUSH1 0x40 ADD MLOAD PUSH1 0x5 DUP2 GT ISZERO PUSH2 0x1D58 JUMPI PUSH2 0x1D58 PUSH2 0x2068 JUMP JUMPDEST SUB PUSH2 0x1DB1 JUMPI PUSH0 DUP2 PUSH1 0xA0 ADD MLOAD MLOAD GT PUSH2 0x335 JUMPI PUSH1 0x40 MLOAD PUSH3 0x461BCD PUSH1 0xE5 SHL DUP2 MSTORE PUSH1 0x20 PUSH1 0x4 DUP3 ADD MSTORE PUSH1 0x1E PUSH1 0x24 DUP3 ADD MSTORE PUSH32 0x416E696D6174696F6E2055524C206D7573742062652070726F76696465640000 PUSH1 0x44 DUP3 ADD MSTORE PUSH1 0x64 ADD PUSH2 0x8CA JUMP JUMPDEST PUSH1 0x4 DUP2 PUSH1 0x40 ADD MLOAD PUSH1 0x5 DUP2 GT ISZERO PUSH2 0x1DC9 JUMPI PUSH2 0x1DC9 PUSH2 0x2068 JUMP JUMPDEST SUB PUSH2 0x335 JUMPI PUSH0 DUP2 PUSH1 0x80 ADD MLOAD MLOAD GT PUSH2 0x335 JUMPI PUSH1 0x40 MLOAD PUSH3 0x461BCD PUSH1 0xE5 SHL DUP2 MSTORE PUSH1 0x20 PUSH1 0x4 DUP3 ADD MSTORE PUSH1 0x15 PUSH1 0x24 DUP3 ADD MSTORE PUSH21 0x15195E1D081B5D5CDD081899481C1C9BDD9A591959 PUSH1 0x5A SHL PUSH1 0x44 DUP3 ADD MSTORE PUSH1 0x64 ADD PUSH2 0x8CA JUMP JUMPDEST PUSH1 0x40 MLOAD DUP1 PUSH1 0xA0 ADD PUSH1 0x40 MSTORE DUP1 PUSH0 DUP2 MSTORE PUSH1 0x20 ADD PUSH2 0x1E61 PUSH1 0x40 DUP1 MLOAD PUSH1 0xC0 DUP2 ADD DUP3 MSTORE PUSH1 0x60 DUP1 DUP3 MSTORE PUSH1 0x20 DUP3 ADD MSTORE SWAP1 DUP2 ADD PUSH0 DUP2 MSTORE PUSH1 0x20 ADD PUSH1 0x60 DUP2 MSTORE PUSH1 0x20 ADD PUSH1 0x60 DUP2 MSTORE PUSH1 0x20 ADD PUSH1 0x60 DUP2 MSTORE POP SWAP1 JUMP JUMPDEST DUP2 MSTORE PUSH1 0x60 PUSH1 0x20 DUP3 ADD DUP2 SWAP1 MSTORE PUSH0 PUSH1 0x40 DUP4 ADD DUP2 SWAP1 MSTORE SWAP2 ADD MSTORE SWAP1 JUMP JUMPDEST PUSH0 PUSH1 0x20 DUP3 DUP5 SUB SLT ISZERO PUSH2 0x1E8A JUMPI PUSH0 DUP1 REVERT JUMPDEST POP CALLDATALOAD SWAP2 SWAP1 POP JUMP JUMPDEST DUP1 CALLDATALOAD PUSH1 0x1 PUSH1 0x1 PUSH1 0xA0 SHL SUB DUP2 AND DUP2 EQ PUSH2 0x133A JUMPI PUSH0 DUP1 REVERT JUMPDEST PUSH0 DUP1 PUSH1 0x40 DUP4 DUP6 SUB SLT ISZERO PUSH2 0x1EB8 JUMPI PUSH0 DUP1 REVERT JUMPDEST DUP3 CALLDATALOAD SWAP2 POP PUSH2 0x1EC8 PUSH1 0x20 DUP5 ADD PUSH2 0x1E91 JUMP JUMPDEST SWAP1 POP SWAP3 POP SWAP3 SWAP1 POP JUMP JUMPDEST PUSH4 0x4E487B71 PUSH1 0xE0 SHL PUSH0 MSTORE PUSH1 0x41 PUSH1 0x4 MSTORE PUSH1 0x24 PUSH0 REVERT JUMPDEST PUSH1 0x40 DUP2 ADD DUP2 DUP2 LT PUSH8 0xFFFFFFFFFFFFFFFF DUP3 GT OR ISZERO PUSH2 0x1F05 JUMPI PUSH2 0x1F05 PUSH2 0x1ED1 JUMP JUMPDEST PUSH1 0x40 MSTORE POP JUMP JUMPDEST PUSH1 0x1F DUP3 ADD PUSH1 0x1F NOT AND DUP2 ADD PUSH8 0xFFFFFFFFFFFFFFFF DUP2 GT DUP3 DUP3 LT OR ISZERO PUSH2 0x1F31 JUMPI PUSH2 0x1F31 PUSH2 0x1ED1 JUMP JUMPDEST PUSH1 0x40 MSTORE POP POP JUMP JUMPDEST PUSH1 0x40 MLOAD PUSH1 0xC0 DUP2 ADD PUSH8 0xFFFFFFFFFFFFFFFF DUP2 GT DUP3 DUP3 LT OR ISZERO PUSH2 0x1F5B JUMPI PUSH2 0x1F5B PUSH2 0x1ED1 JUMP JUMPDEST PUSH1 0x40 MSTORE SWAP1 JUMP JUMPDEST PUSH0 PUSH8 0xFFFFFFFFFFFFFFFF DUP3 GT ISZERO PUSH2 0x1F7A JUMPI PUSH2 0x1F7A PUSH2 0x1ED1 JUMP JUMPDEST POP PUSH1 0x5 SHL PUSH1 0x20 ADD SWAP1 JUMP JUMPDEST PUSH0 PUSH1 0x20 DUP1 DUP4 DUP6 SUB SLT ISZERO PUSH2 0x1F95 JUMPI PUSH0 DUP1 REVERT JUMPDEST DUP3 CALLDATALOAD PUSH8 0xFFFFFFFFFFFFFFFF DUP2 GT ISZERO PUSH2 0x1FAB JUMPI PUSH0 DUP1 REVERT JUMPDEST DUP4 ADD PUSH1 0x1F DUP2 ADD DUP6 SGT PUSH2 0x1FBB JUMPI PUSH0 DUP1 REVERT JUMPDEST DUP1 CALLDATALOAD PUSH2 0x1FC6 DUP2 PUSH2 0x1F61 JUMP JUMPDEST PUSH1 0x40 MLOAD PUSH2 0x1FD3 DUP3 DUP3 PUSH2 0x1F0B JUMP JUMPDEST DUP3 DUP2 MSTORE PUSH1 0x5 SWAP3 SWAP1 SWAP3 SHL DUP4 ADD DUP5 ADD SWAP2 DUP5 DUP2 ADD SWAP2 POP DUP8 DUP4 GT ISZERO PUSH2 0x1FF2 JUMPI PUSH0 DUP1 REVERT JUMPDEST SWAP3 DUP5 ADD SWAP3 JUMPDEST DUP3 DUP5 LT ISZERO PUSH2 0x2010 JUMPI DUP4 CALLDATALOAD DUP3 MSTORE SWAP3 DUP5 ADD SWAP3 SWAP1 DUP5 ADD SWAP1 PUSH2 0x1FF7 JUMP JUMPDEST SWAP8 SWAP7 POP POP POP POP POP POP POP JUMP JUMPDEST PUSH0 JUMPDEST DUP4 DUP2 LT ISZERO PUSH2 0x2035 JUMPI DUP2 DUP2 ADD MLOAD DUP4 DUP3 ADD MSTORE PUSH1 0x20 ADD PUSH2 0x201D JUMP JUMPDEST POP POP PUSH0 SWAP2 ADD MSTORE JUMP JUMPDEST PUSH0 DUP2 MLOAD DUP1 DUP5 MSTORE PUSH2 0x2054 DUP2 PUSH1 0x20 DUP7 ADD PUSH1 0x20 DUP7 ADD PUSH2 0x201B JUMP JUMPDEST PUSH1 0x1F ADD PUSH1 0x1F NOT AND SWAP3 SWAP1 SWAP3 ADD PUSH1 0x20 ADD SWAP3 SWAP2 POP POP JUMP JUMPDEST PUSH4 0x4E487B71 PUSH1 0xE0 SHL PUSH0 MSTORE PUSH1 0x21 PUSH1 0x4 MSTORE PUSH1 0x24 PUSH0 REVERT JUMPDEST PUSH0 DUP2 MLOAD PUSH1 0xC0 DUP5 MSTORE PUSH2 0x2090 PUSH1 0xC0 DUP6 ADD DUP3 PUSH2 0x203D JUMP JUMPDEST SWAP1 POP PUSH1 0x20 DUP4 ADD MLOAD DUP5 DUP3 SUB PUSH1 0x20 DUP7 ADD MSTORE PUSH2 0x20A9 DUP3 DUP3 PUSH2 0x203D JUMP JUMPDEST SWAP2 POP POP PUSH1 0x40 DUP4 ADD MLOAD PUSH1 0x6 DUP2 LT PUSH2 0x20CD JUMPI PUSH4 0x4E487B71 PUSH1 0xE0 SHL PUSH0 MSTORE PUSH1 0x21 PUSH1 0x4 MSTORE PUSH1 0x24 PUSH0 REVERT JUMPDEST DUP1 PUSH1 0x40 DUP7 ADD MSTORE POP PUSH1 0x60 DUP4 ADD MLOAD DUP5 DUP3 SUB PUSH1 0x60 DUP7 ADD MSTORE PUSH2 0x20EB DUP3 DUP3 PUSH2 0x203D JUMP JUMPDEST SWAP2 POP POP PUSH1 0x80 DUP4 ADD MLOAD DUP5 DUP3 SUB PUSH1 0x80 DUP7 ADD MSTORE PUSH2 0x2105 DUP3 DUP3 PUSH2 0x203D JUMP JUMPDEST SWAP2 POP POP PUSH1 0xA0 DUP4 ADD MLOAD DUP5 DUP3 SUB PUSH1 0xA0 DUP7 ADD MSTORE PUSH2 0x211F DUP3 DUP3 PUSH2 0x203D JUMP JUMPDEST SWAP6 SWAP5 POP POP POP POP POP JUMP JUMPDEST DUP5 DUP2 MSTORE PUSH1 0x80 PUSH1 0x20 DUP3 ADD MSTORE PUSH0 PUSH2 0x2140 PUSH1 0x80 DUP4 ADD DUP7 PUSH2 0x207C JUMP JUMPDEST PUSH1 0x1 PUSH1 0x1 PUSH1 0xA0 SHL SUB SWAP5 SWAP1 SWAP5 AND PUSH1 0x40 DUP4 ADD MSTORE POP SWAP1 ISZERO ISZERO PUSH1 0x60 SWAP1 SWAP2 ADD MSTORE SWAP3 SWAP2 POP POP JUMP JUMPDEST PUSH0 PUSH1 0x20 DUP1 DUP4 MSTORE DUP4 MLOAD DUP2 DUP5 ADD MSTORE DUP1 DUP5 ADD MLOAD PUSH1 0x40 PUSH1 0xA0 PUSH1 0x40 DUP7 ADD MSTORE PUSH2 0x2187 PUSH1 0xC0 DUP7 ADD DUP4 PUSH2 0x207C JUMP JUMPDEST PUSH1 0x40 DUP8 ADD MLOAD DUP7 DUP3 SUB PUSH1 0x1F NOT ADD PUSH1 0x60 DUP9 ADD MSTORE DUP1 MLOAD DUP1 DUP4 MSTORE SWAP1 DUP6 ADD SWAP4 POP PUSH0 SWAP2 DUP6 ADD SWAP1 JUMPDEST DUP1 DUP4 LT ISZERO PUSH2 0x21E2 JUMPI PUSH2 0x21CE DUP3 DUP7 MLOAD DUP1 MLOAD PUSH1 0x1 PUSH1 0x1 PUSH1 0xA0 SHL SUB AND DUP3 MSTORE PUSH1 0x20 SWAP1 DUP2 ADD MLOAD SWAP2 ADD MSTORE JUMP JUMPDEST SWAP4 DUP6 ADD SWAP4 PUSH1 0x1 SWAP3 SWAP1 SWAP3 ADD SWAP2 SWAP1 DUP4 ADD SWAP1 PUSH2 0x21A8 JUMP JUMPDEST POP PUSH1 0x60 DUP9 ADD MLOAD PUSH1 0x1 PUSH1 0x1 PUSH1 0xA0 SHL SUB DUP2 AND PUSH1 0x80 DUP10 ADD MSTORE SWAP5 POP PUSH1 0x80 DUP9 ADD MLOAD DUP1 ISZERO ISZERO PUSH1 0xA0 DUP10 ADD MSTORE SWAP5 POP PUSH2 0x2010 JUMP JUMPDEST DUP2 MLOAD PUSH1 0x1 PUSH1 0x1 PUSH1 0xA0 SHL SUB AND DUP2 MSTORE PUSH1 0x20 DUP1 DUP4 ADD MLOAD SWAP1 DUP3 ADD MSTORE PUSH1 0x40 DUP2 ADD PUSH2 0x35F JUMP JUMPDEST PUSH0 DUP3 PUSH1 0x1F DUP4 ADD SLT PUSH2 0x223C JUMPI PUSH0 DUP1 REVERT JUMPDEST DUP2 CALLDATALOAD PUSH8 0xFFFFFFFFFFFFFFFF DUP2 GT ISZERO PUSH2 0x2256 JUMPI PUSH2 0x2256 PUSH2 0x1ED1 JUMP JUMPDEST PUSH1 0x40 MLOAD PUSH2 0x226D PUSH1 0x1F DUP4 ADD PUSH1 0x1F NOT AND PUSH1 0x20 ADD DUP3 PUSH2 0x1F0B JUMP JUMPDEST DUP2 DUP2 MSTORE DUP5 PUSH1 0x20 DUP4 DUP7 ADD ADD GT ISZERO PUSH2 0x2281 JUMPI PUSH0 DUP1 REVERT JUMPDEST DUP2 PUSH1 0x20 DUP6 ADD PUSH1 0x20 DUP4 ADD CALLDATACOPY PUSH0 SWAP2 DUP2 ADD PUSH1 0x20 ADD SWAP2 SWAP1 SWAP2 MSTORE SWAP4 SWAP3 POP POP POP JUMP JUMPDEST DUP1 CALLDATALOAD PUSH1 0x6 DUP2 LT PUSH2 0x133A JUMPI PUSH0 DUP1 REVERT JUMPDEST PUSH0 DUP3 PUSH1 0x1F DUP4 ADD SLT PUSH2 0x22BA JUMPI PUSH0 DUP1 REVERT JUMPDEST DUP2 CALLDATALOAD PUSH1 0x20 PUSH2 0x22C7 DUP3 PUSH2 0x1F61 JUMP JUMPDEST PUSH1 0x40 DUP1 MLOAD PUSH2 0x22D5 DUP4 DUP3 PUSH2 0x1F0B JUMP JUMPDEST DUP5 DUP2 MSTORE PUSH1 0x6 SWAP5 SWAP1 SWAP5 SHL DUP7 ADD DUP4 ADD SWAP4 DUP4 DUP2 ADD SWAP3 POP DUP8 DUP6 GT ISZERO PUSH2 0x22F4 JUMPI PUSH0 DUP1 REVERT JUMPDEST DUP4 DUP8 ADD JUMPDEST DUP6 DUP2 LT ISZERO PUSH2 0x2339 JUMPI DUP3 DUP2 DUP11 SUB SLT ISZERO PUSH2 0x230E JUMPI PUSH0 DUP1 REVERT JUMPDEST DUP3 MLOAD PUSH2 0x2319 DUP2 PUSH2 0x1EE5 JUMP JUMPDEST PUSH2 0x2322 DUP3 PUSH2 0x1E91 JUMP JUMPDEST DUP2 MSTORE DUP2 DUP7 ADD CALLDATALOAD DUP7 DUP3 ADD MSTORE DUP5 MSTORE SWAP3 DUP5 ADD SWAP3 DUP3 ADD PUSH2 0x22F8 JUMP JUMPDEST POP SWAP8 SWAP7 POP POP POP POP POP POP POP JUMP JUMPDEST PUSH0 DUP1 PUSH1 0x40 DUP4 DUP6 SUB SLT ISZERO PUSH2 0x2356 JUMPI PUSH0 DUP1 REVERT JUMPDEST DUP3 CALLDATALOAD PUSH8 0xFFFFFFFFFFFFFFFF DUP1 DUP3 GT ISZERO PUSH2 0x236D JUMPI PUSH0 DUP1 REVERT JUMPDEST SWAP1 DUP5 ADD SWAP1 PUSH1 0xC0 DUP3 DUP8 SUB SLT ISZERO PUSH2 0x2380 JUMPI PUSH0 DUP1 REVERT JUMPDEST PUSH2 0x2388 PUSH2 0x1F38 JUMP JUMPDEST DUP3 CALLDATALOAD DUP3 DUP2 GT ISZERO PUSH2 0x2396 JUMPI PUSH0 DUP1 REVERT JUMPDEST PUSH2 0x23A2 DUP9 DUP3 DUP7 ADD PUSH2 0x222D JUMP JUMPDEST DUP3 MSTORE POP PUSH1 0x20 DUP4 ADD CALLDATALOAD DUP3 DUP2 GT ISZERO PUSH2 0x23B6 JUMPI PUSH0 DUP1 REVERT JUMPDEST PUSH2 0x23C2 DUP9 DUP3 DUP7 ADD PUSH2 0x222D JUMP JUMPDEST PUSH1 0x20 DUP4 ADD MSTORE POP PUSH2 0x23D4 PUSH1 0x40 DUP5 ADD PUSH2 0x229D JUMP JUMPDEST PUSH1 0x40 DUP3 ADD MSTORE PUSH1 0x60 DUP4 ADD CALLDATALOAD DUP3 DUP2 GT ISZERO PUSH2 0x23EA JUMPI PUSH0 DUP1 REVERT JUMPDEST PUSH2 0x23F6 DUP9 DUP3 DUP7 ADD PUSH2 0x222D JUMP JUMPDEST PUSH1 0x60 DUP4 ADD MSTORE POP PUSH1 0x80 DUP4 ADD CALLDATALOAD DUP3 DUP2 GT ISZERO PUSH2 0x240D JUMPI PUSH0 DUP1 REVERT JUMPDEST PUSH2 0x2419 DUP9 DUP3 DUP7 ADD PUSH2 0x222D JUMP JUMPDEST PUSH1 0x80 DUP4 ADD MSTORE POP PUSH1 0xA0 DUP4 ADD CALLDATALOAD DUP3 DUP2 GT ISZERO PUSH2 0x2430 JUMPI PUSH0 DUP1 REVERT JUMPDEST PUSH2 0x243C DUP9 DUP3 DUP7 ADD PUSH2 0x222D JUMP JUMPDEST PUSH1 0xA0 DUP4 ADD MSTORE POP SWAP4 POP PUSH1 0x20 DUP6 ADD CALLDATALOAD SWAP2 POP DUP1 DUP3 GT ISZERO PUSH2 0x2457 JUMPI PUSH0 DUP1 REVERT JUMPDEST POP PUSH2 0x2464 DUP6 DUP3 DUP7 ADD PUSH2 0x22AB JUMP JUMPDEST SWAP2 POP POP SWAP3 POP SWAP3 SWAP1 POP JUMP JUMPDEST PUSH0 PUSH1 0x20 DUP3 DUP5 SUB SLT ISZERO PUSH2 0x247E JUMPI PUSH0 DUP1 REVERT JUMPDEST PUSH2 0x2487 DUP3 PUSH2 0x1E91 JUMP JUMPDEST SWAP4 SWAP3 POP POP POP JUMP JUMPDEST PUSH4 0x4E487B71 PUSH1 0xE0 SHL PUSH0 MSTORE PUSH1 0x32 PUSH1 0x4 MSTORE PUSH1 0x24 PUSH0 REVERT JUMPDEST PUSH1 0x1 DUP2 DUP2 SHR SWAP1 DUP3 AND DUP1 PUSH2 0x24B6 JUMPI PUSH1 0x7F DUP3 AND SWAP2 POP JUMPDEST PUSH1 0x20 DUP3 LT DUP2 SUB PUSH2 0x24D4 JUMPI PUSH4 0x4E487B71 PUSH1 0xE0 SHL PUSH0 MSTORE PUSH1 0x22 PUSH1 0x4 MSTORE PUSH1 0x24 PUSH0 REVERT JUMPDEST POP SWAP2 SWAP1 POP JUMP JUMPDEST PUSH0 DUP1 PUSH1 0x40 DUP4 DUP6 SUB SLT ISZERO PUSH2 0x24EB JUMPI PUSH0 DUP1 REVERT JUMPDEST POP POP DUP1 MLOAD PUSH1 0x20 SWAP1 SWAP2 ADD MLOAD SWAP1 SWAP3 SWAP1 SWAP2 POP JUMP JUMPDEST PUSH0 PUSH1 0x3 RETURNDATASIZE GT ISZERO PUSH2 0xE84 JUMPI PUSH1 0x4 PUSH0 DUP1 RETURNDATACOPY POP PUSH0 MLOAD PUSH1 0xE0 SHR SWAP1 JUMP JUMPDEST PUSH0 PUSH1 0x44 RETURNDATASIZE LT ISZERO PUSH2 0x2521 JUMPI SWAP1 JUMP JUMPDEST PUSH1 0x40 MLOAD PUSH1 0x3 NOT RETURNDATASIZE DUP2 ADD PUSH1 0x4 DUP4 RETURNDATACOPY DUP2 MLOAD RETURNDATASIZE PUSH8 0xFFFFFFFFFFFFFFFF DUP2 PUSH1 0x24 DUP5 ADD GT DUP2 DUP5 GT OR ISZERO PUSH2 0x2551 JUMPI POP POP POP POP POP SWAP1 JUMP JUMPDEST DUP3 DUP6 ADD SWAP2 POP DUP2 MLOAD DUP2 DUP2 GT ISZERO PUSH2 0x2569 JUMPI POP POP POP POP POP POP SWAP1 JUMP JUMPDEST DUP5 RETURNDATASIZE DUP8 ADD ADD PUSH1 0x20 DUP3 DUP6 ADD ADD GT ISZERO PUSH2 0x2583 JUMPI POP POP POP POP POP POP SWAP1 JUMP JUMPDEST PUSH2 0x2592 PUSH1 0x20 DUP3 DUP7 ADD ADD DUP8 PUSH2 0x1F0B JUMP JUMPDEST POP SWAP1 SWAP6 SWAP5 POP POP POP POP POP JUMP JUMPDEST PUSH0 DUP3 MLOAD PUSH2 0x25AE DUP2 DUP5 PUSH1 0x20 DUP8 ADD PUSH2 0x201B JUMP JUMPDEST SWAP2 SWAP1 SWAP2 ADD SWAP3 SWAP2 POP POP JUMP JUMPDEST PUSH1 0x20 DUP2 MSTORE PUSH0 PUSH2 0x2487 PUSH1 0x20 DUP4 ADD DUP5 PUSH2 0x203D JUMP JUMPDEST PUSH1 0x20 DUP1 DUP3 MSTORE PUSH1 0x10 SWAP1 DUP3 ADD MSTORE PUSH16 0x125B9D985B1A59081C1A5958D9481251 PUSH1 0x82 SHL PUSH1 0x40 DUP3 ADD MSTORE PUSH1 0x60 ADD SWAP1 JUMP JUMPDEST PUSH4 0x4E487B71 PUSH1 0xE0 SHL PUSH0 MSTORE PUSH1 0x11 PUSH1 0x4 MSTORE PUSH1 0x24 PUSH0 REVERT JUMPDEST PUSH0 PUSH1 0x1 DUP3 ADD PUSH2 0x2619 JUMPI PUSH2 0x2619 PUSH2 0x25F4 JUMP JUMPDEST POP PUSH1 0x1 ADD SWAP1 JUMP JUMPDEST PUSH1 0x1F DUP3 GT ISZERO PUSH2 0x2667 JUMPI DUP1 PUSH0 MSTORE PUSH1 0x20 PUSH0 KECCAK256 PUSH1 0x1F DUP5 ADD PUSH1 0x5 SHR DUP2 ADD PUSH1 0x20 DUP6 LT ISZERO PUSH2 0x2645 JUMPI POP DUP1 JUMPDEST PUSH1 0x1F DUP5 ADD PUSH1 0x5 SHR DUP3 ADD SWAP2 POP JUMPDEST DUP2 DUP2 LT ISZERO PUSH2 0x2664 JUMPI PUSH0 DUP2 SSTORE PUSH1 0x1 ADD PUSH2 0x2651 JUMP JUMPDEST POP POP JUMPDEST POP POP POP JUMP JUMPDEST DUP2 MLOAD PUSH8 0xFFFFFFFFFFFFFFFF DUP2 GT ISZERO PUSH2 0x2686 JUMPI PUSH2 0x2686 PUSH2 0x1ED1 JUMP JUMPDEST PUSH2 0x269A DUP2 PUSH2 0x2694 DUP5 SLOAD PUSH2 0x24A2 JUMP JUMPDEST DUP5 PUSH2 0x2620 JUMP JUMPDEST PUSH1 0x20 DUP1 PUSH1 0x1F DUP4 GT PUSH1 0x1 DUP2 EQ PUSH2 0x26CD JUMPI PUSH0 DUP5 ISZERO PUSH2 0x26B6 JUMPI POP DUP6 DUP4 ADD MLOAD JUMPDEST PUSH0 NOT PUSH1 0x3 DUP7 SWAP1 SHL SHR NOT AND PUSH1 0x1 DUP6 SWAP1 SHL OR DUP6 SSTORE PUSH2 0x2724 JUMP JUMPDEST PUSH0 DUP6 DUP2 MSTORE PUSH1 0x20 DUP2 KECCAK256 PUSH1 0x1F NOT DUP7 AND SWAP2 JUMPDEST DUP3 DUP2 LT ISZERO PUSH2 0x26FB JUMPI DUP9 DUP7 ADD MLOAD DUP3 SSTORE SWAP5 DUP5 ADD SWAP5 PUSH1 0x1 SWAP1 SWAP2 ADD SWAP1 DUP5 ADD PUSH2 0x26DC JUMP JUMPDEST POP DUP6 DUP3 LT ISZERO PUSH2 0x2718 JUMPI DUP8 DUP6 ADD MLOAD PUSH0 NOT PUSH1 0x3 DUP9 SWAP1 SHL PUSH1 0xF8 AND SHR NOT AND DUP2 SSTORE JUMPDEST POP POP PUSH1 0x1 DUP5 PUSH1 0x1 SHL ADD DUP6 SSTORE JUMPDEST POP POP POP POP POP POP JUMP JUMPDEST PUSH1 0xC0 DUP2 MSTORE PUSH0 PUSH2 0x273E PUSH1 0xC0 DUP4 ADD DUP10 PUSH2 0x203D JUMP JUMPDEST DUP3 DUP2 SUB PUSH1 0x20 DUP5 ADD MSTORE PUSH2 0x2750 DUP2 DUP10 PUSH2 0x203D JUMP JUMPDEST SWAP1 POP DUP3 DUP2 SUB PUSH1 0x40 DUP5 ADD MSTORE PUSH2 0x2764 DUP2 DUP9 PUSH2 0x203D JUMP JUMPDEST SWAP1 POP DUP3 DUP2 SUB PUSH1 0x60 DUP5 ADD MSTORE PUSH2 0x2778 DUP2 DUP8 PUSH2 0x203D JUMP JUMPDEST SWAP1 POP DUP3 DUP2 SUB PUSH1 0x80 DUP5 ADD MSTORE PUSH2 0x278C DUP2 DUP7 PUSH2 0x203D JUMP JUMPDEST SWAP2 POP POP PUSH1 0xFF DUP4 AND PUSH1 0xA0 DUP4 ADD MSTORE SWAP8 SWAP7 POP POP POP POP POP POP POP JUMP JUMPDEST PUSH0 PUSH1 0x20 DUP3 DUP5 SUB SLT ISZERO PUSH2 0x27B3 JUMPI PUSH0 DUP1 REVERT JUMPDEST POP MLOAD SWAP2 SWAP1 POP JUMP JUMPDEST DUP1 DUP3 ADD DUP1 DUP3 GT ISZERO PUSH2 0x35F JUMPI PUSH2 0x35F PUSH2 0x25F4 JUMP INVALID LOG2 PUSH5 0x6970667358 0x22 SLT KECCAK256 SWAP14 GASPRICE 0xEE LOG2 0x26 0xE8 PUSH23 0x20612E1711DA0E65F0B9AA3753E6992F74390DCC3BF7CF DIV SSTORE PUSH5 0x736F6C6343 STOP ADDMOD AND STOP CALLER PUSH1 0x80 PUSH1 0x40 MSTORE PUSH0 PUSH1 0x3 SSTORE CALLVALUE DUP1 ISZERO PUSH2 0x13 JUMPI PUSH0 DUP1 REVERT JUMPDEST POP PUSH1 0x40 MLOAD PUSH2 0x965 CODESIZE SUB DUP1 PUSH2 0x965 DUP4 CODECOPY DUP2 ADD PUSH1 0x40 DUP2 SWAP1 MSTORE PUSH2 0x32 SWAP2 PUSH2 0xC3 JUMP JUMPDEST DUP1 PUSH1 0x1 PUSH1 0x1 PUSH1 0xA0 SHL SUB DUP2 AND PUSH2 0x60 JUMPI PUSH1 0x40 MLOAD PUSH4 0x1E4FBDF7 PUSH1 0xE0 SHL DUP2 MSTORE PUSH0 PUSH1 0x4 DUP3 ADD MSTORE PUSH1 0x24 ADD PUSH1 0x40 MLOAD DUP1 SWAP2 SUB SWAP1 REVERT JUMPDEST PUSH2 0x69 DUP2 PUSH2 0x74 JUMP JUMPDEST POP POP PUSH1 0x1 DUP1 SSTORE PUSH2 0xF0 JUMP JUMPDEST PUSH0 DUP1 SLOAD PUSH1 0x1 PUSH1 0x1 PUSH1 0xA0 SHL SUB DUP4 DUP2 AND PUSH1 0x1 PUSH1 0x1 PUSH1 0xA0 SHL SUB NOT DUP4 AND DUP2 OR DUP5 SSTORE PUSH1 0x40 MLOAD SWAP2 SWAP1 SWAP3 AND SWAP3 DUP4 SWAP2 PUSH32 0x8BE0079C531659141344CD1FD0A4F28419497F9722A3DAAFE3B4186F6B6457E0 SWAP2 SWAP1 LOG3 POP POP JUMP JUMPDEST PUSH0 PUSH1 0x20 DUP3 DUP5 SUB SLT ISZERO PUSH2 0xD3 JUMPI PUSH0 DUP1 REVERT JUMPDEST DUP2 MLOAD PUSH1 0x1 PUSH1 0x1 PUSH1 0xA0 SHL SUB DUP2 AND DUP2 EQ PUSH2 0xE9 JUMPI PUSH0 DUP1 REVERT JUMPDEST SWAP4 SWAP3 POP POP POP JUMP JUMPDEST PUSH2 0x868 DUP1 PUSH2 0xFD PUSH0 CODECOPY PUSH0 RETURN INVALID PUSH1 0x80 PUSH1 0x40 MSTORE CALLVALUE DUP1 ISZERO PUSH2 0xF JUMPI PUSH0 DUP1 REVERT JUMPDEST POP PUSH1 0x4 CALLDATASIZE LT PUSH2 0xB1 JUMPI PUSH0 CALLDATALOAD PUSH1 0xE0 SHR DUP1 PUSH4 0x8860805A GT PUSH2 0x6E JUMPI DUP1 PUSH4 0x8860805A EQ PUSH2 0x153 JUMPI DUP1 PUSH4 0x8DA5CB5B EQ PUSH2 0x15B JUMPI DUP1 PUSH4 0x949D225D EQ PUSH2 0x175 JUMPI DUP1 PUSH4 0x9F9A7F50 EQ PUSH2 0x17E JUMPI DUP1 PUSH4 0xF1269E01 EQ PUSH2 0x191 JUMPI DUP1 PUSH4 0xF2FDE38B EQ PUSH2 0x1B0 JUMPI PUSH0 DUP1 REVERT JUMPDEST DUP1 PUSH4 0x1C01F292 EQ PUSH2 0xB5 JUMPI DUP1 PUSH4 0x1D834A1B EQ PUSH2 0xE7 JUMPI DUP1 PUSH4 0x3075F552 EQ PUSH2 0xFC JUMPI DUP1 PUSH4 0x5B500826 EQ PUSH2 0x119 JUMPI DUP1 PUSH4 0x715018A6 EQ PUSH2 0x12C JUMPI DUP1 PUSH4 0x843F9793 EQ PUSH2 0x134 JUMPI JUMPDEST PUSH0 DUP1 REVERT JUMPDEST PUSH2 0xD4 PUSH2 0xC3 CALLDATASIZE PUSH1 0x4 PUSH2 0x731 JUMP JUMPDEST PUSH1 0x2 PUSH1 0x20 MSTORE PUSH0 SWAP1 DUP2 MSTORE PUSH1 0x40 SWAP1 KECCAK256 SLOAD DUP2 JUMP JUMPDEST PUSH1 0x40 MLOAD SWAP1 DUP2 MSTORE PUSH1 0x20 ADD JUMPDEST PUSH1 0x40 MLOAD DUP1 SWAP2 SUB SWAP1 RETURN JUMPDEST PUSH2 0xFA PUSH2 0xF5 CALLDATASIZE PUSH1 0x4 PUSH2 0x748 JUMP JUMPDEST PUSH2 0x1C3 JUMP JUMPDEST STOP JUMPDEST PUSH2 0x104 PUSH2 0x297 JUMP JUMPDEST PUSH1 0x40 DUP1 MLOAD SWAP3 DUP4 MSTORE PUSH1 0x20 DUP4 ADD SWAP2 SWAP1 SWAP2 MSTORE ADD PUSH2 0xDE JUMP JUMPDEST PUSH2 0xFA PUSH2 0x127 CALLDATASIZE PUSH1 0x4 PUSH2 0x748 JUMP JUMPDEST PUSH2 0x315 JUMP JUMPDEST PUSH2 0xFA PUSH2 0x3DD JUMP JUMPDEST PUSH2 0xD4 PUSH2 0x142 CALLDATASIZE PUSH1 0x4 PUSH2 0x731 JUMP JUMPDEST PUSH1 0x5 PUSH1 0x20 MSTORE PUSH0 SWAP1 DUP2 MSTORE PUSH1 0x40 SWAP1 KECCAK256 SLOAD DUP2 JUMP JUMPDEST PUSH2 0x104 PUSH2 0x3F0 JUMP JUMPDEST PUSH0 SLOAD PUSH1 0x40 MLOAD PUSH1 0x1 PUSH1 0x1 PUSH1 0xA0 SHL SUB SWAP1 SWAP2 AND DUP2 MSTORE PUSH1 0x20 ADD PUSH2 0xDE JUMP JUMPDEST PUSH2 0xD4 PUSH1 0x3 SLOAD DUP2 JUMP JUMPDEST PUSH2 0xFA PUSH2 0x18C CALLDATASIZE PUSH1 0x4 PUSH2 0x731 JUMP JUMPDEST PUSH2 0x4DF JUMP JUMPDEST PUSH2 0xD4 PUSH2 0x19F CALLDATASIZE PUSH1 0x4 PUSH2 0x731 JUMP JUMPDEST PUSH1 0x4 PUSH1 0x20 MSTORE PUSH0 SWAP1 DUP2 MSTORE PUSH1 0x40 SWAP1 KECCAK256 SLOAD DUP2 JUMP JUMPDEST PUSH2 0xFA PUSH2 0x1BE CALLDATASIZE PUSH1 0x4 PUSH2 0x768 JUMP JUMPDEST PUSH2 0x5D8 JUMP JUMPDEST PUSH2 0x1CB PUSH2 0x612 JUMP JUMPDEST PUSH1 0x3 DUP1 SLOAD PUSH0 SWAP1 DUP2 MSTORE PUSH1 0x2 PUSH1 0x20 SWAP1 DUP2 MSTORE PUSH1 0x40 DUP1 DUP4 KECCAK256 DUP7 SWAP1 SSTORE DUP6 DUP4 MSTORE PUSH1 0x4 DUP3 MSTORE DUP1 DUP4 KECCAK256 DUP6 SWAP1 SSTORE SWAP3 SLOAD PUSH1 0x5 SWAP1 SWAP2 MSTORE SWAP2 SWAP1 KECCAK256 DUP2 SWAP1 SSTORE JUMPDEST DUP1 ISZERO DUP1 ISZERO SWAP1 PUSH2 0x257 JUMPI POP PUSH1 0x4 PUSH0 PUSH1 0x2 PUSH0 PUSH2 0x216 DUP6 PUSH2 0x63E JUMP JUMPDEST DUP2 MSTORE PUSH1 0x20 ADD SWAP1 DUP2 MSTORE PUSH1 0x20 ADD PUSH0 KECCAK256 SLOAD DUP2 MSTORE PUSH1 0x20 ADD SWAP1 DUP2 MSTORE PUSH1 0x20 ADD PUSH0 KECCAK256 SLOAD PUSH1 0x4 PUSH0 PUSH1 0x2 PUSH0 DUP6 DUP2 MSTORE PUSH1 0x20 ADD SWAP1 DUP2 MSTORE PUSH1 0x20 ADD PUSH0 KECCAK256 SLOAD DUP2 MSTORE PUSH1 0x20 ADD SWAP1 DUP2 MSTORE PUSH1 0x20 ADD PUSH0 KECCAK256 SLOAD GT JUMPDEST ISZERO PUSH2 0x27E JUMPI PUSH2 0x26E DUP2 PUSH2 0x269 DUP4 PUSH2 0x63E JUMP JUMPDEST PUSH2 0x6AB JUMP JUMPDEST PUSH2 0x277 DUP2 PUSH2 0x63E JUMP JUMPDEST SWAP1 POP PUSH2 0x1FD JUMP JUMPDEST PUSH1 0x3 DUP1 SLOAD SWAP1 PUSH0 PUSH2 0x28D DUP4 PUSH2 0x7A9 JUMP JUMPDEST SWAP2 SWAP1 POP SSTORE POP POP POP POP JUMP JUMPDEST PUSH0 DUP1 PUSH0 PUSH1 0x3 SLOAD GT PUSH2 0x2DF JUMPI PUSH1 0x40 MLOAD PUSH3 0x461BCD PUSH1 0xE5 SHL DUP2 MSTORE PUSH1 0x20 PUSH1 0x4 DUP3 ADD MSTORE PUSH1 0xD PUSH1 0x24 DUP3 ADD MSTORE PUSH13 0x4865617020697320656D707479 PUSH1 0x98 SHL PUSH1 0x44 DUP3 ADD MSTORE PUSH1 0x64 ADD JUMPDEST PUSH1 0x40 MLOAD DUP1 SWAP2 SUB SWAP1 REVERT JUMPDEST POP POP PUSH32 0xAC33FF75C19E70FE83507DB0D683FD3465C996598DC972688B7ACE676C89077B SLOAD PUSH0 DUP2 DUP2 MSTORE PUSH1 0x4 PUSH1 0x20 MSTORE PUSH1 0x40 SWAP1 KECCAK256 SLOAD SWAP1 SWAP2 JUMP JUMPDEST PUSH2 0x31D PUSH2 0x612 JUMP JUMPDEST PUSH0 DUP3 DUP2 MSTORE PUSH1 0x5 PUSH1 0x20 SWAP1 DUP2 MSTORE PUSH1 0x40 DUP1 DUP4 KECCAK256 SLOAD PUSH1 0x4 SWAP1 SWAP3 MSTORE SWAP1 SWAP2 KECCAK256 DUP1 SLOAD SWAP1 DUP4 SWAP1 SSTORE DUP1 DUP4 GT ISZERO PUSH2 0x3C6 JUMPI JUMPDEST DUP2 ISZERO DUP1 ISZERO SWAP1 PUSH2 0x39F JUMPI POP PUSH1 0x4 PUSH0 PUSH1 0x2 PUSH0 PUSH2 0x35E DUP7 PUSH2 0x63E JUMP JUMPDEST DUP2 MSTORE PUSH1 0x20 ADD SWAP1 DUP2 MSTORE PUSH1 0x20 ADD PUSH0 KECCAK256 SLOAD DUP2 MSTORE PUSH1 0x20 ADD SWAP1 DUP2 MSTORE PUSH1 0x20 ADD PUSH0 KECCAK256 SLOAD PUSH1 0x4 PUSH0 PUSH1 0x2 PUSH0 DUP7 DUP2 MSTORE PUSH1 0x20 ADD SWAP1 DUP2 MSTORE PUSH1 0x20 ADD PUSH0 KECCAK256 SLOAD DUP2 MSTORE PUSH1 0x20 ADD SWAP1 DUP2 MSTORE PUSH1 0x20 ADD PUSH0 KECCAK256 SLOAD GT JUMPDEST ISZERO PUSH2 0x3C1 JUMPI PUSH2 0x3B1 DUP3 PUSH2 0x269 DUP5 PUSH2 0x63E JUMP JUMPDEST PUSH2 0x3BA DUP3 PUSH2 0x63E JUMP JUMPDEST SWAP2 POP PUSH2 0x345 JUMP JUMPDEST PUSH2 0x3D7 JUMP JUMPDEST DUP1 DUP4 LT ISZERO PUSH2 0x3D7 JUMPI PUSH2 0x3D7 DUP3 PUSH2 0x4DF JUMP JUMPDEST POP POP POP POP JUMP JUMPDEST PUSH2 0x3E5 PUSH2 0x612 JUMP JUMPDEST PUSH2 0x3EE PUSH0 PUSH2 0x6E2 JUMP JUMPDEST JUMP JUMPDEST PUSH0 DUP1 PUSH2 0x3FA PUSH2 0x612 JUMP JUMPDEST PUSH0 PUSH1 0x3 SLOAD GT PUSH2 0x43B JUMPI PUSH1 0x40 MLOAD PUSH3 0x461BCD PUSH1 0xE5 SHL DUP2 MSTORE PUSH1 0x20 PUSH1 0x4 DUP3 ADD MSTORE PUSH1 0xD PUSH1 0x24 DUP3 ADD MSTORE PUSH13 0x4865617020697320656D707479 PUSH1 0x98 SHL PUSH1 0x44 DUP3 ADD MSTORE PUSH1 0x64 ADD PUSH2 0x2D6 JUMP JUMPDEST PUSH0 DUP1 DUP1 MSTORE PUSH1 0x2 PUSH1 0x20 DUP2 SWAP1 MSTORE PUSH32 0xAC33FF75C19E70FE83507DB0D683FD3465C996598DC972688B7ACE676C89077B SLOAD PUSH1 0x3 DUP1 SLOAD SWAP2 SWAP4 SWAP2 DUP3 SWAP1 PUSH2 0x47A SWAP1 PUSH2 0x7C1 JUMP JUMPDEST SWAP2 DUP3 SWAP1 SSTORE POP DUP2 MSTORE PUSH1 0x20 DUP1 DUP3 ADD SWAP3 SWAP1 SWAP3 MSTORE PUSH1 0x40 ADD PUSH0 SWAP1 DUP2 KECCAK256 SLOAD DUP2 DUP1 MSTORE PUSH1 0x2 SWAP1 SWAP3 MSTORE PUSH32 0xAC33FF75C19E70FE83507DB0D683FD3465C996598DC972688B7ACE676C89077B SWAP2 SWAP1 SWAP2 SSTORE PUSH2 0x4C8 SWAP1 PUSH2 0x4DF JUMP JUMPDEST PUSH0 DUP2 DUP2 MSTORE PUSH1 0x4 PUSH1 0x20 MSTORE PUSH1 0x40 SWAP1 KECCAK256 SLOAD SWAP1 SWAP3 POP SWAP1 POP SWAP1 SWAP2 JUMP JUMPDEST PUSH2 0x4E7 PUSH2 0x612 JUMP JUMPDEST PUSH0 PUSH2 0x4F3 DUP3 PUSH1 0x2 PUSH2 0x7D6 JUMP JUMPDEST PUSH2 0x4FE SWAP1 PUSH1 0x1 PUSH2 0x7ED JUMP JUMPDEST SWAP1 POP PUSH0 PUSH2 0x50C DUP4 PUSH1 0x2 PUSH2 0x7D6 JUMP JUMPDEST PUSH2 0x517 SWAP1 PUSH1 0x2 PUSH2 0x7ED JUMP JUMPDEST PUSH0 DUP5 DUP2 MSTORE PUSH1 0x2 PUSH1 0x20 DUP2 DUP2 MSTORE PUSH1 0x40 DUP1 DUP5 KECCAK256 SLOAD DUP5 MSTORE PUSH1 0x4 DUP1 DUP4 MSTORE DUP2 DUP6 KECCAK256 SLOAD DUP9 DUP7 MSTORE DUP5 DUP5 MSTORE DUP3 DUP7 KECCAK256 SLOAD DUP7 MSTORE DUP2 DUP5 MSTORE DUP3 DUP7 KECCAK256 SLOAD DUP8 DUP8 MSTORE DUP6 DUP6 MSTORE DUP4 DUP8 KECCAK256 SLOAD DUP8 MSTORE SWAP2 SWAP1 SWAP4 MSTORE SWAP4 KECCAK256 SLOAD PUSH1 0x3 SLOAD SWAP5 SWAP6 POP SWAP1 SWAP4 SWAP1 SWAP2 PUSH2 0x56C SWAP2 PUSH2 0x800 JUMP JUMPDEST DUP7 LT ISZERO DUP1 ISZERO PUSH2 0x57D JUMPI POP PUSH1 0x3 SLOAD DUP7 GT ISZERO JUMPDEST ISZERO PUSH2 0x58A JUMPI POP POP POP POP POP POP JUMP JUMPDEST DUP2 DUP4 LT DUP1 PUSH2 0x597 JUMPI POP DUP1 DUP4 LT JUMPDEST ISZERO PUSH2 0x5CF JUMPI DUP1 DUP3 GT ISZERO PUSH2 0x5BC JUMPI PUSH2 0x5AE DUP7 DUP7 PUSH2 0x6AB JUMP JUMPDEST PUSH2 0x5B7 DUP6 PUSH2 0x4DF JUMP JUMPDEST PUSH2 0x5CF JUMP JUMPDEST PUSH2 0x5C6 DUP7 DUP6 PUSH2 0x6AB JUMP JUMPDEST PUSH2 0x5CF DUP5 PUSH2 0x4DF JUMP JUMPDEST POP POP POP POP POP JUMPDEST POP JUMP JUMPDEST PUSH2 0x5E0 PUSH2 0x612 JUMP JUMPDEST PUSH1 0x1 PUSH1 0x1 PUSH1 0xA0 SHL SUB DUP2 AND PUSH2 0x609 JUMPI PUSH1 0x40 MLOAD PUSH4 0x1E4FBDF7 PUSH1 0xE0 SHL DUP2 MSTORE PUSH0 PUSH1 0x4 DUP3 ADD MSTORE PUSH1 0x24 ADD PUSH2 0x2D6 JUMP JUMPDEST PUSH2 0x5D5 DUP2 PUSH2 0x6E2 JUMP JUMPDEST PUSH0 SLOAD PUSH1 0x1 PUSH1 0x1 PUSH1 0xA0 SHL SUB AND CALLER EQ PUSH2 0x3EE JUMPI PUSH1 0x40 MLOAD PUSH4 0x118CDAA7 PUSH1 0xE0 SHL DUP2 MSTORE CALLER PUSH1 0x4 DUP3 ADD MSTORE PUSH1 0x24 ADD PUSH2 0x2D6 JUMP JUMPDEST PUSH0 DUP2 PUSH0 SUB PUSH2 0x68E JUMPI PUSH1 0x40 MLOAD PUSH3 0x461BCD PUSH1 0xE5 SHL DUP2 MSTORE PUSH1 0x20 PUSH1 0x4 DUP3 ADD MSTORE PUSH1 0x1B PUSH1 0x24 DUP3 ADD MSTORE PUSH32 0x506F736974696F6E2073686F756C64206E6F74206265207A65726F0000000000 PUSH1 0x44 DUP3 ADD MSTORE PUSH1 0x64 ADD PUSH2 0x2D6 JUMP JUMPDEST PUSH1 0x2 PUSH2 0x69B PUSH1 0x1 DUP5 PUSH2 0x81F JUMP JUMPDEST PUSH2 0x6A5 SWAP2 SWAP1 PUSH2 0x800 JUMP JUMPDEST SWAP3 SWAP2 POP POP JUMP JUMPDEST PUSH0 DUP2 DUP2 MSTORE PUSH1 0x2 PUSH1 0x20 SWAP1 DUP2 MSTORE PUSH1 0x40 DUP1 DUP4 KECCAK256 DUP1 SLOAD DUP7 DUP6 MSTORE DUP3 DUP6 KECCAK256 DUP1 SLOAD DUP4 SSTORE DUP2 SWAP1 SSTORE DUP5 MSTORE PUSH1 0x5 SWAP1 SWAP3 MSTORE DUP1 DUP4 KECCAK256 SWAP2 SLOAD DUP4 MSTORE SWAP1 SWAP2 KECCAK256 SWAP2 SWAP1 SWAP2 SSTORE SSTORE JUMP JUMPDEST PUSH0 DUP1 SLOAD PUSH1 0x1 PUSH1 0x1 PUSH1 0xA0 SHL SUB DUP4 DUP2 AND PUSH1 0x1 PUSH1 0x1 PUSH1 0xA0 SHL SUB NOT DUP4 AND DUP2 OR DUP5 SSTORE PUSH1 0x40 MLOAD SWAP2 SWAP1 SWAP3 AND SWAP3 DUP4 SWAP2 PUSH32 0x8BE0079C531659141344CD1FD0A4F28419497F9722A3DAAFE3B4186F6B6457E0 SWAP2 SWAP1 LOG3 POP POP JUMP JUMPDEST PUSH0 PUSH1 0x20 DUP3 DUP5 SUB SLT ISZERO PUSH2 0x741 JUMPI PUSH0 DUP1 REVERT JUMPDEST POP CALLDATALOAD SWAP2 SWAP1 POP JUMP JUMPDEST PUSH0 DUP1 PUSH1 0x40 DUP4 DUP6 SUB SLT ISZERO PUSH2 0x759 JUMPI PUSH0 DUP1 REVERT JUMPDEST POP POP DUP1 CALLDATALOAD SWAP3 PUSH1 0x20 SWAP1 SWAP2 ADD CALLDATALOAD SWAP2 POP JUMP JUMPDEST PUSH0 PUSH1 0x20 DUP3 DUP5 SUB SLT ISZERO PUSH2 0x778 JUMPI PUSH0 DUP1 REVERT JUMPDEST DUP2 CALLDATALOAD PUSH1 0x1 PUSH1 0x1 PUSH1 0xA0 SHL SUB DUP2 AND DUP2 EQ PUSH2 0x78E JUMPI PUSH0 DUP1 REVERT JUMPDEST SWAP4 SWAP3 POP POP POP JUMP JUMPDEST PUSH4 0x4E487B71 PUSH1 0xE0 SHL PUSH0 MSTORE PUSH1 0x11 PUSH1 0x4 MSTORE PUSH1 0x24 PUSH0 REVERT JUMPDEST PUSH0 PUSH1 0x1 DUP3 ADD PUSH2 0x7BA JUMPI PUSH2 0x7BA PUSH2 0x795 JUMP JUMPDEST POP PUSH1 0x1 ADD SWAP1 JUMP JUMPDEST PUSH0 DUP2 PUSH2 0x7CF JUMPI PUSH2 0x7CF PUSH2 0x795 JUMP JUMPDEST POP PUSH0 NOT ADD SWAP1 JUMP JUMPDEST DUP1 DUP3 MUL DUP2 ISZERO DUP3 DUP3 DIV DUP5 EQ OR PUSH2 0x6A5 JUMPI PUSH2 0x6A5 PUSH2 0x795 JUMP JUMPDEST DUP1 DUP3 ADD DUP1 DUP3 GT ISZERO PUSH2 0x6A5 JUMPI PUSH2 0x6A5 PUSH2 0x795 JUMP JUMPDEST PUSH0 DUP3 PUSH2 0x81A JUMPI PUSH4 0x4E487B71 PUSH1 0xE0 SHL PUSH0 MSTORE PUSH1 0x12 PUSH1 0x4 MSTORE PUSH1 0x24 PUSH0 REVERT JUMPDEST POP DIV SWAP1 JUMP JUMPDEST DUP2 DUP2 SUB DUP2 DUP2 GT ISZERO PUSH2 0x6A5 JUMPI PUSH2 0x6A5 PUSH2 0x795 JUMP INVALID LOG2 PUSH5 0x6970667358 0x22 SLT KECCAK256 CALLCODE BALANCE 0xAC 0xAB DUP2 CODESIZE PUSH15 0xCD17BB14CDBD61B859DA89E32D8874 MSTORE8 CODESIZE SSTORE STOP 0x27 0xB6 0xC1 0x23 MSTORE JUMP PUSH5 0x736F6C6343 STOP ADDMOD AND STOP CALLER "
				},
				"gasEstimates": {
					"creation": {
						"codeDepositCost": "2048600",
						"executionCost": "infinite",
						"totalCost": "infinite"
					},
					"external": {
						"batchVote(uint256[])": "infinite",
						"createPiece((string,string,uint8,string,string,string),(address,uint256)[])": "infinite",
						"dropTopVotedPiece()": "infinite",
						"getPieceById(uint256)": "infinite",
						"getTopVotedPiece()": "infinite",
						"getVote(uint256,address)": "7189",
						"getVoterWeight(address)": "infinite",
						"hasVoted(uint256,address)": "2760",
						"maxHeap()": "2371",
						"owner()": "2407",
						"pieceCount()": "2317",
						"pieces(uint256)": "infinite",
						"renounceOwnership()": "infinite",
						"topVotedPieceId()": "infinite",
						"totalVoteWeights(uint256)": "2503",
						"transferOwnership(address)": "28417",
						"vote(uint256)": "infinite",
						"votes(uint256,address)": "4912",
						"votingToken()": "2348"
					},
					"internal": {
						"_vote(uint256,address,uint256)": "infinite",
						"getTotalBpsFromCreators(struct ICultureIndex.CreatorBps memory[] memory)": "infinite",
						"validateMediaType(struct ICultureIndex.ArtPieceMetadata memory)": "infinite"
					}
				},
				"methodIdentifiers": {
					"batchVote(uint256[])": "65422a55",
					"createPiece((string,string,uint8,string,string,string),(address,uint256)[])": "d75d43c9",
					"dropTopVotedPiece()": "bad22aff",
					"getPieceById(uint256)": "deb50c35",
					"getTopVotedPiece()": "f8a8be40",
					"getVote(uint256,address)": "bc3f931f",
					"getVoterWeight(address)": "d85c91ae",
					"hasVoted(uint256,address)": "43859632",
					"maxHeap()": "04432c8a",
					"owner()": "8da5cb5b",
					"pieceCount()": "4a5c4dfe",
					"pieces(uint256)": "8f64be30",
					"renounceOwnership()": "715018a6",
					"topVotedPieceId()": "b7b61494",
					"totalVoteWeights(uint256)": "04f50270",
					"transferOwnership(address)": "f2fde38b",
					"vote(uint256)": "0121b93f",
					"votes(uint256,address)": "d23254b4",
					"votingToken()": "b0340123"
				}
			},
			"storageLayout": {
				"storage": [
					{
						"astId": 8,
						"contract": "packages/revolution-contracts/CultureIndex.sol:CultureIndex",
						"label": "_owner",
						"offset": 0,
						"slot": "0",
						"type": "t_address"
					},
					{
						"astId": 180,
						"contract": "packages/revolution-contracts/CultureIndex.sol:CultureIndex",
						"label": "_status",
						"offset": 0,
						"slot": "1",
						"type": "t_uint256"
					},
					{
						"astId": 259,
						"contract": "packages/revolution-contracts/CultureIndex.sol:CultureIndex",
						"label": "maxHeap",
						"offset": 0,
						"slot": "2",
						"type": "t_contract(MaxHeap)1496"
					},
					{
						"astId": 262,
						"contract": "packages/revolution-contracts/CultureIndex.sol:CultureIndex",
						"label": "votingToken",
						"offset": 0,
						"slot": "3",
						"type": "t_contract(IERC20)1086"
					},
					{
						"astId": 295,
						"contract": "packages/revolution-contracts/CultureIndex.sol:CultureIndex",
						"label": "pieces",
						"offset": 0,
						"slot": "4",
						"type": "t_mapping(t_uint256,t_struct(ArtPiece)1603_storage)"
					},
					{
						"astId": 297,
						"contract": "packages/revolution-contracts/CultureIndex.sol:CultureIndex",
						"label": "pieceCount",
						"offset": 0,
						"slot": "5",
						"type": "t_uint256"
					},
					{
						"astId": 304,
						"contract": "packages/revolution-contracts/CultureIndex.sol:CultureIndex",
						"label": "votes",
						"offset": 0,
						"slot": "6",
						"type": "t_mapping(t_uint256,t_mapping(t_address,t_struct(Vote)1608_storage))"
					},
					{
						"astId": 308,
						"contract": "packages/revolution-contracts/CultureIndex.sol:CultureIndex",
						"label": "totalVoteWeights",
						"offset": 0,
						"slot": "7",
						"type": "t_mapping(t_uint256,t_uint256)"
					}
				],
				"types": {
					"t_address": {
						"encoding": "inplace",
						"label": "address",
						"numberOfBytes": "20"
					},
					"t_array(t_struct(CreatorBps)1589_storage)dyn_storage": {
						"base": "t_struct(CreatorBps)1589_storage",
						"encoding": "dynamic_array",
						"label": "struct ICultureIndex.CreatorBps[]",
						"numberOfBytes": "32"
					},
					"t_bool": {
						"encoding": "inplace",
						"label": "bool",
						"numberOfBytes": "1"
					},
					"t_contract(IERC20)1086": {
						"encoding": "inplace",
						"label": "contract IERC20",
						"numberOfBytes": "20"
					},
					"t_contract(MaxHeap)1496": {
						"encoding": "inplace",
						"label": "contract MaxHeap",
						"numberOfBytes": "20"
					},
					"t_enum(MediaType)1570": {
						"encoding": "inplace",
						"label": "enum ICultureIndex.MediaType",
						"numberOfBytes": "1"
					},
					"t_mapping(t_address,t_struct(Vote)1608_storage)": {
						"encoding": "mapping",
						"key": "t_address",
						"label": "mapping(address => struct ICultureIndex.Vote)",
						"numberOfBytes": "32",
						"value": "t_struct(Vote)1608_storage"
					},
					"t_mapping(t_uint256,t_mapping(t_address,t_struct(Vote)1608_storage))": {
						"encoding": "mapping",
						"key": "t_uint256",
						"label": "mapping(uint256 => mapping(address => struct ICultureIndex.Vote))",
						"numberOfBytes": "32",
						"value": "t_mapping(t_address,t_struct(Vote)1608_storage)"
					},
					"t_mapping(t_uint256,t_struct(ArtPiece)1603_storage)": {
						"encoding": "mapping",
						"key": "t_uint256",
						"label": "mapping(uint256 => struct ICultureIndex.ArtPiece)",
						"numberOfBytes": "32",
						"value": "t_struct(ArtPiece)1603_storage"
					},
					"t_mapping(t_uint256,t_uint256)": {
						"encoding": "mapping",
						"key": "t_uint256",
						"label": "mapping(uint256 => uint256)",
						"numberOfBytes": "32",
						"value": "t_uint256"
					},
					"t_string_storage": {
						"encoding": "bytes",
						"label": "string",
						"numberOfBytes": "32"
					},
					"t_struct(ArtPiece)1603_storage": {
						"encoding": "inplace",
						"label": "struct ICultureIndex.ArtPiece",
						"members": [
							{
								"astId": 1591,
								"contract": "packages/revolution-contracts/CultureIndex.sol:CultureIndex",
								"label": "pieceId",
								"offset": 0,
								"slot": "0",
								"type": "t_uint256"
							},
							{
								"astId": 1594,
								"contract": "packages/revolution-contracts/CultureIndex.sol:CultureIndex",
								"label": "metadata",
								"offset": 0,
								"slot": "1",
								"type": "t_struct(ArtPieceMetadata)1584_storage"
							},
							{
								"astId": 1598,
								"contract": "packages/revolution-contracts/CultureIndex.sol:CultureIndex",
								"label": "creators",
								"offset": 0,
								"slot": "7",
								"type": "t_array(t_struct(CreatorBps)1589_storage)dyn_storage"
							},
							{
								"astId": 1600,
								"contract": "packages/revolution-contracts/CultureIndex.sol:CultureIndex",
								"label": "dropper",
								"offset": 0,
								"slot": "8",
								"type": "t_address"
							},
							{
								"astId": 1602,
								"contract": "packages/revolution-contracts/CultureIndex.sol:CultureIndex",
								"label": "isDropped",
								"offset": 20,
								"slot": "8",
								"type": "t_bool"
							}
						],
						"numberOfBytes": "288"
					},
					"t_struct(ArtPieceMetadata)1584_storage": {
						"encoding": "inplace",
						"label": "struct ICultureIndex.ArtPieceMetadata",
						"members": [
							{
								"astId": 1572,
								"contract": "packages/revolution-contracts/CultureIndex.sol:CultureIndex",
								"label": "name",
								"offset": 0,
								"slot": "0",
								"type": "t_string_storage"
							},
							{
								"astId": 1574,
								"contract": "packages/revolution-contracts/CultureIndex.sol:CultureIndex",
								"label": "description",
								"offset": 0,
								"slot": "1",
								"type": "t_string_storage"
							},
							{
								"astId": 1577,
								"contract": "packages/revolution-contracts/CultureIndex.sol:CultureIndex",
								"label": "mediaType",
								"offset": 0,
								"slot": "2",
								"type": "t_enum(MediaType)1570"
							},
							{
								"astId": 1579,
								"contract": "packages/revolution-contracts/CultureIndex.sol:CultureIndex",
								"label": "image",
								"offset": 0,
								"slot": "3",
								"type": "t_string_storage"
							},
							{
								"astId": 1581,
								"contract": "packages/revolution-contracts/CultureIndex.sol:CultureIndex",
								"label": "text",
								"offset": 0,
								"slot": "4",
								"type": "t_string_storage"
							},
							{
								"astId": 1583,
								"contract": "packages/revolution-contracts/CultureIndex.sol:CultureIndex",
								"label": "animationUrl",
								"offset": 0,
								"slot": "5",
								"type": "t_string_storage"
							}
						],
						"numberOfBytes": "192"
					},
					"t_struct(CreatorBps)1589_storage": {
						"encoding": "inplace",
						"label": "struct ICultureIndex.CreatorBps",
						"members": [
							{
								"astId": 1586,
								"contract": "packages/revolution-contracts/CultureIndex.sol:CultureIndex",
								"label": "creator",
								"offset": 0,
								"slot": "0",
								"type": "t_address"
							},
							{
								"astId": 1588,
								"contract": "packages/revolution-contracts/CultureIndex.sol:CultureIndex",
								"label": "bps",
								"offset": 0,
								"slot": "1",
								"type": "t_uint256"
							}
						],
						"numberOfBytes": "64"
					},
					"t_struct(Vote)1608_storage": {
						"encoding": "inplace",
						"label": "struct ICultureIndex.Vote",
						"members": [
							{
								"astId": 1605,
								"contract": "packages/revolution-contracts/CultureIndex.sol:CultureIndex",
								"label": "voterAddress",
								"offset": 0,
								"slot": "0",
								"type": "t_address"
							},
							{
								"astId": 1607,
								"contract": "packages/revolution-contracts/CultureIndex.sol:CultureIndex",
								"label": "weight",
								"offset": 0,
								"slot": "1",
								"type": "t_uint256"
							}
						],
						"numberOfBytes": "64"
					},
					"t_uint256": {
						"encoding": "inplace",
						"label": "uint256",
						"numberOfBytes": "32"
					}
				}
			},
			"userdoc": {
				"kind": "user",
				"methods": {
					"batchVote(uint256[])": {
						"notice": "Cast a vote for a list of ArtPieces."
					},
					"createPiece((string,string,uint8,string,string,string),(address,uint256)[])": {
						"notice": "Creates a new piece of art with associated metadata and creators."
					},
					"dropTopVotedPiece()": {
						"notice": "Pulls and drops the top-voted piece."
					},
					"getPieceById(uint256)": {
						"notice": "Fetch an art piece by its ID."
					},
					"getTopVotedPiece()": {
						"notice": "Fetch the top-voted art piece."
					},
					"getVote(uint256,address)": {
						"notice": "Fetch the list of votes for a given art piece."
					},
					"getVoterWeight(address)": {
						"notice": "Returns a voters weight for voting."
					},
					"hasVoted(uint256,address)": {
						"notice": "Checks if a specific voter has already voted for a given art piece."
					},
					"pieceCount()": {
						"notice": "Returns the total number of art pieces."
					},
					"topVotedPieceId()": {
						"notice": "Fetch the top-voted pieceId"
					},
					"totalVoteWeights(uint256)": {
						"notice": "Returns the total voting weight for a specific art piece."
					},
					"vote(uint256)": {
						"notice": "Cast a vote for a specific ArtPiece."
					}
				},
				"version": 1
			}
		}
	}
}