{
	"packages/revolution-contracts/MaxHeap.sol": {
		"MaxHeap": {
			"abi": [
				{
					"inputs": [
						{
							"internalType": "address",
							"name": "_owner",
							"type": "address"
						}
					],
					"stateMutability": "nonpayable",
					"type": "constructor"
				},
				{
					"inputs": [
						{
							"internalType": "address",
							"name": "owner",
							"type": "address"
						}
					],
					"name": "OwnableInvalidOwner",
					"type": "error"
				},
				{
					"inputs": [
						{
							"internalType": "address",
							"name": "account",
							"type": "address"
						}
					],
					"name": "OwnableUnauthorizedAccount",
					"type": "error"
				},
				{
					"inputs": [],
					"name": "ReentrancyGuardReentrantCall",
					"type": "error"
				},
				{
					"anonymous": false,
					"inputs": [
						{
							"indexed": true,
							"internalType": "address",
							"name": "previousOwner",
							"type": "address"
						},
						{
							"indexed": true,
							"internalType": "address",
							"name": "newOwner",
							"type": "address"
						}
					],
					"name": "OwnershipTransferred",
					"type": "event"
				},
				{
					"inputs": [],
					"name": "extractMax",
					"outputs": [
						{
							"internalType": "uint256",
							"name": "",
							"type": "uint256"
						},
						{
							"internalType": "uint256",
							"name": "",
							"type": "uint256"
						}
					],
					"stateMutability": "nonpayable",
					"type": "function"
				},
				{
					"inputs": [],
					"name": "getMax",
					"outputs": [
						{
							"internalType": "uint256",
							"name": "",
							"type": "uint256"
						},
						{
							"internalType": "uint256",
							"name": "",
							"type": "uint256"
						}
					],
					"stateMutability": "view",
					"type": "function"
				},
				{
					"inputs": [
						{
							"internalType": "uint256",
							"name": "",
							"type": "uint256"
						}
					],
					"name": "heap",
					"outputs": [
						{
							"internalType": "uint256",
							"name": "",
							"type": "uint256"
						}
					],
					"stateMutability": "view",
					"type": "function"
				},
				{
					"inputs": [
						{
							"internalType": "uint256",
							"name": "itemId",
							"type": "uint256"
						},
						{
							"internalType": "uint256",
							"name": "value",
							"type": "uint256"
						}
					],
					"name": "insert",
					"outputs": [],
					"stateMutability": "nonpayable",
					"type": "function"
				},
				{
					"inputs": [
						{
							"internalType": "uint256",
							"name": "pos",
							"type": "uint256"
						}
					],
					"name": "maxHeapify",
					"outputs": [],
					"stateMutability": "nonpayable",
					"type": "function"
				},
				{
					"inputs": [],
					"name": "owner",
					"outputs": [
						{
							"internalType": "address",
							"name": "",
							"type": "address"
						}
					],
					"stateMutability": "view",
					"type": "function"
				},
				{
					"inputs": [
						{
							"internalType": "uint256",
							"name": "",
							"type": "uint256"
						}
					],
					"name": "positionMapping",
					"outputs": [
						{
							"internalType": "uint256",
							"name": "",
							"type": "uint256"
						}
					],
					"stateMutability": "view",
					"type": "function"
				},
				{
					"inputs": [],
					"name": "renounceOwnership",
					"outputs": [],
					"stateMutability": "nonpayable",
					"type": "function"
				},
				{
					"inputs": [],
					"name": "size",
					"outputs": [
						{
							"internalType": "uint256",
							"name": "",
							"type": "uint256"
						}
					],
					"stateMutability": "view",
					"type": "function"
				},
				{
					"inputs": [
						{
							"internalType": "address",
							"name": "newOwner",
							"type": "address"
						}
					],
					"name": "transferOwnership",
					"outputs": [],
					"stateMutability": "nonpayable",
					"type": "function"
				},
				{
					"inputs": [
						{
							"internalType": "uint256",
							"name": "itemId",
							"type": "uint256"
						},
						{
							"internalType": "uint256",
							"name": "newValue",
							"type": "uint256"
						}
					],
					"name": "updateValue",
					"outputs": [],
					"stateMutability": "nonpayable",
					"type": "function"
				},
				{
					"inputs": [
						{
							"internalType": "uint256",
							"name": "",
							"type": "uint256"
						}
					],
					"name": "valueMapping",
					"outputs": [
						{
							"internalType": "uint256",
							"name": "",
							"type": "uint256"
						}
					],
					"stateMutability": "view",
					"type": "function"
				}
			],
			"devdoc": {
				"author": "Written by rocketman and gpt4",
				"details": "This contract implements a Max Heap data structure with basic operations",
				"errors": {
					"OwnableInvalidOwner(address)": [
						{
							"details": "The owner is not a valid owner account. (eg. `address(0)`)"
						}
					],
					"OwnableUnauthorizedAccount(address)": [
						{
							"details": "The caller account is not authorized to perform an operation."
						}
					],
					"ReentrancyGuardReentrantCall()": [
						{
							"details": "Unauthorized reentrant call."
						}
					]
				},
				"kind": "dev",
				"methods": {
					"constructor": {
						"params": {
							"_owner": "The owner of the contract"
						}
					},
					"extractMax()": {
						"details": "The function will revert if the heap is empty",
						"returns": {
							"_0": "The maximum element from the heap"
						}
					},
					"getMax()": {
						"details": "The function will revert if the heap is empty",
						"returns": {
							"_0": "The maximum element from the heap"
						}
					},
					"insert(uint256,uint256)": {
						"details": "The function will revert if the heap is full",
						"params": {
							"itemId": "The item ID to insert",
							"value": "The value to insert"
						}
					},
					"maxHeapify(uint256)": {
						"details": "This ensures that the heap property is maintained",
						"params": {
							"pos": "The starting position for the heapify operation"
						}
					},
					"owner()": {
						"details": "Returns the address of the current owner."
					},
					"renounceOwnership()": {
						"details": "Leaves the contract without owner. It will not be possible to call `onlyOwner` functions. Can only be called by the current owner. NOTE: Renouncing ownership will leave the contract without an owner, thereby disabling any functionality that is only available to the owner."
					},
					"transferOwnership(address)": {
						"details": "Transfers ownership of the contract to a new account (`newOwner`). Can only be called by the current owner."
					},
					"updateValue(uint256,uint256)": {
						"details": "This function adjusts the heap to maintain the max-heap property after updating the vote count",
						"params": {
							"itemId": "The item ID whose vote count needs to be updated",
							"newValue": "The new value for the item"
						}
					}
				},
				"title": "MaxHeap implementation in Solidity",
				"version": 1
			},
			"evm": {
				"assembly": "    /* \"packages/revolution-contracts/MaxHeap.sol\":388:4975  contract MaxHeap is Ownable, ReentrancyGuard {... */\n  mstore(0x40, 0x80)\n    /* \"packages/revolution-contracts/MaxHeap.sol\":574:575  0 */\n  0x00\n    /* \"packages/revolution-contracts/MaxHeap.sol\":552:575  uint256 public size = 0 */\n  0x03\n  sstore\n    /* \"packages/revolution-contracts/MaxHeap.sol\":946:992  constructor(address _owner) Ownable(_owner) {} */\n  callvalue\n  dup1\n  iszero\n  tag_1\n  jumpi\n  0x00\n  dup1\n  revert\ntag_1:\n  pop\n  mload(0x40)\n  sub(codesize, bytecodeSize)\n  dup1\n  bytecodeSize\n  dup4\n  codecopy\n  dup2\n  add\n  0x40\n  dup2\n  swap1\n  mstore\n  tag_2\n  swap2\n  tag_3\n  jump\t// in\ntag_2:\n    /* \"packages/revolution-contracts/MaxHeap.sol\":982:988  _owner */\n  dup1\n  sub(shl(0xa0, 0x01), 0x01)\n    /* \"@openzeppelin/contracts/access/Ownable.sol\":1273:1299  initialOwner == address(0) */\n  dup2\n  and\n    /* \"@openzeppelin/contracts/access/Ownable.sol\":1269:1364  if (initialOwner == address(0)) {... */\n  tag_8\n  jumpi\n    /* \"@openzeppelin/contracts/access/Ownable.sol\":1322:1353  OwnableInvalidOwner(address(0)) */\n  mload(0x40)\n  shl(0xe0, 0x1e4fbdf7)\n  dup2\n  mstore\n    /* \"@openzeppelin/contracts/access/Ownable.sol\":1350:1351  0 */\n  0x00\n    /* \"@openzeppelin/contracts/access/Ownable.sol\":1322:1353  OwnableInvalidOwner(address(0)) */\n  0x04\n  dup3\n  add\n    /* \"#utility.yul\":455:506   */\n  mstore\n    /* \"#utility.yul\":428:446   */\n  0x24\n  add\n    /* \"@openzeppelin/contracts/access/Ownable.sol\":1322:1353  OwnableInvalidOwner(address(0)) */\n  mload(0x40)\n  dup1\n  swap2\n  sub\n  swap1\n  revert\n    /* \"@openzeppelin/contracts/access/Ownable.sol\":1269:1364  if (initialOwner == address(0)) {... */\ntag_8:\n    /* \"@openzeppelin/contracts/access/Ownable.sol\":1373:1405  _transferOwnership(initialOwner) */\n  tag_11\n    /* \"@openzeppelin/contracts/access/Ownable.sol\":1392:1404  initialOwner */\n  dup2\n    /* \"@openzeppelin/contracts/access/Ownable.sol\":1373:1391  _transferOwnership */\n  tag_12\n    /* \"@openzeppelin/contracts/access/Ownable.sol\":1373:1405  _transferOwnership(initialOwner) */\n  jump\t// in\ntag_11:\n  pop\n  pop\n    /* \"@openzeppelin/contracts/utils/ReentrancyGuard.sol\":1713:1714  1 */\n  0x01\n    /* \"@openzeppelin/contracts/utils/ReentrancyGuard.sol\":1917:1938  _status = NOT_ENTERED */\n  dup1\n  sstore\n    /* \"packages/revolution-contracts/MaxHeap.sol\":388:4975  contract MaxHeap is Ownable, ReentrancyGuard {... */\n  jump(tag_17)\n    /* \"@openzeppelin/contracts/access/Ownable.sol\":2912:3099  function _transferOwnership(address newOwner) internal virtual {... */\ntag_12:\n    /* \"@openzeppelin/contracts/access/Ownable.sol\":2985:3001  address oldOwner */\n  0x00\n    /* \"@openzeppelin/contracts/access/Ownable.sol\":3004:3010  _owner */\n  dup1\n  sload\n  sub(shl(0xa0, 0x01), 0x01)\n    /* \"@openzeppelin/contracts/access/Ownable.sol\":3020:3037  _owner = newOwner */\n  dup4\n  dup2\n  and\n  not(sub(shl(0xa0, 0x01), 0x01))\n  dup4\n  and\n  dup2\n  or\n  dup5\n  sstore\n    /* \"@openzeppelin/contracts/access/Ownable.sol\":3052:3092  OwnershipTransferred(oldOwner, newOwner) */\n  mload(0x40)\n    /* \"@openzeppelin/contracts/access/Ownable.sol\":3004:3010  _owner */\n  swap2\n  swap1\n  swap3\n  and\n  swap3\n  dup4\n  swap2\n    /* \"@openzeppelin/contracts/access/Ownable.sol\":3052:3092  OwnershipTransferred(oldOwner, newOwner) */\n  0x8be0079c531659141344cd1fd0a4f28419497f9722a3daafe3b4186f6b6457e0\n  swap2\n    /* \"@openzeppelin/contracts/access/Ownable.sol\":2985:3001  address oldOwner */\n  swap1\n    /* \"@openzeppelin/contracts/access/Ownable.sol\":3052:3092  OwnershipTransferred(oldOwner, newOwner) */\n  log3\n    /* \"@openzeppelin/contracts/access/Ownable.sol\":2975:3099  {... */\n  pop\n    /* \"@openzeppelin/contracts/access/Ownable.sol\":2912:3099  function _transferOwnership(address newOwner) internal virtual {... */\n  pop\n  jump\t// out\n    /* \"#utility.yul\":14:304   */\ntag_3:\n    /* \"#utility.yul\":84:90   */\n  0x00\n    /* \"#utility.yul\":137:139   */\n  0x20\n    /* \"#utility.yul\":125:134   */\n  dup3\n    /* \"#utility.yul\":116:123   */\n  dup5\n    /* \"#utility.yul\":112:135   */\n  sub\n    /* \"#utility.yul\":108:140   */\n  slt\n    /* \"#utility.yul\":105:157   */\n  iszero\n  tag_19\n  jumpi\n    /* \"#utility.yul\":153:154   */\n  0x00\n    /* \"#utility.yul\":150:151   */\n  dup1\n    /* \"#utility.yul\":143:155   */\n  revert\n    /* \"#utility.yul\":105:157   */\ntag_19:\n    /* \"#utility.yul\":179:195   */\n  dup2\n  mload\n  sub(shl(0xa0, 0x01), 0x01)\n    /* \"#utility.yul\":224:255   */\n  dup2\n  and\n    /* \"#utility.yul\":214:256   */\n  dup2\n  eq\n    /* \"#utility.yul\":204:274   */\n  tag_20\n  jumpi\n    /* \"#utility.yul\":270:271   */\n  0x00\n    /* \"#utility.yul\":267:268   */\n  dup1\n    /* \"#utility.yul\":260:272   */\n  revert\n    /* \"#utility.yul\":204:274   */\ntag_20:\n    /* \"#utility.yul\":293:298   */\n  swap4\n    /* \"#utility.yul\":14:304   */\n  swap3\n  pop\n  pop\n  pop\n  jump\t// out\n    /* \"#utility.yul\":309:512   */\ntag_17:\n    /* \"packages/revolution-contracts/MaxHeap.sol\":388:4975  contract MaxHeap is Ownable, ReentrancyGuard {... */\n  dataSize(sub_0)\n  dup1\n  dataOffset(sub_0)\n  0x00\n  codecopy\n  0x00\n  return\nstop\n\nsub_0: assembly {\n        /* \"packages/revolution-contracts/MaxHeap.sol\":388:4975  contract MaxHeap is Ownable, ReentrancyGuard {... */\n      mstore(0x40, 0x80)\n      callvalue\n      dup1\n      iszero\n      tag_1\n      jumpi\n      0x00\n      dup1\n      revert\n    tag_1:\n      pop\n      jumpi(tag_2, lt(calldatasize, 0x04))\n      shr(0xe0, calldataload(0x00))\n      dup1\n      0x8860805a\n      gt\n      tag_15\n      jumpi\n      dup1\n      0x8860805a\n      eq\n      tag_9\n      jumpi\n      dup1\n      0x8da5cb5b\n      eq\n      tag_10\n      jumpi\n      dup1\n      0x949d225d\n      eq\n      tag_11\n      jumpi\n      dup1\n      0x9f9a7f50\n      eq\n      tag_12\n      jumpi\n      dup1\n      0xf1269e01\n      eq\n      tag_13\n      jumpi\n      dup1\n      0xf2fde38b\n      eq\n      tag_14\n      jumpi\n      0x00\n      dup1\n      revert\n    tag_15:\n      dup1\n      0x1c01f292\n      eq\n      tag_3\n      jumpi\n      dup1\n      0x1d834a1b\n      eq\n      tag_4\n      jumpi\n      dup1\n      0x3075f552\n      eq\n      tag_5\n      jumpi\n      dup1\n      0x5b500826\n      eq\n      tag_6\n      jumpi\n      dup1\n      0x715018a6\n      eq\n      tag_7\n      jumpi\n      dup1\n      0x843f9793\n      eq\n      tag_8\n      jumpi\n    tag_2:\n      0x00\n      dup1\n      revert\n        /* \"packages/revolution-contracts/MaxHeap.sol\":506:545  mapping(uint256 => uint256) public heap */\n    tag_3:\n      tag_16\n      tag_17\n      calldatasize\n      0x04\n      tag_18\n      jump\t// in\n    tag_17:\n      mstore(0x20, 0x02)\n      0x00\n      swap1\n      dup2\n      mstore\n      0x40\n      swap1\n      keccak256\n      sload\n      dup2\n      jump\n    tag_16:\n      mload(0x40)\n        /* \"#utility.yul\":345:370   */\n      swap1\n      dup2\n      mstore\n        /* \"#utility.yul\":333:335   */\n      0x20\n        /* \"#utility.yul\":318:336   */\n      add\n        /* \"packages/revolution-contracts/MaxHeap.sol\":506:545  mapping(uint256 => uint256) public heap */\n    tag_20:\n      mload(0x40)\n      dup1\n      swap2\n      sub\n      swap1\n      return\n        /* \"packages/revolution-contracts/MaxHeap.sol\":2699:3178  function insert(uint256 itemId, uint256 value) public onlyOwner {... */\n    tag_4:\n      tag_22\n      tag_23\n      calldatasize\n      0x04\n      tag_24\n      jump\t// in\n    tag_23:\n      tag_25\n      jump\t// in\n    tag_22:\n      stop\n        /* \"packages/revolution-contracts/MaxHeap.sol\":4816:4973  function getMax() public view returns (uint256, uint256) {... */\n    tag_5:\n      tag_26\n      tag_27\n      jump\t// in\n    tag_26:\n      0x40\n      dup1\n      mload\n        /* \"#utility.yul\":808:833   */\n      swap3\n      dup4\n      mstore\n        /* \"#utility.yul\":864:866   */\n      0x20\n        /* \"#utility.yul\":849:867   */\n      dup4\n      add\n        /* \"#utility.yul\":842:876   */\n      swap2\n      swap1\n      swap2\n      mstore\n        /* \"#utility.yul\":781:799   */\n      add\n        /* \"packages/revolution-contracts/MaxHeap.sol\":4816:4973  function getMax() public view returns (uint256, uint256) {... */\n      tag_20\n        /* \"#utility.yul\":634:882   */\n      jump\n        /* \"packages/revolution-contracts/MaxHeap.sol\":3479:4217  function updateValue(uint256 itemId, uint256 newValue) public onlyOwner {... */\n    tag_6:\n      tag_22\n      tag_31\n      calldatasize\n      0x04\n      tag_24\n      jump\t// in\n    tag_31:\n      tag_32\n      jump\t// in\n        /* \"@openzeppelin/contracts/access/Ownable.sol\":2293:2394  function renounceOwnership() public virtual onlyOwner {... */\n    tag_7:\n      tag_22\n      tag_34\n      jump\t// in\n        /* \"packages/revolution-contracts/MaxHeap.sol\":787:837  mapping(uint256 => uint256) public positionMapping */\n    tag_8:\n      tag_16\n      tag_36\n      calldatasize\n      0x04\n      tag_18\n      jump\t// in\n    tag_36:\n      mstore(0x20, 0x05)\n      0x00\n      swap1\n      dup2\n      mstore\n      0x40\n      swap1\n      keccak256\n      sload\n      dup2\n      jump\n        /* \"packages/revolution-contracts/MaxHeap.sol\":4390:4647  function extractMax() external onlyOwner returns (uint256, uint256) {... */\n    tag_9:\n      tag_26\n      tag_40\n      jump\t// in\n        /* \"@openzeppelin/contracts/access/Ownable.sol\":1638:1723  function owner() public view virtual returns (address) {... */\n    tag_10:\n        /* \"@openzeppelin/contracts/access/Ownable.sol\":1684:1691  address */\n      0x00\n        /* \"@openzeppelin/contracts/access/Ownable.sol\":1710:1716  _owner */\n      sload\n        /* \"@openzeppelin/contracts/access/Ownable.sol\":1638:1723  function owner() public view virtual returns (address) {... */\n      mload(0x40)\n      sub(shl(0xa0, 0x01), 0x01)\n        /* \"@openzeppelin/contracts/access/Ownable.sol\":1710:1716  _owner */\n      swap1\n      swap2\n      and\n        /* \"#utility.yul\":1033:1084   */\n      dup2\n      mstore\n        /* \"#utility.yul\":1021:1023   */\n      0x20\n        /* \"#utility.yul\":1006:1024   */\n      add\n        /* \"@openzeppelin/contracts/access/Ownable.sol\":1638:1723  function owner() public view virtual returns (address) {... */\n      tag_20\n        /* \"#utility.yul\":887:1090   */\n      jump\n        /* \"packages/revolution-contracts/MaxHeap.sol\":552:575  uint256 public size = 0 */\n    tag_11:\n      tag_16\n      sload(0x03)\n      dup2\n      jump\n        /* \"packages/revolution-contracts/MaxHeap.sol\":1869:2502  function maxHeapify(uint256 pos) public onlyOwner {... */\n    tag_12:\n      tag_22\n      tag_50\n      calldatasize\n      0x04\n      tag_18\n      jump\t// in\n    tag_50:\n      tag_51\n      jump\t// in\n        /* \"packages/revolution-contracts/MaxHeap.sol\":656:703  mapping(uint256 => uint256) public valueMapping */\n    tag_13:\n      tag_16\n      tag_53\n      calldatasize\n      0x04\n      tag_18\n      jump\t// in\n    tag_53:\n      mstore(0x20, 0x04)\n      0x00\n      swap1\n      dup2\n      mstore\n      0x40\n      swap1\n      keccak256\n      sload\n      dup2\n      jump\n        /* \"@openzeppelin/contracts/access/Ownable.sol\":2543:2758  function transferOwnership(address newOwner) public virtual onlyOwner {... */\n    tag_14:\n      tag_22\n      tag_57\n      calldatasize\n      0x04\n      tag_58\n      jump\t// in\n    tag_57:\n      tag_59\n      jump\t// in\n        /* \"packages/revolution-contracts/MaxHeap.sol\":2699:3178  function insert(uint256 itemId, uint256 value) public onlyOwner {... */\n    tag_25:\n        /* \"@openzeppelin/contracts/access/Ownable.sol\":1531:1544  _checkOwner() */\n      tag_61\n        /* \"@openzeppelin/contracts/access/Ownable.sol\":1531:1542  _checkOwner */\n      tag_62\n        /* \"@openzeppelin/contracts/access/Ownable.sol\":1531:1544  _checkOwner() */\n      jump\t// in\n    tag_61:\n        /* \"packages/revolution-contracts/MaxHeap.sol\":2778:2782  size */\n      0x03\n      dup1\n      sload\n        /* \"packages/revolution-contracts/MaxHeap.sol\":2773:2783  heap[size] */\n      0x00\n      swap1\n      dup2\n      mstore\n        /* \"packages/revolution-contracts/MaxHeap.sol\":2773:2777  heap */\n      0x02\n        /* \"packages/revolution-contracts/MaxHeap.sol\":2773:2783  heap[size] */\n      0x20\n      swap1\n      dup2\n      mstore\n      0x40\n      dup1\n      dup4\n      keccak256\n        /* \"packages/revolution-contracts/MaxHeap.sol\":2773:2792  heap[size] = itemId */\n      dup7\n      swap1\n      sstore\n        /* \"packages/revolution-contracts/MaxHeap.sol\":2802:2822  valueMapping[itemId] */\n      dup6\n      dup4\n      mstore\n        /* \"packages/revolution-contracts/MaxHeap.sol\":2802:2814  valueMapping */\n      0x04\n        /* \"packages/revolution-contracts/MaxHeap.sol\":2802:2822  valueMapping[itemId] */\n      dup3\n      mstore\n      dup1\n      dup4\n      keccak256\n        /* \"packages/revolution-contracts/MaxHeap.sol\":2802:2830  valueMapping[itemId] = value */\n      dup6\n      swap1\n      sstore\n        /* \"packages/revolution-contracts/MaxHeap.sol\":2894:2898  size */\n      swap3\n      sload\n        /* \"packages/revolution-contracts/MaxHeap.sol\":2868:2883  positionMapping */\n      0x05\n        /* \"packages/revolution-contracts/MaxHeap.sol\":2868:2891  positionMapping[itemId] */\n      swap1\n      swap2\n      mstore\n      swap2\n      swap1\n      keccak256\n        /* \"packages/revolution-contracts/MaxHeap.sol\":2868:2898  positionMapping[itemId] = size */\n      dup2\n      swap1\n      sstore\n        /* \"packages/revolution-contracts/MaxHeap.sol\":2972:3156  while (current != 0 && valueMapping[heap[current]] > valueMapping[heap[parent(current)]]) {... */\n    tag_64:\n        /* \"packages/revolution-contracts/MaxHeap.sol\":2979:2991  current != 0 */\n      dup1\n      iszero\n      dup1\n      iszero\n      swap1\n        /* \"packages/revolution-contracts/MaxHeap.sol\":2979:3060  current != 0 && valueMapping[heap[current]] > valueMapping[heap[parent(current)]] */\n      tag_66\n      jumpi\n      pop\n        /* \"packages/revolution-contracts/MaxHeap.sol\":3025:3037  valueMapping */\n      0x04\n        /* \"packages/revolution-contracts/MaxHeap.sol\":3025:3060  valueMapping[heap[parent(current)]] */\n      0x00\n        /* \"packages/revolution-contracts/MaxHeap.sol\":3038:3042  heap */\n      0x02\n        /* \"packages/revolution-contracts/MaxHeap.sol\":3038:3059  heap[parent(current)] */\n      0x00\n        /* \"packages/revolution-contracts/MaxHeap.sol\":3043:3058  parent(current) */\n      tag_67\n        /* \"packages/revolution-contracts/MaxHeap.sol\":3050:3057  current */\n      dup6\n        /* \"packages/revolution-contracts/MaxHeap.sol\":3043:3049  parent */\n      tag_68\n        /* \"packages/revolution-contracts/MaxHeap.sol\":3043:3058  parent(current) */\n      jump\t// in\n    tag_67:\n        /* \"packages/revolution-contracts/MaxHeap.sol\":3038:3059  heap[parent(current)] */\n      dup2\n      mstore\n      0x20\n      add\n      swap1\n      dup2\n      mstore\n      0x20\n      add\n      0x00\n      keccak256\n      sload\n        /* \"packages/revolution-contracts/MaxHeap.sol\":3025:3060  valueMapping[heap[parent(current)]] */\n      dup2\n      mstore\n      0x20\n      add\n      swap1\n      dup2\n      mstore\n      0x20\n      add\n      0x00\n      keccak256\n      sload\n        /* \"packages/revolution-contracts/MaxHeap.sol\":2995:3007  valueMapping */\n      0x04\n        /* \"packages/revolution-contracts/MaxHeap.sol\":2995:3022  valueMapping[heap[current]] */\n      0x00\n        /* \"packages/revolution-contracts/MaxHeap.sol\":3008:3012  heap */\n      0x02\n        /* \"packages/revolution-contracts/MaxHeap.sol\":3008:3021  heap[current] */\n      0x00\n        /* \"packages/revolution-contracts/MaxHeap.sol\":3013:3020  current */\n      dup6\n        /* \"packages/revolution-contracts/MaxHeap.sol\":3008:3021  heap[current] */\n      dup2\n      mstore\n      0x20\n      add\n      swap1\n      dup2\n      mstore\n      0x20\n      add\n      0x00\n      keccak256\n      sload\n        /* \"packages/revolution-contracts/MaxHeap.sol\":2995:3022  valueMapping[heap[current]] */\n      dup2\n      mstore\n      0x20\n      add\n      swap1\n      dup2\n      mstore\n      0x20\n      add\n      0x00\n      keccak256\n      sload\n        /* \"packages/revolution-contracts/MaxHeap.sol\":2995:3060  valueMapping[heap[current]] > valueMapping[heap[parent(current)]] */\n      gt\n        /* \"packages/revolution-contracts/MaxHeap.sol\":2979:3060  current != 0 && valueMapping[heap[current]] > valueMapping[heap[parent(current)]] */\n    tag_66:\n        /* \"packages/revolution-contracts/MaxHeap.sol\":2972:3156  while (current != 0 && valueMapping[heap[current]] > valueMapping[heap[parent(current)]]) {... */\n      iszero\n      tag_65\n      jumpi\n        /* \"packages/revolution-contracts/MaxHeap.sol\":3076:3106  swap(current, parent(current)) */\n      tag_69\n        /* \"packages/revolution-contracts/MaxHeap.sol\":3081:3088  current */\n      dup2\n        /* \"packages/revolution-contracts/MaxHeap.sol\":3090:3105  parent(current) */\n      tag_70\n        /* \"packages/revolution-contracts/MaxHeap.sol\":3097:3104  current */\n      dup4\n        /* \"packages/revolution-contracts/MaxHeap.sol\":3090:3096  parent */\n      tag_68\n        /* \"packages/revolution-contracts/MaxHeap.sol\":3090:3105  parent(current) */\n      jump\t// in\n    tag_70:\n        /* \"packages/revolution-contracts/MaxHeap.sol\":3076:3080  swap */\n      tag_71\n        /* \"packages/revolution-contracts/MaxHeap.sol\":3076:3106  swap(current, parent(current)) */\n      jump\t// in\n    tag_69:\n        /* \"packages/revolution-contracts/MaxHeap.sol\":3130:3145  parent(current) */\n      tag_72\n        /* \"packages/revolution-contracts/MaxHeap.sol\":3137:3144  current */\n      dup2\n        /* \"packages/revolution-contracts/MaxHeap.sol\":3130:3136  parent */\n      tag_68\n        /* \"packages/revolution-contracts/MaxHeap.sol\":3130:3145  parent(current) */\n      jump\t// in\n    tag_72:\n        /* \"packages/revolution-contracts/MaxHeap.sol\":3120:3145  current = parent(current) */\n      swap1\n      pop\n        /* \"packages/revolution-contracts/MaxHeap.sol\":2972:3156  while (current != 0 && valueMapping[heap[current]] > valueMapping[heap[parent(current)]]) {... */\n      jump(tag_64)\n    tag_65:\n        /* \"packages/revolution-contracts/MaxHeap.sol\":3165:3169  size */\n      0x03\n        /* \"packages/revolution-contracts/MaxHeap.sol\":3165:3171  size++ */\n      dup1\n      sload\n      swap1\n        /* \"packages/revolution-contracts/MaxHeap.sol\":3165:3169  size */\n      0x00\n        /* \"packages/revolution-contracts/MaxHeap.sol\":3165:3171  size++ */\n      tag_73\n      dup4\n      tag_74\n      jump\t// in\n    tag_73:\n      swap2\n      swap1\n      pop\n      sstore\n      pop\n        /* \"packages/revolution-contracts/MaxHeap.sol\":2763:3178  {... */\n      pop\n        /* \"packages/revolution-contracts/MaxHeap.sol\":2699:3178  function insert(uint256 itemId, uint256 value) public onlyOwner {... */\n      pop\n      pop\n      jump\t// out\n        /* \"packages/revolution-contracts/MaxHeap.sol\":4816:4973  function getMax() public view returns (uint256, uint256) {... */\n    tag_27:\n        /* \"packages/revolution-contracts/MaxHeap.sol\":4855:4862  uint256 */\n      0x00\n        /* \"packages/revolution-contracts/MaxHeap.sol\":4864:4871  uint256 */\n      dup1\n        /* \"packages/revolution-contracts/MaxHeap.sol\":4898:4899  0 */\n      0x00\n        /* \"packages/revolution-contracts/MaxHeap.sol\":4891:4895  size */\n      sload(0x03)\n        /* \"packages/revolution-contracts/MaxHeap.sol\":4891:4899  size > 0 */\n      gt\n        /* \"packages/revolution-contracts/MaxHeap.sol\":4883:4917  require(size > 0, \"Heap is empty\") */\n      tag_76\n      jumpi\n      mload(0x40)\n      shl(0xe5, 0x461bcd)\n      dup2\n      mstore\n        /* \"#utility.yul\":1860:1862   */\n      0x20\n        /* \"packages/revolution-contracts/MaxHeap.sol\":4883:4917  require(size > 0, \"Heap is empty\") */\n      0x04\n      dup3\n      add\n        /* \"#utility.yul\":1842:1863   */\n      mstore\n        /* \"#utility.yul\":1899:1901   */\n      0x0d\n        /* \"#utility.yul\":1879:1897   */\n      0x24\n      dup3\n      add\n        /* \"#utility.yul\":1872:1902   */\n      mstore\n      shl(0x98, 0x4865617020697320656d707479)\n        /* \"#utility.yul\":1918:1936   */\n      0x44\n      dup3\n      add\n        /* \"#utility.yul\":1911:1954   */\n      mstore\n        /* \"#utility.yul\":1971:1989   */\n      0x64\n      add\n        /* \"packages/revolution-contracts/MaxHeap.sol\":4883:4917  require(size > 0, \"Heap is empty\") */\n    tag_77:\n      mload(0x40)\n      dup1\n      swap2\n      sub\n      swap1\n      revert\n    tag_76:\n      pop\n      pop\n        /* \"packages/revolution-contracts/MaxHeap.sol\":4935:4942  heap[0] */\n      sload(0xac33ff75c19e70fe83507db0d683fd3465c996598dc972688b7ace676c89077b)\n      0x00\n        /* \"packages/revolution-contracts/MaxHeap.sol\":4944:4965  valueMapping[heap[0]] */\n      dup2\n      dup2\n      mstore\n        /* \"packages/revolution-contracts/MaxHeap.sol\":4944:4956  valueMapping */\n      0x04\n        /* \"packages/revolution-contracts/MaxHeap.sol\":4935:4942  heap[0] */\n      0x20\n        /* \"packages/revolution-contracts/MaxHeap.sol\":4944:4965  valueMapping[heap[0]] */\n      mstore\n        /* \"packages/revolution-contracts/MaxHeap.sol\":4935:4942  heap[0] */\n      0x40\n        /* \"packages/revolution-contracts/MaxHeap.sol\":4944:4965  valueMapping[heap[0]] */\n      swap1\n      keccak256\n      sload\n        /* \"packages/revolution-contracts/MaxHeap.sol\":4935:4942  heap[0] */\n      swap1\n      swap2\n        /* \"packages/revolution-contracts/MaxHeap.sol\":4816:4973  function getMax() public view returns (uint256, uint256) {... */\n      jump\t// out\n        /* \"packages/revolution-contracts/MaxHeap.sol\":3479:4217  function updateValue(uint256 itemId, uint256 newValue) public onlyOwner {... */\n    tag_32:\n        /* \"@openzeppelin/contracts/access/Ownable.sol\":1531:1544  _checkOwner() */\n      tag_80\n        /* \"@openzeppelin/contracts/access/Ownable.sol\":1531:1542  _checkOwner */\n      tag_62\n        /* \"@openzeppelin/contracts/access/Ownable.sol\":1531:1544  _checkOwner() */\n      jump\t// in\n    tag_80:\n        /* \"packages/revolution-contracts/MaxHeap.sol\":3561:3577  uint256 position */\n      0x00\n        /* \"packages/revolution-contracts/MaxHeap.sol\":3580:3603  positionMapping[itemId] */\n      dup3\n      dup2\n      mstore\n        /* \"packages/revolution-contracts/MaxHeap.sol\":3580:3595  positionMapping */\n      0x05\n        /* \"packages/revolution-contracts/MaxHeap.sol\":3580:3603  positionMapping[itemId] */\n      0x20\n      swap1\n      dup2\n      mstore\n      0x40\n      dup1\n      dup4\n      keccak256\n      sload\n        /* \"packages/revolution-contracts/MaxHeap.sol\":3632:3644  valueMapping */\n      0x04\n        /* \"packages/revolution-contracts/MaxHeap.sol\":3632:3652  valueMapping[itemId] */\n      swap1\n      swap3\n      mstore\n      swap1\n      swap2\n      keccak256\n      dup1\n      sload\n        /* \"packages/revolution-contracts/MaxHeap.sol\":3711:3742  valueMapping[itemId] = newValue */\n      swap1\n      dup4\n      swap1\n      sstore\n        /* \"packages/revolution-contracts/MaxHeap.sol\":3823:3842  newValue > oldValue */\n      dup1\n      dup4\n      gt\n        /* \"packages/revolution-contracts/MaxHeap.sol\":3819:4211  if (newValue > oldValue) {... */\n      iszero\n      tag_82\n      jumpi\n        /* \"packages/revolution-contracts/MaxHeap.sol\":3889:4092  while (position != 0 && valueMapping[heap[position]] > valueMapping[heap[parent(position)]]) {... */\n    tag_83:\n        /* \"packages/revolution-contracts/MaxHeap.sol\":3896:3909  position != 0 */\n      dup2\n      iszero\n      dup1\n      iszero\n      swap1\n        /* \"packages/revolution-contracts/MaxHeap.sol\":3896:3980  position != 0 && valueMapping[heap[position]] > valueMapping[heap[parent(position)]] */\n      tag_85\n      jumpi\n      pop\n        /* \"packages/revolution-contracts/MaxHeap.sol\":3944:3956  valueMapping */\n      0x04\n        /* \"packages/revolution-contracts/MaxHeap.sol\":3944:3980  valueMapping[heap[parent(position)]] */\n      0x00\n        /* \"packages/revolution-contracts/MaxHeap.sol\":3957:3961  heap */\n      0x02\n        /* \"packages/revolution-contracts/MaxHeap.sol\":3957:3979  heap[parent(position)] */\n      0x00\n        /* \"packages/revolution-contracts/MaxHeap.sol\":3962:3978  parent(position) */\n      tag_86\n        /* \"packages/revolution-contracts/MaxHeap.sol\":3969:3977  position */\n      dup7\n        /* \"packages/revolution-contracts/MaxHeap.sol\":3962:3968  parent */\n      tag_68\n        /* \"packages/revolution-contracts/MaxHeap.sol\":3962:3978  parent(position) */\n      jump\t// in\n    tag_86:\n        /* \"packages/revolution-contracts/MaxHeap.sol\":3957:3979  heap[parent(position)] */\n      dup2\n      mstore\n      0x20\n      add\n      swap1\n      dup2\n      mstore\n      0x20\n      add\n      0x00\n      keccak256\n      sload\n        /* \"packages/revolution-contracts/MaxHeap.sol\":3944:3980  valueMapping[heap[parent(position)]] */\n      dup2\n      mstore\n      0x20\n      add\n      swap1\n      dup2\n      mstore\n      0x20\n      add\n      0x00\n      keccak256\n      sload\n        /* \"packages/revolution-contracts/MaxHeap.sol\":3913:3925  valueMapping */\n      0x04\n        /* \"packages/revolution-contracts/MaxHeap.sol\":3913:3941  valueMapping[heap[position]] */\n      0x00\n        /* \"packages/revolution-contracts/MaxHeap.sol\":3926:3930  heap */\n      0x02\n        /* \"packages/revolution-contracts/MaxHeap.sol\":3926:3940  heap[position] */\n      0x00\n        /* \"packages/revolution-contracts/MaxHeap.sol\":3931:3939  position */\n      dup7\n        /* \"packages/revolution-contracts/MaxHeap.sol\":3926:3940  heap[position] */\n      dup2\n      mstore\n      0x20\n      add\n      swap1\n      dup2\n      mstore\n      0x20\n      add\n      0x00\n      keccak256\n      sload\n        /* \"packages/revolution-contracts/MaxHeap.sol\":3913:3941  valueMapping[heap[position]] */\n      dup2\n      mstore\n      0x20\n      add\n      swap1\n      dup2\n      mstore\n      0x20\n      add\n      0x00\n      keccak256\n      sload\n        /* \"packages/revolution-contracts/MaxHeap.sol\":3913:3980  valueMapping[heap[position]] > valueMapping[heap[parent(position)]] */\n      gt\n        /* \"packages/revolution-contracts/MaxHeap.sol\":3896:3980  position != 0 && valueMapping[heap[position]] > valueMapping[heap[parent(position)]] */\n    tag_85:\n        /* \"packages/revolution-contracts/MaxHeap.sol\":3889:4092  while (position != 0 && valueMapping[heap[position]] > valueMapping[heap[parent(position)]]) {... */\n      iszero\n      tag_84\n      jumpi\n        /* \"packages/revolution-contracts/MaxHeap.sol\":4000:4032  swap(position, parent(position)) */\n      tag_87\n        /* \"packages/revolution-contracts/MaxHeap.sol\":4005:4013  position */\n      dup3\n        /* \"packages/revolution-contracts/MaxHeap.sol\":4015:4031  parent(position) */\n      tag_70\n        /* \"packages/revolution-contracts/MaxHeap.sol\":4022:4030  position */\n      dup5\n        /* \"packages/revolution-contracts/MaxHeap.sol\":4015:4021  parent */\n      tag_68\n        /* \"packages/revolution-contracts/MaxHeap.sol\":4015:4031  parent(position) */\n      jump\t// in\n        /* \"packages/revolution-contracts/MaxHeap.sol\":4000:4032  swap(position, parent(position)) */\n    tag_87:\n        /* \"packages/revolution-contracts/MaxHeap.sol\":4061:4077  parent(position) */\n      tag_89\n        /* \"packages/revolution-contracts/MaxHeap.sol\":4068:4076  position */\n      dup3\n        /* \"packages/revolution-contracts/MaxHeap.sol\":4061:4067  parent */\n      tag_68\n        /* \"packages/revolution-contracts/MaxHeap.sol\":4061:4077  parent(position) */\n      jump\t// in\n    tag_89:\n        /* \"packages/revolution-contracts/MaxHeap.sol\":4050:4077  position = parent(position) */\n      swap2\n      pop\n        /* \"packages/revolution-contracts/MaxHeap.sol\":3889:4092  while (position != 0 && valueMapping[heap[position]] > valueMapping[heap[parent(position)]]) {... */\n      jump(tag_83)\n    tag_84:\n        /* \"packages/revolution-contracts/MaxHeap.sol\":3819:4211  if (newValue > oldValue) {... */\n      jump(tag_92)\n    tag_82:\n        /* \"packages/revolution-contracts/MaxHeap.sol\":4123:4131  oldValue */\n      dup1\n        /* \"packages/revolution-contracts/MaxHeap.sol\":4112:4120  newValue */\n      dup4\n        /* \"packages/revolution-contracts/MaxHeap.sol\":4112:4131  newValue < oldValue */\n      lt\n        /* \"packages/revolution-contracts/MaxHeap.sol\":4108:4211  if (newValue < oldValue) {... */\n      iszero\n      tag_92\n      jumpi\n        /* \"packages/revolution-contracts/MaxHeap.sol\":4180:4200  maxHeapify(position) */\n      tag_92\n        /* \"packages/revolution-contracts/MaxHeap.sol\":4191:4199  position */\n      dup3\n        /* \"packages/revolution-contracts/MaxHeap.sol\":4180:4190  maxHeapify */\n      tag_51\n        /* \"packages/revolution-contracts/MaxHeap.sol\":4180:4200  maxHeapify(position) */\n      jump\t// in\n    tag_92:\n        /* \"packages/revolution-contracts/MaxHeap.sol\":3551:4217  {... */\n      pop\n      pop\n        /* \"packages/revolution-contracts/MaxHeap.sol\":3479:4217  function updateValue(uint256 itemId, uint256 newValue) public onlyOwner {... */\n      pop\n      pop\n      jump\t// out\n        /* \"@openzeppelin/contracts/access/Ownable.sol\":2293:2394  function renounceOwnership() public virtual onlyOwner {... */\n    tag_34:\n        /* \"@openzeppelin/contracts/access/Ownable.sol\":1531:1544  _checkOwner() */\n      tag_94\n        /* \"@openzeppelin/contracts/access/Ownable.sol\":1531:1542  _checkOwner */\n      tag_62\n        /* \"@openzeppelin/contracts/access/Ownable.sol\":1531:1544  _checkOwner() */\n      jump\t// in\n    tag_94:\n        /* \"@openzeppelin/contracts/access/Ownable.sol\":2357:2387  _transferOwnership(address(0)) */\n      tag_96\n        /* \"@openzeppelin/contracts/access/Ownable.sol\":2384:2385  0 */\n      0x00\n        /* \"@openzeppelin/contracts/access/Ownable.sol\":2357:2375  _transferOwnership */\n      tag_97\n        /* \"@openzeppelin/contracts/access/Ownable.sol\":2357:2387  _transferOwnership(address(0)) */\n      jump\t// in\n    tag_96:\n        /* \"@openzeppelin/contracts/access/Ownable.sol\":2293:2394  function renounceOwnership() public virtual onlyOwner {... */\n      jump\t// out\n        /* \"packages/revolution-contracts/MaxHeap.sol\":4390:4647  function extractMax() external onlyOwner returns (uint256, uint256) {... */\n    tag_40:\n        /* \"packages/revolution-contracts/MaxHeap.sol\":4440:4447  uint256 */\n      0x00\n        /* \"packages/revolution-contracts/MaxHeap.sol\":4449:4456  uint256 */\n      dup1\n        /* \"@openzeppelin/contracts/access/Ownable.sol\":1531:1544  _checkOwner() */\n      tag_99\n        /* \"@openzeppelin/contracts/access/Ownable.sol\":1531:1542  _checkOwner */\n      tag_62\n        /* \"@openzeppelin/contracts/access/Ownable.sol\":1531:1544  _checkOwner() */\n      jump\t// in\n    tag_99:\n        /* \"packages/revolution-contracts/MaxHeap.sol\":4483:4484  0 */\n      0x00\n        /* \"packages/revolution-contracts/MaxHeap.sol\":4476:4480  size */\n      sload(0x03)\n        /* \"packages/revolution-contracts/MaxHeap.sol\":4476:4484  size > 0 */\n      gt\n        /* \"packages/revolution-contracts/MaxHeap.sol\":4468:4502  require(size > 0, \"Heap is empty\") */\n      tag_101\n      jumpi\n      mload(0x40)\n      shl(0xe5, 0x461bcd)\n      dup2\n      mstore\n        /* \"#utility.yul\":1860:1862   */\n      0x20\n        /* \"packages/revolution-contracts/MaxHeap.sol\":4468:4502  require(size > 0, \"Heap is empty\") */\n      0x04\n      dup3\n      add\n        /* \"#utility.yul\":1842:1863   */\n      mstore\n        /* \"#utility.yul\":1899:1901   */\n      0x0d\n        /* \"#utility.yul\":1879:1897   */\n      0x24\n      dup3\n      add\n        /* \"#utility.yul\":1872:1902   */\n      mstore\n      shl(0x98, 0x4865617020697320656d707479)\n        /* \"#utility.yul\":1918:1936   */\n      0x44\n      dup3\n      add\n        /* \"#utility.yul\":1911:1954   */\n      mstore\n        /* \"#utility.yul\":1971:1989   */\n      0x64\n      add\n        /* \"packages/revolution-contracts/MaxHeap.sol\":4468:4502  require(size > 0, \"Heap is empty\") */\n      tag_77\n        /* \"#utility.yul\":1658:1995   */\n      jump\n        /* \"packages/revolution-contracts/MaxHeap.sol\":4468:4502  require(size > 0, \"Heap is empty\") */\n    tag_101:\n        /* \"packages/revolution-contracts/MaxHeap.sol\":4513:4527  uint256 popped */\n      0x00\n        /* \"packages/revolution-contracts/MaxHeap.sol\":4530:4537  heap[0] */\n      dup1\n      dup1\n      mstore\n        /* \"packages/revolution-contracts/MaxHeap.sol\":4530:4534  heap */\n      0x02\n        /* \"packages/revolution-contracts/MaxHeap.sol\":4530:4537  heap[0] */\n      0x20\n      dup2\n      swap1\n      mstore\n      sload(0xac33ff75c19e70fe83507db0d683fd3465c996598dc972688b7ace676c89077b)\n        /* \"packages/revolution-contracts/MaxHeap.sol\":4564:4568  size */\n      0x03\n        /* \"packages/revolution-contracts/MaxHeap.sol\":4562:4568  --size */\n      dup1\n      sload\n        /* \"packages/revolution-contracts/MaxHeap.sol\":4530:4537  heap[0] */\n      swap2\n      swap4\n        /* \"packages/revolution-contracts/MaxHeap.sol\":4513:4527  uint256 popped */\n      swap2\n      dup3\n      swap1\n        /* \"packages/revolution-contracts/MaxHeap.sol\":4562:4568  --size */\n      tag_103\n      swap1\n      tag_104\n      jump\t// in\n    tag_103:\n      swap2\n      dup3\n      swap1\n      sstore\n      pop\n        /* \"packages/revolution-contracts/MaxHeap.sol\":4557:4569  heap[--size] */\n      dup2\n      mstore\n      0x20\n      dup1\n      dup3\n      add\n      swap3\n      swap1\n      swap3\n      mstore\n      0x40\n      add\n      0x00\n      swap1\n      dup2\n      keccak256\n      sload\n        /* \"packages/revolution-contracts/MaxHeap.sol\":4547:4554  heap[0] */\n      dup2\n      dup1\n      mstore\n        /* \"packages/revolution-contracts/MaxHeap.sol\":4547:4551  heap */\n      0x02\n        /* \"packages/revolution-contracts/MaxHeap.sol\":4547:4554  heap[0] */\n      swap1\n      swap3\n      mstore\n      0xac33ff75c19e70fe83507db0d683fd3465c996598dc972688b7ace676c89077b\n        /* \"packages/revolution-contracts/MaxHeap.sol\":4547:4569  heap[0] = heap[--size] */\n      swap2\n      swap1\n      swap2\n      sstore\n        /* \"packages/revolution-contracts/MaxHeap.sol\":4579:4592  maxHeapify(0) */\n      tag_105\n      swap1\n        /* \"packages/revolution-contracts/MaxHeap.sol\":4579:4589  maxHeapify */\n      tag_51\n        /* \"packages/revolution-contracts/MaxHeap.sol\":4579:4592  maxHeapify(0) */\n      jump\t// in\n    tag_105:\n        /* \"packages/revolution-contracts/MaxHeap.sol\":4619:4639  valueMapping[popped] */\n      0x00\n      dup2\n      dup2\n      mstore\n        /* \"packages/revolution-contracts/MaxHeap.sol\":4619:4631  valueMapping */\n      0x04\n        /* \"packages/revolution-contracts/MaxHeap.sol\":4619:4639  valueMapping[popped] */\n      0x20\n      mstore\n      0x40\n      swap1\n      keccak256\n      sload\n        /* \"packages/revolution-contracts/MaxHeap.sol\":4611:4617  popped */\n      swap1\n      swap3\n      pop\n        /* \"packages/revolution-contracts/MaxHeap.sol\":4619:4639  valueMapping[popped] */\n      swap1\n      pop\n        /* \"packages/revolution-contracts/MaxHeap.sol\":4390:4647  function extractMax() external onlyOwner returns (uint256, uint256) {... */\n      swap1\n      swap2\n      jump\t// out\n        /* \"packages/revolution-contracts/MaxHeap.sol\":1869:2502  function maxHeapify(uint256 pos) public onlyOwner {... */\n    tag_51:\n        /* \"@openzeppelin/contracts/access/Ownable.sol\":1531:1544  _checkOwner() */\n      tag_108\n        /* \"@openzeppelin/contracts/access/Ownable.sol\":1531:1542  _checkOwner */\n      tag_62\n        /* \"@openzeppelin/contracts/access/Ownable.sol\":1531:1544  _checkOwner() */\n      jump\t// in\n    tag_108:\n        /* \"packages/revolution-contracts/MaxHeap.sol\":1929:1941  uint256 left */\n      0x00\n        /* \"packages/revolution-contracts/MaxHeap.sol\":1944:1951  2 * pos */\n      tag_110\n        /* \"packages/revolution-contracts/MaxHeap.sol\":1948:1951  pos */\n      dup3\n        /* \"packages/revolution-contracts/MaxHeap.sol\":1944:1945  2 */\n      0x02\n        /* \"packages/revolution-contracts/MaxHeap.sol\":1944:1951  2 * pos */\n      tag_111\n      jump\t// in\n    tag_110:\n        /* \"packages/revolution-contracts/MaxHeap.sol\":1944:1955  2 * pos + 1 */\n      tag_112\n      swap1\n        /* \"packages/revolution-contracts/MaxHeap.sol\":1954:1955  1 */\n      0x01\n        /* \"packages/revolution-contracts/MaxHeap.sol\":1944:1955  2 * pos + 1 */\n      tag_113\n      jump\t// in\n    tag_112:\n        /* \"packages/revolution-contracts/MaxHeap.sol\":1929:1955  uint256 left = 2 * pos + 1 */\n      swap1\n      pop\n        /* \"packages/revolution-contracts/MaxHeap.sol\":1965:1978  uint256 right */\n      0x00\n        /* \"packages/revolution-contracts/MaxHeap.sol\":1981:1988  2 * pos */\n      tag_114\n        /* \"packages/revolution-contracts/MaxHeap.sol\":1985:1988  pos */\n      dup4\n        /* \"packages/revolution-contracts/MaxHeap.sol\":1981:1982  2 */\n      0x02\n        /* \"packages/revolution-contracts/MaxHeap.sol\":1981:1988  2 * pos */\n      tag_111\n      jump\t// in\n    tag_114:\n        /* \"packages/revolution-contracts/MaxHeap.sol\":1981:1992  2 * pos + 2 */\n      tag_115\n      swap1\n        /* \"packages/revolution-contracts/MaxHeap.sol\":1991:1992  2 */\n      0x02\n        /* \"packages/revolution-contracts/MaxHeap.sol\":1981:1992  2 * pos + 2 */\n      tag_113\n      jump\t// in\n    tag_115:\n        /* \"packages/revolution-contracts/MaxHeap.sol\":2003:2019  uint256 posValue */\n      0x00\n        /* \"packages/revolution-contracts/MaxHeap.sol\":2035:2044  heap[pos] */\n      dup5\n      dup2\n      mstore\n        /* \"packages/revolution-contracts/MaxHeap.sol\":2035:2039  heap */\n      0x02\n        /* \"packages/revolution-contracts/MaxHeap.sol\":2035:2044  heap[pos] */\n      0x20\n      dup2\n      dup2\n      mstore\n      0x40\n      dup1\n      dup5\n      keccak256\n      sload\n        /* \"packages/revolution-contracts/MaxHeap.sol\":2022:2045  valueMapping[heap[pos]] */\n      dup5\n      mstore\n        /* \"packages/revolution-contracts/MaxHeap.sol\":2022:2034  valueMapping */\n      0x04\n        /* \"packages/revolution-contracts/MaxHeap.sol\":2022:2045  valueMapping[heap[pos]] */\n      dup1\n      dup4\n      mstore\n      dup2\n      dup6\n      keccak256\n      sload\n        /* \"packages/revolution-contracts/MaxHeap.sol\":2088:2098  heap[left] */\n      dup9\n      dup7\n      mstore\n      dup5\n      dup5\n      mstore\n      dup3\n      dup7\n      keccak256\n      sload\n        /* \"packages/revolution-contracts/MaxHeap.sol\":2075:2099  valueMapping[heap[left]] */\n      dup7\n      mstore\n      dup2\n      dup5\n      mstore\n      dup3\n      dup7\n      keccak256\n      sload\n        /* \"packages/revolution-contracts/MaxHeap.sol\":2143:2154  heap[right] */\n      dup8\n      dup8\n      mstore\n      dup6\n      dup6\n      mstore\n      dup4\n      dup8\n      keccak256\n      sload\n        /* \"packages/revolution-contracts/MaxHeap.sol\":2130:2155  valueMapping[heap[right]] */\n      dup8\n      mstore\n      swap2\n      swap1\n      swap4\n      mstore\n      swap4\n      keccak256\n      sload\n        /* \"packages/revolution-contracts/MaxHeap.sol\":2178:2182  size */\n      sload(0x03)\n        /* \"packages/revolution-contracts/MaxHeap.sol\":1965:1992  uint256 right = 2 * pos + 2 */\n      swap5\n      swap6\n      pop\n        /* \"packages/revolution-contracts/MaxHeap.sol\":2022:2045  valueMapping[heap[pos]] */\n      swap1\n      swap4\n        /* \"packages/revolution-contracts/MaxHeap.sol\":2130:2155  valueMapping[heap[right]] */\n      swap1\n      swap2\n        /* \"packages/revolution-contracts/MaxHeap.sol\":2178:2186  size / 2 */\n      tag_116\n      swap2\n      tag_117\n      jump\t// in\n    tag_116:\n        /* \"packages/revolution-contracts/MaxHeap.sol\":2170:2173  pos */\n      dup7\n        /* \"packages/revolution-contracts/MaxHeap.sol\":2170:2187  pos >= (size / 2) */\n      lt\n      iszero\n        /* \"packages/revolution-contracts/MaxHeap.sol\":2170:2202  pos >= (size / 2) && pos <= size */\n      dup1\n      iszero\n      tag_118\n      jumpi\n      pop\n        /* \"packages/revolution-contracts/MaxHeap.sol\":2198:2202  size */\n      sload(0x03)\n        /* \"packages/revolution-contracts/MaxHeap.sol\":2191:2194  pos */\n      dup7\n        /* \"packages/revolution-contracts/MaxHeap.sol\":2191:2202  pos <= size */\n      gt\n      iszero\n        /* \"packages/revolution-contracts/MaxHeap.sol\":2170:2202  pos >= (size / 2) && pos <= size */\n    tag_118:\n        /* \"packages/revolution-contracts/MaxHeap.sol\":2166:2211  if (pos >= (size / 2) && pos <= size) return; */\n      iszero\n      tag_119\n      jumpi\n        /* \"packages/revolution-contracts/MaxHeap.sol\":2204:2211  return; */\n      pop\n      pop\n      pop\n      pop\n      pop\n        /* \"packages/revolution-contracts/MaxHeap.sol\":1869:2502  function maxHeapify(uint256 pos) public onlyOwner {... */\n      pop\n      jump\t// out\n        /* \"packages/revolution-contracts/MaxHeap.sol\":2166:2211  if (pos >= (size / 2) && pos <= size) return; */\n    tag_119:\n        /* \"packages/revolution-contracts/MaxHeap.sol\":2236:2245  leftValue */\n      dup2\n        /* \"packages/revolution-contracts/MaxHeap.sol\":2225:2233  posValue */\n      dup4\n        /* \"packages/revolution-contracts/MaxHeap.sol\":2225:2245  posValue < leftValue */\n      lt\n        /* \"packages/revolution-contracts/MaxHeap.sol\":2225:2270  posValue < leftValue || posValue < rightValue */\n      dup1\n      tag_120\n      jumpi\n      pop\n        /* \"packages/revolution-contracts/MaxHeap.sol\":2260:2270  rightValue */\n      dup1\n        /* \"packages/revolution-contracts/MaxHeap.sol\":2249:2257  posValue */\n      dup4\n        /* \"packages/revolution-contracts/MaxHeap.sol\":2249:2270  posValue < rightValue */\n      lt\n        /* \"packages/revolution-contracts/MaxHeap.sol\":2225:2270  posValue < leftValue || posValue < rightValue */\n    tag_120:\n        /* \"packages/revolution-contracts/MaxHeap.sol\":2221:2496  if (posValue < leftValue || posValue < rightValue) {... */\n      iszero\n      tag_127\n      jumpi\n        /* \"packages/revolution-contracts/MaxHeap.sol\":2302:2312  rightValue */\n      dup1\n        /* \"packages/revolution-contracts/MaxHeap.sol\":2290:2299  leftValue */\n      dup3\n        /* \"packages/revolution-contracts/MaxHeap.sol\":2290:2312  leftValue > rightValue */\n      gt\n        /* \"packages/revolution-contracts/MaxHeap.sol\":2286:2486  if (leftValue > rightValue) {... */\n      iszero\n      tag_122\n      jumpi\n        /* \"packages/revolution-contracts/MaxHeap.sol\":2332:2347  swap(pos, left) */\n      tag_123\n        /* \"packages/revolution-contracts/MaxHeap.sol\":2337:2340  pos */\n      dup7\n        /* \"packages/revolution-contracts/MaxHeap.sol\":2342:2346  left */\n      dup7\n        /* \"packages/revolution-contracts/MaxHeap.sol\":2332:2336  swap */\n      tag_71\n        /* \"packages/revolution-contracts/MaxHeap.sol\":2332:2347  swap(pos, left) */\n      jump\t// in\n    tag_123:\n        /* \"packages/revolution-contracts/MaxHeap.sol\":2365:2381  maxHeapify(left) */\n      tag_124\n        /* \"packages/revolution-contracts/MaxHeap.sol\":2376:2380  left */\n      dup6\n        /* \"packages/revolution-contracts/MaxHeap.sol\":2365:2375  maxHeapify */\n      tag_51\n        /* \"packages/revolution-contracts/MaxHeap.sol\":2365:2381  maxHeapify(left) */\n      jump\t// in\n    tag_124:\n        /* \"packages/revolution-contracts/MaxHeap.sol\":2286:2486  if (leftValue > rightValue) {... */\n      jump(tag_127)\n    tag_122:\n        /* \"packages/revolution-contracts/MaxHeap.sol\":2420:2436  swap(pos, right) */\n      tag_126\n        /* \"packages/revolution-contracts/MaxHeap.sol\":2425:2428  pos */\n      dup7\n        /* \"packages/revolution-contracts/MaxHeap.sol\":2430:2435  right */\n      dup6\n        /* \"packages/revolution-contracts/MaxHeap.sol\":2420:2424  swap */\n      tag_71\n        /* \"packages/revolution-contracts/MaxHeap.sol\":2420:2436  swap(pos, right) */\n      jump\t// in\n    tag_126:\n        /* \"packages/revolution-contracts/MaxHeap.sol\":2454:2471  maxHeapify(right) */\n      tag_127\n        /* \"packages/revolution-contracts/MaxHeap.sol\":2465:2470  right */\n      dup5\n        /* \"packages/revolution-contracts/MaxHeap.sol\":2454:2464  maxHeapify */\n      tag_51\n        /* \"packages/revolution-contracts/MaxHeap.sol\":2454:2471  maxHeapify(right) */\n      jump\t// in\n    tag_127:\n        /* \"packages/revolution-contracts/MaxHeap.sol\":1919:2502  {... */\n      pop\n      pop\n      pop\n      pop\n      pop\n        /* \"@openzeppelin/contracts/access/Ownable.sol\":1554:1555  _ */\n    tag_109:\n        /* \"packages/revolution-contracts/MaxHeap.sol\":1869:2502  function maxHeapify(uint256 pos) public onlyOwner {... */\n      pop\n      jump\t// out\n        /* \"@openzeppelin/contracts/access/Ownable.sol\":2543:2758  function transferOwnership(address newOwner) public virtual onlyOwner {... */\n    tag_59:\n        /* \"@openzeppelin/contracts/access/Ownable.sol\":1531:1544  _checkOwner() */\n      tag_129\n        /* \"@openzeppelin/contracts/access/Ownable.sol\":1531:1542  _checkOwner */\n      tag_62\n        /* \"@openzeppelin/contracts/access/Ownable.sol\":1531:1544  _checkOwner() */\n      jump\t// in\n    tag_129:\n      sub(shl(0xa0, 0x01), 0x01)\n        /* \"@openzeppelin/contracts/access/Ownable.sol\":2627:2649  newOwner == address(0) */\n      dup2\n      and\n        /* \"@openzeppelin/contracts/access/Ownable.sol\":2623:2714  if (newOwner == address(0)) {... */\n      tag_131\n      jumpi\n        /* \"@openzeppelin/contracts/access/Ownable.sol\":2672:2703  OwnableInvalidOwner(address(0)) */\n      mload(0x40)\n      shl(0xe0, 0x1e4fbdf7)\n      dup2\n      mstore\n        /* \"@openzeppelin/contracts/access/Ownable.sol\":2700:2701  0 */\n      0x00\n        /* \"@openzeppelin/contracts/access/Ownable.sol\":2672:2703  OwnableInvalidOwner(address(0)) */\n      0x04\n      dup3\n      add\n        /* \"#utility.yul\":1033:1084   */\n      mstore\n        /* \"#utility.yul\":1006:1024   */\n      0x24\n      add\n        /* \"@openzeppelin/contracts/access/Ownable.sol\":2672:2703  OwnableInvalidOwner(address(0)) */\n      tag_77\n        /* \"#utility.yul\":887:1090   */\n      jump\n        /* \"@openzeppelin/contracts/access/Ownable.sol\":2623:2714  if (newOwner == address(0)) {... */\n    tag_131:\n        /* \"@openzeppelin/contracts/access/Ownable.sol\":2723:2751  _transferOwnership(newOwner) */\n      tag_109\n        /* \"@openzeppelin/contracts/access/Ownable.sol\":2742:2750  newOwner */\n      dup2\n        /* \"@openzeppelin/contracts/access/Ownable.sol\":2723:2741  _transferOwnership */\n      tag_97\n        /* \"@openzeppelin/contracts/access/Ownable.sol\":2723:2751  _transferOwnership(newOwner) */\n      jump\t// in\n        /* \"@openzeppelin/contracts/access/Ownable.sol\":1796:1958  function _checkOwner() internal view virtual {... */\n    tag_62:\n        /* \"@openzeppelin/contracts/access/Ownable.sol\":1684:1691  address */\n      0x00\n        /* \"@openzeppelin/contracts/access/Ownable.sol\":1710:1716  _owner */\n      sload\n      sub(shl(0xa0, 0x01), 0x01)\n      and\n        /* \"@openzeppelin/contracts/utils/Context.sol\":735:745  msg.sender */\n      caller\n        /* \"@openzeppelin/contracts/access/Ownable.sol\":1855:1878  owner() != _msgSender() */\n      eq\n        /* \"@openzeppelin/contracts/access/Ownable.sol\":1851:1952  if (owner() != _msgSender()) {... */\n      tag_96\n      jumpi\n        /* \"@openzeppelin/contracts/access/Ownable.sol\":1901:1941  OwnableUnauthorizedAccount(_msgSender()) */\n      mload(0x40)\n      shl(0xe0, 0x118cdaa7)\n      dup2\n      mstore\n        /* \"@openzeppelin/contracts/utils/Context.sol\":735:745  msg.sender */\n      caller\n        /* \"@openzeppelin/contracts/access/Ownable.sol\":1901:1941  OwnableUnauthorizedAccount(_msgSender()) */\n      0x04\n      dup3\n      add\n        /* \"#utility.yul\":1033:1084   */\n      mstore\n        /* \"#utility.yul\":1006:1024   */\n      0x24\n      add\n        /* \"@openzeppelin/contracts/access/Ownable.sol\":1901:1941  OwnableUnauthorizedAccount(_msgSender()) */\n      tag_77\n        /* \"#utility.yul\":887:1090   */\n      jump\n        /* \"packages/revolution-contracts/MaxHeap.sol\":1161:1316  function parent(uint256 pos) private pure returns (uint256) {... */\n    tag_68:\n        /* \"packages/revolution-contracts/MaxHeap.sol\":1212:1219  uint256 */\n      0x00\n        /* \"packages/revolution-contracts/MaxHeap.sol\":1239:1242  pos */\n      dup2\n        /* \"packages/revolution-contracts/MaxHeap.sol\":1246:1247  0 */\n      0x00\n        /* \"packages/revolution-contracts/MaxHeap.sol\":1239:1247  pos != 0 */\n      sub\n        /* \"packages/revolution-contracts/MaxHeap.sol\":1231:1279  require(pos != 0, \"Position should not be zero\") */\n      tag_142\n      jumpi\n      mload(0x40)\n      shl(0xe5, 0x461bcd)\n      dup2\n      mstore\n        /* \"#utility.yul\":2868:2870   */\n      0x20\n        /* \"packages/revolution-contracts/MaxHeap.sol\":1231:1279  require(pos != 0, \"Position should not be zero\") */\n      0x04\n      dup3\n      add\n        /* \"#utility.yul\":2850:2871   */\n      mstore\n        /* \"#utility.yul\":2907:2909   */\n      0x1b\n        /* \"#utility.yul\":2887:2905   */\n      0x24\n      dup3\n      add\n        /* \"#utility.yul\":2880:2910   */\n      mstore\n        /* \"#utility.yul\":2946:2975   */\n      0x506f736974696f6e2073686f756c64206e6f74206265207a65726f0000000000\n        /* \"#utility.yul\":2926:2944   */\n      0x44\n      dup3\n      add\n        /* \"#utility.yul\":2919:2976   */\n      mstore\n        /* \"#utility.yul\":2993:3011   */\n      0x64\n      add\n        /* \"packages/revolution-contracts/MaxHeap.sol\":1231:1279  require(pos != 0, \"Position should not be zero\") */\n      tag_77\n        /* \"#utility.yul\":2666:3017   */\n      jump\n        /* \"packages/revolution-contracts/MaxHeap.sol\":1231:1279  require(pos != 0, \"Position should not be zero\") */\n    tag_142:\n        /* \"packages/revolution-contracts/MaxHeap.sol\":1308:1309  2 */\n      0x02\n        /* \"packages/revolution-contracts/MaxHeap.sol\":1297:1304  pos - 1 */\n      tag_145\n        /* \"packages/revolution-contracts/MaxHeap.sol\":1303:1304  1 */\n      0x01\n        /* \"packages/revolution-contracts/MaxHeap.sol\":1297:1300  pos */\n      dup5\n        /* \"packages/revolution-contracts/MaxHeap.sol\":1297:1304  pos - 1 */\n      tag_146\n      jump\t// in\n    tag_145:\n        /* \"packages/revolution-contracts/MaxHeap.sol\":1296:1309  (pos - 1) / 2 */\n      tag_147\n      swap2\n      swap1\n      tag_117\n      jump\t// in\n    tag_147:\n        /* \"packages/revolution-contracts/MaxHeap.sol\":1289:1309  return (pos - 1) / 2 */\n      swap3\n        /* \"packages/revolution-contracts/MaxHeap.sol\":1161:1316  function parent(uint256 pos) private pure returns (uint256) {... */\n      swap2\n      pop\n      pop\n      jump\t// out\n        /* \"packages/revolution-contracts/MaxHeap.sol\":1468:1669  function swap(uint256 fpos, uint256 spos) private {... */\n    tag_71:\n        /* \"packages/revolution-contracts/MaxHeap.sol\":1556:1566  heap[spos] */\n      0x00\n      dup2\n      dup2\n      mstore\n        /* \"packages/revolution-contracts/MaxHeap.sol\":1556:1560  heap */\n      0x02\n        /* \"packages/revolution-contracts/MaxHeap.sol\":1556:1566  heap[spos] */\n      0x20\n      swap1\n      dup2\n      mstore\n      0x40\n      dup1\n      dup4\n      keccak256\n      dup1\n      sload\n        /* \"packages/revolution-contracts/MaxHeap.sol\":1568:1578  heap[fpos] */\n      dup7\n      dup6\n      mstore\n      dup3\n      dup6\n      keccak256\n      dup1\n      sload\n        /* \"packages/revolution-contracts/MaxHeap.sol\":1528:1579  (heap[fpos], heap[spos]) = (heap[spos], heap[fpos]) */\n      dup4\n      sstore\n      dup2\n      swap1\n      sstore\n        /* \"packages/revolution-contracts/MaxHeap.sol\":1590:1617  positionMapping[heap[fpos]] */\n      dup5\n      mstore\n        /* \"packages/revolution-contracts/MaxHeap.sol\":1590:1605  positionMapping */\n      0x05\n        /* \"packages/revolution-contracts/MaxHeap.sol\":1590:1617  positionMapping[heap[fpos]] */\n      swap1\n      swap3\n      mstore\n      dup1\n      dup4\n      keccak256\n        /* \"packages/revolution-contracts/MaxHeap.sol\":1635:1645  heap[spos] */\n      swap2\n      sload\n        /* \"packages/revolution-contracts/MaxHeap.sol\":1619:1646  positionMapping[heap[spos]] */\n      dup4\n      mstore\n      swap1\n      swap2\n      keccak256\n        /* \"packages/revolution-contracts/MaxHeap.sol\":1589:1662  (positionMapping[heap[fpos]], positionMapping[heap[spos]]) = (fpos, spos) */\n      swap2\n      swap1\n      swap2\n      sstore\n      sstore\n        /* \"packages/revolution-contracts/MaxHeap.sol\":1468:1669  function swap(uint256 fpos, uint256 spos) private {... */\n      jump\t// out\n        /* \"@openzeppelin/contracts/access/Ownable.sol\":2912:3099  function _transferOwnership(address newOwner) internal virtual {... */\n    tag_97:\n        /* \"@openzeppelin/contracts/access/Ownable.sol\":2985:3001  address oldOwner */\n      0x00\n        /* \"@openzeppelin/contracts/access/Ownable.sol\":3004:3010  _owner */\n      dup1\n      sload\n      sub(shl(0xa0, 0x01), 0x01)\n        /* \"@openzeppelin/contracts/access/Ownable.sol\":3020:3037  _owner = newOwner */\n      dup4\n      dup2\n      and\n      not(sub(shl(0xa0, 0x01), 0x01))\n      dup4\n      and\n      dup2\n      or\n      dup5\n      sstore\n        /* \"@openzeppelin/contracts/access/Ownable.sol\":3052:3092  OwnershipTransferred(oldOwner, newOwner) */\n      mload(0x40)\n        /* \"@openzeppelin/contracts/access/Ownable.sol\":3004:3010  _owner */\n      swap2\n      swap1\n      swap3\n      and\n      swap3\n      dup4\n      swap2\n        /* \"@openzeppelin/contracts/access/Ownable.sol\":3052:3092  OwnershipTransferred(oldOwner, newOwner) */\n      0x8be0079c531659141344cd1fd0a4f28419497f9722a3daafe3b4186f6b6457e0\n      swap2\n        /* \"@openzeppelin/contracts/access/Ownable.sol\":2985:3001  address oldOwner */\n      swap1\n        /* \"@openzeppelin/contracts/access/Ownable.sol\":3052:3092  OwnershipTransferred(oldOwner, newOwner) */\n      log3\n        /* \"@openzeppelin/contracts/access/Ownable.sol\":2975:3099  {... */\n      pop\n        /* \"@openzeppelin/contracts/access/Ownable.sol\":2912:3099  function _transferOwnership(address newOwner) internal virtual {... */\n      pop\n      jump\t// out\n        /* \"#utility.yul\":14:194   */\n    tag_18:\n        /* \"#utility.yul\":73:79   */\n      0x00\n        /* \"#utility.yul\":126:128   */\n      0x20\n        /* \"#utility.yul\":114:123   */\n      dup3\n        /* \"#utility.yul\":105:112   */\n      dup5\n        /* \"#utility.yul\":101:124   */\n      sub\n        /* \"#utility.yul\":97:129   */\n      slt\n        /* \"#utility.yul\":94:146   */\n      iszero\n      tag_154\n      jumpi\n        /* \"#utility.yul\":142:143   */\n      0x00\n        /* \"#utility.yul\":139:140   */\n      dup1\n        /* \"#utility.yul\":132:144   */\n      revert\n        /* \"#utility.yul\":94:146   */\n    tag_154:\n      pop\n        /* \"#utility.yul\":165:188   */\n      calldataload\n      swap2\n        /* \"#utility.yul\":14:194   */\n      swap1\n      pop\n      jump\t// out\n        /* \"#utility.yul\":381:629   */\n    tag_24:\n        /* \"#utility.yul\":449:455   */\n      0x00\n        /* \"#utility.yul\":457:463   */\n      dup1\n        /* \"#utility.yul\":510:512   */\n      0x40\n        /* \"#utility.yul\":498:507   */\n      dup4\n        /* \"#utility.yul\":489:496   */\n      dup6\n        /* \"#utility.yul\":485:508   */\n      sub\n        /* \"#utility.yul\":481:513   */\n      slt\n        /* \"#utility.yul\":478:530   */\n      iszero\n      tag_157\n      jumpi\n        /* \"#utility.yul\":526:527   */\n      0x00\n        /* \"#utility.yul\":523:524   */\n      dup1\n        /* \"#utility.yul\":516:528   */\n      revert\n        /* \"#utility.yul\":478:530   */\n    tag_157:\n      pop\n      pop\n        /* \"#utility.yul\":549:572   */\n      dup1\n      calldataload\n      swap3\n        /* \"#utility.yul\":619:621   */\n      0x20\n        /* \"#utility.yul\":604:622   */\n      swap1\n      swap2\n      add\n        /* \"#utility.yul\":591:623   */\n      calldataload\n      swap2\n      pop\n        /* \"#utility.yul\":381:629   */\n      jump\t// out\n        /* \"#utility.yul\":1095:1381   */\n    tag_58:\n        /* \"#utility.yul\":1154:1160   */\n      0x00\n        /* \"#utility.yul\":1207:1209   */\n      0x20\n        /* \"#utility.yul\":1195:1204   */\n      dup3\n        /* \"#utility.yul\":1186:1193   */\n      dup5\n        /* \"#utility.yul\":1182:1205   */\n      sub\n        /* \"#utility.yul\":1178:1210   */\n      slt\n        /* \"#utility.yul\":1175:1227   */\n      iszero\n      tag_161\n      jumpi\n        /* \"#utility.yul\":1223:1224   */\n      0x00\n        /* \"#utility.yul\":1220:1221   */\n      dup1\n        /* \"#utility.yul\":1213:1225   */\n      revert\n        /* \"#utility.yul\":1175:1227   */\n    tag_161:\n        /* \"#utility.yul\":1249:1272   */\n      dup2\n      calldataload\n      sub(shl(0xa0, 0x01), 0x01)\n        /* \"#utility.yul\":1301:1332   */\n      dup2\n      and\n        /* \"#utility.yul\":1291:1333   */\n      dup2\n      eq\n        /* \"#utility.yul\":1281:1351   */\n      tag_162\n      jumpi\n        /* \"#utility.yul\":1347:1348   */\n      0x00\n        /* \"#utility.yul\":1344:1345   */\n      dup1\n        /* \"#utility.yul\":1337:1349   */\n      revert\n        /* \"#utility.yul\":1281:1351   */\n    tag_162:\n        /* \"#utility.yul\":1370:1375   */\n      swap4\n        /* \"#utility.yul\":1095:1381   */\n      swap3\n      pop\n      pop\n      pop\n      jump\t// out\n        /* \"#utility.yul\":1386:1513   */\n    tag_151:\n        /* \"#utility.yul\":1447:1457   */\n      0x4e487b71\n        /* \"#utility.yul\":1442:1445   */\n      0xe0\n        /* \"#utility.yul\":1438:1458   */\n      shl\n        /* \"#utility.yul\":1435:1436   */\n      0x00\n        /* \"#utility.yul\":1428:1459   */\n      mstore\n        /* \"#utility.yul\":1478:1482   */\n      0x11\n        /* \"#utility.yul\":1475:1476   */\n      0x04\n        /* \"#utility.yul\":1468:1483   */\n      mstore\n        /* \"#utility.yul\":1502:1506   */\n      0x24\n        /* \"#utility.yul\":1499:1500   */\n      0x00\n        /* \"#utility.yul\":1492:1507   */\n      revert\n        /* \"#utility.yul\":1518:1653   */\n    tag_74:\n        /* \"#utility.yul\":1557:1560   */\n      0x00\n        /* \"#utility.yul\":1578:1595   */\n      0x01\n      dup3\n      add\n        /* \"#utility.yul\":1575:1618   */\n      tag_166\n      jumpi\n        /* \"#utility.yul\":1598:1616   */\n      tag_166\n      tag_151\n      jump\t// in\n    tag_166:\n      pop\n        /* \"#utility.yul\":1645:1646   */\n      0x01\n        /* \"#utility.yul\":1634:1647   */\n      add\n      swap1\n        /* \"#utility.yul\":1518:1653   */\n      jump\t// out\n        /* \"#utility.yul\":2000:2136   */\n    tag_104:\n        /* \"#utility.yul\":2039:2042   */\n      0x00\n        /* \"#utility.yul\":2067:2072   */\n      dup2\n        /* \"#utility.yul\":2057:2096   */\n      tag_170\n      jumpi\n        /* \"#utility.yul\":2076:2094   */\n      tag_170\n      tag_151\n      jump\t// in\n    tag_170:\n      pop\n      not(0x00)\n        /* \"#utility.yul\":2112:2130   */\n      add\n      swap1\n        /* \"#utility.yul\":2000:2136   */\n      jump\t// out\n        /* \"#utility.yul\":2141:2309   */\n    tag_111:\n        /* \"#utility.yul\":2214:2223   */\n      dup1\n      dup3\n      mul\n        /* \"#utility.yul\":2245:2254   */\n      dup2\n      iszero\n        /* \"#utility.yul\":2262:2277   */\n      dup3\n      dup3\n      div\n        /* \"#utility.yul\":2256:2278   */\n      dup5\n      eq\n        /* \"#utility.yul\":2242:2279   */\n      or\n        /* \"#utility.yul\":2232:2303   */\n      tag_147\n      jumpi\n        /* \"#utility.yul\":2283:2301   */\n      tag_147\n      tag_151\n      jump\t// in\n        /* \"#utility.yul\":2314:2439   */\n    tag_113:\n        /* \"#utility.yul\":2379:2388   */\n      dup1\n      dup3\n      add\n        /* \"#utility.yul\":2400:2410   */\n      dup1\n      dup3\n      gt\n        /* \"#utility.yul\":2397:2433   */\n      iszero\n      tag_147\n      jumpi\n        /* \"#utility.yul\":2413:2431   */\n      tag_147\n      tag_151\n      jump\t// in\n        /* \"#utility.yul\":2444:2661   */\n    tag_117:\n        /* \"#utility.yul\":2484:2485   */\n      0x00\n        /* \"#utility.yul\":2510:2511   */\n      dup3\n        /* \"#utility.yul\":2500:2632   */\n      tag_178\n      jumpi\n        /* \"#utility.yul\":2554:2564   */\n      0x4e487b71\n        /* \"#utility.yul\":2549:2552   */\n      0xe0\n        /* \"#utility.yul\":2545:2565   */\n      shl\n        /* \"#utility.yul\":2542:2543   */\n      0x00\n        /* \"#utility.yul\":2535:2566   */\n      mstore\n        /* \"#utility.yul\":2589:2593   */\n      0x12\n        /* \"#utility.yul\":2586:2587   */\n      0x04\n        /* \"#utility.yul\":2579:2594   */\n      mstore\n        /* \"#utility.yul\":2617:2621   */\n      0x24\n        /* \"#utility.yul\":2614:2615   */\n      0x00\n        /* \"#utility.yul\":2607:2622   */\n      revert\n        /* \"#utility.yul\":2500:2632   */\n    tag_178:\n      pop\n        /* \"#utility.yul\":2646:2655   */\n      div\n      swap1\n        /* \"#utility.yul\":2444:2661   */\n      jump\t// out\n        /* \"#utility.yul\":3022:3150   */\n    tag_146:\n        /* \"#utility.yul\":3089:3098   */\n      dup2\n      dup2\n      sub\n        /* \"#utility.yul\":3110:3121   */\n      dup2\n      dup2\n      gt\n        /* \"#utility.yul\":3107:3144   */\n      iszero\n      tag_147\n      jumpi\n        /* \"#utility.yul\":3124:3142   */\n      tag_147\n      tag_151\n      jump\t// in\n\n    auxdata: 0xa2646970667358221220f231acab81386ecd17bb14cdbd61b859da89e32d88745338550027b6c123525664736f6c63430008160033\n}\n",
				"bytecode": {
					"linkReferences": {},
					"object": "60806040525f600355348015610013575f80fd5b50604051610965380380610965833981016040819052610032916100c3565b806001600160a01b03811661006057604051631e4fbdf760e01b81525f600482015260240160405180910390fd5b61006981610074565b5050600180556100f0565b5f80546001600160a01b038381166001600160a01b0319831681178455604051919092169283917f8be0079c531659141344cd1fd0a4f28419497f9722a3daafe3b4186f6b6457e09190a35050565b5f602082840312156100d3575f80fd5b81516001600160a01b03811681146100e9575f80fd5b9392505050565b610868806100fd5f395ff3fe608060405234801561000f575f80fd5b50600436106100b1575f3560e01c80638860805a1161006e5780638860805a146101535780638da5cb5b1461015b578063949d225d146101755780639f9a7f501461017e578063f1269e0114610191578063f2fde38b146101b0575f80fd5b80631c01f292146100b55780631d834a1b146100e75780633075f552146100fc5780635b50082614610119578063715018a61461012c578063843f979314610134575b5f80fd5b6100d46100c3366004610731565b60026020525f908152604090205481565b6040519081526020015b60405180910390f35b6100fa6100f5366004610748565b6101c3565b005b610104610297565b604080519283526020830191909152016100de565b6100fa610127366004610748565b610315565b6100fa6103dd565b6100d4610142366004610731565b60056020525f908152604090205481565b6101046103f0565b5f546040516001600160a01b0390911681526020016100de565b6100d460035481565b6100fa61018c366004610731565b6104df565b6100d461019f366004610731565b60046020525f908152604090205481565b6100fa6101be366004610768565b6105d8565b6101cb610612565b600380545f90815260026020908152604080832086905585835260048252808320859055925460059091529190208190555b8015801590610257575060045f60025f6102168561063e565b81526020019081526020015f205481526020019081526020015f205460045f60025f8581526020019081526020015f205481526020019081526020015f2054115b1561027e5761026e816102698361063e565b6106ab565b6102778161063e565b90506101fd565b60038054905f61028d836107a9565b9190505550505050565b5f805f600354116102df5760405162461bcd60e51b815260206004820152600d60248201526c4865617020697320656d70747960981b60448201526064015b60405180910390fd5b50507fac33ff75c19e70fe83507db0d683fd3465c996598dc972688b7ace676c89077b545f818152600460205260409020549091565b61031d610612565b5f828152600560209081526040808320546004909252909120805490839055808311156103c6575b811580159061039f575060045f60025f61035e8661063e565b81526020019081526020015f205481526020019081526020015f205460045f60025f8681526020019081526020015f205481526020019081526020015f2054115b156103c1576103b1826102698461063e565b6103ba8261063e565b9150610345565b6103d7565b808310156103d7576103d7826104df565b50505050565b6103e5610612565b6103ee5f6106e2565b565b5f806103fa610612565b5f6003541161043b5760405162461bcd60e51b815260206004820152600d60248201526c4865617020697320656d70747960981b60448201526064016102d6565b5f808052600260208190527fac33ff75c19e70fe83507db0d683fd3465c996598dc972688b7ace676c89077b5460038054919391829061047a906107c1565b918290555081526020808201929092526040015f9081205481805260029092527fac33ff75c19e70fe83507db0d683fd3465c996598dc972688b7ace676c89077b919091556104c8906104df565b5f8181526004602052604090205490925090509091565b6104e7610612565b5f6104f38260026107d6565b6104fe9060016107ed565b90505f61050c8360026107d6565b6105179060026107ed565b5f84815260026020818152604080842054845260048083528185205488865284845282862054865281845282862054878752858552838720548752919093529320546003549495509093909161056c91610800565b861015801561057d57506003548611155b1561058a57505050505050565b8183108061059757508083105b156105cf57808211156105bc576105ae86866106ab565b6105b7856104df565b6105cf565b6105c686856106ab565b6105cf846104df565b50505050505b50565b6105e0610612565b6001600160a01b03811661060957604051631e4fbdf760e01b81525f60048201526024016102d6565b6105d5816106e2565b5f546001600160a01b031633146103ee5760405163118cdaa760e01b81523360048201526024016102d6565b5f815f0361068e5760405162461bcd60e51b815260206004820152601b60248201527f506f736974696f6e2073686f756c64206e6f74206265207a65726f000000000060448201526064016102d6565b600261069b60018461081f565b6106a59190610800565b92915050565b5f81815260026020908152604080832080548685528285208054835581905584526005909252808320915483529091209190915555565b5f80546001600160a01b038381166001600160a01b0319831681178455604051919092169283917f8be0079c531659141344cd1fd0a4f28419497f9722a3daafe3b4186f6b6457e09190a35050565b5f60208284031215610741575f80fd5b5035919050565b5f8060408385031215610759575f80fd5b50508035926020909101359150565b5f60208284031215610778575f80fd5b81356001600160a01b038116811461078e575f80fd5b9392505050565b634e487b7160e01b5f52601160045260245ffd5b5f600182016107ba576107ba610795565b5060010190565b5f816107cf576107cf610795565b505f190190565b80820281158282048414176106a5576106a5610795565b808201808211156106a5576106a5610795565b5f8261081a57634e487b7160e01b5f52601260045260245ffd5b500490565b818103818111156106a5576106a561079556fea2646970667358221220f231acab81386ecd17bb14cdbd61b859da89e32d88745338550027b6c123525664736f6c63430008160033",
					"opcodes": "PUSH1 0x80 PUSH1 0x40 MSTORE PUSH0 PUSH1 0x3 SSTORE CALLVALUE DUP1 ISZERO PUSH2 0x13 JUMPI PUSH0 DUP1 REVERT JUMPDEST POP PUSH1 0x40 MLOAD PUSH2 0x965 CODESIZE SUB DUP1 PUSH2 0x965 DUP4 CODECOPY DUP2 ADD PUSH1 0x40 DUP2 SWAP1 MSTORE PUSH2 0x32 SWAP2 PUSH2 0xC3 JUMP JUMPDEST DUP1 PUSH1 0x1 PUSH1 0x1 PUSH1 0xA0 SHL SUB DUP2 AND PUSH2 0x60 JUMPI PUSH1 0x40 MLOAD PUSH4 0x1E4FBDF7 PUSH1 0xE0 SHL DUP2 MSTORE PUSH0 PUSH1 0x4 DUP3 ADD MSTORE PUSH1 0x24 ADD PUSH1 0x40 MLOAD DUP1 SWAP2 SUB SWAP1 REVERT JUMPDEST PUSH2 0x69 DUP2 PUSH2 0x74 JUMP JUMPDEST POP POP PUSH1 0x1 DUP1 SSTORE PUSH2 0xF0 JUMP JUMPDEST PUSH0 DUP1 SLOAD PUSH1 0x1 PUSH1 0x1 PUSH1 0xA0 SHL SUB DUP4 DUP2 AND PUSH1 0x1 PUSH1 0x1 PUSH1 0xA0 SHL SUB NOT DUP4 AND DUP2 OR DUP5 SSTORE PUSH1 0x40 MLOAD SWAP2 SWAP1 SWAP3 AND SWAP3 DUP4 SWAP2 PUSH32 0x8BE0079C531659141344CD1FD0A4F28419497F9722A3DAAFE3B4186F6B6457E0 SWAP2 SWAP1 LOG3 POP POP JUMP JUMPDEST PUSH0 PUSH1 0x20 DUP3 DUP5 SUB SLT ISZERO PUSH2 0xD3 JUMPI PUSH0 DUP1 REVERT JUMPDEST DUP2 MLOAD PUSH1 0x1 PUSH1 0x1 PUSH1 0xA0 SHL SUB DUP2 AND DUP2 EQ PUSH2 0xE9 JUMPI PUSH0 DUP1 REVERT JUMPDEST SWAP4 SWAP3 POP POP POP JUMP JUMPDEST PUSH2 0x868 DUP1 PUSH2 0xFD PUSH0 CODECOPY PUSH0 RETURN INVALID PUSH1 0x80 PUSH1 0x40 MSTORE CALLVALUE DUP1 ISZERO PUSH2 0xF JUMPI PUSH0 DUP1 REVERT JUMPDEST POP PUSH1 0x4 CALLDATASIZE LT PUSH2 0xB1 JUMPI PUSH0 CALLDATALOAD PUSH1 0xE0 SHR DUP1 PUSH4 0x8860805A GT PUSH2 0x6E JUMPI DUP1 PUSH4 0x8860805A EQ PUSH2 0x153 JUMPI DUP1 PUSH4 0x8DA5CB5B EQ PUSH2 0x15B JUMPI DUP1 PUSH4 0x949D225D EQ PUSH2 0x175 JUMPI DUP1 PUSH4 0x9F9A7F50 EQ PUSH2 0x17E JUMPI DUP1 PUSH4 0xF1269E01 EQ PUSH2 0x191 JUMPI DUP1 PUSH4 0xF2FDE38B EQ PUSH2 0x1B0 JUMPI PUSH0 DUP1 REVERT JUMPDEST DUP1 PUSH4 0x1C01F292 EQ PUSH2 0xB5 JUMPI DUP1 PUSH4 0x1D834A1B EQ PUSH2 0xE7 JUMPI DUP1 PUSH4 0x3075F552 EQ PUSH2 0xFC JUMPI DUP1 PUSH4 0x5B500826 EQ PUSH2 0x119 JUMPI DUP1 PUSH4 0x715018A6 EQ PUSH2 0x12C JUMPI DUP1 PUSH4 0x843F9793 EQ PUSH2 0x134 JUMPI JUMPDEST PUSH0 DUP1 REVERT JUMPDEST PUSH2 0xD4 PUSH2 0xC3 CALLDATASIZE PUSH1 0x4 PUSH2 0x731 JUMP JUMPDEST PUSH1 0x2 PUSH1 0x20 MSTORE PUSH0 SWAP1 DUP2 MSTORE PUSH1 0x40 SWAP1 KECCAK256 SLOAD DUP2 JUMP JUMPDEST PUSH1 0x40 MLOAD SWAP1 DUP2 MSTORE PUSH1 0x20 ADD JUMPDEST PUSH1 0x40 MLOAD DUP1 SWAP2 SUB SWAP1 RETURN JUMPDEST PUSH2 0xFA PUSH2 0xF5 CALLDATASIZE PUSH1 0x4 PUSH2 0x748 JUMP JUMPDEST PUSH2 0x1C3 JUMP JUMPDEST STOP JUMPDEST PUSH2 0x104 PUSH2 0x297 JUMP JUMPDEST PUSH1 0x40 DUP1 MLOAD SWAP3 DUP4 MSTORE PUSH1 0x20 DUP4 ADD SWAP2 SWAP1 SWAP2 MSTORE ADD PUSH2 0xDE JUMP JUMPDEST PUSH2 0xFA PUSH2 0x127 CALLDATASIZE PUSH1 0x4 PUSH2 0x748 JUMP JUMPDEST PUSH2 0x315 JUMP JUMPDEST PUSH2 0xFA PUSH2 0x3DD JUMP JUMPDEST PUSH2 0xD4 PUSH2 0x142 CALLDATASIZE PUSH1 0x4 PUSH2 0x731 JUMP JUMPDEST PUSH1 0x5 PUSH1 0x20 MSTORE PUSH0 SWAP1 DUP2 MSTORE PUSH1 0x40 SWAP1 KECCAK256 SLOAD DUP2 JUMP JUMPDEST PUSH2 0x104 PUSH2 0x3F0 JUMP JUMPDEST PUSH0 SLOAD PUSH1 0x40 MLOAD PUSH1 0x1 PUSH1 0x1 PUSH1 0xA0 SHL SUB SWAP1 SWAP2 AND DUP2 MSTORE PUSH1 0x20 ADD PUSH2 0xDE JUMP JUMPDEST PUSH2 0xD4 PUSH1 0x3 SLOAD DUP2 JUMP JUMPDEST PUSH2 0xFA PUSH2 0x18C CALLDATASIZE PUSH1 0x4 PUSH2 0x731 JUMP JUMPDEST PUSH2 0x4DF JUMP JUMPDEST PUSH2 0xD4 PUSH2 0x19F CALLDATASIZE PUSH1 0x4 PUSH2 0x731 JUMP JUMPDEST PUSH1 0x4 PUSH1 0x20 MSTORE PUSH0 SWAP1 DUP2 MSTORE PUSH1 0x40 SWAP1 KECCAK256 SLOAD DUP2 JUMP JUMPDEST PUSH2 0xFA PUSH2 0x1BE CALLDATASIZE PUSH1 0x4 PUSH2 0x768 JUMP JUMPDEST PUSH2 0x5D8 JUMP JUMPDEST PUSH2 0x1CB PUSH2 0x612 JUMP JUMPDEST PUSH1 0x3 DUP1 SLOAD PUSH0 SWAP1 DUP2 MSTORE PUSH1 0x2 PUSH1 0x20 SWAP1 DUP2 MSTORE PUSH1 0x40 DUP1 DUP4 KECCAK256 DUP7 SWAP1 SSTORE DUP6 DUP4 MSTORE PUSH1 0x4 DUP3 MSTORE DUP1 DUP4 KECCAK256 DUP6 SWAP1 SSTORE SWAP3 SLOAD PUSH1 0x5 SWAP1 SWAP2 MSTORE SWAP2 SWAP1 KECCAK256 DUP2 SWAP1 SSTORE JUMPDEST DUP1 ISZERO DUP1 ISZERO SWAP1 PUSH2 0x257 JUMPI POP PUSH1 0x4 PUSH0 PUSH1 0x2 PUSH0 PUSH2 0x216 DUP6 PUSH2 0x63E JUMP JUMPDEST DUP2 MSTORE PUSH1 0x20 ADD SWAP1 DUP2 MSTORE PUSH1 0x20 ADD PUSH0 KECCAK256 SLOAD DUP2 MSTORE PUSH1 0x20 ADD SWAP1 DUP2 MSTORE PUSH1 0x20 ADD PUSH0 KECCAK256 SLOAD PUSH1 0x4 PUSH0 PUSH1 0x2 PUSH0 DUP6 DUP2 MSTORE PUSH1 0x20 ADD SWAP1 DUP2 MSTORE PUSH1 0x20 ADD PUSH0 KECCAK256 SLOAD DUP2 MSTORE PUSH1 0x20 ADD SWAP1 DUP2 MSTORE PUSH1 0x20 ADD PUSH0 KECCAK256 SLOAD GT JUMPDEST ISZERO PUSH2 0x27E JUMPI PUSH2 0x26E DUP2 PUSH2 0x269 DUP4 PUSH2 0x63E JUMP JUMPDEST PUSH2 0x6AB JUMP JUMPDEST PUSH2 0x277 DUP2 PUSH2 0x63E JUMP JUMPDEST SWAP1 POP PUSH2 0x1FD JUMP JUMPDEST PUSH1 0x3 DUP1 SLOAD SWAP1 PUSH0 PUSH2 0x28D DUP4 PUSH2 0x7A9 JUMP JUMPDEST SWAP2 SWAP1 POP SSTORE POP POP POP POP JUMP JUMPDEST PUSH0 DUP1 PUSH0 PUSH1 0x3 SLOAD GT PUSH2 0x2DF JUMPI PUSH1 0x40 MLOAD PUSH3 0x461BCD PUSH1 0xE5 SHL DUP2 MSTORE PUSH1 0x20 PUSH1 0x4 DUP3 ADD MSTORE PUSH1 0xD PUSH1 0x24 DUP3 ADD MSTORE PUSH13 0x4865617020697320656D707479 PUSH1 0x98 SHL PUSH1 0x44 DUP3 ADD MSTORE PUSH1 0x64 ADD JUMPDEST PUSH1 0x40 MLOAD DUP1 SWAP2 SUB SWAP1 REVERT JUMPDEST POP POP PUSH32 0xAC33FF75C19E70FE83507DB0D683FD3465C996598DC972688B7ACE676C89077B SLOAD PUSH0 DUP2 DUP2 MSTORE PUSH1 0x4 PUSH1 0x20 MSTORE PUSH1 0x40 SWAP1 KECCAK256 SLOAD SWAP1 SWAP2 JUMP JUMPDEST PUSH2 0x31D PUSH2 0x612 JUMP JUMPDEST PUSH0 DUP3 DUP2 MSTORE PUSH1 0x5 PUSH1 0x20 SWAP1 DUP2 MSTORE PUSH1 0x40 DUP1 DUP4 KECCAK256 SLOAD PUSH1 0x4 SWAP1 SWAP3 MSTORE SWAP1 SWAP2 KECCAK256 DUP1 SLOAD SWAP1 DUP4 SWAP1 SSTORE DUP1 DUP4 GT ISZERO PUSH2 0x3C6 JUMPI JUMPDEST DUP2 ISZERO DUP1 ISZERO SWAP1 PUSH2 0x39F JUMPI POP PUSH1 0x4 PUSH0 PUSH1 0x2 PUSH0 PUSH2 0x35E DUP7 PUSH2 0x63E JUMP JUMPDEST DUP2 MSTORE PUSH1 0x20 ADD SWAP1 DUP2 MSTORE PUSH1 0x20 ADD PUSH0 KECCAK256 SLOAD DUP2 MSTORE PUSH1 0x20 ADD SWAP1 DUP2 MSTORE PUSH1 0x20 ADD PUSH0 KECCAK256 SLOAD PUSH1 0x4 PUSH0 PUSH1 0x2 PUSH0 DUP7 DUP2 MSTORE PUSH1 0x20 ADD SWAP1 DUP2 MSTORE PUSH1 0x20 ADD PUSH0 KECCAK256 SLOAD DUP2 MSTORE PUSH1 0x20 ADD SWAP1 DUP2 MSTORE PUSH1 0x20 ADD PUSH0 KECCAK256 SLOAD GT JUMPDEST ISZERO PUSH2 0x3C1 JUMPI PUSH2 0x3B1 DUP3 PUSH2 0x269 DUP5 PUSH2 0x63E JUMP JUMPDEST PUSH2 0x3BA DUP3 PUSH2 0x63E JUMP JUMPDEST SWAP2 POP PUSH2 0x345 JUMP JUMPDEST PUSH2 0x3D7 JUMP JUMPDEST DUP1 DUP4 LT ISZERO PUSH2 0x3D7 JUMPI PUSH2 0x3D7 DUP3 PUSH2 0x4DF JUMP JUMPDEST POP POP POP POP JUMP JUMPDEST PUSH2 0x3E5 PUSH2 0x612 JUMP JUMPDEST PUSH2 0x3EE PUSH0 PUSH2 0x6E2 JUMP JUMPDEST JUMP JUMPDEST PUSH0 DUP1 PUSH2 0x3FA PUSH2 0x612 JUMP JUMPDEST PUSH0 PUSH1 0x3 SLOAD GT PUSH2 0x43B JUMPI PUSH1 0x40 MLOAD PUSH3 0x461BCD PUSH1 0xE5 SHL DUP2 MSTORE PUSH1 0x20 PUSH1 0x4 DUP3 ADD MSTORE PUSH1 0xD PUSH1 0x24 DUP3 ADD MSTORE PUSH13 0x4865617020697320656D707479 PUSH1 0x98 SHL PUSH1 0x44 DUP3 ADD MSTORE PUSH1 0x64 ADD PUSH2 0x2D6 JUMP JUMPDEST PUSH0 DUP1 DUP1 MSTORE PUSH1 0x2 PUSH1 0x20 DUP2 SWAP1 MSTORE PUSH32 0xAC33FF75C19E70FE83507DB0D683FD3465C996598DC972688B7ACE676C89077B SLOAD PUSH1 0x3 DUP1 SLOAD SWAP2 SWAP4 SWAP2 DUP3 SWAP1 PUSH2 0x47A SWAP1 PUSH2 0x7C1 JUMP JUMPDEST SWAP2 DUP3 SWAP1 SSTORE POP DUP2 MSTORE PUSH1 0x20 DUP1 DUP3 ADD SWAP3 SWAP1 SWAP3 MSTORE PUSH1 0x40 ADD PUSH0 SWAP1 DUP2 KECCAK256 SLOAD DUP2 DUP1 MSTORE PUSH1 0x2 SWAP1 SWAP3 MSTORE PUSH32 0xAC33FF75C19E70FE83507DB0D683FD3465C996598DC972688B7ACE676C89077B SWAP2 SWAP1 SWAP2 SSTORE PUSH2 0x4C8 SWAP1 PUSH2 0x4DF JUMP JUMPDEST PUSH0 DUP2 DUP2 MSTORE PUSH1 0x4 PUSH1 0x20 MSTORE PUSH1 0x40 SWAP1 KECCAK256 SLOAD SWAP1 SWAP3 POP SWAP1 POP SWAP1 SWAP2 JUMP JUMPDEST PUSH2 0x4E7 PUSH2 0x612 JUMP JUMPDEST PUSH0 PUSH2 0x4F3 DUP3 PUSH1 0x2 PUSH2 0x7D6 JUMP JUMPDEST PUSH2 0x4FE SWAP1 PUSH1 0x1 PUSH2 0x7ED JUMP JUMPDEST SWAP1 POP PUSH0 PUSH2 0x50C DUP4 PUSH1 0x2 PUSH2 0x7D6 JUMP JUMPDEST PUSH2 0x517 SWAP1 PUSH1 0x2 PUSH2 0x7ED JUMP JUMPDEST PUSH0 DUP5 DUP2 MSTORE PUSH1 0x2 PUSH1 0x20 DUP2 DUP2 MSTORE PUSH1 0x40 DUP1 DUP5 KECCAK256 SLOAD DUP5 MSTORE PUSH1 0x4 DUP1 DUP4 MSTORE DUP2 DUP6 KECCAK256 SLOAD DUP9 DUP7 MSTORE DUP5 DUP5 MSTORE DUP3 DUP7 KECCAK256 SLOAD DUP7 MSTORE DUP2 DUP5 MSTORE DUP3 DUP7 KECCAK256 SLOAD DUP8 DUP8 MSTORE DUP6 DUP6 MSTORE DUP4 DUP8 KECCAK256 SLOAD DUP8 MSTORE SWAP2 SWAP1 SWAP4 MSTORE SWAP4 KECCAK256 SLOAD PUSH1 0x3 SLOAD SWAP5 SWAP6 POP SWAP1 SWAP4 SWAP1 SWAP2 PUSH2 0x56C SWAP2 PUSH2 0x800 JUMP JUMPDEST DUP7 LT ISZERO DUP1 ISZERO PUSH2 0x57D JUMPI POP PUSH1 0x3 SLOAD DUP7 GT ISZERO JUMPDEST ISZERO PUSH2 0x58A JUMPI POP POP POP POP POP POP JUMP JUMPDEST DUP2 DUP4 LT DUP1 PUSH2 0x597 JUMPI POP DUP1 DUP4 LT JUMPDEST ISZERO PUSH2 0x5CF JUMPI DUP1 DUP3 GT ISZERO PUSH2 0x5BC JUMPI PUSH2 0x5AE DUP7 DUP7 PUSH2 0x6AB JUMP JUMPDEST PUSH2 0x5B7 DUP6 PUSH2 0x4DF JUMP JUMPDEST PUSH2 0x5CF JUMP JUMPDEST PUSH2 0x5C6 DUP7 DUP6 PUSH2 0x6AB JUMP JUMPDEST PUSH2 0x5CF DUP5 PUSH2 0x4DF JUMP JUMPDEST POP POP POP POP POP JUMPDEST POP JUMP JUMPDEST PUSH2 0x5E0 PUSH2 0x612 JUMP JUMPDEST PUSH1 0x1 PUSH1 0x1 PUSH1 0xA0 SHL SUB DUP2 AND PUSH2 0x609 JUMPI PUSH1 0x40 MLOAD PUSH4 0x1E4FBDF7 PUSH1 0xE0 SHL DUP2 MSTORE PUSH0 PUSH1 0x4 DUP3 ADD MSTORE PUSH1 0x24 ADD PUSH2 0x2D6 JUMP JUMPDEST PUSH2 0x5D5 DUP2 PUSH2 0x6E2 JUMP JUMPDEST PUSH0 SLOAD PUSH1 0x1 PUSH1 0x1 PUSH1 0xA0 SHL SUB AND CALLER EQ PUSH2 0x3EE JUMPI PUSH1 0x40 MLOAD PUSH4 0x118CDAA7 PUSH1 0xE0 SHL DUP2 MSTORE CALLER PUSH1 0x4 DUP3 ADD MSTORE PUSH1 0x24 ADD PUSH2 0x2D6 JUMP JUMPDEST PUSH0 DUP2 PUSH0 SUB PUSH2 0x68E JUMPI PUSH1 0x40 MLOAD PUSH3 0x461BCD PUSH1 0xE5 SHL DUP2 MSTORE PUSH1 0x20 PUSH1 0x4 DUP3 ADD MSTORE PUSH1 0x1B PUSH1 0x24 DUP3 ADD MSTORE PUSH32 0x506F736974696F6E2073686F756C64206E6F74206265207A65726F0000000000 PUSH1 0x44 DUP3 ADD MSTORE PUSH1 0x64 ADD PUSH2 0x2D6 JUMP JUMPDEST PUSH1 0x2 PUSH2 0x69B PUSH1 0x1 DUP5 PUSH2 0x81F JUMP JUMPDEST PUSH2 0x6A5 SWAP2 SWAP1 PUSH2 0x800 JUMP JUMPDEST SWAP3 SWAP2 POP POP JUMP JUMPDEST PUSH0 DUP2 DUP2 MSTORE PUSH1 0x2 PUSH1 0x20 SWAP1 DUP2 MSTORE PUSH1 0x40 DUP1 DUP4 KECCAK256 DUP1 SLOAD DUP7 DUP6 MSTORE DUP3 DUP6 KECCAK256 DUP1 SLOAD DUP4 SSTORE DUP2 SWAP1 SSTORE DUP5 MSTORE PUSH1 0x5 SWAP1 SWAP3 MSTORE DUP1 DUP4 KECCAK256 SWAP2 SLOAD DUP4 MSTORE SWAP1 SWAP2 KECCAK256 SWAP2 SWAP1 SWAP2 SSTORE SSTORE JUMP JUMPDEST PUSH0 DUP1 SLOAD PUSH1 0x1 PUSH1 0x1 PUSH1 0xA0 SHL SUB DUP4 DUP2 AND PUSH1 0x1 PUSH1 0x1 PUSH1 0xA0 SHL SUB NOT DUP4 AND DUP2 OR DUP5 SSTORE PUSH1 0x40 MLOAD SWAP2 SWAP1 SWAP3 AND SWAP3 DUP4 SWAP2 PUSH32 0x8BE0079C531659141344CD1FD0A4F28419497F9722A3DAAFE3B4186F6B6457E0 SWAP2 SWAP1 LOG3 POP POP JUMP JUMPDEST PUSH0 PUSH1 0x20 DUP3 DUP5 SUB SLT ISZERO PUSH2 0x741 JUMPI PUSH0 DUP1 REVERT JUMPDEST POP CALLDATALOAD SWAP2 SWAP1 POP JUMP JUMPDEST PUSH0 DUP1 PUSH1 0x40 DUP4 DUP6 SUB SLT ISZERO PUSH2 0x759 JUMPI PUSH0 DUP1 REVERT JUMPDEST POP POP DUP1 CALLDATALOAD SWAP3 PUSH1 0x20 SWAP1 SWAP2 ADD CALLDATALOAD SWAP2 POP JUMP JUMPDEST PUSH0 PUSH1 0x20 DUP3 DUP5 SUB SLT ISZERO PUSH2 0x778 JUMPI PUSH0 DUP1 REVERT JUMPDEST DUP2 CALLDATALOAD PUSH1 0x1 PUSH1 0x1 PUSH1 0xA0 SHL SUB DUP2 AND DUP2 EQ PUSH2 0x78E JUMPI PUSH0 DUP1 REVERT JUMPDEST SWAP4 SWAP3 POP POP POP JUMP JUMPDEST PUSH4 0x4E487B71 PUSH1 0xE0 SHL PUSH0 MSTORE PUSH1 0x11 PUSH1 0x4 MSTORE PUSH1 0x24 PUSH0 REVERT JUMPDEST PUSH0 PUSH1 0x1 DUP3 ADD PUSH2 0x7BA JUMPI PUSH2 0x7BA PUSH2 0x795 JUMP JUMPDEST POP PUSH1 0x1 ADD SWAP1 JUMP JUMPDEST PUSH0 DUP2 PUSH2 0x7CF JUMPI PUSH2 0x7CF PUSH2 0x795 JUMP JUMPDEST POP PUSH0 NOT ADD SWAP1 JUMP JUMPDEST DUP1 DUP3 MUL DUP2 ISZERO DUP3 DUP3 DIV DUP5 EQ OR PUSH2 0x6A5 JUMPI PUSH2 0x6A5 PUSH2 0x795 JUMP JUMPDEST DUP1 DUP3 ADD DUP1 DUP3 GT ISZERO PUSH2 0x6A5 JUMPI PUSH2 0x6A5 PUSH2 0x795 JUMP JUMPDEST PUSH0 DUP3 PUSH2 0x81A JUMPI PUSH4 0x4E487B71 PUSH1 0xE0 SHL PUSH0 MSTORE PUSH1 0x12 PUSH1 0x4 MSTORE PUSH1 0x24 PUSH0 REVERT JUMPDEST POP DIV SWAP1 JUMP JUMPDEST DUP2 DUP2 SUB DUP2 DUP2 GT ISZERO PUSH2 0x6A5 JUMPI PUSH2 0x6A5 PUSH2 0x795 JUMP INVALID LOG2 PUSH5 0x6970667358 0x22 SLT KECCAK256 CALLCODE BALANCE 0xAC 0xAB DUP2 CODESIZE PUSH15 0xCD17BB14CDBD61B859DA89E32D8874 MSTORE8 CODESIZE SSTORE STOP 0x27 0xB6 0xC1 0x23 MSTORE JUMP PUSH5 0x736F6C6343 STOP ADDMOD AND STOP CALLER "
				},
				"gasEstimates": {
					"creation": {
						"codeDepositCost": "430400",
						"executionCost": "infinite",
						"totalCost": "infinite"
					},
					"external": {
						"extractMax()": "infinite",
						"getMax()": "6677",
						"heap(uint256)": "2425",
						"insert(uint256,uint256)": "infinite",
						"maxHeapify(uint256)": "infinite",
						"owner()": "2321",
						"positionMapping(uint256)": "2535",
						"renounceOwnership()": "infinite",
						"size()": "2327",
						"transferOwnership(address)": "28404",
						"updateValue(uint256,uint256)": "infinite",
						"valueMapping(uint256)": "2512"
					},
					"internal": {
						"parent(uint256)": "infinite",
						"swap(uint256,uint256)": "94996"
					}
				},
				"methodIdentifiers": {
					"extractMax()": "8860805a",
					"getMax()": "3075f552",
					"heap(uint256)": "1c01f292",
					"insert(uint256,uint256)": "1d834a1b",
					"maxHeapify(uint256)": "9f9a7f50",
					"owner()": "8da5cb5b",
					"positionMapping(uint256)": "843f9793",
					"renounceOwnership()": "715018a6",
					"size()": "949d225d",
					"transferOwnership(address)": "f2fde38b",
					"updateValue(uint256,uint256)": "5b500826",
					"valueMapping(uint256)": "f1269e01"
				}
			},
			"storageLayout": {
				"storage": [
					{
						"astId": 8,
						"contract": "packages/revolution-contracts/MaxHeap.sol:MaxHeap",
						"label": "_owner",
						"offset": 0,
						"slot": "0",
						"type": "t_address"
					},
					{
						"astId": 180,
						"contract": "packages/revolution-contracts/MaxHeap.sol:MaxHeap",
						"label": "_status",
						"offset": 0,
						"slot": "1",
						"type": "t_uint256"
					},
					{
						"astId": 1102,
						"contract": "packages/revolution-contracts/MaxHeap.sol:MaxHeap",
						"label": "heap",
						"offset": 0,
						"slot": "2",
						"type": "t_mapping(t_uint256,t_uint256)"
					},
					{
						"astId": 1105,
						"contract": "packages/revolution-contracts/MaxHeap.sol:MaxHeap",
						"label": "size",
						"offset": 0,
						"slot": "3",
						"type": "t_uint256"
					},
					{
						"astId": 1110,
						"contract": "packages/revolution-contracts/MaxHeap.sol:MaxHeap",
						"label": "valueMapping",
						"offset": 0,
						"slot": "4",
						"type": "t_mapping(t_uint256,t_uint256)"
					},
					{
						"astId": 1115,
						"contract": "packages/revolution-contracts/MaxHeap.sol:MaxHeap",
						"label": "positionMapping",
						"offset": 0,
						"slot": "5",
						"type": "t_mapping(t_uint256,t_uint256)"
					}
				],
				"types": {
					"t_address": {
						"encoding": "inplace",
						"label": "address",
						"numberOfBytes": "20"
					},
					"t_mapping(t_uint256,t_uint256)": {
						"encoding": "mapping",
						"key": "t_uint256",
						"label": "mapping(uint256 => uint256)",
						"numberOfBytes": "32",
						"value": "t_uint256"
					},
					"t_uint256": {
						"encoding": "inplace",
						"label": "uint256",
						"numberOfBytes": "32"
					}
				}
			},
			"userdoc": {
				"kind": "user",
				"methods": {
					"constructor": {
						"notice": "Constructor to initialize the MaxHeap"
					},
					"extractMax()": {
						"notice": "Extract the maximum element from the heap"
					},
					"getMax()": {
						"notice": "Get the maximum element from the heap"
					},
					"heap(uint256)": {
						"notice": "Struct to represent an item in the heap by it's ID"
					},
					"insert(uint256,uint256)": {
						"notice": "Insert an element into the heap"
					},
					"maxHeapify(uint256)": {
						"notice": "Reheapify the heap starting at a given position"
					},
					"positionMapping(uint256)": {
						"notice": "Mapping to keep track of the position of an item in the heap"
					},
					"updateValue(uint256,uint256)": {
						"notice": "Update the value of an existing item in the heap"
					},
					"valueMapping(uint256)": {
						"notice": "Mapping to keep track of the value of an item in the heap"
					}
				},
				"version": 1
			}
		}
	}
}